:100000000C9419030C9451030C9451030C94510358
:100010000C9451030C9451030C9451030C94510310
:100020000C9451030C9451030C9400290C94BB279D
:100030000C94062B0C9451030C9451030C94510313
:100040000C9451030C9451030C9451030C945103E0
:100050000C9451030C94B92A0C9451030C94510341
:100060000C9451030C9451030C9451030C945103C0
:100070000C9451030C9451030C9451030C945103B0
:100080000C9451030C9451030C9451030C945103A0
:100090000C9451030C9451030C9451030C94510390
:1000A0000C9451030C9451030C945103E7055B0627
:1000B000EF05B905BD05F305C005F6050106CB053D
:1000C0005106CF050506D30509063306D7050D06EB
:1000D0003D06DD0513061D06C405FA05C705FD0529
:1000E000E2051806290649064B06B505EB05640628
:1000F00084068A0677057E06900696069C06DF062D
:10010000ED06F206F706FC06010706070B071007C7
:1001100015071A072107240727072A077F057F05E8
:100120007F057F057F057F05AE07AE07E107E10785
:100130005B087908810981097E08F208030903092F
:10014000690E6C0E9F0EB70EBE0EC90ECC0ECC0EF5
:10015000CC0EE20FE20F490F4B0F500F760F990FA5
:100160009C0F9F0FC20FE20FE20FE20FE20FE20FB0
:10017000E20FE20FE20FE20FE20FE20FE20FE20FF7
:10018000F20DFD0D080E120E350E380E500E5C0EDF
:1001900058217F2128237F212823CB21EE212823CA
:1001A000E322F32200000000000000000000000035
:1001B000000000000000000000000000000000003F
:1001C00000000000000000007E0F00D4FFFFFFC70A
:1001D0000000007800000000000000002A2B28002A
:1001E00000000000000000000000000000000029E6
:1001F000000000002C1E3420212224342627252E26
:10020000362D3738271E1F2021222324252633335D
:10021000362E37381F0405060708090A0B0C0D0E89
:100220000F101112131415161718191A1B1C1D2F55
:100230003130232D350405060708090A0B0C0D0E75
:100240000F101112131415161718191A1B1C1D2F35
:100250003130354C002636460027374700283848CD
:10026000002E3E4E002F3F4F0030405000293949AC
:10027000002A3A4A002B3B4B003141510032425296
:1002800000334353008494A400A5958500A6968668
:1002900000A8988800A999890000000000000000CB
:1002A000000000000000000000000000000000004E
:1002B000000000000000000000000000000000003E
:1002C000000000000000000000000000000000002E
:1002D000000000000000000000000000000000001E
:1002E000000000000000000000000000000000000E
:1002F00000000000000000000000000000000000FE
:1003000000000000000000000000000000000000ED
:10031000000000000000000005010902A1018502A3
:100320000901A100050919012908150025019508F1
:10033000750181020501093009311581257F95027A
:100340007508810609381581257F95017508810694
:10035000050C0A38021581257F950175088106C0B4
:10036000C005010980A101850319012AB700150103
:1003700026B700950175108100C0050C0901A10187
:10038000850419012AA002150126A0029501751005
:100390008100C00660FF0961A1010962150026FF06
:1003A000009520750881020963150026FF0095203D
:1003B00075089102C005010906A101050719E02988
:1003C000E7150025019508750181029501750881E1
:1003D000010507190029FF150026FF00950675087D
:1003E00081000508190129059505750191029501FE
:1003F00075039101C009025B00030100A0FA090422
:100400000000010301010009211101000122400047
:100410000705810308000109040100020300000030
:100420000921110100012222000705820320000199
:100430000705030320000109040200010300000076
:10044000092111010001227B00070584032000011E
:100450001201000200000008887C977C0100010264
:10046000000116034C006100740069006E00310049
:1004700037005200470042000000120331003800EC
:100480003400330038003800380030000000040326
:10049000090453005400550021525F0060006100C0
:1004A00057005C005D005E00000059005A005B00D0
:1004B0005800620063000000000020782178560098
:1004C00001000100010001004E00010001000100D7
:1004D0000000010001000100010001000100000016
:1004E0000000010001000100010001000100010005
:1004F00001000100010001000000010001000100F5
:1005000001000100010000000000010001000100E5
:1005100001000100010001000100010001000100D3
:1005200000000100010001000100010001000000C5
:1005300000000001010101010101010102020202AA
:10054000020202020203030303030303030404047D
:100550000404040405050505050606060606070746
:1005600007070708080808090909090A0A0A0B0BFE
:100570000B0C0C0C0D0D0D0E0E0E0F0F0F1010119D
:100580001111121213131414151516161717181823
:1005900019191A1A1B1B1C1D1D1E1E1F202021228B
:1005A00022232424252626272829292A2B2C2D2DD1
:1005B0002E2F30313232333435363738393A3B3CEE
:1005C0003D3E3F404142434445464748494A4C4DE1
:1005D0004E4F50515354555658595A5B5D5E5F61AA
:1005E0006264656668696B6C6D6F7072737577783D
:1005F0007A7B7D7E8082838587888A8C8E8F91939B
:100600009596989A9C9EA0A2A3A5A7A9ABADAFB1C1
:10061000B3B5B7BABCBEC0C2C4C6C9CBCDCFD1D4A6
:10062000D6D8DBDDDFE2E4E7E9EBEEF0F3F5F8FA4C
:10063000FDFF11241FBECFEFDAE0DEBFCDBF04B651
:1006400003FE18C08091560590915705A09158055A
:10065000B09159058730904BA740B04B59F4109298
:100660005605109257051092580510925905E0E072
:10067000F8E3099512E0A0E0B1E0ECE6F3E602C091
:1006800005900D92A431B107D9F725E0A4E1B2E0BD
:1006900001C01D92A635B207E1F70E94DD090C9456
:1006A000B4310C9400000E9476182FEF84E39CE094
:1006B000215080409040E1F700C000009CE088E1BC
:1006C0000FB6F894A895809360000FBE90936000D9
:1006D000FFCFA7E1B0E0EFE6F3E00C94B9304B8B2D
:1006E0005C8B6D8B7E8B8F8B61111092310586E058
:1006F0009E01235F3F4FD901E82F1D92EA95E9F74C
:1007000095E0FE017396D90101900D929A95E1F75B
:100710009C894E895F897B897D879E876F87598BEE
:10072000488BF901DE01179601900D928A95E1F749
:10073000CE0107960E94351681113EC086E0FE016B
:100740003796DE01119601900D928A95E1F7FF81AF
:10075000E8856A857B856115710531F0EF3F31F4DD
:1007600081E0FF3F19F403C081E001C080E080FD1B
:1007700023C02091F60430E0C901019687709927C3
:100780004091270550E08417950779F1F983EA83B2
:100790007D836C8396E0929FD001939FB00D1124CE
:1007A000A950BB4FFE01319601900D929A95E1F749
:1007B0008093F6040E946E2616E0809127059091A2
:1007C000F6048917F9F0189FC001112489509B4F36
:1007D0000E9435168823B1F08091270590E001969C
:1007E0008770992780932705E8CF0E94761810928A
:1007F000F60410922705E0EFF4E086E0DF011D9299
:100800008A95E9F76796E3E00C94D530ADE0B0E067
:10081000ECE0F4E00C94AA30FC018081918123810A
:100820003481232B31F09F3F31F491E08F3F19F455
:1008300003C091E001C090E090FDBBC57F0185E061
:10084000DE01199601900D928A95E1F7F701228158
:1008500089859A85222349F00E94C215182F682F96
:1008600089859A850E94001803C00E94CC17182F12
:1008700069857A85812F0E9438248C01F701828155
:10088000882309F42CC1C80197578038910508F0D6
:1008900048C1003108F033C18FEF93E00E94FA3075
:1008A00081112DC136ECA32EB12C002379F0A114B7
:1008B000F4E0BF0609F423C1C5010E94FA3081119A
:1008C00001C001502FEFA21AB20AEFCFCE0101965C
:1008D0002C0188E0F20111928A95E9F72AE0322E84
:1008E00085010F5F1F4FC5010E94FA3089831A826C
:1008F000882309F404C1813009F041C06501F2E0A8
:10090000CF0ED11CC8010E94FA308A83882309F4D3
:10091000F6C09FEF980F933060F423E0A20EB11C55
:10092000C6010E94FA308B83882309F4E8C01C8238
:1009300029C0843031F54E0133E0830E911C02E072
:1009400010E056018FEFA81AB80AC6010E94FA30CB
:10095000F40181934F01882309F4D1C08C3741F40D
:10096000E2E0F0E0EC0FFD1FE00FF11F10820AC083
:100970000F5F1F4F65010730110519F7C0C05801FF
:1009800001C056018201F8012081222309F4A8CF79
:10099000213009F04CC08181813049F46801F2E0D6
:1009A000CF0ED11CF80182810E94211A0AC0823028
:1009B00051F46801F2E0CF0ED11CF80182810E944F
:1009C000C219860189C0833049F46801F2E0CF0E74
:1009D000D11CF80182810E948619F3CF843019F06E
:1009E0000F5F1F4F79C0F80122810E5F1F4F80E01B
:1009F00090E030E0205331092A30310568F4389E08
:100A0000A001399E500D1124C901840F951F0F5F5D
:100A10001F4FF8012081EDCF009709F45DC0EFE989
:100A2000FFE03197F1F700C000000197F5CFE22F0A
:100A3000F0E0EC52FE4F2490822F869586958695A5
:100A400090E0FC01EC53FE4F64902770712C022E55
:100A500002C0759467940A94E2F7F1E06F2277245C
:100A6000FC01EC54FE4F8490912C022E02C0959410
:100A700087940A94E2F731E083229924FC01EC5533
:100A8000FE4FC490D12C02C0D594C7942A95E2F7AA
:100A900081E0C822DD246114710419F081EE0E9406
:100AA000C2198114910419F086EE0E94C219822D98
:100AB0000E94211A8114910419F086EE0E94861971
:100AC0006114710419F081EE0E948619C114D104D9
:100AD00019F08CE20E94211A0F5F1F4F54CFF801CA
:100AE000E851FC47E730F10508F041C103C106E2D7
:100AF00021EE41EE6AE17CE7C7010E94A02B8091C4
:100B00002805877009F455C4F7018281882309F408
:100B100050C480911E0282FF4CC482E00E941A26BB
:100B200048C4F801E851FC47E730F10508F4E2C099
:100B300010923C05C8019057839708F003C184E0E8
:100B400090E00E94023190931E0280931D02F801F2
:100B5000E150F047E232F10520F4EA5AFF4F0C94DD
:100B60006F3180911D028160ACC080911E0288604F
:100B7000B4C080911D028260A4C080911D0220C07B
:100B800080911D0288609DC080911E021EC08091D0
:100B90001E028260A2C080911D02806192C080917D
:100BA0001D0280628EC080911D0280648AC00E94F6
:100BB000761880911D02806884C080911D02886033
:100BC00084607FC080911E028260816086C08091B7
:100BD0001D028E7F76C080911E02877F7EC080912D
:100BE0001D028D7F6EC080911D0220C080911D026C
:100BF000877F67C080911E021EC080911E028D7F7C
:100C00006CC080911D028F7E5CC080911D028F7D23
:100C100058C080911D028F7B54C00E94761880912D
:100C20001D028F774EC080911D02877F8B7F49C048
:100C300080911E028D7F8E7F50C080911D0282FBAD
:100C4000222720F991E0922790FB82F990FB83F90B
:100C500038C080911E02982F909591708E7F892BBD
:100C600090FB81F93AC080911D0286FB222720F972
:100C700091E0922790FB86F924C00E94761880911B
:100C80001D0287FB222720F991E0922790FB87F92C
:100C900018C061E001C060E08EE090E00E94183171
:100CA0001EC080911D0284FB222720F991E092272B
:100CB00090FB84F906C080911D02982F909590FBBF
:100CC00080F980931D020BC080911E0283FB2227B6
:100CD00020F991E0922790FB83F980931E026091A6
:100CE0001D0270911E0284E090E00E9436310E9445
:100CF000761805CFE858FF4F0C946F3107E225EEC8
:100D000045EE6BE17CE7F8CE06E221EE40EE68E1CD
:100D10007CE7F2CE07E225EE44EE69E17CE7ECCE1B
:100D200006E221EE42EE6CE17CE7E6CE07E225EE3C
:100D300046EE6DE17CE7E0CE08E221E045EE6EE1B3
:100D40007CE7DACE0631FCE71F0709F096C08091F8
:100D500032058A7A91E009F490E0909316028111AD
:100D60001EC069E288EE94E00E942F2B15C0063168
:100D70002CE71207B1F4809116028111E1C289E2D9
:100D8000E8EEF4E02EEE34E09281891301C0128285
:100D900031962E173F07C1F70E94DE25B0CE65E3DE
:100DA000E1CF809132058272F801E052F847E531D7
:100DB000F10508F054C0E158FF4F0C946F31909149
:100DC000E20481E089278093E20410920A01809175
:100DD000420381608093420392CE45EA5DE160EB7D
:100DE0007DE12CC040EB5DE165EA7DE127C046E78F
:100DF0005DE161E87DE122C041E85DE166E77DE11A
:100E00001DC04AE55DE168E67DE118C048E65DE1A8
:100E10006AE57DE113C04EE35DE16CE47DE10EC067
:100E20004CE45DE16EE37DE109C040E45AE16EE42B
:100E30007AE104C04EE45AE160E47AE10E94C81C01
:100E40005ECE61E081E008C061E084E005C061E061
:100E500089E002C061E08EE00E948C1D50CE073711
:100E6000FCE71F0711F481E005C008372CE71207E3
:100E700011F582E00E945A1808C007373CE71307B3
:100E800009F060C281E00E94671843E062E081E0FF
:100E90000E94381834CE03309CE7190709F475C254
:100EA00008F057C20115FCE71F0709F460C20130C2
:100EB0001C4709F470C2F7018281008111818823E7
:100EC00049F0C8010E94C215D82E682FC8010E949F
:100ED000001804C0C8010E94CC17D82EB8018D2D6F
:100EE0000E9438240E944624B82E192F982EF7010C
:100EF0000281A580A2949FE0A92280912805877095
:100F0000E9F00023D9F0812F807F803451F080E216
:100F10008B0D883098F0A11004C0812F807E803224
:100F200069F080911E0282FF09C082E00E941A26A9
:100F3000809128058770DD24D3948111D12CC12E96
:100F4000C2948FE0C8228C2D90E08C30910508F07F
:100F5000D8C1FC01EC56FF4F0C946F31812F807F7C
:100F60001F70882311F01295107F0023B9F0112310
:100F700009F4B5C180E28B0D883010F0911006C0E5
:100F800090913205192B1093320505C090913105CF
:100F9000192B109331050E94DE25A1C18B2D0E94D3
:100FA0008619112309F4ADC180E28B0D883088F1D8
:100FB000992079F1109590913105192310933105FD
:100FC0002BC0812F807F1F70803211F01295107F0F
:100FD0008B2D992029F0F1E09F1609F441C04FC0F4
:100FE00080911E0282FD1BC0002369F0112339F09D
:100FF00090913205192B109332050E94DE2580E076
:101000000E94C2197EC180E00E948619112309F452
:1010100078C1812F0E94D7250E94DE2572C100234E
:1010200081F080913305AA2051F021E0A21207C07F
:10103000182B181709F465C11093330562C1812B71
:1010400016C0A11003C00E94D12531C031E0A31603
:1010500009F457C1812F0E949D180E94D12551C1CA
:10106000002341F085E08A1508F44BC1812F0E94CE
:10107000A41847C194E09A1508F443C118C000238E
:1010800049F0AA2099F3F701858180FF28C18F706C
:101090008583ECCFAA2059F0893309F02FC1FFEFE7
:1010A00027EE33E0F15020403040E1F725C1812F99
:1010B0000E949D1826C1812F86958695837019F010
:1010C000813061F01EC1002321F08B2D912F937090
:1010D00002C080E090E00E946E2B19C1002321F035
:1010E0008B2D912F937002C080E090E00E94492BDD
:1010F0000EC1602F8B2D0E94AE1809C1812F837005
:10110000A9F5011102C14B2D429546954770440F38
:10111000440F8B2D8F7090E09C01042E01C0220F94
:101120000A94EAF7B4FE08C08FE090E001C0880F8F
:101130004A95EAF7809501C080E0169516951370E0
:10114000123069F088F490913405113019F0822B37
:10115000892302C0922B892B0E947318D6C0822B40
:10116000909134058927F8CF822BF6CF002319F010
:10117000812F817001C08695882309F4C6C04B2D4C
:10118000429546954770440F440F8B2D8F7090E029
:101190009C01042E01C0220F0A94EAF7B4FE08C095
:1011A0008FE090E001C0880F4A95EAF7809501C072
:1011B00080E0169516951370123059F078F49091DE
:1011C0001C02113019F0822B892309C0922B892B24
:1011D00006C0822B90911C02892701C0822B0E949D
:1011E000351893C01F70002339F0812F0E946718B3
:1011F0008B2D0E94A41889C08B2D0E949D18812FD1
:101200000E945A1882C08B2D92EF991681F1991580
:1012100038F0E0EF9E1659F0F1EF9F1619F15BC020
:1012200023EF921659F134EF9316C1F054C0002306
:1012300081F084E08A1508F464C01F7181E090E0B9
:10124000012E01C0880F0A94EAF790911C028927A9
:1012500020C095E09A1508F454C0EFCF80911E028B
:1012600082FD1AC0002329F0812F8F7127C000232F
:10127000D9F3812F8F710E945A1843C0002341F087
:101280001F7181E0012E01C0880F0A94EAF701C0A6
:1012900080E00E94351835C0002399F01F71812F1E
:1012A0000E94671880911E0282FF07C0E8E01E9F1F
:1012B000C0011124836080932805812F0E94671844
:1012C00020C081E00E941A26F1E0FA15D0F482E0F5
:1012D0000E941A2616C0002321F0AA2029F28B2D85
:1012E0008FCEAA2031F2893349F42FEF37EE83E015
:1012F000215030408040E1F700C000008B2D0E945B
:10130000861988EF8C0D843010F40E94932BDD2019
:1013100009F44FC08091280580FD4BC0F70112826F
:101320008595859585950E946718C7010E940604DA
:10133000809128058595859585950E945A1839C014
:1013400085E31ECD08378CE7180709F0A4CD82E0AD
:101350009ACD0B353CE7130741F10C358CE71807A4
:10136000E1F00A351C4709F0A6CD81E01FC00E94BC
:101370007618EFEFF4E32CE0E150F0402040E1F785
:1013800000C000000E94952ABACB6FEF7FEF80E08B
:1013900090E00E9436310E94530380911E0282FB2E
:1013A000882780F991E0892701C080E00E943726D4
:1013B00082CD2D96E2E10C94C630A7E3B0E0E3EED7
:1013C000F9E00C94AA3085B7806885BF85B780683E
:1013D00085BF84B7877F84BF0FB6F894A8958091A6
:1013E0006000886180936000109260000FBE90E002
:1013F00080E80FB6F89480936100909361000FBE6F
:1014000080E493E290931502809314020E94FF27D8
:101410000E94A5288091E20084608093E200789485
:101420008091AB048823A1F01091E9001F70909186
:10143000EC00892F817090FD80E8182B1092E90054
:101440008091E80083FD0E9475201F701093E900D1
:1014500082E084BD93E095BD9AEF97BD80936E00C6
:101460000E94AF1C811102C00E949F1C04E111E088
:10147000D8018D918D018F3F11F00E942124B1E0A0
:1014800008311B07A9F708E111E09DE1E92E91E081
:10149000F92EF80181918F018F3F11F00E942124D4
:1014A000E016F106B1F785E0E6E2F2E0DF01282F71
:1014B0001D922A95E9F7E7E1F2E0DF011D928A9596
:1014C000E9F70E946325811102C00E946F2582E026
:1014D00090E00E94FA3080931F0284E090E00E9426
:1014E000023190931E0280931D020E940927EFEBA8
:1014F000FDE53197F1F700C000000E9409278091B7
:10150000260280FF08C06FEF7FEF80E090E00E942E
:1015100036310E94952A83E090E00E94FA300E94C2
:1015200073180E947B1B1092B904E2EDF4E08FEF78
:101530009FEF8193919324E0E23EF207D1F710925E
:101540001403EDE2F3E08DE393E02FEF3FEF2193FF
:1015500031938E179F07D9F70E946325811104C02C
:101560000E946F250E941A1081E08093420346E09A
:1015700050E06CE170E082EE94E00E94EA3010925C
:1015800042038091E2048C7F11F40E941A1080E0E3
:1015900091E09093400580933F05DD24D3948E0124
:1015A0000F5F1F4F8091AB04853009F062C0F0E4FB
:1015B000CF2EA3E0BA2EB0E1EB2E82E1F82E80917F
:1015C000AB04853009F04FC08091AB04843009F43E
:1015D00039C00E94C81D8091410381110DC00E9435
:1015E0003510109209018091E20483708093080104
:1015F0000E94D81AB0920A0131E030934103109250
:10160000430548E150E00FB6F894A8954093600078
:101610000FBEC092600083B7817F846083BF83B7B1
:10162000816083BF7894889583B78E7F83BF0FB620
:10163000F894A89580916000886180936000109272
:1016400060000FBE8091AA04882309F4B8CF0E94DD
:101650000927E6E2F2E081918111BDC452E0EB324C
:10166000F507C9F7ACCF0E9476180E94932B109211
:1016700041030E94092780E292E099A788A7A6E289
:10168000B2E0BBABAAABFC0191918D91892722E01E
:10169000E532F20719F08823B9F305C0811103C0C0
:1016A0000E94E12664C147EF52E05FA74EA78CE29B
:1016B00091E09BA78AA7C12CAAA9BBA93D90BBAB6F
:1016C000AAABE8A5F9A58081832588AB882309F416
:1016D00037C14EA45FA42AA53BA53FA32EA3712C1E
:1016E0006624639488A9862109F41AC1862C832074
:1016F00079A2CAA281E0811001C080E08BA30E9480
:10170000FA2A8160782F9DA38CA349A15AA16BA1CD
:101710008DA10E946903882049F0AEA1BFA18C91E0
:101720008F3F21F089AB9924939401C0912CE92C2F
:10173000F12C80911403F701E80FF11D3997ACF1FA
:1017400068E0A62EB12CAE18BF08B7016F5F7F4FBF
:101750006C5E7C4FA50185E193E00E94AB31B7013F
:10176000675F7F4F6C5E7C4FA5018DE193E00E9427
:10177000AB31A501440F551FB701660F771F675E98
:101780007F4F6C5E7C4F8DE293E00E94AB31B701DE
:101790006F5E7F4F6C5E7C4FA50185E293E00E94F7
:1017A000AB3188E08919809314038091140390E091
:1017B000F9A9AF2FB0E09D01220F331F205C3E4FEF
:1017C000AA0FBB1FBD016F5B7E4F41E0480F99150B
:1017D000B0F490E0FC01EC5EFC4FD9015C915183C8
:1017E000DB015C915187B9A9B18B880F991FFC016E
:1017F000EC5EFC4F128E118E91E0842FE6CF809329
:101800001403882009F48CC08091E2048C7F8C360C
:1018100009F086C0EEA1FFA180818F3F09F480C04E
:101820007CE2872E71E0972E27EF32E03DA72CA7B0
:10183000212C90E09C01220F331FA901405C5E4FD8
:101840005DAB4CABD901AF5BBE4FBFABAEABACA495
:10185000BDA4E12CF12CF401EE0DFF1D80818F3F22
:1018600009F446C0C2100AC07E1008C0F2012081EF
:1018700030E2230F08F42FEF20833AC090E0ECA968
:10188000FDA9408150E0FC01EE0FFF1FE05CFE4F20
:101890002081421B5109AEA9BFA92C9130E0880FCD
:1018A000991FFC01E45DFE4F8589281B3109449F87
:1018B000B001459F700D700D1124229FC001239F20
:1018C000900D900D1124860F971F0E94602E893273
:1018D00078F438E2282F321B08F430E0313108F078
:1018E00030E1D5012C91230F08F42FEFF50120836F
:1018F000FFEFEF1AFF0A2FEFA21AB20A34E0E31645
:10190000F10409F0A8CF23944CA55DA54C5F5F4F6F
:101910005DA74CA754E0850E911C85E0281297CF57
:101920007394660CAEA1BFA11196BFA3AEA3BFEF87
:101930004B1A5B0AE4E07E12D5CEA8A5B9A53C926D
:10194000C394E8A5F9A53196F9A7E8A72AA53BA570
:101950002C5F3F4F3BA72AA74EA55FA54C5F5F4F6B
:101960005FA74EA755E0C512A7CE0E94EE2A0E949F
:10197000C81D86E0E0E5F5E0D80101900D928A955A
:10198000E1F71092520510925305109254051092EF
:1019900055058B81811104C08C81882309F451C0C5
:1019A00080914E0590914F050E94DF2A9C019091F5
:1019B0004905992309F42EC32531310508F441C0A6
:1019C0009F3F19F09F5F90934905FB80FF2061F0D6
:1019D0000E94832F1F1414F491E001C09FEF899F90
:1019E000802D112480935205FC80FF2061F00E941D
:1019F000832F1F1414F491E001C09FEF899F802D65
:101A0000112480935305309152053323D1F0209156
:101A100053052223B1F045EB3403C001112499236F
:101A200019F09093520502C0D092520555EB250350
:101A3000C0011124992319F09093530502C0D0924C
:101A400053058D81811104C08E81882309F451C012
:101A500080914C0590914D050E94DF2A9C01909148
:101A60004A05992309F4DBC22135310508F441C048
:101A70009F3F19F09F5F90934A05FD80FF2061F022
:101A80000E94612F1F1414F491E001C09FEF899F01
:101A9000802D112480935405FE80FF2061F00E9468
:101AA000612F1F1414F491E001C09FEF899F802DD6
:101AB000112480935505309154053323D1F02091A2
:101AC00055052223B1F045EB3403C00111249923BD
:101AD00019F09093540502C0D092540555EB25039C
:101AE000C0011124992319F09093550502C0D0929A
:101AF000550546E050E0B80180E595E00E949E3132
:101B0000892BA9F48091520581110FC08091530552
:101B100081110BC080915405811107C081E0909123
:101B20005505911103C080E001C081E080FD0E9455
:101B3000A32F86E0F801A0E5B5E001900D928A950B
:101B4000E1F70E94932B90912502891721F0809351
:101B500025020E94EE2A8091AB04843009F022CD48
:101B600083E08093E9008091E80082FF1BCD8091A3
:101B7000E80085FF21C00E941E2881111BC080E261
:101B8000A82EB12C780109C08091F100D7018D9366
:101B90007D01B1E0AB1AB10869F08091E80085FDE4
:101BA000F3CF8091E8008B778093E8000E941E2895
:101BB000882399F391E001C090E08091E8008B7751
:101BC0008093E800992309F4EDCC2981822F90E0DD
:101BD000FC013197E832F10508F0F4C1E056FF4FFF
:101BE0000C946F3181E280932B0210922C0284E1DD
:101BF00080932D02D0922E0259C082E280932B0254
:101C0000D0922C0210922D0284E080932E024EC0BE
:101C100083E280932B0210922C0210922D021092DC
:101C20002E0244C08A80CB80E9E0EC1528F07801D0
:101C3000A12CB12C912C02C08EEF36C0E3E0EE0E49
:101C4000F11CAC1408F0C0C1D70112962C91129768
:101C500011964C9111976C91C4018A0D9B1D0E94A5
:101C60001710BFEFAB1ABB0AE9CF60E08EE1CEC020
:101C70000E94BC1DD092420346E050E06CE170E04F
:101C800082EE94E00E94EA30109242038091E204D6
:101C9000982F937009F498C160E086958695B6C038
:101CA00087E280932B0281E380932C0240E250E094
:101CB0006BE272E082E00AC088E280932B0282E04D
:101CC00080932C0240E250E06BE272E00E94352AE1
:101CD0007BC11A828CE0E2C08A81823009F491C112
:101CE00050F4813009F06EC10E94EE2A9B838C83F0
:101CF0007D836E8369C1833041F0843009F062C115
:101D00001B821C821D821E825FC16B81DE011496C4
:101D100080E090E0262F30E0A901480F591F4530A0
:101D2000510508F051C1E62FE80FF0E0EA5DFD4FE4
:101D300040814D9301968C31910571F745C18A819F
:101D4000823061F0853009F03DC18091E204F1E01C
:101D50008F278093E20410920A0136C16B817C8147
:101D60008D819E810E9475310E947B1C2DC14C810A
:101D70006B818A810E944D1C9D834AC12D813E81C9
:101D80003227232732274C816B818A810E94261CAF
:101D90001BC10E94192C18C18A81833009F012C11D
:101DA000283009F43EC0293009F468C08B818230A4
:101DB000D1F070F4813009F007C14C812FEF429FC0
:101DC000412D11248091E30420E06091E40425C0BA
:101DD0008330F9F0843009F0F7C08C8120E0409125
:101DE000E5046D811AC08C81811103C00E94BC1D65
:101DF000EBC09091E204937011F410920A0190915B
:101E0000E2049C7F91609093E20460E00E948C1D4C
:101E1000DBC08C818093E604D7C090E00E942E1D29
:101E2000D3C08B818230E1F078F4813009F0CCC0EE
:101E30008091E5042FEF829FC00111246FEF70E0C5
:101E40000E9496306C83C0C08330A1F0843009F0CA
:101E5000BBC08091E3048C838091E4048D83B4C083
:101E60008091E204982F937019F08695869504C0AE
:101E700080E002C08091E6048C83A6C046E050E07A
:101E80006CE170E082EE94E00E940831109242030F
:101E90009BC080E152C083E08A838AE38B8394C035
:101EA000EA80FB80FE24EF24FE248C80912C5801D4
:101EB000C7018A539F4F9501201B310B2815390507
:101EC00008F082C03AE3E31633E0F30630F40E94F0
:101ED000FA30D50114968C9302C0F5011482FFEFFD
:101EE000EF1AFF0A2FEFA21AB20AE2CFEA80FB80B4
:101EF000FE24EF24FE248C80912C5801C7018A53C4
:101F00009F4F9501201B310B2815390508F05CC047
:101F10003AE3E31633E0F30628F4D50114966C9106
:101F20000E941831BFEFEB1AFB0AEFEFAE1ABE0AA0
:101F3000E5CF0E94092C48C084E08A8345C0EA802E
:101F4000FB80FE24EF24FE248C80912C5801C701D5
:101F500086969501201B310B28153905A8F5F0EA66
:101F6000EF16F10430F40E94FA30D50114968C93E8
:101F700002C0F5011482FFEFEF1AFF0A2FEFA21A39
:101F8000B20AE5CFEA80FB80FE24EF24FE248C8099
:101F9000912C5801C70186969501201B310B2815FD
:101FA000390590F430EAE316F10428F4D5011496CB
:101FB0006C910E941831BFEFEB1AFB0AEFEFAE1ADB
:101FC000BE0AE8CF8FEF898340E250E0B80182E09B
:101FD0000E94352AE7CAE9BCF9BC09B400FEFDCF6E
:101FE0008091D8008F7D8093D8008091E00082603E
:101FF0008093E0008091E00081FDFCCF0E94761884
:10200000DECA85E290E00E94FA301B821C821D82AB
:102010008E83DACF2B30310508F0D4CC12CD2B30A3
:10202000310508F027CD65CD0E949A1A08950E94C7
:102030005C1A0895E2EEF4E085E28083809111015C
:1020400090911201A091130181839283A3838FE762
:1020500084838FEF858346E050E06CE170E0CF0130
:102060000E940831109242030895A0E0B0E0EBE333
:10207000F0E10C94AA30782E8091090187110DC0EF
:102080002091E204237030E04091080150E081E0AB
:102090002417350719F480E001C081E08170809336
:1020A0000E018091E70490910D01981739F080930B
:1020B0000D0140E060E080E00E9414108FE0781293
:1020C00054C087EA9DE20E94A11FC82F3AC047155D
:1020D00008F44BC283E17812A8C1C0910C01CC0F67
:1020E0008C2F880F880FC80F1AE01C0F123308F0CE
:1020F00011E380910E0181118AC16091E60420E113
:10210000620F08F46FEF8091B5049091B6040E94BD
:10211000BA2E6AE070E00E949630892B71F40E941A
:102120004B2E41E3849F9001112460910D01832F78
:10213000932F990F990B0E94F31CC1E0113308F003
:1021400095C080910C018F5F80930C01C11115C562
:1021500082E080930A0180910E0181110EC57110F9
:102160000CC583E080930A0108C5871508F449C1AE
:1021700097E0791203C08CEC9DE2A5CF971508F487
:1021800021C1A3E07A1243C0C0910C01CC0F8C2F67
:10219000880F880FC80FDAE0DC0FD23308F0D1E3E4
:1021A000E090E404D090E5042091E604F0E4FF2EF2
:1021B0003F2D329F312D1124F32ECD1708F046C04C
:1021C0000C2F10E0F801EE55FE4F908180910D012B
:1021D0008923D9F0F801EE0FFF1FE05CFE4F60810C
:1021E000F69EB0011124E5E075956795EA95E1F753
:1021F0008091E304680F7E2D8D2D0E94D72E462FEF
:10220000282F672FC8010E941710CF5FD6CFA715C0
:1022100008F47EC0B1E07B121EC0C0910C01CC0F4F
:102220008C2F880F880FC80FDAE0DC0FD23308F04C
:10223000D1E36091E3047091E4048091E5040E948D
:10224000D72E162F072FF82ECD1790F0C1E0D133DF
:1022500008F477CF0BC0B715E8F080910E01882302
:1022600029F040E060E080E00E941410C0E069CFF7
:10227000EC2FF0E0DF01AE55BE4F8C9190910D0137
:10228000982331F02F2D412F602FCF010E9417107E
:10229000CF5FDACFC0910C01CC0F8C2F880F880F45
:1022A000C80FDAE0DC0FD23308F0D1E30091E40488
:1022B0001091E504F090E3046F2D702F812F0E94A0
:1022C000D72EE62ED72EC82E6091E6046F0D702F04
:1022D000812F0E94D72E162F072FF82ECD1708F02A
:1022E000B5CF8C2F90E0FC01EE55FE4F3081209150
:1022F0000D01232359F030FF04C02F2D412F602FF3
:1023000003C02C2D4E2D6D2D0E941710CF5FE6CFF0
:10231000E5E07E120BC088E49DE205C0271508F4B5
:102320005FC086E49DE20E94001FCFCEE71508F44F
:1023300044C0C0910C01CC0F8C2F880F880FC80FA0
:10234000DAE0DC0FD23308F0D1E30091E30410911E
:10235000E404F090E5046091E60466956695669560
:102360008091B5049091B6040E94BA2E0E94062E68
:10237000805887FD8195880F482F2F2D429F412D32
:102380001124842FB8010E94D72E162F072FF82E64
:10239000CD1708F05BCFEC2FF0E0DF01AE55BE4F5C
:1023A0008C9190910D01982331F02F2D412F602FAA
:1023B000CF010E941710CF5FEBCF88EE9DE20E9405
:1023C0001E2083CEFBE07F1203C089E19DE2ABCFEC
:1023D000F71548F029E07212A1CF8DE39DE2A3CF5B
:1023E00084E39DE2A0CF3DE0731203C081E99EE249
:1023F000E6CF371518F08AE09DE265CE8BEB9DE2C3
:10240000DECF47E1741263CE8BE59CE28CCFD0E047
:10241000E12EF12CCE15DF050CF08FCE60910D0171
:10242000CE010E94F31C2196F5CF871580F091E133
:10243000791203C08AEA9CE204C0971528F08CED5B
:102440009CE20E944B1F41CE8CE69CE2FACFA5E1B4
:102450007A1245C0C0910C01CC0F8C2F880F880FC9
:10246000C80FDAE0DC0FD23308F0D1E30091E404C6
:102470001091E504F090E3046091E604669566959A
:1024800066958091B5049091B6040E94BA2E0E9480
:10249000062E805887FD8195880F682F2CE0629F5B
:1024A000612D11246F0D702F812F0E94D72E162FB2
:1024B000072FF82ECD1708F0C9CEEC2FF0E0DF0182
:1024C000AE55BE4F8C9190910D01982331F02F2D78
:1024D000412F602FCF010E941710CF5FEBCFA715C0
:1024E00008F440C080910E01811122C06091E60481
:1024F00020E1620F08F46FEF8091B5049091B6046B
:102500000E94BA2E65E070E00E949630892B09F097
:10251000ADCE0E944B2E91E3899F900111246091D2
:102520000D01832F932F990F990B0E94CF1C9ECEE4
:10253000C0910C01CC0F8C2F880F880FC80F1AE0A8
:102540001C0F123308F011E3D0E0E12EF12CCE1570
:10255000DF050CF0F2CD60910D01CE010E94CF1C81
:102560002196F5CF87E29EE2DECEBBE17B12A8C0CA
:1025700040900C01440C842D880F880F480E7AE09F
:10258000572E540CE1E3E51510F461E3562E8091CB
:102590000E01882361F040E060E080E00E941410AA
:1025A00084E1E7EFF2E0DF011D928A95E9F780917F
:1025B0000C01811115C08091F5029091F6020E94E4
:1025C000DF2A21E08931910508F420E02093F4020C
:1025D000499730F00E94FA2A9093F6028093F50210
:1025E00007EF12E03CE2A32E31E0B32E47E0842E49
:1025F00043E0942E312C5AEA252E6801E12CF12C6F
:10260000F501EE0DFF1DC081C41508F43CC0C515D1
:1026100008F039C03394D0E0FE01EE55FE4F9081B2
:1026200080910D01892309F42EC0F6016080362DBA
:1026300025E5321B08F430E07091E404222D462D8C
:10264000240F08F42FEF4091E50482E0289F200D2D
:1026500011242E5F249F212D1124622D631B822FB4
:102660000E94D72E462F282F672FCE010E941710C9
:102670008091F402882339F0262D31E0231B08F4E1
:1026800020E0D6012C93BFEFEB1AFB0AEFEFCE1A36
:10269000DE0AF4E0EF16F10409F0B2CF80169106DD
:1026A00049F00C5F1F4F24E0A20EB11C39E0331536
:1026B00008F0A3CFC1E040E3451508F042CDD6CDE8
:1026C000B71508F403C2E9E17E12E1C04091E202CD
:1026D0005091E3026091E4027091E5028091B504AB
:1026E0009091B604A091B704B091B80484179507EF
:1026F000A607B70708F4BACD80910E0181110EC06C
:10270000C0910C01CC0F8C2F880F880FC80F0AE0E6
:102710000C0F023308F450C001E34EC040E060E00B
:1027200080E00E9414100FE412E0C0E0D0E00E94AC
:102730004B2E81FF05C0F8011082118212821EC04B
:102740000E944B2ED82E0E944B2EF0E88F9FC00186
:1027500011247FE7790F7E01EE0CFF1CC7018C0F5F
:102760009D1F9C01215B3D4F79016D2D8091E504FA
:102770000E94D72ED7016D937D938C9321960D5F88
:102780001F4FC133D10599F6BBCF8C2F90E0FC01D0
:10279000EE55FE4F308120910D01232361F0FC01A5
:1027A000EE0FFF1FE80FF91FE15BFD4F2281408113
:1027B00061810E941710CF5FC01738F3C1E0013369
:1027C00008F0C0E0013308F4BCCC20E010E0015078
:1027D0001109822F90E080179107C4F4DC01AA0F41
:1027E000BB1FA80FB91FA15BBD4F0196FC01EE0FE7
:1027F000FF1F8E0F9F1FFC01E15BFD4FC080D1804A
:10280000E280CD92DD92EC922F5FE3CF0E944B2EBF
:102810007801EE0CFF1C81FF09C00E0D1F1DF80191
:10282000E15BFD4F10821182128218C00E944B2E74
:10283000D82F0E944B2EB0E88B9FC00111247FE758
:10284000790F0E0D1F1D015B1D4F6D2F8091E5044B
:102850000E94D72EF8016083718382830E94C42E68
:102860000091B5041091B6042091B7043091B804DA
:10287000DC01CB01800F911FA21FB31F8093E202E6
:102880009093E302A093E402B093E5025ACCE715DB
:1028900008F474C0D0910C01DD0F8D2F880F880FC4
:1028A000D80FD65F4091B5045091B6046091B7043B
:1028B0007091B80480914B0290914C02A0914D020E
:1028C000B0914E0284179507A607B70708F0BECC53
:1028D0000E944B2EA1E38A9FC0011124092F1127CA
:1028E00007FD1A95F801EE55FE4F908180910D017C
:1028F000892309F4ABCC0E944B2E81FF04C020E059
:1029000040E060E013C00E944B2EC82F0E944B2E67
:10291000B0E88B9FC00111247FE7790F6C2F809165
:10292000E5040E94D72E462F282F672FC8010E944A
:1029300017102091E60430E1230F08F42FEF60E137
:10294000822F90E00E94BA2EBC0184EF91E00E9499
:1029500096308091B5049091B604A091B704B091DF
:10296000B804860F971FA11DB11D80934B02909351
:102970004C02A0934D02B0934E0268CC80910E01A0
:10298000882329F040E060E080E00E941410F0907D
:102990000C01FF0C8F2D880F880F8F0DFAE0FF2E92
:1029A000F80E4091B5045091B6046091B70470914F
:1029B000B8048091F0029091F102A091F202B091DE
:1029C000F30284179507A607B70708F079C060914E
:1029D000E3047091E4048091E5040E94D72EE62E72
:1029E000D72EC82E06EE12E0CCE2D1E0E0E4AE2E07
:1029F000E1E0BE2ED8018C91882361F088812C2DD6
:102A00004E2D6D2D90E00E9417108B812C2D4E2D98
:102A10006D2D0BC0888120E040E060E090E00E94D6
:102A200017108B8120E040E060E090E00E941710DA
:102A3000D80111968C9111978C93882361F089812C
:102A40002C2D4E2D6D2D90E00E9417108A812C2D7B
:102A50004E2D6D2D0BC0898120E040E060E090E0BC
:102A60000E9417108A8120E040E060E090E00E9420
:102A700017100E944B2E837091E009F090E0F8014E
:102A800091830E5F1F4F2496AC16BD0609F0B2CF9E
:102A90000E94C42E0091B5041091B6042091B70491
:102AA0003091B804DC01CB01800F911FA21FB31F2E
:102AB0008093F0029093F102A093F202B093F3029C
:102AC000C1E0B0E3BF1508F03CCBD0CBFDE17F12F5
:102AD00005C08EE49CE20E94901EF7CA7F1618F48F
:102AE00084E59CE2F8CF2EE172120DC080910C01BA
:102AF000880F982F990F990F890F865FC1E0813356
:102B000008F41FCBB3CB3FEF731231C08091B504F3
:102B10009091B604A091B704B091B80488279C7036
:102B2000AA27BB272AE0B695A795979587952A955A
:102B3000D1F782309105A105B10571F0833091057F
:102B4000A105B10569F040E00197A105B10511F0BB
:102B500060E008C064E102C044E160E080E003C0DE
:102B600044E164E184E10E94141082E0FBCA809198
:102B70000C018F5F80930C01EBCACDB7DEB7E2E1A9
:102B80000C94C630CF92DF92FF920F931F93CF9396
:102B9000DF936C0100911C0280913405082BC3E087
:102BA000D0E010E0C8010C2E02C0959587950A94DC
:102BB000E2F780FD04C02197A8F7F12C09C0FC2E94
:102BC000B6018C2F0E9438240E944624019799F365
:102BD0008F2DDF91CF911F910F91FF90DF90CF90BC
:102BE0000895CF93DF93EC010E94C215BE010E94AD
:102BF00038240E944624DF91CF910895CF93FC01A1
:102C00008081918123813481232B31F09F3F31F4E6
:102C100091E08F3F19F403C091E001C090E0C92F0B
:102C2000C17090FD1CC0808191810E94F115929528
:102C30009F70963079F010F4925001C09A50923003
:102C400088F4803F71F018F4883E60F40AC0843F35
:102C500049F407C0883E28F0813F21F402C0C0E05B
:102C600001C0C1E08C2FCF910895A1E1B0E0EBE36A
:102C7000F6E10C94B0308C0185E0F801DE011D9680
:102C800001900D928A95E1F7F801E2809091F004AD
:102C90002091F1044091F3045091F4044115510541
:102CA00031F02F3F31F481E09F3F19F403C081E000
:102CB00001C080E080FD51C1F801D080C180A380B7
:102CC000B48080EF882E84E0982EF090F204B50155
:102CD000641B750BFF2009F4FDC08091F504382FAB
:102CE000307F683C710508F0C7C0311188C02C11D5
:102CF00011C09D110FC0FE2CE1100CC08F708061BF
:102D00008093F504C4010E9406048091F504F80143
:102D100085833DC1A114B10439F0FFEFCF1206C085
:102D200081E0DF1203C003C081E001C080E080FDCC
:102D300003C081E08E2502C080E090E080FF05C0E6
:102D40004E2D6C2D8D2D0E944E26A114B10439F00C
:102D50002FEFC21206C081E0D21203C003C081E08F
:102D600001C080E080FD03C081E08E2502C080E0CC
:102D700090E0682F6170B62E80FF37C04E2D6C2D0D
:102D80008D2D0E944E26F82E81112FC0DD86CE8615
:102D90008D859E850E94F115292F22952F70243054
:102DA00020F49F70223028F009C02A50223088F089
:102DB00017C0992351F0811108C0E9C0992329F067
:102DC000F8019581907F09F4E2C0805E883040F47C
:102DD000DEC0803F08F4DBC0815F833008F4D7C0D9
:102DE000C8010E940604FB2CD2C0FE2CEE2009F480
:102DF000CEC08091F50481608093F50448C02C1109
:102E000006C09D1104C0E11002C0F80185C0C801D0
:102E10000E94FE15882351F1EE2041F12091F50426
:102E2000822F82958F7090E0029774F08091F00469
:102E30009091F10498878F831986BB86AA862C8788
:102E4000CE0107960E94060486E0F801A0EFB4E0E8
:102E500001900D928A95E1F70E9478260AC02C1500
:102E6000C1F0C8010E94FE1581111DC0C8010E9459
:102E70000604FF24F3948BC03111F1CF80EF94E06E
:102E80000E94060486E0F40111928A95E9F7F12C7C
:102E90007EC09D11E6CFE110E4CFF8018583C80123
:102EA0000E94060454C0EE2009F32091F504822FFD
:102EB00082958F7090E002973CF28091F00490919F
:102EC000F1049A8389831B82BD82AC822E83CE015A
:102ED0000196B8CF683C7105D0F5FE2CEE2031F29A
:102EE0002C1127C09D1125C02091F50420FD18C08C
:102EF000822F82958F70482F50E04115510581F047
:102F0000F80125834F30510541F08F5F982F92953E
:102F1000907F822F8F70892B8583C8010E940604C1
:102F200086E0F801A0EFB4E001900D928A95E1F7F8
:102F30002EC0C8010E94FE15811186CF8091F50434
:102F400081608093F504C8010E94060420C086E0D9
:102F5000F40111928A95E9F71AC0EE2009F486CFA0
:102F6000C8010E94FE15F82E882309F47FCF86E061
:102F7000F801A0EFB4E001900D928A95E1F78091FD
:102F8000F0049091F1040E94F1150E9478268F2D93
:102F90006196ECE00C94CC30292F953078F5843094
:102FA00068F590E034E0239F800D911D1124682F77
:102FB000677023E0969587952A95E1F7FC01EE0F5F
:102FC000FF1FE80FF91FE55FFC4F40E050E080E095
:102FD000219130E0062E02C0369527950A94E2F73B
:102FE00021703327042E01C0220F0A94EAF7822BA6
:102FF0004F5F5F4F4330510559F7089580E00895C2
:10300000292F953088F5843078F590E034E0239FBF
:10301000800D911D1124282F277051E001C0550FFC
:103020002A95EAF723E0969587952A95E1F7FC0122
:10303000EE0FFF1FE80FF91FE55FFC4F20E030E0C7
:1030400070E04081CB01022E02C0969587950A94CC
:10305000E2F78170819584278523842781932F5FF0
:103060003F4F2330310569F7089580931C0208957E
:1030700090911C0221E030E0F90101C0EE0F8A9529
:10308000EAF7D90102C0AA0FBB1F6A95E2F7BD019A
:103090006E2B01C0220F4A95EAF7892F8623681309
:1030A00003C0892F822B03C02095822F89230E9481
:1030B0003518089521E030E001C0220F8A95EAF723
:1030C000209580911C0282230E943518089521E0EA
:1030D00030E001C0220F8A95EAF780911C02822B12
:1030E0000E9435180895809334050895CF93109267
:1030F0003205C6E0EAEEF4E0DF018C2F1D928A95DE
:10310000E9F780E090E00E946E2B80E090E00E9462
:10311000492B109231050E94DE25E0E5F5E0DF0144
:103120001D92CA95E9F71092490510924A0510922E
:103130004B050E94A32FCF910895882321F00E9470
:10314000D7250E94DE250895882339F09091320515
:10315000892B809332050E94DE250895662309F4A9
:103160005CC08D3C21F40E94832F819504C08E3C6D
:1031700029F40E94832F80935305C5C08F3C21F40E
:103180000E94832F819504C0803D29F40E94832FE3
:1031900080935205B8C0893D19F40E94612F05C083
:1031A0008A3D31F40E94612F819580935405ABC014
:1031B0008B3D21F40E94612F819504C08C3D29F440
:1031C0000E94612F809355059EC09FE2980F983012
:1031D00078F421E030E0A90102C0440F551F9A9510
:1031E000E2F7CA0190915105892B809351058BC05C
:1031F0008D3D21F480914B0581600CC08E3D21F402
:1032000080914B05826006C08F3D09F07CC08091A3
:103210004B05846080934B0576C08D3C39F49091CA
:10322000530597FF35C01092530559C08E3C29F4C1
:10323000909153051916BCF32BC0909152058F3C09
:1032400029F497FF25C01092520549C0803D19F41A
:103250001916CCF31DC090915405893D29F4191617
:10326000BCF4109254053BC08A3D19F497FF10C07E
:10327000F8CF8B3D39F49091550597FF09C0109216
:1032800055052DC08C3D21F4909155051916BCF3C0
:103290009FE2980F983080F421E030E0A90102C04D
:1032A000440F551F9A95E2F7CA01809590915105F8
:1032B00089238093510513C08D3D21F480914B05E6
:1032C0008E7F0BC08E3D21F480914B058D7F05C014
:1032D0008F3D29F480914B058B7F80934B05809126
:1032E0005205811106C080915305811102C01092D0
:1032F000490580915405811106C0809155058111C1
:1033000002C010924A050E94A32F08958823C9F194
:103310009CEF980F913A60F4E8EEF4E09281891303
:1033200001C01282319694E0EE3EF907B9F70DC064
:1033300090E2980F983060F4877091E001C0990F87
:103340008A95EAF7892F0E94D7250E94DE250895E5
:103350009BE5980F933028F480E090E00E946E2B5C
:10336000089598E5980F9B3128F480E090E00E9442
:10337000492B089593E3980F933118F460E00E946D
:10338000AE180895CF93882309F459C0C82F8CEF45
:103390008C0F813AF8F4EAEEF4E080EF94E02191AA
:1033A000C21721F08E179F07D1F70EC0E8EEF4E0A8
:1033B0008EEE94E02281C21301C0128231968E17E4
:1033C0009F07C1F70E94DE256C2F88EE94E00E94D3
:1033D0002F2B10C080E28C0F883078F4C77081E00A
:1033E00090E001C0880FCA95EAF790913205892BC9
:1033F000809332050E94DE2522C0EBE5EC0FE3301E
:1034000040F4F0E0ED52FE4F808190E00E946E2B80
:1034100016C0E8E5EC0FEB3150F4F0E0EE0FFF1FC3
:10342000EA52FE4F808191810E94492B08C083E3BC
:103430008C0F833120F461E08C2F0E94AE18CF9165
:1034400008951F93CF93DF93182F893319F0C0E0AD
:10345000D0E002C0C0E5D0E0812F0E94C2192097C1
:1034600041F08FE99FE00197F1F700C0000021973C
:10347000F6CF812F0E948619DF91CF911F91089579
:10348000E2EEF4E0248130E1231B08F420E0248301
:10349000809142038160809342030895E2EEF4E05C
:1034A000248130E1230F08F42FEF2483809142031D
:1034B0008160809342030895A4E0B0E0E2E6FAE17F
:1034C0000C94B7308133910588F5122F042FF62E16
:1034D000BC01660F771F660F771F6C5A7D4F44E063
:1034E00050E0CE0101960E94E130898183704A81CB
:1034F000282F30E050E9859FC0011124875A9C4F46
:10350000FC01E40FF11DB497F0824B81FC01E40F44
:10351000F11DB49700834C81840F911DFC01B49779
:103520001083F901E95AFC4F81E080832496E5E09D
:103530000C94D330FF920F931F93CF93DF93182FE8
:10354000062FF42EC0E0D0E02F2D402F612FCE01AA
:103550000E945C1A2196C133D105B1F7CDB7DEB711
:10356000E5E00C94D3300F931F93CF93DF93082F94
:10357000000FEB0114E210934303E4E4F3E0DE01F7
:103580008D91819383E0E435F807D1F724E630E0AC
:1035900041E150E063E473E0802F0E947530105FDA
:1035A0006096143B41F7DF91CF911F910F910895E1
:1035B00080915703882329F069E573E084E70E942E
:1035C000B31A1092570380915803882329F069EEAB
:1035D00073E086E70E94B31A109258030895E3E45B
:1035E000F3E06083418324E630E042E050E0BF0135
:1035F000880F0E9475300895A0E0B0E0E2E0FBE1A2
:103600000C94B530262F30E0A90143565B4F7A0168
:10361000FA019081911107C0F7011082CDB7DEB792
:10362000E7E00C94D130D82EF2E16F9FE001112435
:1036300000E010E0F801EC0FFD1FE758FB4F408160
:10364000602F8D2D0E94EF1A0F5F1F4F0231110561
:1036500089F7E2CFCF93DF93C82F4BE06DEF0E9445
:10366000EF1A40E06AE08C2F0E94EF1A8FE39CE98A
:103670000197F1F700C0000040E060E08C2F0E944D
:10368000EF1A40E061E08C2F0E94EF1A40E066E004
:103690008C2F0E94EF1A40E06DEF8C2F0E94EF1AE2
:1036A000D0E040E06D2F8C2F0E94EF1ADF5FD23107
:1036B000C1F740E06D2F8C2F0E94EF1ADF5FD432EC
:1036C000C1F740E06D2F8C2F0E94EF1ADF5FD43BD3
:1036D000C1F74BE06DEF8C2F0E94EF1A41E06AE0DA
:1036E0008C2F0E94EF1A40E06DEF8C2F0E94EF1A92
:1036F000DF91CF910895A4E0B0E0E1E8FBE10C9404
:10370000AE300E94CD2F84E70E942A1B86E70E94DC
:103710002A1B04E512E072E1772EE8E0CE2ED12CD0
:10372000EE24E394F12C6624639444E050E0B80165
:10373000CE0101960E94E1302A8130E0C9018497D0
:10374000AB80B12C44E2A41AB108EC81F0E0B4974C
:10375000AC0197FF02C0495F5F4F63E05595479505
:103760006A95E1F72981237030E0729EB001739E63
:10377000700D112467587B4F4B01840E911CB601CC
:103780000E943C31D70102C0AA0FBB1F8A95E2F705
:10379000CD01D4019C91892B8C93C501B7FC079670
:1037A00053E0959587955A95E1F7729EA001739E17
:1037B000500D112447585B4F4A01880E911CC501DA
:1037C000B6010E943C31A70102C0440F551F8A95E3
:1037D000E2F7CA01D4019C91892B8C93CF01F7FDAC
:1037E000079643E0959587954A95E1F7729EA0016B
:1037F000739E500D112447585B4F5A01A80EB11CFF
:10380000CF01B6010E943C31F70102C0EE0FFF1F4D
:103810008A95E2F7CF01D5019C91892B8C93F90110
:10382000E356FB4F60820C5F1F4FB3E008311B076C
:1038300009F07BCF60E084E70E94FC1A61E086E734
:103840000E94FC1A2496EEE00C94CA301F93CF938A
:10385000DF93962F8430E8F46530D8F44430C8F410
:10386000632F122FC42FD0E0CC0FDD1F28E0929FD2
:10387000C00DD11D112498E2899FC00DD11D1124C6
:10388000CE0186960E941831612FCE0187960E9444
:103890001831DF91CF911F9108950F931F93CF930C
:1038A000DF93843008F56530F8F44430E8F4C42F31
:1038B000D0E0CC0FDD1F28E0629FC00DD11D112488
:1038C00038E2839FC00DD11D1124CE0186960E943F
:1038D000FA3090E0182F0027CE0187960E94FA3028
:1038E0009801282BC90102C080E090E0DF91CF91C0
:1038F0001F910F91089585E290E00E94183108957C
:10390000CF93C82F811102C06FEF01C063E282E242
:1039100090E00E941831C11102C06FEF01C063E056
:1039200083E290E00E941831C11102C06FEF01C024
:1039300068E084E290E00E941831CF91089580E021
:103940000E94801C60E070E0CB010E947B1C0E9402
:10395000192C0E94092C81E00E94801C089582E2AB
:1039600090E00E94FA30833281F483E290E00E947A
:10397000FA30833051F484E290E00E94FA3091E012
:10398000883009F090E0892F01C080E081700895AF
:10399000882311F0FA0101C0FB01099508951F93D6
:1039A000CF93DF93FC01EE55FE4F20816223B9F0E7
:1039B000EC010E944B2E182F0E944B2E20E8829F74
:1039C000C00111247FE7790F612F8091E5040E94E7
:1039D000D72E462F282F672FCE010E941710DF9178
:1039E000CF911F910895A0E0B0E0E9EFFCE10C94C5
:1039F000B530EC01FC01EE55FE4F9081692349F191
:103A0000D090E4040091E5041091E304E12EF12C40
:103A10000E944B2E282FC7018C549F4F68E671E0FF
:103A20000E943C318E199F0997FD039695958795C5
:103A3000959587952370612F289F600D11247D2D0A
:103A4000802F0E94D72E462F282F672FCE010E944D
:103A50001710CDB7DEB7E7E00C94D1309091E204B7
:103A6000937059F08093E3046093E4044093E50479
:103A700080914203282B209342030895E2EEF4E064
:103A8000438120E1421B08F440E0818121E0628112
:103A900090E00E942E1D0895E2EEF4E0438120E1C3
:103AA000420F08F44FEF818121E0628190E00E9493
:103AB0002E1D0895E2EEF4E0628120E1621B08F41D
:103AC00060E0818121E0438190E00E942E1D0895F5
:103AD000E2EEF4E0628120E1620F08F46FEF818191
:103AE00021E0438190E00E942E1D0895E2EEF4E073
:103AF000818190E021E04381628108970E942E1D20
:103B00000895E2EEF4E0818190E021E0438162815A
:103B100008960E942E1D08959091E2049370A1F0E2
:103B2000811102C0946007C08F3110F0986703C004
:103B3000880F880F982B9093E20410920A018091CD
:103B40004203682B6093420308958091E2048695B6
:103B50008695815009F48EE161E00E948C1D0895E4
:103B60008091E204869586958F5F8F3108F081E021
:103B700061E00E948C1D08958091E204837011F031
:103B800010920A018091E2048C7F8093E2040895F0
:103B90004F925F926F927F928F929F92AF92BF925D
:103BA000CF92DF92EF92FF9280913D0390913E037E
:103BB000A0913F03B09140032FB7F894C090440503
:103BC000D0904505E0904605F09047052FBFC81AF4
:103BD000D90AEA0AFB0A0E94EE2A4B015C016093B3
:103BE0003D0370933E0380933F0390934003A09165
:103BF0001403E4E1F3E08A2F90E04FEF5FEF60E021
:103C000070E04C195D096E097F09A91799F0218DA3
:103C1000328D2901612C712C4415550566057705F7
:103C200010F4815004C02C0D3D1D328F218F9F5FF9
:103C30003296EBCF8093140380914103811108C029
:103C40008091E204982F937019F08695869501C0B3
:103C500080E090910A019130D9F028F09230D9F0AB
:103C6000933031F150C010920C018092B5049092C3
:103C7000B604A092B704B092B80489E2E4E1F3E09C
:103C8000A9EBB4E001900D928A95E1F781E00DC0B7
:103C90000E94351038C0809309018091E20483703E
:103CA000809308010E94D81A83E080930A012BC0F8
:103CB00080914203882351F046E050E06CE170E0CF
:103CC00082EE94E00E940831109242034091B504C4
:103CD0005091B6046091B7047091B8042FB7F8946E
:103CE0008091440590914505A0914605B091470506
:103CF0002FBF841B950BA60BB70B4097A105B105F1
:103D000010F010920A01FF90EF90DF90CF90BF90DB
:103D1000AF909F908F907F906F905F904F9008959D
:103D2000A0E0B0E0E6E9FEE10C94B4308C01C09173
:103D30000C01CC0F8C2F880F880FC80FDAE0DC0F36
:103D4000D23308F0D1E32091E60431E0230F08F4E8
:103D50002FEF30E040E050E06FEF7FEF80E090E049
:103D60000E9450317901CD1708F041C0CC2ED12CE2
:103D7000F601EE55FE4F908180910D018923A9F146
:103D80009091B904915097FD15C0492F092E000C50
:103D9000550BFA01E754FB4F8189C813F3CF440F49
:103DA000551FFA01E754FB4F218D328D2E153F052B
:103DB00048F701C097016091E60441E0640F08F400
:103DC0006FEFC9010E94BA2EAC016091E3047091BB
:103DD000E4048091E504F80109950E94D72E462F4E
:103DE000282F672FC6010E941710CF5FBCCF81E03C
:103DF000D13308F080E0CDB7DEB7E8E00C94D030E6
:103E0000A0E0B0E0E6E0FFE10C94B5308C01C09199
:103E10000C01CC0F8C2F880F880FC80FDAE0DC0F55
:103E2000D23308F0D1E36091E6046695669521E00F
:103E3000620F08F46FEF8091B5049091B6040E9470
:103E4000BA2ED82ECD17F0F4EC2EF12CF701EE554A
:103E5000FE4F908180910D01892391F06091E304E0
:103E60007091E4048091E5042D2D4C2FF801099503
:103E70000E94D72E462F282F672FC7010E941710A8
:103E8000CF5FE0CF81E0D13308F080E0CDB7DEB77F
:103E9000E7E00C94D130A0E0B0E0E1E5FFE10C9464
:103EA000B1306C01C0910C01CC0F8C2F880F880FA2
:103EB000C80FDAE0DC0FD23308F0D1E36091E604FA
:103EC000669566958091B5049091B6040E94BA2ECD
:103ED000182F80E4810F0E94062E90E8F92EF80E2C
:103EE000812F0E94062E20E8922E980ECD1700F505
:103EF000AC2EB12CF501EE55FE4F908180910D0155
:103F00008923A1F06091E3047091E4048091E504B9
:103F1000E12E0C2F292D4F2DF60109950E94D72E49
:103F2000462F282F672FC5010E941710CF5FDECFC5
:103F300081E0D13308F080E0CDB7DEB7EBE00C9440
:103F4000CD306F927F928F929F92AF92BF92CF921D
:103F5000DF92EF920F931F93CF93DF933C01C091B9
:103F60000C01CC0F8C2F880F880FC80FDAE0DC0F04
:103F7000D23308F0D1E36091E60466958091B504F0
:103F80009091B6040E94BA2E182FCD1708F044C0A5
:103F90008C2E912CF401EE55FE4F908180910D01F5
:103FA0008923C1F1F401EE0FFF1FE05CFE4FC080DA
:103FB000D12C80E7C81AD108F401EE0FFF1FE45D91
:103FC000FE4FA588B12CE0E2AE1AB108CC9C90015E
:103FD000CD9C300D300D1124AA9CC001AB9C900DDE
:103FE000900D1124820F931F0E94602E082F609164
:103FF000E3047091E4048091E504E12E9501A601AB
:10400000F30109950E94D72E462F282F672FC40150
:104010000E941710CF5FB9CF81E0D13308F080E064
:10402000DF91CF911F910F91EF90DF90CF90BF90D4
:10403000AF909F908F907F906F900895A0E0B0E038
:10404000E4E2F0E20C94B4306C01C0910C01CC0FAE
:104050008C2F880F880FC80FDAE0DC0FD23308F0FE
:10406000D1E36091E60466958091B5049091B60421
:104070000E94BA2E182FCD1778F5EC2EF12CF701EF
:10408000EE55FE4F908180910D01892319F1F701C2
:10409000EE0FFF1FE45DFE4F258930E0205231090D
:1040A000F701EE0FFF1FE05CFE4F408150E04057EC
:1040B00051096091E3047091E4048091E504012FBB
:1040C000F60109950E94D72E462F282F672FC7018A
:1040D0000E941710CF5FCFCF81E0D13308F080E08E
:1040E000CDB7DEB7E8E00C94D030AAE2B0E0EBE761
:1040F000F0E20C94B930EDEAF4E085EB94E0209125
:10410000F10021938E179F07D1F78091AE04833081
:1041100009F463C030F4813071F0823009F49DC03D
:10412000B4C08A3009F489C08B3009F46EC089307C
:1041300009F0ABC020C08091AD04813A09F0A5C060
:104140008091E800877F8093E8008091B10490918E
:10415000B204892B21F468E081EA94E003C060E0B6
:1041600080E090E070E00E94D7298091E8008B7792
:104170008093E8008AC08091AD04813209F085C047
:104180008091B1049091B204009719F0029709F060
:104190007CC08091E800877F8093E8008091E800F0
:1041A00082FD05C08091AB048111F8CF6EC02091D3
:1041B000F3008091F20090E0922B029731F480910D
:1041C000F100813011F0863021F48091F10080936C
:1041D000A0048091E8008B7754C08091AD04813AAF
:1041E00009F053C08091B1049091B204892B09F079
:1041F0004CC08091E800877F8093E8008091E800C0
:1042000080FFFCCF80910B0137C08091AD048132DB
:10421000E1F58091B1049091B204892BB1F58091C0
:10422000E800877F8093E8000E9451288091AF04C6
:1042300080930B010E94761828C08091AD048132D2
:1042400021F58091E800877F8093E8000E94512843
:104250008091B00480939F0418C08091AD04813A8E
:10426000A1F48091E800877F8093E8008091E800C6
:1042700080FFFCCF80919F048093F1008091E80043
:104280008E778093E8000E9451288091E80083FF98
:10429000DFC18091AD049091AE04492F50E04A30C7
:1042A000510508F0D5C1FA01E853FF4F0C946F3166
:1042B000803821F0823809F0CBC108C08091A90470
:1042C0009091AA04992389F082600FC08091B10473
:1042D0008F70873008F0BCC18093E9008091EB00BB
:1042E00085FB882780F91092E9009091E800977F7C
:1042F0009093E8008093F1001092F10070C1282F94
:104300002D7F09F0A5C1882319F0823061F0A0C18A
:104310008091AF04813009F09BC1933009F080E0B7
:104320008093AA042EC08091AF0481112AC080918D
:10433000B1048F702FEF280F263008F089C18093C9
:10434000E9002091EB0020FF1CC0933021F4809104
:10435000EB00806214C09091EB0090619093EB00B1
:1043600021E030E0A90102C0440F551F8A95E2F711
:104370004093EA001092EA008091EB0088608093FD
:10438000EB001092E9008091E800877F8093E800BD
:104390000E9451285DC181115BC11091AF041F774C
:1043A0008091E3008078812B8093E3008091E80086
:1043B000877F8093E8000E9451288091E80080FF69
:1043C000FCCF8091E30080688093E300111102C06C
:1043D00082E001C083E08093AB043AC18058823010
:1043E00008F036C12091AF043091B0042C3D53E069
:1043F000350779F583E08A838AE289834FB7F89499
:10440000DE01139620E03EE051E2E32FF0E050930E
:104410005700E49120FF03C0E295EF703F5FEF701B
:104420008E2F90E0EA3010F0C79601C0C0968D93B1
:104430009D932F5F243149F74FBF8091E800877F1C
:104440008093E8006AE270E0CE0101960E94D729CD
:10445000B4C08091B1049091B204432F55274330EA
:104460005105A9F068F44130510509F400C142300A
:10447000510509F0EDC08BE590E0E5EFF3E04BC0AE
:104480004132510529F14232510589F1E1C0C9019A
:10449000992781309105A1F058F0029709F0D8C012
:1044A000E2E6F4E0E4918E2F90E0E2E6F4E030C042
:1044B000EEE8F4E0E4918E2F90E0EEE8F4E028C01E
:1044C000EAE7F4E0E4918E2F90E0EAE7F4E020C020
:1044D0008330910508F0BCC0880F991FFC01EA5D8C
:1044E000FE4F0190F081E02D89E090E014C0833010
:1044F000910508F0ADC0FC01EE0FFF1FE05EFE4F1E
:104500000190F081E02DDC01A35EBE4F8C9190E024
:10451000009709F49DC02091E800277F2093E800D0
:104520002091B3043091B4042817390708F4C90165
:1045300040E0009789F12091AB04222309F43DC0AB
:104540002530D9F12091E80023FD37C02091E80003
:1045500022FD2FC02091E80020FFEBCF4091F30017
:104560002091F20030E0342B009759F028303105CB
:1045700040F444914093F100319601972F5F3F4FF3
:10458000F3CF41E02830310509F040E02091E80008
:104590002E772093E800CDCF4111CDCF0AC0809176
:1045A000AB04882351F0853041F08091E80083FD11
:1045B00004C08091E80082FFF2CF8091E8008B7701
:1045C0008093E80045C0803809F042C08091E8003F
:1045D000877F8093E8008091AC048093F100809104
:1045E000E8008E77D3CE811133C08091AF049091D3
:1045F000B0049927029764F58091E800877F809343
:10460000E8001091AF041093AC040E9451281111DE
:1046100006C08091E30087FD02C081E001C084E014
:104620008093AB0442E061EC81E00E94702842E29A
:1046300061EC84E00E94702842E261EC82E00E941A
:10464000702842E260EC83E00E9470288091AB0405
:104650008091E80083FF10C08091E800877F8093FD
:10466000E8008091EB0080628093EB0005C082E15E
:1046700090E0E0E5F4E04FCFAA96E3E00C94D5306B
:1046800080E0089590911D0292FF0DC0282F28719F
:10469000283019F4877F846006C0282F24712430C5
:1046A00011F48B7F886093FF0DC0282F287128316B
:1046B00019F4877E846106C0282F2471243111F4F7
:1046C0008B7E886120911E0220FF0DC0382F38712B
:1046D000383019F4877F816006C0382F317131304E
:1046E00011F48E7F886021FF0DC0282F287128319A
:1046F00019F4877E816106C0282F2171213111F4C0
:104700008E7E886194FD877E08958238910569F1D7
:10471000B0F48133910509F475C048F489329105EC
:1047200009F467C08A32910509F471C00895853390
:10473000910509F459C089339105B9F00895833E74
:10474000910589F138F4803E9105D1F0823E9105C2
:1047500029F10895863E9105C9F1873E9105D9F169
:10476000843E910509F06CC027C020911D0220FDF8
:1047700057C021FD55C020911E0223FD5BC0089546
:1047800080911D0280FD48C080911E0280FF48C0BC
:1047900080911D0284FD46C083EE51C080911D02B0
:1047A00082FF3CC0F5CF80911D0282FD37C0809111
:1047B0001E0280FD35C0ECCF80911E0281FF36C005
:1047C00080911D0284FD2EC087EE39C080911D02AC
:1047D00083FF2AC0F5CF80911D0283FD25C0809103
:1047E0001E0281FD23C0ECCF80911D0285FD22C0F9
:1047F0001FC080911D0285FD1BC080911E0283FF9A
:1048000019C00AC080911D0286FD16C017C0809194
:104810001D0286FD13C010C089E311C082EE0FC0D7
:1048200080EE0DC080E00BC086EE09C084EE07C0AC
:1048300085E305C089E203C08AE201C081E390E01C
:104840000895F894E82FE295EF70F0E031A1282F59
:104850002F7081E090E001C0880F2A95EAF7982F29
:104860009095932391A392A1892B82A37894089584
:10487000753048F4643038F4843028F4462F672FBC
:104880000E944D1C089580E090E008951F93CF93FF
:10489000DF930E948523EC01C11580E5D807E8F578
:1048A000C11590E4D90708F0A8C0C03ED10530F585
:1048B000CD3CD10508F094C0C83AD10578F4C53A8A
:1048C000D10508F083C0C130D10509F47CC008F4DB
:1048D000F2C0C430D10508F0F1C0EDC0C33CD10531
:1048E00008F0E9C0C85AD0E0CC0FDD1FCA52DE4F35
:1048F0000990D881C02DCE019464E1C0C11580E239
:10490000D80708F0CBC0C11591E0D90708F06BC0FB
:10491000C83ED10508F4D2C0CEC0C03682E5D80763
:1049200028F5C03492E5D90708F079C0C03282E595
:10493000D80708F06CC0C11592E5D90708F481C00A
:104940004C2F4695469580E2489FA0011124C370E4
:1049500021E030E0C90102C0880F991FCA95E2F733
:10496000EA01C82BD92BCE019D68A9C0C03A82E5C7
:10497000D807B8F48C2F8F71C03892E5D90708F0AA
:104980007BC08695869590E2899F90011124C37023
:1049900081E090E002C0880F991FCA95E2F79A68FB
:1049A00068C0C03C82E5D80708F46DC0C03E92E5FF
:1049B000D90708F080C0CF71DD27DC2FCC27CE01CE
:1049C000806F906A7CC081E090E079C0C55AD0E0E9
:1049D000CD52DE4F8881C82FD0E0CE0190646FC0E9
:1049E000CE0190656CC08D2F0E944223182FCE01FE
:1049F00099270E9485231F715CC0CE0199270E94D0
:104A00008523CC27DF70D06A8C2B9D2B58C0CF71AB
:104A1000D0E0DC2FCC27CE01816F906A50C08C2F64
:104A20008F718695869590E2899F90011124C370BD
:104A300081E090E002C0880F991FCA95E2F79C6858
:104A400018C08C2F8F710E94422395E0D695C79590
:104A50009A95E1F7CF70D0E0DC2FCC27282F30E0FB
:104A600084FF05C084E0220F331F8A95E1F7D069E7
:104A7000CE01822B932B23C090E0D82FCC27CE01E0
:104A8000846F906A1CC08C2F8F710E9442238F719B
:104A900090E0D82FCC27CE01906211C08D2F8F715E
:104AA0000E944223182FCE0199270E9485231F714F
:104AB0009062912B04C080E090E001C0CE01DF91B4
:104AC000CF911F91089580E090E00E940231873ECF
:104AD0009E4F19F40E94AF1C089580E0089567EE80
:104AE0007EEF80E090E00E94363160E082E090E06E
:104AF0000E94183160E083E090E00E94183110922B
:104B0000340560E074E184E090E00E94363160E0BA
:104B100086E090E00E9418316FEF87E090E00E94FD
:104B2000183140E050E0BA0188E090E00E942A315C
:104B300060E08DE090E00E94183140E050E0BA0162
:104B400088E190E00E942A3160E087E190E00E94D5
:104B5000183140E050E0BA018CE190E00E942A3127
:104B600060E070E080E290E00E94363140E050E08A
:104B7000BA0188E190E00E942A3180E00E94801C06
:104B80000E949F1C40E050E0BA018FE090E00E943C
:104B90002A3140E050E0BA0183E190E00E942A31DE
:104BA0000895809133058111109233050895809501
:104BB00090913205892380933205089590913205B2
:104BC00080913105982B9093E804809133058823D8
:104BD00089F0892B8093E804EAEEF4E097E080E026
:104BE000915029F021912223D9F38F5FF9CF8111C0
:104BF0000E94D12548E050E069E275E088EE94E03B
:104C00000E949E31892BA9F088E0E8EEF4E0A9E249
:104C1000B5E001900D928A95E1F7E0913F05F091A2
:104C20004005309731F00280F381E02D88EE94E06A
:104C30000995089520912805809582238093280561
:104C4000982F977099F430E0482F082E000C550BE0
:104C50002417350759F090911E0292FF07C08595E1
:104C6000859585950E945A1810922805089590916F
:104C70001E0292FB222720F9281779F080FB92F977
:104C800090931E0260911D0270911E0284E090E0DC
:104C90000E94363182E00E941A260895209127054D
:104CA0009091F60456E02917A9F030E0529FF001E8
:104CB000539FF00D1124E950FB4F7181761306C00C
:104CC0007081781303C07281741306C02F5F3F4F49
:104CD0002770E9CF80E0089581E00895809127054D
:104CE0009091F604891719F08F5F8770FBCF0895B4
:104CF0000F931F93CF93DF938091F50482958F706C
:104D000009F05AC08091F204882309F455C08091BB
:104D100027051091F6046091F0047091F104C091A0
:104D2000F304D091F40491E06F3F09F090E0292F53
:104D300006E0811709F440C0209721F07F3F21F061
:104D400030E003C031E001C0322F90E030FD31C0CF
:104D5000089FF001099FF00D1124DF01A950BB4FFE
:104D600011963C911197371324C03C91361321C002
:104D700012963C91129731111CC013964D915C9183
:104D800014974C1B5D0B483C510598F48091F50439
:104D90008F7080618093F504E450FB4F80818F70A9
:104DA0008061808380EF94E00E9406040E946E265A
:104DB00003C001968770BDCFDF91CF911F910F91F6
:104DC0000895A5E0B0E0E7EEF6E20C94B8300E945A
:104DD000FA2A8C018091350590913605081719073C
:104DE000A1F08FEF89838A831B820E94FA2A816057
:104DF000782F9D838C8349815A816B818D810E949C
:104E0000690310933605009335052596E4E00C946C
:104E1000D430A5E0B0E0EFE0F7E20C94B130AE01A1
:104E20004F5F5F4F7A0185E0DA011D928A95E9F7BD
:104E300004E111E099249394CC24C394D12C5E0115
:104E4000B6E0AB0EB11CF80180818F3F09F444C07D
:104E5000F894E82FE295EF70F0E021A18F70A601A1
:104E600002C0440F551F8A95E2F7CA01922F982B72
:104E700091A392A18095892382A3789400C048E1F0
:104E800051E0F701392D3095DA012D91AD012F3F19
:104E900099F0822F82958F7090E0DC0190968C9132
:104EA00090E02F7002C0959587952A95E2F780FDD6
:104EB00003C08081892902C0808183238083319649
:104EC000AE16BF0609F7F80180818F3F11F00E94EE
:104ED0002124F0EAFA95F1F7990C0F5F1F4F41E09A
:104EE0000831140709F0AFCF45E050E0B70187E182
:104EF00092E00E949E31892B89F085E0F701A7E1BD
:104F0000B2E001900D928A95E1F781E08093390536
:104F10000E94FA2A909338058093370580913905CD
:104F2000811102C080E020C0809137059091380542
:104F30000E94DF2A0397B0F345E050E067E172E09A
:104F400086E292E00E949E31892B59F085E0E7E1EC
:104F5000F2E0A6E2B2E001900D928A95E1F781E0DD
:104F600001C080E0109239052596EBE00C94CD301D
:104F70008091A00408951F920F920FB60F921124F2
:104F80002F933F934F935F936F937F938F939F9351
:104F9000AF93BF93CF93DF93EF93FF93C091E9005B
:104FA000CF708091EC00D82FD17080FDD0E81092A6
:104FB000E9008091F000877F8093F00078940E9450
:104FC00075201092E9008091F00088608093F000D5
:104FD000CD2BCF70C093E900FF91EF91DF91CF917E
:104FE000BF91AF919F918F917F916F915F914F9101
:104FF0003F912F910F900FBE0F901F901895E8EDE5
:10500000F0E080818E7F80831092E2001092DA00BF
:105010001092E100A0EEB0E08C9181608C938081D1
:105020008F77808319BCA7EDB0E08C918E7F8C9335
:1050300080818F7E80831092480508952091E4003E
:105040003091E50095E64091EC00842F817040FF9F
:1050500023C08091E80080FD1DC08091AB048823AF
:1050600099F0853099F08091EB0085FD11C0409159
:10507000E4005091E5002417350729F3915011F011
:105080009A01E1CF84E0089582E0089583E00895D5
:1050900081E0089580E008954091E80042FFDDCF6F
:1050A00008958091AD0487FF11C08091E80082FDD2
:1050B00005C08091AB048111F8CF11C08091E80048
:1050C0008B770BC08091AB04882349F08091E80076
:1050D00080FFF8CF8091E8008E778093E8000895F4
:1050E000982F973068F59093E900981739F07091F0
:1050F000EC002091ED005091F00003C0242F762F9A
:1051000050E021FD02C09F5FECCF3091EB003E7F6D
:105110003093EB003091ED003D7F3093ED00309106
:10512000EB0031603093EB007093EC002093ED00C6
:105130005093F0002091EE0027FDE5CF80E0089528
:105140008F708093E90081E00895A0E0B0E0EBEA81
:10515000F8E20C94B430C8EDD0E088818F7E88836B
:10516000E7EDF0E080818160808384E082BF81E0B0
:105170008093480588818E7F888302EE10E0F801D5
:1051800010821092DA0081EEC82ED12CF601108226
:1051900088818F77888388818068888388818F7DE4
:1051A000888319BC1092AB041092AC041092AA042C
:1051B0001092A90490EEE92EF12CF70180818B7FEB
:1051C000808388818160888342E060E080E00E9483
:1051D0007028F60180818E7F8083F8018081816054
:1051E0008083808188608083F70180818E7F8083C7
:1051F000888180618883CDB7DEB7E8E00C94D03039
:105200001F920F920FB60F9211242F933F934F933B
:105210005F936F937F938F939F93AF93BF93EF931E
:10522000FF938091E10082FF09C08091E20082FF3C
:1052300005C08091E1008B7F8093E1008091DA00CE
:1052400080FF2AC08091D80080FF26C08091DA00BC
:105250008E7F8093DA008091D90080FF18C080E1B2
:1052600089BD82E189BD09B400FEFDCF81E0809354
:10527000AB048091480581110FC00E94FF270E9456
:10528000A5288091E20084608093E20005C019BCEB
:105290001092AB04109248058091E10080FF17C086
:1052A0008091E20080FF13C08091E2008E7F8093A6
:1052B000E2008091E20080618093E2008091D8005A
:1052C00080628093D80019BC85E08093AB04809104
:1052D000E10084FF30C08091E20084FF2CC080E1B7
:1052E00089BD82E189BD09B400FEFDCF8091D8005F
:1052F0008F7D8093D8008091E1008F7E8093E100C4
:105300008091E2008F7E8093E2008091E2008160D4
:105310008093E2008091AC04882311F084E007C000
:105320008091E30087FD02C081E001C083E08093AB
:10533000AB048091AB048091E10083FF27C0809192
:10534000E20083FF23C08091E100877F8093E1002A
:1053500082E08093AB041092AC048091E1008E7FD8
:105360008093E1008091E2008E7F8093E200809143
:10537000E20080618093E20042E060E080E00E9411
:1053800070288091F00088608093F000FF91EF9189
:10539000BF91AF919F918F917F916F915F914F914D
:1053A0003F912F910F900FBE0F901F901895209155
:1053B000B3043091B4042617370748F0611571051E
:1053C00039F42091E8002E772093E80001C0B9015C
:1053D000FC0120E06115710579F18091AB0488230F
:1053E000F1F18530F1F18091E80083FD3CC08091BE
:1053F000E80082FD2EC08091E80080FFEBCF209175
:10540000F3008091F20090E0922B6115710551F04C
:105410008830910538F421912093F1006150710991
:105420000196F3CF21E0089709F020E08091E80091
:105430008E778093E800CECF2111CFCF0AC0809124
:10544000AB04882361F0853061F08091E80083FD32
:105450000AC08091E80082FFF2CF80E0089582E0E8
:10546000089583E0089581E008950F931F93CF93EB
:10547000DF938B01EA019091AB04943079F58F7042
:105480008093E9008FEF9091E800815095FD06C070
:1054900095ED9A95F1F700008111F5CF8091E80024
:1054A00085FF1CC00E941E28882361F08091E800BF
:1054B0008E778093E80012C0F80181918F0180936C
:1054C000F1002197209791F38091E80085FDF4CFBA
:1054D0008091E8008E778093E800E4CFDF91CF9150
:1054E0001F910F91089543E050E0BC0184E00E94B9
:1054F000352A089546E050E0BC0184E00E94352A38
:105500000895CF93DF93EC0148E050E0BC0181E0C7
:105510000E94352A88E0FE01A1EAB4E001900D92D4
:105520008A95E1F7DF91CF91089581E08093E000C3
:1055300080E28093D8001092C9008FE19EE4019729
:10554000F1F700C0000087E090EBDC018093560586
:1055500090935705A0935805B09359059CE088E1B6
:105560000FB6F894A895809360000FBE90936000EA
:10557000FFCF78941F920F920FB60F9211248F9342
:105580009F93AF93BF938091440590914505A0915F
:105590004605B09147050196A11DB11D80934405B4
:1055A00090934505A0934605B0934705BF91AF91F1
:1055B0009F918F910F900FBE0F901F9018959C0197
:1055C0004FB7F8948091440590914505A091460508
:1055D000B09147054FBF821B930B08952FB7F894E6
:1055E000609144057091450580914605909147056D
:1055F0002FBF08952FB7F8948091440590914505E9
:10560000A0914605B09147052FBF08951F920F92B4
:105610000FB60F9211248F939F93AF93BF938091F6
:105620004305811113C08091440590914505A091D7
:105630004605B09147054196A11DB11D80934405D3
:1056400090934505A0934605B0934705BF91AF9150
:105650009F918F910F900FBE0F901F9018959C01F6
:10566000FC0132969FEF80E04191461789F09F3F01
:1056700019F4411101C0982F8F5F8630A9F79F3F21
:1056800039F0F901E90FF11D97FDFA95628308954C
:105690000895A3E0B0E0EFE4FBE20C94BA3020916F
:1056A00041053091420528173907A1F09093420532
:1056B00080934105E0913F05F0914005309751F00E
:1056C00024E029839B838A830680F781E02DCE0125
:1056D000019609952396E2E00C94D630A3E0B0E061
:1056E000E4E7FBE20C94BA3020913D0530913E0591
:1056F00028173907A1F090933E0580933D05E0916E
:105700003F05F0914005309751F023E029839B83BA
:105710008A830680F781E02DCE01019609952396B4
:10572000E2E00C94D630E0913F05F09140053097CF
:1057300029F00190F081E02D0995089580E0089509
:105740000F931F93CF93DF93C42FD22FFC0182813D
:105750008823B1F040933C050E94FA2A90933B05C0
:1057600080933A0580E28C0F883008F04DC0C770F6
:1057700081E001C0880FCA95EAF70E94A41844C0CE
:1057800080913C05481330C080913A0590913B05CB
:105790000E94DF2A883C910538F510E21D0FCD17D5
:1057A000B9F080E28C0F883040F4C77081E001C00E
:1057B000880FCA95EAF70E949D18183010F581E00D
:1057C0009D2F977001C0880F9A95EAF70E94A41840
:1057D000802F0E94211A1830B8F4D77081E001C0E0
:1057E000880FDA95EAF70AC080E28C0F883060F4FF
:1057F000C77081E001C0880FCA95EAF70E949D1822
:1058000003C0802F0E94211ADF91CF911F910F9129
:105810000895CF93DF93C6ECD0E060E0CE010E9404
:1058200018312196C11584E0D807B9F7DF91CF91DF
:105830000895A0E0B0E0EFE1FCE20C94B230A12CBE
:10584000E12CF12CB12C00E010E0C0E0D0E06701C9
:10585000C00ED11EF601EC0FFD1FEE0FFF1FEE561E
:10586000FB4F259134914C2F6B2D8A2D0E94261CC5
:105870002196C430D10571F70C5F1F4FB39485E0BA
:10588000B812E3CF84E1E80EF11CA39484E0A812DF
:10589000D9CFCDB7DEB7EAE00C94CE3022E8241B96
:1058A00008F420E0620F08954095282F429F412D73
:1058B0001124842F0895E42FF0E0EE0FFF1FE05C29
:1058C000FE4F9081921B97FD9195292F38E1239FE0
:1058D000212D1124620F08950F931F9310E0F801FA
:1058E000EE0FFF1FE05CFE4F9081905797FD919562
:1058F000000F111FF801E45DFE4FE589F0E0B0975D
:10590000DF01AA0FBB1F8D010E0F1F1F2003D00147
:10591000219FB00D1124E8E3F0E0E91BF10997FDA8
:10592000F3959F01220F331F89010E0F1F1F4003A4
:105930009001419F300D11242A0F3B1F37FF02C0F9
:1059400021583F4F220F232F221F330B620F1F912D
:105950000F9108950F931F93522F10E0F801EE0F4F
:10596000FF1FE45DFE4FE589F0E0B097EE0FFF1FEB
:105970009F015203D001539FB00D1124000F111F3E
:10598000F801E05CFE4F008110E000571109000FA4
:10599000111F40039001419F300D11242A0F3B1F1E
:1059A00037FF02C021583F4F220F232F221F330BF6
:1059B000620F1F910F9108950F931F93522F10E0C4
:1059C000F801EE0FFF1FE45DFE4FE589F0E0B097B0
:1059D0009F015203D001539FB00D1124000F111FDE
:1059E000F801E05CFE4F008110E000571109400310
:1059F0009001419F300D11242A0F3B1F37FF02C039
:105A000021583F4F220F232F221F330B620F1F916C
:105A10000F910895EF920F931F9393E0099F8001D8
:105A20001124159507956E2D600F1F910F91EF9022
:105A30000895A22F50E0FA01EE0FFF1FE45DFE4F24
:105A40009589905297FD9195440F551FFA01E05C9E
:105A5000FE4F3081232F30E02A1B3109290F311DE1
:105A600097FD3A95620F0895E42FF0E0EE0FFF1FC7
:105A7000E45DFE4F6589621B0895E42FF0E0EE0FB0
:105A8000FF1FE05CFE4F6081621B0895622F089546
:105A9000E42FF0E0EE0FFF1FE05CFE4F408134EE9C
:105AA000439F412D1124E82FF0E050E0445E5F4F0A
:105AB000DA01A21BB1099D01B7FF03C03195219501
:105AC000310993E0220F331F9A95E1F7AF01421B92
:105AD000530B9A0157FF02C020E030E0582F259F5A
