:100000000C94B7020C94D4020C94D4020C94D40235
:100010000C94D4020C94D4020C94D4020C94D40208
:100020000C94D4020C94D4020C946E290C94402AA3
:100030000C9409240C94D4020C94D4020C94D40291
:100040000C94D4020C94D4020C94D4020C94D402D8
:100050000C94D4020C9492240C94D4020C94D402E8
:100060000C94D4020C94D4020C94D4020C94D402B8
:100070000C94D4020C94D4020C94D4020C94D402A8
:100080000C94D4020C94D4020C94D4020C94D40298
:100090000C94D4020C94D4020C94D4020C94D40288
:1000A0000C94D4020C94D4020C94D402FE05FE05E8
:1000B0002A062A068B06A90695079507AE06240789
:1000C000350735071C131F13241329132E1333135D
:1000D00038133D13421348134D13881B8B1B8E1B83
:1000E000911B9C1B941B971B9A1BFC1D6E1E041ED0
:1000F000CE1DD21D081ED51D0B1E161EE01D641E32
:10010000E41D1A1EE81D1E1E481EEC1D221E521E56
:10011000F21D281E321ED91D0F1EDC1D121EF71DDA
:100120002D1E3E1E5E1E601ECA1D001E771E9821DB
:100130009E218C219221A421AA21B021A82ACF2A74
:10014000C72BCF2AC72B1B2B3E2BC72B952BA42BA2
:1001500053005400550049005F00600061006700D3
:100160005C005D005E00570059005A005B005600BD
:1001700021526200630058000100237824780100B6
:1001800025782678AB00AC0027782878AD00AE0043
:100190007C007D00B300B20001002078007C0100EB
:1001A0001E0F0500047F3F1F643214643214783C34
:1001B0001E1E140A052223252628292A2C2D2F301D
:1001C00032333536383A3B3D3E4042434547494A53
:1001D0004C4E5051535557595A5C5E606264666884
:1001E000696B6D6F71737577797B7D7F818385878F
:1001F000898A8C8E90929496989A9C9E9FA1A3A592
:10020000A7A8AAACAEAFB1B3B4B6B8B9BBBCBEBFB9
:10021000C1C2C3C5C6C7C9CACBCCCDCED0D1D2D23C
:10022000D3D4D5D6D7D7D8D9D9DADADBDBDBDCDC47
:10023000DCDCDCDDDDDDDDDCDCDCDCDCDBDBDBDAFF
:10024000DAD9D9D8D7D7D6D5D4D3D2D2D1D0CECD6A
:10025000CCCBCAC9C7C6C5C3C2C1BFBEBCBBB9B877
:10026000B6B4B3B1AFAEACAAA8A7A5A3A19F9E9CFC
:100270009A98969492908E8C8A89878583817F7DC7
:100280007B79777573716F6D6B6968666462605EA8
:100290005C5A5957555351504E4C4A494745434271
:1002A000403E3D3B3A3836353332302F2D2C2A290B
:1002B0002826252322FFAA7F5540000101010101C4
:1002C000010101010202020202020202020303030F
:1002D00003030303030404040404040405050505DF
:1002E000050606060606070707070708080808099F
:1002F0000909090A0A0A0B0B0B0C0C0C0D0D0D0E4B
:100300000E0E0F0F0F1010111111121213131414DF
:10031000151516161717181819191A1A1B1B1C1D54
:100320001D1E1E1F202021222223242425262627AD
:100330002829292A2B2C2D2D2E2F303132323334DF
:1003400035363738393A3B3C3D3E3F4041424344E5
:1003500045464748494A4C4D4E4F505153545556C7
:1003600058595A5B5D5E5F616264656668696B6C73
:100370006D6F7072737577787A7B7D7E80828385EE
:1003800087888A8C8E8F91939596989A9C9EA0A22E
:10039000A3A5A7A9ABADAFB1B3B5B7BABCBEC0C238
:1003A000C4C6C9CBCDCFD1D4D6D8DBDDDFE2E4E7FC
:1003B000E9EBEEF0F3F5F8FAFDFF1003520041000F
:1003C000520054005000410044000000120341005C
:1003D0006C00610062006100680075007900000037
:1003E0000403090409025B00030100A0FA090400E8
:1003F000000103010100092111010001224400074D
:10040000058103080001090401000203000000093E
:1004100021110100012222000705820320000107AB
:100420000503032000010904020001030000000984
:10043000211101000122B6000705840320000112EA
:10044000010002000000084C4150000100010200C0
:10045000010660FF0961A1010962150026FF0095F0
:1004600020750881020963150026FF009520750894
:100470009102C005010902A10185020901A100053F
:100480000919012908150025019508750181020542
:1004900001093009311581257F950275088106090A
:1004A000381581257F950175088106050C0A3802EB
:1004B0001581257F950175088106C0C00501098059
:1004C000A101850319012AB700150126B70095017E
:1004D00075108100C0050C0901A101850419012ACC
:1004E000A002150126A002950175108100C005012A
:1004F0000906A1018506050719E029E71500250170
:100500009508750181020507190029EF15002501DD
:1005100095F07501810205081901290595057501F8
:100520009102950175039101C005010906A101051C
:100530000719E029E7150025019508750181029545
:1005400001750881010507190029FF150026FF0024
:100550009506750881000508190129051500250172
:10056000950575019102950175039101C000112453
:100570001FBECFEFDAE0DEBFCDBF12E0A0E0B1E0FA
:10058000ECEEFBE502C005900D92A230B107D9F761
:1005900023E0A2E0B2E001C01D92AF36B207E1F75E
:1005A0000E94EA120C94F42D0C940000811106C0F4
:1005B000662311F089EA09C08AEA07C0813039F45C
:1005C000662311F08AED01C089ED0E94A50581E046
:1005D00008958230C0F46530B0F44430A0F4E62FC2
:1005E000F0E095E0899FE00DF11D1124EE0FFF1F53
:1005F000EE0FFF1FE40FF11DEE0FFF1FE05BFE4F3C
:1006000085919491089581E090E008950E94E90217
:10061000089581E0089581E008950E940B030895F4
:100620000E940D0308950E940B03089508950E94EF
:1006300016030895A6E0B0E0E0E2F3E00C949F2CEE
:1006400049835A839E833091090289819A813111AD
:1006500015C03E81332359F0222349F00E945309EB
:10066000182F682F89819A810E942F0903C00E9448
:100670004109182F69817A81812F04C00E94530992
:1006800069817A810E9498102696E3E00C94BB2C35
:10069000FC01262F40815181628173818481958183
:1006A0000E941A030895CF93DF93EC0161E00E944A
:1006B0004803BE010E941003DF91CF910895CF93AC
:1006C000DF93EC0160E00E944803BE010E94170323
:1006D000DF91CF91089521E030E0A90102C0440FDD
:1006E000551F8A95E2F7CA010E9456080895CF93D4
:1006F000C82F81E090E00C2E02C0880F991F0A9449
:10070000E2F70E94DC0D8C2F0E946B03CF910895BD
:1007100081E008950E9488030895CF93C82F0E9416
:1007200006088C2F0E948A032FEF84E39CE021505F
:1007300080409040E1F700C00000CF91089581E033
:100740000E948D030E94B824089580E00E948D03CA
:100750000E94C92408950F931F93CF93DF938C01B8
:1007600061E00E944803EC01F801858181110E943B
:100770000B1BB801CE010E941303882369F1B80155
:10078000CE010E948021882339F1B801CE010E9458
:10079000A61D882309F1B801CE010E947C1D882383
:1007A000D9F0B801CE010E9406138823A9F0B80140
:1007B000CE010E949611882379F0F8018581882363
:1007C00049F1C330FCE7DF07D9F060F4C115ECE76D
:1007D000DE0721F40E949F0380E01FC0C130DC4788
:1007E00089F018C0CB358CE7D80791F0CC35ECE711
:1007F000DE0759F0CA35DC4769F40E94B70D0AC01C
:100800000E94BF0D0E94A503E7CF0E94AD0D02C05C
:100810000E94BB0DC8010E940903DF91CF911F9177
:100820000F9108950E94E2230E943D040E945019F6
:1008300008950E9441040E94611A0E94EB230895CA
:1008400081E0089581FF02C05F9A08955F9808953E
:10085000CF93DF93D82F0E942004C82F882319F04C
:100860008D2F0E9422048C2FDF91CF910895579AEB
:100870005F9808950E942804089580E00E943A0439
:1008800008950E94C8210E943A040895CF930E94BF
:10089000C821C82F80910402C81779F0C0930402C0
:1008A0000E947724609305027093060280930702EA
:1008B000909308028C2F0E943A04CF910895ADE0E6
:1008C000B0E0E5E6F4E00C94A02C488759876A87ED
:1008D0007B878C879D8791110E94B90CCE01019670
:1008E00027E0FC0111922A95E9F726E0FE013896EF
:1008F000DC0101900D922A95E1F72D8121110AC0AA
:1009000029813A814B815C816D817E818F810E943A
:10091000030C04C00E9453038111F2CF2D96E2E034
:100920000C94BC2CFC012481213021F48081918124
:100930000E9485090895662319F00E94161F02C0BF
:100940000E94711F0E94E81F0895CF93882309F425
:1009500088C0C82F8238A1F40E94D52181FD81C0B2
:1009600089E30E94F6220E94400D2FEF87EE93E06C
:10097000215080409040E1F700C0000089E315C09D
:100980008338C1F40E94D52180FD6BC083E50E94AD
:10099000F6220E94400D2FEF81EE94E0215080401E
:1009A0009040E1F700C0000083E50E9410230E9400
:1009B000400D57C08438A1F40E94D52182FD51C05A
:1009C00087E40E94F6220E94400D2FEF81EE94E012
:1009D000215080409040E1F700C0000087E4E5CF5F
:1009E0008CEF8C0F813A70F48C2F0E946B2288233D
:1009F00029F08C2F0E9410230E94400D8C2F0E9402
:100A0000F622D5CF80E28C0F883048F4C77081E0A1
:100A100001C0880FCA95EAF70E949C0CC8CFEBE58D
:100A2000EC0FE33040F4F0E0E959FE4F808190E0B4
:100A30000E94FF2116C0E8E5EC0FEB3150F4F0E026
:100A4000EE0FFF1FEF5CFE4F808191810E942422F8
:100A500008C083E38C0F833120F461E08C2F0E9467
:100A60009B04CF910895882309F456C0823859F425
:100A70000E94D52181FF50C089E30E94F6220E9486
:100A8000400D89E30CC0833879F40E94D52180FFA2
:100A900043C083E50E94F6220E94400D83E50E9438
:100AA00010230E94400D0895843859F40E94D521E6
:100AB00082FF32C087E40E94F6220E94400D87E444
:100AC000EECF9CEF980F913A50F390E2980F983048
:100AD00050F4877091E001C0990F8A95EAF7892F49
:100AE0000E94A20CDECF9BE5980F933028F480E0A3
:100AF00090E00E94FF21089598E5980F9B3128F41B
:100B000080E090E00E942422089593E3980F9331AF
:100B100018F460E00E949B0408951F93CF93DF9325
:100B2000182FEB010E94A504209741F08FE99FE068
:100B30000197F1F700C000002197F6CF812F0E94A6
:100B40003305DF91CF911F910895893319F060E04B
:100B500070E002C060E570E00E948D050895882372
:100B600021F00E949C0C0E94400D0895882321F0E2
:100B70000E94A20C0E94400D0895A0E0B0E0E3ECBA
:100B8000F5E00C949A2C7C01162FC72FFC01D5811F
:100B9000068102950F700E94920C8823F9F0DD23E4
:100BA000E9F08C2F807F803461F080E2810F883003
:100BB000A8F08C2F807E803221F4123078F0002350
:100BC00069F080911C0382FF09C082E00E94810DC0
:100BD0000E94920C91E0D82ED92601C0D12CCC2EA7
:100BE000C2948FE0C8228C2D90E08C30910508F0E3
:100BF0009CC1FC01EA5AFF4F0C94592C8C2F807F2A
:100C0000CF70882311F0C295C07FDD2399F0CC23EB
:100C100009F477C180E2810F883010F0111104C00F
:100C20008C2F0E949C0C03C08C2F0E94AC0C0E9445
:100C3000400D67C1812F0E943305CC2309F475C193
:100C400080E2810F883038F1112329F18C2F0E9426
:100C5000B20C24C08C2F807FCF70803211F0C295EF
:100C6000C07F112319F0113099F13CC080911C0311
:100C700082FD17C0DD2349F0CC2329F08C2F0E9480
:100C80009C0C0E94400D80E03DC180E00E94330535
:100C9000CC2309F44AC18C2F0E94A20C0E94400D63
:100CA00044C1DD2349F0002309F1013009F03DC1C1
:100CB0008C2F0E94C30C39C1011137C18C2F0E94A7
:100CC000B6058C2F0E94CF0C8C2F0E94540D2DC185
:100CD000DD2321F0063008F028C108C0053008F0F7
:100CE00024C115C0DD2331F001110BC18C2F0E94EE
:100CF000AF051BC1002359F0193309F013C1FFEFF1
:100D000027EE83E0F15020408040E1F709C18C2FAD
:100D10000E94B6050AC18C2F86958695837019F0BE
:100D2000813061F002C1DD2321F0812F9C2F93706F
:100D300002C080E090E00E94FF21FFC0DD2321F08F
:100D4000812F9C2F937002C080E090E00E942422AB
:100D5000F4C06D2F812F0E949B04EFC08C2F8370F5
:100D6000B1F5D111E6C0412F429546954770440F29
:100D7000440F812F8F7090E09C01042E02C0220F3F
:100D8000331F0A94E2F714FF0AC08FE090E002C01C
:100D9000880F991F4A95E2F78095909502C080E0F0
:100DA00090E0C695C695C370822B932BC23049F054
:100DB00058F4C13019F00E946208BBC00E94590863
:100DC000B8C00E946B08B5C00E945608B2C0DD23AF
:100DD00019F08C2F817001C08695882309F4A9C071
:100DE000412F429546954770440F440F812F8F70D5
:100DF00090E09C01042E02C0220F331F0A94E2F7F8
:100E000014FF0AC08FE090E002C0880F991F4A9536
:100E1000E2F78095909502C080E090E0C695C69577
:100E2000C370822B932BC23049F058F4C13019F0B3
:100E30000E94CA087EC00E94C1087BC00E94D308DD
:100E400078C00E94770875C0CF70DD2339F08C2FF1
:100E50000E948F08812F0E94AF056BC0812F0E94D6
:100E6000B6058C2F0E949F0864C0123F21F128F420
:100E7000103F41F0113FC1F040C0133F19F1143F42
:100E800079F03BC0DD2341F0053008F04EC08C2FD7
:100E90008F710E94B10849C0063008F046C0F7CFF4
:100EA00080911C0382FD18C0DD2339F08C2F8F71D7
:100EB0000E948F083AC0DD23C9F38C2F8F710E94E6
:100EC0009F0833C0DD2329F08C2F8F710E94830887
:100ED0002CC00E947E0829C0DD2331F063E08C2FF6
:100EE0008F710E94630D21C081E00E94810D02304C
:100EF000E0F082E00E94810D18C0DD2331F0002374
:100F0000A9F2812F0E94A50410C00023B1F2193369
:100F100049F49FEFE7EEF3E09150E040F040E1F755
:100F200000C00000812F0E94330588EF8C0D8430B3
:100F300020F40E94C8210E943A04DD2089F00E941A
:100F40008E0C80FD0DC0F70115820E94880C0E9456
:100F50008F08C7010E94CD070E94880C0E949F083D
:100F6000CDB7DEB7E8E00C94B62C0F931F93CF9368
:100F7000DF93EC01688179818D810E9490098C0159
:100F80000E94DC080E944708B801CE010E94BD05FE
:100F9000DF91CF911F910F910895CF93DF93FC01C3
:100FA00024812223D1F0EC010E94AB0381110FC0F8
:100FB0000E94920C882389F08D81882371F08091A2
:100FC0001C0382FF0AC082E00E94810D06C0CE0190
:100FD0000E94B507CE010E945F03DF91CF91089573
:100FE00080E090E00E94FF2180E090E00E942422B7
:100FF0000E94B90C0E94400D0E9407200E94E81F29
:1010000008950E942A230E94F00708950E94A90CC7
:101010000E940108089592959F70963079F010F41F
:10102000925001C09A50923068F4803F69F018F4F1
:10103000883E40F409C0843F29F406C0883E20F071
:10104000813F11F080E0089581E00895FC01248142
:10105000222339F0808191810E9485090E940B082A
:10106000089580E00895A6E0B0E0E9E3F8E00C948C
:10107000A02C2696E2E00C94BC2CA7E0B0E0E3E4C0
:10108000F8E00C94A02C2796E2E00C94BC2C089578
:1010900008950E94480808950E94490808950E94F2
:1010A0004C08909319028093180208950E944F08EB
:1010B00008952091180230911902822B932B0E94DF
:1010C0004F0808952091180230911902822393232A
:1010D0000E944F080895209118023091190282272A
:1010E00093270E944F0808950E94480808950E947F
:1010F00074089093170280931602089580E090E0A0
:101100000E947708089521E030E0A90102C0440F51
:10111000551F8A95E2F7CA010E947708089521E0D9
:1011200030E002C0220F331F8A95E2F78091160249
:1011300090911702822B932B0E947708089521E04B
:1011400030E002C0220F331F8A95E2F720953095D8
:101150008091160290911702822393230E947708B0
:10116000089521E030E002C0220F331F8A95E2F794
:101170008091160290911702822793270E94770888
:1011800008952091160230911702822B932B0E9412
:101190007708089520911602309117028223932335
:1011A0000E94770808952091160230911702822735
:1011B00093270E94770808950895962F9770A1E0CD
:1011C00001C0AA0F9A95EAF793E0769567959A95EC
:1011D000E1F7660F771F660F771FFA01E60FF71F1B
:1011E00040E050E0682F70E090819B01042E02C027
:1011F000369527950A94E2F72170219529272A230D
:10120000292721934F5F5F4F4430510569F70895B7
:10121000FB01782F777023E0969587952A95E1F763
:10122000880F991F880F991FE80FF91F40E050E0C1
:1012300080E0219130E0072E02C0369527950A9470
:10124000E2F721703327042E01C0220F0A94EAF737
:10125000822B4F5F5F4F4430510559F70895282F77
:10126000953070F4843060F4862F622F70E024E0B3
:10127000929F600D711D11244AE052E00E94DD082A
:101280000895953070F4843060F4292F90E06AE07E
:1012900072E034E0239F800D911D11240E94080903
:1012A000089580E00895A0E0B0E0E9E5F9E00C944D
:1012B000992C7C010091160210911702809118025E
:1012C00090911902082B192BCFE0D0E0CC24C394C5
:1012D000D12CC6010C2E02C0880F991F0A94E2F788
:1012E00080239123892B21F4219798F7B12C07C0F3
:1012F000BC2EB7018C2F0E94A4100197A9F38B2D4F
:10130000CDB7DEB7E9E00C94B52CCF93DF93EC01B9
:101310000E945309BE010E94A410DF91CF9108954D
:101320001F93CF93DF93EB0190910902992321F052
:10133000CB010E94850913C0882349F0CB010E948C
:101340005309182F682FCE010E942F0904C0CB012A
:101350000E944109182FBE01812F0E94A410DF9125
:10136000CF911F9108951F93CF93DF93C0911A02DD
:1013700017E080911B02C817A1F0D0E01C9FF0017C
:101380001D9FF00D1124E45EFD4F208131814281CB
:1013900053816481758186810E943D082196C770C2
:1013A000E8CFDF91CF911F910895209154023091A1
:1013B0005502409156025091570260915802709127
:1013C000590280915A020E943D080895CF93DF93FD
:1013D00080915A0282958F7009F04EC08091590217
:1013E000882309F449C080911A0240911B02509150
:1013F000550260915402C0915602D091570277E095
:101400008417D1F190E0789FF001799FF00D1124BD
:10141000DF01A45EBD4F14962C911497222349F14D
:1014200011962C911197251324C02C91261321C0BD
:1014300015962C91159721111CC012962D913C9157
:1014400013972C1B3D0B283C310598F480915A02D0
:101450008F70806180935A02EE5DFD4F80818F70A6
:101460008061808384E592E00E94CD070E94B309E9
:1014700003C001968770C4CFDF91CF91089520916A
:101480001A0290911B0257E02917A9F030E0529FF1
:10149000F001539FF00D1124E45EFD4F718176132E
:1014A00006C07081781303C07581741306C02F5F66
:1014B0003F4F2770E9CF80E0089581E00895A4E1CF
:1014C000B0E0E5E6FAE00C94962C8C0186E0F80199
:1014D000DE011F9601900D928A95E1F7F801848153
:1014E000E58094E5A92E92E0B92E909158029111D1
:1014F00018C0882309F480C1EE20D9F1C8010E94E8
:101500002608F82E8823A9F187E0F801D50101907B
:101510000D928A95E1F7C5010E9492040E94E609A6
:1015200098C0F801C080D18082809380F0905902E9
:101530002091560230915702A401421B530BFF2009
:1015400009F406C1483C510508F0AFC0882309F4EE
:1015500055C180915A02282F207F90915502222355
:1015600061F09D1509F462C0C8010E94260881112E
:1015700073C0C8010E94CD073FC19D1115C0909155
:1015800054029C1111C0E1100FC08F7080618093D4
:101590005A020E94D50984E592E00E94CD0780910D
:1015A0005A02F801868326C1E1103AC040E06D2D51
:1015B0008C2D0E943F0A40E06D2D8C2D0E943F0A29
:1015C000E82E811117C1CF86D88A8F8598890E940D
:1015D0008509292F22952F70243020F49F70223006
:1015E00028F009C02A50223080F014C0992349F015
:1015F000811107C013C0992321F0F8019681907FD3
:1016000069F0805E883030F409C0803F38F0815F37
:10161000833020F0C8010E94CD07EF2CFE2CEEC0D5
:1016200080915A02816080935A02E4C090915402E2
:101630009C119ACFE11098CFF8018683C8010E94CF
:10164000CD0787E0F801A4E5B2E001900D928A95FC
:10165000E1F70E94D509D2C0EE2009F48ACF20918B
:101660005A02822F82958F7090E002978CF08091C1
:10167000540290915502998788879B868A8680912B
:1016800058028C871D862E87CE0108960E94CD07B2
:1016900087E0F801A4E5B2E001900D928A95E1F7A8
:1016A0000E94E6090E94D509A7C090915A02292FED
:1016B000207FA1F4682D9A8A898AA6017A899E2DB5
:1016C0000E94330884E592E00E94CD0787E0F5018F
:1016D00011928A95E9F70E94D5098CC0882309F4F4
:1016E0008DC0809155028D1111C0809154028C11D2
:1016F0000DC0E1100BC0F8019683C8010E94CD0710
:1017000087E0F50111928A95E9F778C0C8010E9437
:101710002608882309F42DCFEE2009F42ACF209142
:101720005A02822F82958F7090E002970CF4B0CF0E
:1017300080915402909155029A8389839C828B8276
:10174000809158028D831E822F83CE0101969ECFF9
:10175000483C510508F040C0882309F44DC0FE2CD8
:10176000EE2009F406CF809155028D1127C080919B
:1017700054028C1123C090915A0290FD16C0892FFB
:1017800082958F70282F30E02115310571F0F80116
:1017900096832F30310509F451CF8F5F982F9295A2
:1017A000907F86818F70892B48CF87E0F801A4E570
:1017B000B2E001900D928A95E1F720C0C8010E9425
:1017C0002608811165CF80915A02816080935A0268
:1017D000C8010E94CD0712C0682D9A8A898AA60185
:1017E0007A899E2D0E94330887E0F50111928A952F
:1017F000E9F72FCFF12C02C0FF24F3948F2D6496CC
:10180000ECE00C94B22CAEE0B0E0E9E0FCE00C942B
:101810009F2C288739874A875B876C877D878E87CF
:10182000CE0108960E945F0A882361F06C856623CA
:10183000A9F1288539854A855B857D858E850E943D
:101840003D082CC087E0FE013896DE01119601901C
:101850000D928A95E1F76C85662301F120911B02B8
:1018600030E0C90101968770992740911A0250E033
:1018700084179507E1F16D8397E0929FD001939FC4
:10188000B00D1124A45EBD4FFE01319601900D9262
:101890009A95E1F780931B020E94B30917E08091AB
:1018A0001A0290911B02891779F1189FC001112427
:1018B000845E9D4F0E945F0A882331F1E0911A02F5
:1018C0001E9FF0011124E45EFD4F20813181428191
:1018D00053816481758186810E943D0880911A023E
:1018E00090E001968770992780931A02D8CF0E94C2
:1018F000060810921B0210921A02E4E5F2E087E05B
:10190000DF011D928A95E9F72E96E3E00C94BB2C3B
:1019100080918302869586958695089580918302AD
:101920008770089590918302977081E009F480E0B8
:1019300008958091AF0208959091AF02892B809312
:10194000AF02089580959091AF0289238093AF02F2
:1019500008951092AF0208959091AE02892B809362
:10196000AE02089580959091AE0289238093AE02D5
:1019700008951092AE02089508950E94BC0C089537
:101980000E94BD0C089590918502292F282382176B
:1019900029F0982B909385020E94C00C0895909195
:1019A0008502292F282331F0809589238093850291
:1019B0000E94C00C089580918502882329F010921E
:1019C000850280E00E94C00C0895CF93C091AF02C1
:1019D0008091AE02C82B80918502882331F0C82BFC
:1019E0000E94492281110E94DB0C8C2FCF91089517
:1019F000CF93DF93C0910601D09107010E94E50CBF
:101A00008883C0910601D091070148E050E06BE760
:101A100072E0CE010E94672D892B59F088E0FE010B
:101A2000ABE7B2E001900D928A95E1F7CE010E94FA
:101A3000D821DF91CF910895CF93DF93C091040116
:101A4000D09105010E94E50C8983C0910401D091D9
:101A5000050140E250E06BE572E0CE010E94672D87
:101A6000892B59F080E2FE01ABE5B2E001900D92C6
:101A70008A95E1F7CE010E94E321DF91CF9108958D
:101A80000E94BB23813039F480911B0387FF03C080
:101A90000E941C0D08950E94F80C08950E94BC0C31
:101AA00008950E944E0D089590918402292F2823B5
:101AB00031F080958923809384020E94510D08950E
:101AC0000E94BC0C089590911C0392FF11C098E0F5
:101AD000899F90011124262B209383020E948F0856
:101AE000809183028695869586950E94600D089563
:101AF0000E948F0808951092830280E00E94600D7A
:101B00000895909183028095892380938302282FE2
:101B1000277069F4981759F090911C0392FF07C041
:101B20008695869586950E949F080E947B0D089554
:101B300090911C0392FB222720F9281769F080FB63
:101B400092F990931C0380911B0390911C030E94B7
:101B5000E70D82E00E94810D089580911C0382FBB5
:101B6000882780F991E089270E94980D089581E0E7
:101B70000E94980D089580E00E94980D08956FEFDF
:101B80007FEF80E090E00E94BF2D089580E090E01C
:101B90000E948B2D21E0853E9E4F09F020E0822F90
:101BA000089582E090E00E947D2D089583E090E00A
:101BB0000E947D2D90E00895682F83E090E00E94C0
:101BC000A12D089584E090E00E948B2D0895BC0122
:101BD00084E090E00E94BF2D0895AB01BC018FE02E
:101BE00090E00E94B32D0895AB01BC0183E190E029
:101BF0000E94B32D089560E070E0CB010E94F40DC7
:101C0000089560E070E0CB010E94ED0D0E94FB0D95
:101C10000895A8E0B0E0EFE0FEE00C94A02C65EEA3
:101C20007EEF80E090E00E94BF2D60E082E090E0D7
:101C30000E94A12D81E090E09093190280931802F8
:101C40000E94DC0D60E074E184E090E00E94BF2D12
:101C500060E086E090E00E94A12D60E087E090E0E7
:101C60000E94A12D40E050E0BA0188E090E00E947F
:101C7000B32D60E083E290E00E94A12D60E08CE053
:101C800090E00E94A12D60E08DE090E00E94A12DE7
:101C900019821A821B821C821D821E821F82188654
:101CA00048E050E067E170E0CE0101960E94912D7E
:101CB00040E050E0BA018FE190E00E94B32D0E9415
:101CC000010E2896E2E00C94BC2C0E94090E0895A7
:101CD000682F8EE090E00E94A12D0895A6E0B0E06C
:101CE000E4E7FEE00C949E2C0E946B248C01809112
:101CF000B0029091B1020817190781F019821A8277
:101D00000E946B24682F49815A81792F80E090E0EE
:101D10000E945F041093B1020093B0022696E4E0A3
:101D20000C94BA2C0E9477246093BF027093C00277
:101D30008093C1029093C2026093BB027093BC0275
:101D40008093BD029093BE0208950E947724609311
:101D5000BF027093C0028093C1029093C20260934D
:101D6000B7027093B8028093B9029093BA020895B3
:101D700081E0089581E008950E94BA0E08950895C3
:101D80000E94BF0E08950E94BF0E08950E94C30EC8
:101D900008950E94BF0E08950E94C90E08950E94E2
:101DA000BF0E089584E991E10E9401130E94CF0EB5
:101DB0000E94CC0E08950E94C00E0E94BF0E08958E
:101DC0000E94C60D811102C00E94650E0E94D10DB5
:101DD0008093C3020E94E20D90931C0380931B0327
:101DE0000E94791D0E94D60D0E945608809116020D
:101DF000909117020E94740808950E9462240E9424
:101E0000A01B0E945B120E94E00E0E9437040E94F9
:101E1000F9190E94C60E0895A6E0B0E0E2E1FFE0E5
:101E20000C94972C0E94B80E811103C00E946E0E74
:101E300053C00E94711282EBE82E82E0F82E6701F7
:101E400000E0F60111916F01802F0E94A9118127F6
:101E50000F5F053019F08823A1F302C0882331F306
:101E60008091C30281FD0E94AF110E94BC0EA82E7A
:101E700010E099249394812F0E94A911B82EF701A4
:101E8000C080C82609F100E0DD24D3948C2D8D217B
:101E9000A9F0AA2099F009831A830E946B249C83DD
:101EA0008B839D8291E08B2D8D2109F490E04981F7
:101EB0005A816B817C818D810E945F040F5FDD0CF4
:101EC000043021F7F701B0821F5FFFEFEF1AFF0A1E
:101ED000153089F60E94920E0E940C1B0E941D1C58
:101EE00081110E94A50E0E9429200E944604269678
:101EF000EBE00C94B32C1F93CF93DF930E94A910B7
:101F0000EC01C11580E5D807E8F5C11590E4D907C3
:101F100008F0A8C0C03ED10530F5CD3CD10508F091
:101F200094C0C83AD10578F4C53AD10508F083C009
:101F3000C130D10509F47CC008F4F2C0C430D10529
:101F400008F0F1C0EDC0C33CD10508F0E9C0C85AA3
:101F5000D0E0CC0FDD1FC659DE4F0990D881C02DCF
:101F6000CE019464E1C0C11580E2D80708F0CBC06F
:101F7000C11591E0D90708F06BC0C83ED10508F43F
:101F8000D2C0CEC0C03682E5D80728F5C03492E56D
:101F9000D90708F079C0C03282E5D80708F06CC0D4
:101FA000C11592E5D90708F481C04C2F4695469596
:101FB00080E2489FA0011124C37021E030E0C901F4
:101FC00002C0880F991FCA95E2F7EA01C82BD92BE6
:101FD000CE019D68A9C0C03A82E5D807B8F48C2F1D
:101FE0008F71C03892E5D90708F07BC08695869539
:101FF00090E2899F90011124C37081E090E002C0BB
:10200000880F991FCA95E2F79A6868C0C03C82E5BC
:10201000D80708F46DC0C03E92E5D90708F080C02B
:10202000CF71DD27DC2FCC27CE01806F906A7CC07A
:1020300081E090E079C0C55AD0E0C056DE4F88817B
:10204000C82FD0E0CE0190646FC0CE0190656CC007
:102050008D2F0E944511182FCE0199270E94A9109B
:102060001F715CC0CE0199270E94A910CC27DF7098
:10207000D06A8C2B9D2B58C0CF71D0E0DC2FCC27A1
:10208000CE01816F906A50C08C2F8F718695869596
:1020900090E2899F90011124C37081E090E002C01A
:1020A000880F991FCA95E2F79C6818C08C2F8F7112
:1020B0000E94451195E0D695C7959A95E1F7CF70A6
:1020C000D0E0DC2FCC27282F30E084FF05C084E04F
:1020D000220F331F8A95E1F7D069CE01822B932B13
:1020E00023C090E0D82FCC27CE01846F906A1CC00B
:1020F0008C2F8F710E9445118F7190E0D82FCC27C3
:10210000CE01906211C08D2F8F710E944511182F42
:10211000CE0199270E94A9101F719062912B04C0D3
:1021200080E090E001C0CE01DF91CF911F91089532
:10213000753038F4643028F4462F672F0E94060368
:10214000089580E090E008950E9498100E947B0F0F
:1021500008958238910569F1B0F48133910509F44D
:1021600075C048F48932910509F467C08A32910537
:1021700009F471C008958533910509F459C0893374
:102180009105B9F00895833E910589F138F4803EB8
:102190009105D1F0823E910529F10895863E910581
:1021A000C9F1873E9105D9F1843E910509F06CC0D3
:1021B00027C020911B0320FD57C021FD55C0209151
:1021C0001C0323FD5BC0089580911B0380FD48C064
:1021D00080911C0380FF48C080911B0384FD46C092
:1021E00083EE51C080911B0382FF3CC0F5CF8091EC
:1021F0001B0382FD37C080911C0380FD35C0ECCFEE
:1022000080911C0381FF36C080911B0384FD2EC08A
:1022100087EE39C080911B0383FF2AC0F5CF8091E0
:102220001B0383FD25C080911C0381FD23C0ECCFDF
:1022300080911B0385FD22C01FC080911B0385FD7B
:102240001BC080911C0383FF19C00AC080911B032F
:1022500086FD16C017C080911B0386FD13C010C0F9
:1022600089E311C082EE0FC080EE0DC080E00BC08C
:1022700086EE09C084EE07C085E305C089E203C08D
:102280008AE201C081E390E0089590911B0392FFE0
:1022900010C041E0282F2471243009F040E031E0E3
:1022A000282F2871283009F030E0431711F02CE076
:1022B000822793FF10C041E0282F2471243109F0B8
:1022C00040E031E0282F2871283109F030E0431731
:1022D00011F02CE0822730911C0330FF10C051E038
:1022E000282F2171213009F050E041E0282F28717A
:1022F000283009F040E0541711F029E0822731FF1F
:1023000010C041E0282F2171213109F040E031E077
:10231000282F2871283109F030E0431711F029E007
:10232000822794FD877E089580E00895CF939C01D5
:10233000205E32452032310540F4FB01C581C111D8
:1023400005C08F710E94770301C0C1E08C2FCF912F
:102350000895E82FF0E0EE5DFC4F80810895089528
:1023600080EA8A95F1F7089500C008950E94B0119F
:10237000089508950E94B91108950E94BA11089510
:102380000E94B91108950E94C0110895F894E82F91
:10239000E295EF70F0E031A1282F2F7081E090E0FE
:1023A00001C0880F2A95EAF7982F9095932391A35F
:1023B00092A1892B82A3789408950F931F93CF93B2
:1023C000DF93C7EAD1E089918F3F11F00E94C611D7
:1023D00081E0CC3AD807B9F7C3EAD1E007EA11E0C7
:1023E00089918F3F11F00E94C6110C171D07C1F78C
:1023F000DF91CF911F910F910895A0E0B0E0E3E04D
:10240000F2E10C949A2C8C01C62FD0E0CE018955B4
:102410009E4F7C01FC0190819F3F09F447C0D62E5E
:10242000F894E92FE295EF70F0E081A19F7021E030
:1024300030E001C0220F9A95EAF7822B81A382A196
:102440002095282322A378940E94B411E3EAF1E0B6
:1024500047EA51E031E0C12C21912F3F89F0A22FB2
:10246000A295AF70B0E090968C9190E02F7002C072
:10247000959587952A95E2F780FD02C0832F01C0CC
:1024800080E0C82A330F4E175F0731F7F7018081CC
:102490008F3F11F00E94C61161E0C11001C060E0E1
:1024A0008D2D0E94B611C00FD11FC882CDB7DEB7E7
:1024B000E8E00C94B62C0E94DD1185E0E2E2F3E046
:1024C000DF01982F1D929A95E9F7EDE1F3E0DF0126
:1024D0001D928A95E9F785E00E94AC120E94C31113
:1024E0000895A5E0B0E0E7E7F2E10C949D2C8E01A1
:1024F0000F5F1F4F85E0F80111928A95E9F7F12CE3
:102500006F2DC8010E94FD11F394F5E0FF12F8CF82
:1025100045E050E0B8018DE193E00E94672D21E095
:10252000009709F420E0892B41F085E0F801ADE146
:10253000B3E001900D928A95E1F745E062E273E025
:102540008DE193E00E94AD12182F0E94BD11812FE2
:102550002596E5E00C94B92C0895EF92FF920F9325
:102560001F93CF93DF937C018B01C42F222351F063
:1025700081E08093C6020E946B249093C5028093F1
:10258000C40204C08091C602811102C080E01AC05A
:102590008091C4029091C5020E9483240597B0F3F4
:1025A000D0E0AE01B701C8010E94672D892B39F038
:1025B000AE01B701C8010E94742D81E001C080E026
:1025C0001092C602CDB7DEB7E6E00C94B82C0E949C
:1025D0000C0F08950E9402240E9467260E94D20ECA
:1025E0000E9481260E94FD0E0E948E260E94932644
:1025F0000E94E7120E94AD260E942C250E94DB0E4D
:10260000F5CF909303028093020208950F931F93D6
:10261000CF93FB01C581CC2309F444C08C010E94F7
:10262000990C8272F801E052F847EB30F105D8F5C9
:10263000EE59FF4F0C94592C0E94EB1927C08823A8
:1026400029F00E94D91922C08823D9F30E94C91900
:102650001DC0882329F00E94181618C08823D9F3BA
:102660000E94091613C0882329F00E943A160EC052
:102670008823D9F30E94291609C0882329F00E94D3
:102680005C1604C08823D9F30E944B16C0E00BC02F
:10269000882329F00E94D814F9CF8823D9F30E9407
:1026A000B814F4CFC1E08C2FCF911F910F910895F2
:1026B000EF92FF920F931F93CF93DF938B01682FBD
:1026C00011110AC0442329F0E82FF0E0E654FD4F31
:1026D0006491762F862F75C0212F30E0E82FF0E02F
:1026E000442321F0E654FD4FE491F0E046E0049FDE
:1026F000C0011124CFEFD0E0BE010E940F2C4BEAA5
:102700004603C001479F900D1124800F911D800F3B
:10271000911D982F990F890FAE01421B530B4E9FAD
:10272000D0014F9FB00D5E9FB00D11249B2F189FBD
:10273000A0011124452F55278E01041B150B0E9F58
:10274000A0010F9F500D1E9F500D11247E01E81A0D
:10275000F108E29E8001E39E100DF29E100D1124FF
:10276000212F3327C21BD30BCE9F9001CF9F300D5B
:10277000DE9F300D112462307105A9F050F461150F
:10278000710571F061307105C1F47E2F8B2F952F8B
:1027900017C06430710569F048F06630710569F45E
:1027A0008B2F732F0CC07E2F832F0AC08E2F752F77
:1027B00007C08E2F7B2F932F03C0852F7B2F9E2F3B
:1027C000692FCDB7DEB7E6E00C94B82C41E00E944B
:1027D0005813089508950E94E613089590910B01EF
:1027E000291B922FE091D901F091DA01242F462F75
:1027F000682F892F90E009950895CF93DF93762F66
:10280000E901682F842F0E94EB13962F672F9E01FA
:10281000482F892F0E94EE13DF91CF910895413FF9
:1028200008F040EF0E94FD13089580912703282FA0
:102830002695269530E02115310519F483708460C2
:1028400005C02B32310524F08370886A80932703FA
:1028500080912A03813F18F080EF80932A03089526
:10286000A0E0B0E0E6E3F4E10C949A2C88E090E07C
:102870000E94852D6B017C0183E290E00E947D2DFA
:10288000282F30E040E050E060E070E080E090E031
:1028900000E20E94C72CB22FA32FF42FE52FD62FD2
:1028A000C72F97018601BC29A12BF22B5E2F532B3A
:1028B0002B2F3A2F4F2F6D2F7C2FCDB7DEB7E8E0AF
:1028C0000C94B62CA0E0B0E0E8E6F4E10C94962C71
:1028D00049015A016B017C010E9415148401A40175
:1028E0006A2D7B2D88E090E00E94B32D94014A2D43
:1028F0005B2DB601C70100E20E94E22C622F83E249
:1029000090E00E94A12DCDB7DEB7ECE00C94B22C84
:10291000E7E2F3E025E0208311828FEF828380EFEE
:1029200083831482758130E04FEF50EF60E0868141
:1029300097810E946214089590912B03933018F4AC
:102940009F5F90932B03882391F020912703309170
:1029500028034091290350912A0360912B03709121
:102960002C0380912D0390912E030E9462140895F0
:1029700081E00E949C14089590912B03992319F0F3
:10298000915090932B03882391F02091270330914D
:1029900028034091290350912A0360912B037091E1
:1029A0002C0380912D0390912E030E9462140895B0
:1029B00081E00E94BC1408950F931F93CF938091E0
:1029C000270380FF09C0E091DD01F091DE01099548
:1029D000CF911F910F910895C0910D010091D901E0
:1029E0001091DA0180910E01C81768F780910B01F0
:1029F0009C2F981B20E040E060E0892F90E0F801D8
:102A00000995CF5FEFCFEF92FF920F931F93CF9374
:102A1000DF939091270390FF1CC0042F162FD82F0F
:102A2000C0910D01E090D901F090DA0180910E0182
:102A3000C81768F480910B019C2F981B202F412F01
:102A40006D2F892F90E0F7010995CF5FEFCF0E949E
:102A5000DC14CDB7DEB7E6E00C94B82C90912703D8
:102A600090FF0EC0413F08F040EF762F682F842F73
:102A70000E94E613962F672F482F892F0E94031577
:102A80000895CF93DF93EC01EC81F0E0EB54FE4F1F
:102A90004491E7E2F3E0628181810E942E158C81EE
:102AA0008F5F8C83DF91CF910895CF93DF93EC01FB
:102AB000E7E2F3E0438162818C810E942E158C81D4
:102AC0008F5F8C83DF91CF910895CF93DF93EC01DB
:102AD00040912A039C8190FF02C0842F01C080E0B6
:102AE00091FF02C0642F01C060E092FF40E00E94AD
:102AF00003158C8190E00196877099278C83DF9174
:102B0000CF910895A0E0B0E0E8E8F5E10C949B2CAB
:102B1000182FF62ED42FE22E9091270390FF69C034
:102B2000E92FE695E695AE2FB0E0A455BE4F8C9107
:102B30008093EB029C7F943079F4842F413F08F01E
:102B400080EF612F7F2D0E94E613962F672F482F6D
:102B5000892F0E94031536C0823019F4D0912A03C0
:102B600031C0863019F4109128032CC08930D9F374
:102B7000893141F5E9518E2F8170D82EE695F0E02C
:102B8000EB54FD4FC49100E060910F010617C0F4B3
:102B90000C9FC001112470E00E940F2C812FD110D6
:102BA00002C0860F01C0861B90910D01202F30E0DE
:102BB000290F311D4D2F6F2D0E940F140F5FE4CF91
:102BC0000E94DC1410932803F0922903D0932A0367
:102BD000EE2079F02091270360912B0370912C0354
:102BE000312F4F2D5D2F80912D0390912E030E9448
:102BF0006214CDB7DEB7E7E00C94B72CE7E2F3E060
:102C00009181282F4381628188E0890F0E9482157B
:102C1000089581E00E94FE150895E7E2F3E09181B6
:102C2000282F4381628188EF890F0E9482150895C1
:102C300081E00E940D160895E7E2F3E0628128E04A
:102C4000620F08F46FEF282F438181810E94821563
:102C5000089581E00E941C160895E7E2F3E0628186
:102C600028E0621B08F460E0282F438181810E94E4
:102C70008215089581E00E942D160895E7E2F3E0A1
:102C8000438128E0420F08F44FEF282F62818181B1
:102C90000E948215089581E00E943E160895E7E2A1
:102CA000F3E0438128E0421B08F440E0282F6281D2
:102CB00081810E948215089581E00E944F16089537
:102CC00020E00E94821508959091270390FF12C082
:102CD000253080F4922F242F462F682F80910B01EE
:102CE000981BE091D901F091DA01892F90E00995C4
:102CF0000E94DC140895EF92FF921F93CF93DF930D
:102D0000EC0110E0EE24EA94F12C60910F0116170B
:102D1000B8F480910D01212F30E0280F311D70E0B3
:102D2000C7010E94232C962F8C8140912A03609129
:102D30002903199F800D11240E940F141F5FE5CFF6
:102D40000E94DC149A818C8190FF02C08F5F01C0C9
:102D500081508C83DF91CF911F91FF90EF90089568
:102D6000A0E0B0E0E6EBF6E10C94982CFC01828147
:102D700080FF02C0DFEF01C0D1E0C0E00091D901C7
:102D80001091DA0125E0A22E80910F01C81708F0FA
:102D900044C080910D0190910B01891B8C0F20E0A4
:102DA00040E060E090E0F801099594E0E92EF12C14
:102DB000B12CCC2ED12C8091C8028B0D86302CF0FA
:102DC0006A2D0E94012C892F05C087FF03C09091B6
:102DD0000F01890F082E000C990BC816D906B1F403
:102DE00080910D019601280F311D80912A038E9D3F
:102DF000A0018F9D500D11245595479555954795E8
:102E000060912903809128030E940F14BD0EF1E008
:102E1000EF1AF10881F6CF5FB7CF0E94DC148091E2
:102E2000C802D13031F4811102C080910F0181506C
:102E300007C090E0019660910F0170E00E94232C82
:102E40008093C802CDB7DEB7EAE00C94B42C0F93A0
:102E50001F93CF93DF93C0910D010091D901109181
:102E6000DA0180910E01C81768F480910B019C2F44
:102E7000981B20E040E060E0892F90E0F801099580
:102E8000CF5FEFCF10E0C091D901D091DA0160910E
:102E90000F01161778F5E12FF0E070E0CF010E94E6
:102EA000232C20910D01820F2091C702022E000CCD
:102EB000330BE217F3079CF020910A01022E000C5D
:102EC000330B2E173F075CF0282F30E040912A0388
:102ED00060912903809128030E940F1409C09091EA
:102EE0000B01891B20E040E060E090E0FE010995C5
:102EF0001F5FCDCF0E94DC14209109018091C70291
:102F0000820F8093C70290910A01920F90930A0159
:102F100019165CF4082E000C990B40910F0150E03B
:102F200041505109841795071CF021952093090100
:102F3000DF91CF911F910F910895A0E0B0E0E3EAF7
:102F4000F7E10C94962CEC014C81042F10E09801D1
:102F5000D8010E94672C9B01AC010E947D2C6B0163
:102F60007C01E0E2F0E0E01BF10BA5E5B0E09B01A5
:102F7000AC010E947D2C4B015C019F01DF010E948E
:102F80005F2C9B01AC010E94882C9B01AC012C0D95
:102F90003D1D4E1D5F1DC501B4010E94372C822FBF
:102FA000F22E99E2921728F093E0299F90011124C4
:102FB0000DC025E530E0281B3109C901880F991F94
:102FC000280F391F37FF02C02F5F3F4F35952795D8
:102FD000122F109500E085E5E82EEF1880910F0183
:102FE000081790F401FD02C08E2D01C08F2D909125
:102FF0000D01202F30E0290F311D412F6091290351
:103000000E940F140F5FEACF0E94DC148C818111A3
:1030100002C091E003C0803219F49FEF9093080141
:1030200090910801890F8C83CDB7DEB7ECE00C944A
:10303000B22C0F931F93CF93DF938C01C0E0D0E0AD
:1030400080910F01282F30E0C217D30734F5869501
:1030500090E0F801348120910D01C817D9073CF4A4
:10306000332371F0CE01820F911D9C0106C03111F6
:1030700007C0FE01E20FF11D9F0140912A0305C028
:10308000CE01820F911D9C0140E060912903809147
:1030900028030E940F142196D3CF0E94DC14F8015C
:1030A000848190E00196817099278483DF91CF918C
:1030B0001F910F9108952F923F925F926F927F928E
:1030C0008F929F92AF92BF92CF92DF92EF92FF9238
:1030D0000F931F93CF93DF93FC016280548081E0B4
:1030E0008483E5EBF1E07490E4E3F2E0E491C091D5
:1030F0002A03C695C158D0E0CC0FDD1F2D2E3324F6
:10310000812C25E0922EAA24AA94B12CE719EE2E48
:10311000F12C80910F01881608F091C0C82CD12C99
:1031200022E0261568F09C9CF0019D9CF00D112476
:10313000E753FD4F80912803808380912903818389
:1031400051100AC09C9CF0019D9CF00D1124E75386
:10315000FD4F1382128260C09C9C80019D9C100DCB
:103160001124E801C753DD4F8B818823F9F081508A
:103170008B832FEF829FC00111246C8170E00E942D
:103180000F2CFB01FF27EB54FE4F8491E82FE7192A
:103190002FEFE29FC0011124B7010E940F2C8091F4
:1031A0002A03689FB00111247A8336C00E944A2DF9
:1031B000B5010E94232C8215930574F582E08615D3
:1031C00088F40E944A2DB5010E94232C88830E9416
:1031D0004A2D209129032695622F70E00E94232C0E
:1031E000280F29839C9CF0019D9CF00D1124E7532E
:1031F000FD4F128280912A03843120F0893C18F01F
:1032000088EC01C084E19C9CF0019D9CF00D112490
:10321000E753FD4F8483838380910D019601280F2E
:10322000311D9C9CF0019D9CF00D1124E753FD4F36
:103230004281618180810E940F1483946ACF0E9431
:10324000DC14DF91CF911F910F91FF90EF90DF90F1
:10325000CF90BF90AF909F908F907F906F905F9036
:103260003F902F900895E7E2F3E020812E7F2083A6
:1032700031814281538164817581868197810E9469
:1032800062141092EC020E94DC140895E7E2F3E06D
:1032900080818E7F80831092EC020E94DC1408955E
:1032A0001092EC028091E90281110AC081E08093C2
:1032B000E9028091270381708093E8020E944619F9
:1032C0000895609127036695669570E04BE050E0A5
:1032D00080E191E00E945A2D892B19F481E08093BE
:1032E000EC020E946B249093E3028093E202089523
:1032F0009091270390FF3FC09370811102C09460AA
:1033000007C08B3210F0986A03C0880F880F982B83
:1033100090932703662391F020912703309128038F
:103320004091290350912A0360912B0370912C0343
:1033300080912D0390912E030E94621460912703C7
:103340006695669570E04BE050E080E191E00E9468
:103350005A2D892B19F01092EC0202C00E946119BB
:1033600081E08093E50240912A03609129038091D6
:1033700028030E9460160895682F90912703969560
:10338000969581E0890F8B3208F081E00E947819D0
:10339000089581E00E94BC190895682F9091270339
:1033A000969596958FEF890F09F48AE20E94781915
:1033B000089581E00E94CD19089561E00E94781976
:1033C0000895E7E2F3E080818160808386958695A9
:1033D0000E94DD1908958091270380FF03C00E9499
:1033E000331908950E94E119089560E00E94781948
:1033F00008958091EA0281113CC00E94301420930C
:103400002703309328034093290350932A036093A2
:103410002B0370932C0380932D0390932E032C7F0A
:10342000A1F40E9488140E94301420932703309343
:1034300028034093290350932A0360932B0370932E
:103440002C0380932D0390932E030E941514109249
:10345000EC02E091D701F091D80109958091270302
:1034600080FF04C0869586950E94F51981E08093BF
:10347000EA0208950E943014209327033093280312
:103480004093290350932A0360932B0370932C03DA
:1034900080932D0390932E030E941514809127038F
:1034A00080FF04C0869586950E94F5190895E7E28D
:1034B000F3E0808181608083869586950E94F5196E
:1034C00008951092E9028091E80281110E94571A32
:1034D0000E94611908950F931F93CF93DF938091FA
:1034E000EC02882309F492C08091EB02E09127035B
:1034F000E695E695E81BE093E402823049F4F0E0BB
:10350000EF54FE4FE491CE2FD0E001E415E159C015
:10351000863049F4F0E0E255FE4FE491CE2FD0E042
:1035200005E515E14EC0893051F4E695F0E0E5552A
:10353000FE4FE491CE2FD0E00BE716E142C08F3072
:1035400051F4E695F0E0E855FE4FE491CE2FD0E03F
:1035500000EB16E136C0853149F4F0E0EB55FE4F43
:10356000E491CE2FD0E007E217E12BC08831D9F0EB
:10357000833239F4E3EAF1E0C591D49105E615E12F
:1035800020C08432A9F08532C1F48E2F63E00E94FE
:10359000F52BE92FF0E0E056FE4FE491CE2FD0E07E
:1035A0000BE518E10EC0C8E2D0E00DE917E109C053
:1035B000C4EFD1E009E118E104C0C0EDD7E00AEEA4
:1035C00013E18091E502882361F01092E5020E94E8
:1035D0006B249093E3028093E2021092E702109230
:1035E000E6020E946B24E091E202F091E3028E1B5E
:1035F0009F0B8F3F9F4750F4EC0FFD1FF093E302AA
:10360000E093E20282EE92E0F8010995DF91CF911A
:103610001F910F91089508950E946B1A0895EFE28B
:10362000F3E081E2808311828BE1828389E08383EE
:1036300060E2CF010E9423250895EFE2F3E082E2E9
:10364000808381E08183128285E0838360E2CF0101
:103650000E9423250895EFE2F3E083E28083118244
:103660001282138260E2CF010E9423250895FF9207
:103670000F931F93CF93DF93EC01F9800A81802F82
:1036800090E08F0D911D069714F08DEF05C00A3064
:1036900010F410E009C08EEF8093300360E28FE2F7
:1036A00093E00E9423250CC02396101749F0212F88
:1036B0002F0D4A81698188810E9464161F5FF4CFB3
:1036C000CDB7DEB7E5E00C94B92CEFE2F3E087E28A
:1036D000808385E0818360E2CF010E9423250895E5
:1036E000EFE2F3E088E2808382E0818360E2CF0151
:1036F0000E9423250895DC01EC914E2F50E0FA0141
:10370000B197E830F105C0F4E359FF4F0C94592C00
:103710000E940F1B08950E941D1B08950E942B1BE1
:1037200008950E94371B08950E943A1A08950E9436
:10373000651B08950E94701B08950E94BA0E08959B
:1037400088E0EEEEF2E0DF011D928A95E9F70E9433
:10375000C01C0895FC01228130E02F5F3F4F237091
:103760003327438150E081E02417350709F080E0DA
:1037700008950F931F93CF93DF93EC01162F042F1F
:103780000E94AA1B811113C08A81FE01E80FF11D5E
:103790001F7764816078612B00FB67F964838F5F1A
:1037A00083708A8388818F5F888381E001C080E095
:1037B000DF91CF911F910F910895FC018381928138
:1037C0009817B1F0DF01A80FB11D14968C9187FBFB
:1037D000992790F98F77DB018C93DA019C93838191
:1037E0008F5F8370838381818F5F818381E0089500
:1037F00080E00895462F682F8EEE92E00E94B91B5C
:103800000895AB01BC018EEE92E00E94DD1B08958D
:10381000CF93DF93D62F0E94D602C82F882349F07A
:103820006AE070E0DD2311F089EA01C08AEA0E94B3
:103830008D058C2FDF91CF910895A2E0B0E0E3E2F7
:10384000FCE10C949F2C8091ED02882351F01092A2
:10385000ED028091F0028093F1028091EE0280935C
:10386000EF020E94031D0E949D1B10E0882379F047
:10387000BE016F5F7F4FCE0102960E94011C88231C
:1038800031F069818A810E94081C11E0F1CF812FFB
:103890002296E3E00C94BB2C8FE891E00197F1F7BE
:1038A00000C00000089590E0FC01662319F0E1518A
:1038B000FE4F02C0EF50FE4F80818F3FA1F0E82FF6
:1038C000E295EF70F0E031A1282F2F7081E090E0B9
:1038D00001C0880F2A95EAF7982F9095932391A31A
:1038E00092A1892B82A3089590E0FC01662319F030
:1038F000E151FE4F02C0EF50FE4F20812F3F71F08B
:10390000E22FE295EF70F0E080A190E02F7002C00E
:10391000959587952A95E2F78170089580E008953E
:103920000895CF93DF93C0E08091F602C81750F45A
:1039300060E08C2F0E94531C61E08C2F0E94531C6E
:10394000CF5FF2CF0E944C1CC0E08091F602C817F6
:1039500090F460E08C2F0E94741CD82F61E08C2FB3
:103960000E94741CEC2FF0E0E750FD4F880FD82B1D
:10397000D083CF5FEACF0E94901CDF91CF91089552
:1039800082E08093F6020E94911C08951F93CF93CA
:10399000DF93E42FEE0F6E2BC82FD0E0DE01A7508F
:1039A000BD4FEC912E2F237030E0462F50E02417AE
:1039B000350729F1182FEE0FEE0FE62BEC93EF7081
:1039C000F0E0E152FE4FC950DD4F90818881890FB0
:1039D0008883843024F060E0812F0E94FA1B888164
:1039E0008D3F24F461E0812F0E94FA1B8881082E0C
:1039F000000C990B64E070E00E94232C8883DF9117
:103A0000CF911F910895CF93DF93C0E08091F6028C
:103A1000C81780F461E08C2F0E94741CD82F60E0DE
:103A20008C2F0E94741C4D2F682F8C2F0E94C61C57
:103A3000CF5FECCFDF91CF910895879A0895FC0175
:103A4000EE0FFF1F8E0F9F1FFC01E15BFC4F618398
:103A5000408322830895EFE4F3E08183608342830F
:103A6000339693E0EE35F907C1F7089581B38F7768
:103A700091B390682FB7F894EFE4F3E033E0EE35BC
:103A8000F30789F0319148E091BB000000C037FF97
:103A900081BB330F000000C000C000C081BB00C06C
:103AA0004A9591F7EBCF2FBF8FE594E00197F1F79F
:103AB00000C0000008950E94BF0D089580E00E949C
:103AC000A911817008950E9471122FEF86E791E08D
:103AD000215080409040E1F700C000000E94711228
:103AE0000E945E1D882321F00E945B1D0E94B82465
:103AF00008950E94631D0895CF93DF9386319C47FC
:103B000009F5EB010E94990C9D81992371F08A7A45
:103B100091E009F490E09093FB02811102C089E2E8
:103B200001C085E30E94F62209C08091FB02811149
:103B300002C089E201C085E30E9410230E94400D6B
:103B400080E001C081E0DF91CF910895CF93DF93B2
:103B5000FC01DB0115968C91882309F4DDC09F01DF
:103B600030572332310508F0D8C0EF010E94E20D32
:103B700090931C0380931B03FE01E150F047E23257
:103B8000F10520F4EB58FF4F0C94592C80911B0346
:103B90008160AAC080911C038860B2C080911B0321
:103BA0008260A2C080911B0320C080911B038860AB
:103BB0009BC080911C031EC080911C038260A0C02A
:103BC00080911B03806190C080911B0380628CC038
:103BD00080911B03806488C00E94060880911B03AB
:103BE000806882C080911B03886084607DC0809162
:103BF0001C038260816084C080911B038E7F74C02F
:103C000080911C03877F7CC080911B038D7F6CC0DB
:103C100080911B0320C080911B03877F65C080912A
:103C20001C031EC080911C038D7F6AC080911B0302
:103C30008F7E5AC080911B038F7D56C080911B03DD
:103C40008F7B52C00E94060880911B038F774CC067
:103C500080911B03877F8B7F47C080911C038D7FE2
:103C60008E7F4EC080911B0382FB222720F991E0BA
:103C7000922790FB82F990FB83F936C080911C0358
:103C8000982F909591708E7F892B90FB81F938C089
:103C900080911B0386FB222720F991E0922790FB5D
:103CA00086F922C00E94060880911B0387FB222709
:103CB00020F991E0922790FB87F916C081E001C0BE
:103CC00080E00E94680E1EC080911B0384FB2227A7
:103CD00020F991E0922790FB84F906C080911B03A4
:103CE000982F909590FB80F980931B030BC08091D7
:103CF0001C0383FB222720F991E0922790FB83F994
:103D000080931C0380911B0390911C030E94E70D7C
:103D10000E94060880E001C081E0DF91CF91089504
:103D2000282F35EB2303C001112497FF03C08058CF
:103D3000910902C080589F4F892F089580910203F6
:103D400080FF06C06091200170E0660F771F26C0DB
:103D500081FF04C06091200184E005C082FF07C09C
:103D60006091200188E0689FB001112417C09091F4
:103D700001039923D1F060911F01961788F72091D4
:103D8000200188E0289F90011124929FA001939F19
:103D9000500D112470E0CA010E94232C6038710577
:103DA00040F46115710519F406C068E070E0862FD3
:103DB00008958FE7089581E008958091020380FFC0
:103DC00008C060911C0170E07595679575956795C1
:103DD00021C081FF06C060911C0170E07595679558
:103DE00019C082FF04C060911C0170E010C0909166
:103DF0000003992399F060911B019617A0F7809119
:103E00001C01899FC001112470E00E94232C60389E
:103E1000710540F46115710519F406C061E070E0A8
:103E2000862F08958FE7089581E008958D3C21F451
:103E30000E949E1E819504C08E3C29F40E949E1E05
:103E40008093060308958F3C21F40E949E1E819565
:103E500004C0803D29F40E949E1E809305030895AE
:103E6000893D19F40E94DD1E05C08A3D31F40E948F
:103E7000DD1E81958093070308958B3D21F40E94F8
:103E8000DD1E819504C08C3D29F40E94DD1E8093C7
:103E9000080308959FE2980F983078F421E030E00D
:103EA000A90102C0440F551F9A95E2F7CA019091EB
:103EB0000403892B8093040308958D3D21F48091A0
:103EC000020381600BC08E3D21F480910203826069
:103ED00005C08F3D29F48091020384608093020322
:103EE00008958D3C39F49091060397FF35C01092E8
:103EF000060359C08E3C29F4909106031916BCF3B1
:103F00002BC0909105038F3C29F497FF25C0109298
:103F1000050349C0803D19F41916CCF31DC09091DA
:103F20000703893D29F41916BCF4109207033BC01E
:103F30008A3D19F497FF10C0F8CF8B3D39F490916A
:103F4000080397FF09C0109208032DC08C3D21F48F
:103F5000909108031916BCF39FE2980F983080F4F3
:103F600021E030E0A90102C0440F551F9A95E2F705
:103F7000CA0180959091040389238093040313C0A0
:103F80008D3D21F4809102038E7F0BC08E3D21F484
:103F9000809102038D7F05C08F3D29F4809102033B
:103FA0008B7F8093020380910503811106C080916D
:103FB0000603811102C01092010380910703811151
:103FC00006C080910803811102C010920003089579
:103FD0000E946B2420910503211104C02091060347
:103FE000222321F09093FF028093FE022091070389
:103FF000211104C020910803222321F09093FD0297
:104000008093FC0283E093E00E94F1210895E3E0B5
:10401000F3E086E0DF011D928A95E9F71092010333
:1040200010920003109202030895FC018281811115
:104030000DC0838181110AC08481811107C091E084
:104040008581811101C090E0892F01C081E08170DC
:104050000895A6E0B0E0EFE2F0E20C949F2C86E039
:10406000E3E0F3E0DE01119601900D928A95E1F70D
:104070001092050310920603109207031092080392
:104080008B81811104C08C81882309F456C08091F2
:10409000FE029091FF020E948324AC0190910103E3
:1040A000992339F02091210130E02417350758F089
:1040B00044C0209122018AE0289F900111242417F6
:1040C000350718F03AC09F3F19F09F5F90930103A6
:1040D0001B81112361F00E949E1E111614F09FEFA8
:1040E00001C091E0989F902D1124909305031C81AD
:1040F000112361F00E949E1E111614F09FEF01C063
:1041000091E0989F902D11249093060380910503D0
:10411000882399F010910603112379F00E94901ED4
:10412000811101C081E080930503812F0E94901EC0
:10413000811101C081E0809306038D81811104C04B
:104140008E81882309F456C08091FC029091FD0273
:104150000E948324AC0190910003992339F02091AF
:104160001D0130E02417350758F044C020911E018E
:104170008AE0289F900111242417350718F03AC0CF
:104180009F3F19F09F5F909300031D81112361F001
:104190000E94DD1E111614F09FEF01C091E0989F60
:1041A000902D1124909307031E81112361F00E942A
:1041B000DD1E111614F09FEF01C091E0989F902D25
:1041C00011249093080380910703882399F010919C
:1041D0000803112379F00E94901E811101C081E033
:1041E00080930703812F0E94901E811101C081E0FE
:1041F00080930803BE016F5F7F4F83E093E00E94CE
:104200004423811105C083E093E00E9415208111B1
:104210000E94E81F86E0FE013196A3E0B3E0019022
:104220000D928A95E1F72696E3E00C94BB2C0F9350
:104230001F93CF93DF93C42FD22FFC018581882356
:10424000B1F040930B030E946B2490930A03809378
:10425000090380E28C0F883008F04DC0C77081E000
:1042600001C0880FCA95EAF70E94AF0544C080914B
:104270000B03481330C08091090390910A030E94F8
:104280008324883C910538F510E21D0FCD17B9F055
:1042900080E28C0F883040F4C77081E001C0880F45
:1042A000CA95EAF70E94B605183010F581E09D2FF7
:1042B000977001C0880F9A95EAF70E94AF05802F8A
:1042C0000E94A5051830B8F4D77081E001C0880FAE
:1042D000DA95EAF70AC080E28C0F883060F4C77084
:1042E00081E001C0880FCA95EAF70E94B60503C0B5
:1042F000802F0E94A505DF91CF911F910F91089506
:104300000F93FC01E851FC47E730F10590F5CB0134
:10431000E956FF4F0C94592C06E221EE41EE6AE17A
:104320007CE723C007E225EE45EE6BE17CE71DC08C
:1043300006E221EE40EE68E17CE717C007E225EED9
:1043400044EE69E17CE711C006E221EE42EE6CE149
:104350007CE70BC007E225EE46EE6DE17CE705C089
:1043600008E221E045EE6EE17CE70E94172180E043
:1043700008C0FB018581882319F010920B0301C04E
:1043800081E00F9108959093110380931003089595
:10439000E0911003F0911103309729F00190F08122
:1043A000E02D0995089580E008950E94C8210895A0
:1043B000E0911003F0911103309721F00280F38116
:1043C000E02D09950895E0911003F09111033097C5
:1043D00039F026E0DC012C930480F581E02D09956D
:1043E0000895E0911003F0911103309739F022E025
:1043F000DC012C930680F781E02D09950895A3E058
:10440000B0E0E5E0F2E20C94A02C20910E03309194
:104410000F0328173907A1F090930F0380930E0321
:10442000E0911003F0911103309751F023E02983BC
:104430009B838A830084F185E02DCE010196099546
:104440002396E2E00C94BC2CA3E0B0E0EAE2F2E2B6
:104450000C94A02C20910C0330910D0328173907E0
:10446000A1F090930D0380930C03E0911003F09161
:104470001103309751F024E029839B838A830084C1
:10448000F185E02DCE01019609952396E2E00C948A
:10449000BC2CCF93DF93C0910601D09107012296E7
:1044A0000E94BB23813059F480911B0387FF07C012
:1044B000C0910401D091050122969EE101C096E0D1
:1044C00080E0915028F029912223D9F38F5FF9CF12
:1044D000DF91CF910895CF93882329F1C82F0E94AF
:1044E000BB23813011F580911B0387FF1EC08C2FE9
:1044F0008695869586958E31B0F4E0910401F09111
:104500000501E80FF11D2281822F90E0C77021E0A4
:1045100030E002C0220F331FCA95E2F72823392367
:1045200081E0232B89F480E00FC0809106019091F7
:104530000701FC01329608962191C21721F0E81775
:10454000F907D1F7F0CF81E0CF9108959C01FC01EC
:1045500032969FEF80E04191461789F09F3F19F412
:10456000411101C0982F8F5F8630A9F79F3F39F026
:10457000F901E90FF11D97FDFA95628308950895F9
:104580009C012A5F3F4FFC014281461301C0128209
:10459000019682179307B9F70895262F2695269539
:1045A00026952E3168F4FC01E20FF11D677021E0C1
:1045B00030E001C0220F6A95EAF78281282B22831E
:1045C0000895262F2695269526952E3170F4FC0108
:1045D000E20FF11D677021E030E001C0220F6A9503
:1045E000EAF720958281282322830895CF93C82F4C
:1045F0000E94BB236C2F813059F480911B0387FFED
:1046000007C080910401909105010E94CD2206C04F
:1046100080910601909107010E94A622CF910895F2
:10462000CF93C82F0E94BB236C2F813059F4809107
:104630001B0387FF07C080910401909105010E9430
:10464000E12206C080910601909107010E94C022DC
:10465000CF9108950E94BB23813059F480911B03B0
:1046600087FF07C0E0910401F091050132968EE1C9
:1046700006C0E0910601F0910701329686E0DF0165
:104680001D928A95E9F70895DC01FB0111969C9132
:1046900011978181981321C012968C9112978823CB
:1046A00019F09281891319C013968C91139788235E
:1046B00019F09381891311C015968C911597882351
:1046C00019F09581891309C014969C91992339F0AA
:1046D00081E02481291304C002C081E001C080E090
:1046E0008170089508950E947223089583E0809355
:1046F0002601609123017091240180912501909100
:1047000026010E9473230895811102C081E001C037
:1047100082E08093260160912301709124018091B1
:104720002501909126010E94732308950E948423FD
:10473000089581E080932601609123017091240106
:1047400080912501909126010E94732308950E9473
:104750009923089591E0811101C090E09093250183
:10476000609123017091240180912501909126018F
:104770000E94732308958091250108958093240158
:10478000609123017091240180912501909126016F
:104790000E9473230895809124010895809323013A
:1047A000609123017091240180912501909126014F
:1047B0000E947323089580912301089508950E9413
:1047C000DE2308950E94DF2308950E94DE230895CA
:1047D0000E94DE2308950E94DE230895CF930E9455
:1047E000E8230E9471120E94E523C0E08C2F0E94F2
:1047F000A911811104C0CF5FC530C1F701C081E0AC
:10480000CF91089585B7806885BF85B7806885BFDB
:1048100008951F920F920FB60F9211248F939F93BA
:10482000AF93BF9380911203811113C080915E03F7
:1048300090915F03A0916003B09161034196A11D27
:10484000B11D80935E0390935F03A0936003B093C8
:104850006103BF91AF919F918F910F900FBE0F9009
:104860001F90189580916603843031F10E941204E4
:104870001092120320E488E190E00FB6F894A89516
:10488000809360000FBE2093600083B7817F8460B7
:1048900083BF83B7816083BF7894889583B78E7F09
:1048A00083BF0FB6F894A8958091600088618093CB
:1048B0006000109260000FBE08950E9406080E94DA
:1048C0001904089582E084BD93E095BD9AEF97BDE9
:1048D00080936E0008952FB7F89480915E039091B5
:1048E0005F03A0916003B09161032FBF08952FB7BC
:1048F000F89460915E0370915F03809160039091E2
:1049000061032FBF08959C014FB7F89480915E0317
:1049100090915F03A0916003B09161034FBF821B30
:10492000930B089578941F920F920FB60F92112453
:104930008F939F93AF93BF9380915E0390915F039A
:10494000A0916003B09161030196A11DB11D8093F8
:104950005E0390935F03A0936003B0936103BF91E4
:10496000AF919F918F910F900FBE0F901F90189550
:1049700087E797E790930108809300089AE088E121
:104980000FB6F894A895809360000FBE90936000D6
:10499000FFCF9AE088E10FB6F894A8958093600065
:1049A0000FBE90936000FFCF9B01909166039430FF
:1049B000F1F48F708093E9008FEF9091E8008150BF
:1049C00095FD06C095ED9A95F1F700008111F5CFA0
:1049D0008091E80085FF0BC0BA01C90140E050E0BA
:1049E0000E9422278091E8008E778093E800089546
:1049F00043E050E0BC0184E00E94D424089546E0E6
:104A000050E0BC0184E00E94D424089540E250E0CC
:104A1000BC0184E00E94D4240895CF93DF93EC017D
:104A20000E94BB2348E050E0BE0181E00E94D424F4
:104A300088E0FE01A3E1B3E001900D928A95E1F7D1
:104A4000DF91CF910895603231F4BC0140E250E033
:104A500082E00E94D4240895A0E2B0E0E2E3F5E20F
:104A60000C94A02C80916603843011F583E0809330
:104A7000E9008091E80082FF1BC08091E80085FF7B
:104A80000AC040E050E060E270E0CE0101960E9472
:104A9000672791E001C090E08091E8008B778093D8
:104AA000E800992329F060E2CE0101960E947B1B69
:104AB000A096E2E00C94BC2C80916503811109C0A2
:104AC0000E94F2280E944F298091E2008460809326
:104AD000E20008951092650308950E94A72381E0E3
:104AE0000E94AA2308956091620381E0611101C0D0
:104AF00080E00E94762308959091660381E09430CF
:104B000009F080E0609162030E948423089542E0EE
:104B100061EC81E00E946B2842E261EC84E00E943B
:104B20006B2842E261EC82E00E946B2842E260EC7A
:104B300083E00E946B289091660381E0943009F035
:104B400080E0609162030E9496230895809168033B
:104B5000833009F463C030F4813071F0823009F49D
:104B60009DC008958A3009F489C08B3009F46EC065
:104B7000893009F0ABC020C080916703813A09F009
:104B8000A5C08091E800877F8093E80080916B0347
:104B900090916C03892B21F468E083E193E003C0DA
:104BA00060E080E090E070E00E94AC278091E80037
:104BB0008B778093E800089580916703813209F034
:104BC00085C080916B0390916C03009719F0029758
:104BD00009F07CC08091E800877F8093E800809195
:104BE000E80082FD05C0809166038111F8CF6EC098
:104BF0002091F3008091F20090E0922B029731F423
:104C00008091F100813011F0863021F48091F10023
:104C10000E94BE238091E8008B7754C08091670387
:104C2000813A09F053C080916B0390916C03892BFA
:104C300009F04CC08091E800877F8093E800809164
:104C4000E80080FFFCCF0E94BB2337C08091670340
:104C50008132E1F580916B0390916C03892BB1F562
:104C60008091E800877F8093E8000E94A0288091CF
:104C700069030E94AA230E94060808958091670391
:104C8000813221F58091E800877F8093E8000E94BF
:104C9000A02880916A030E94CE2308958091670323
:104CA000813AA1F48091E800877F8093E8008091A9
:104CB000E80080FFFCCF0E94DB238093F10080910D
:104CC000E8008E778093E8000E94A028089584B7BA
:104CD000877F84BF0FB6F894A895809160008861A3
:104CE00080936000109260000FBE90E080E80FB6E5
:104CF000F89480936100909361000FBE0E94992305
:104D000008950E94F2280E944F29E2EEF0E080818F
:104D10008460808378940E94DA2B089587E291E082
:104D20000E94C3210895809166038530A9F4809183
:104D30006603853079F40E9432240E94EE23882392
:104D4000B1F380916403882391F30E940C270E94A1
:104D50000608EDCF0E945D24089508959A014091C0
:104D60006D0350916E030E94B6260895492F552772
:104D700043305105C9F060F44130510581F04230B3
:104D8000510509F041C08BE590E044EE53E040C08E
:104D900041325105E1F04232510531F135C082E135
:104DA00090E04FE354E034C099278130910549F0F9
:104DB00028F0029749F5EAEBF3E005C0E0EEF3E0F6
:104DC00002C0ECECF3E0849190E0AF0121C06330CD
:104DD0007105D0F4660F771FFB01E450FE4F408150
:104DE000518189E090E014C06330710568F4FB01E3
:104DF000EE0FFF1FEA50FE4F40815181FB01ED5045
:104E0000FE4F808190E004C080E090E040E050E000
:104E1000F90151834083089580E189BD82E189BD14
:104E200009B400FEFDCF8091D8008F7D8093D8001B
:104E30008091E00082608093E0008091E00081FD3D
:104E4000FCCF0895A0E0B0E0E8E2F7E20C949A2CE1
:104E5000EC018B017A010E94BF28811133C0E1145B
:104E6000F10439F0F70180819181081B190BC80FFB
:104E7000D91FC12CD12C0115110519F18091E80021
:104E800085FD16C08091E8008E778093E800E114DC
:104E9000F10449F0F70180819181C80ED91ED182B9
:104EA000C08285E00FC00E94BF28882321F30AC07A
:104EB00089918093F10001501109FFEFCF1ADF0AA9
:104EC000DACF80E0CDB7DEB7E8E00C94B62CA0E0F6
:104ED000B0E0EDE6F7E20C949A2CEC018B017A013C
:104EE0000E94BF28811133C0E114F10439F0F701A9
:104EF00080819181081B190BC80FD91FC12CD12C9F
:104F00000115110519F18091E80085FD16C0809109
:104F1000E8008B778093E800E114F10449F0F70191
:104F200080819181C80ED91ED182C08285E00FC0D8
:104F30000E94BF28882321F30AC08091F100899341
:104F400001501109FFEFCF1ADF0ADACF80E0CDB7A9
:104F5000DEB7E8E00C94B62C20916D0330916E031F
:104F60002617370748F06115710539F42091E800DC
:104F70002E772093E80001C0B901FC0120E0611503
:104F8000710579F1809166038823F1F18530F1F1A3
:104F90008091E80083FD3CC08091E80082FD2EC036
:104FA0008091E80080FFEBCF2091F3008091F20028
:104FB00090E0922B6115710551F08830910538F41D
:104FC00021912093F100615071090196F3CF21E006
:104FD000089709F020E08091E8008E778093E80040
:104FE000CECF2111CFCF0AC080916603882361F014
:104FF000853061F08091E80083FD0AC08091E8006F
:1050000082FFF2CF80E0089582E0089583E0089562
:1050100081E0089520916D0330916E0326173707C4
:1050200048F06115710539F42091E8002E7720933E
:10503000E80001C0B901FC0120E06115710591F1A2
:1050400080916603882309F440C0853009F43FC08D
:105050008091E80083FD3DC08091E80082FD2FC073
:105060008091E80080FFE9CF2091F3008091F20069
:1050700090E0922B6115710559F08830910540F44C
:1050800024912093F1003196615071090196F2CF7D
:1050900021E0089709F020E08091E8008E77809366
:1050A000E800CBCF2111CCCF0AC0809166038823C2
:1050B00061F0853061F08091E80083FD0AC0809145
:1050C000E80082FFF2CF80E0089582E0089583E057
:1050D000089581E00895982F973068F59093E9003E
:1050E000981739F07091EC002091ED005091F0008C
:1050F00003C0242F762F50E021FD02C09F5FECCF2C
:105100003091EB003E7F3093EB003091ED003D7F1E
:105110003093ED003091EB0031603093EB007093F1
:10512000EC002093ED005093F0002091EE0027FD5D
:10513000E5CF80E008958F708093E90081E00895C5
:105140008091670387FF11C08091E80082FD05C050
:10515000809166038111F8CF11C08091E8008B77B0
:105160000BC080916603882349F08091E80080FF9E
:10517000F8CF8091E8008E778093E8000895209121
:10518000E4003091E50095E64091EC00842F8170B9
:1051900040FF23C08091E80080FD1DC08091660320
:1051A000882399F0853099F08091EB0085FD11C03E
:1051B0004091E4005091E5002417350729F3915000
:1051C00011F09A01E1CF84E0089582E0089583E030
:1051D000089581E0089580E008954091E80042FF3D
:1051E000DDCF08950E9461290E946929E0EEF0E078
:1051F000808181608083E8EDF0E080818F7780831B
:1052000019BCA7EDB0E08C918E7F8C9380818F7E4E
:1052100080831092650308950F931F93CF93DF93BC
:105220000E9461290E946929C8EDD0E088818F77AA
:10523000888388818068888388818F7D888319BC72
:10524000109266031092620310926403109263033B
:1052500000EE10E0F80180818B7F8083888181607F
:10526000888342E060E080E00E946B28E1EEF0E09D
:1052700080818E7F8083E2EEF0E080818160808398
:10528000808188608083F80180818E7F808388811F
:1052900080618883DF91CF911F910F910895E8ED90
:1052A000F0E080818F7E8083E7EDF0E08081816097
:1052B000808384E082BF81E0809365030E940C2993
:1052C0000895E8EDF0E080818E7F80831092E20007
:1052D00008951092DA001092E10008951F920F9243
:1052E0000FB60F9211242F933F934F935F936F93B9
:1052F0007F938F939F93AF93BF93EF93FF9380918F
:10530000E10082FF0BC08091E20082FF07C0809124
:10531000E1008B7F8093E1000E94D92B8091DA001D
:1053200080FF1FC08091D80080FF1BC08091DA00F1
:105330008E7F8093DA008091D90080FF0DC080E1DC
:1053400089BD82E189BD09B400FEFDCF81E0809373
:1053500066030E945C2505C019BC109266030E947A
:105360006A258091E10080FF19C08091E20080FFF2
:1053700015C08091E2008E7F8093E2008091E20070
:1053800080618093E2008091D80080628093D80091
:1053900019BC85E0809366030E9473258091E1002B
:1053A00084FF30C08091E20084FF2CC080E189BD81
:1053B00082E189BD09B400FEFDCF8091D8008F7DC8
:1053C0008093D8008091E1008F7E8093E1008091EE
:1053D000E2008F7E8093E2008091E2008160809302
:1053E000E20080916203882311F084E007C080917D
:1053F000E30087FD02C081E001C083E08093660383
:105400000E947C258091E10083FF29C08091E20009
:1054100083FF25C08091E100877F8093E10082E0D7
:1054200080936603109262038091E1008E7F8093E7
:10543000E1008091E2008E7F8093E2008091E200A3
:1054400080618093E20042E060E080E00E946B288F
:105450008091F00088608093F0000E946D25FF919C
:10546000EF91BF91AF919F918F917F916F915F91DC
:105470004F913F912F910F900FBE0F901F90189555
:105480001F920F920FB60F9211242F933F934F93B9
:105490005F936F937F938F939F93AF93BF93CF93BC
:1054A000DF93EF93FF93C091E900CF708091EC0000
:1054B000D82FD17080FDD0E81092E9008091F000E3
:1054C000877F8093F00078940E94842A1092E900EC
:1054D0008091F00088608093F000CD2BCF70C09356
:1054E000E900FF91EF91DF91CF91BF91AF919F9133
:1054F0008F917F916F915F914F913F912F910F907D
:105500000FBE0F901F901895AAE2B0E0EAE8FAE209
:105510000C949F2CE7E6F3E08091F100819323E067
:10552000EF36F207C9F70E94A6258091E80083FFB5
:105530002EC18091670390916803492F50E04A3053
:10554000510508F024C1FA01E256FF4F0C94592C82
:10555000803821F0823809F01AC108C080916303B5
:1055600090916403992389F082600FC080916B034E
:105570008F70873008F00BC18093E9008091EB00B9
:1055800085FB882780F91092E9009091E800977FC9
:105590009093E8008093F1001092F100D1C0282F81
:1055A0002D7F09F0F4C0882319F0823061F0EFC03C
:1055B00080916903813009F0EAC0933009F080E0FE
:1055C000809364032EC08091690381112AC0809169
:1055D0006B038F702FEF280F263008F0D8C0809310
:1055E000E9002091EB0020FF1CC0933021F4809152
:1055F000EB00806214C09091EB0090619093EB00FF
:1056000021E030E0A90102C0440F551F8A95E2F75E
:105610004093EA001092EA008091EB00886080934A
:10562000EB001092E9008091E800877F8093E8000A
:105630000E94A028ACC08111AAC0109169031F77F5
:105640008091E3008078812B8093E3008091E800D3
:10565000877F8093E8000E94A0288091E80080FF67
:10566000FCCF8091E30080688093E300111102C0B9
:1056700082E001C083E08093660389C08058823055
:1056800008F085C08091690390916A038C3D53E0D6
:10569000950779F583E08A838AE289834FB7F89486
:1056A000DE01139620E03EE051E2E32FF0E050935C
:1056B0005700E49120FF03C0E295EF703F5FEF7069
:1056C0008E2F90E0EA3010F0C79601C0C0968D93FF
:1056D0009D932F5F243149F74FBF8091E800877F6A
:1056E0008093E8006AE270E0CE0101960E94AC2748
:1056F00016C060916B0370916C03AE014F5F5F4FFA
:105700000E94AE26BC01892B09F441C09091E800AB
:10571000977F9093E80089819A810E940A2880915E
:10572000E8008B778093E80032C0803881F5809163
:10573000E800877F8093E800809162038093F10006
:105740008091E8008E7772CF811121C0809169032A
:1057500090916A0399270297D4F48091E800877F9B
:105760008093E80080916903809362030E94A028DF
:1057700080916203811106C08091E30087FD02C021
:1057800081E001C084E0809366030E9487258091B8
:10579000E80083FF0AC08091E800877F8093E800DB
:1057A0008091EB0080628093EB00AA96E3E00C947A
:1057B000BB2C0895CF93809166038823A1F0C091FC
:1057C000E900CF709091EC00892F817090FD80E806
:1057D000C82B1092E9008091E80083FD0E94842A82
:1057E000CF70C093E900CF910895991B79E004C070
:1057F000991F961708F0961B881F7A95C9F7809510
:10580000089587FB082E062687FD819567FD619523
:105810000E94F52B0EF4919507FC81950895AA1B23
:10582000BB1B51E107C0AA1FBB1FA617B70710F08B
:10583000A61BB70B881F991F5A95A9F780959095BD
:10584000BC01CD01089597FB072E16F4009407D0F4
:1058500077FD09D00E940F2C07FC05D03EF49095EF
:1058600081959F4F0895709561957F4F0895A1E2AE
:105870001A2EAA1BBB1BFD010DC0AA1FBB1FEE1FCA
:10588000FF1FA217B307E407F50720F0A21BB30B15
:10589000E40BF50B661F771F881F991F1A9469F791
:1058A00060957095809590959B01AC01BD01CF01ED
:1058B0000895EE0FFF1F0590F491E02D09940E94CA
:1058C000672C332312F48A1B9B0B0C94782CA29F19
:1058D000B001B39FC001A39F700D811D1124911DC4
:1058E000B29F700D811D1124911D08950E94672C97
:1058F000B7FF0895821B930B08950E94672CA59F04
:10590000900DB49F900DA49F800D911D11240895BA
:10591000B7FF0C947D2C0E947D2C821B930B089565
:105920002F923F924F925F926F927F928F929F92AF
:10593000AF92BF92CF92DF92EF92FF920F931F939D
:10594000CF93DF93CDB7DEB7CA1BDB0B0FB6F8944E
:10595000DEBF0FBECDBF09942A88398848885F848E
:105960006E847D848C849B84AA84B984C884DF80FF
:10597000EE80FD800C811B81AA81B981CE0FD11DE3
:105980000FB6F894DEBF0FBECDBFED0108950F93A3
:10599000083090F0982F872F762F652F542F432FA4
:1059A000322F22270850F4CF220F331F441F551FD8
:1059B000661F771F881F991F0A95B2F70F910895E8
:1059C00097FB10F8169400080F93083098F00850D1
:1059D000232F342F452F562F672F782F892F902D67
:1059E000F4CF059497958795779567955795479543
:1059F000379527950A95AAF70F9108958F929F9250
:105A0000AF92BF92CF92DF92EF92FF92CF93DF934C
:105A1000EC01688179818A819B816115710581051D
:105A2000910521F464E279ED8BE597E02DE133EF08
:105A300041E050E00E94D52D49015A019B01AC0183
:105A4000A7EAB1E40E947D2C6B017C01ACEEB4EFBF
:105A5000A50194010E948B2CDC01CB018C0D9D1DB6
:105A6000AE1DBF1DB7FF03C00197A109B0488883D1
:105A70009983AA83BB839F77DF91CF91FF90EF90AB
:105A8000DF90CF90BF90AF909F908F9008950E942D
:105A9000FE2C089580E091E00E94FE2C0895A0E085
:105AA000B0E08093000190930101A0930201B093B4
:105AB00003010895FC014150504030F0019006165A
:105AC000D1F73197CF010895882799270895FB01D1
:105AD000DC0104C08D910190801921F441505040A7
