:100000000C9472030C9418280C948F030C948F0397
:100010000C948F030C948F030C948F030C948F0318
:100020000C948F030C948F030C94CA2D0C949C2E6B
:100030000C9498260C948F030C948F030C948F03CC
:100040000C948F030C948F030C948F030C948F03E8
:100050000C948F030C943D270C948F030C948F0306
:100060000C948F030C948F030C948F030C948F03C8
:100070000C948F030C948F030C948F030C948F03B8
:100080000C948F030C948F030C948F030C948F03A8
:100090000C948F030C948F030C948F030C948F0398
:1000A0000C948F030C948F030C948F03D706D70600
:1000B0000307030764078207710871088707FD07B4
:1000C0000E080E084B1E4E1E531E5A1E5F1E641E47
:1000D000691E6E1E731E781E7D1E821E841E871E64
:1000E0008A1E8D1E901E931E951E981E9C1E181F04
:1000F0001B1F1E1F211F2C1F241F271F2A1F5E21AD
:10010000D0216621302134216A2137216D217821C7
:100110004221C62146217C214A218021AA214E214B
:100120008421B42154218A2194213B2171213E2133
:10013000742159218F21A021C021C2212C216221AB
:10014000D9211025162504250A251C252225282518
:10015000042F2B2F23302B2F2330772F9A2F233050
:10016000F12F0030290014001A00080015001700B4
:100170002D002B0004001600070009000A002F00C4
:10018000E1001D001B000600190005002C00E00026
:10019000E300E200437E417E2C0000002A001300B1
:1001A00012000C0018001C002E00340033000F0059
:1001B0000E000D000B00300028003800370036001C
:1001C000100011002C004F00510052005000427EE0
:1001D0002C00000035021E021F0220022102220212
:1001E0004A0001003A003B003C003D003E004D004B
:1001F0000100400041004200430044002A00010089
:1002000001000100010001002A0000004C0027024B
:1002100026022502240223024B00310030022F0265
:100220002E022D023F004E0031020100A800010005
:10023000010045002A00AE00A900AA00AB000100A1
:100240002A00000029001E001F00200021002200BB
:10025000010001002100220023002E020100010004
:1002600028002400250026002D00010001000100C7
:1002700036002700370001002A0000004C0027004C
:1002800026002500240023000100010030002F007B
:100290002E002D000100010031000100A8006400C3
:1002A000320001000100AE00A900AA00AB0001006D
:1002B0002A000000290301000100010001000100E3
:1002C0000100010001000100010001000100010026
:1002D0000100010001000100010001000100010016
:1002E0000100010001000100010000004C0523781D
:1002F0002578277821780100010020782478267855
:100300002878227801000100057801000100010031
:10031000010001000100007C01000100010001005A
:10032000010000001E0F0500047F3F1F64321464AB
:100330003214783C1E1E140A052223252628292A59
:100340002C2D2F3032333536383A3B3D3E40424338
:100350004547494A4C4E5051535557595A5C5E6077
:1003600062646668696B6D6F71737577797B7D7F89
:1003700081838587898A8C8E90929496989A9C9E88
:100380009FA1A3A5A7A8AAACAEAFB1B3B4B6B8B9A4
:10039000BBBCBEBFC1C2C3C5C6C7C9CACBCCCDCE0C
:1003A000D0D1D2D2D3D4D5D6D7D7D8D9D9DADADBEF
:1003B000DBDBDCDCDCDCDCDDDDDDDDDCDCDCDCDC7B
:1003C000DBDBDBDADAD9D9D8D7D7D6D5D4D3D2D2BA
:1003D000D1D0CECDCCCBCAC9C7C6C5C3C2C1BFBEA2
:1003E000BCBBB9B8B6B4B3B1AFAEACAAA8A7A5A30D
:1003F000A19F9E9C9A98969492908E8C8A898785CC
:1004000083817F7D7B79777573716F6D6B696866AA
:100410006462605E5C5A5957555351504E4C4A497C
:1004200047454342403E3D3B3A3836353332302F24
:100430002D2C2A292826252322FFAA7F554000019A
:100440000101010101010101020202020202020294
:100450000203030303030303030404040404040466
:10046000050505050506060606060707070707082A
:10047000080808090909090A0A0A0B0B0B0C0C0CDD
:100480000D0D0D0E0E0E0F0F0F1010111111121277
:1004900013131414151516161717181819191A1AF4
:1004A0001B1B1C1D1D1E1E1F202021222223242455
:1004B000252626272829292A2B2C2D2D2E2F303191
:1004C0003232333435363738393A3B3C3D3E3F40A3
:1004D0004142434445464748494A4C4D4E4F50518E
:1004E0005354555658595A5B5D5E5F616264656648
:1004F00068696B6C6D6F7072737577787A7B7D7ECF
:100500008082838587888A8C8E8F91939596989A1E
:100510009C9EA0A2A3A5A7A9ABADAFB1B3B5B7BA36
:10052000BCBEC0C2C4C6C9CBCDCFD1D4D6D8DBDD0A
:10053000DFE2E4E7E9EBEEF0F3F5F8FAFDFF28037C
:100540004500720067006F00540072006100760081
:1005500065006C0020004B006500790062006F00B0
:10056000610072006400000028034A00500043004C
:100570006F006E007300740061006E00740069000B
:100580006E006500610075002E0063006F006D0055
:1005900000000403090409025B00030100A0FA093A
:1005A000040000010301010009211101000122449E
:1005B000000705810308000109040100020300008F
:1005C00000092111010001222200070582032000F9
:1005D00001070503032000010904020001030000D4
:1005E00000092111010001227B000705840320007E
:1005F000011201000200000008504A5445000101A8
:100600000200010660FF0961A1010962150026FFD1
:10061000009520750881020963150026FF009520CA
:1006200075089102C005010902A10185020901A115
:100630000005091901290815002501950875018192
:10064000020501093009311581257F950275088160
:100650000609381581257F950175088106050C0A64
:1006600038021581257F950175088106C0C00501F6
:100670000980A101850319012AB700150126B700D9
:10068000950175108100C0050C0901A101850419AF
:10069000012AA002150126A002950175108100C053
:1006A00005010906A101050719E029E71500250143
:1006B00095087501810295017508810105071900EA
:1006C00029FF150026FF0095067508810005081909
:1006D0000129051500250195057501910295017502
:1006E000039101C011241FBECFEFDAE0DEBFCDBF02
:1006F00011E0A0E0B1E0E8ECF4E602C005900D9254
:10070000AE3FB107D9F723E0AEEFB1E001C01D92D3
:10071000A63AB207E1F70E9478160C9462320C9464
:100720000000CF93FB0181342EE79207A1F020F463
:1007300080349E4749F031C082342EE7920771F031
:1007400083349E47F9F029C0C581CC2339F180E07C
:100750000E9451041DC0C58181E002C0C58182E0B4
:10076000CC2341F00E946B0943E062E081E00E94EB
:10077000B40A0EC00E947B0943E062E081E00E945F
:10078000B40A0CC0C58183E0CC2321F00E946B0920
:10079000C0E004C00E947B0901C0C1E08C2FCF9152
:1007A00008958430B0F46830A0F4473090F498E3B2
:1007B000899FF001112487E0689FE00DF11D11244D
:1007C000E40FF11DEE0FFF1FEC59FE4F8591949140
:1007D000089581E090E008950E94D103089581E09A
:1007E000089581E008950E94F10308950E94F303A3
:1007F00008950E949103089508950E94FC030895AE
:10080000A6E0B0E0E6E0F4E00C940D3149835A83B1
:100810009E833091050289819A81311115C03E81F4
:10082000332359F0222349F00E942F0A182F682FF2
:1008300089819A810E940B0A03C00E941D0A182F09
:1008400069817A81812F04C00E942F0A69817A818F
:100850000E9450112696E3E00C942931FC01262FCA
:100860004081518162817381848195810E9400045D
:100870000895CF93DF93EC0161E00E942E04BE0146
:100880000E94F603DF91CF910895CF93DF93EC019F
:1008900060E00E942E04BE010E94FD03DF91CF9113
:1008A0000895CF93DF93C1E0D0E002C0CC0FDD1FED
:1008B0008A95E2F78C2F0E94B80ECE010E94320971
:1008C000DF91CF91089581E008950E946304089517
:1008D000CF93C82F0E94E2088C2F0E9465042FEF4F
:1008E00084E39CE0215080409040E1F700C000008C
:1008F000CF91089581E00E9468040E9463270895C3
:1009000080E00E9468040E94742708950F931F934B
:10091000CF93DF938C0161E00E942E04EC01F8017B
:10092000858181110E94151EB801CE010E94F90334
:10093000882309F449C0B801CE010E94F824882315
:1009400009F442C0B801CE010E9408218823E1F1D8
:10095000B801CE010E94DE208823B1F1B801CE019A
:100960000E94351E882381F1F8018581882341F199
:10097000C330FCE7DF07D1F040F4C115ECE7DE0738
:1009800091F0C130DC47A1F01BC0CB358CE7D80714
:10099000A9F0CC35ECE7DE0771F0CA35DC4781F40D
:1009A0000E94940E0DC00E947A040EC00E949C0EFC
:1009B0000E94800409C00E948A0E02C00E94980E04
:1009C000C8010E94EF0301C080E0DF91CF911F9129
:1009D0000F9108950E9471260E94110508950E94AA
:1009E00015050E947A260895089581E008950895D6
:1009F000CF93DF93D82F0E94F504C82F882319F0D6
:100A00008D2F0E94F7048C2FDF91CF9108950895C8
:100A1000CF93C82F0E94F4048C2F0E94F804CF912A
:100A2000089580E00E94080508950E9440250E94D4
:100A300008050895CF930E944025C82F8091000299
:100A4000C81779F0C09300020E9406276093010244
:100A50007093020280930302909304028C2F0E94F1
:100A60000805CF910895ADE0B0E0E9E3F5E00C941E
:100A70000E31488759876A877B878C879D879111BC
:100A80000E94C60DCE01019627E0FC0111922A9525
:100A9000E9F726E0FE013896DC0101900D922A95D7
:100AA000E1F72D8121110AC029813A814B815C81B6
:100AB0006D817E818F810E94100D04C00E943904D7
:100AC0008111F2CF2D96E2E00C942A31FC012481B1
:100AD000213021F4808191810E94610A089566236A
:100AE00019F00E94782202C00E94E9220E9460232D
:100AF0000895CF93882309F48DC0C82F8238A1F4BC
:100B00000E94542581FD86C089E30E9404260E942C
:100B1000280E2FEF87EE93E0215080409040E1F7C0
:100B200000C0000089E315C08338C1F40E94542539
:100B300080FD70C083E50E9404260E94280E2FEFDE
:100B400081EE94E0215080409040E1F700C0000029
:100B500083E50E940C260E94280E5CC08438A1F414
:100B60000E94542582FD56C087E40E9404260E94FC
:100B7000280E2FEF81EE94E0215080409040E1F765
:100B800000C0000087E4E5CF8CEF8C0F813A98F429
:100B90008C2F0E947D2081113DC08C2F0E94C92581
:100BA000882329F08C2F0E940C260E94280E8C2F5F
:100BB0000E940426D0CF80E28C0F883048F4C770A2
:100BC00081E001C0880FCA95EAF70E94A90DC3CF42
:100BD000EBE5EC0FE33040F4F0E0E558FE4F8081A8
:100BE00090E00E94702516C0E8E5EC0FEB3150F460
:100BF000F0E0EE0FFF1FEB5BFE4F808191810E94C2
:100C0000952508C083E38C0F833120F461E08C2F9D
:100C10000E946F05CF910895882309F456C0823849
:100C200059F40E94542581FF50C089E30E94042694
:100C30000E94280E89E30CC0833879F40E94542561
:100C400080FF43C083E50E9404260E94280E83E5AE
:100C50000E940C260E94280E0895843859F40E94A0
:100C6000542582FF32C087E40E9404260E94280E89
:100C700087E4EECF9CEF980F913A50F390E2980FF3
:100C8000983050F4877091E001C0990F8A95EAF787
:100C9000892F0E94AF0DDECF9BE5980F933028F48B
:100CA00080E090E00E947025089598E5980F9B31B0
:100CB00028F480E090E00E949525089593E3980F32
:100CC000933118F460E00E946F0508951F93CF934D
:100CD000DF93182FEB010E947905209741F08FE9EF
:100CE0009FE00197F1F700C000002197F6CF812F18
:100CF0000E940C06DF91CF911F910895893319F05E
:100D000060E070E002C060E570E00E946606089551
:100D1000882321F00E94A90D0E94280E089588239F
:100D200021F00E94AF0D0E94280E0895A0E0B0E0CF
:100D3000ECE9F6E00C9408317C01162FC72FFC017A
:100D4000D581068102950F700E949F0D8823F9F0CE
:100D5000DD23E9F08C2F807F803461F080E2810F09
:100D60008830A8F08C2F807E803221F4123078F009
:100D7000002369F08091300382FF09C082E00E9465
:100D80005E0E0E949F0D91E0D82ED92601C0D12C75
:100D9000CC2EC2948FE0C8228C2D90E08C3091052F
:100DA00008F09FC1FC01EA5AFF4F0C94C7308C2F0A
:100DB000807FCF70882311F0C295C07FDD2399F02A
:100DC000CC2309F47AC180E2810F883010F0111130
:100DD00004C08C2F0E94A90D03C08C2F0E94B90D56
:100DE0000E94280E6AC1812F0E940C06CC2309F4B0
:100DF00078C180E2810F883038F1112329F18C2FDE
:100E00000E94BF0D24C08C2F807FCF70803211F0E4
:100E1000C295C07F112319F0113099F13CC0809127
:100E2000300382FD17C0DD2349F0CC2329F08C2F3D
:100E30000E94A90D0E94280E80E040C180E00E941F
:100E40000C06CC2309F44DC18C2F0E94AF0D0E94DB
:100E5000280E47C1DD2349F0002309F1013009F0D4
:100E600040C18C2F0E94D00D3CC101113AC18C2F82
:100E70000E948F068C2F0E94DC0D8C2F0E94310E59
:100E800030C1DD2321F0063008F02BC108C0053049
:100E900008F027C115C0DD2331F001110EC18C2FE0
:100EA0000E9488061EC1002359F0193309F016C1AB
:100EB000FFEF27EE83E0F15020408040E1F70CC1C6
:100EC0008C2F0E948F060DC18C2F8695869583707E
:100ED00019F0813061F005C1DD2321F0812F9C2FB5
:100EE000937002C080E090E00E94702502C1DD2373
:100EF00021F0812F9C2F937002C080E090E00E942F
:100F00009525F7C06D2F812F0E946F05F2C08C2FA1
:100F10008370B1F5D111E9C0412F429546954770D4
:100F2000440F440F812F8F7090E09C01042E02C06B
:100F3000220F331F0A94E2F714FF0AC08FE090E0FB
:100F400002C0880F991F4A95E2F78095909502C0DC
:100F500080E090E0C695C695C370822B932BC2307B
:100F600049F058F4C13019F00E943E09BEC00E94F9
:100F70003509BBC00E944709B8C00E943209B5C0FC
:100F8000DD2319F08C2F817001C08695882309F428
:100F9000ACC0412F429546954770440F440F812FB6
:100FA0008F7090E09C01042E02C0220F331F0A9420
:100FB000E2F714FF0AC08FE090E002C0880F991F8B
:100FC0004A95E2F78095909502C080E090E0C69542
:100FD000C695C370822B932BC23049F058F4C130B0
:100FE00019F00E94A60981C00E949D097EC00E943E
:100FF000AF097BC00E94530978C0CF70DD2339F060
:101000008C2F0E946B09812F0E9488066EC0812F51
:101010000E948F068C2F0E947B0967C0123F21F12E
:1010200028F4103F41F0113FC1F043C0133F19F1C4
:10103000143F79F03EC0DD2341F0053008F051C087
:101040008C2F8F710E948D094CC0063008F049C06A
:10105000F7CF8091300382FD18C0DD2339F08C2F4B
:101060008F710E946B093DC0DD23C9F38C2F8F71F6
:101070000E947B0936C0DD2329F08C2F8F710E94DE
:101080005F092FC00E945A092CC0DD2349F0CF719F
:101090008C2F0E946B0963E08C2F0E94400E21C0B0
:1010A00081E00E945E0E0230E0F082E00E945E0E5F
:1010B00018C0DD2331F0002391F2812F0E947905C1
:1010C00010C0002399F2193349F49FEFE7EEF3E0E3
:1010D0009150E040F040E1F700C00000812F0E94F5
:1010E0000C0688EF8C0D843020F40E9440250E946D
:1010F0000805DD2089F00E949B0D80FD0DC0F701E1
:1011000015820E94950D0E946B09C7010E94A908D3
:101110000E94950D0E947B09CDB7DEB7E8E00C94E4
:1011200024310F931F93CF93DF93EC016881798172
:101130008D810E946C0A8C010E94B8090E942309CB
:10114000B801CE010E949606DF91CF911F910F91B9
:101150000895CF93DF93FC0124812223D1F0EC0189
:101160000E94860481110FC00E949F0D882389F080
:101170008D81882371F08091300382FF0AC082E064
:101180000E945E0E06C0CE010E949108CE010E9410
:101190004504DF91CF91089580E090E00E94702592
:1011A00080E090E00E9495250E94C60D0E94280EC6
:1011B0000E947F230E94602308950E9414260E94AB
:1011C000CC0808950E94B60D0E94DD0808959295FE
:1011D0009F70963079F010F4925001C09A5092307E
:1011E00068F4803F69F018F4883E40F409C0843FF9
:1011F00029F406C0883E20F0813F11F080E0089578
:1012000081E00895FC012481222339F080819181BD
:101210000E94610A0E94E708089580E00895A6E010
:10122000B0E0E5E1F9E00C940E312696E2E00C9492
:101230002A31A7E0B0E0EFE1F9E00C940E312796F7
:10124000E2E00C942A31089508950E94240908953B
:101250000E94250908950E942809909325028093F1
:10126000240208950E942B090895209124023091B0
:101270002502822B932B0E942B0908952091240292
:1012800030912502822393230E942B0908952091F7
:10129000240230912502822793270E942B0908956A
:1012A0000E94240908950E9450099093230280937C
:1012B0002202089580E090E00E945309089521E001
:1012C00030E0A90102C0440F551F8A95E2F7CA0118
:1012D0000E945309089521E030E002C0220F331F1D
:1012E0008A95E2F78091220290912302822B932B20
:1012F0000E945309089521E030E002C0220F331FFD
:101300008A95E2F7209530958091220290912302F0
:10131000822393230E945309089521E030E002C004
:10132000220F331F8A95E2F78091220290912302C7
:10133000822793270E945309089520912202309119
:101340002302822B932B0E9453090895209122029D
:1013500030912302822393230E9453090895209100
:10136000220230912302822793270E945309089575
:101370000895962F9770A1E001C0AA0F9A95EAF7F9
:1013800093E0769567959A95E1F7660F771F660F5C
:10139000771FFA01E60FF71F40E050E0682F70E07A
:1013A00090819B01042E02C0369527950A94E2F79E
:1013B0002170219529272A23292721934F5F5F4FE9
:1013C0004430510569F70895FB01782F777023E0C9
:1013D000969587952A95E1F7880F991F880F991F91
:1013E000E80FF91F40E050E080E0219130E0072E47
:1013F00002C0369527950A94E2F721703327042E10
:1014000001C0220F0A94EAF7822B4F5F5F4F4430EE
:10141000510559F70895282F983070F4873060F4FB
:10142000862F622F70E027E0929F600D711D1124BE
:1014300046E052E00E94B9090895983070F4873070
:1014400060F4292F90E066E072E037E0239F800D82
:10145000911D11240E94E409089580E00895A0E000
:10146000B0E0E5E3FAE00C9407317C010091220240
:10147000109123028091240290912502082B192BB0
:10148000CFE0D0E0CC24C394D12CC6010C2E02C0F6
:10149000880F991F0A94E2F780239123892B21F466
:1014A000219798F7B12C07C0BC2EB7018C2F0E9452
:1014B0005C110197A9F38B2DCDB7DEB7E9E00C9451
:1014C0002331CF93DF93EC010E942F0ABE010E94CB
:1014D0005C11DF91CF9108951F93CF93DF93EB01C0
:1014E00090910502992321F0CB010E94610A13C05B
:1014F000882349F0CB010E942F0A182F682FCE01B4
:101500000E940B0A04C0CB010E941D0A182FBE01C5
:10151000812F0E945C11DF91CF911F910895E1E02E
:10152000F0E0DF0102C0AA0FBB1F6A95E2F7BD0120
:10153000DF0102C0AA0FBB1F4A95E2F7AD01462B9F
:10154000572B02C0EE0FFF1F2A95E2F79A012823BE
:1015500039234217530719F48E2B9F2B0895E095DA
:10156000F0958E239F230895242F462F682F809176
:101570002202909123020E948F0A0E94530908952B
:101580001F93CF93DF93C091260217E0809127022B
:10159000C817A1F0D0E01C9FF0011D9FF00D112491
:1015A000E85DFD4F208131814281538164817581E5
:1015B00086810E9419092196C770E8CFDF91CF91EB
:1015C0001F91089520916002309161024091620262
:1015D000509163026091640270916502809166028D
:1015E0000E9419090895CF93DF9380916602829536
:1015F0008F7009F04EC080916502882309F449C0BC
:101600008091260240912702509161026091600210
:10161000C0916202D091630277E08417D1F190E02B
:10162000789FF001799FF00D1124DF01A85DBD4F77
:1016300014962C911497222349F111962C9111970D
:10164000251324C02C91261321C015962C91159793
:1016500021111CC012962D913C9113972C1B3D0B10
:10166000283C310598F4809166028F7080618093E8
:101670006602E25DFD4F80818F708061808380E62D
:1016800092E00E94A9080E94C00A03C001968770D8
:10169000C4CFDF91CF910895209126029091270227
:1016A00057E02917A9F030E0529FF001539FF00D49
:1016B0001124E85DFD4F7181761306C070817813A7
:1016C00003C07581741306C02F5F3F4F2770E9CFA9
:1016D00080E0089581E00895A4E1B0E0E2E7FBE056
:1016E0000C9404318C0186E0F801DE011F96019014
:1016F0000D928A95E1F7F8018481E58090E6A92EA4
:1017000092E0B92E90916402911118C0882309F4D7
:1017100080C1EE20D9F1C8010E940209F82E882369
:10172000A9F187E0F801D50101900D928A95E1F7C2
:10173000C5010E9466050E94F30A98C0F801C080A6
:10174000D18082809380F090650220916202309176
:101750006302A401421B530BFF2009F406C1483C5D
:10176000510508F0AFC0882309F455C18091660285
:10177000282F207F90916102222361F09D1509F4AA
:1017800062C0C8010E940209811173C0C8010E9491
:10179000A9083FC19D1115C0909160029C1111C014
:1017A000E1100FC08F708061809366020E94E20A90
:1017B00080E692E00E94A90880916602F801868383
:1017C00026C1E1103AC040E06D2D8C2D0E944C0BDB
:1017D00040E06D2D8C2D0E944C0BE82E811117C11D
:1017E000CF86D88A8F8598890E94610A292F2295F1
:1017F0002F70243020F49F70223028F009C02A5026
:10180000223080F014C0992349F0811107C013C021
:10181000992321F0F8019681907F69F0805E8830ED
:1018200030F409C0803F38F0815F833020F0C80178
:101830000E94A908EF2CFE2CEEC080916602816008
:1018400080936602E4C0909160029C119ACFE110EF
:1018500098CFF8018683C8010E94A90887E0F801A3
:10186000A0E6B2E001900D928A95E1F70E94E20AAB
:10187000D2C0EE2009F48ACF20916602822F829591
:101880008F7090E002978CF08091600290916102DD
:10189000998788879B868A86809164028C871D86BB
:1018A0002E87CE0108960E94A90887E0F801A0E6DD
:1018B000B2E001900D928A95E1F70E94F30A0E942E
:1018C000E20AA7C090916602292F207FA1F4682D1B
:1018D0009A8A898AA6017A899E2D0E940F0980E63C
:1018E00092E00E94A90887E0F50111928A95E9F734
:1018F0000E94E20A8CC0882309F48DC080916102A5
:101900008D1111C0809160028C110DC0E1100BC0CF
:10191000F8019683C8010E94A90887E0F501119299
:101920008A95E9F778C0C8010E940209882309F462
:101930002DCFEE2009F42ACF20916602822F8295C6
:101940008F7090E002970CF4B0CF8091600290917C
:1019500061029A8389839C828B82809164028D8349
:101960001E822F83CE0101969ECF483C510508F080
:1019700040C0882309F44DC0FE2CEE2009F406CFA8
:10198000809161028D1127C0809160028C1123C06B
:101990009091660290FD16C0892F82958F70282F36
:1019A00030E02115310571F0F80196832F303105B3
:1019B00009F451CF8F5F982F9295907F86818F7019
:1019C000892B48CF87E0F801A0E6B2E001900D92A4
:1019D0008A95E1F720C0C8010E940209811165CFF4
:1019E00080916602816080936602C8010E94A90806
:1019F00012C0682D9A8A898AA6017A899E2D0E9432
:101A00000F0987E0F50111928A95E9F72FCFF12CA4
:101A100002C0FF24F3948F2D6496ECE00C942031E7
:101A2000AEE0B0E0E6E1FDE00C940D3128873987A7
:101A30004A875B876C877D878E87CE0108960E94D8
:101A40006C0B882361F06C856623A9F128853985A4
:101A50004A855B857D858E850E9419092CC087E0AB
:101A6000FE013896DE01119601900D928A95E1F7FC
:101A70006C85662301F12091270230E0C9010196AF
:101A8000877099274091260250E084179507E1F16D
:101A90006D8397E0929FD001939FB00D1124A85DB4
:101AA000BD4FFE01319601900D929A95E1F780931A
:101AB00027020E94C00A17E0809126029091270217
:101AC000891779F1189FC0011124885D9D4F0E94EC
:101AD0006C0B882331F1E09126021E9FF001112446
:101AE000E85DFD4F208131814281538164817581A0
:101AF00086810E9419098091260290E001968770E4
:101B0000992780932602D8CF0E94E20810922702DC
:101B100010922602E0E6F2E087E0DF011D928A954E
:101B2000E9F72E96E3E00C94293180916F028695B7
:101B300086958695089580916F028770089590919B
:101B40006F02977081E009F480E0089580917B0234
:101B5000089590917B02892B80937B020895809554
:101B600090917B02892380937B02089510927B02DF
:101B7000089590917A02892B80937A020895809536
:101B800090917A02892380937A02089510927A02C2
:101B9000089508950E94C90D08950E94CA0D0895E0
:101BA00090917102292F2823821729F0982B909366
:101BB00071020E94CD0D089590917102292F282362
:101BC00031F080958923809371020E94CD0D089594
:101BD00080917102882329F01092710280E00E94A6
:101BE000CD0D08950F931F93CF93DF9300910401C0
:101BF00010910501C0917B0280917A02C82B8091DF
:101C00007102882331F0C82B0E94BA2581110E94ED
:101C1000E80DF801C083C0910401D091050148E0AE
:101C200050E067E672E0CE010E94D531892B59F071
:101C300088E0FE01A7E6B2E001900D928A95E1F7F7
:101C4000CE010E945725DF91CF911F910F910895EA
:101C50000E94F20D08950E94C90D08950E942B0E56
:101C6000089590917002292F282331F080958923BF
:101C7000809370020E942E0E08950E94C90D08954F
:101C80009091300392FF11C098E0899F9001112438
:101C9000262B20936F020E946B0980916F0286951C
:101CA000869586950E943D0E08950E946B090895C1
:101CB00010926F0280E00E943D0E089590916F0295
:101CC0008095892380936F02282F277069F49817D5
:101CD00059F09091300392FF07C0869586958695BE
:101CE0000E947B090E94580E08959091300392FB48
:101CF000222720F9281769F080FB92F9909330038E
:101D000080912F03909130030E94C30E82E00E94C5
:101D10005E0E08958091300382FB882780F991E060
:101D200089270E94750E089581E00E94750E08951E
:101D300080E00E94750E08956FEF7FEF80E090E0E5
:101D40000E942D32089580E090E00E94F93121E058
:101D5000863E9E4F09F020E0822F089582E090E0B9
:101D60000E94EB31089583E090E00E94EB310895EA
:101D7000682F83E090E00E940F32089584E090E0A5
:101D80000E94F9310895BC0184E090E00E942D3258
:101D90000895AB01BC018FE090E00E9421320895CC
:101DA000AB01BC0183E190E00E942132089560E024
:101DB00070E0CB010E94D00E089560E070E0CB018E
:101DC0000E94C90E0E94D70E0895A8E0B0E0EBEE85
:101DD000FEE00C940E3166EE7EEF80E090E00E9413
:101DE0002D3260E082E090E00E940F3281E090E0CE
:101DF000909325028093240261E083E090E00E94AA
:101E00000F3260E074E184E090E00E942D3260E0E7
:101E100086E090E00E940F326FEF87E090E00E9432
:101E20000F3240E050E0BA0188E090E00E94213299
:101E300060E084E290E00E940F3260E087E190E091
:101E40000E940F3260E08CE090E00E940F3260E070
:101E50008DE090E00E940F3219821A821B821C8250
:101E60001D821E821F82188648E050E068E170E003
:101E7000CE0101960E94FF3140E050E0BA0180E2BD
:101E800090E00E9421320E94DD0E2896E2E00C9440
:101E90002A310E94E50E0895682F8EE090E00E949E
:101EA0000F320895A6E0B0E0E8E5FFE00C940C31B5
:101EB0000E94FA268C0180917C0290917D02081785
:101EC000190781F019821A820E94FA26682F498127
:101ED0005A81792F80E090E00E94330510937D02B3
:101EE00000937C022696E4E00C9428310E94721242
:101EF00060938A0270938B0280938C0290938D0280
:101F0000609386027093870280938802909389027F
:101F1000089581E008950E947414089508950E9420
:101F20008E0F08950E948E0F08950E94920F0895BB
:101F30000E948E0F08950E94980F08950E948E0FA0
:101F4000089587E992E10E9485160E949E0F0E94E3
:101F50009B0F08950E948F0F0E948E0F08950E947C
:101F60009A120E94070508950E94F1260E944C12C1
:101F70000E947A140E94C8130E94AF0F0E94C620CC
:101F80000E94141D0E948C140E94950F0895A6E0D3
:101F9000B0E0EDECFFE00C9405310E94890F811157
:101FA00003C00E94520F53C00E94ED138EE7E82E2B
:101FB00082E0F82E670100E0F60111916F01802F99
:101FC0000E94B81281270F5F083019F08823A1F30F
:101FD00002C0882331F380918E0281FD0E94BE12DF
:101FE0000E948B0FA82E10E099249394812F0E94B9
:101FF000B812B82EF701C080C82609F100E0DD2430
:10200000D3948C2D8D21A9F0AA2099F009831A83ED
:102010000E94FA269C838B839D8291E08B2D8D21DB
:1020200009F490E049815A816B817C818D810E9405
:1020300033050F5FDD0C073021F7F701B0821F5F1A
:10204000FFEFEF1AFF0A183089F60E94760F0E9400
:1020500074140E94161E0E94A1230E941A0526963F
:10206000EBE00C9421311F93CF93DF930E94611119
:10207000EC01C11580E5D807E8F5C11590E4D90752
:1020800008F0A8C0C03ED10530F5CD3CD10508F020
:1020900094C0C83AD10578F4C53AD10508F083C098
:1020A000C130D10509F47CC008F4F2C0C430D105B8
:1020B00008F0F1C0EDC0C33CD10508F0E9C0C85A32
:1020C000D0E0CC0FDD1FC258DE4F0990D881C02D63
:1020D000CE019464E1C0C11580E2D80708F0CBC0FE
:1020E000C11591E0D90708F06BC0C83ED10508F4CE
:1020F000D2C0CEC0C03682E5D80728F5C03492E5FC
:10210000D90708F079C0C03282E5D80708F06CC062
:10211000C11592E5D90708F481C04C2F4695469524
:1021200080E2489FA0011124C37021E030E0C90182
:1021300002C0880F991FCA95E2F7EA01C82BD92B74
:10214000CE019D68A9C0C03A82E5D807B8F48C2FAB
:102150008F71C03892E5D90708F07BC086958695C7
:1021600090E2899F90011124C37081E090E002C049
:10217000880F991FCA95E2F79A6868C0C03C82E54B
:10218000D80708F46DC0C03E92E5D90708F080C0BA
:10219000CF71DD27DC2FCC27CE01806F906A7CC009
:1021A00081E090E079C0C55AD0E0CC54DE4F888100
:1021B000C82FD0E0CE0190646FC0CE0190656CC096
:1021C0008D2F0E94FD11182FCE0199270E946111B9
:1021D0001F715CC0CE0199270E946111CC27DF706E
:1021E000D06A8C2B9D2B58C0CF71D0E0DC2FCC2730
:1021F000CE01816F906A50C08C2F8F718695869525
:1022000090E2899F90011124C37081E090E002C0A8
:10221000880F991FCA95E2F79C6818C08C2F8F71A0
:102220000E94FD1195E0D695C7959A95E1F7CF707C
:10223000D0E0DC2FCC27282F30E084FF05C084E0DD
:10224000220F331F8A95E1F7D069CE01822B932BA1
:1022500023C090E0D82FCC27CE01846F906A1CC099
:102260008C2F8F710E94FD118F7190E0D82FCC2799
:10227000CE01906211C08D2F8F710E94FD11182F19
:10228000CE0199270E9461111F719062912B04C0A9
:1022900080E090E001C0CE01DF91CF911F910895C1
:1022A000783038F4673028F4462F672F0E94EC030B
:1022B000089580E090E008950E9450110E9433102C
:1022C00008958238910569F1B0F48133910509F4DC
:1022D00075C048F48932910509F467C08A329105C6
:1022E00009F471C008958533910509F459C0893303
:1022F0009105B9F00895833E910589F138F4803E47
:102300009105D1F0823E910529F10895863E91050F
:10231000C9F1873E9105D9F1843E910509F06CC061
:1023200027C020912F0320FD57C021FD55C02091CB
:10233000300323FD5BC0089580912F0380FD48C0CA
:102340008091300380FF48C080912F0384FD46C0F8
:1023500083EE51C080912F0382FF3CC0F5CF809166
:102360002F0382FD37C08091300380FD35C0ECCF54
:102370008091300381FF36C080912F0384FD2EC0F1
:1023800087EE39C080912F0383FF2AC0F5CF80915B
:102390002F0383FD25C08091300381FD23C0ECCF46
:1023A00080912F0385FD22C01FC080912F0385FDE2
:1023B0001BC08091300383FF19C00AC080912F0396
:1023C00086FD16C017C080912F0386FD13C010C074
:1023D00089E311C082EE0FC080EE0DC080E00BC01B
:1023E00086EE09C084EE07C085E305C089E203C01C
:1023F0008AE201C081E390E0089590912F0392FF5B
:1024000010C041E0282F2471243009F040E031E071
:10241000282F2871283009F030E0431711F02CE004
:10242000822793FF10C041E0282F2471243109F046
:1024300040E031E0282F2871283109F030E04317BF
:1024400011F02CE082273091300330FF10C051E0B2
:10245000282F2171213009F050E041E0282F287108
:10246000283009F040E0541711F029E0822731FFAD
:1024700010C041E0282F2171213109F040E031E006
:10248000282F2871283109F030E0431711F029E096
:10249000822794FD877E089510922B0310922C03BF
:1024A00010922D0310922E030895CF92DF92EF9297
:1024B000FF926B017C010E94741481110EC00E9476
:1024C0000627C61AD70AE80AF90AC0922B03D09247
:1024D0002C03E0922D03F0922E03FF90EF90DF90FB
:1024E000CF9008950F931F930E947414882319F0BE
:1024F0000E9406270EC00E94062700912B03109110
:102500002C0320912D0330912E03600F711F821F29
:10251000931F1F910F9108950E947414882319F03E
:102520000E94FA2608950E947212CB01089580E05D
:10253000089508950E94A30E811102C00E94490FC0
:102540000E94AE0E80938E020E94BE0E90933003C6
:1025500080932F030E9499120E94B30E90E00E9474
:10256000320980912202909123020E94500908951D
:10257000E82FF0E0E65CFC4F80810895089580EA42
:102580008A95F1F7089500C008950E94BF1208953A
:1025900008950E94C81208950E94C91208950E94C9
:1025A000C81208950E94CF1208950E94C81208957B
:1025B000A4E0B0E0EEEDF2E10C940C310E94741452
:1025C000609142038823E9F119821A821B821C82DE
:1025D000862F90E08E010F5F1F4FB801865C9C4FE5
:1025E0000E949A14882389F08091310390E044E09E
:1025F00050E0B801865C9C4F0E94D53121E02093C9
:102600008F02892B69F410E019C080918F02882312
:10261000D1F384E0F80111928A95E9F710928F02C4
:10262000E0913103F0E0E65CFC4F89819A81AB8157
:10263000BC8180839183A283B38311E00E94CC127A
:102640000DC070E0665C7C4F8091310390E0865C49
:102650009C4F0E9423150E94D51210E0812F2496D2
:10266000E4E00C942831F894E82FE295EF70F0E064
:1026700031A1282F2F7081E090E001C0880F2A95AA
:10268000EAF7982F9095932391A392A1892B82A387
:10269000789408950F931F93CF93DF93CEEBD1E0FF
:1026A00089918F3F11F00E94331381E0C23CD8071B
:1026B000B9F7C7EBD1E00EEB11E089918F3F11F034
:1026C0000E9433130C171D07C1F7DF91CF911F91A3
:1026D0000F910895A0E0B0E0E0E7F3E10C94083139
:1026E0008C01C62FD0E0CE0182549E4F7C01FC01AC
:1026F00090819F3F09F447C0D62EF894E92FE295C8
:10270000EF70F0E081A19F7021E030E001C0220F66
:102710009A95EAF7822B81A382A12095282322A3F0
:1027200078940E94C312E7EBF1E04EEB51E031E008
:10273000C12C21912F3F89F0A22FA295AF70B0E05C
:1027400090968C9190E02F7002C0959587952A9570
:10275000E2F780FD02C0832F01C080E0C82A330F5A
:102760004E175F0731F7F70180818F3F11F00E940C
:10277000331361E0C11001C060E08D2D0E94C512CD
:10278000C00FD11FC882CDB7DEB7E8E00C9424316A
:102790008091060180910601811102C094E001C080
:1027A00090E09093420384E0891B809331030E9460
:1027B0004A1388E0EAE3F3E0DF01982F1D929A952F
:1027C000E9F7E2E3F3E0DF011D928A95E9F784E09F
:1027D0000E942B140E94D2120895A8E0B0E0E3EF0B
:1027E000F3E10C940B318E010F5F1F4F88E0F8016D
:1027F00011928A95E9F7F12C6F2DC8010E946A1396
:10280000F394F4E0FF12F8CF48E050E0B80182E31F
:1028100093E00E94D53121E0009709F420E0892B54
:1028200041F088E0F801A2E3B3E001900D928A95AF
:10283000E1F76091420370E0665C7C4F44E082E324
:1028400093E00E942C14182F0E94D812812B2896F6
:10285000E5E00C9427310895EF92FF920F931F93B8
:10286000CF93DF937C018B01C42F222351F081E0B1
:10287000809392020E94FA26909391028093900294
:1028800004C080919202811102C080E01AC0809140
:102890009002909191020E9412270597B0F3D0E028
:1028A000AE01B701C8010E94D531892B39F0AE01C4
:1028B000B701C8010E94E23181E001C080E01092BE
:1028C0009202CDB7DEB7E6E00C942631CF930E949A
:1028D0005630C82F811102C00E9451308C2FCF91E9
:1028E00008958091960208958091950208950E941E
:1028F000741408950E946614809395020E947714C0
:10290000809396020E947114809306010E947414B1
:1029100081110E94D21408950E947414811102C082
:102920000E94D514089581E0909197029A3008F0A2
:1029300080E008950F931F93CF93DF93EC018B01F9
:10294000809197028A3038F4B801CE010E94201598
:1029500081111DC00AC080919302909194020E943F
:102960001227843F914080F715C0809197028F3FD6
:1029700019F08F5F80939702809197028A3060F000
:102980000E94FA26909394028093930203C01092BF
:10299000970202C080E001C081E0DF91CF911F91DA
:1029A0000F9108950E94D32708950E94D627089575
:1029B000A0E0B0E0EEEDF4E10C9409317901C82F0C
:1029C000880FDD0B41155105A9F0FE0193E0EE0FD4
:1029D000FF1F9A95E1F7E95FFE4F8181928188564A
:1029E0009D4F208130E04217530708F49A01A90156
:1029F0000E94E231CE010E94BE28D82E8823D1F059
:102A000001151105B9F083E0CC0FDD1F8A95E1F7C0
:102A1000FE01E95FFE4F438150E00417150708F4FB
:102A2000A801C95FDE4F6C817D8168567D4FC7016B
:102A30000E94E2318D2DCDB7DEB7E7E00C94253151
:102A40000E941D1608950E9434160895A4E0B0E077
:102A5000ECE2F5E10C940C316091AD027091AE02A4
:102A60008091AF029091B0020E94212764367105D7
:102A70008105910528F10E947212DC01CB010296BA
:102A8000A11DB11D89839A83AB83BC8300E010E054
:102A900020E030E044E050E0BE016F5F7F4F82E015
:102AA0000E94D814182F882361F00E940627609393
:102AB000AD027093AE028093AF029093B00201C05A
:102AC00011E0812F2496E4E00C942831A0E0B0E0DE
:102AD000ECE6F5E10C9406317C015B016A010E9491
:102AE0009314811103C001E010E002C00AE010E07D
:102AF000C1E0D0E0B501C701F6010995811115C00B
:102B000021960C171D0794F0CC9F9001CD9F300D9E
:102B1000300D112480E090E045E34A95F1F7000084
:102B2000019682179307C1F7E5CF81E0CDB7DEB7F5
:102B3000EAE00C942231A5E0B0E0E1EAF5E10C9482
:102B400006315B01E090C201F090C30101E010E0AA
:102B50009E012B5F3F4F40E050E060E070E080E07E
:102B60000E94D814182F882309F43EC067018FEF04
:102B7000C81AD80A6091A9027091AA028091AB028A
:102B80009091AC020E942127643671058105910560
:102B900018F104E010E09E012F5F3F4F40E050E04D
:102BA00060E070E081E00E94D814182F64E070E0CB
:102BB000C6010E94C72091E02D81281390E01923BF
:102BC00051F10E9406276093A9027093AA02809394
:102BD000AB029093AC0211C064E070E0C6010E94A9
:102BE000C7209D818913D5CFF70181819281A3816F
:102BF000B48189839A83AB83BC83112361F089817B
:102C00009A81AB81BC818093A5029093A602A09388
:102C1000A702B093A8028091A5029091A602A0916C
:102C2000A702B091A802F50180839183A283B383A8
:102C3000812F2596EAE00C9422310F931F93CF93B6
:102C4000DF93EC018B014BE955E10E946615882367
:102C500031F046E255E1B801CE010E946615DF91E0
:102C6000CF911F910F9108950F931F93CF93DF93EF
:102C7000C091C201D091C301CE01019624E0FB01B5
:102C8000DC0101900D922A95E1F764E070E00E946A
:102C9000C72088836D817E818F8198850091A102F4
:102CA0001091A2022091A3023091A4026017710733
:102CB0008207930751F06093A1027093A202809360
:102CC000A3029093A4020E945512DF91CF911F910D
:102CD0000F9108950E94AE2A0E94B40F0E94BB2A51
:102CE00008950E94C02A0E94C70F0E94DA2A089500
:102CF0000E9491260E94942A0E94A10F0E946A16A7
:102D00000E9471160E94AA0FFBCF9093FF0180933F
:102D1000FE010895EF92FF920F931F93CF93DF93DD
:102D20008B01682F11110AC0442329F0E82FF0E02D
:102D3000E25CFB4F6491762F862F75C0212F30E027
:102D4000E82FF0E0442321F0E25CFB4FE491F0E057
:102D500046E0049FC0011124CFEFD0E0BE010E94E5
:102D60007D304BEA4603C001479F900D1124800F30
:102D7000911D800F911D982F990F890FAE01421B55
:102D8000530B4E9FD0014F9FB00D5E9FB00D11248D
:102D90009B2F189FA0011124452F55278E01041B3E
:102DA000150B0E9FA0010F9F500D1E9F500D11245B
:102DB0007E01E81AF108E29E8001E39E100DF29E6A
:102DC000100D1124212F3327C21BD30BCE9F90014E
:102DD000CF9F300DDE9F300D112462307105A9F0B8
:102DE00048F46115710569F061307105C9F48B2FE4
:102DF000752F0DC06430710581F058F06630710593
:102E000079F47E2F8B2F932F0DC0832F7B2F9E2F36
:102E100009C08E2F7B2F952F05C08E2F732F02C0D8
:102E20007E2F852F692FCDB7DEB7E6E00C942631D3
:102E300041E00E948A16089508950E941817089587
:102E4000CF93DF93762FE901682F842F0E941D17FF
:102E5000798368838A83DF91CF91089580914303BA
:102E6000282F2695269530E02115310519F4837019
:102E7000846005C02B32310524F08370886A80930A
:102E800043030895A0E0B0E0E8E4F7E10C940831D2
:102E900088E090E00E94F3316B017C0184E290E0D5
:102EA0000E94EB31282F30E040E050E060E070E01D
:102EB00080E090E000E20E943531B22FA32FF42F82
:102EC000E52FD62FC72F97018601BC29A12BF22B06
:102ED0005E2F532B2B2F3A2F4F2F6D2F7C2FCDB7DB
:102EE000DEB7E8E00C942431A0E0B0E0EAE7F7E1D7
:102EF0000C94043149015A016B017C010E942E1788
:102F00008401A4016A2D7B2D88E090E00E9421328B
:102F100094014A2D5B2DB601C70100E20E94503199
:102F2000622F84E290E00E940F32CDB7DEB7ECE072
:102F30000C942031E3E4F3E025E0208311828FEF4D
:102F4000828383831482758130E04FEF5FEF60E00E
:102F5000868197810E94741708958091430380FFB2
:102F600003C086958695089580E008959091470363
:102F7000933018F49F5F90934703882391F020913A
:102F800043033091440340914503509146036091BF
:102F90004703709148038091490390914A030E942E
:102FA0007417089581E00E94B61708959091470321
:102FB000992319F0915090934703882391F0209121
:102FC000430330914403409145035091460360917F
:102FD0004703709148038091490390914A030E94EE
:102FE0007417089581E00E94D617089570E00E943A
:102FF0002D1F0895609123018091430380FF0BC032
:103000008091220123E0829FC0011124855B9C4FA7
:103010000E94F61708958091240190912501891747
:1030200078F7E82FF0E09F01220F331FE20FF31F24
:10303000E55BFC4F1182108212828F5FF0CF90917E
:10304000430390FF16C0909124012091250192170F
:1030500070F4E92FF0E0DF01AA0FBB1FEA0FFB1F9E
:10306000E55BFC4F8183608342839F5FF0CF0E94CA
:10307000FA170895A3E0B0E0E0E4F8E10C940E3113
:103080009091430390FF0AC09E012F5F3F4F0E9423
:1030900020174B8169818A810E941F182396E2E0E4
:1030A0000C942A31CF93DF93EC01EC81F0E0E75CE4
:1030B000FC4F4491E3E4F3E0628181810E943A187D
:1030C0008C818F5F8C83DF91CF910895CF93DF93B5
:1030D000EC01E3E4F3E0438162818C810E943A18C1
:1030E0008C818F5F8C83DF91CF910895A3E0B0E056
:1030F000ECE7F8E10C940C318C018091B102811164
:103100000AC09E012F5F3F4F4FEF6FEF0E942017C5
:103110008A818093B102F8018481813051F028F0D6
:10312000823061F44091B1020AC08091B10240E066
:1031300007C06091B10240E080E003C040E080E061
:1031400060E00E941F18F801848190E0019663E01E
:1031500070E00E94913084832396E4E00C9428313F
:10316000A3E0B0E0E6EBF8E10C940731082FE62E7F
:10317000F42ED22E9091430390FF6CC0E92FE69578
:10318000E695AE2FB0E0AC53BE4F8C918093010317
:103190009C7F943061F49E012F5F3F4F802F0E94EF
:1031A00020174B8169818A810E941F183DC082309F
:1031B00019F4F090460338C0863019F400914403A6
:1031C00033C08930D9F3893179F5E9518E2F817077
:1031D000C82EE695F0E0E75CFB4F1491B12C6091AE
:1031E0002601B616F8F4B19EC001112470E00E94C9
:1031F0007D30802FC11002C0860F01C0861B9091C8
:1032000024012B2D30E0290F311DA901440F551F3A
:10321000240F351F255B3C4F4F2D6E2D0E9420172C
:10322000B394DDCF0E94FA1700934403E092450364
:10323000F0924603DD2071F0209143036091470333
:1032400070914803302FA7018091490390914A0360
:103250000E9474172396E9E00C942331E3E4F3E031
:103260009181282F4381628188E0890F0E94B018E4
:10327000089581E00E942E190895E3E4F3E091811E
:10328000282F4381628188EF890F0E94B01808952A
:1032900081E00E943D190895E3E4F3E0628128E0B3
:1032A000620F08F46FEF282F438181810E94B018CC
:1032B000089581E00E944C190895E3E4F3E06281EF
:1032C00028E0621B08F460E0282F438181810E947E
:1032D000B018089581E00E945D190895E3E4F3E0D9
:1032E000438128E0420F08F44FEF282F628181814B
:1032F0000E94B018089581E00E946E190895E3E4D9
:10330000F3E0438128E0421B08F440E0282F62816B
:1033100081810E94B018089581E00E947F1908956C
:1033200020E00E94B01808959091430390FF0FC0D1
:103330002E3068F430E0F901EE0FFF1FE20FF31FAB
:10334000E55BFC4F8183608342830E94FA170895F6
:10335000FF920F931F93CF93DF93EC01F12C0FEFAC
:1033600010E060912601F616F0F4809124012F2DD3
:1033700030E0280F311DC901880F991F280F391F10
:10338000255B3C4F70E0C8010E949130962F8C81E4
:103390004091460360914503F99E800D11240E94DF
:1033A0002017F394DECF0E94FA179A818C8190FF48
:1033B00002C08F5F01C081508C83CDB7DEB7E5E0DE
:1033C0000C942731A0E0B0E0E8EEF9E10C9406316E
:1033D000FC01828180FF02C00FEF01C001E010E01C
:1033E0004EE0A42E80912601181708F043C080916A
:1033F0002401C12ED12CE601C80FD11DCE01880FAA
:10340000991FC80FD91FC55BDC4F198218821A8219
:1034100034E0E32EF12CB12C8091B3028B0D8F3070
:103420002CF06A2D0E946F30892F05C087FF03C0E2
:1034300090912601890F082E000C990BC816D90609
:1034400091F4809146038E9DA0018F9D500D112413
:1034500055954795559547959E01609145038091F7
:1034600044030E942017B00EF1E0EF1AF108A1F614
:103470001F5FB8CF0E94FA178091B302013031F478
:10348000811102C080912601815007C090E0019611
:103490006091260170E00E9491308093B302CDB715
:1034A000DEB7EAE00C942231CF9380912401909111
:1034B0002501891770F4E82FF0E09F01220F331FD8
:1034C000E20FF31FE55BFC4F1182108212828F5FC7
:1034D000F0CFC0E060912601C617C0F5EC2FF0E0F8
:1034E00070E0CF010E94913020912401820F209141
:1034F000B202022E000C330B90E0E217F307CCF07F
:1035000020912101022E000C330B2E173F078CF067
:103510009C01220F331F820F931F9C01255B3C4FA0
:103520004091460360914503809144030E94201717
:103530000BC0FC01EE0FFF1F8E0F9F1FFC01E55B10
:10354000FC4F118210821282CF5FC4CF0E94FA1703
:10355000209120018091B202820F8093B20290915B
:103560002101920F9093210119165CF4082E000C92
:10357000990B4091260150E041505109841795075D
:103580001CF0219520932001CF910895A0E0B0E098
:10359000ECECFAE10C9404318C01FC014481C42F61
:1035A000D0E09E01DE010E94D5309B01AC010E945B
:1035B000EB306B017C01E0E2F0E0EC1BFD0BA5E5DC
:1035C000B0E09B01AC010E94EB304B015C019F011C
:1035D000DF010E94CD309B01AC010E94F6309B01BF
:1035E000AC012C0D3D1D4E1D5F1DC501B4010E9497
:1035F000A530C22FD22F2A3228F4F3E02F9F90015A
:1036000011240DC025E530E02C1B3109C901880FBC
:10361000991F280F391F37FF02C02F5F3F4F359585
:103620002795C22FC095F12C85E5E82EED1A8091E3
:103630002601F816C8F4F1FC02C08E2D01C08D2FB2
:10364000909124012F2D30E0290F311DA901440F45
:10365000551F240F351F255B3C4F4C2F60914503B0
:103660000E942017F394E3CF0E94FA17F801848197
:10367000811102C091E003C0803219F49FEF909352
:103680001F0190911F01890FF8018483CDB7DEB728
:10369000ECE00C9420310F931F93CF93DF93EC0158
:1036A00000E010E080912601282F30E00217130778
:1036B00024F5909124019801290F311DA901440F8F
:1036C000551F240F351F255B3C4F869590E04C819C
:1036D000081719071CF4442331F002C0411103C03C
:1036E0004091460301C040E060914503809144034E
:1036F0000E9420170F5F1F4FD5CF0E94FA178C81B1
:1037000090E00196817099278C83DF91CF911F9172
:103710000F9108952F923F925F926F927F928F92B6
:103720009F92AF92BF92CF92DF92EF92FF920F9350
:103730001F93CF93DF93FC016280548081E08483E8
:10374000E9E3F3E07490E8EBF3E0E491C091460321
:10375000C695C158D0E0CC0FDD1F2D2E3324812C0F
:1037600075E0972EAA24AA94B12CE719EE2EF12C1D
:1037700080912601881608F098C0C82CD12C22E030
:10378000261568F09C9CF0019D9CF00D1124EC54D2
:10379000FD4F8091440380838091450381835110C4
:1037A0000AC09C9CF0019D9CF00D1124EC54FD4F2F
:1037B0001382128260C09C9C80019D9C100D11247C
:1037C000E801CC54DD4F8B818823F9F081508B8345
:1037D0002FEF829FC00111246C8170E00E947D3028
:1037E000FB01FF27E75CFC4F8491E82FE7192FEFDF
:1037F000E29FC0011124B7010E947D3080914603F1
:10380000689FB00111247A8336C00E94B831B50197
:103810000E9491308215930574F582E0861588F434
:103820000E94B831B5010E94913088830E94B8315E
:10383000209145032695622F70E00E949130280F59
:1038400029839C9CF0019D9CF00D1124EC54FD4FAC
:10385000128280914603843120F0893C18F088EC74
:1038600001C084E19C9CF0019D9CF00D1124EC545E
:10387000FD4F84838383809124019601280F311D9D
:10388000C901880F991F280F391F255B3C4F9C9C4D
:10389000F0019D9CF00D1124EC54FD4F428161819B
:1038A00080810E942017839463CF0E94FA17DF91D2
:1038B000CF911F910F91FF90EF90DF90CF90BF902D
:1038C000AF909F908F907F906F905F903F902F90E0
:1038D0000895E3E4F3E020812E7F2083318142814B
:1038E000538164817581868197810E94741710923B
:1038F00002030E94FA170895609143036695669546
:1039000070E04BE050E087E291E00E94C831892BE3
:1039100019F481E0809302030E948C129093FB02C1
:103920008093FA0208959091430390FF3FC09370F3
:10393000811102C0946007C08B3210F0986A03C0F6
:10394000880F880F982B90934303662391F0209162
:1039500043033091440340914503509146036091E5
:103960004703709148038091490390914A030E9454
:103970007417609143036695669570E04BE050E0E4
:1039800087E291E00E94C831892B19F0109202035E
:1039900002C00E947C1C81E08093FD02409146039E
:1039A00060914503809144030E9490190895682F07
:1039B000909143039695969581E0890F8B3208F09C
:1039C00081E00E94931C089581E00E94D71C089515
:1039D000682F90914303969596958FEF890F09F480
:1039E0008AE20E94931C089581E00E94E81C0895D9
:1039F00061E00E94931C0895E3E4F3E0808181601C
:103A00008083869586950E94F81C089580914303D3
:103A100080FF03C00E94691C08950E94FC1C089549
:103A200060E00E94931C08958091000381113FC0C3
:103A30000E94A30E811104C00E94490F0E949A1790
:103A40000E9442172093430330934403409345035D
:103A50005093460360934703709348038093490350
:103A600090934A032C7FA1F40E949A170E94421758
:103A700020934303309344034093450350934603FC
:103A800060934703709348038093490390934A03DC
:103A90000E942E17109202038091430380FF04C0FE
:103AA000869586950E94101D81E0809300030895FD
:103AB0000E944217209343033093440340934503ED
:103AC00050934603609347037093480380934903E0
:103AD00090934A030E942E178091430380FF04C0F5
:103AE000869586950E94101D08950F931F93CF937E
:103AF000DF9380910203882309F492C0809101032F
:103B0000E0914303E695E695E81BE093FC028230E2
:103B100049F4F0E0EB5CFC4FE491CE2FD0E002E5FD
:103B200018E159C0863049F4F0E0EE5CFC4FE491B6
:103B3000CE2FD0E006E618E14EC0893051F4E6956C
:103B4000F0E0E15DFC4FE491CE2FD0E008EA19E10E
:103B500042C08F3051F4E695F0E0E45DFC4FE49113
:103B6000CE2FD0E002EE19E136C0853149F4F0E005
:103B7000E75DFC4FE491CE2FD0E004E51AE12BC0C5
:103B80008831D9F0833239F4E7E2F3E0C591D4917A
:103B900006E718E120C08432A9F08532C1F48E2FE7
:103BA00063E00E946330E92FF0E0EC5DFC4FE491AC
:103BB000CE2FD0E00AE81BE10EC0C8E2D0E006EC50
:103BC0001AE109C0C4EFD1E00BE41BE104C0C0ED71
:103BD000D7E00CE117E18091FD02882361F010929B
:103BE000FD020E948C129093FB028093FA021092C5
:103BF000FF021092FE020E948C12E091FA02F091F4
:103C0000FB028E1B9F0B8F3F9F4750F4EC0FFD1F55
:103C1000F093FB02E093FA028AEF92E0F801099533
:103C2000DF91CF911F910F91089508950E94751D06
:103C30000895882311F0FA0101C0FB010995089548
:103C4000CF93DF93C82FD62F0E94AD178C1738F073
:103C50000E94AD178D1718F40E94E41C03C08C2F2E
:103C60000E94F81CDF91CF9108951F93CF93DF93AB
:103C7000FB011581111166C0EC010E94A60D827234
:103C8000FE01E052F847E531F10508F05AC0EE595F
:103C9000FF4F0C94C7300E94061D54C044EF5CE1F6
:103CA00064EE7CE104C044EE5CE164EF7CE10E94E0
:103CB000191E48C048E459E169E379E1F8CF49E3C6
:103CC00059E168E479E1F3CF4AE659E169E579E140
:103CD000EECF49E559E16AE679E1E9CF4CE859E1EF
:103CE0006BE779E1E4CF4BE759E16CE879E1DFCFAD
:103CF00042EF57E162ED77E1DACF42ED57E162EF53
:103D000077E1D5CF81E015C065E082E017C068E0BB
:103D100086E014C06EE089E011C064E18FE00EC05F
:103D200067E185E10BC088E104C062E289E106C079
:103D300083E20E94F81C06C06AE285E20E94201E0F
:103D400001C011E0812FDF91CF911F910895E5E728
:103D5000F3E081E28083118287E1828389E08383BB
:103D600060E2CF010E9483290895E5E7F3E082E253
:103D7000808381E08183128284E0838360E2CF01CB
:103D80000E9483290895E5E7F3E083E280831182AE
:103D90001282138260E2CF010E9483290895FF926C
:103DA0000F931F93CF93DF93EC010A810A3018F42D
:103DB000F98010E009C08FEF8093760360E285E719
:103DC00093E00E9483290CC02396101749F0212FFD
:103DD0002F0D4A81698188810E9494191F5FF4CF59
:103DE000CDB7DEB7E5E00C942731E5E7F3E087E2F5
:103DF00080838EE0818360E2CF010E948329089551
:103E0000E5E7F3E088E2808381E0818360E2CF012F
:103E10000E9483290895DC01EC914E2F50E0FA01B5
:103E2000B197E830F105C0F4E958FF4F0C94C73062
:103E30000E94A71E08950E94B51E08950E94C31EE9
:103E400008950E94CF1E08950E94581D08950E9453
:103E5000F51E08950E94001F0895539A2BB1277FE5
:103E60003BB138604FB7F894FC01CB01880F991F24
:103E7000680F791F6E0F7F1FE617F70789F0819192
:103E800098E03BB9000000C087FF2BB9880F000005
:103E900000C000C000C02BB900C09A9591F7ECCFCC
:103EA0004FBF8FE594E00197F1F700C0000008953F
:103EB000893289F1F0F4843171F1B0F4873009F07E
:103EC00077C081E08093390184E1809338018AE0F2
:103ED000809337018EE18093360188E0809333012F
:103EE00088E28093320164C092EE980F9A30F0F02D
:103EF0005FC0803509F444C028F48F3409F058C0FD
:103F00008AE03FC0813529F0823509F051C081E057
:103F100038C08FEF36C080910503882379F1109265
:103F20000503109204031092030342C08D51809345
:103F30000503833099F038F4813069F08230D9F488
:103F400088E391E00DC0853099F078F0863099F4DF
:103F500082E391E005C089E391E002C087E391E04C
:103F6000909304038093030323C086E391E0F8CF8A
:103F700083E391E0F5CF109205031AC080E0089525
:103F800086EFE0910303F0910403309789F02081DC
:103F9000082E000C990B820F911D8F3F910519F08F
:103FA00014F08FEF04C097FF02C0108201C080831D
:103FB00081E008958B3109F469C058F58B3009F41C
:103FC00090C078F4863009F446C020F4853009F4B6
:103FD0004CC08CC0873009F44BC0883009F481C0D4
:103FE00085C0803109F465C068F48E3009F07EC068
:103FF00080918E0282FB222720F991E0922790FB8C
:1040000082F94DC0863109F46CC0893109F469C068
:104010006DC08A32E9F060F4873209F464C028F494
:104020008E3108F463C08D514FC08932F1F05EC00B
:10403000833450F48A3308F046C0853309F453C002
:10404000883309F44EC052C0833409F44CC04EC0CA
:104050000E94490F46C080918E02817F8E7F80939F
:104060008E0281E08093060308950E947A0439C08D
:1040700080918E02982F9095917090FB80F980939B
:104080008E0291112EC0897F877F10C080918E0291
:1040900081FB222720F991E0922790FB81F9809300
:1040A0008E029923F1F080918E02816080938E02BE
:1040B00018C080918E0283FB222720F991E092277D
:1040C00090FB83F9ECCF895321E030E0A90102C0D5
:1040D000440F551F8A95E2F7CA010E9432090E94D7
:1040E000E20881E0089581E090E0F7CF80E0089554
:1040F00080E008950E9478200895CF93C82F809182
:104100000603813069F038F08230C1F58C2F0E94AF
:10411000581F81E039C00E94A60D823289F504C083
:104120000E94A60D823261F48C2F0E947A208111A8
:1041300004C08C2F0E94DA1F1FC081E090E01CC0D9
:104140008C2F0E947820811116C0C43189F058F458
:10415000CB3089F0C031B1F482E08093060388E36C
:104160000E94581F08C0C93219F0C83321F00AC094
:104170001092060307C081E0817006C0109206030A
:1041800080E002C080E0F8CFCF9108950895FC014F
:10419000680F791F8FEF91E3E617F70771F0219110
:1041A000822728E030E087FF03C0880F892701C0FD
:1041B000880F21503109B9F7EFCF0895CF93DF93DE
:1041C00086319C4709F5EB010E94A60D9D8199233C
:1041D00071F08A7A91E009F490E0909307038111DD
:1041E00002C089E201C085E30E94042609C08091D3
:1041F0000703811102C089E201C085E30E940C26F9
:104200000E94280E80E001C081E0DF91CF910895E7
:10421000CF93DF93FC01DB0115968C91882309F481
:10422000DDC09F0130572332310508F0D8C0EF01BF
:104230000E94BE0E9093300380932F03FE01E15045
:10424000F047E232F10520F4E158FF4F0C94C730FB
:1042500080912F038160AAC0809130038860B2C032
:1042600080912F038260A2C080912F0320C0809193
:104270002F0388609BC0809130031EC08091300363
:104280008260A0C080912F03806190C080912F0335
:1042900080628CC080912F03806488C00E94E208F5
:1042A00080912F03806882C080912F038860846092
:1042B0007DC0809130038260816084C080912F0333
:1042C0008E7F74C080913003877F7CC080912F03E4
:1042D0008D7F6CC080912F0320C080912F03877F3A
:1042E00065C0809130031EC0809130038D7F6AC00D
:1042F00080912F038F7E5AC080912F038F7D56C0EF
:1043000080912F038F7B52C00E94E20880912F037F
:104310008F774CC080912F03877F8B7F47C0809120
:1043200030038D7F8E7F4EC080912F0382FB22272A
:1043300020F991E0922790FB82F990FB83F936C037
:1043400080913003982F909591708E7F892B90FBF0
:1043500081F938C080912F0386FB222720F991E054
:10436000922790FB86F922C00E94E20880912F03D9
:1043700087FB222720F991E0922790FB87F916C04E
:1043800081E001C080E00E944C0F1EC080912F038D
:1043900084FB222720F991E0922790FB84F906C044
:1043A00080912F03982F909590FB80F980932F0395
:1043B0000BC08091300383FB222720F991E09227E4
:1043C00090FB83F98093300380912F039091300309
:1043D0000E94C30E0E94E20880E001C081E0DF91EC
:1043E000CF910895282F35EB2303C001112497FFA7
:1043F00003C08058910902C080589F4F892F0895AB
:1044000080910E0380FF06C06091370170E0660F57
:10441000771F26C081FF04C06091370184E005C08A
:1044200082FF07C06091370188E0689FB0011124C6
:1044300017C090910D039923D1F060913601961722
:1044400088F72091370188E0289F90011124929FDE
:10445000A001939F500D112470E0CA010E94913079
:104460006038710540F46115710519F406C068E003
:1044700070E0862F08958FE7089581E00895809178
:104480000E0380FF08C06091330170E07595679559
:104490007595679521C081FF06C06091330170E07A
:1044A0007595679519C082FF04C06091330170E073
:1044B00010C090910C03992399F0609132019617E6
:1044C000A0F780913301899FC001112470E00E9400
:1044D00091306038710540F46115710519F406C01A
:1044E00061E070E0862F08958FE7089581E00895D8
:1044F0009091110391110CC090911203911108C079
:1045000090911403911104C090911303992331F0F9
:1045100098E090930D0391E090930C038D3C21F46F
:104520000E940022819504C08E3C29F40E94002242
:104530008093120308958F3C21F40E9400228195FC
:1045400004C0803D29F40E94002280931103089545
:10455000893D19F40E943F2205C08A3D31F40E9432
:104560003F2281958093130308958B3D21F40E948F
:104570003F22819504C08C3D29F40E943F22809304
:10458000140308959FE2980F983078F421E030E00A
:10459000A90102C0440F551F9A95E2F7CA019091F4
:1045A0001003892B8093100308958D3D21F4809191
:1045B0000E0381600BC08E3D21F480910E0382605A
:1045C00005C08F3D29F480910E03846080930E0313
:1045D00008958D3C39F49091120397FF35C01092E5
:1045E000120359C08E3C29F4909112031916BCF3A2
:1045F0002BC0909111038F3C29F497FF25C0109296
:10460000110349C0803D19F41916CCF31DC09091D7
:104610001303893D29F41916BCF4109213033BC00F
:104620008A3D19F497FF10C0F8CF8B3D39F4909173
:10463000140397FF09C0109214032DC08C3D21F480
:10464000909114031916BCF39FE2980F983080F4F0
:1046500021E030E0A90102C0440F551F9A95E2F70E
:10466000CA0180959091100389238093100313C091
:104670008D3D21F480910E038E7F0BC08E3D21F481
:1046800080910E038D7F05C08F3D29F480910E032C
:104690008B7F80930E0380911103811106C080915E
:1046A0001203811102C010920D0380911303811136
:1046B00006C080911403811102C010920C0308956A
:1046C0000E94FA2620911103211104C020911203A7
:1046D000222321F090930B0380930A03209113036C
:1046E000211104C020911403222321F09093090387
:1046F000809308038FE093E00E9462250895EFE025
:10470000F3E086E0DF011D928A95E9F710920D0330
:1047100010920C0310920E030895FC018281811106
:104720000DC0838181110AC08481811107C091E08D
:104730008581811101C090E0892F01C081E08170E5
:104740000895A6E0B0E0E7EAF3E20C940D3186E0CC
:10475000EFE0F3E0DE01119601900D928A95E1F70A
:10476000109211031092120310921303109214036B
:104770008B81811104C08C81882309F456C08091FB
:104780000A0390910B030E941227AC0190910D0334
:10479000992339F02091380130E02417350758F07B
:1047A00044C0209139018AE0289F900111242417E8
:1047B000350718F03AC09F3F19F09F5F90930D03A3
:1047C0001B81112361F00E940022111614F09FEF4B
:1047D00001C091E0989F902D1124909311031C81AA
:1047E000112361F00E940022111614F09FEF01C006
:1047F00091E0989F902D11249093120380911103C2
:10480000882399F010911203112379F00E94F2216C
:10481000811101C081E080931103812F0E94F22158
:10482000811101C081E0809312038D81811104C048
:104830008E81882309F456C0809108039091090362
:104840000E941227AC0190910C03992339F020911A
:10485000340130E02417350758F044C02091350169
:104860008AE0289F900111242417350718F03AC0D8
:104870009F3F19F09F5F90930C031D81112361F0FE
:104880000E943F22111614F09FEF01C091E0989F03
:10489000902D1124909313031E81112361F00E9427
:1048A0003F22111614F09FEF01C091E0989F902DC8
:1048B00011249093140380911303882399F010918D
:1048C0001403112379F00E94F221811101C081E0CB
:1048D00080931303812F0E94F221811101C081E096
:1048E00080931403BE016F5F7F4F8FE093E00E94BF
:1048F0001F26811105C08FE093E00E948D23811156
:104900000E94602386E0FE013196AFE0B3E00190A3
:104910000D928A95E1F72696E3E00C9429310F93E6
:104920001F93CF93DF93C42FD22FFC01858188235F
:10493000B1F0409317030E94FA26909316038093D8
:10494000150380E28C0F883008F04DC0C77081E0FD
:1049500001C0880FCA95EAF70E94880644C080917A
:104960001703481330C080911503909116030E94DD
:104970001227883C910538F510E21D0FCD17B9F0CC
:1049800080E28C0F883040F4C77081E001C0880F4E
:10499000CA95EAF70E948F06183010F581E09D2F26
:1049A000977001C0880F9A95EAF70E948806802FB9
:1049B0000E947E061830B8F4D77081E001C0880FDD
:1049C000DA95EAF70AC080E28C0F883060F4C7708D
:1049D00081E001C0880FCA95EAF70E948F0603C0E4
:1049E000802F0E947E06DF91CF911F910F91089535
:1049F0000F93FC01E851FC47E730F10590F5CB013E
:104A0000EF55FF4F0C94C73006E221EE41EE6AE10C
:104A10007CE723C007E225EE45EE6BE17CE71DC095
:104A200006E221EE40EE68E17CE717C007E225EEE2
:104A300044EE69E17CE711C006E221EE42EE6CE152
:104A40007CE70BC007E225EE46EE6DE17CE705C092
:104A500008E221E045EE6EE17CE70E948F2480E0D1
:104A600008C0FB018581882319F01092170301C04B
:104A700081E00F91089590931E0380931D03089584
:104A80000E947414811103C0809118030895E0916D
:104A90001D03F0911E03309729F00190F081E02D65
:104AA0000995089580E008950E9440250895E091B9
:104AB0001D03F0911E03309721F00280F381E02D59
:104AC00009950895E0911D03F0911E03309739F088
:104AD00022E0DC012C930680F781E02D09950895F2
:104AE000A3E0B0E0E6E7F5E20C940E3120911B0361
:104AF00030911C0328173907A1F090931C03809371
:104B00001B03E0911D03F0911E03309751F023E049
:104B100029839B838A830084F185E02DCE01019651
:104B200009952396E2E00C942A31A3E0B0E0EBE98A
:104B3000F5E20C940E312091190330911A032817D5
:104B40003907A1F090931A0380931903E0911D0394
:104B5000F0911E03309751F024E029839B838A83D0
:104B60000084F185E02DCE01019609952396E2E0BF
:104B70000C942A31E0910401F0910501329697E0FE
:104B800080E0915029F021912223D9F38F5FF9CF52
:104B90000895882371F02091040130910501F901F5
:104BA0003296285F3F4F9191891729F0E217F3075A
:104BB000D1F780E0089581E008959C01FC013296D0
:104BC0009FEF80E04191461789F09F3F19F4411112
:104BD00001C0982F8F5F8630A9F79F3F39F0F90108
:104BE000E90FF11D97FDFA956283089508959C01E0
:104BF0002A5F3F4FFC014281461301C01282019699
:104C000082179307B9F70895682F80910401909156
:104C100005010E94DD250895682F8091040190917F
:104C200005010E94F7250895E0910401F091050126
:104C3000329686E0DF011D928A95E9F70895DC013E
:104C4000FB0111969C9111978181981321C01296B6
:104C50008C911297882319F09281891319C01396A9
:104C60008C911397882319F09381891311C015969D
:104C70008C911597882319F09581891309C0149692
:104C80009C91992339F081E02481291304C002C04A
:104C900081E001C080E08170089508950E944D2652
:104CA000089583E080931F030E944E26089581118A
:104CB00002C081E001C082E080931F030E944E2663
:104CC00008950E945726089581E080931F030E9453
:104CD0004E2608950E946426089508950E946D2628
:104CE00008950E946E2608950E946D2608950E94E0
:104CF0006D2608950E946D260895CF930E94772611
:104D00000E94ED130E947426C0E08C2F0E94B812FE
:104D1000811104C0CF5FC830C1F701C081E0CF91DD
:104D2000089585B7806885BF85B7806885BF089579
:104D30001F920F920FB60F9211248F939F93AF93F0
:104D4000BF9380912003811113C0809195039091AE
:104D50009603A0919703B09198034196A11DB11DB0
:104D60008093950390939603A0939703B093980331
:104D7000BF91AF919F918F910F900FBE0F901F9099
:104D8000189580919D03843031F10E94EA041092BD
:104D9000200320E488E190E00FB6F894A895809372
:104DA00060000FBE2093600083B7817F846083BF63
:104DB00083B7816083BF7894889583B78E7F83BFE4
:104DC0000FB6F894A8958091600088618093600088
:104DD000109260000FBE08950E94E2080E94EF0446
:104DE000089582E084BD93E095BD9AEF97BD8093CE
:104DF0006E0008952FB7F8948091950390919603D3
:104E0000A0919703B09198032FBF08952FB7F894FE
:104E10006091950370919603809197039091980308
:104E20002FBF08959C014FB7F894809195039091FE
:104E30009603A0919703B09198034FBF821B930BE9
:104E40000895CF92DF92EF92FF922FB7F894C0901F
:104E50009503D0909603E0909703F09098032FBFAE
:104E6000A7019601261B370B480B590BCA01B90144
:104E7000FF90EF90DF90CF90089578941F920F925B
:104E80000FB60F9211248F939F93AF93BF9380918E
:104E9000950390919603A0919703B0919803019682
:104EA000A11DB11D8093950390939603A093970342
:104EB000B0939803BF91AF919F918F910F900FBEC8
:104EC0000F901F90189587E797E7909301088093BC
:104ED00000089AE088E10FB6F894A89580936000E6
:104EE0000FBE90936000FFCF9AE088E10FB6F89470
:104EF000A895809360000FBE90936000FFCF8EE175
:104F0000489B02C08150E1F7489BFECF0895589816
:104F100080E28A95F1F7589A0895FC012AE02A95D3
:104F2000F1F728E090E080E031E040E14A95F1F7C8
:104F3000880F489B02C08160932700C0000040E1B9
:104F40004A95F1F7215089F720E12A95F1F729B127
:104F500000C0000030E13A95F1F7217092272081DE
:104F6000920F90830895A1E0B0E0E9EBF7E20C9492
:104F70000A3119828C017C01E60EF11C0E151F0509
:104F800051F00E947F27CE0101960E948D27F801E3
:104F900081938F01F3CF81E09981911180E0219677
:104FA000E6E00C942631509A589A08955098589AF1
:104FB000E89AE9E6F0E080818C7F80830895615073
:104FC00091E001C0990F6A95EAF720E031E099235A
:104FD00061F0492F482319F0589A232701C05898A7
:104FE00040E24A95F1F79695F2CF222311F0589AB4
:104FF00001C0589880E28A95F1F758980895FF9279
:105000000F931F93CF93DF93EC018C01060F111DBB
:10501000C017D10741F0F9900E94872768E08F2DD3
:105020000E94DF27F5CFCDB7DEB7E5E00C9427313E
:105030001F920F920FB60F9211240F931F932F936D
:105040003F934F935F936F937F938F939F93AF9310
:10505000BF93EF93FF93CF93DF931F92CDB7DEB74C
:1050600019820E947F27CE0101960E948D27082F6A
:10507000069506950695902F96959570202F25708C
:10508000920F292F237096959695920F877089130A
:105090005FC0898181115CC0043008F059C080E193
:1050A0008A95F1F7589A509A82E08A95F1F700C0F4
:1050B000589888E0089F80011124D801A95FBE4F4D
:1050C0001696ED91FC9117973097A9F06091C20167
:1050D0007091C30114962D913C911597260F371F9F
:1050E00011968D919C911297680F791F13964C9190
:1050F00013978C910995F801E95FFE4F6381662350
:1051000051F08091C2019091C30124813581820FB9
:10511000931F0E94FF270E94872780E18A95F1F75D
:1051200058985098589A80E18A95F1F7F801E95F0C
:10513000FE4F6081662351F08091C2019091C301BE
:1051400021813281820F931F0E94B3270E947F2703
:105150000F90DF91CF91FF91EF91BF91AF919F9110
:105160008F917F916F915F914F913F912F911F91FF
:105170000F910F900FBE0F901F9018950F931F93D4
:10518000CF93DF93843091050CF06DC0EC01F8945F
:10519000509A589885E08A95F1F700009C2F9695D3
:1051A00095702C2F2570920F892F83709695969568
:1051B00023E0CC0FDD1F2A95E1F7980F8E01092B14
:1051C0000E94872784E08A95F1F700C068E0802F6D
:1051D0000E94DF2780E18A95F1F75098589A489904
:1051E00002C000C0FCCF87E090E0489B08C0019758
:1051F00021F4509A589A789436C000C0F6CFFE0138
:10520000E95FFE4F6381662381F08091C201909136
:10521000C30124813581820F931F0E94B32781111E
:1052200004C0509A589A78941FC00E947F2780E249
:105230008A95F1F75898509A80E18A95F1F7C95FFD
:10524000DE4F6881662351F08091C2019091C301C5
:1052500029813A81820F931F0E94FF270E9487278E
:10526000789481E001C080E0DF91CF911F910F9190
:10527000089580912903089508959B0190919D03BD
:105280009430F1F48F708093E9008FEF9091E800F3
:10529000815095FD06C095ED9A95F1F700008111BA
:1052A000F5CF8091E80085FF0BC0BA01C90140E04D
:1052B00050E00E947E2B8091E8008E778093E8007A
:1052C000089543E050E0BC0184E00E943D29089528
:1052D00046E050E0BC0184E00E943D290895CF9350
:1052E000DF93EC0148E050E0BC0181E00E943D29E1
:1052F00088E0FE01A1E2B3E001900D928A95E1F70A
:10530000DF91CF910895603231F4BC0140E250E06A
:1053100082E00E943D29089580919C03811109C07B
:105320000E944E2D0E94AB2D8091E20084608093FC
:10533000E200089510929C0308950E946A26089541
:105340006091990381E0611101C080E00E945126C3
:10535000089590919D0381E0943009F080E0609180
:1053600099030E945726089542E061EC81E00E9473
:10537000C72C42E261EC84E00E94C72C42E261EC5F
:1053800082E00E94C72C42E260EC83E00E94C72CBE
:1053900090919D0381E0943009F080E06091990341
:1053A0000E946126089580919F03833009F463C0B1
:1053B00030F4813071F0823009F49DC008958A3054
:1053C00009F489C08B3009F46EC0893009F0ABC094
:1053D00020C080919E03813A09F0A5C08091E80029
:1053E000877F8093E8008091A2039091A303892B8B
:1053F00021F468E081E293E003C060E080E090E0A7
:1054000070E00E94082C8091E8008B778093E80080
:10541000089580919E03813209F085C08091A20396
:105420009091A303009719F0029709F07CC0809136
:10543000E800877F8093E8008091E80082FD05C046
:1054400080919D038111F8CF6EC02091F30080916F
:10545000F20090E0922B029731F48091F1008130BC
:1054600011F0863021F48091F1008093290380911E
:10547000E8008B7754C080919E03813A09F053C0B5
:105480008091A2039091A303892B09F04CC08091D5
:10549000E800877F8093E8008091E80080FFFCCFE0
:1054A0008091440137C080919E038132E1F5809163
:1054B000A2039091A303892BB1F58091E800877F27
:1054C0008093E8000E94FC2C8091A003809344010B
:1054D0000E94E208089580919E03813221F5809117
:1054E000E800877F8093E8000E94FC2C8091A10354
:1054F00080932A03089580919E03813AA1F48091BC
:10550000E800877F8093E8008091E80080FFFCCF6F
:1055100080912A038093F1008091E8008E77809338
:10552000E8000E94FC2C089584B7877F84BF0FB6E3
:10553000F894A89580916000886180936000109233
:1055400060000FBE90E080E80FB6F8948093610091
:10555000909361000FBE0E94642608950E944E2D14
:105560000E94AB2DE2EEF0E080818460808378942D
:105570000E94363008958AE391E00E943B25089509
:1055800080919D038530A9F480919D03853079F445
:105590000E94C12680919B038823B1F30E947D263F
:1055A000882391F30E94682B0E94E208EDCF0E94AD
:1055B000EC260895A0E2B0E0E0EEFAE20C940E31A1
:1055C00080919D03843011F583E08093E900809100
:1055D000E80082FF1BC08091E80085FF0AC040E020
:1055E00050E060E270E0CE0101960E94C32B91E092
:1055F00001C090E08091E8008B778093E8009923C8
:1056000029F060E2CE0101960E940B1FA096E2E015
:105610000C942A319A014091A4035091A5030E9451
:10562000122B0895492F552743305105C9F060F4D6
:105630004130510581F04230510509F041C08BE500
:1056400090E046E955E040C041325105E1F0423278
:10565000510531F135C082E190E041EF55E034C0B1
:1056600099278130910549F028F0029749F5EEE33A
:10567000F5E005C0E2E9F5E002C0E8E6F5E0849176
:1056800090E0AF0121C063307105D0F4660F771F41
:10569000FB01E850FE4F4081518189E090E014C049
:1056A0006330710568F4FB01EE0FFF1FEE50FE4FF3
:1056B00040815181FB01E151FE4F808190E004C0A7
:1056C00080E090E040E050E0F9015183408308958C
:1056D00080E189BD82E189BD09B400FEFDCF8091E2
:1056E000D8008F7D8093D8008091E0008260809305
:1056F000E0008091E00081FDFCCF0895A0E0B0E0E3
:10570000E4E8FBE20C940831EC018B017A010E9481
:105710001B2D811133C0E114F10439F0F7018081B0
:105720009181081B190BC80FD91FC12CD12C011551
:10573000110519F18091E80085FD16C08091E800FF
:105740008E778093E800E114F10449F0F70180813D
:105750009181C80ED91ED182C08285E00FC00E94FF
:105760001B2D882321F30AC089918093F1000150F9
:105770001109FFEFCF1ADF0ADACF80E0CDB7DEB72D
:10578000E8E00C942431A0E0B0E0E9ECFBE20C94FA
:105790000831EC018B017A010E941B2D811133C06D
:1057A000E114F10439F0F70180819181081B190B94
:1057B000C80FD91FC12CD12C0115110519F18091E9
:1057C000E80085FD16C08091E8008B778093E800A3
:1057D000E114F10449F0F70180819181C80ED91ECE
:1057E000D182C08285E00FC00E941B2D882321F347
:1057F0000AC08091F100899301501109FFEFCF1A7F
:10580000DF0ADACF80E0CDB7DEB7E8E00C942431D0
:105810002091A4033091A5032617370748F061159E
:10582000710539F42091E8002E772093E80001C03B
:10583000B901FC0120E06115710579F180919D03AA
:105840008823F1F18530F1F18091E80083FD3CC0BF
:105850008091E80082FD2EC08091E80080FFEBCFB0
:105860002091F3008091F20090E0922B6115710578
:1058700051F08830910538F421912093F100615066
:1058800071090196F3CF21E0089709F020E080919B
:10589000E8008E778093E800CECF2111CFCF0AC0E9
:1058A00080919D03882361F0853061F08091E8004C
:1058B00083FD0AC08091E80082FFF2CF80E0089566
:1058C00082E0089583E0089581E008952091A40383
:1058D0003091A5032617370748F06115710539F493
:1058E0002091E8002E772093E80001C0B901FC0167
:1058F00020E06115710591F180919D03882309F4E1
:1059000040C0853009F43FC08091E80083FD3DC070
:105910008091E80082FD2FC08091E80080FFE9CFF0
:105920002091F3008091F20090E0922B61157105B7
:1059300059F08830910540F424912093F10031967C
:10594000615071090196F2CF21E0089709F020E03B
:105950008091E8008E778093E800CBCF2111CCCFE7
:105960000AC080919D03882361F0853061F08091A9
:10597000E80083FD0AC08091E80082FFF2CF80E05A
:10598000089582E0089583E0089581E00895982FB6
:10599000973068F59093E900981739F07091EC0012
:1059A0002091ED005091F00003C0242F762F50E09D
:1059B00021FD02C09F5FECCF3091EB003E7F309322
:1059C000EB003091ED003D7F3093ED003091EB0026
:1059D00031603093EB007093EC002093ED00509316
:1059E000F0002091EE0027FDE5CF80E008958F7054
:1059F0008093E90081E0089580919E0387FF11C0A4
:105A00008091E80082FD05C080919D038111F8CF4F
:105A100011C08091E8008B770BC080919D03882393
:105A200049F08091E80080FFF8CF8091E8008E7700
:105A30008093E80008952091E4003091E50095E618
:105A40004091EC00842F817040FF23C08091E800DA
:105A500080FD1DC080919D03882399F0853099F0C9
:105A60008091EB0085FD11C04091E4005091E5006C
:105A70002417350729F3915011F09A01E1CF84E002
:105A8000089582E0089583E0089581E0089580E01C
:105A900008954091E80042FFDDCF08950E94BD2D9A
:105AA0000E94C52DE0EEF0E0808181608083E8ED0A
:105AB000F0E080818F77808319BCA7EDB0E08C91F6
:105AC0008E7F8C9380818F7E808310929C030895BB
:105AD0000F931F93CF93DF930E94BD2D0E94C52D7E
