:100000000C94D1030C94EE030C94EE030C94EE03C9
:100010000C94EE030C94EE030C94EE030C94EE039C
:100020000C94EE030C94EE030C94F8290C94CA2A59
:100030000C9496240C94EE030C94EE030C94EE03B3
:100040000C94EE030C94EE030C94EE030C94EE036C
:100050000C94EE030C941F250C94EE030C94EE0309
:100060000C94EE030C94EE030C94EE030C94EE034C
:100070000C94EE030C94EE030C94EE030C94EE033C
:100080000C94EE030C94EE030C94EE030C94EE032C
:100090000C94EE030C94EE030C94EE030C94EE031C
:1000A0000C94EE030C94EE030C94EE03020405048E
:1000B00008040B040E041104140417041A04BF04EA
:1000C000D404EC04020518052E054505BA054D05B6
:1000D000630579058F05A905B30549084908750821
:1000E0007508D608F408E309E309F9086F098009DF
:1000F0008009761C791C7E1C851C8A1C8F1C941C14
:10010000991C9E1CA31CA81CAD1CAF1CB21CB51CCA
:10011000B81CBB1CBE1CC01CC31CC71C4B1D4E1DE9
:10012000511D541D5F1D571D5A1D5D1D0B1E7D1E4B
:10013000131EDD1DE11D171EE41D1A1E251EEF1DD9
:10014000731EF31D291EF71D2D1E571EFB1D311E8C
:10015000611E011E371E411EE81D1E1EEB1D211EC5
:10016000061E3C1E4D1E6D1E6F1ED91D0F1E861EC7
:1001700085228B2279227F22912297229D22322B67
:10018000592B512C592B512CA52BC82B512C1F2CE2
:100190002E2C4D41545355555241204B414E414E0A
:1001A000004F48415241204D4152490053414B5567
:1001B0005241554348492052494B4F0054535553DF
:1001C00048494D4120594F5348494B4F004B5552D8
:1001D0004F534157412052554259004B554E494BC0
:1001E0004944412048414E414D4152550054414BF4
:1001F000414D49204348494B4100574154414E41EC
:10020000424520594F55004B55524F5341574120BD
:1002100044494100417E427E437E447E457E497E84
:100220004A7E4B7E4C7E417E04000500060007009E
:10023000080009000A00E1000B00427E0C000D00DE
:100240000E000F0010001100E10012001300437EA9
:1002500014001500160017001800E10019001A001C
:100260001B00447E1C001D0010001100E100230251
:1002700026023400467E457E477E2F021E02E100A4
:1002800027001E001F0020002100497E22002300BD
:10029000E1002400250026002E022D0025024A7EC2
:1002A0003800E1002B004C0036002C0028002A000A
:1002B00037004B7EE1005000510052004F002800F3
:1002C0002A00240235004C7E30021F023102467E95
:1002D000457E477E20022E00E100350221022F00DC
:1002E000467E457E477E22023000E1004D7E21029F
:1002F0002F00467E457E477E220230004E7E1E0045
:100300001F002000210022002300240025002600D9
:100310001E0F0500047F3F1F643214643214783CC2
:100320001E1E140A052223252628292A2C2D2F30AB
:1003300032333536383A3B3D3E4042434547494AE1
:100340004C4E5051535557595A5C5E606264666812
:10035000696B6D6F71737577797B7D7F818385871D
:10036000898A8C8E90929496989A9C9E9FA1A3A520
:10037000A7A8AAACAEAFB1B3B4B6B8B9BBBCBEBF48
:10038000C1C2C3C5C6C7C9CACBCCCDCED0D1D2D2CB
:10039000D3D4D5D6D7D7D8D9D9DADADBDBDBDCDCD6
:1003A000DCDCDCDDDDDDDDDCDCDCDCDCDBDBDBDA8E
:1003B000DAD9D9D8D7D7D6D5D4D3D2D2D1D0CECDF9
:1003C000CCCBCAC9C7C6C5C3C2C1BFBEBCBBB9B806
:1003D000B6B4B3B1AFAEACAAA8A7A5A3A19F9E9C8B
:1003E0009A98969492908E8C8A89878583817F7D56
:1003F0007B79777573716F6D6B6968666462605E37
:100400005C5A5957555351504E4C4A4947454342FF
:10041000403E3D3B3A3836353332302F2D2C2A2999
:100420002826252322FFAA7F554000010101010152
:10043000010101010202020202020202020303039D
:10044000030303030304040404040404050505056D
:10045000050606060606070707070708080808092D
:100460000909090A0A0A0B0B0B0C0C0C0D0D0D0ED9
:100470000E0E0F0F0F10101111111212131314146E
:10048000151516161717181819191A1A1B1B1C1DE3
:100490001D1E1E1F2020212222232424252626273C
:1004A0002829292A2B2C2D2D2E2F3031323233346E
:1004B00035363738393A3B3C3D3E3F404142434474
:1004C00045464748494A4C4D4E4F50515354555656
:1004D00058595A5B5D5E5F616264656668696B6C02
:1004E0006D6F7072737577787A7B7D7E808283857D
:1004F00087888A8C8E8F91939596989A9C9EA0A2BD
:10050000A3A5A7A9ABADAFB1B3B5B7BABCBEC0C2C6
:10051000C4C6C9CBCDCFD1D4D6D8DBDDDFE2E4E78A
:10052000E9EBEEF0F3F5F8FAFDFF00000000000043
:1005300000002A2B2800000000000000000000003E
:10054000000000000029000000002C1E34202122A1
:1005500024342627252E362D3738271E1F2021220A
:10056000232425263333362E37381F040506070883
:10057000090A0B0C0D0E0F10111213141516171873
:10058000191A1B1C1D2F3130232D350405060708B1
:10059000090A0B0C0D0E0F10111213141516171853
:1005A000191A1B1C1D2F3130354C000000000000B3
:1005B000000000000000000000000000000000003B
:1005C00000000000000000000000000000007E0F9E
:1005D00000D4FFFFFFC70000007814036C006F0019
:1005E000760065006C006900760065003900000047
:1005F00022036E0075006D0061007A007500200016
:100600004B006500790062006F00610072006400B9
:10061000730000000403090409025B00030100A049
:10062000C8090400000103010100092111010001B2
:1006300022440007058103080001090401000203A8
:100640000000000921110100012222000705820398
:100650002000010705030320000109040200010333
:1006600000000009211101000122B60007058403E2
:100670002000011201000200000008EDFE07000149
:1006800000010200010660FF0961A1010962150075
:1006900026FF009520750881020963150026FF00DA
:1006A000952075089102C005010902A10185020982
:1006B00001A10005091901290815002501950875F2
:1006C0000181020501093009311581257F950275E7
:1006D00008810609381581257F9501750881060571
:1006E0000C0A38021581257F950175088106C0C066
:1006F00005010980A101850319012AB7001501260A
:10070000B700950175108100C0050C0901A1018594
:100710000419012AA002150126A002950175108175
:1007200000C005010906A1018506050719E029E7B2
:10073000150025019508750181020507190029EFAB
:100740001500250195F0750181020508190129059B
:10075000950575019102950175039101C005010987
:1007600006A101050719E029E7150025019508757F
:100770000181029501750881010507190029FF15FE
:100780000026FF0095067508810005081901290556
:1007900015002501950575019102950175039101DB
:1007A000C00011241FBECFEFDAE0DEBFCDBF12E0E4
:1007B000A0E0B1E0E0E0FDE502C005900D92AA31B5
:1007C000B107D9F723E0AAE1B2E001C01D92A43934
:1007D000B207E1F70E94A0140C947E2E0C94000046
:1007E0002091380330913903243F31403CF5FC011E
:1007F000E456F109E930F10508F5EA5AFF4F60E0E7
:100800000C94E32C87E092E017C08AEF91E014C0CB
:100810008DEE91E011C08BED91E00EC08DEC91E07A
:100820000BC08CEB91E008C08CEA91E005C081EA36
:1008300091E002C082E991E00E949921109239036F
:10084000109238030895EF92FF920F931F93CF9366
:10085000DF9384E0E82E81E0F82E06E111E0C8E2A3
:10086000D1E028E433E0F7014481F80164818C8110
:100870000E9456152BE433E0F7014685F8016685A2
:100880008E850E9456152EE433E0F7014281F8016F
:1008900062818A810E94561521E533E0F701428585
:1008A000F80162858A850E94561524E533E0F70138
:1008B0004089F801608988890E94561527E533E050
:1008C000F7014485F80164858C850E9456152AE558
:1008D00033E0F7014081F801608188810E9456155C
:1008E0002DE533E0F7014085F801608588850E9499
:1008F000561520E633E0F7014681F80166818E81C6
:100900000E9456150E942516CDB7DEB7E6E00C947E
:10091000422DA0E0B0E0EFE8F4E00C94242D08E4D0
:1009200013E0880F991F9C012C5F3E4F6901FC0169
:10093000EA5EFE4F7F01EC01C85DDE4F9801F601D3
:100940004081F701608188810E9456150D5F1F4F1D
:10095000F3E003361F0791F70E942516CDB7DEB7E7
:10096000E8E00C94402D81549E478E30910508F0AC
:1009700001C1DB01815A9F4FFC010C94E32C1596B9
:100980008C91882359F081E090E090933903809313
:1009900038030E94F90A83E090E015C084E690E0F5
:1009A0000E94F00381E0D0C015968C91882371F0ED
:1009B00081E090E0909339038093380382E00E94B5
:1009C000F90A84E090E00E948904D4C085E690E0B2
:1009D0000E94F00382E0B8C015968C91882361F0E4
:1009E00081E090E0909339038093380383E00E9484
:1009F000F90A80E090E0E7CF86E690E00E94F003FD
:100A000083E0A2C015968C91882361F081E090E08C
:100A1000909339038093380384E00E94F90A86E0BA
:100A200090E0D1CF87E690E00E94F00384E08CC094
:100A300015968C91882361F081E090E090933903C2
:100A40008093380385E00E94F90A88E090E0BBCFEC
:100A500088E690E00E94F00385E076C015968C91C0
:100A6000882389F08AE00E94F90A8AE00E94E50A58
:100A7000882339F08BE00E94E50A882311F08CE08E
:100A80006FC08CE075C08AE073C015968C91882386
:100A900011F08BE0E8CF8BE06BC015968C9188232A
:100AA00061F081E090E0909339038093380386E011
:100AB0000E94F90A85E090E086CF89E690E00E94E6
:100AC000F00386E041C015968C91882361F081E0A7
:100AD00090E0909339038093380387E00E94F90AED
:100AE00081E090E070CF8AE690E00E94F00387E01A
:100AF0002BC015968C91882361F081E090E0909353
:100B000039038093380388E00E94F90A87E090E077
:100B10005ACF8BE690E00E94F00388E015C015964E
:100B20008C91882361F081E090E090933903809369
:100B3000380389E00E94F90A82E090E044CF8CE615
:100B400090E00E94F00389E00E94090B0E942304B8
:100B500011C015968C91882369F00E9423048DE0C2
:100B60000E94F90A07C015968C91882319F08DE030
:100B70000E94090B81E00895809138039091390318
:100B8000181619062CF401969093390380933803B4
:100B900008958E3090F4611110C0493070F4E42F44
:100BA000F0E099E0899FE00DF11D1124EE0FFF1F89
:100BB000EC5EFD4F85919491089581E090E0089559
:100BC0000E94C905089581E0089581E008950E947A
:100BD000E50508950E94E70508950E94B30408956D
:100BE00008950E94F0050895A6E0B0E0EAEFF5E070
:100BF0000C94292D49835A839E8330912102898147
:100C00009A81311115C03E81332359F0222349F0D6
:100C10000E94B20B182F682F89819A810E94990B2C
:100C200003C00E94A60B182F69817A81812F04C00E
:100C30000E94B20B69817A810E94C0122696E3E07D
:100C40000C94452DFC01262F4081518162817381D6
:100C5000848195810E94F4050895CF93DF93EC0180
:100C600061E00E942206BE010E94EA05DF91CF9159
:100C70000895CF93DF93EC0160E00E942206BE014D
:100C80000E94F105DF91CF91089581E008950E94BF
:100C900045060895CF93C82F0E94540A8C2F0E94B6
:100CA00047062FEF84E39CE0215080409040E1F71D
:100CB00000C00000CF91089581E00E944A060E9482
:100CC0004525089580E00E944A060E945625089511
:100CD0000F931F93CF93DF938C0161E00E94220654
:100CE000EC01F801858181110E94401CB801CE0100
:100CF0000E94ED05882309F449C0B801CE010E9485
:100D00006D22882309F442C0B801CE010E94B51DAE
:100D10008823E1F1B801CE010E948B1D8823B1F137
:100D2000B801CE010E94601C882381F1F801858101
:100D3000882341F1C330FCE7DF07D1F040F4C1154F
:100D4000ECE7DE0791F0C130DC47A1F01BC0CB35EA
:100D50008CE7D807A9F0CC35ECE7DE0771F0CA358F
:100D6000DC4781F40E9416100DC00E945C060EC084
:100D70000E941E100E94620609C00E940C1002C050
:100D80000E941A10C8010E94E30501C080E0DF91B3
:100D9000CF911F910F9108950E9474240E94F30631
:100DA00008950E94F7060E947D240895089581E029
:100DB00008950895CF93DF93D82F0E94D706C82FA8
:100DC000882319F08D2F0E94D9068C2FDF91CF91A7
:100DD00008950895CF93C82F0E94D6068C2F0E94A5
:100DE000DA06CF91089580E00E94EA0608950E94F5
:100DF000B5220E94EA060895CF930E94B522C82F1B
:100E000080911C02C81779F0C0931C020E9404252F
:100E100060931D0270931E0280931F029093200224
:100E20008C2F0E94EA06CF910895ADE0B0E0EBE18F
:100E3000F7E00C942A2D488759876A877B878C872F
:100E40009D8791110E94180FCE01019627E0FC01A9
:100E500011922A95E9F726E0FE013896DC0101900F
:100E60000D922A95E1F72D8121110AC029813A813D
:100E70004B815C816D817E818F810E94620E04C0F6
:100E80000E942D068111F2CF2D96E2E00C94462DA2
:100E9000FC012481213021F4808191810E94E40BA6
:100EA0000895662319F00E94251F02C00E94961F14
:100EB0000E940D200895CF93882309F444C0C82FC1
:100EC0008CEF8C0F813A70F48C2F0E945123882371
:100ED00029F08C2F0E94F1230E949F0F8C2F0E94DB
:100EE000DA230CC080E28C0F883058F4C77081E0A0
:100EF00001C0880FCA95EAF70E94FB0E0E949F0F5F
:100F000022C0EBE5EC0FE33040F4F0E0E656FE4F94
:100F1000808190E00E94E92216C0E8E5EC0FEB31F9
:100F200050F4F0E0EE0FFF1FEC59FE4F80819181ED
:100F30000E940E2308C083E38C0F833120F461E00C
:100F40008C2F0E945107CF910895882381F19CEF47
:100F5000980F913A18F40E94F1230DC090E2980F77
:100F6000983060F4877091E001C0990F8A95EAF794
:100F7000892F0E94010F0E949F0F08959BE5980FF3
:100F8000933028F480E090E00E94E922089598E5EB
:100F9000980F9B3128F480E090E00E940E23089582
:100FA00093E3980F933118F460E00E94510708957D
:100FB0001F93CF93DF93182FEB010E945B072097BD
:100FC00041F08FE99FE00197F1F700C00000219701
:100FD000F6CF812F0E94A507DF91CF911F91089531
:100FE000893319F060E070E002C060E570E00E94B3
:100FF000D8070895882321F00E94FB0E0E949F0FBE
:101000000895882321F00E94010F0E949F0F0895E8
:10101000A0E0B0E0EEE0F8E00C94242D7C01162F67
:10102000C72FFC01D581068102950F700E94F10E39
:101030008823F9F0DD23E9F08C2F807F803461F084
:1010400080E2810F8830A8F08C2F807E803221F4DE
:10105000123078F0002369F080913B0382FF09C0D1
:1010600082E00E94E00F0E94F10E91E0D82ED92676
:1010700001C0D12CCC2EC2948FE0C8228C2D90E0E0
:101080008C30910508F09FC1FC01E359FF4F0C948F
:10109000E32C8C2F807FCF70882311F0C295C07F06
:1010A000DD2399F0CC2309F47AC180E2810F8830E6
:1010B00010F0111104C08C2F0E94FB0E03C08C2F66
:1010C0000E940B0F0E949F0F6AC1812F0E94A507EB
:1010D000CC2309F478C180E2810F883038F11123E4
:1010E00029F18C2F0E94110F24C08C2F807FCF708C
:1010F000803211F0C295C07F112319F0113099F19F
:101100003CC080913B0382FD17C0DD2349F0CC2316
:1011100029F08C2F0E94FB0E0E949F0F80E040C19F
:1011200080E00E94A507CC2309F44DC18C2F0E94BA
:10113000010F0E949F0F47C1DD2349F0002309F1F1
:10114000013009F040C18C2F0E94220F3CC10111D7
:101150003AC18C2F0E9401088C2F0E942E0F8C2FD9
:101160000E94B30F30C1DD2321F0063008F02BC1FF
:1011700008C0053008F027C115C0DD2331F001118A
:101180000EC18C2F0E94FA071EC1002359F019339B
:1011900009F016C1FFEF27EE83E0F15020408040B8
:1011A000E1F70CC18C2F0E9401080DC18C2F869590
:1011B0008695837019F0813061F005C1DD2321F03F
:1011C000812F9C2F937002C080E090E00E94E92262
:1011D00002C1DD2321F0812F9C2F937002C080E09B
:1011E00090E00E940E23F7C06D2F812F0E945107BF
:1011F000F2C08C2F8370B1F5D111E9C0412F429517
:1012000046954770440F440F812F8F7090E09C01EA
:10121000042E02C0220F331F0A94E2F714FF0AC003
:101220008FE090E002C0880F991F4A95E2F7809501
:10123000909502C080E090E0C695C695C370822B61
:10124000932BC23049F058F4C13019F00E94B00A13
:10125000BEC00E94A70ABBC00E94B90AB8C00E94C3
:10126000A40AB5C0DD2319F08C2F817001C08695CA
:10127000882309F4ACC0412F429546954770440F2E
:10128000440F812F8F7090E09C01042E02C0220F2A
:10129000331F0A94E2F714FF0AC08FE090E002C007
:1012A000880F991F4A95E2F78095909502C080E0DB
:1012B00090E0C695C695C370822B932BC23049F03F
:1012C00058F4C13019F00E94340B81C00E942B0BDE
:1012D0007EC00E943D0B7BC00E94C50A78C0CF70C3
:1012E000DD2339F08C2F0E94F90A812F0E94FA0722
:1012F0006EC0812F0E9401088C2F0E94090B67C0CD
:10130000123F21F128F4103F41F0113FC1F043C0DA
:10131000133F19F1143F79F03EC0DD2341F0053051
:1013200008F051C08C2F8F710E941B0B4CC00630EF
:1013300008F049C0F7CF80913B0382FD18C0DD2340
:1013400039F08C2F8F710E94F90A3DC0DD23C9F35B
:101350008C2F8F710E94090B36C0DD2329F08C2F52
:101360008F710E94ED0A2FC00E94CC0A2CC0DD2391
:1013700049F0CF718C2F0E94F90A63E08C2F0E94F4
:10138000C20F21C081E00E94E00F0230E0F082E055
:101390000E94E00F18C0DD2331F0002391F2812F6D
:1013A0000E945B0710C0002399F2193349F49FEFA4
:1013B000E7EEF3E09150E040F040E1F700C00000BC
:1013C000812F0E94A50788EF8C0D843020F40E94A5
:1013D000B5220E94EA06DD2089F00E94ED0E80FD14
:1013E0000DC0F70115820E94E70E0E94F90AC7019D
:1013F0000E941B0A0E94E70E0E94090BCDB7DEB7C0
:10140000E8E00C94402D0F931F93CF93DF93EC01F2
:10141000688179818D810E94EF0B8C010E94460BBF
:101420000E94950AB801CE010E940808DF91CF9171
:101430001F910F910895CF93DF93FC012481222304
:10144000D1F0EC010E94680681110FC00E94F10EDC
:10145000882389F08D81882371F080913B0382FF7E
:101460000AC082E00E94E00F06C0CE010E94030A7B
:10147000CE010E943906DF91CF91089580E090E07F
:101480000E94E92280E090E00E940E230E94180F43
:101490000E949F0F0E942C200E940D2008950E9400
:1014A00008240E943E0A08950E94080F0E944F0AD5
:1014B000089592959F70963079F010F4925001C083
:1014C0009A50923068F4803F69F018F4883E40F4F6
:1014D00009C0843F29F406C0883E20F0813F11F006
:1014E00080E0089581E00895FC012481222339F0F1
:1014F000808191810E94E40B0E94590A089580E046
:101500000895A6E0B0E0E7E8FAE00C942A2D2696CC
:10151000E2E00C94462DA7E0B0E0E1E9FAE00C949B
:101520002A2D2796E2E00C94462D089508950E94F6
:10153000960A08950E94970A08950E949A0A909325
:101540002D0280932C0208950E949D0A08952091F7
:101550002C0230912D02822B932B0E949D0A08951C
:1015600020912C0230912D02822393230E949D0A08
:10157000089520912C0230912D02822793270E94FA
:101580009D0A08950E94960A08950E94C20A9093A7
:101590002B0280932A02089580E090E00E94C50A01
:1015A0000895009721F481E0662371F00CC021E0DA
:1015B00030E002C0220F331F6A95E2F72823392357
:1015C00081E0232B09F480E00895682F80912A029E
:1015D00090912B020E94D10A089521E030E0A901E8
:1015E00002C0440F551F8A95E2F7CA010E94C50A3E
:1015F000089521E030E002C0220F331F8A95E2F700
:1016000080912A0290912B02822B932B0E94C50A73
:10161000089521E030E002C0220F331F8A95E2F7DF
:101620002095309580912A0290912B02822393235A
:101630000E94C50A089521E030E002C0220F331F46
:101640008A95E2F780912A0290912B0282279327B4
:101650000E94C50A089520912A0230912B02822B04
:10166000932B0E94C50A089520912A0230912B02E3
:10167000822393230E94C50A089520912A02309163
:101680002B02822793270E94C50A08950895962F5A
:101690009770A1E001C0AA0F9A95EAF793E07695BA
:1016A00067959A95E1F7660F771F660F771FFA0126
:1016B000E60FF71F40E050E0682F70E090819B013B
:1016C000042E02C0369527950A94E2F721702195E1
:1016D00029272A23292721934F5F5F4F4430510543
:1016E00069F70895FB01782F777023E09695879529
:1016F0002A95E1F7880F991F880F991FE80FF91FA6
:1017000040E050E080E0219130E0072E02C03695A5
:1017100027950A94E2F721703327042E01C0220F87
:101720000A94EAF7822B4F5F5F4F4430510559F717
:101730000895282F911109C0893038F4862F622F1F
:1017400070E042E252E00E94470B0895911108C0F8
:10175000893030F462E272E090E00E94720B0895EA
:1017600080E00895A0E0B0E0E8EBFBE00C94232DCE
:101770007C0100912A0210912B0280912C02909101
:101780002D02082B192BCFE0D0E0CC24C394D12C10
:10179000C6010C2E02C0880F991F0A94E2F780231D
:1017A0009123892B21F4219798F7B12C07C0BC2EE7
:1017B000B7018C2F0E94CC120197A9F38B2DCDB7C6
:1017C000DEB7E9E00C943F2DCF93DF93EC010E944C
:1017D000B20BBE010E94CC12DF91CF9108951F93EE
:1017E000CF93DF93EB0190912102992321F0CB015C
:1017F0000E94E40B13C0882349F0CB010E94B20B76
:10180000182F682FCE010E94990B04C0CB010E94B3
:10181000A60B182FBE01812F0E94CC12DF91CF9111
:101820001F9108951F93CF93DF93C0912E0217E06D
:1018300080912F02C817A1F0D0E01C9FF0011D9FDE
:10184000F00D1124E05DFD4F2081318142815381F3
:101850006481758186810E948B0A2196C770E8CFCA
:10186000DF91CF911F910895209168023091690214
:1018700040916A0250916B0260916C0270916D020E
:1018800080916E020E948B0A0895CF93DF9380911E
:101890006E0282958F7009F04EC080916D02882390
:1018A00009F449C080912E0240912F0250916902A3
:1018B00060916802C0916A02D0916B0277E0841750
:1018C000D1F190E0789FF001799FF00D1124DF01B4
:1018D000A05DBD4F14962C911497222349F11196C7
:1018E0002C911197251324C02C91261321C01596F5
:1018F0002C91159721111CC012962D913C91139794
:101900002C1B3D0B283C310598F480916E028F70A2
:10191000806180936E02EA5CFD4F80818F708061F0
:10192000808388E692E00E941B0A0E94120C03C08A
:1019300001968770C4CFDF91CF91089520912E0238
:1019400090912F0257E02917A9F030E0529FF00143
:10195000539FF00D1124E05DFD4F7181761306C099
:101960007081781303C07581741306C02F5F3F4FD9
:101970002770E9CF80E0089581E00895A4E1B0E008
:10198000E4ECFCE00C94202D8C0186E0F801DE01F3
:101990001F9601900D928A95E1F7F8018481E58008
:1019A00098E6A92E92E0B92E90916C02911118C080
:1019B000882309F480C1EE20D9F1C8010E94740A7D
:1019C000F82E8823A9F187E0F801D50101900D9246
:1019D0008A95E1F7C5010E9448070E94450C98C00E
:1019E000F801C080D18082809380F0906D022091B8
:1019F0006A0230916B02A401421B530BFF2009F4D1
:101A000006C1483C510508F0AFC0882309F455C110
:101A100080916E02282F207F90916902222361F02D
:101A20009D1509F462C0C8010E94740A811173C037
:101A3000C8010E941B0A3FC19D1115C09091680208
:101A40009C1111C0E1100FC08F70806180936E02F5
:101A50000E94340C88E692E00E941B0A80916E027C
:101A6000F801868326C1E1103AC040E06D2D8C2D2F
:101A70000E949E0C40E06D2D8C2D0E949E0CE82E45
:101A8000811117C1CF86D88A8F8598890E94E40B6F
:101A9000292F22952F70243020F49F70223028F0B7
:101AA00009C02A50223080F014C0992349F08111D6
:101AB00007C013C0992321F0F8019681907F69F047
:101AC000805E883030F409C0803F38F0815F833019
:101AD00020F0C8010E941B0AEF2CFE2CEEC0809162
:101AE0006E02816080936E02E4C0909168029C1146
:101AF0009ACFE11098CFF8018683C8010E941B0A93
:101B000087E0F801A8E6B2E001900D928A95E1F72E
:101B10000E94340CD2C0EE2009F48ACF20916E02CC
:101B2000822F82958F7090E002978CF080916802EE
:101B300090916902998788879B868A8680916C023A
:101B40008C871D862E87CE0108960E941B0A87E08F
:101B5000F801A8E6B2E001900D928A95E1F70E94A3
:101B6000450C0E94340CA7C090916E02292F207F53
:101B7000A1F4682D9A8A898AA6017A899E2D0E94ED
:101B8000810A88E692E00E941B0A87E0F501119223
:101B90008A95E9F70E94340C8CC0882309F48DC023
:101BA000809169028D1111C0809168028C110DC065
:101BB000E1100BC0F8019683C8010E941B0A87E060
:101BC000F50111928A95E9F778C0C8010E94740A5C
:101BD000882309F42DCFEE2009F42ACF20916E023C
:101BE000822F82958F7090E002970CF4B0CF809195
:101BF0006802909169029A8389839C828B8280918A
:101C00006C028D831E822F83CE0101969ECF483CAD
:101C1000510508F040C0882309F44DC0FE2CEE2089
:101C200009F406CF809169028D1127C08091680266
:101C30008C1123C090916E0290FD16C0892F829561
:101C40008F70282F30E02115310571F0F80196834F
:101C50002F30310509F451CF8F5F982F9295907FE7
:101C600086818F70892B48CF87E0F801A8E6B2E023
:101C700001900D928A95E1F720C0C8010E94740A74
:101C8000811165CF80916E02816080936E02C801E0
:101C90000E941B0A12C0682D9A8A898AA6017A8935
:101CA0009E2D0E94810A87E0F50111928A95E9F73D
:101CB0002FCFF12C02C0FF24F3948F2D6496ECE01B
:101CC0000C943C2DAEE0B0E0E8E6FEE00C94292D4B
:101CD000288739874A875B876C877D878E87CE0107
:101CE00008960E94BE0C882361F06C856623A9F1DA
:101CF000288539854A855B857D858E850E948B0A7E
:101D00002CC087E0FE013896DE01119601900D92FD
:101D10008A95E1F76C85662301F120912F0230E06E
:101D2000C90101968770992740912E0250E08417CF
:101D30009507E1F16D8397E0929FD001939FB00DDD
:101D40001124A05DBD4FFE01319601900D929A9530
:101D5000E1F780932F020E94120C17E080912E026F
:101D600090912F02891779F1189FC0011124805D8D
:101D70009D4F0E94BE0C882331F1E0912E021E9FE0
:101D8000F0011124E05DFD4F2081318142815381BA
:101D90006481758186810E948B0A80912E0290E079
:101DA00001968770992780932E02D8CF0E94540AFB
:101DB00010922F0210922E02E8E6F2E087E0DF0197
:101DC0001D928A95E9F72E96E3E00C94452D8091BB
:101DD00097028695869586950895809197028770DB
:101DE000089590919702977081E009F480E008953A
:101DF0008091C30208959091C302892B8093C302FE
:101E0000089580959091C30289238093C302089519
:101E10001092C30208959091C202892B8093C2024E
:101E2000089580959091C20289238093C2020895FB
:101E30001092C202089508950E941B0F08950E94F7
:101E40001C0F089590919902292F2823821729F0B9
:101E5000982B909399020E941F0F089590919902D8
:101E6000292F282331F080958923809399020E949D
:101E70001F0F089580919902882329F010929902EA
:101E800080E00E941F0F0895CF93C091C3028091FC
:101E9000C202C82B80919902882331F0C82B0E947E
:101EA000332381110E943A0F8C2FCF910895CF9345
:101EB000DF93C0913C01D0913D010E94440F888383
:101EC000C0913C01D0913D0148E050E06FE872E0E4
:101ED000CE010E94F12D892B59F088E0FE01AFE878
:101EE000B2E001900D928A95E1F7CE010E94C222E4
:101EF000DF91CF910895CF93DF93C0913A01D091B4
:101F00003B010E94440F8983C0913A01D0913B016B
:101F100040E250E06FE672E0CE010E94F12D892B85
:101F200059F080E2FE01AFE6B2E001900D928A9591
:101F3000E1F7CE010E94CD22DF91CF9108958091EB
:101F40006301882339F080913A0387FF03C00E9420
:101F50007B0F08950E94570F08950E941B0F08954C
:101F60000E94AD0F089590919802292F282331F0F7
:101F700080958923809398020E94B00F08950E9453
:101F80001B0F089590913B0392FF11C098E0899F29
:101F900090011124262B209397020E94F90A809128
:101FA00097028695869586950E94BF0F08950E9498
:101FB000F90A08951092970280E00E94BF0F0895D9
:101FC000909197028095892380939702282F2770FC
:101FD00069F4981759F090913B0392FF07C08695DA
:101FE000869586950E94090B0E94DA0F08959091BC
:101FF0003B0392FB222720F9281769F080FB92F916
:1020000090933B0380913A0390913B030E943F10D1
:1020100082E00E94E00F089580913B0382FB8827B5
:1020200080F991E089270E94F70F089581E00E94CE
:10203000F70F089580E00E94F70F08956FEF7FEF8C
:1020400080E090E00E94492E089580E090E00E9498
:10205000152E21E0863E9E4F09F020E0822F089544
:1020600082E090E00E94072E089583E090E00E94B5
:10207000072E089584E090E00E94152E0895BC017B
:1020800084E090E00E94492E0895AB01BC018FE0EE
:1020900090E00E943D2E0895AB01BC0183E190E0E9
:1020A0000E943D2E089560E070E0CB010E944C102C
:1020B000089560E070E0CB010E9445100E9453102B
:1020C0000895A8E0B0E0E7E6F0E10C942A2D66EE72
:1020D0007EEF80E090E00E94492E60E082E090E098
:1020E0000E942B2E81E090E090932D0280932C0291
:1020F00061E083E090E00E942B2E60E074E184E0D8
:1021000090E00E94492E60E086E090E00E942B2E35
:102110006FEF87E090E00E942B2E40E050E0BA0184
:1021200088E090E00E943D2E60E084E290E00E9412
:102130002B2E60E087E190E00E942B2E60E08CE087
:1021400090E00E942B2E60E08DE090E00E942B2E0C
:1021500019821A821B821C821D821E821F8218868F
:1021600048E050E068E170E0CE0101960E941B2E2D
:1021700040E050E0BA0180E290E00E943D2E0E94D3
:1021800059102896E2E00C94462D0E9461100895A3
:10219000682F8EE090E00E942B2E0895A6E0B0E01C
:1021A000E4EDF0E10C94282D0E94F8248C0180913C
:1021B000C4029091C5020817190781F019821A828A
:1021C0000E94F824682F49815A81792F80E090E09D
:1021D0000E9415071093C5020093C4022696E4E0FE
:1021E0000C94442D0E9404256093CC027093CD0280
:1021F0008093CE029093CF026093C8027093C9027D
:102200008093CA029093CB02089581E0089581E003
:1022100008950E940711089508950E940C110895D1
:102220000E940C1108950E94101108950E940C1133
:1022300008950E94161108950E940C1108958CEBC8
:1022400093E10E94AD140E941C110E94191108957F
:102250000E940D110E940C1108950E94BF130E944C
:10226000E90608950E94EF240E9414140E942D1183
:102270000E943F1B0E9413110895A6E0B0E0E3E422
:10228000F1E10C94212D0E940511811103C00E94DF
:10229000CE104FC00E9424140091C6021091C702B4
:1022A00080E00E94DD130817190789F38091D0029E
:1022B00081FD0E94E6130E940911082F80E00E9410
:1022C000DD135C01C090C602D090C702C826D92693
:1022D000C114D10461F110E0EE24E394F12C9924AF
:1022E0009394C6018E219F21892BC1F00023B1F068
:1022F00019831A820E94F8249C838B839D8221E09B
:10230000C5018E219F21892B09F420E049815A8142
:102310006B817C818D81922F0E9415071F5FEE0CCF
:10232000FF1C1930F1F6B092C702A092C6020E94BB
:10233000F2100E94411C0E944E200E94FC0626962C
:10234000EBE00C943D2D1F93CF93DF930E94D112AD
:10235000EC01C11580E5D807E8F5C11590E4D9076F
:1023600008F0A8C0C03ED10530F5CD3CD10508F03D
:1023700094C0C83AD10578F4C53AD10508F083C0B5
:10238000C130D10509F47CC008F4F2C0C430D105D5
:1023900008F0F1C0EDC0C33CD10508F0E9C0C85A4F
:1023A000D0E0CC0FDD1FC356DE4F0990D881C02D81
:1023B000CE019464E1C0C11580E2D80708F0CBC01B
:1023C000C11591E0D90708F06BC0C83ED10508F4EB
:1023D000D2C0CEC0C03682E5D80728F5C03492E519
:1023E000D90708F079C0C03282E5D80708F06CC080
:1023F000C11592E5D90708F481C04C2F4695469542
:1024000080E2489FA0011124C37021E030E0C9019F
:1024100002C0880F991FCA95E2F7EA01C82BD92B91
:10242000CE019D68A9C0C03A82E5D807B8F48C2FC8
:102430008F71C03892E5D90708F07BC086958695E4
:1024400090E2899F90011124C37081E090E002C066
:10245000880F991FCA95E2F79A6868C0C03C82E568
:10246000D80708F46DC0C03E92E5D90708F080C0D7
:10247000CF71DD27DC2FCC27CE01806F906A7CC026
:1024800081E090E079C0C55AD0E0CD52DE4F88811E
:10249000C82FD0E0CE0190646FC0CE0190656CC0B3
:1024A0008D2F0E946D13182FCE0199270E94D112F3
:1024B0001F715CC0CE0199270E94D112CC27DF701A
:1024C000D06A8C2B9D2B58C0CF71D0E0DC2FCC274D
:1024D000CE01816F906A50C08C2F8F718695869542
:1024E00090E2899F90011124C37081E090E002C0C6
:1024F000880F991FCA95E2F79C6818C08C2F8F71BE
:102500000E946D1395E0D695C7959A95E1F7CF7027
:10251000D0E0DC2FCC27282F30E084FF05C084E0FA
:10252000220F331F8A95E1F7D069CE01822B932BBE
:1025300023C090E0D82FCC27CE01846F906A1CC0B6
:102540008C2F8F710E946D138F7190E0D82FCC2744
:10255000CE01906211C08D2F8F710E946D13182FC4
:10256000CE0199270E94D1121F719062912B04C055
:1025700080E090E001C0CE01DF91CF911F910895DE
:10258000711107C0693028F4462F60E00E94E00511
:10259000089580E090E008950E94C0120E94A31167
:1025A00008958238910569F1B0F48133910509F4F9
:1025B00075C048F48932910509F467C08A329105E3
:1025C00009F471C008958533910509F459C0893320
:1025D0009105B9F00895833E910589F138F4803E64
:1025E0009105D1F0823E910529F10895863E91052D
:1025F000C9F1873E9105D9F1843E910509F06CC07F
:1026000027C020913A0320FD57C021FD55C02091DD
:102610003B0323FD5BC0089580913A0380FD48C0D1
:1026200080913B0380FF48C080913A0384FD46C0FF
:1026300083EE51C080913A0382FF3CC0F5CF809178
:102640003A0382FD37C080913B0380FD35C0ECCF5B
:1026500080913B0381FF36C080913A0384FD2EC0F8
:1026600087EE39C080913A0383FF2AC0F5CF80916D
:102670003A0383FD25C080913B0381FD23C0ECCF4D
:1026800080913A0385FD22C01FC080913A0385FDE9
:102690001BC080913B0383FF19C00AC080913A039D
:1026A00086FD16C017C080913A0386FD13C010C086
:1026B00089E311C082EE0FC080EE0DC080E00BC038
:1026C00086EE09C084EE07C085E305C089E203C039
:1026D0008AE201C081E390E0089590913A0392FF6D
:1026E00010C041E0282F2471243009F040E031E08F
:1026F000282F2871283009F030E0431711F02CE022
:10270000822793FF10C041E0282F2471243109F063
:1027100040E031E0282F2871283109F030E04317DC
:1027200011F02CE0822730913B0330FF10C051E0C4
:10273000282F2171213009F050E041E0282F287125
:10274000283009F040E0541711F029E0822731FFCA
:1027500010C041E0282F2171213109F040E031E023
:10276000282F2871283109F030E0431711F029E0B3
:10277000822794FD877E089580E0089508950E9441
:102780002510811102C00E94C5100E943010809354
:10279000D0020E943A1090933B0380933A030E9428
:1027A000BE130E94351090E00E94A40A80912A0274
:1027B00090912B020E94C20A0895E82FF0E0EE0FDC
:1027C000FF1FE25CFC4F8081918108950895089578
:1027D0000E94BC0508950E94E71308950E94EB1320
:1027E0000895A6EDB1E041E050E08D918F3FB1F04A
:1027F000F894E82FE295EF70F0E021A18F70BA0114
:1028000002C0660F771F8A95E2F7CB01962F90954D
:10281000922391A392A1892B82A3789471E0AF3D7A
:10282000B70719F7089508950E94F11310923F0316
:1028300010923E0310923D0310923C0381E00E94EF
:1028400055140E94EE130895A2E0B0E0EAE2F4E12C
:102850000C94292D1A82198260E0CE0101960E9403
:10286000131442E050E0BE016F5F7F4F8CE393E0B2
:102870000E94F12D21E0009709F420E0892B31F02E
:1028800089819A8190933D0380933C0341E06EE3FC
:1028900073E08CE393E00E945614182F0E94E81313
:1028A000812F2296E3E00C94452D0895EF92FF923C
:1028B0000F931F93CF93DF937C018B01C42F2223AF
:1028C00051F081E08093D3020E94F8249093D202C9
:1028D0008093D10204C08091D302811102C080E0B4
:1028E0001CC08091D1029091D2020E9410250597C0
:1028F000B0F3D0E0CC0FDD1FAE01B701C8010E94DC
:10290000F12D892B39F0AE01B701C8010E94FE2DCF
:1029100081E001C080E01092D302CDB7DEB7E6E0DF
:102920000C94422D0E94DC260E9432110E94E9265E
:1029300008950E94EE260E943D110E9408270895E6
:102940000E948F240E94C2260E941F110E9492148E
:102950000E9499140E942811FBCF90931B02809330
:102960001A020895EF92FF920F931F93CF93DF9374
:102970008B01682F11110AC0442329F0E82FF0E0E1
:10298000E65DFB4F6491762F862F75C0212F30E0D6
:10299000E82FF0E0442321F0E65DFB4FE491F0E006
:1029A00046E0049FC0011124CFEFD0E0BE010E9499
:1029B000992C4BEA4603C001479F900D1124800FCC
:1029C000911D800F911D982F990F890FAE01421B09
:1029D000530B4E9FD0014F9FB00D5E9FB00D112441
:1029E0009B2F189FA0011124452F55278E01041BF2
:1029F000150B0E9FA0010F9F500D1E9F500D11240F
:102A00007E01E81AF108E29E8001E39E100DF29E1D
:102A1000100D1124212F3327C21BD30BCE9F900101
:102A2000CF9F300DDE9F300D112462307105A9F06B
:102A300048F46115710569F061307105C9F48B2F97
:102A4000752F0DC06430710581F058F06630710546
:102A500079F47E2F8B2F932F0DC0832F7B2F9E2FEA
:102A600009C08E2F7B2F952F05C08E2F732F02C08C
:102A70007E2F852F692FCDB7DEB7E6E00C94422D6F
:102A800041E00E94B214089508950E9440150895EF
:102A9000CF93DF93762FE901682F842F0E9445158D
:102AA000798368838A83DF91CF9108950E944815C6
:102AB000089580914003282F2695269530E0211512
:102AC000310519F48370846005C02B32310524F080
:102AD0008370886A809340030895A0E0B0E0E3E744
:102AE000F5E10C94242D88E090E00E940F2E6B01FC
:102AF0007C0184E290E00E94072E282F30E040E025
:102B000050E060E070E080E090E000E20E94512D33
:102B1000B22FA32FF42FE52FD62FC72F97018601B1
:102B2000BC29A12BF22B5E2F532B2B2F3A2F4F2F8B
:102B30006D2F7C2FCDB7DEB7E8E00C94402DA0E0E0
:102B4000B0E0E5EAF5E10C94202D49015A016B0152
:102B50007C010E9459158401A4016A2D7B2D88E017
:102B600090E00E943D2E94014A2D5B2DB601C701D5
:102B700000E20E946C2D622F84E290E00E942B2ED6
:102B8000CDB7DEB7ECE00C943C2DE0E4F3E025E0BB
:102B9000208311828FEF828383831482758130E0DA
:102BA0004FEF5FEF60E0868197810E949F15089547
:102BB0008091400380FF03C086958695089580E04C
:102BC000089590914403933018F49F5F90934403C9
:102BD000882391F0209140033091410340914203BA
:102BE00050914303609144037091450380914603E3
:102BF000909147030E949F15089581E00E94E1157E
:102C0000089590914403992319F0915090934403AF
:102C1000882391F020914003309141034091420379
:102C200050914303609144037091450380914603A2
:102C3000909147030E949F15089581E00E9401161C
:102C4000089570E00E94601D089560914201809196
:102C5000400380FF0BC08091410123E0829FC001AF
:102C60001124885B9C4F0E94211608958091430196
:102C700090914401891778F7E82FF0E09F01220F27
:102C8000331FE20FF31FE85BFC4F118210821282A8
:102C90008F5FF0CF9091400390FF16C09091430159
:102CA00020914401921770F4E92FF0E0DF01AA0FA0
:102CB000BB1FEA0FFB1FE85BFC4F818360834283ED
:102CC0009F5FF0CF0E9425160895A3E0B0E0EBE6E9
:102CD000F6E10C942A2D9091400390FF0AC09E01CA
:102CE0002F5F3F4F0E9448154B8169818A810E9466
:102CF0004A162396E2E00C94462DCF93DF93EC0125
:102D0000EC81F0E0EB5DFC4F4491E0E4F3E06281A4
:102D100081810E9465168C818F5F8C83DF91CF91BA
:102D20000895CF93DF93EC01E0E4F3E04381628107
:102D30008C810E9465168C818F5F8C83DF91CF918F
:102D40000895A3E0B0E0E7EAF6E10C94282D8C01A9
:102D50008091D40281110AC09E012F5F3F4F4FEF37
:102D60006FEF0E9448158A818093D402F801848114
:102D7000813051F028F0823061F44091D4020AC0D1
:102D80008091D40240E007C06091D40240E080E02E
:102D900003C040E080E060E00E944A16F8018481B0
:102DA00090E0019663E070E00E94AD2C848323964E
:102DB000E4E00C94442DA3E0B0E0E1EEF6E10C94E5
:102DC000232D082FE62EF42ED22E9091400390FF53
:102DD0006CC0E92FE695E695AE2FB0E0A152BE4F4C
:102DE0008C9180930B039C7F943061F49E012F5F44
:102DF0003F4F802F0E9448154B8169818A810E9434
:102E00004A163DC0823019F4F090430338C0863032
:102E100019F40091410333C08930D9F3893179F530
:102E2000E9518E2F8170C82EE695F0E0EB5DFB4FE7
:102E30001491B12C60914501B616F8F4B19EC00111
:102E4000112470E00E94992C802FC11002C0860FBF
:102E500001C0861B909143012B2D30E0290F311DBD
:102E6000A901440F551F240F351F285B3C4F4F2DE0
:102E70006E2D0E944815B394DDCF0E942516009355
:102E80004103E0924203F0924303DD2071F0209170
:102E900040036091440370914503302FA701809156
:102EA0004603909147030E949F152396E9E00C94F6
:102EB0003F2DE0E4F3E09181282F438162818AE095
:102EC000890F0E94DB16089581E00E94591708952A
:102ED000E0E4F3E09181282F4381628186EF890F3E
:102EE0000E94DB16089581E00E9468170895E0E4CF
:102EF000F3E0628121E1620F08F46FEF282F438134
:102F000081810E94DB16089581E00E947717089561
:102F1000E0E4F3E0628121E1621B08F460E0282F25
:102F2000438181810E94DB16089581E00E94881709
:102F30000895E0E4F3E0438121E1420F08F44FEF0C
:102F4000282F628181810E94DB16089581E00E9412
:102F500099170895E0E4F3E0438121E1421B08F46E
:102F600040E0282F628181810E94DB16089581E074
:102F70000E94AA17089520E00E94DB160895909100
:102F8000400390FF0FC0293068F430E0F901EE0FE4
:102F9000FF1FE20FF31FE85BFC4F818360834283D6
:102FA0000E9425160895FF920F931F93CF93DF93EE
:102FB000EC01F12C0FEF10E060914501F616F0F4F2
:102FC000809143012F2D30E0280F311DC901880F5A
:102FD000991F280F391F285B3C4F70E0C8010E94E1
:102FE000AD2C962F8C814091430360914203F99E52
:102FF000800D11240E944815F394DECF0E942516FF
:103000009A818C8190FF02C08F5F01C081508C83B8
:10301000CDB7DEB7E5E00C94432DA0E0B0E0E3E1EE
:10302000F8E10C94222DFC01828180FF02C00FEF99
:1030300001C001E010E049E0A42E8091450118177D
:1030400008F043C080914301C12ED12CE601C80F86
:10305000D11DCE01880F991FC80FD91FC85BDC4F47
:10306000198218821A8234E0E32EF12CB12C80915F
:10307000D6028B0D8A302CF06A2D0E948B2C892F62
:1030800005C087FF03C090914501890F082E000CF1
:10309000990BC816D90691F4809143038E9DA00127
:1030A0008F9D500D112455954795559547959E0137
:1030B00060914203809141030E944815B00EF1E0F7
:1030C000EF1AF108A1F61F5FB8CF0E942516809174
:1030D000D602013031F4811102C080914501815046
:1030E00007C090E001966091450170E00E94AD2C10
:1030F0008093D602CDB7DEB7EAE00C943E2DCF9395
:103100008091430190914401891770F4E82FF0E019
:103110009F01220F331FE20FF31FE85BFC4F118268
:10312000108212828F5FF0CFC0E060914501C61718
:10313000C0F5EC2FF0E070E0CF010E94AD2C2091A3
:103140004301820F2091D502022E000C330B90E038
:10315000E217F307CCF020914001022E000C330B54
:103160002E173F078CF09C01220F331F820F931FF5
:103170009C01285B3C4F4091430360914203809146
:1031800041030E9448150BC0FC01EE0FFF1F8E0F7C
:103190009F1FFC01E85BFC4F118210821282CF5FFF
:1031A000C4CF0E94251620913F018091D502820F45
:1031B0008093D50290914001920F9093400119168F
:1031C0005CF4082E000C990B4091450150E04150F1
:1031D0005109841795071CF0219520933F01CF9149
:1031E0000895A0E0B0E0E7EFF8E10C94202D8C0109
:1031F000FC014481C42FD0E09E01DE010E94F12C2D
:103200009B01AC010E94072D6B017C01E0E2F0E024
:10321000EC1BFD0BA5E5B0E09B01AC010E94072D66
:103220004B015C019F01DF010E94E92C9B01AC0175
:103230000E94122D9B01AC012C0D3D1D4E1D5F1DEA
:10324000C501B4010E94C12CC22FD22F2A3228F40A
:10325000F3E02F9F900111240DC025E530E02C1BD9
:103260003109C901880F991F280F391F37FF02C084
:103270002F5F3F4F35952795C22FC095F12C85E5DF
:10328000E82EED1A80914501F816C8F4F1FC02C051
:103290008E2D01C08D2F909143012F2D30E0290FED
:1032A000311DA901440F551F240F351F285B3C4FCA
:1032B0004C2F609142030E944815F394E3CF0E9483
:1032C0002516F8018481811102C091E003C080328B
:1032D00019F49FEF90933E0190913E01890FF80100
:1032E0008483CDB7DEB7ECE00C943C2D0F931F9395
:1032F000CF93DF93EC0100E010E080914501282F8F
:1033000030E00217130724F5909143019801290F2B
:10331000311DA901440F551F240F351F285B3C4F59
:10332000869590E04C81081719071CF4442331F06E
:1033300002C0411103C04091430301C040E06091CD
:103340004203809141030E9448150F5F1F4FD5CF64
:103350000E9425168C8190E00196817099278C83BC
:10336000DF91CF911F910F9108952F923F925F921D
:103370006F927F928F929F92AF92BF92CF92DF9285
:10338000EF92FF920F931F93CF93DF93FC01628024
:10339000548081E08483E5E2F3E07490E4EAF3E0B2
:1033A000E491C0914303C695C158D0E0CC0FDD1F16
:1033B0002D2E3324812C75E0972EAA24AA94B12CAB
:1033C000E719EE2EF12C80914501881608F098C07F
:1033D000C82CD12C22E0261568F09C9CF0019D9C05
:1033E000F00D1124E952FD4F8091410380838091BB
:1033F0004203818351100AC09C9CF0019D9CF00DFA
:103400001124E952FD4F1382128260C09C9C8001FE
:103410009D9C100D1124E801C952DD4F8B8188233A
:10342000F9F081508B832FEF829FC00111246C81B2
:1034300070E00E94992CFB01FF27EB5DFC4F84910B
:10344000E82FE7192FEFE29FC0011124B7010E9476
:10345000992C80914303689FB00111247A8336C070
:103460000E94D42DB5010E94AD2C8215930574F5F0
:1034700082E0861588F40E94D42DB5010E94AD2CFF
:1034800088830E94D42D209142032695622F70E0FC
:103490000E94AD2C280F29839C9CF0019D9CF00D6F
:1034A0001124E952FD4F128280914303843120F0B0
:1034B000893C18F088EC01C084E19C9CF0019D9C43
:1034C000F00D1124E952FD4F8483838380914301E1
:1034D0009601280F311DC901880F991F280F391F28
:1034E000285B3C4F9C9CF0019D9CF00D1124E952FF
:1034F000FD4F4281618180810E944815839463CF92
:103500000E942516DF91CF911F910F91FF90EF90B0
:10351000DF90CF90BF90AF909F908F907F906F90F3
:103520005F903F902F900895E0E4F3E020812E7F9C
:1035300020833181428153816481758186819781A5
:103540000E949F1510920C030E9425160895609109
:1035500040036695669570E04BE050E086E491E0AC
:103560000E94E42D892B19F481E080930C030E94C2
:10357000F8249093050380930403089590914003E9
:1035800090FF3FC09370811102C0946007C08B32DE
:1035900010F0986A03C0880F880F982B909340030F
:1035A000662391F020914003309141034091420302
:1035B0005091430360914403709145038091460309
:1035C000909147030E949F15609140036695669510
:1035D00070E04BE050E086E491E00E94E42D892BFE
:1035E00019F010920C0302C00E94A71A81E0809388
:1035F00007034091430360914203809141030E947D
:10360000BB170895682F909140039695969581E099
:10361000890F8B3208F081E00E94BE1A089581E084
:103620000E94021B0895682F9091400396959695ED
:103630008FEF890F09F48AE20E94BE1A089581E093
:103640000E94131B089561E00E94BE1A0895E0E4F1
:10365000F3E0808181608083869586950E94231B9C
:1036600008958091400380FF03C00E94941A08953A
:103670000E94271B089560E00E94BE1A0895809161
:103680000A0381113FC00E942510811104C00E94CD
:10369000C5100E94C5150E946D15209340033093FC
:1036A0004103409342035093430360934403709358
:1036B000450380934603909347032C7FA1F40E9417
:1036C000C5150E946D15209340033093410340932C
:1036D00042035093430360934403709345038093E4
:1036E0004603909347030E94591510920C03809152
:1036F000400380FF04C0869586950E943B1B81E0B5
:1037000080930A0308950E946D152093400330931F
:1037100041034093420350934303609344037093E7
:10372000450380934603909347030E945915809167
:10373000400380FF04C0869586950E943B1B089538
:103740000F931F93CF93DF9380910C03882309F489
:1037500092C080910B03E0914003E695E695E81B4B
:10376000E0930603823049F4F0E0EF5DFC4FE49112
:10377000CE2FD0E00DE716E159C0863049F4F0E0D5
:10378000E25EFC4FE491CE2FD0E001E916E14EC09D
:10379000893051F4E695F0E0E55EFC4FE491CE2FE0
:1037A000D0E003ED17E142C08F3051F4E695F0E030
:1037B000E85EFC4FE491CE2FD0E00DE018E136C07A
:1037C000853149F4F0E0EB5EFC4FE491CE2FD0E080
:1037D0000FE718E12BC08831D9F0833239F4E3E1E7
:1037E000F3E0C591D49101EA16E120C08432A9F03A
:1037F0008532C1F48E2F63E00E947F2CE92FF0E028
:10380000E05FFC4FE491CE2FD0E005EB19E10EC054
:10381000C8E2D0E001EF18E109C0C4EFD1E006E74B
:1038200019E104C0C0EDD7E004E415E1809107037D
:10383000882361F0109207030E94F82490930503F7
:103840008093040310920903109208030E94F82445
:10385000E0910403F09105038E1B9F0B8F3F9F4760
:1038600050F4EC0FFD1FF0930503E093040384E094
:1038700093E0F8010995DF91CF911F910F91089581
:1038800008950E94A01B0895882311F0FA0101C039
:10389000FB0109950895CF93DF93C82FD62F0E947F
:1038A000D8158C1738F00E94D8158D1718F40E947F
:1038B0000F1B03C08C2F0E94231BDF91CF91089513
:1038C0001F93CF93DF93FB011581111166C0EC01AB
:1038D0000E94F80E8272FE01E052F847E531F105D0
:1038E00008F05AC0E758FF4F0C94E32C0E94311B9C
:1038F00054C04FE15BE16FE07BE104C04FE05BE16E
:103900006FE17BE10E94441C48C043E757E164E655
:1039100077E1F8CF44E657E163E777E1F3CF45E994
:1039200057E164E877E1EECF44E857E165E977E1F4
:10393000E9CF47EB57E166EA77E1E4CF46EA57E1A2
:1039400067EB77E1DFCF4DE156E16DEF75E1DACF5F
:103950004DEF55E16DE176E1D5CF81E015C065E031
:1039600082E017C068E086E014C06EE089E011C014
:1039700064E18FE00EC067E185E10BC088E104C01F
:1039800062E289E106C083E20E94231B06C06AE26C
:1039900085E20E944B1C01C011E0812FDF91CF9185
:1039A0001F910895E3E6F3E081E28083118287E1CD
:1039B000828389E0838360E2CF010E94B12508956C
:1039C000E3E6F3E082E2808381E08183128285E096
:1039D000838360E2CF010E94B1250895E3E6F3E01E
:1039E00083E2808311821282138260E2CF010E94FF
:1039F000B1250895FF920F931F93CF93DF93EC01AE
:103A0000F9800A81802F90E08F0D911D0A9714F0A4
:103A10008DEF05C00A3010F410E009C08EEF8093DE
:103A2000640360E283E693E00E94B1250CC0239614
:103A3000101749F0212F2F0D4A81698188810E943A
:103A4000BF171F5FF4CFCDB7DEB7E5E00C94432D71
:103A5000E3E6F3E087E2808389E0818360E2CF01DF
:103A60000E94B1250895E3E6F3E088E2808382E0D6
:103A7000818360E2CF010E94B1250895DC01EC91C1
:103A80004E2F50E0FA01B197E830F105C0F4E2574B
:103A9000FF4F0C94E32C0E94D21C08950E94E01C5E
:103AA00008950E94EE1C08950E94FA1C08950E9439
:103AB000831B08950E94281D08950E94331D0895B8
:103AC000539A2BB1277F3BB138604FB7F894FC0174
:103AD000CB01880F991F680F791F6E0F7F1FE617A4
:103AE000F70789F0819198E03BB9000000C087FF9B
:103AF0002BB9880F000000C000C000C02BB900C067
:103B00009A9591F7ECCF4FBF8FE594E00197F1F7CD
:103B100000C000000895CF93DF9386319C4709F5DC
:103B2000EB010E94F80E9D81992371F08A7A91E051
:103B300009F490E090930D03811102C089E201C065
:103B400085E30E94DA2309C080910D03811102C030
:103B500089E201C085E30E94F1230E949F0F80E06B
:103B600001C081E0DF91CF910895CF93DF93FC01F5
:103B7000DB0115968C91882309F4DDC09F01305735
:103B80002332310508F0D8C0EF010E943A1090931B
:103B90003B0380933A03FE01E150F047E232F10526
:103BA00020F4EA56FF4F0C94E32C80913A03816095
:103BB000AAC080913B038860B2C080913A038260C2
:103BC000A2C080913A0320C080913A0388609BC0D4
:103BD00080913B031EC080913B038260A0C0809116
:103BE0003A03806190C080913A0380628CC08091DA
:103BF0003A03806488C00E94540A80913A03806826
:103C000082C080913A03886084607DC080913B03CC
:103C10008260816084C080913A038E7F74C08091FD
:103C20003B03877F7CC080913A038D7F6CC080917D
:103C30003A0320C080913A03877F65C080913B039F
:103C40001EC080913B038D7F6AC080913A038F7EB6
:103C50005AC080913A038F7D56C080913A038F7B82
:103C600052C00E94540A80913A038F774CC08091D1
:103C70003A03877F8B7F47C080913B038D7F8E7F88
:103C80004EC080913A0382FB222720F991E09227CF
:103C900090FB82F990FB83F936C080913B03982F0B
:103CA000909591708E7F892B90FB81F938C080911F
:103CB0003A0386FB222720F991E0922790FB86F9B0
:103CC00022C00E94540A80913A0387FB222720F9E0
:103CD00091E0922790FB87F916C081E001C080E057
:103CE0000E94C8101EC080913A0384FB222720F94D
:103CF00091E0922790FB84F906C080913A03982FB7
:103D0000909590FB80F980933A030BC080913B0320
:103D100083FB222720F991E0922790FB83F980937F
:103D20003B0380913A0390913B030E943F100E9415
:103D3000540A80E001C081E0DF91CF910895282FDF
:103D400035EB2303C001112497FF03C0805891096C
:103D500002C080589F4F892F08958091140380FFDF
:103D600006C06091560170E0660F771F26C081FF84
:103D700004C06091560184E005C082FF07C06091D5
:103D8000560188E0689FB001112417C09091130379
:103D90009923D1F060915501961788F7209156012B
:103DA00088E0289F90011124929FA001939F500DBD
:103DB000112470E0CA010E94AD2C6038710540F4F6
:103DC0006115710519F406C068E070E0862F08954A
:103DD0008FE7089581E008958091140380FF08C063
:103DE0006091520170E0759567957595679521C052
:103DF00081FF06C06091520170E07595679519C00A
:103E000082FF04C06091520170E010C090911203D3
:103E1000992399F0609151019617A0F78091520172
:103E2000899FC001112470E00E94AD2C603871059B
:103E300040F46115710519F406C061E070E0862F49
:103E400008958FE7089581E00895909117039111E7
:103E50000CC090911803911108C090911A03911110
:103E600004C090911903992331F098E090931303C3
:103E700091E0909312038D3C21F40E94AD1E819538
:103E800004C08E3C29F40E94AD1E8093180308954F
:103E90008F3C21F40E94AD1E819504C0803D29F421
:103EA0000E94AD1E809317030895893D19F40E9466
:103EB000EC1E05C08A3D31F40E94EC1E8195809372
:103EC000190308958B3D21F40E94EC1E819504C0D6
:103ED0008C3D29F40E94EC1E80931A0308959FE202
:103EE000980F983078F421E030E0A90102C0440F27
:103EF000551F9A95E2F7CA0190911603892B80937A
:103F0000160308958D3D21F48091140381600BC048
:103F10008E3D21F480911403826005C08F3D29F409
:103F20008091140384608093140308958D3C39F4C8
:103F30009091180397FF35C01092180359C08E3C1A
:103F400029F4909118031916BCF32BC09091170314
:103F50008F3C29F497FF25C01092170349C0803D7C
:103F600019F41916CCF31DC090911903893D29F459
:103F70001916BCF4109219033BC08A3D19F497FF3F
:103F800010C0F8CF8B3D39F490911A0397FF09C008
:103F900010921A032DC08C3D21F490911A0319162A
:103FA000BCF39FE2980F983080F421E030E0A90143
:103FB00002C0440F551F9A95E2F7CA01809590916F
:103FC000160389238093160313C08D3D21F480913D
:103FD00014038E7F0BC08E3D21F4809114038D7FDE
:103FE00005C08F3D29F4809114038B7F80931403C7
:103FF00080911703811106C080911803811102C0BE
:104000001092130380911903811106C080911A0345
:10401000811102C01092120308950E94F824209189
:104020001703211104C020911803222321F090933B
:1040300011038093100320911903211104C02091D2
:104040001A03222321F090930F0380930E0385E13E
:1040500093E00E94DB220895E5E1F3E086E0DF01D2
:104060001D928A95E9F71092130310921203109291
:1040700014030895FC01828181110DC08381811197
:104080000AC08481811107C091E08581811101C03E
:1040900090E0892F01C081E081700895A6E0B0E032
:1040A000E4E5F0E20C94292D86E0E5E1F3E0DE01A1
:1040B000119601900D928A95E1F7109217031092D4
:1040C00018031092190310921A038B81811104C0F6
:1040D0008C81882309F456C08091100390911103BC
:1040E0000E941025AC0190911303992339F020917F
:1040F000570130E02417350758F044C0209158018B
:104100008AE0289F900111242417350718F03AC03F
:104110009F3F19F09F5F909313031B81112361F060
:104120000E94AD1E111614F09FEF01C091E0989F00
:10413000902D1124909317031C81112361F00E948C
:10414000AD1E111614F09FEF01C091E0989F902DC5
:1041500011249093180380911703882399F01091EC
:104160001803112379F00E949F1E811101C081E084
:1041700080931703812F0E949F1E811101C081E04F
:10418000809318038D81811104C08E81882309F4E6
:1041900056C080910E0390910F030E941025AC0130
:1041A00090911203992339F02091530130E02417A4
:1041B000350758F044C0209154018AE0289F9001AF
:1041C00011242417350718F03AC09F3F19F09F5F5C
:1041D000909312031D81112361F00E94EC1E1116B1
:1041E00014F09FEF01C091E0989F902D11249093BF
:1041F00019031E81112361F00E94EC1E111614F0A8
:104200009FEF01C091E0989F902D112490931A0385
:1042100080911903882399F010911A03112379F0E2
:104220000E949F1E811101C081E080931903812F9C
:104230000E949F1E811101C081E080931A03BE017C
:104240006F5F7F4F85E193E00E942224811105C0BA
:1042500085E193E00E943A2081110E940D2086E0C2
:10426000FE013196A5E1B3E001900D928A95E1F748
:104270002696E3E00C94452DA0E0B0E0E2E4F1E204
:104280000C94252DE82FF0E0E65DFA4FD490282F0E
:1042900026952695269530E0F901E653FA4F0491CC
:1042A000877010E0082E02C0159507950A94E2F772
:1042B00001701127F901E654FA4FE490F12C082E11
:1042C00002C0F594E7940A94E2F791E0E922FF2412
:1042D000F901E655FA4FC491D0E002C0D595C795D3
:1042E0008A95E2F7C170DD270115110519F081EEFD
:1042F0000E945B07E114F10419F086EE0E945B074F
:104300008D2D0E94F007E114F10419F086EE0E9451
:10431000A5070115110519F081EE0E94A507CD2B07
:1043200019F08CE20E94F007CDB7DEB7E7E00C94FD
:10433000412DEF92FF920F931F93CF93DF938C0148
:10434000F62E8AE0E82EF8018491882309F457C0FC
:10435000813009F042C0E8012196FE01849181304C
:1043600031F42196FE0184910E94F00739C0823019
:1043700039F4E8012296FE0184910E945B0730C067
:10438000833039F4E8012296FE0184910E94A5074A
:1043900027C0843029F5E8012296FE01249180E0AF
:1043A00090E030E0205331092A30310560F4E89E76
:1043B000A001E99E500D1124C901840F951F21967B
:1043C000FE012491EECF009759F0EFE9FFE031971D
:1043D000F1F700C000000197F6CF0E943C21E801F0
:1043E0008E010F5F1F4F8F2D882309F4ACCFEFE9AB
:1043F000FFE03197F1F700C000008150F5CFCDB755
:10440000DEB7E6E00C94422D0F931F93CF93DF931A
:10441000C42FD22FFC0185818823B1F040931D0366
:104420000E94F82490931C0380931B0380E28C0F5E
:10443000883008F04DC0C77081E001C0880FCA9570
:10444000EAF70E94FA0744C080911D03481330C068
:1044500080911B0390911C030E941025883C9105BC
:1044600038F510E21D0FCD17B9F080E28C0F8830BF
:1044700040F4C77081E001C0880FCA95EAF70E9436
:104480000108183010F581E09D2F977001C0880F4A
:104490009A95EAF70E94FA07802F0E94F0071830D9
:1044A000B8F4D77081E001C0880FDA95EAF70AC046
:1044B00080E28C0F883060F4C77081E001C0880F03
:1044C000CA95EAF70E94010803C0802F0E94F007F6
:1044D000DF91CF911F910F9108950F93FC01E85147
:1044E000FC47E730F10590F5CB01E854FF4F0C9401
:1044F000E32C06E221EE41EE6AE17CE723C007E20D
:1045000025EE45EE6BE17CE71DC006E221EE40EEB4
:1045100068E17CE717C007E225EE44EE69E17CE73D
:1045200011C006E221EE42EE6CE17CE70BC007E22F
:1045300025EE46EE6DE17CE705C008E221E045EEA0
:104540006EE17CE70E94042280E008C0FB018581C7
:10455000882319F010921D0301C081E00F91089586
:1045600090932303809322030895E0912203F09116
:104570002303309729F00190F081E02D09950895EB
:1045800080E00895E0912203F0912303309721F019
:104590000280F381E02D09950895E0912203F091C6
:1045A0002303309739F026E0DC012C930480F58159
:1045B000E02D09950895E0912203F09123033097AF
:1045C00039F022E0DC012C930680F781E02D09957B
:1045D0000895A3E0B0E0EFEEF2E20C942A2D2091D2
:1045E00020033091210328173907A1F0909321036C
:1045F00080932003E0912203F0912303309751F040
:1046000023E029839B838A830084F185E02DCE01FA
:10461000019609952396E2E00C94462DA3E0B0E0C4
:10462000E4E1F3E20C942A2D20911E0330911F0344
:1046300028173907A1F090931F0380931E03E09180
:104640002203F0912303309751F024E029839B83C8
:104650008A830084F185E02DCE0101960995239689
:10466000E2E00C94462DE0913C01F0913D01329640
:1046700080916301882359F080913A0387FF07C036
:10468000E0913A01F0913B0132969EE101C096E043
:1046900080E0915028F021912223D9F38F5FF9CF48
:1046A0000895882399F190916301992309F19091DC
:1046B0003A0397FF1DC0982F9695969596959E3133
:1046C00028F5E0913A01F0913B01E90FF11D2281BB
:1046D000422F50E0877021E030E002C0220F331FEC
:1046E0008A95E2F72423352381E0232B91F40EC031
:1046F00020913C0130913D01F9013296285F3F4FF6
:104700009191891729F0E217F307D1F780E0089516
:1047100081E008959C01FC0132969FEF80E0419179
:10472000461789F09F3F19F4411101C0982F8F5F00
:104730008630A9F79F3F39F0F901E90FF11D97FD88
:10474000FA956283089508959C012A5F3F4FFC010A
:104750004281461301C01282019682179307B9F76E
:104760000895262F2695269526952E3168F4FC016E
:10477000E20FF11D677021E030E001C0220F6A9561
:10478000EAF78281282B22830895262F26952695E5
:1047900026952E3170F4FC01E20FF11D677021E0C7
:1047A00030E001C0220F6A95EAF720958281282324
:1047B00022830895682F80916301882359F08091A6
:1047C0003A0387FF07C080913A0190913B010E9414
:1047D000B123089580913C0190913D010E948A236C
:1047E0000895682F80916301882359F080913A03DE
:1047F00087FF07C080913A0190913B010E94C52339
:10480000089580913C0190913D010E94A423089558
:1048100080916301882359F080913A0387FF07C094
:10482000E0913A01F0913B0132968EE106C0E091B1
:104830003C01F0913D01329686E0DF011D928A95A0
:10484000E9F70895DC01FB0111969C911197818194
:10485000981321C012968C911297882319F0928197
:10486000891319C013968C911397882319F093819B
:10487000891311C015968C911597882319F095818D
:10488000891309C014969C91992339F081E0248101
:10489000291304C002C081E001C080E08170089546
:1048A00008950E945024089583E0809324030E9479
:1048B00051240895811102C081E001C082E08093FB
:1048C00024030E94512408950E945A24089581E0EF
:1048D000809324030E94512408950E946724089520
:1048E00008950E94702408950E94712408950E94E2
:1048F000702408950E94702408950E9470240895E1
:104900000E947A240E9424140E94772480E00E944E
:10491000DD1321E0892B09F420E0822F089585B76B
:10492000806885BF85B7806885BF08951F920F9204
:104930000FB60F9211248F939F93AF93BF938091E3
:104940002503811113C08091830390918403A0916A
:104950008503B09186034196A11DB11D8093830309
:1049600090938403A0938503B0938603BF91AF9186
:104970009F918F910F900FBE0F901F90189580916F
:104980008B03843031F10E94CC061092250320E481
:1049900088E190E00FB6F894A895809360000FBE70
:1049A0002093600083B7817F846083BF83B7816079
:1049B00083BF7894889583B78E7F83BF0FB6F894B2
:1049C000A8958091600088618093600010926000DB
:1049D0000FBE08950E94540A0E94D106089582E0F5
:1049E00084BD93E095BD9AEF97BD80936E000895C6
:1049F0002FB7F8948091830390918403A09185034D
:104A0000B09186032FBF08952FB7F8946091830368
:104A10007091840380918503909186032FBF089540
:104A20009C014FB7F8948091830390918403A091E7
:104A30008503B09186034FBF821B930B0895789432
:104A40001F920F920FB60F9211248F939F93AF93E3
:104A5000BF938091830390918403A0918503B091CB
:104A600086030196A11DB11D809383039093840357
:104A7000A0938503B0938603BF91AF919F918F91CF
:104A80000F900FBE0F901F90189587E797E79093B0
:104A90000108809300089AE088E10FB6F894A89581
:104AA000809360000FBE90936000FFCF9AE088E192
:104AB0000FB6F894A895809360000FBE90936000A5
:104AC000FFCF80912E0308959B0190918B0394302A
:104AD000F1F48F708093E9008FEF9091E80081509E
:104AE00095FD06C095ED9A95F1F700008111F5CF7F
:104AF0008091E80085FF0BC0BA01C90140E050E099
:104B00000E94AC278091E8008E778093E80008959A
:104B100043E050E0BC0184E00E946425089546E033
:104B200050E0BC0184E00E946425089540E250E01A
:104B3000BC0184E00E9464250895CF93DF93EC01CB
:104B400048E050E0BC0181E00E94642588E0FE015D
:104B5000A6E2B3E001900D928A95E1F7DF91CF9143
:104B60000895603231F4BC0140E250E082E00E94DE
:104B70006425089580918A03811109C00E947C29CF
:104B80000E94D9298091E20084608093E200089518
:104B900010928A0308950E946D24089560918703FE
:104BA00081E0611101C080E00E9454240895909139
:104BB0008B0381E0943009F080E0609187030E94CC
:104BC0005A24089542E061EC81E00E94F52842E217
:104BD00061EC84E00E94F52842E261EC82E00E94F0
:104BE000F52842E260EC83E00E94F52890918B0367
:104BF00081E0943009F080E0609187030E94642492
:104C0000089580918D03833009F463C030F48130BE
:104C100071F0823009F49DC008958A3009F489C08A
:104C20008B3009F46EC0893009F0ABC020C0809190
:104C30008C03813A09F0A5C08091E800877F8093BA
:104C4000E8008091900390919103892B21F468E012
:104C500086E293E003C060E080E090E070E00E94B4
:104C600036288091E8008B778093E8000895809142
:104C70008C03813209F085C080919003909191035B
:104C8000009719F0029709F07CC08091E800877FB7
:104C90008093E8008091E80082FD05C080918B033D
:104CA0008111F8CF6EC02091F3008091F20090E066
:104CB000922B029731F48091F100813011F086300F
:104CC00021F48091F10080932E038091E8008B778E
:104CD00054C080918C03813A09F053C080919003B5
:104CE00090919103892B09F04CC08091E800877F57
:104CF0008093E8008091E80080FFFCCF8091630101
:104D000037C080918C038132E1F5809190039091BE
:104D10009103892BB1F58091E800877F8093E800AB
:104D20000E942A2980918E03809363010E94540A75
:104D3000089580918C03813221F58091E800877F6E
:104D40008093E8000E942A2980918F0380932F038B
:104D5000089580918C03813AA1F48091E800877FC7
:104D60008093E8008091E80080FFFCCF80912F03C2
:104D70008093F1008091E8008E778093E8000E9494
:104D80002A29089584B7877F84BF0FB6F894A89521
:104D900080916000886180936000109260000FBE77
:104DA00090E080E80FB6F8948093610090936100E2
:104DB0000FBE0E94672408950E947C290E94D92971
:104DC000E2EEF0E080818460808378940E94642C1D
:104DD000089589E591E00E94B022089580918B03A7
:104DE0008530A9F480918B03853079F40E94BF242B
:104DF000809189038823B1F30E948024882391F352
:104E00000E9496270E94540AEDCF0E94EA2408953A
:104E1000A0E2B0E0EEE0F7E20C942A2D80918B0343
:104E2000843011F583E08093E9008091E80082FFEF
:104E30001BC08091E80085FF0AC040E050E060E2BE
:104E400070E0CE0101960E94F12791E001C090E050
:104E50008091E8008B778093E800992329F060E245
:104E6000CE0101960E943E1DA096E2E00C94462DD4
:104E70009A0140919203509193030E944027089514
:104E8000492F552743305105C9F060F44130510591
:104E900081F04230510509F041C08BE590E048E1D6
:104EA00056E040C041325105E1F04232510531F146
:104EB00035C082E190E043E756E034C09927813065
:104EC000910549F028F0029749F5EAEDF5E005C0B3
:104ED000E4E1F6E002C0E0EFF5E0849190E0AF019C
:104EE00021C063307105D0F4660F771FFB01ED5EC2
:104EF000FD4F4081518189E090E014C0633071051D
:104F000068F4FB01EE0FFF1FE35FFD4F408151810D
:104F1000FB01E65FFD4F808190E004C080E090E0FF
:104F200040E050E0F90151834083089580E189BD5C
:104F300082E189BD09B400FEFDCF8091D8008F7D4C
:104F40008093D8008091E00082608093E00080919F
:104F5000E00081FDFCCF0895A0E0B0E0E2EBF7E2D5
:104F60000C94242DEC018B017A010E9449298111B6
:104F700033C0E114F10439F0F70180819181081BFD
:104F8000190BC80FD91FC12CD12C0115110519F10E
:104F90008091E80085FD16C08091E8008E778093AF
:104FA000E800E114F10449F0F70180819181C80E15
:104FB000D91ED182C08285E00FC00E944929882372
:104FC00021F30AC089918093F10001501109FFEF8C
:104FD000CF1ADF0ADACF80E0CDB7DEB7E8E00C9475
:104FE000402DA0E0B0E0E7EFF7E20C94242DEC01B7
:104FF0008B017A010E944929811133C0E114F10427
:1050000039F0F70180819181081B190BC80FD91F56
:10501000C12CD12C0115110519F18091E80085FDF5
:1050200016C08091E8008B778093E800E114F104CA
:1050300049F0F70180819181C80ED91ED182C082CA
:1050400085E00FC00E944929882321F30AC080917E
:10505000F100899301501109FFEFCF1ADF0ADACF6F
:1050600080E0CDB7DEB7E8E00C94402D20919203AC
:10507000309193032617370748F06115710539F40D
:105080002091E8002E772093E80001C0B901FC01CF
:1050900020E06115710579F180918B038823F1F18E
:1050A0008530F1F18091E80083FD3CC08091E800FB
:1050B00082FD2EC08091E80080FFEBCF2091F300AD
:1050C0008091F20090E0922B6115710551F08830CB
:1050D000910538F421912093F100615071090196F6
:1050E000F3CF21E0089709F020E08091E8008E7767
:1050F0008093E800CECF2111CFCF0AC080918B03DF
:10510000882361F0853061F08091E80083FD0AC05A
:105110008091E80082FFF2CF80E0089582E0089558
:1051200083E0089581E008952091920330919303E4
:105130002617370748F06115710539F42091E8000A
:105140002E772093E80001C0B901FC0120E0611531
:10515000710591F180918B03882309F440C085305B
:1051600009F43FC08091E80083FD3DC08091E800D4
:1051700082FD2FC08091E80080FFE9CF2091F300ED
:105180008091F20090E0922B6115710559F0883002
:10519000910540F424912093F100319661507109FA
:1051A0000196F2CF21E0089709F020E08091E80015
:1051B0008E778093E800CBCF2111CCCF0AC08091AD
:1051C0008B03882361F0853061F08091E80083FDD6
:1051D0000AC08091E80082FFF2CF80E0089582E06B
:1051E000089583E0089581E00895982F973068F539
:1051F0009093E900981739F07091EC002091ED0040
:105200005091F00003C0242F762F50E021FD02C002
:105210009F5FECCF3091EB003E7F3093EB003091FD
:10522000ED003D7F3093ED003091EB003160309325
:10523000EB007093EC002093ED005093F000209170
:10524000EE0027FDE5CF80E008958F708093E900A0
:1052500081E0089580918C0387FF11C08091E80060
:1052600082FD05C080918B038111F8CF11C0809120
:10527000E8008B770BC080918B03882349F08091E5
:10528000E80080FFF8CF8091E8008E778093E800F7
:1052900008952091E4003091E50095E64091EC00FE
:1052A000842F817040FF23C08091E80080FD1DC0E5
:1052B00080918B03882399F0853099F08091EB00E1
:1052C00085FD11C04091E4005091E5002417350799
:1052D00029F3915011F09A01E1CF84E0089582E022
:1052E000089583E0089581E0089580E00895409155
:1052F000E80042FFDDCF08950E94EB290E94F329C8
:10530000E0EEF0E0808181608083E8EDF0E0808174
:105310008F77808319BCA7EDB0E08C918E7F8C9342
:1053200080818F7E808310928A0308950F931F934C
:10533000CF93DF930E94EB290E94F329C8EDD0E0C0
:1053400088818F77888388818068888388818F7D32
:10535000888319BC10928B031092870310928903E3
:105360001092880300EE10E0F80180818B7F80832B
:1053700088818160888342E060E080E00E94F528B7
:10538000E1EEF0E080818E7F8083E2EEF0E08081CC
:1053900081608083808188608083F80180818E7F36
:1053A0008083888180618883DF91CF911F910F91E5
:1053B0000895E8EDF0E080818F7E8083E7EDF0E0F6
:1053C00080818160808384E082BF81E080938A0352
:1053D0000E9496290895E8EDF0E080818E7F808319
:1053E0001092E20008951092DA001092E100089500
:1053F0001F920F920FB60F9211242F933F934F934A
:105400005F936F937F938F939F93AF93BF93EF932C
:10541000FF938091E10082FF0BC08091E20082FF48
:1054200007C08091E1008B7F8093E1000E94632C94
:105430008091DA0080FF1FC08091D80080FF1BC0E0
:105440008091DA008E7F8093DA008091D90080FF0E
:105450000DC080E189BD82E189BD09B400FEFDCFA8
:1054600081E080938B030E94BA2505C019BC10927D
:105470008B030E94C8258091E10080FF19C08091B4
:10548000E20080FF15C08091E2008E7F8093E200F1
:105490008091E20080618093E2008091D800806278
:1054A0008093D80019BC85E080938B030E94CE25A1
:1054B0008091E10084FF30C08091E20084FF2CC025
:1054C00080E189BD82E189BD09B400FEFDCF8091F4
:1054D000D8008F7D8093D8008091E1008F7E8093EB
:1054E000E1008091E2008F7E8093E2008091E200F3
:1054F00081608093E20080918703882311F084E02B
:1055000007C08091E30087FD02C081E001C083E015
:1055100080938B030E94D7258091E10083FF29C0EF
:105520008091E20083FF25C08091E100877F809316
:10553000E10082E080938B03109287038091E10069
:105540008E7F8093E1008091E2008E7F8093E20065
:105550008091E20080618093E20042E060E080E0C0
:105560000E94F5288091F00088608093F0000E94EE
:10557000CB25FF91EF91BF91AF919F918F917F913B
:105580006F915F914F913F912F910F900FBE0F90B0
:105590001F9018951F920F920FB60F9211242F9300
:1055A0003F934F935F936F937F938F939F93AF93AB
:1055B000BF93CF93DF93EF93FF93C091E900CF7038
:1055C0008091EC00D82FD17080FDD0E81092E900D6
:1055D0008091F000877F8093F00078940E940E2BDA
:1055E0001092E9008091F00088608093F000CD2B4C
:1055F000CF70C093E900FF91EF91DF91CF91BF9100
:10560000AF919F918F917F916F915F914F913F915A
:105610002F910F900FBE0F901F901895AAE2B0E047
:10562000E4E1FBE20C94292DECE8F3E08091F10039
:10563000819323E0E439F207C9F70E9401268091A3
:10564000E80083FF2EC180918C0390918D03492F38
:1056500050E04A30510508F024C1FA01E154FF4FEF
:105660000C94E32C803821F0823809F01AC108C06C
:105670008091880390918903992389F082600FC0FB
:10568000809190038F70873008F00BC18093E90000
:105690008091EB0085FB882780F91092E9009091BA
:1056A000E800977F9093E8008093F1001092F1005A
:1056B000D1C0282F2D7F09F0F4C0882319F0823043
:1056C00061F0EFC080918E03813009F0EAC0933021
:1056D00009F080E0809389032EC080918E038111B0
:1056E0002AC0809190038F702FEF280F263008F08A
:1056F000D8C08093E9002091EB0020FF1CC09330BC
:1057000021F48091EB00806214C09091EB009061D5
:105710009093EB0021E030E0A90102C0440F551F37
:105720008A95E2F74093EA001092EA008091EB003C
:1057300088608093EB001092E9008091E800877FF9
:105740008093E8000E942A29ACC08111AAC0109160
:105750008E031F778091E3008078812B8093E30094
:105760008091E800877F8093E8000E942A29809139
:10577000E80080FFFCCF8091E30080688093E30025
:10578000111102C082E001C083E080938B0389C0C5
:105790008058823008F085C080918E0390918F03ED
:1057A0008C3D53E0950779F583E08A838AE289830B
:1057B0004FB7F894DE01139620E03EE051E2E32F6C
:1057C000F0E050935700E49120FF03C0E295EF70A2
:1057D0003F5FEF708E2F90E0EA3010F0C79601C067
:1057E000C0968D939D932F5F243149F74FBF8091D1
:1057F000E800877F8093E8006AE270E0CE010196BE
:105800000E94362816C06091900370919103AE01FA
:105810004F5F5F4F0E943827BC01892B09F441C0BC
:105820009091E800977F9093E80089819A810E9487
:1058300094288091E8008B778093E80032C080380C
:1058400081F58091E800877F8093E800809187034D
:105850008093F1008091E8008E7772CF811121C092
:1058600080918E0390918F0399270297D4F48091B1
:10587000E800877F8093E80080918E038093870300
:105880000E942A2980918703811106C08091E3003C
:1058900087FD02C081E001C084E080938B030E94F9
:1058A000E2258091E80083FF0AC08091E800877FAD
:1058B0008093E8008091EB0080628093EB00AA96D1
:1058C000E3E00C94452D0895CF9380918B038823BA
:1058D000A1F0C091E900CF709091EC00892F817008
:1058E00090FD80E8C82B1092E9008091E80083FDCC
:1058F0000E940E2BCF70C093E900CF910895991BA1
:1059000079E004C0991F961708F0961B881F7A95B6
:10591000C9F78095089587FB082E062687FD819597
:1059200067FD61950E947F2C0EF4919507FC81958F
:105930000895AA1BBB1B51E107C0AA1FBB1FA617D6
:10594000B70710F0A61BB70B881F991F5A95A9F728
:1059500080959095BC01CD01089597FB072E16F414
:10596000009407D077FD09D00E94992C07FC05D040
:105970003EF4909581959F4F0895709561957F4F66
:105980000895A1E21A2EAA1BBB1BFD010DC0AA1F80
:10599000BB1FEE1FFF1FA217B307E407F50720F098
:1059A000A21BB30BE40BF50B661F771F881F991F13
:1059B0001A9469F760957095809590959B01AC015C
:1059C000BD01CF010895EE0FFF1F0590F491E02D6A
:1059D00009940E94F12C332312F48A1B9B0B0C9424
:1059E000022DA29FB001B39FC001A39F700D811D26
:1059F0001124911DB29F700D811D1124911D0895D8
:105A00000E94F12CB7FF0895821B930B08950E940A
:105A1000F12CA59F900DB49F900DA49F800D911D1A
:105A200011240895B7FF0C94072D0E94072D821BA7
:105A3000930B08952F923F924F925F926F927F92B5
:105A40008F929F92AF92BF92CF92DF92EF92FF928E
:105A50000F931F93CF93DF93CDB7DEB7CA1BDB0B3A
:105A60000FB6F894DEBF0FBECDBF09942A883988DF
:105A700048885F846E847D848C849B84AA84B984E6
:105A8000C884DF80EE80FD800C811B81AA81B981F2
:105A9000CE0FD11D0FB6F894DEBF0FBECDBFED0106
:105AA00008950F93083090F0982F872F762F652F49
:105AB000542F432F322F22270850F4CF220F331FA9
:105AC000441F551F661F771F881F991F0A95B2F73D
:105AD0000F91089597FB10F8169400080F93083063
