:100000000C94DB020C9422030C9422030C94220324
:100010000C9422030C9422030C9422030C942203CC
:100020000C9422030C9422030C9410310C94E231B2
:100030000C944D2B0C9422030C9422030C94220359
:100040000C9422030C9422030C9422030C9422039C
:100050000C9422030C94C22B0C9422030C942203C4
:100060000C9422030C9422030C9422030C9422037C
:100070000C9422030C9422030C9422030C9422036C
:100080000C9422030C9422030C9422030C9422035C
:100090000C9422030C9422030C9422030C9422034C
:1000A0000C9422030C9422030C9422035E065E0639
:1000B0008A068A06F2061007F707F7071B07830769
:1000C000940794079B089B08AD08AD08A408AD08E9
:1000D000AD08AD089B089B08A908AD08AD08A908A4
:1000E0009C249F24BF24D024D824E3242925292517
:1000F000292529252925E624E924EE24FB240825A1
:100100000B250F251C2529252925292529252925C4
:10011000292529252925292529252925292529256F
:100120008324862489248C2490249324962499243F
:100130004F3276326E3376326E33C232E5326E3300
:100140003C334B33004636260047372700A89888B3
:1001500000A9998900746454007565550076665647
:100160000079695900A4948400A5958500A6968617
:1001700000A79787004E3E2E004F3F2F0050403083
:1001800000514131007C6C5C007D6D5D007E6E5ED7
:1001900000817161008373630082726229002B0009
:1001A0002A0001515300540055002E005F006000EA
:1001B000610056005C005D005E00570059005A0067
:1001C0005B0058006200000063000000005CDE5C21
:1001D00001000100B200B300AF00B100C35CC95C14
:1001E000C55CAA00CC5CC25CCB5CA9000100CA5C07
:1001F00001000100010000000100000001000100F9
:1002000001000100010001000100010001000100E6
:1002100001000100010001000100010001000100D6
:1002200001000100010000000100000001000100C8
:1002300001000100010001000100010001000100B6
:1002400001000100010001000100010001000100A6
:10025000010001000100000001000000000000009A
:10026000000000002A2B2800000000000000000011
:100270000000000000000029000000002C1E3420B7
:10028000212224342627252E362D3738271E1F20DD
:100290002122232425263333362E37381F04050622
:1002A0000708090A0B0C0D0E0F1011121314151666
:1002B0001718191A1B1C1D2F3130232D3504050664
:1002C0000708090A0B0C0D0E0F1011121314151646
:1002D0001718191A1B1C1D2F3130354C0000000057
:1002E000000000000000000000000000000000000E
:1002F00000000000000000000000000000000000FE
:100300007E0F00D4FFFFFFC700000078000101014D
:1003100001010101010102020202020202020203C2
:100320000303030303030304040404040404050592
:100330000505050606060606070707070708080855
:1003400008090909090A0A0A0B0B0B0C0C0C0D0D04
:100350000D0E0E0E0F0F0F1010111111121213139C
:100360001414151516161717181819191A1A1B1B15
:100370001C1D1D1E1E1F2020212222232424252671
:1003800026272829292A2B2C2D2D2E2F30313232A9
:10039000333435363738393A3B3C3D3E3F404142B5
:1003A000434445464748494A4C4D4E4F505153549B
:1003B000555658595A5B5D5E5F616264656668694F
:1003C0006B6C6D6F7072737577787A7B7D7E8082CF
:1003D000838587888A8C8E8F91939596989A9C9E18
:1003E000A0A2A3A5A7A9ABADAFB1B3B5B7BABCBE28
:1003F000C0C2C4C6C9CBCDCFD1D4D6D8DBDDDFE2F5
:10040000E4E7E9EBEEF0F3F5F8FAFDFF0E034E003A
:1004100055004D0050004100440000000E035800FC
:100420002D0042004F005700530000000403090450
:1004300009025B00030100A0FA09040000010301A6
:100440000100092111010001224000070581030874
:10045000000A090401000203000000092111010043
:100460000122220007058203400001070503034023
:10047000000109040200010300000009211101002C
:100480000122B6000705840320000A1201000200C1
:10049000000008EDFE28120100010200010660FFC5
:1004A0000961A1010962150026FF009540750881C8
:1004B000020963150026FF00954075089102C005EA
:1004C000010902A10185020901A1000509190129FB
:1004D00008150025019508750181020501093009FB
:1004E000311581257F95027508810609381581250A
:1004F0007F950175088106050C0A38021581257F54
:10050000950175088106C0C005010980A101850318
:1005100019012AB700150126B70095017510810051
:10052000C0050C0901A101850419012AA0021501C9
:1005300026A002950175108100C005010906A101E0
:100540008506050719E029E71500250195087501BD
:1005500081020507190029EF1500250195F07501A5
:10056000810205081901290595057501910295017A
:1005700075039101C005010906A101050719E029CC
:10058000E71500250195087501810295017508811F
:10059000010507190029FF150026FF0095067508BB
:1005A000810005081901290595057501910295013C
:1005B00075039101C00011241FBECFEFDAE0DEBF4A
:1005C000CDBF04B603FE27C0809121049091220480
:1005D000A0912304B09124048730904BA740B04BE6
:1005E000D1F410922104109222041092230410924C
:1005F000240414BE84B7877F84BF0FB6F894A895EF
:1006000080916000886180936000109260000FBE4E
:10061000E0E0F8E3099512E0A0E0B1E0E2E1FAE6FB
:1006200002C005900D92AC30B107D9F724E0ACE0E0
:10063000B2E001C01D92A132B207E1F70E94091396
:100640000C9407350C9400000E94D72980FF07C046
:100650002FEF4FEF6FEF84E090E00C94491808956E
:1006600081E0089581E008950C94320308950C947C
:1006700036031F93CF93DF9300D000D01F92CDB7E6
:10068000DEB749835A836B8330910E0289819A8148
:10069000311114C0662359F0222349F00E948F09BA
:1006A000182F682F89819A810E943A0903C00E94FD
:1006B0006409182F69817A81812F04C00E948F09F3
:1006C00069817A810F900F900F900F900F90DF91BA
:1006D000CF911F910C942B27FC01262F4081518133
:1006E0006281738184810C94390381E00895CF93F2
:1006F000DF93EC0160E00E946C03BE01DF91CF91BB
:100700000C943703E1E0F0E0DF0102C0AA0FBB1F49
:100710006A95E2F7BD01DF0102C0AA0FBB1F4A952F
:10072000E2F7AD01462B01C0EE0F2A95EAF7942FB0
:100730009823491302C08E2B0895E0958E230895C7
:10074000242F462F682F809118020E9482030C9458
:10075000F7080E949C110E9411050E94411F0C94F1
:10076000CC110C94C8110E94781E80E00E941205E2
:1007700081E00C94771F08950C94BB030E948908B4
:100780000E94BC032FEF84E39CE021508040904006
:10079000E1F700C000000C94E82B0F931F93CF9358
:1007A000DF938C0161E00E946C03EC01B8010E94B0
:1007B000BF23882309F44BC0B801CE010E94340343
:1007C000882309F444C0B801CE010E9491288823EF
:1007D000F1F1B801CE010E9435258823C1F1B8019D
:1007E000CE010E94ED27882391F1B801CE010E942D
:1007F000C622882361F1F8018281882309F1CA3574
:100800008DE5D807C1F050F4C115FCE5DF0781F094
:10081000CE3DDC45A9F40E94A30E19C0CB35EDE511
:10082000DE0761F0CC35DD4559F40E94E70D08C0C4
:100830000E94BE030CC00E94F00D02C00E94F30D86
:10084000C801DF91CF911F910F910C94300380E08C
:10085000DF91CF911F910F9108950C94BB030E94DB
:10086000CB290E94120580E00E94771F0C942D0472
:10087000DF92EF92FF920F931F93CF93DF93E82FB6
:10088000F0E0E45AFD4FD490282F26952695269522
:1008900030E0F901E450FD4F0491877010E0082E1C
:1008A00002C0159507950A94E2F701701127F90126
:1008B000E451FD4FE490F12C082E02C0F594E7942A
:1008C0000A94E2F791E0E922FF24F901E452FD4F96
:1008D000C491D0E002C0D595C7958A95E2F7C17062
:1008E000DD270115110519F081EE0E946B05E11459
:1008F000F10419F086EE0E946B058D2D0E940C0606
:10090000EF2819F086EE0E94C105012B19F081EE47
:100910000E94C105CD2B51F08CE2DF91CF911F9148
:100920000F91FF90EF90DF900C940C06DF91CF9128
:100930001F910F91FF90EF90DF900895EF92FF923B
:100940000F931F93CF93DF93EC01162F0AE088815A
:10095000882309F455C0813009F043C08981813072
:1009600041F47E0182E0E80EF11C8A810E940C06AF
:1009700009C0823049F47E01E2E0EE0EF11C8A816A
:100980000E946B05E7012FC0833041F47E01F2E045
:10099000EF0EF11C8A810E94C105F4CF843011F062
:1009A000219621C02A81229680E090E030E02053F9
:1009B00031092A30310558F4089FA001099F500DD4
:1009C0001124C901840F951F21962881EFCF00972C
:1009D00051F0EFE9FFE03197F1F700C00000019717
:1009E000F6CF0E9438042196812F882309F4AFCFD7
:1009F000EFE9FFE03197F1F700C000008150F5CF3B
:100A0000DF91CF911F910F91FF90EF90089560E0DB
:100A10000C949E0408950C940A0581E008950C94AA
:100A20000D050895CF93C82F0E940B058C2F0E94AF
:100A30000F05CF910895CF93DF93CDB7DEB72B97F6
:100A40000FB6F894DEBF0FBECDBF4F8358876987BE
:100A50007A878B8761110E94400D9E012F5F3F4F67
:100A600086E0F90111928A95E9F785E0FE01379653
:100A7000D90101900D928A95E1F789819A814C8183
:100A80005D81452B31F09F3F31F491E08F3F19F4A8
:100A900003C091E001C090E090FF09C049815A81F4
:100AA0006B817C818D819E810E94610C05C0C90192
:100AB0000E9475038111F2CF2B960FB6F894DEBF1A
:100AC0000FBECDBFDF91CF910895FC018081918150
:100AD0000E94BC090895CF93882309F450C0C82F01
:100AE0008CEF8C0F813AD0F46C2F80916001909143
:100AF00061010E94442A882349F06C2F8091600193
:100B0000909161010E94CF2A0E94650D6C2F809107
:100B10006001909161010E94C42A0CC080E28C0F98
:100B2000883058F4C77081E001C0880FCA95EAF791
:100B30000E94230DCF910C94650DEBE5EC0FE33093
:100B400040F4F0E0E255FE4F808190E0CF910C94AC
:100B5000022AE8E5EC0FE73150F4F0E0EE0FFF1F5A
:100B6000E058FE4F80819181CF910C94182AC03FAC
:100B700030F08C2F0E949813CF910C946A14CF916F
:100B80000895882389F19CEF980F913A40F4682FDB
:100B900080916001909161010E94CF2A0DC090E286
:100BA000980F983058F4877091E001C0990F8A959A
:100BB000EAF7892F0E94290D0C94650D9BE5980F8B
:100BC000933020F480E090E00C94022A98E5980F8E
:100BD000973120F480E090E00C94182A803F20F0B8
:100BE0000E94F3130C946A1408951F93CF93DF931C
:100BF000182FEB010E946B05209741F08FE99FE0D1
:100C00000197F1F700C000002197F6CF812FDF9107
:100C1000CF911F910C94C105893319F060E070E009
:100C200002C060E570E00C94F505882321F00E9475
:100C3000230D0C94650D0895882321F00E94290D41
:100C40000C94650D0895CF92DF92EF92FF920F936F
:100C50001F93CF93DF937C01162FC72FFC01D28106
:100C6000058102950F700E94190D8823B9F0DD23CC
:100C7000A9F08C2F807F803421F080E2810F8830B2
:100C800068F080910C0382FD09C082E00E94B50DDE
:100C90000E94190D91E0D82ED92601C0D12CCC2E5E
:100CA000C2948FE0C8228C2D90E08C30910508F022
:100CB0009EC1FC01EA5AFF4F0C940B348C2F807FAD
:100CC000CF70882311F0C295C07FDD2399F0CC232B
:100CD00009F479C180E2810F883010F0111104C04D
:100CE0008C2F0E94230D03C08C2F0E94330D0E9475
:100CF000650D69C1812F0E94C105CC2309F477C11C
:100D000080E2810F883038F1112329F18C2F0E9465
:100D1000390D24C08C2F807FCF70803211F0C295A6
:100D2000C07F112319F01130A1F13DC080910C0357
:100D300082FF17C0DD2349F0CC2329F08C2F0E94BD
:100D4000230D0E94650D80E03FC180E00E94C10537
:100D5000CC2309F44CC18C2F0E94290D0E94650DF3
:100D600046C1DD2371F0002341F0013031F40E94CF
:100D7000460D8C2B0E944E0D3AC10E94460D8C2BC5
:100D80001DC0002319F0013009F431C10E945B0D30
:100D900025C0DD2321F0063008F029C10EC0053042
:100DA00008F025C11BC0DD2361F0002331F0F701FD
:100DB000858180FF08C18F7085838C2F0E94150666
:100DC00016C1002359F0193309F00EC1FFEF27EEC9
:100DD00083E0F15020408040E1F704C18C2F0E9455
:100DE0001C0605C18C2F86958695837019F081307D
:100DF00061F0FDC0DD2321F0812F9C2F937002C094
:100E000080E090E00E94022AFAC0DD2321F0812FC9
:100E10009C2F937002C080E090E00E94182AEFC0DF
:100E2000812FDD2319F00E94981302C00E94F31352
:100E30000E946A14E4C08C2F837079F5D111DBC055
:100E4000412F429546954770440F440F212F2F7034
:100E5000042E01C0220F0A94EAF714FF08C08FE0A5
:100E600090E001C0880F4A95EAF7809501C080E0C4
:100E7000C695C695C370822BC23049F058F4C13074
:100E800019F00E94EB08B7C00E94E608B4C00E94A7
:100E9000F008B1C00E94E408AEC0DD2319F08C2F29
:100EA000817001C08695882309F4A5C0412F429521
:100EB00046954770440F440F212F2F70042E01C018
:100EC000220F0A94EAF714FF08C08FE090E001C0F7
:100ED000880F4A95EAF7809501C080E0C695C695CF
:100EE000C370822BC23049F058F4C13019F00E940F
:100EF0002F0981C00E942A097EC00E9434097BC04C
:100F00000E94F70878C0CF70DD2339F08C2F0E9443
:100F10000809812F0E9415066EC0812F0E941C06B1
:100F20008C2F0E94130967C0123F21F128F4103F53
:100F300041F0113FC1F043C0133F19F1143F79F064
:100F40003EC0DD2341F0053008F051C08C2F8F7179
:100F50000E941F094CC0063008F049C0F7CF8091AD
:100F60000C0382FF18C0DD2339F08C2F8F710E9493
:100F700008093DC0DD23C9F38C2F8F710E9413092E
:100F800036C0DD2329F08C2F8F710E9400092FC0FD
:100F90000E94FD082CC0DD2349F0CF718C2F0E94E8
:100FA000080963E08C2F0E949A0D21C081E00E9405
:100FB000B50D0230E0F082E00E94B50D18C0DD23CF
:100FC00031F0002391F2812F0E946B0510C00023A5
:100FD00099F2193349F49FEFE7EEF3E09150E040C6
:100FE000F040E1F700C00000812F0E94C10588EFAA
:100FF0008C0D843020F40E94CB290E941205DD2044
:10100000C9F00E94150D80FD15C0F70112820E94E3
:101010000F0D0E940809C7010E943B080E940F0D96
:10102000DF91CF911F910F91FF90EF90DF90CF90C4
:101030000C941309DF91CF911F910F91FF90EF90C6
:10104000DF90CF9008950F931F93CF93DF93EC0120
:10105000688179818A810E94C7098C010E943909BF
:101060000E94D808B801CE010E942306DF91CF91DB
:101070001F910F910895CF93DF93EC01988189819F
:101080002B813C81232B31F08F3F31F481E09F3F56
:1010900019F403C081E001C080E080FD1DC0CE01D5
:1010A0000E94CD03811110C00E94190D8823A1F068
:1010B0008A81882389F080910C0382FD0DC082E033
:1010C000DF91CF910C94B50DCE010E942308CE0183
:1010D000DF91CF910C947703DF91CF91089580E059
:1010E00090E00E94022A80E090E00E94182A0E946C
:1010F000400D0E94430D0E94650D0E949B150C94AB
:101100006A1480916001909161010E94DA2A0C9426
:101110006F080E94300D0C948108E92FE295EF7062
:101120004E2F50E0FA013297EE30F105B0F4EE594F
:10113000FF4F0C940B34803F91F018F4883E68F414
:101140000EC0843F51F40BC0883E48F0813F29F423
:1011500006C093FB882780F9089580E0089581E018
:101160000895FC01808191810E94BC090E948D0834
:101170000895CF93DF9300D000D01F92CDB7DEB794
:101180000F900F900F900F900F90DF91CF910895D7
:10119000CF93DF9300D000D000D0CDB7DEB7269636
:1011A0000FB6F894DEBF0FBECDBFDF91CF9108958B
:1011B000089508950C94D9080C94DA080E94DC086C
:1011C000809319020C946F080C94DE089091190218
:1011D000892B0C94DE089091190289230C94DE0867
:1011E0009091190289270C94DE080C94D9080E946A
:1011F000F508809318020C946F0880E00C94F708AF
:1012000091E001C0990F8A95EAF7892F0C94F708AD
:1012100021E030E001C0220F8A95EAF780911802A0
:10122000822B0C94F70821E030E001C0220F8A9550
:10123000EAF720958091180282230C94F70821E0A8
:1012400030E001C0220F8A95EAF7809118028227C8
:101250000C94F70890911802892B0C94F708909140
:10126000180289230C94F7089091180289270C948E
:10127000F7080895990F990F890FE82FE695E695DD
:10128000E695877051E001C0550F8A95EAF783E033
:10129000E89FF0011124E15FFD4F20E030E070E0B5
:1012A0004081CB01022E02C0969587950A94E2F701
:1012B0008170819584278523842781932F5F3F4FF9
:1012C0002330310569F70895990F990F890F682F19
:1012D000669566956695982F977083E0689FB00134
:1012E000112440E050E080E0FB01E40FF51FE15FD6
:1012F000FD4F208130E0092E02C0369527950A94D3
:10130000E2F721703327042E01C0220F0A94EAF776
:10131000822B4F5F5F4F4330510531F70895CF92D5
:10132000DF92FF920F931F93CF93DF936C01009195
:10133000180280911902082BC7E0D0E010E0C80124
:101340000C2E02C0959587950A94E2F780FD04C0A3
:101350002197A8F7F12C07C0FC2EB6018C2F0E9414
:10136000A6100197A9F38F2DDF91CF911F910F91B7
:10137000FF90DF90CF900895CF93DF93EC010E9410
:101380008F09BE010E94A610DF91CF9108951F938F
:10139000CF93DF93EB0190910E02992321F0CB01C3
:1013A0000E94BC0913C0882349F0CB010E948F0919
:1013B000182F682FCE010E943A0904C0CB010E9469
:1013C0006409182FBE01812F0E94A610DF91CF91D2
:1013D0001F9108951F93CF93DF93C0911A0216E0D7
:1013E00080911B02C81799F0D0E01C9FF0011D9F4F
:1013F000F00D1124E45EFD4F4081518162817381C3
:10140000848195810E94C8082196C770E9CFDF9139
:10141000CF911F91089540914C0250914D026091DF
:101420004E0270914F0280915002909151020C94A3
:10143000C808EF92FF920F931F93CF93DF93809191
:10144000510282958F7009F065C080914E02882309
:1014500009F460C080911A02F0901B0210914C02B6
:1014600000914D0260914F027091500291E01F3F38
:1014700009F090E0C0915E01D0915F01292F96E0C4
:10148000E92E8F1509F446C06115710521F00F3F53
:1014900021F030E003C031E001C0322F90E030FD98
:1014A00036C0E89EF001E99EF00D1124DF01A45E34
:1014B000BD4F11963C911197301329C03C913113C7
:1014C00026C012963C911297311121C013964D916E
:1014D0005C911497461B570B4C175D07C0F4809125
:1014E00051028F70806180935102EF5DFD4F8081CA
:1014F0008F70806180838CE492E00E943B08DF91D2
:10150000CF911F910F91FF90EF900C94EA090196F3
:101510008770B7CFDF91CF911F910F91FF90EF9020
:1015200008959F92AF92BF92CF92DF92EF92FF9277
:101530000F931F93CF93DF93CDB7DEB761970FB6AD
:10154000F894DEBF0FBECDBF8C0185E0F801DE014F
:101550001D9601900D928A95E1F7D8011296EC90B4
:1015600090914C02E0914D0220914F023091500237
:101570002115310531F0EF3F31F481E09F3F19F43F
:1015800003C081E001C080E0B82FB1709B2E80FDC8
:1015900047C1D8014C9111965C9111971396AD906B
:1015A000BC9014978CE4C82E82E0D82EF0904E02A6
:1015B000B501621B730B20915E0130915F01FF202A
:1015C00009F4D9C0809151026217730708F095C0E1
:1015D000282F207F09F052C05E1313C0491311C099
:1015E000FE2CE1100EC08F708061809351020E942A
:1015F0000B0AC6010E943B0880915102F8018583C5
:101600004DC1AB2831F05F3F31F481E04F3F19F419
:1016100003C081E001C080E080FD03C081E08E2531
:1016200002C080E090E0F82FF170FF2E80FF1CC018
:1016300080911A0220911B0236E0821709F40BC137
:1016400090E0389FF001399FF00D1124E45EFD4FCA
:101650006181561306C06081461303C06281E612A1
:1016600003C001968770E9CFFE2CEE2009F416C165
:101670008091510281608093510254C05E1306C074
:10168000491304C0E11002C0F80199C0C8010E94CA
:10169000B108882361F1EE2051F120915102822F8F
:1016A00082958F7090E0029774F080914C02909137
:1016B0004D0298878F831986BB86AA862C87CE0118
:1016C00007960E943B0886E0F801ACE4B2E0019086
:1016D0000D928A95E1F70E94190A0E940B0A0AC02E
:1016E0005E1711F1C8010E94B10881112CC0C80118
:1016F0000E943B08FF24F394D1C0282F207F81F75C
:101700007A2DB98AA88A6E2D89890E94B9088CE43D
:1017100092E00E943B0886E0D6011D928A95E9F787
:101720000E940B0AF12CBAC04913DCCFE110DACFCA
:10173000F8018583C8010E943B0886E0D6011D920E
:101740008A95E9F7ABC0EE2091F220915102822FE9
:1017500082958F7090E002970CF4B5CF80914C0287
:1017600090914D029A8389831B82BD82AC822E8325
:10177000CE010196A6CF6217730708F044C0FE2C75
:10178000EE2009F4B4CF5E1330C049132EC020916F
:10179000510220FD21C0822F82958F70482F50E08A
:1017A00041155105C9F0F80125834F30510541F02D
:1017B0008F5F982F9295907F822F8F70892B8583D2
:1017C000C8010E943B0886E0F801ACE4B2E0019059
:1017D0000D928A95E1F73CC086E0F801ACE4B2E0F6
:1017E00001900D928A95E1F759C0C8010E94B10895
:1017F000811169CF80915102816080935102C801AB
:101800000E943B084BC07A2DB98AA88A6E2D89891F
:101810000E94B90886E0D6011D928A95E9F718C0A2
:10182000EE2009F464CFC8010E94B108F82E882385
:1018300009F45DCF86E0F801ACE4B2E001900D92CE
:101840008A95E1F78CE492E00E9465050E94190AEE
:101850000E940B0A23C04D875E878D859E850E945E
:10186000BC09292F22952F70223028F49F7039F05F
:10187000811105C00BC0243028F49F7049F4805EAC
:10188000883020F0C8010E943B089F2CF92C06C02C
:10189000D80115969C91907F91F7F8CF8F2D619686
:1018A0000FB6F894DEBF0FBECDBFDF91CF911F9171
:1018B0000F91FF90EF90DF90CF90BF90AF909F90EF
:1018C00008951F93CF93DF93CDB7DEB72C970FB654
:1018D000F894DEBF0FBECDBF4F83588769877A87E4
:1018E0008B879C87CE0107960E94910A8823D1F0AE
:1018F0009F8188852A853B85232B31F08F3F31F4EA
:1019000081E09F3F19F403C081E001C080E080FDC9
:1019100047C04F81588569857A858B859C850E9453
:10192000C8083EC086E0FE013796DE0111960190A0
:101930000D928A95E1F7FF81E8856A857B856115BF
:10194000710531F0EF3F31F481E0FF3F19F403C03E
:1019500081E001C080E080FD23C020911B0230E0C7
:10196000C90101968770992740911A0250E08417A7
:101970009507F1F1F983EA837D836C8396E0929F6A
:10198000D001939FB00D1124A45EBD4FFE0131968E
:1019900001900D929A95E1F780931B020E94EA094B
:1019A00016E080911A0290911B02891771F1189F1D
:1019B000C0011124845E9D4F0E94910A882329F161
:1019C000E0911A021E9FF0011124E45EFD4F408158
:1019D000518162817381848195810E94C8088091C0
:1019E0001A0290E001968770992780931A02D9CF46
:1019F0000E94890810921B0210921A02ECE4F2E095
:101A000086E0DF011D928A95E9F72C960FB6F894CF
:101A1000DEBF0FBECDBFDF91CF911F9108958091A2
:101A2000520285958595859508958091520287701B
:101A3000089590915202977081E009F480E0089532
:101A400080917602089590917602892B8093760298
:101A50000895809590917602892380937602089567
:101A600010927602089590917502892B80937502E9
:101A70000895809590917502892380937502089549
:101A80001092750208951092740208958091530285
:101A9000089508950C94490D0C944A0D90910C03EF
:101AA00092FD08C090915302981721F08093530241
:101AB0000C944C0D089580915302882329F01092C4
:101AC000530280E00C944C0D0895E0916001F09178
:101AD0006101809176028083E0916001F091610163
:101AE000908180917502892B8083E0916001F09153
:101AF0006101908180917402892B808380915302CF
:101B0000882381F0E0916001F09161019081892B3F
:101B1000808380916001909161010E942E2A811141
:101B20000E945B0D80916001909161010C94DA2913
:101B30000C94490D90910C0392FD10C098E0899F80
:101B400090011124262B209352020E9408098091B3
:101B500052028595859585950C94980D0C940809ED
:101B60001092520280E00C94980D209152028095C0
:101B7000822380935202982F977099F430E0482F77
:101B8000082E000C550B2417350759F090910C03C3
:101B900092FD07C08595859585950E9413090C9443
:101BA000B00D089590910C0392FB222720F928177D
:101BB00069F080FB92F990930C0380910B03909154
:101BC0000C030E94200E82E00C94B50D08958091C4
:101BD0000C0382FB882780F991E089270C94D20DB1
:101BE00081E00C94D20D80E00C94D20D6FEF7FEF6A
:101BF00080E090E00C94DF3480E090E00E94AB3411
:101C0000893E9E4F11F40C94622380E0089582E097
:101C100090E00C94A33483E090E00C94A334CF9331
:101C200084E090E00E94A334C82F82E290E00E94FA
:101C3000A3342C2F30E0A901582BCA01CF9108956D
:101C4000CF93C92F682F84E090E00E94C1346C2F9D
:101C500082E290E0CF910C94C134AB01BC018FE0E3
:101C600090E00C94D334AB01BC0183E190E00C9480
:101C7000D33460E070E0CB010C94330E60E070E090
:101C8000CB010E942D0E0C94390E69EE7EEF80E0A0
:101C900090E00E94DF3460E082E090E00E94C13476
:101CA00060E083E090E00E94C1341092190260E08D
:101CB00084E090E00E94C13460E082E290E00E9403
:101CC000C13460E085E090E00E94C13460E086E0CD
:101CD00090E00E94C1346FEF87E090E00E94C13431
:101CE00040E050E0BA0188E090E00E94D33460E028
:101CF0008DE090E00E94C13440E050E0BA0188E1FC
:101D000090E00E94D33460E087E190E00E94C1340B
:101D100040E050E0BA018CE190E00E94D33460E0F2
:101D200070E080E290E00E94DF3440E050E0BA01D1
:101D300088E190E00E94D33480E00E947B230E94DF
:101D4000A7230C943E0E0C94450E682F8EE090E075
:101D50000C94C1340E948B2B609382027093830297
:101D6000809384029093850260937E0270937F0239
:101D70008093800290938102089585B7806885BF23
:101D800085B7806885BF089581E008950C94C40EDE
:101D900008950C94C80E0C94C80E0C94CB0E0C94A1
:101DA000C80E0C94CF0E0C94C80E0E94BD0E82E893
:101DB00091E10E94C1290E94D30E0C94D10E0E9481
:101DC000C90E0C94C80E0E94762B0E94B6230E9466
:101DD00069120C94CD0E9F92AF92BF92CF92DF9278
:101DE000EF92FF920F931F93CF93DF93CDB7DEB7A0
:101DF0002A970FB6F894DEBF0FBECDBF0E947E12A9
:101E000081110E94AA0E88E7A82E82E0B82E00E079
:101E100010E0902E802F0E94B611D82EF501C190AF
:101E20005F01C826B1F40F5F1F4F0630110589F717
:101E30008FEF89838A831B820E947F2B8160782F9A
:101E40009D838C8349815A816B818D810E941B0502
:101E500038C08091860281FD0E94BC11F12CEE24D5
:101E6000E3948C2D8E2139F10E94C60EDE2088234A
:101E700099F0FE829F8281E0D11001C080E08887C6
:101E80000E947F2B8160782F9A8789874E815F819E
:101E900068858A850E941B05F801E858FD4F8081FE
:101EA000E826E08241E0D11001C040E06F2D892D8D
:101EB0000E94B61C06C0F394EE0CF4E0FF12D1CFE2
:101EC000B2CF0E94781E0E9488140E94CB29909164
:101ED00077028917B9F00E94CB29809377022A965E
:101EE0000FB6F894DEBF0FBECDBFDF91CF911F912B
:101EF0000F91FF90EF90DF90CF90BF90AF909F90A9
:101F00000C9412052A960FB6F894DEBF0FBECDBF13
:101F1000DF91CF911F910F91FF90EF90DF90CF90C5
:101F2000BF90AF909F900895CF93DF930E94AB1026
:101F3000EC01811521E5920708F045C0811530E5D7
:101F4000930708F094C0883E910528F5803E9105DE
:101F500008F0F8C0883A910570F4853A910508F0C8
:101F60007CC08130910509F475C008F4E8C004977D
:101F700008F0E8C0E4C08F3B910508F0E0C0C85A03
:101F8000D0E0CC0FDD1FCF54DE4F0990D881C02D9B
:101F9000CE019464D8C0811540E2940758F48115AD
:101FA00051E0950708F0CEC0803F910508F4C7C006
:101FB0009065C9C0C11580E4D80708F4C0C0DF70BF
:101FC000CE01906AC0C0811525E59207A8F481155D
:101FD00034E5930708F095C0811543E5940708F0B0
:101FE0007BC0811552E5950708F061C0D82FCC273A
:101FF000CE01816F906AA7C0C11589E5D807A0F40A
:10200000C11528E5D20708F082C0C11536E5D3070F
:1020100008F095C08C2F0E943F118F7190E0D82F4F
:10202000CC27CE0190628FC0C1154AE5D40708F4D1
:1020300074C0CE0190568115904208F080C08D2F5B
:102040008F710E943F11DD27D0628F71AE01582B36
:10205000CA0179C081E090E076C0C55AD0E0C15293
:10206000DE4F8881C82FD0E0CE0190646CC074E050
:10207000969587957A95E1F7282F23703C2F33703A
:1020800081E090E002C0880F991F3A95E2F79C68C2
:10209000AC01522B9A019C2F9F709695969550E219
:1020A000959FE0011124C9018C2B9D2B4CC083709E
:1020B000992721E030E002C0220F331F8A95E2F712
:1020C0009C2F9695969580E2989FE0011124C22B53
:1020D000D32BCE019C6837C08370992721E030E074
:1020E00002C0220F331F8A95E2F79C2F9695969592
:1020F00040E2949FE0011124C22BD32BCE019A68B9
:1021000022C0D82FCC27CE01846F906A1CC0DC2F50
:10211000CC27CE01806F906A16C08C2F8F700E94E2
:102120003F1194E0D695C7959A95E1F7CF70D0E02E
:10213000DC2FCC27D0699E01282BC90104C080E088
:1021400090E001C0CE01DF91CF9108950E942B272E
:102150000E94940F08958238910569F1B0F481339B
:10216000910509F46DC048F48932910509F463C002
:102170008A32910509F469C008958533910509F4FF
:1021800055C089339105B9F00895833E910569F1F1
:1021900038F4803E9105B1F0823E910509F1089531
:1021A000863E9105A9F1873E9105B9F1843E9105DE
:1021B00009F064C023C020910B0320FD4FC021FD16
:1021C0004DC0089580910B0380FD44C080910C03A5
:1021D00080FF44C080910B0384FD42C083EE4DC05C
:1021E00080910B0382FF38C0F5CF80910B0382FDF5
:1021F00033C080910C0380FD31C0ECCF80910C0383
:1022000081FF32C080910B0384FD2AC087EE35C068
:1022100080910B0383FF26C0F5CF80910B0383FDD4
:1022200021C080910C0381FD1FC0ECCF80910B0376
:1022300085FD1CC01DC080910B0385FD19C016C013
:1022400080910B0386FD16C017C080910B0386FD9D
:1022500013C010C089E311C082EE0FC080EE0DC024
:1022600080E00BC086EE09C084EE07C089E205C09D
:1022700085E303C08AE201C081E390E00895909174
:102280000B0392FF0DC0282F2871283019F4877F87
:10229000846006C0282F2471243011F48B7F88605D
:1022A00093FF0DC0282F2871283119F4877E84618F
:1022B00006C0282F2471243111F48B7E886120916F
:1022C0000C0320FF0DC0382F3871383019F4877F88
:1022D000816006C0382F3171313011F48E7F8860F3
:1022E00021FF0DC0282F2871283119F4877E8161C4
:1022F00006C0282F2171213111F48E7E886194FD52
:10230000877E089580E008950C94F60D0E947E1259
:102310008FEB9DE50197F1F700C000000E947E124F
:1023200080E00E94B61180FF04C00E9484110C94CA
:10233000E82B08950C9486110E94FC0D811102C0B7
:102340000E94A30E0E94070E809386020E940F0E29
:1023500090930C0380930B030E949A110E940B0E22
:102360000E94E408809118020C94F508E82FF0E030
:10237000ED5EFC4F80810895089580EA8A95F1F71B
:10238000089500C008950C94BD1108950C94C511D2
:102390000C94C6110C94C5110C94CA11F894E82F32
:1023A000E295EF70F0E031A1282F2F7081E090E0EE
:1023B00001C0880F2A95EAF7982F9095932391A34F
:1023C00092A1892B82A3789408950F931F93CF93A2
:1023D000DF93C6EED1E089918F3F11F00E94CE11BC
:1023E00081E0CC3ED807B9F7C2EED1E006EE11E0AD
:1023F00089918F3F11F00E94CE110C171D07C1F774
:10240000DF91CF911F910F910895CF92DF92EF92BC
:10241000FF920F931F93CF93DF938C01C62FD0E0D1
:10242000CE018A519E4F7C01FC0190819F3F09F4AF
:1024300047C0D62EF894E92FE295EF70F0E081A125
:102440009F7021E030E001C0220F9A95EAF7822BBD
:1024500081A382A12095282322A378940E94C111F0
:10246000E2EEF1E046EE51E031E0C12C21912F3F48
:1024700089F0A22FA295AF70B0E090968C9190E079
:102480002F7002C0959587952A95E2F780FD02C0CE
:10249000832F01C080E0C82A330F4E175F0731F742
:1024A000F70180818F3F11F00E94CE1161E0C110D1
:1024B00001C060E08D2D0E94C311C00FD11FC882E2
:1024C000DF91CF911F910F91FF90EF90DF90CF9010
:1024D00008950E94E51186E0E3E1F3E0DF01982F23
:1024E0001D929A95E9F7EDE0F3E0DF011D928A95E0
:1024F000E9F786E00E94C6120C94A903FF920F939D
:102500001F93CF93DF9300D000D000D0CDB7DEB7BC
:102510008E010F5F1F4F86E0F80111928A95E9F74F
:10252000F12C6F2DC8010E940512F394F6E0FF1202
:10253000F8CF46E050E0B8018DE093E00E947D3492
:10254000FF24F394009709F4F12C892B41F086E0E5
:10255000F801ADE0B3E001900D928A95E1F72F2DDF
:1025600046E063E173E08DE093E00E94C7120E94B1
:10257000B1038F2D26960FB6F894DEBF0FBECDBFE8
:10258000DF91CF911F910F91FF9008950895FF92D1
:102590000F931F93CF93DF938C01F62ED72FC42F69
:1025A000222349F081E0809389020E947F2B90933F
:1025B000880280938702809189028823C1F08091EC
:1025C0008702909188020E94972B039780F0EF2D4D
:1025D000FD2FD8014C2F50E0CD01801B910B8417AB
:1025E00095071CF48D918193F7CF10928902DF91AA
:1025F000CF911F910F91FF9008950E94E62D0E94A8
:10260000E30E0C94F22D0E94F62D0E94EB0E0C941A
:10261000102E0E94062B0E94CD2D0E94D50E0E94E6
:10262000FD120E9403130E94DF0EFBCF80919002E7
:1026300080FF0BC06091670185E0689FB0011124A5
:1026400075956795759567952BC081FF09C0609159
:10265000670185E0689FB00111247595679520C0DA
:1026600082FF07C06091670185E0689FB001112477
:1026700017C090918F029923D1F06091660196174F
:1026800088F72091670185E0289F90011124929F8F
:10269000A001939F500D112470E0CA010E94B6332F
:1026A0006038710540F46115710519F406C065E0E4
:1026B00070E0862F08958FE7089581E00895809156
:1026C000900280FF08C06091630170E07595679586
:1026D0007595679521C081FF06C06091630170E028
:1026E0007595679519C082FF04C06091630170E021
:1026F00010C090918E02992399F060916201961713
:10270000A0F780916301899FC001112470E00E94AD
:10271000B6336038710540F46115710519F406C0CF
:1027200061E070E0862F08958FE7089581E00895B5
:10273000803F21F40E941613819504C0813F29F443
:102740000E941613809394020895823F21F40E9400
:102750001613819504C0833F29F40E9416138093B9
:1027600093020895893F19F40E945F1305C08A3FC0
:1027700031F40E945F1381958093950208958B3FF9
:1027800021F40E945F13819504C08C3F29F40E94BC
:102790005F138093960208959CE0980F953078F42B
:1027A00021E030E0A90102C0440F551F9A95E2F7DD
:1027B000CA0190919202892B8093920208958D3FD5
:1027C00021F48091900281600BC08E3F21F48091B2
:1027D0009002826005C08F3F29F48091900284604E
:1027E000809390020895803F39F49091940297FF6E
:1027F00035C01092940259C0813F29F490919402FF
:102800001916BCF32BC090919302823F29F497FFD5
:1028100025C01092930249C0833F19F41916CCF3D6
:102820001DC090919502893F29F41916BCF41092AD
:1028300095023BC08A3F19F497FF10C0F8CF8B3F39
:1028400039F49091960297FF09C0109296022DC01C
:102850008C3F21F4909196021916BCF39CE0980FDE
:10286000953080F421E030E0A90102C0440F551FEB
:102870009A95E2F7CA0180959091920289238093FC
:10288000920213C08D3F21F4809190028E7F0BC085
:102890008E3F21F4809190028D7F05C08F3F29F4F7
:1028A000809190028B7F809390028091930281119E
:1028B00006C080919402811102C010928F02809113
:1028C0009502811106C080919602811102C010927A
:1028D0008E0208950E947F2B20919302211104C043
:1028E00020919402222321F090938D0280938C02F8
:1028F00020919502211104C020919602222321F0FB
:1029000090938B0280938A0281E992E00C94F429DF
:10291000EF92FF920F931F93CF93DF9300D000D0DD
:1029200000D0CDB7DEB786E0E1E9F2E0DE01119636
:1029300001900D928A95E1F7E0909302F090940255
:1029400000919502109196021092930210929402B7
:102950001092950210929602E11003C0FF2009F434
:102960005DC080918C0290918D020E94972BAC01EA
:1029700090918F02992339F02091680130E024175B
:10298000350758F04BC0209169018AE0289F9001DB
:1029900011242417350718F041C09F3F19F09F5F9D
:1029A00090938F02EE2061F00E9416131E1414F013
:1029B0009FEF01C091E0989F902D11249093930276
:1029C000FF2061F00E9416131F1414F09FEF01C046
:1029D00091E0989F902D112490939402309193024E
:1029E0003323E1F0209194022223C1F045EB34031C
:1029F000C0011124992319F09093930203C081E040
:102A00008093930235EB2303C0011124992319F01D
:102A10009093940203C081E080939402011103C05B
:102A2000112309F45DC080918A0290918B020E946B
:102A3000972BAC0190918E02992339F0209164017B
:102A400030E02417350758F04BC0209165018AE02B
:102A5000289F900111242417350718F041C09F3F8B
:102A600019F09F5F90938E02002361F00E945F1324
:102A7000101614F09FEF01C091E0989F902D112443
:102A800090939502112361F00E945F13111614F0C8
:102A90009FEF01C091E0989F902D11249093960292
:102AA000309195023323E1F0209196022223C1F068
:102AB00045EB3403C0011124992319F0909395023A
:102AC00003C081E08093950235EB2303C0011124FC
:102AD000992319F09093960203C081E080939602A7
:102AE0008091930281110BC080919402811107C0E3
:102AF00080919502811103C08091960281110E94FC
:102B00006A14EB82FC820D831E8386E0FE013196FF
:102B1000A1E9B2E001900D928A95E1F726960FB6F1
:102B2000F894DEBF0FBECDBFDF91CF911F910F9103
:102B3000FF90EF900895E1E9F2E086E0DF011D9259
:102B40008A95E9F710928F0210928E0210929002ED
:102B50000895EF92FF920F931F93CF93DF938B0112
:102B6000682F11110AC0442329F0E82FF0E0E45F38
:102B7000FC4F6491762F862F75C0212F30E0E82F0F
:102B8000F0E0442321F0E45FFC4FE491F0E046E004
:102B9000049FC0011124CFEFD0E0BE010E94A233F8
:102BA0004BEA4603C001479F900D1124800F911DF1
:102BB000800F911D982F990F890FAE01421B530B67
:102BC0004E9FD0014F9FB00D5E9FB00D11249B2FE3
:102BD000189FA0011124452F55278E01041B150BAA
:102BE0000E9FA0010F9F500D1E9F500D11247E01BE
:102BF000E81AF108E29E8001E39E100DF29E100D8E
:102C00001124212F3327C21BD30BCE9F9001CF9FBE
:102C1000300DDE9F300D112462307105A9F048F4AB
:102C20006115710569F061307105C9F48B2F752F3D
:102C30000DC06430710581F058F06630710579F48B
:102C40007E2F8B2F932F0DC0832F7B2F9E2F09C09C
:102C50008E2F7B2F952F05C08E2F732F02C07E2FB6
:102C6000852F692FDF91CF911F910F91FF90EF90EA
:102C7000089541E00E94A915089520E030E0869F64
:102C8000212D969F200D311D1124C9010895BC01ED
:102C90008230910508F40895613E8EE1780748F48A
:102CA0009B0195E0369527959A95E1F748E0420F0C
:102CB00001C04FEF91E0242F30E0290F311D3595F1
:102CC0002795229FF001239FF00DF00D11246E1720
:102CD0007F0718F44FEF420F04C02F3F39F091E007
:102CE000920F491740F78FEF890F08958FEF0895DE
:102CF000482F982F46FD9095E92FEF739F7046FD62
:102D00009F5FE295EF70EE0FF0E0E451FE4F2181FE
:102D1000299F802D212D112482958F702295207F4F
:102D2000822B3081982F930F892F47FD81958058F2
:102D30000895622F0895E42FF0E0EE0FFF1FE45E88
:102D4000FE4F6081621B0895E42FF0E0EE0FFF1F3D
:102D5000EC5FFE4F618D621B0895EF920F931F93FE
:102D600093E0099F80011124159507956E2D600F42
:102D70001F910F91EF9008950F931F9310E0F801AA
:102D8000EE0FFF1FE45EFE4F90819E5197FD9195DF
:102D9000000F111FF801EC5FFE4FE18DF0E0B097DE
:102DA000DF01AA0FBB1F8D010E0F1F1F2003D001D3
:102DB000219FB00D1124E8E3F0E0E91BF10997FD34
:102DC000F3959F01220F331F89010E0F1F1F400330
:102DD0009001419F300D11242A0F3B1F37FF02C085
:102DE00021583F4F220F232F221F330B620F1F91B9
:102DF0000F9108954095282F429F412D1124842F33
:102E0000089522E8241B08F420E0620F0895EF9251
:102E1000FF920F93970195E0099F200D311D11241A
:102E20002F3F310519F010F02FEF30E02095382FAB
:102E3000320F08F43FEF832F0F91FF90EF9008952A
:102E4000EF92FF920F93E00EF11CF90137FF03C0E0
:102E5000F195E195F10924E0EE0FFF1F2A95E1F7C6
:102E6000EF3FF10519F014F0EFEFF0E09A0157FF92
:102E700003C031952195310994E0220F331F9A95B3
:102E8000E1F72E173F070CF4F901EE0DFF1DEF3FA0
:102E9000F10519F010F0EFEFF0E02E2F2095382F0C
:102EA000320F08F43FEF832F0F91FF90EF900895BA
:102EB000EF92FF920F939701201B31092F3F3105AD
:102EC00019F010F02FEF30E0322F3095482F430FDC
:102ED00008F44FEF842F620F0F91FF90EF90089549
:102EE000EF92FF920F939701201B31092F3F31057D
:102EF00019F010F02FEF30E02095382F320F08F442
:102F00003FEF832F0F91FF90EF900895FC019B01FD
:102F1000009721F477FF2BC080E80895AC0197FF5C
:102F200004C044275527481B590BB901640F751F6E
:102F300037FD0CC0241B350BC901A5E0880F991F74
:102F4000AA95E1F70E94B63380E20CC0CB0165E0A0
:102F5000880F991F6A95E1F7BA01621B730B0E94F3
:102F6000B63380E6861BF7FF03C08195089580E0A5
:102F70000895EF920F931F93CF93DF93D62FC72F10
:102F8000182FC9010E19010FBA010E948617081BDC
:102F9000202F219F212D1124822F6D2F7C2FDF9137
:102FA000CF911F910F91EF9008950F93CF93DF93DF
:102FB000D72FC82FC901BA010E948617682F600F4A
:102FC0007D2F8C2FDF91CF910F910895EF920F936A
:102FD000CF93DF93D72FC82FC9010E19BA010E94D2
:102FE0008617602F681B7D2F8C2FDF91CF910F915B
:102FF000EF9008950E9439160895FC01808192E1B6
:10300000899F902D11249E5E81E0963108F080E02A
:103010000895E9E1F3E085E1808380917D0190915D
:103020007E01A0917F0181839283A3838FE78483B4
:103030008FEF858346E050E06CE170E0CF010E94A5
:10304000B13410929702089580E008950F931F9372
:10305000CF93DF93C82FD62F8A010E94241894E0C3
:10306000C99FF0011124EC5FFE4FED0FF11D90811F
:103070009F3F29F0F801E80FF11D90838F5FDF91EA
:10308000CF911F910F910895E091FA01F091FB010A
:103090000994E091F601F091F70109944F925F9243
:1030A0006F927F928F929F92AF92BF92CF92DF9258
:1030B000EF920F931F93CF93DF932C013B01FC0101
:1030C000C08182E1C89FC02D1124D2E1DC0FD7312D
:1030D00008F0D6E160911D03669580911F039091E1
:1030E00020030E943D16182FCD1708F044C08C2EE7
:1030F000912CF401E85BFE4F9081F20181818923DC
:10310000C1F1F401EE0FFF1FE45EFE4FC080D12C31
:10311000FEE1CF1AD108F401EE0FFF1FEC5FFE4F66
:10312000A18CB12C80E2A81AB108CC9C9001CD9C56
:10313000300D300D1124AA9CC001AB9C900D900D58
:103140001124820F931F0E944716082F60911A03C3
:1031500070911B0380911C03E12E9501A601F301E0
:1031600009950E94FA17462F282F672FC4010E9445
:103170004918CF5FB9CF81E0D63108F080E0DF9108
:10318000CF911F910F91EF90DF90CF90BF90AF90B4
:103190009F908F907F906F905F904F90089569EB14
:1031A00077E10C944E186DEA76E10C944E1866EEB9
:1031B00077E10C944E18AF92BF92CF92DF92EF92CC
:1031C000FF920F931F93CF93DF936C015B01FC0180
:1031D000C08182E1C89FC02D1124D2E1DC0FD7311C
:1031E00008F0D6E160911D03669580911F039091D0
:1031F00020030E943D16182FCD1778F5EC2EF12CE8
:10320000F701E85BFE4F9081F6018181892319F176
:10321000F701EE0FFF1FEC5FFE4F218D30E02052D3
:103220003109F701EE0FFF1FE45EFE4F408150E0D1
:103230004E51510960911A0370911B0380911C0338
:10324000012FF50109950E94FA17462F282F672FA5
:10325000C7010E944918CF5FCFCF81E0D63108F077
:1032600080E0DF91CF911F910F91FF90EF90DF9061
:10327000CF90BF90AF90089565ED77E10C94DB1887
:10328000BF92CF92DF92EF92FF920F931F93CF9353
:10329000DF938C017B01FC01C08182E1C89FC02DBE
:1032A0001124D2E1DC0FD73108F0D6E160911D0383
:1032B0006695669521E0620F08F46FEF80911F0319
:1032C000909120030E943D16B82ECD17F0F4CC2E1D
:1032D000D12CF601E85BFE4F9081F80181818923B2
:1032E00091F060911A0370911B0380911C032B2DA8
:1032F0004C2FF70109950E94FA17462F282F672FA8
:10330000C6010E944918CF5FE0CF81E0D63108F0B6
:1033100080E0DF91CF911F910F91FF90EF90DF90B0
:10332000CF90BF90089569E976E10C9440196BE95C
:1033300076E10C94401964EA76E10C9440197F928E
:103340008F929F92AF92BF92CF92DF92EF92FF92B5
:103350000F931F93CF93DF936C015B01FC01C0813E
:1033600082E1C89FC02D1124D2E1DC0FD73108F0D3
:10337000D6E160911D036695669580911F0390913B
:1033800020030E943D16182F80E4810F0E947816BA
:1033900090E8F92EF80E812F0E94781620E8722E00
:1033A000780ECD1700F58C2E912CF401E85BFE4FC2
:1033B0009081F60181818923A1F060911A037091B7
:1033C0001B0380911C03E12E0C2F272D4F2DF5019F
:1033D00009950E94FA17462F282F672FC4010E94D3
:1033E0004918CF5FDECF81E0D63108F080E0DF9171
:1033F000CF911F910F91FF90EF90DF90CF90BF90F2
:10340000AF909F908F907F9008956CEB76E10C9435
:103410009F19AF92BF92CF92DF92EF92FF920F93DC
:103420001F93CF93DF938C017B01FC01C08182E16C
:10343000C89FC02D1124D2E1DC0FD73108F0D6E1AE
:1034400020911D0331E0230F08F42FEF30E040E01E
:1034500050E06FEF7FEF80E090E00E94EC33690175
:10346000CD1708F041C0AC2EB12CF501E85BFE4F42
:103470009081F80181818923A9F1909123039150D2
:1034800097FD15C0292F092E000C330BF901ED5DB6
:10349000FC4F8189C813F3CF220F331FF901ED5D73
:1034A000FC4F218D328D2C153D0548F701C096014A
:1034B00060911D0341E0640F08F46FEFC9010E94A1
:1034C0003D16AC0160911A0370911B0380911C039F
:1034D000F70109950E94FA17462F282F672FC5017B
:1034E0000E944918CF5FBCCF81E0D63108F080E060
:1034F000DF91CF911F910F91FF90EF90DF90CF90D0
:10350000BF90AF9008956AEF76E10C94091A61E0DC
:1035100077E10C94091A2F923F924F925F926F922B
:103520007F928F929F92AF92BF92CF92DF92EF9253
:10353000FF920F931F93CF93DF93CDB7DEB72997F9
:103540000FB6F894DEBF0FBECDBF8B834B013A019F
:10355000DB011C9182E1189F102D1124B2E1B10F03
:10356000B983B73110F0E6E1E983F0912303FA83E0
:103570008981181708F07FC0A12EB12CF501E85BF6
:10358000FE4F9081D40111968C91892309F471C06A
:1035900020901A0330901B034B80512CC501880FDB
:1035A000991FFC01E45EFE4FFD83EC83C501880F8B
:1035B000991F9C01235E3E4F3F832E83FA814F1655
:1035C00008F047C0E42CF12CAC81BD81BC91EB2FFD
:1035D000F0E0F987E887F701ED5DFC4F81812885F0
:1035E0003985281B310939872887AE81BF81CC9066
:1035F000D12C8185C81AD108F901EE9F9001EF9F67
:10360000300D300D1124CC9CC001CD9C900D900D3F
:103610001124820F931F0E944716082F60911D03EB
:1036200021E0620F08F46FEFF701EE0FFF1FED5D71
:10363000FC4F818D928D0E943D167C01960148853C
:103640005985B101852DF30109951B014394582E2D
:10365000B5CF20911C03352D329F312D1124832F9E
:10366000B1010E94FA17462F282F672FC5010E942B
:1036700049181F5F7DCF81E09981963108F080E085
:1036800029960FB6F894DEBF0FBECDBFDF91CF9164
:103690001F910F91FF90EF90DF90CF90BF90AF9070
:1036A0009F908F907F906F905F904F903F902F9062
:1036B00008952091230331E0231B08F420E047E024
:1036C00057E1BC01822F0C948B1A2091230331E027
:1036D000231B08F420E040E257E1BC01822F0C9448
:1036E0008B1A2091230331E0231B08F420E048E5E6
:1036F00057E1BC01822F0C948B1A40E757E1BC01C3
:1037000080E00C948B1ADF92EF92FF920F931F933D
:10371000CF93DF938C01DC018C91C2E18C9FC02D93
:103720001124D2E1DC0FD73108F0D6E160911A0301
:1037300070911B0380911C030E94FA17F62EE72E4E
:10374000D82ECD1798F4EC2FF0E0DF01A85BBE4F28
:103750008C91D80111969C91982331F02D2D4F2DED
:103760006E2DCF010E944918CF5FEBCF81E0D6319B
:1037700008F080E0DF91CF911F910F91FF90EF90C3
:10378000DF900895DF92EF92FF920F931F93CF93F4
:10379000DF938C01DC01CC9182E1C89FC02D112404
:1037A000D2E1DC0FD73108F0D6E1E0901A03F090B7
:1037B0001B03D0901C0360911D036695669566956A
:1037C00080911F03909120030E943D160E9478165D
:1037D000805887FD8195880F282F3D2D239F212D0F
:1037E0001124822FB7010E94FA17F62EE72ED82E49
:1037F000CD1798F4EC2FF0E0DF01A85BBE4F8C9161
:10380000D80111969C91982331F02D2D4F2D6E2DBE
:10381000CF010E944918CF5FEBCF81E0D63108F08D
:1038200080E0DF91CF911F910F91FF90EF90DF909B
:103830000895DF92EF92FF920F931F93CF93DF9340
:10384000EC01FC01E85BFE4F9081692381F1D0908F
:103850001B0300911C0310911A03E12EF12C0E940E
:103860006434282FC7018C549F4F68E671E00E9492
:10387000B6338E199F0997FD039695958795959573
:1038800087952370612F289F600D11247D2D802F37
:103890000E94FA17462F282F672FCE01DF91CF9174
:1038A0001F910F91FF90EF90DF900C944918DF91DA
:1038B000CF911F910F91FF90EF90DF900895CF92DD
:1038C000DF92FF920F931F93CF93DF938C01FC0144
:1038D000C281C1111DC060911D0320E1620F08F477
:1038E0006FEF80911F03909120030E943D166AE0C4
:1038F00070E00E94A233892B59F50E94643466E17E
:1039000070E00E94B633F80161810E94191C20C04A
:10391000FC018081C2E18C9FC02D112492E1F92E1F
:10392000FC0EF6E1FF1510F486E1F82ED0E0CF2C66
:10393000D12CCC15DD053CF4F8016181CE010E944B
:10394000191C2196F6CFC1E0F5E1FF1508F4C0E09F
:103950008C2FDF91CF911F910F91FF90DF90CF902F
:103960000895E091F801F091F9010994CF92DF9266
:10397000FF920F931F93CF93DF93CDB7DEB72897B6
:103980000FB6F894DEBF0FBECDBF182F062FF42E52
:103990000E94C40E882309F46FC0FF2049F0AE01D5
:1039A0004F5F5F4F602F812F0E942618F82E01C0B5
:1039B000F12C0F2D10E0809198029801280F311DF5
:1039C000293031056CF188E090E06C01C01AD10A11
:1039D000B80167567D4FA60189E992E00E948A34BA
:1039E000B8016F557D4FA60181EA92E00E948A34AA
:1039F000A601440F551FB801660F771F6F547D4F06
:103A000081EB92E00E948A34B80167557D4FA60190
:103A100089EA92E00E948A3488E08F1980939802A4
:103A200010919802DE01119640E0842F810FF41668
:103A300009F190E05D91252F30E0BC0168567D4F83
:103A4000F901EE0FFF1FE45EFE4F0081FB010183D1
:103A5000220F331FF901EC5FFE4F218DFB012187FF
:103A6000518B880F991FFC01E856FD4F128E118E65
:103A70004F5FDBCF8093980228960FB6F894DEBF95
:103A80000FBECDBFDF91CF911F910F91FF90DF90BF
:103A9000CF90089580911F0390912003A09121035E
:103AA000B091220388279C70AA27BB272AE0B695ED
:103AB000A795979587952A95D1F782309105A1050D
:103AC000B10571F083309105A105B10569F040E0C1
:103AD0000197A105B10511F060E008C064E102C0E2
:103AE00044E160E080E003C044E164E184E10C94DF
:103AF000B11CCF93C82F80916E018C130DC0209103
:103B00001903237030E040916F0150E081E02417E9
:103B1000350719F480E001C081E0817080936D0168
:103B200080911E0390916C01981739F080936C017D
:103B300040E060E080E00E94B11CC93011F58BE6E6
:103B400091E00E94D71809C0C53008F045C0C130C7
:103B500011F58BE691E00E94831B90916B019F5FB2
:103B600090936B018111A0C082E080936A018091E3
:103B70006D01811199C0C11197C083E080936A01E2
:103B800093C0CA3008F044C0C430F1F68BE691E02F
:103B90000E949319E2CFC13058F480916D018823BF
:103BA00029F040E060E080E00E94B11C80E0D5CFC9
:103BB000C23029F48BE691E00E94C21BCECFC33005
:103BC00029F48BE691E00E94CF18C7CF80916B015A
:103BD0008F5F80936B01C8CFC63029F48BE691E0EC
:103BE0000E949B19BACFC63028F48BE691E00E9460
:103BF0009719B3CFC73029F48BE691E00E94D31810
:103C0000ACCFC83019F78BE691E00E943C19A5CFE4
:103C1000CE3029F48BE691E00E94591B9ECFCF3025
:103C2000E8F4CB3029F48BE691E00E945F1C95CF3D
:103C3000CB3028F48BE691E00E94051A8ECFCC3071
:103C400029F48BE691E00E94831A87CFCD3009F0EA
:103C5000BDCF8BE691E00E94871A7FCFC13129F456
:103C60008BE691E00E947D1B78CFC23178F4CF3093
:103C700029F48BE691E00E94651B6FCFC03109F0FB
:103C8000A5CF8BE691E00E94711B67CFC23129F46A
:103C90008BE691E00E94FD1760CFCF3F09F096CFF1
:103CA0000E944A1D82E06ACFCF91089508950C9436
:103CB000561E0E94571E0C94240308950C945D1EFA
:103CC000CF93DF93FC01C081C15082E1C89FC02D1A
:103CD0001124D2E1DC0FD73108F0D6E16D2F8C2F03
:103CE0000E945E1E6D2F8C2FDF91CF910C945D1E74
:103CF0004F925F926F927F928F929F92AF92BF92FC
:103D0000CF92DF92EF92FF92CF936091C1027091B8
:103D1000C2028091C3029091C4020E94A62B6B0143
:103D20007C010E948B2B4B015C016093C10270935C
:103D3000C2028093C3029093C402A0919802E8E962
:103D4000F2E08A2F90E04FEF5FEF60E070E04C19F7
:103D50005D096E097F09A91799F0218D328D29011E
:103D6000612C712C441555056605770510F48150BA
:103D700004C02C0D3D1D328F218F9F5F3296EBCFFB
:103D8000809398028091C502811108C0C0911903E7
:103D90008C2F837019F0C695C69501C0C0E0809144
:103DA0006A018130D9F028F0823089F18330E1F165
:103DB0005AC010926B0180921F0390922003A09230
:103DC0002103B092220389E2E8E9F2E0A3E2B3E042
:103DD00001900D928A95E1F781E023C08C2F0E941B
:103DE000791DCC2309F43FC00E94591E8BE691E057
:103DF000CF91FF90EF90DF90CF90BF90AF909F90CA
:103E00008F907F906F905F904F900C94601EC09346
:103E10006E0180911903837080936F010E94441892
:103E200083E080936A011FC080919702882351F03C
:103E300046E050E06CE170E089E193E00E94B1342B
:103E40001092970260911F037091200380912103CB
:103E5000909122030E94A62B603171058105910586
:103E600010F010926A01CF91FF90EF90DF90CF9009
:103E7000BF90AF909F908F907F906F905F904F908A
:103E80000895E091F401F091F50109951092230352
:103E9000ECE3F3E08FEF9FEF8193919323E0EC3419
:103EA000F207D1F710929802E1EBF2E08FEF9FEF6B
:103EB0008193919322E0E13CF207D1F70E94FC0D3F
:103EC000811104C00E94A30E0E94091846E050E030
:103ED0006CE170E089E193E00E94933410929702C4
:103EE000809119038C7F11F40C9409180895CF93D5
:103EF000C82F882391F08091C50281110EC00E94C5
:103F0000791D10926E0180911903837080936F0167
:103F10000E94441883E080936A01C093C502CF9148
:103F20000895E9E1F3E0208191E0922790831092D7
:103F30006A0190919702892B80939702089581E0FE
:103F40000C94911F909119039370A1F0811102C0FC
:103F5000946007C0833110F0986403C0880F880F05
:103F6000982B9093190310926A0180919702682B05
:103F700060939702089560E00C94A21F61E00C9496
:103F8000A21F682F90911903969596959F5F933184
:103F900010F4892F01C081E00C94A21F81E00C94E1
:103FA000C11F682F9091190396959695915011F025
:103FB000892F01C082E10C94A21F81E00C94D11FD3
:103FC00090911903937071F080931A0360931B030F
:103FD000493C08F048EC40931C0380919702282B41
:103FE000209397020895A9E1B3E01196EC911197FF
:103FF000F0E0282F13964C91139712966C91CF01F5
:1040000008960C94E01F81E00C94F31FA9E1B3E043
:104010001196EC911197F0E0282F13964C9113977D
:1040200012966C91CF0108970C94E01F81E00C94DC
:104030000620E9E1F3E0628120E1620F08F46FEF0E
:104040009181282F4381892F90E00C94E01F81E01B
:104050000C941920E9E1F3E0628120E1621B08F48D
:1040600060E09181282F4381892F90E00C94E01F1C
:1040700081E00C942A20E9E1F3E0438120E1420F42
:1040800008F44FEF9181282F6281892F90E00C94E2
:10409000E01F81E00C943B20E9E1F3E0438120E163
:1040A000421B08F440E09181282F6281892F90E023
:1040B0000C94E01F81E00C944C2080931D038091B0
:1040C0009702682B60939702089520911D0330E1B9
:1040D000230F08F42FEF682F822F0C945D2081E0CE
:1040E0000C94652020911D0330E1231B08F420E08F
:1040F000682F822F0C945D2081E00C94722060E088
:1041000087E70C947622CF930E94E32887E70E94EA
:10411000C920C0E021E041E061E08C2F0E947A21BB
:10412000CF5FC631B9F760E087E7CF910C948E225C
:10413000ECEDF3E06083418324E630E042E050E0C0
:10414000BF01880F0C949A290F931F93CF93DF938D
:10415000082F000FEB0114E21093DC03EDEDF3E008
:10416000DE018D91819383E0ED3EF807D1F724E6DF
:1041700030E041E150E06CED73E0802F0E949A291D
:10418000105F6096143B41F7DF91CF911F910F9123
:104190000895CF93DF93C82F4BE06DEF0E949820D6
:1041A00040E06AE08C2F0E9498208FE39CE9019701
:1041B000F1F700C0000040E060E08C2F0E949820E2
:1041C00040E061E08C2F0E94982040E066E08C2F58
:1041D0000E94982040E06DEF8C2F0E949820D0E044
:1041E00040E06D2F8C2F0E949820DF5FD231C1F705
:1041F00040E06D2F8C2F0E949820DF5FD432C1F7F2
:1042000040E06D2F8C2F0E949820DF5FD43BC1F7D8
:104210004BE06DEF8C2F0E94982041E06AE08C2FDC
:104220000E94982040E06DEF8C2FDF91CF910C948D
:104230009820FF920F931F93CF93DF9300D000D06D
:10424000CDB7DEB78631910588F5122F042FF62EF3
:10425000BC01660F771F660F771F6C5B7E4F44E0D3
:1042600050E0CE0101960E947434898183704A81A6
:10427000282F30E050E9859FC0011124845B9C4FBA
:10428000FC01E40FF11DB497F0824B81FC01E40FB7
:10429000F11DB49700834C81840F911DFC01B497EC
:1042A0001083F901E752FD4F81E080830F900F905A
:1042B0000F900F90DF91CF911F910F91FF90089574
:1042C000FF920F931F93CF93DF93182F062FF42E97
:1042D000C0E0D0E02F2D402F612FCE010E94192188
:1042E0002196C631D105B1F7DF91CF911F910F9182
:1042F000FF9008955F926F927F928F929F92AF92FC
:10430000BF92CF92DF92EF92FF920F931F93CF93C2
:10431000DF9300D000D0CDB7DEB7862E942E522E7C
:1043200024E0829FC0011124BC016C5B7E4F44E0FD
:1043300050E0CE0101960E9474342A8130E0C90118
:104340008497FC0197FD379673E0F595E7957A958C
:10435000E1F74B8150E08A0104521109980117FFDF
:1043600002C0295F3F4F63E0359527956A95E1F7D5
:104370004C8150E05A0164E2A61AB1083501B7FE3B
:1043800004C03A017DE1671A710843E075946794AF
:104390004A95E1F758E0C52ED12CB6010E94B633FC
:1043A0007C01C801B6010E94B6338C01C501B6017B
:1043B0000E94B633FF274981FF24542F5370882071
:1043C00081F062E1569FE00DF11D1124E953FD4F8C
:1043D00061E070E001C0660FEA94EAF75081652B56
:1043E00010C072E1579FE00DF11D1124E953FD4FFC
:1043F00061E070E001C0660FEA94EAF760955081D1
:104400006523608333271127542F5370992089F037
:1044100062E1569F200D311D1124F901E953FD4F32
:1044200021E030E001C0220F0A95EAF73081232B0A
:1044300011C072E1579F200D311D1124F901E9537C
:10444000FD4F21E030E001C0220F0A95EAF72095E8
:1044500030812323208377249927942F937093010D
:104460005520A1F052E1959F200D311D1124F90135
:10447000E953FD4F21E030E0B90102C0660F771F1C
:104480008A95E2F7CB019081892B14C072E1979F46
:10449000200D311D1124F901E953FD4F21E030E0D9
:1044A000B90102C0660F771F8A95E2F7CB018095AC
:1044B0009081892380834370E42FF0E0EA53FD4F1D
:1044C00081E080830F900F900F900F90DF91CF913C
:1044D0001F910F91FF90EF90DF90CF90BF90AF9022
:1044E0009F908F907F906F905F900895CF93DF9310
:1044F000262F30E0E901C752DD4F9881992351F012
:1045000090E9929FB001939F700D1124645B7C4FE2
:104510000E94A4201882DF91CF910895DF92EF923C
:10452000FF920F931F93CF93DF93262F30E0A901C3
:104530004A535D4F7A01FA01908191110AC0F70147
:104540001082DF91CF911F910F91FF90EF90DF903C
:104550000895D82EF2E16F9FE001112400E010E0F1
:10456000F801EC0FFD1FE953FD4F4081602F8D2DA9
:104570000E9498200F5F1F4F0231110589F7DFCF8E
:10458000882311F0FA0101C0FB0109941F93CF9316
:10459000DF93FB011281112309F48CC0EC010E940E
:1045A000200D8272CA3CFCE5DF0709F46EC048F5B5
:1045B000C53CECE5DE0709F454C070F4C33C9CE54F
:1045C000D90709F442C008F045C0C23CDC4509F0F7
:1045D00074C00E949F1F70C0C73C9CE5D90709F4B6
:1045E0004AC008F443C0C83CFCE5DF0709F448C0F2
:1045F000C93CDC4509F061C04AE550E269E470E27B
:104600002DC0CF3CECE5DE0709F450C088F4CC3C6B
:104610009CE5D90709F443C0E8F1CD3CFCE5DF0790
:1046200009F442C0CE3CDC4509F047C082E03FC0FF
:10463000C63D9CE5D90728F4C13DDC45E8F588E096
:1046400036C0CD35DD45C1F138C04DED5FE16EECD2
:104650007FE104C04EEC5FE16DED7FE10E94C0227E
:104660002BC046E150E263E070E2F8CF43E050E255
:1046700066E170E2F3CF48E350E267E270E2EECF2A
:1046800047E250E268E370E2E9CF49E450E26AE5CC
:1046900070E2E4CF4CE750E26FE670E2DFCF4FE626
:1046A00050E26CE770E2DACF81E001C085E00E9461
:1046B000BE1F02C011E001C010E0812FDF91CF9139
:1046C0001F91089583E290E00E94A334833281F425
:1046D00084E290E00E94A334863051F485E290E0B9
:1046E0000E94A33491E0863009F090E0892F01C048
:1046F00080E081700895CF93C82F811102C06FEFC1
:1047000001C063E283E290E00E94C134C11102C0A3
:104710006FEF01C066E084E290E00E94C134C111F5
:1047200002C06FEF01C066E085E290E0CF910C948B
:10473000C134089586E290E00E94A334682F70E0AF
:1047400080E090E0089586E290E00C94C13480E02F
:104750000E947B2360E070E0CB010E94A3230E94B3
:10476000A8260E94852781E00C947B230E94992330
:104770000E946223811102C00C94A7230895CF9355
:10478000FB01C281CC23E9F09C0122513F4520313D
:10479000310520F482510E9495270CC08031FFE53D
:1047A0009F0751F481E00E94080943E062E081E044
:1047B0000E94A003C0E018C081319F45A9F482E0A7
:1047C000F2CF8031EFE59E0711F481E004C0813122
:1047D0009F4549F482E00E94130943E062E081E0D2
:1047E0000E94A00301C0C1E08C2FCF910895E0EF9B
:1047F000F3E081E28083118287E0828385E6838310
:1048000060E2CF010C94A22CE0EFF3E082E280831F
:1048100081E08183128284E0838360E2CF010C9483
:10482000A22CE0EFF3E083E28083118212821382F4
:1048300060E2CF010C94A22CDF92EF92FF920F93D3
:104840001F93CF93DF93FC01D280F9E0FD1530F088
:10485000EC01E98000E010E0F12C0FC08EEF8093B6
:10486000F10360E280EF93E0DF91CF911F910F9110
:10487000FF90EF90DF900C94A22C23960D1558F426
:104880002A8149816881C701800F911F0E944918C0
:104890000F5F1F4FF2CFDF91CF911F910F91FF90CC
:1048A000EF90DF90089582E10C94BB1FE0EFF3E0FE
:1048B00087E2808386E1818360E2CF010C94A22CA1
:1048C000E0EFF3E088E2808382E0818360E2CF0161
:1048D0000C94A22C2FEFFC0120830895EF92FF92FD
:1048E0000F931F93CF93DF93EC01062FE8818E2F58
:1048F00090E0FC013197E832F10508F0AAC0E059D8
:10490000FF4F0C940B340E94F723A5C00E9404248F
:10491000A2C00E9411249FC0CE010E941C249BC0F3
:104920000E94532498C00E94091895C00E945624E2
:1049300092C00E9460248FC0198289E04DC0898195
:10494000823039F0833061F0813029F50E948B2B61
:1049500002C00E949A239A838B837C836D837BC0E1
:104960007E0182E0E80EF11C10E0812F0E94B6115A
:10497000F70181937F011F5F1630B9F76CC0898101
:10498000823049F46A817B818C819D810E9411343F
:104990000E94A32360C0602FCE010E946A245BC0E6
:1049A0004B816A8189810E947A269C838D8353C0C2
:1049B0002C813D813227232732274B816A818981CF
:1049C0000E94932648C00E94A82645C00E9438270E
:1049D00024C00E943A2799838A833DC06B8170E08E
:1049E00089819A81AE014C5F5F4F9827892798276C
:1049F0000E943D2730C06B8170E089819A81AE01B1
:104A00004C5F5F4F9827892798270E94622723C011
:104A10000E94852720C00E94672689831CC06B8165
:104A200070E089819A81AE014C5F5F4F982789279A
:104A300098270E94E7260FC06B8170E089819A81D8
:104A4000AE014C5F5F4F9827892798270E940A275D
:104A500002C08FEF8883602FCE01DF91CF911F912D
:104A60000F91FF90EF900C94A22CCF93DF93EC0169
:104A7000FB018281882309F426C1C330FDE5DF07ED
:104A800060F4CA3F9CE5D90768F49E0122503C457A
:104A90002431310508F018C105C0C136EDE5DE0747
:104AA00009F012C10E940F0E90930C0380930B0328
:104AB000C031FCE5DF0709F4CAC008F041C0C830C6
:104AC0009CE5D90709F4A4C0F0F4C430FCE5DF0785
:104AD00009F48CC068F4C2309CE5D90709F482C09F
:104AE000C330DC4509F0E5C080910B038260DFC074
:104AF000C630FCE5DF0709F483C008F085C080916B
:104B00000B038860D4C0CC309CE5D90709F490C071
:104B100068F4CA30FCE5DF0709F47EC008F084C001
:104B20000E94890880910B038068C1C0CE309CE54B
:104B3000D90709F481C008F086C080910B0394C0A6
:104B4000CC3FFCE5DF0709F47BC038F5C4319CE5B8
:104B5000D90709F49AC058F4C231FCE5DF0709F41B
:104B60007AC008F07EC080910B038F7BA0C0CA3F43
:104B70009CE5D907F1F108F03FC0C531DC4509F0EB
:104B800098C080910B0382FB222720F991E09227A5
:104B900090FB82F990FB83F98AC0C1158DE5D80797
:104BA00009F467C050F480910C03CE3FECE5DE07BA
:104BB000C1F108F05BC08D7F65C0C2308DE5D807BC
:104BC00009F471C008F46DC0C136DD4509F071C04B
:104BD00080910B0384FB222720F991E0922790FB20
:104BE00084F965C080910B03816061C080910B03E3
:104BF00016C080910C0316C080910C03826042C0E5
:104C000080910B03806153C080910B0380624FC081
:104C100080910B0380644BC080910B03886084609B
:104C200046C0826081602EC080910B038E7F3FC0A2
:104C300080910B038D7F3BC080910B03877F37C032
:104C400080910C0314C080910B038F7E30C0809143
:104C50000B038F7D2CC00E94890880910B038F77F6
:104C600026C080910B03877F8B7F21C08D7F8E7F35
:104C700009C080910C03982F909591708E7F892B9D
:104C800090FB81F980930C0314C00E9489088091E5
:104C90000B0387FB222720F991E0922790FB87F9ED
:104CA00006C081E001C080E00E94A50E02C0809392
:104CB0000B0380910B0390910C030E94200E0E9425
:104CC000890880E001C081E0DF91CF91089584E000
:104CD000089550E0440F551F28E0629F400D511D7C
:104CE00011249A0160E3869F200D311D1124C90112
:104CF000879608950F931F93CF93DF930E946926A1
:104D00008C010E94A334C82FD0E0DC2FCC27C8012F
:104D100001960E94A3349E01282BC901DF91CF91F7
:104D20001F910F9108950F931F93CF93DF93122F2D
:104D3000032F0E946926EC01602F0E94C134612F6D
:104D4000CE010196DF91CF911F910F910C94C13448
:104D5000AF92BF92CF92DF92EF92FF920F931F9389
:104D6000CF93DF93A12CE12CF12CB12C00E010E0CB
:104D7000C0E0D0E06701C00ED11EF601EC0FFD1FB0
:104D8000EE0FFF1FE456FE4F259134914C2F6B2DF3
:104D90008A2D0E9493262196C430D10571F70C5FAD
:104DA0001F4FB39486E0B812E3CF88E1E80EF11C00
:104DB000A39484E0A812D9CFDF91CF911F910F91D6
:104DC000FF90EF90DF90CF90BF90AF900895EF925B
:104DD000FF920F931F93CF93DF93EA017A01E60EC0
:104DE000F71E8C01C8018796CE15DF0561F0003CE7
:104DF000110520F40E94A334888301C018822196F3
:104E00000F5F1F4FEFCFDF91CF911F910F91FF9059
:104E1000EF900895EF92FF920F931F93CF93DF933C
:104E2000EA017A01E60EF71E8C01C8018796CE15BD
:104E3000DF0551F0003C110518F468810E94C1346F
:104E400021960F5F1F4FF1CFDF91CF911F910F91EF
:104E5000FF90EF900895462F843038F4763028F490
:104E6000643018F4672F0C947A2680E090E008955F
:104E700080E1089589E193E00895EF92FF920F9306
:104E80001F93CF93DF93EA017A01E60EF71E8C01A0
:104E9000C80189519F4FCE15DF0569F0093123E024
:104EA000120720F40E94A334888301C0188221963F
:104EB0000F5F1F4FEDCFDF91CF911F910F91FF90AB
:104EC000EF900895EF92FF920F931F93CF93DF938C
:104ED000EA017A01E60EF71E8C01C80189519F4F45
:104EE000CE15DF0559F0093123E0120718F4688167
:104EF0000E94C13421960F5F1F4FEFCFDF91CF91FA
:104F00001F910F91FF90EF900895CF93DF93C7EE1D
:104F1000D0E060E0CE010E94C1342196C11584E04A
:104F2000D807B9F7DF91CF910895DF92EF92FF9202
:104F30000F931F93CF93DF9300D000D0CDB7DEB790
:104F4000F82E8FE08F15E8F18FEF93E00E94A334E5
:104F5000811137C007EE10E0FF2069F0011584E0F1
:104F6000180779F1C8010E94A334811101C0FA9495
:104F70000F5F1F4FF1CF19821A821B821C82DD2422
:104F8000D39478018FEFE81AF80AC8010E94A3347D
:104F900089831A828823A9F09FEF980F933058F4E1
:104FA0008A83D9820E5F1F4FC7010E94A3348B836F
:104FB000882339F07801CE0101960E940705870108
:104FC000E0CF0F900F900F900F90DF91CF911F9136
:104FD0000F91FF90EF90DF900895CF93DF9386318C
:104FE0009C4541F5EB010E94200D982F8A8120916C
:104FF000600130916101882379F09A7A81E009F4A7
:1050000080E08093DA02911102C069E201C065E399
:10501000C9010E94C42A0AC08091DA02811102C02B
:1050200069E201C065E3C9010E94CF2A0E94650DB3
:1050300080E001C081E0DF91CF9108950F931F932D
:10504000CF93DF93C42FD22FFC0182818823C9F034
:105050004093DD020E947F2B9093DC028093DB0261
:1050600080E28C0F883008F057C0C77081E001C023
:10507000880FCA95EAF7DF91CF911F910F910C9499
:1050800015068091DD02481330C08091DB029091BB
:10509000DC020E94972B883C910538F510E21D0F29
:1050A000CD17B9F080E28C0F883040F4C77081E0F2
:1050B00001C0880FCA95EAF70E941C06183028F52F
:1050C00081E09D2F977001C0880F9A95EAF70E94A2
:1050D0001506802F0E940C061830F0F4D77081E07E
:1050E00001C0880FDA95EAF70AC080E28C0F883099
:1050F00098F4C77081E001C0880FCA95EAF7DF9184
:10510000CF911F910F910C941C06802FDF91CF91AE
:105110001F910F910C940C06DF91CF911F910F916D
:1051200008950F939C01CB01233F4CE5340731F1E7
:1051300088F4283DFCE53F07D9F0293D4CE53407CC
:1051400079F1273D3C45A9F506E221EE41EE67EDF8
:105150007CE52BC0253FFCE53F07E1F0A8F0263FAA
:105160003C4539F507E225EE46EE66EF7CE51DC0CD
:1051700007E225EE45EE68ED7CE517C006E221EE7C
:1051800040EE63EF7CE511C007E225EE44EE64EFEC
:105190007CE50BC006E221EE42EE65EF7CE505C042
:1051A00008E221E045EE69ED7CE50E941E2880E0E2
:1051B00008C0FC018281882319F01092DD0201C031
:1051C00081E00F9108951092B9008CE08093B800AF
:1051D00008959F92AF92BF92CF92DF92EF92FF928B
:1051E0000F931F93CF93DF93B82EEB010E947F2B79
:1051F0006C01C431D10558F0CF3F8FEFD80759F07B
:10520000CE0164E170E00E94A2337B0107C0EE246E
:10521000E394F12C03C025E0E22EF12C84E8A82EC3
:1052200094EA992E1092BC009092BC000E947F2BB1
:105230008C018091BC0087FD08C00E947F2B801BE1
:10524000910B8E159F05A8F32AC08091B900887F25
:10525000883041F08091B900887F803119F00FEFDC
:105260001FEF1FC0B092BB00A092BC000E947F2B1A
:105270008C018091BC0087FD08C00E947F2B801BA1
:10528000910B8E159F05A8F30AC08091B900887F05
:10529000883111F0803419F700E010E00EC00EEFF5
:1052A0001FEFCF3F8FEFD80709F4BCCFC6010E9494
:1052B000972B8C179D0708F4B5CFC801DF91CF91CC
:1052C0001F910F91FF90EF90DF90CF90BF90AF9024
:1052D0009F9008950F931F93CF93DF93EB018093DB
:1052E000BB0084E88093BC000E947F2B8C018091DE
:1052F000BC0087FD0EC0CF3F8FEFD807C1F30E94DF
:105300007F2B801B910B8C179D0788F38EEF9FEFEF
:105310000CC02091B900287F81E090E0283211F480
:1053200080E090E0919581959109DF91CF911F9157
:105330000F910895CF92DF92EF92FF920F931F93F8
:10534000CF93DF936B018A017901B9010E94E928AB
:10535000E6010C0D1D1DC017D10761F424E920934F
:10536000BC00DF91CF911F910F91FF90EF90DF90E4
:10537000CF90089597FDF2CFB70189910E946A29D5
:10538000EACF90930D0280930C0208959093E3026C
:105390008093E2020895E091E202F091E3023097F7
:1053A00021F00190F081E02D099480E008950E94A1
:1053B000CB290895E091E202F091E302309799F051
:1053C00020917C01222359F020910B0327FF07C075
:1053D000DC012C9111962C93119726E02C930280DE
:1053E000F381E02D09940895E091E202F091E30247
:1053F000309739F022E0DC012C930480F581E02D18
:10540000099408952091E0023091E10228173907AC
:1054100071F09093E1028093E002E091E202F0915A
:10542000E302309721F00680F781E02D099408957A
:105430002091DE023091DF022817390771F0909336
:10544000DF028093DE02E091E202F091E302309706
:1054500021F00084F185E02D09940895FC01329635
:1054600080917C01882331F080910B0387FF02C07B
:105470009EE101C096E080E0915028F02191222326
:10548000D9F38F5FF9CF0895662351F120917C0104
:105490002223E9F020910B0327FF19C0462F4695E0
:1054A000469546954E31E0F4677021E030E002C049
:1054B000220F331F6A95E2F7FC01E40FF11D828190
:1054C00090E02823392381E0232B69F409C0FC01F3
:1054D000329608962191621729F0E817F907D1F75B
:1054E00080E0089581E008959C01FC0132969FEFD1
:1054F00080E04191461789F09F3F19F4411101C0A6
:10550000982F8F5F8630A9F79F3F39F0F901E90F97
:10551000F11D97FDFA956283089508959C012A5F15
:105520003F4FFC014281461301C01282019682174F
:105530009307B9F70895262F2695269526952E319F
:1055400068F4FC01E20FF11D677021E030E001C05A
:10555000220F6A95EAF78281282B22830895262F4D
:105560002695269526952E3170F4FC01E20FF11D4B
:10557000677021E030E001C0220F6A95EAF72095BC
:10558000828128232283089520917C01222329F0FF
:1055900020910B0327FD0C949B2A0C94742A2091D4
:1055A0007C01222329F020910B0327FD0C94AF2AC4
:1055B0000C948E2A20917C01FC013296222331F03A
:1055C00080910B0387FF02C08EE101C086E0DF01FE
:1055D0001D928A95E9F7089508950C94EC2A83E0CA
:1055E0008093E4020C94ED2A811102C081E001C095
:1055F00082E08093E4020C94ED2A0C94F42A81E07A
:105600008093E4020C94ED2A0C94FF2A0895809173
:105610001804843031F10E94B3031092E50220E4B3
:1056200088E190E00FB6F894A895809360000FBED3
:105630002093600083B7817F846083BF83B78160DC
:1056400083BF7894889583B78E7F83BF0FB6F89415
:10565000A89580916000886180936000109260003E
:105660000FBE089508950C94322BCF930E94332BD4
:105670000E947E120E94322BC0E08C2F0E94B61135
:10568000811104C0CF5FC630C1F701C081E0CF9166
:1056900008950E9489080C942F041F920F920FB650
:1056A0000F9211248F939F93AF93BF938091E50244
:1056B000811113C08091100490911104A0911204E3
:1056C000B09113044196A11DB11D809310049093D5
:1056D0001104A0931204B0931304BF91AF919F9152
:1056E0008F910F900FBE0F901F90189582E084BD90
:1056F00093E095BD9AEF97BD80936E0008952FB704
:10570000F8948091100490911104A0911204B0912A
:1057100013042FBF08952FB7F8946091100470916F
:10572000110480911204909113042FBF08959C01DD
:105730004FB7F8948091100490911104A091120435
:10574000B09113044FBF821B930B0895CF92DF9249
:10575000EF92FF922FB7F894C0901004D0901104EC
:10576000E0901204F09013042FBFA7019601261BAE
:10577000370B480B590BCA01B901FF90EF90DF902E
:10578000CF90089578941F920F920FB60F92112424
:105790008F939F93AF93BF938091100490911104C6
:1057A000A0911204B09113040196A11DB11D809324
:1057B000100490931104A0931204B0931304BF91AA
:1057C000AF919F918F910F900FBE0F901F901895E2
:1057D00081E08093E00080E28093D8001092C900BD
:1057E0008FE19EE40197F1F700C0000087E090EBA5
:1057F000DC018093210490932204A0932304B093AE
:1058000024049CE088E10FB6F894A895809360008A
:105810000FBE90936000FFCF809109030895089513
:1058200024E02093E9002FEF3091E800215035FD6E
:1058300006C035ED3A95F1F700002111F5CF209122
:10584000E80025FF0BC040E050E066E070E00E94F9
:10585000B92E8091E8008E778093E8000895CF9369
:10586000DF9320917C01222339F020910B0327FF45
:1058700003C060E224E002C068E021E02093E90078
:105880002FEF3091E800215035FD06C035ED3A95F7
:10589000F1F700002111F5CF2091E80025FF1DC090
:1058A000EC0180917C01811105C040E050E068E08E
:1058B00070E003C070E040E050E0CE010E94B92EDD
:1058C0008091E8008E778093E80080E2FE01A9EEE7
:1058D000B2E001900D928A95E1F7DF91CF910895A2
:1058E0008093E6027093E8026093E70280911804C7
:1058F0008430F9F48093E9008FEF9091E8008150B3
:1059000095FD06C095ED9A95F1F700008111F5CF50
:105910008091E80085FF0DC040E050E063E070E05A
:1059200086EE92E00E94B92E8091E8008E778093F7
:10593000E8000895BC0184E00C94702CBC0183E065
:105940000C94702CCF93603419F5209118042430F6
:10595000F9F4C091E900CF703091EC00232F217051
:1059600030FD20E8C22B22E02093E9002091E800DE
:1059700020FF0BC040E050E060E470E00E94B92ED0
:105980008091E8008E778093E800CF70C093E900A3
:10599000CF91089580911704811109C00E9495301C
:1059A0000E94F2308091E20084608093E2000895CA
:1059B0001092170408950C94042B6091140481E054
:1059C000611101C080E00C94EF2A9091180481E0ED
:1059D000943009F080E0609114040C94F42A42E0C1
:1059E00061EC81E00E940E3042E261EC84E00E94B2
:1059F0000E3042E361EC82E00E940E3042E360EC44
:105A000083E00E940E309091180481E0943009F0F8
:105A100080E0609114040C94FD2A80911A04833074
:105A200009F463C030F4813071F0823009F49CC015
:105A300008958A3009F488C08B3009F46EC089302B
:105A400009F0AAC020C080911904813A09F0A4C0CD
:105A50008091E800877F8093E80080911D049091F9
:105A60001E04892B21F460E289EE92E003C060E01D
:105A700080E090E070E00E944F2F8091E8008B77EB
:105A80008093E800089580911904813209F084C060
:105A900080911D0490911E04009719F0029709F05F
:105AA0007BC08091E800877F8093E8008091E800C8
:105AB00082FD05C0809118048111F8CF6DC020913E
:105AC000F3008091F20090E0922B029731F48091E4
:105AD000F100813011F0863021F48091F100809343
