:100000000C94BB020C94F3020C94F3020C94F302D4
:100010000C94F3020C94F3020C94F3020C94F3028C
:100020000C94F3020C94F3020C9442270C94FD25DB
:100030000C9458290C94F3020C94F3020C94F302E0
:100040000C94F3020C94F3020C94F3020C94F3025C
:100050000C94F3020C940B290C94F3020C94F3020D
:100060000C94F3020C94F3020C94F3020C94F3023C
:100070000C94F3020C94F3020C94F3020C94F3022C
:100080000C94F3020C94F3020C94F3020C94F3021C
:100090000C94F3020C94F3020C94F3020C94F3020C
:1000A0000C94F3020C94F3020C94F3027D07800786
:1000B000B307CB07D207DD07E007E007E007F60844
:1000C000F6085D085F0864088A08AD08B008B30840
:1000D000D608F608F608F608F608F608F608F60850
:1000E000F608F608F608F608F608F60806071107F7
:1000F0001C07260749074C0764077007B10B250C3E
:10010000B90B830B870BBD0B8A0BC00BCB0B950B6D
:100110001B0C990BCF0B9D0BD30BFD0BA10BD70B1E
:10012000070CA70BDD0BE70B8E0BC40B910BC70B5A
:10013000AC0BE20BF30B130C150C7F0BB50B2E0C59
:100140004E0C540C410B480C5A0C600C660CA10C64
:10015000AF0CB40CB90CBE0CC30CC80CCD0CD20C3B
:10016000D70CDC0CE30CE60CE90CEC0C490B490B4E
:10017000490B490B490B490B700D700DA30DA30DD5
:10018000220E400E480F480F450EB90ECA0ECA0E79
:10019000A020C7207022C720702213213621702290
:1001A0002B223B22000000000000000000000000A5
:1001B000000000000000000000000000000000003F
:1001C00000000000000000007E0F00D4FFFFFFC70A
:1001D0000000007800000000000000002A2B28002A
:1001E00000000000000000000000000000000029E6
:1001F000000000002C1E3420212224342627252E26
:10020000362D3738271E1F2021222324252633335D
:10021000362E37381F0405060708090A0B0C0D0E89
:100220000F101112131415161718191A1B1C1D2F55
:100230003130232D350405060708090A0B0C0D0E75
:100240000F101112131415161718191A1B1C1D2F35
:100250003130354C05010902A10185020901A100D7
:100260000509190129081500250195087501810264
:100270000501093009311581257F95027508810630
:1002800009381581257F950175088106050C0A3806
:10029000021581257F950175088106C0C0050109F9
:1002A00080A101850319012AB700150126B7009521
:1002B0000175108100C0050C0901A1018504190117
:1002C0002AA002150126A002950175108100C00523
:1002D000010906A1018506050719E029E715002592
:1002E000019508750181020507190029EF15002500
:1002F0000195F0750181020508190129059505751B
:10030000019102950175039101C00660FF0961A189
:10031000010962150026FF00952075088102096316
:10032000150026FF00952075089102C005010906F9
:10033000A101050719E029E71500250195087501B8
:1003400081029501750881010507190029FF150033
:1003500026FF0095067508810005081901290595F5
:100360000575019102950175039101C009025B00B9
:10037000030100A0FA0904000001030101000921A2
:100380001101000122400007058103080001090452
:1003900001000203000000092111010001222200D6
:1003A000070582032000010705030320000109045B
:1003B0000200010300000009211101000122B60022
:1003C00007058403200001120100020000000868F4
:1003D00089325301000102000114034E004500421E
:1003E0000055004C00410031003200420000002066
:1003F000035900690061006E006300610072002D06
:1004000000440065007300690067006E007300001F
:1004100000040309045F00600061005C005D005E91
:100420000059005A005B00215262006300207821CD
:10043000780100010001000100010001000100013C
:10044000000100580001000100010001000100014D
:100450000001000100010001000100010001000194
:100460000001000100010001000100010001000184
:10047000000100010000010101010101010101026F
:100480000202020202020202030303030303030344
:10049000040404040404040505050505060606060F
:1004A00006070707070708080808090909090A0ACB
:1004B0000A0B0B0B0C0C0C0D0D0D0E0E0E0F0F0F6F
:1004C00010101111111212131314141515161617FA
:1004D00017181819191A1A1B1B1C1D1D1E1E1F2068
:1004E00020212222232424252626272829292A2BB5
:1004F0002C2D2D2E2F3031323233343536373839DA
:100500003A3B3C3D3E3F40414243444546474849D3
:100510004A4C4D4E4F50515354555658595A5B5DA5
:100520005E5F616264656668696B6C6D6F70727343
:100530007577787A7B7D7E8082838587888A8C8EAA
:100540008F91939596989A9C9EA0A2A3A5A7A9ABDC
:10055000ADAFB1B3B5B7BABCBEC0C2C4C6C9CBCDCE
:10056000CFD1D4D6D8DBDDDFE2E4E7E9EBEEF0F380
:10057000F5F8FAFDFF0011241FBECFEFDAE0DEBF71
:10058000CDBF04B603FE18C08091A1039091A203D1
:10059000A091A303B091A4038730904BA740B04B28
:1005A00059F41092A1031092A2031092A303109287
:1005B000A403E0E0F8E3099511E0A0E0B1E0E4E98C
:1005C000F6E602C005900D92AC3AB107D9F723E0E8
:1005D000ACEAB1E001C01D92A13AB207E1F70E9476
:1005E000F5020C9448330C940000A9E3B0E0EBEF63
:1005F000F2E00C94FB3285B7806885BF85B78068D0
:1006000085BF84B7877F84BF0FB6F894A895809183
:100610006000886180936000109260000FBE90E0DF
:1006200080E80FB6F89480936100909361000FBE4C
:100630008DE197E19093AD018093AC010E9441263A
:100640000E94E7268091E20084608093E200789423
:100650008091DF028823A1F01091E9001F70909132
:10066000EC00892F817090FD80E8182B1092E90032
:100670008091E80083FD0E94BD1F1F701093E90068
:1006800082E084BD93E095BD9AEF97BD80936E00A4
:100690000E941924811102C00E94092408E111E07E
:1006A0009CE1E92E91E0F92ED8018D918D018F3FCB
:1006B00011F00E941E18E016F106B1F784EF0E94B7
:1006C0001E1885EF0E941E1887E90E941E1884E0FC
:1006D000E9EBF1E0DF01282F1D922A95E9F7EEEA18
:1006E000F1E0DF011D928A95E9F70E94371A811126
:1006F00002C00E94431A82E090E00E94213280935F
:10070000B30184E090E00E94293290938C0380939F
:100710008B030E943518BFEFE6E7F1E0B150E040EF
:10072000F040E1F700C000000E9435188091B90147
:1007300080FF08C06FEF7FEF80E090E00E945D32A5
:100740000E94E72883E090E00E9421320E94AA2FB5
:100750001092F502EEE0F3E08FEF9FEF819391931B
:1007600023E0EE31F207D1F710921E03E7E3F3E046
:100770008FEF9FEF8193919333E0E734F307D1F745
:100780000E94371A811104C00E94431A0E94072D4B
:1007900081E080934C0348E050E068E170E08DEE2A
:1007A00092E00E94113210924C038091ED028C7FF6
:1007B00011F40E94072D84E091E0909383038093CD
:1007C0008203DD24D3948E010F5F1F4F8091DF02DF
:1007D000853009F062C0F0E4CF2EA3E0BA2EB0E17C
:1007E000EB2E82E1F82E8091DF02853009F04FC0B8
:1007F0008091DF02843009F439C00E943225809153
:100800004B0381110DC00E94AD0F10921101809118
:10081000ED028370809310010E94BC22B0921201FD
:1008200041E040934B031092860388E190E00FB6BD
:10083000F894A895809360000FBEC092600083B7C3
:10084000817F846083BF83B7816083BF78948895FC
:1008500083B78E7F83BF0FB6F894A8958091600010
:10086000886180936000109260000FBE8091DE026C
:10087000882309F4B8CF0E943518E9EBF1E08191A3
:100880008111BDC491E0ED3BF907C9F7ACCF0E94DF
:10089000D02F0E94282A10924B030E943518A4EBF7
:1008A000B1E0BBA7AAA7E9EBF1E0FBABEAABDF0144
:1008B000E4EBF1E091918D91892721E0E83BF2078B
:1008C00019F08823B9F305C0811103C00E94131ADF
:1008D00062C144E252E05FA74EA787E691E09DA780
:1008E0008CA7C12CAAA9BBA95D90BBABAAABEAA5FA
:1008F000FBA52080252429AA222009F435C12EA495
:100900003FA42CA53DA539A728A7712C6624639484
:1009100089A9862109F418C1852C862079A2CAA24A
:100920000E944C299CA38BA331E03DA391E0811050
:1009300001C090E09EA349A15AA16BA17CA18DA109
:100940000E946309882049F0A8A5B9A58C918F3F22
:1009500021F088AB9924939401C0912CE92CF12CBF
:1009600080911E03F701E80FF11D3997ACF168E0A3
:10097000A62EB12CAE18BF08B7016F5F7F4F625E25
:100980007C4FA5018FE193E00E943F33B701675F81
:100990007F4F625E7C4FA50187E293E00E943F3368
:1009A000A501440F551FB701660F771F675E7F4F84
:1009B000625E7C4F87E393E00E943F33B7016F5E36
:1009C0007F4F625E7C4FA5018FE293E00E943F3330
:1009D00088E0891980931E0380911E0390E0F8A996
:1009E000AF2FB0E09D01220F331F2D583E4FAA0FAD
:1009F000BB1FBD016C587E4F41E0480F9915B0F404
:100A000090E0FC01E25EFC4FD9015C915183DB0177
:100A10005C915187B8A9B18B880F991FFC01E25EE8
:100A2000FC4F128E118E91E0842FE6CF80931E032F
:100A3000882009F489C08091ED028C7F8C3709F001
:100A400083C0E8A5F9A580818F3F09F47DC074E2D9
:100A5000872E72E0972EE7E6AE2EE1E0BE2E1FA2B3
:100A600090E09C01220F331FA9014D585E4F5FABF0
:100A70004EABD901AC58BE4FB9AFA8AF7401BDAAF7
:100A8000ACAA412CECA9FDA98191FDABECAB8F3F49
:100A900009F447C0FFA1FC110AC0471008C0D101EA
:100AA0002C9130E2230F08F42FEF2C933AC090E002
:100AB000EEA9FFA9408150E0FC01EE0FFF1FED58A9
:100AC000FE4F2081421B5109A8ADB9AD2C9130E0F9
:100AD000880F991FFC01E959FE4F8585281B3109B4
:100AE000449FB001459F700D700D1124229FC001DD
:100AF000239F900D900D1124860F971F0E947C2D2F
:100B0000893278F438E2282F321B08F430E0313192
:100B100008F030E1D7012C91230F08F42FEFF701F3
:100B200020834394FFEFEF1AFF0A23E04212AACF7B
:100B30003FA13F5F3FA343E0A40EB11C53E0850EED
:100B4000911C343009F09ACF7394660C88A599A54E
:100B5000019699A788A79FEF291A390AA3E07A126C
:100B6000D7CEEAA5FBA55082C3942AA53BA52F5F4B
:100B70003F4F3BA72AA74CA55DA54D5F5F4F5DA7E3
:100B80004CA78EA59FA503969FA78EA794E0C91298
:100B9000A9CE0E9440290E94322586E0E5E9F3E0D3
:100BA000D80101900D928A95E1F710929703109267
:100BB00098031092990310929A038B81811104C0BB
:100BC0008C81882309F451C0809193039091940300
:100BD0000E9431299C0190918E03992309F42EC320
:100BE0002531310508F441C09F3F19F09F5F909374
:100BF0008E03FB80FF2061F00E94C92E1F1414F4A5
:100C000091E001C09FEF899F802D1124809397036D
:100C1000FC80FF2061F00E94C92E1F1414F491E0A3
:100C200001C09FEF899F802D1124809398033091FC
:100C300097033323D1F0209198032223B1F045EBA1
:100C40003403C0011124992319F09093970302C033
:100C5000D092970355EB2503C0011124992319F075
:100C60009093980302C0D09298038D81811104C0A3
:100C70008E81882309F451C0809191039091920351
:100C80000E9431299C0190918F03992309F4DBC2C2
:100C90002135310508F441C09F3F19F09F5F9093C3
:100CA0008F03FD80FF2061F00E94A72E1F1414F413
:100CB00091E001C09FEF899F802D112480939903BB
:100CC000FE80FF2061F00E94A72E1F1414F491E013
:100CD00001C09FEF899F802D112480939A0330914A
:100CE00099033323D1F020919A032223B1F045EBED
:100CF0003403C0011124992319F09093990302C081
:100D0000D092990355EB2503C0011124992319F0C2
:100D100090939A0302C0D0929A0346E050E0B80143
:100D200085E993E00E943233892BA9F480919703DF
:100D300081110FC08091980381110BC0809199039C
:100D4000811107C081E090919A03911103C080E066
:100D500001C081E080FD0E947D2E86E0F801A5E9BA
:100D6000B3E001900D928A95E1F70E94282A9091B4
:100D7000B801891721F08093B8010E944029809121
:100D8000DF02843009F022CD83E08093E900809176
:100D9000E80082FF1BCD8091E80085FF21C00E9402
:100DA000602681111BC080E2A82EB12C780109C0F9
:100DB0008091F100D7018D937D01B1E0AB1AB108AC
:100DC00069F08091E80085FDF3CF8091E8008B7792
:100DD0008093E8000E946026882399F391E001C087
:100DE00090E08091E8008B778093E800992309F4E4
:100DF000EDCC2981822F90E0FC013197E832F1059A
:100E000008F0F4C1EA5AFF4F0C94EE3281E280936D
:100E1000BD011092BE0185E18093BF01D092C00157
:100E200059C082E28093BD01D092BE011092BF01F1
:100E300084E08093C0014EC083E28093BD01109294
:100E4000BE011092BF011092C00144C08A80CB80C5
:100E5000E9E0EC1528F07801A12CB12C912C02C00E
:100E60008EEF36C0E3E0EE0EF11CAC1408F0C0C10A
:100E7000D70112962C91129711964C9111976C9163
:100E8000C4018A0D9B1D0E94042DBFEFAB1ABB0A43
:100E9000E9CF60E08DE2CEC00E942625D0924C03BF
:100EA00048E050E068E170E08DEE92E00E9411327F
:100EB00010924C038091ED02982F937009F498C121
:100EC00060E086958695B6C087E28093BD0180E19B
:100ED0008093BE0140E250E06DEB71E082E00AC019
:100EE00088E28093BD0182E08093BE0140E250E041
:100EF0006DEB71E00E9477287BC11A828CE0E2C022
:100F00008A81823009F491C150F4813009F06EC1B8
:100F10000E9440299B838C837D836E8369C18330CB
:100F200041F0843009F062C11B821C821D821E8246
:100F30005FC16B81DE01149680E090E0262F30E0E7
:100F4000A901480F591F4430510508F051C1E62F3F
:100F5000E80FF0E0E754FE4F40814D9301968C314D
:100F6000910571F745C18A81823061F0853009F0C1
:100F70003DC18091ED02F1E08F278093ED02109248
:100F8000120136C16B817C818D819E810E94F43279
:100F90000E94E5232DC14C816B818A810E94B72379
:100FA0009D834AC12D813E813227232732274C81E0
:100FB0006B818A810E945B231BC10E94822318C11E
:100FC0008A81833009F012C1283009F43EC02930EB
:100FD00009F468C08B818230D1F070F4813009F05F
:100FE00007C14C812FEF429F412D11248091EE02C9
:100FF00020E06091EF0225C08330F9F0843009F0E1
:10100000F7C08C8120E04091F0026D811AC08C8184
:10101000811103C00E942625EBC09091ED029370D0
:1010200011F4109212019091ED029C7F91609093C7
:10103000ED0260E00E94F624DBC08C818093F10217
:10104000D7C090E00E949824D3C08B818230E1F019
:1010500078F4813009F0CCC08091F0022FEF829FAC
:10106000C00111246FEF70E00E94C6326C83C0C0D3
:101070008330A1F0843009F0BBC08091EE028C83F4
:101080008091EF028D83B4C08091ED02982F937010
:1010900019F08695869504C080E002C08091F10227
:1010A0008C83A6C048E050E068E170E08DEE92E0ED
:1010B0000E942F3210924C039BC080E152C083E00B
:1010C0008A8387E78B8394C0EA80FB80FE24EF2429
:1010D000FE248C80912C5801C70187579F4F9501A2
:1010E000201B310B2815390508F082C037E7E316BD
:1010F00033E0F30630F40E942132D50114968C932C
:1011000002C0F5011482FFEFEF1AFF0A2FEFA21AB7
:10111000B20AE2CFEA80FB80FE24EF24FE248C801A
:10112000912C5801C70187579F4F9501201B310B08
:101130002815390508F05CC037E7E31633E0F306FD
:1011400028F4D50114966C910E943F32BFEFEB1A40
:10115000FB0AEFEFAE1ABE0AE5CF0E944B2348C050
:1011600084E08A8345C0EA80FB80FE24EF24FE24CD
:101170008C80912C5801C70189969501201B310B59
:1011800028153905A8F5F0E6EF16F10430F40E94B1
:101190002132D50114968C9302C0F5011482FFEF21
:1011A000EF1AFF0A2FEFA21AB20AE5CFEA80FB80FE
:1011B000FE24EF24FE248C80912C5801C7018996CF
:1011C0009501201B310B2815390590F430E6E31604
:1011D000F10428F4D50114966C910E943F32BFEFC0
:1011E000EB1AFB0AEFEFAE1ABE0AE8CF8FEF898346
:1011F00040E250E0B80182E00E947728E7CAE9BCEB
:10120000F9BC09B400FEFDCF8091D8008F7D80939A
:10121000D8008091E00082608093E0008091E0003F
:1012200081FDFCCF0E94D02FDECA88E290E00E94B0
:1012300021321B821C821D828E83DACF2B30310536
:1012400008F0D4CC12CD2B30310508F027CD65CD78
:10125000A6E0B0E0EEE2F9E00C940A3349835A8349
:1012600049815A81992361F0222351F0CA010E94D9
:10127000E92E182F682F89819A810E94592F04C066
:10128000CA010E94252F182F69817A81812F0E941F
:10129000E8182696E3E00C9426330E94D02F2FEF17
:1012A00084E39CE0215080409040E1F700C00000C2
:1012B0009CE088E10FB6F894A895809360000FBE7B
:1012C00090936000FFCFABE1B0E0E9E6F9E00C9469
:1012D00009334E8B5F8B688F798F8A8F9B8F192F85
:1012E00091111092B302DE011F9687E0FD01119269
:1012F0008A95E9F786E0FE01769601900D928A952F
:10130000E1F70A8D002341F021E04F855889698972
:101310007A89C8010E9428090B8B1C8B87E0FE018B
:101320003F96DE01189601900D928A95E1F7CE0165
:1013300008960E94A11B81112CC087E0FE013896FF
:10134000DE01119601900D928A95E1F76C85662376
:1013500001F12091570230E0C90101968770992769
:101360004091900250E08417950761F16D8397E0FA
:10137000929FD001939FB00D1124A85ABD4FFE013A
:10138000319601900D929A95E1F7809357020E9451
:101390003E1B17E080919002909157028917F9F057
:1013A000189FC0011124885A9D4F0E94A11B8823B9
:1013B000B1F08091900290E0019687709927809318
:1013C0009002E8CF0E94D02F109257021092900204
:1013D000E0E5F2E087E0DF011D928A95E9F76B9680
:1013E000E4E00C942533A8E0B0E0E9EFF9E00C94D8
:1013F000FB32FC018481882309F4ABC57F0121E025
:10140000408151816281738195810E9428098C01FC
:10141000F7018581882309F42CC1C80197578038CA
:10142000910508F048C1003108F033C18FEF93E017
:101430000E94213281112DC139E8A32EB12C002345
:1014400079F0A114F4E0BF0609F423C1C5010E949C
:101450002132811101C001502FEFA21AB20AEFCF41
:10146000CE0101962C0188E0F20111928A95E9F7EC
:101470002AE0322E85010F5F1F4FC5010E942132E5
:1014800089831A82882309F404C1813009F041C09C
:101490006501F2E0CF0ED11CC8010E9421328A837F
:1014A000882309F4F6C09FEF980F933060F423E08F
:1014B000A20EB11CC6010E9421328B83882309F43D
:1014C000E8C01C8229C0843031F54E0133E0830E20
:1014D000911C02E010E056018FEFA81AB80AC6016D
:1014E0000E942132F40181934F01882309F4D1C075
:1014F0008C3741F4E2E0F0E0EC0FFD1FE00FF11F4C
:1015000010820AC00F5F1F4F65010730110519F7E0
:10151000C0C0580101C056018201F8012081222378
:1015200009F4A8CF213009F04CC08181813049F401
:101530006801F2E0CF0ED11CF80182810E94963141
:101540000AC0823051F46801F2E0CF0ED11CF801DC
:1015500082810E941E31860189C0833049F468016E
:10156000F2E0CF0ED11CF80182810E94E830F3CF67
:10157000843019F00F5F1F4F79C0F80122810E5F90
:101580001F4F80E090E030E0205331092A303105D0
:1015900068F4389EA001399E500D1124C901840FB2
:1015A000951F0F5F1F4FF8012081EDCF009709F4C1
:1015B0005DC0EFE9FFE03197F1F700C0000001974F
:1015C000F5CFE22FF0E0EC52FE4F2490822F86956B
:1015D0008695869590E0FC01EC53FE4F6490277051
:1015E000712C022E02C0759467940A94E2F7F1E020
:1015F0006F227724FC01EC54FE4F8490912C022E34
:1016000002C0959487940A94E2F731E083229924EA
:10161000FC01EC55FE4FC490D12C02C0D594C79468
:101620002A95E2F781E0C822DD246114710419F0E3
:1016300081EE0E941E318114910419F086EE0E9401
:101640001E31822D0E9496318114910419F086EE8C
:101650000E94E8306114710419F081EE0E94E830B4
:10166000C114D10419F08CE20E9496310F5F1F4F14
:1016700054CFF801E851FC47E730F10508F041C1CB
:1016800003C106E221EE41EE6AE17CE7C7010E9458
:10169000E22280919102877009F45BC4F701858191
:1016A000882309F456C480918C0382FF52C482E0DF
:1016B0000E94101B4EC4F801E851FC47E730F105C9
:1016C00008F4E2C010927F03C8019057839708F096
:1016D00003C184E090E00E94293290938C038093B0
:1016E0008B03F801E150F047E232F10520F4E258B3
:1016F000FF4F0C94EE3280918B038160ACC08091DF
:101700008C038860B4C080918B038260A4C08091F8
:101710008B0320C080918B0388609DC080918C03D7
:101720001EC080918C038260A2C080918B03806177
:1017300092C080918B0380628EC080918B03806405
:101740008AC00E94D02F80918B03806884C08091D2
:101750008B03886084607FC080918C03826081608D
:1017600086C080918B038E7F76C080918C03877FAB
:101770007EC080918B038D7F6EC080918B0320C0D3
:1017800080918B03877F67C080918C031EC08091FE
:101790008C038D7F6CC080918B038F7E5CC08091A9
:1017A0008B038F7D58C080918B038F7B54C00E9428
:1017B000D02F80918B038F774EC080918B03877FD2
:1017C0008B7F49C080918C038D7F8E7F50C080912C
:1017D0008B0382FB222720F991E0922790FB82F96C
:1017E00090FB83F938C080918C03982F909591706D
:1017F0008E7F892B90FB81F93AC080918B0386FB09
:10180000222720F991E0922790FB86F924C00E94BC
:10181000D02F80918B0387FB222720F991E092271C
:1018200090FB87F918C061E001C060E08EE090E0B5
:101830000E943F321EC080918B0384FB222720F937
:1018400091E0922790FB84F906C080918B03982F3A
:10185000909590FB80F980938B030BC080918C0353
:1018600083FB222720F991E0922790FB83F9809354
:101870008C0360918B0370918C0384E090E00E9454
:101880005D320E94D02F05CFE056FF4F0C94EE3210
:1018900007E225EE45EE6BE17CE7F8CE06E221EEAD
:1018A00040EE68E17CE7F2CE07E225EE44EE69E126
:1018B0007CE7ECCE06E221EE42EE6CE17CE7E6CE80
:1018C00007E225EE46EE6DE17CE7E0CE08E221E09E
:1018D00045EE6EE17CE7DACE0631FCE71F0709F042
:1018E0008EC08091B4028A7A91E009F490E09093DE
:1018F000DD01811116C069E280E392E00E94A9290E
:101900000DC006312CE7120771F48091DD018111C1
:10191000E7C269E280E392E00E9481290E94BB1A3B
:10192000B8CE65E3E9CF8091B4028272F801E0524B
:10193000F847E531F10508F054C0E955FF4F0C9424
:10194000EE329091ED0281E089278093ED021092B2
:10195000120180914C03816080934C039ACE4FE03A
:1019600055E26AE175E22CC04AE155E26FE075E2AA
:1019700027C040EE54E26BEE74E222C04BEE54E21C
:1019800060EE74E21DC044EC54E262ED74E218C0F3
:1019900042ED54E264EC74E213C048EA54E266EBB0
:1019A00074E20EC046EB54E268EA74E209C040EA11
:1019B00052E26EEA72E204C04EEA52E260EA72E279
:1019C0000E94322466CE61E081E008C061E085E0DB
:1019D00005C061E08DE002C061E082E10E94F62472
:1019E00058CE0737FCE71F0711F481E005C0083720
:1019F0002CE7120711F582E00E94912F08C00737EB
:101A00003CE7130709F06EC281E00E949E2F43E07D
:101A100062E081E00E94281D3CCE03309CE719075C
:101A200009F483C208F065C20115FCE71F0709F439
:101A30006EC201301C4709F47EC2F7018581008126
:101A40001181882349F0C8010E94E92ED82E682F01
:101A5000C8010E94592F04C0C8010E94252FD82E0A
:101A6000B8018D2D0E94E8180E94F618D82E192F63
:101A7000A82EF7010581C680C2949FE0C9228091FB
:101A800091028770E9F00023D9F0812F807F8034A4
:101A900051F080E28D0D883098F0C11004C0812F84
:101AA000807E803269F080918C0382FF09C082E0E1
:101AB0000E94101B809191028770BB24B394811106
:101AC000B12C912E92948FE09822892D90E08C3049
:101AD000910508F0DDC1FC01E454FF4F0C94EE3297
:101AE000812F807F1F70882311F01295107F0023B3
:101AF000B9F0112309F4BAC180E28D0D883010F0DD
:101B0000A11006C09091B402192B1093B40205C025
:101B10009091B302192B1093B3020E94BB1AA6C175
:101B20008D2D0E94E830112309F4B2C180E28D0DA1
:101B3000883088F1AA2079F110959091B302192389
:101B40001093B3022BC0812F807F1F70803211F061
:101B50001295107F8D2DAA2029F0F1E0AF1609F41F
:101B60004CC057C080918C0382FD1BC0002369F0DC
:101B7000112339F09091B402192B1093B4020E94F2
:101B8000BB1A80E00E941E3183C180E00E94E830D1
:101B9000112309F47DC1812F0E94B41A0E94BB1A3F
:101BA00077C1002381F0CC20C1F121E0C21270C1C5
:101BB0009091B202812F8923181709F469C1192B5A
:101BC0001093B20265C1C11063C1812F0E94FF2F23
:101BD0008091B202912F982329F0912F909589231B
:101BE0008093B2028091DE01912F982309F450C1B5
:101BF000109581238093DE014BC1002329F035E04D
:101C00003C1508F445C109C084E08C1508F440C1B6
:101C100015C0002331F0C11029C1812F0E94063068
:101C200037C1CC2059F0893309F02FC19FEFE7EE7F
:101C3000F3E09150E040F040E1F725C1812F0E9490
:101C4000FF2F26C1812F86958695837019F08130EC
:101C500061F01EC1002321F08D2D912F937002C0E1
:101C600080E090E00E94032A19C1002321F08D2D0D
:101C7000912F937002C080E090E00E94DE290EC197
:101C8000602F8D2D0E94103009C1812F8370A9F51E
:101C9000011102C14D2D429546954770440F440FE6
:101CA0008D2D8F7090E09C01042E01C0220F0A94AC
:101CB000EAF7D4FE08C08FE090E001C0880F4A9593
:101CC000EAF7809501C080E01695169513701230E2
:101CD00069F088F49091B502113019F0822B8923B4
:101CE00002C0922B892B0E94AA2FD6C0822B9091E2
:101CF000B5028927F8CF822BF6CF002319F0812F68
:101D0000817001C08695882309F4C6C04D2D429587
:101D100046954770440F440F8D2D8F7090E09C01C5
:101D2000042E01C0220F0A94EAF7D4FE08C08FE007
:101D300090E001C0880F4A95EAF7809501C080E0E5
:101D4000169516951370123059F078F49091B201EF
:101D5000113019F0822B892309C0922B892B06C0E0
:101D6000822B9091B201892701C0822B0E948E2F75
:101D700093C01F70002339F0812F0E949E2F8D2D5C
:101D80000E94063089C08D2D0E94FF2F812F0E9456
:101D9000912F82C08D2D22EFA21681F12A1538F0E5
:101DA00030EFA31659F091EFA91619F15BC0E3EFDC
:101DB000AE1659F1F4EFAF16C1F054C0002381F014
:101DC00024E02C1508F464C01F7181E090E0012E1E
:101DD00001C0880F0A94EAF79091B201892720C0C8
:101DE00035E03C1508F454C0EFCF80918C0382FDA0
:101DF0001AC0002329F0812F8F7127C00023D9F347
:101E0000812F8F710E94912F43C0002341F01F71D9
:101E100081E0012E01C0880F0A94EAF701C080E03A
:101E20000E948E2F35C0002399F01F71812F0E94D0
:101E30009E2F80918C0382FF07C0E8E01E9FC001A7
:101E40001124836080939102812F0E949E2F20C0D5
:101E500081E00E94101BF1E0FC15D0F482E00E94AA
:101E6000101B16C0002321F0CC2029F28D2D8ACE24
:101E7000CC2031F2893349F42FEF37EE83E0215043
:101E800030408040E1F700C000008D2D0E94E83016
:101E900088EF890D843010F40E94282ABB20A9F015
:101EA0008091910280FD11C0F7011582869586957B
:101EB00086950E949E2FC7010E94F309809191028E
:101EC0008695869586950E94912F20E0F7014081A6
:101ED000518162817381848195810E94280939C072
:101EE00065E318CD08378CE7180709F096CD82E036
:101EF0008CCD0B353CE7130741F10C358CE7180707
:101F0000E1F00A351C4709F098CD81E01FC00E941E
:101F1000D02FEFEFF4E32CE0E150F0402040E1F768
:101F200000C000000E94E728B4CB6FEF7FEF80E095
:101F300090E00E945D320E944D0980918C0382FBEB
:101F4000882780F991E0892701C080E00E94271B43
:101F500074CD2896E2E10C941733A3E0B0E0E3EBF4
:101F6000FFE00C94FB32582E8091110185110DC0B9
:101F70002091ED02237030E04091100150E081E0AB
:101F80002417350719F480E001C081E08170809347
:101F90000F018091F20290910E01981739F0809311
:101FA0000E0140E060E080E00E94012D97E15912AF
:101FB00082C0E0910D01EE0FEE0FE9831E2F1C5F32
:101FC000113108F010E180910F01811121C0609161
:101FD000F10220E1620F08F46FEF8091E902909125
:101FE000EA020E94D62D6AE070E00E94C632892B78
:101FF00041F50E94672DF0E18F9F900111246091BF
:102000000E01832F932F990F990B0E945D2419C005
:102010003981232F30E03B832A83E12EF12C8A8102
:102020009B818E159F056CF460910E018A819B81C6
:102030000E945D244A815B814F5F5F4F5B834A83CF
:10204000EECF91E0998302C051E059831031F0F056
:102050001CC0A51508F4DAC1B5E05B1609F43DC053
:10206000B51508F4B5C1E2E05E1609F484C0E515C3
:1020700008F40FC15110C6C080910F01882329F0C8
:1020800040E060E080E00E94012D198280910D0106
:102090008F5F80930D0189818111CBC682E080938F
:1020A000120180910F018111C4C65110C2C683E094
:1020B00080931201BEC6951508F4F2C1ABE05A1226
:1020C000C8CF8FE89CE205C0BAE05B12ECC08BEA97
:1020D0009CE20E94EF1E8983D9CFF0910D01FF0F82
:1020E000FF0FF983FC5FFA83F13110F020E12A83BE
:1020F0000091EE021091EF02F090F0026091F10277
:102100006695669566958091E9029091EA020E9433
:10211000D62D0E94222D805887FD8195880F382F5B
:102120004F2D349F312D1124832FB8010E94F32DA0
:10213000162F072FF82E9981AA819A17B0F459818A
:10214000E52FF0E0DF01A959BE4F9C968C9190914C
:102150000E01982331F02F2D412F602FCF010E94C7
:10216000042D89818F5F8983E6CFB1E0B983A031E7
:1021700008F48CCF8ACFB0910D01BB0FBB0FB98390
:10218000BC5FBA83B13110F0E0E1EA830091EF0265
:102190001091F002F090EE026F2D702F812F0E94AF
:1021A000F32DE62ED72EC82E6091F1026F0D702F01
:1021B000812F0E94F32D162F072FF82E39814A8187
:1021C0003417D0F4F9818F2F90E0FC01E959FE4FCC
:1021D00034A520910E01232359F030FF04C02F2D88
:1021E000412F602F03C02C2D4E2D6D2D0E94042DEC
:1021F00029812F5F2983E2CF51E05983403108F4D0
:1022000045CF43CFF1E05F124EC020910D01220F68
:10221000220F29832C5F2A83213110F030E13A8389
:102220006091EE027091EF028091F0020E94F32D16
:10223000162F072FF82E8A8199819817B0F44981BB
:10224000E42FF0E0DF01A959BE4F9C968C9190914C
:102250000E01982331F02F2D412F602FCF010E94C6
:10226000042D59815F5F5983E6CFA1E0A9830DC09A
:10227000B51508F096C52DE25212A7C580910D0143
:10228000880F880F8C5F51E05983803108F4FECEAF
:10229000FCCE20910D01298333E0531651F044E028
:1022A000541609F44AC080910D018F5F80930D018F
:1022B000F5CE8981880F880F89838C5F8A8381316D
:1022C00010F090E19A830091EF02D090F0022091FB
:1022D000F10210E4129F112D1124E981FA81EF1708
:1022E00030F5A981EA2EF12CF701E959FE4F94A5AA
:1022F00080910E018923B9F0F701EE0FFF1FE95914
:10230000FE4F858582958F706091EE02819F600DF2
:102310001124702F8D2D0E94F32D462F282F672F0B
:10232000C7010E94042DB981BF5FB983D6CF21E0D8
:102330002983F03108F4AACEA8CE3981330F330FA8
:1023400039833C5F3A83313110F040E14A83E090B9
:10235000EF02D090F0022091F10280E4F82E5F2D80
:10236000529F512D1124F52EA981BA81AB1750F53A
:102370008981082F10E0F801E959FE4F94A580915A
:102380000E018923D9F0F801EE0FFF1FED58FE4F23
:102390006081F69EB0011124B5E075956795BA95F8
:1023A000E1F78091EE02680F7E2D8D2D0E94F32DB6
:1023B000462F282F672FC8010E94042D99819F5F07
:1023C0009983D2CFE1E0E983B03108F45FCE5DCEEE
:1023D00058E0551203C084EE9CE207C0551540F446
:1023E000A9E05A1271CE86EC9CE20E94691F73CE5E
:1023F00086E0581203C08CE09CE205C097E05912B9
:1024000052CF80EE9BE20E94541E65CEE1E15E1247
:1024100003C08DEA9DE2E9CFE51500F1FEE05F1211
:1024200003C08CEC9BE2EFCFF51560F02CE052126C
:1024300003C08EED9BE2E7CF3DE0531234CF85ED34
:102440009BE2E1CF4FE0541203C081EB9BE2DBCF74
:1024500050E1551228CF82EA9BE23BCE84E158122C
:1024600003C084E79BE207C0851540F4B5E15B1229
:1024700011C082E49BE20E949C1E2DCE92E1591273
:1024800003C08EE79CE2B1CFA3E15A120CCF8AE6DB
:102490009CE21FCEE6E15E1206CF84E09BE2EBCF2A
:1024A000F3E25F121BC08091F50221E0382F321B4E
:1024B00008F430E0832F6DEC7AE20DC085E258120B
:1024C000F2CE8091F50221E0482F421B08F440E053
:1024D000842F65E97AE20E944A1DFDCDF51508F4C6
:1024E00027C42DE15212E9C0409113025091140209
:1024F00060911502709116028091E9029091EA02B2
:10250000A091EB02B091EC0284179507A607B707DC
:1025100008F4BBCD80910F0181110CC0A0910D0179
:10252000AA0FAA0FA9830A2F0C5F013108F458C023
:1025300000E156C040E060E080E00E94012D03EE23
:1025400011E01B821A820E94672D81FF05C0F801ED
:1025500010821182128220C00E94672DD82E0E9404
:10256000672DF0E88F9FC00111247FE7790FEA8083
:10257000FB80EE0CFF1C8A819B818E0D9F1D9C01B0
:102580002D513E4F79016D2D8091F0020E94F32D67
:10259000D7016D937D938C93EA81FB813196FB8308
:1025A000EA830D5F1F4F709771F6B8CFF9818F2FB7
:1025B00090E0FC01E959FE4F34A520910E01232340
:1025C00061F0FC01EE0FFF1FE80FF91FED51FE4F08
:1025D0002281408161810E94042D29812F5F2983FE
:1025E0003981301718F341E04983003108F019822E
:1025F000003108F44BCD20E010E001501109822F8A
:1026000090E080179107C4F4DC01AA0FBB1FA80F4C
:10261000B91FAD51BE4F0196FC01EE0FFF1F8E0F8B
:102620009F1FFC01ED51FE4FC080D180E280CD9212
:10263000DD92EC922F5FE3CF0E94672D7801EE0CC4
:10264000FF1C81FF09C00E0D1F1DF801ED51FE4F4B
:1026500010821182128218C00E94672D8A830E9404
:10266000672D50E8859FC00111247FE7790F0E0D7B
:102670001F1D0D511E4F6A818091F0020E94F32DA3
:10268000D8016D937D938C930E94E02D0091E90217
:102690001091EA022091EB023091EC02DC01CB01B7
:1026A000800F911FA21FB31F8093130290931402F7
:1026B000A0931502B0931602E9CC251508F429C1A0
:1026C0003AE1531203C083E49DE29DCE351508F430
:1026D0009FC048E154124AC080910F01811122C06D
:1026E0006091F10220E1620F08F46FEF8091E9023E
:1026F0009091EA020E94D62D65E070E00E94C632F9
:10270000892B09F0C2CC0E94672DA0E18A9F90011D
:10271000112460910E01832F932F990F990B0E9422
:102720003924B3CCB0910D01BB0FBB0FB9831B2F64
:102730001C5F113108F010E1F981EF2FF0E0FB830D
:10274000EA83E12EF12C4A815B814E155F050CF086
:102750007BCC60910E018A819B810E9439242A8161
:102760003B812F5F3F4F3B832A83EDCF59E15512C9
:102770009ACD80910D01880F880F89838C5F8A83A1
:10278000813110F090E19A830091EF021091F002F4
:10279000F090EE026091F1026695669566958091E3
:1027A000E9029091EA020E94D62D0E94222D8058C3
:1027B00087FD8195880F682F2CE0629F612D112481
:1027C0006F0D702F812F0E94F32D162F072FF82EDB
:1027D000EA81F981FE17B0F4A981EA2FF0E0DF0168
:1027E000A959BE4F9C968C9190910E01982331F07F
:1027F0002F2D412F602FCF010E94042DB981BF5F83
:10280000B983E6CF21E02983E03108F43FCC3DCC09
:102810008BE1581203C083EF9AE2F5CD9CE1591287
:1028200042CD30910D01330F330F3C5F3A8340911D
:10283000E9025091EA026091EB027091EC02809102
:10284000DF019091E001A091E101B091E2018417D4
:102850009507A607B70708F055C00E94672D40E10D
:10286000849FC0011124092F112707FD1A95F80133
:10287000E959FE4F94A580910E01892309F442C0C5
:102880000E94672D81FF04C020E040E060E013C09B
:102890000E94672D89830E94672D50E8859FC001A3
:1028A00011247FE7790F69818091F0020E94F32D56
:1028B000462F282F672FC8010E94042D2091F10276
:1028C00030E1230F08F42FEF60E1822F90E00E94A7
:1028D000D62DBC0184EF91E00E94C6328091E902BE
:1028E0009091EA02A091EB02B091EC02860F971F43
:1028F000A11DB11D8093DF019093E001A093E10140
:10290000B093E20181E089839A81903108F4BECBD3
:10291000BCCBA0E25A12C8C04090F002A3E04A9E8D
:10292000C001112496958795969587959B838A83F8
:10293000BA81B983642C712C8FEF90E0B3010E94AF
:10294000DA32362E80910F01882371F040E060E08A
:1029500080E00E94012D8CE0E4E2F2E0DF011D92B4
:102960008A95E9F710922302809122028F5F80936B
:10297000220237E6A32E31E0B32E47E2842E42E056
:10298000942E54E2E52E52E0F52EEA81FB816E1A78
:102990007F0A87016501212C21100CC08091230240
:1029A000811108C00E940132853595401CF4D70181
:1029B0004C920CC0F8018081882341F0841530F4DA
:1029C00090912202391202C081508083D601EC918D
:1029D000EF3F29F1D8012C91F0E0B981B21790F4C2
:1029E00030E04A815B81241B350B249FC001259F69
:1029F000900D349F900D1124B3010E94C632262FF2
:102A0000442D0AC0429EC00111246A817B810E942C
:102A1000C632462F20E060E0CF010E94042D2394AF
:102A200053E0C50ED11C0D5F1F4F84E02812B4CFB8
:102A30009FEFE91AF90AAFEFAA1ABA0A8E149F0497
:102A400009F0A7CF80912202381202C01092220210
:102A5000809123028F5F8D3118F48093230215CB70
:102A6000109223022AE232E083E09FEF940DA4E269
:102A7000B2E0F901833041F419964C911997441250
:102A800003C019969C9319974081441510F09083C8
:102A90004382319611968A169B0661F78150235026
:102AA00031098111E4CFF1CAA51508F433C1809131
:102AB0000F01BEE15B128CC0882329F040E060E08A
:102AC00080E00E94012D10910D01110F110F1C5F6C
:102AD0004091E9025091EA026091EB027091EC02A0
:102AE00080911B0290911C02A0911D02B0911E02C8
:102AF00084179507A607B70708F067C06091EE0234
:102B00007091EF028091F0020E94F32D062FB72EF4
:102B1000A82EB7E1EB2EB2E0FB2EE7E6F1E0FB8357
:102B2000EA8383E7C82E81E0D82ED7018C91EA8111
:102B3000FB81882379F080812A2D402F6B2D90E036
:102B40000E94042DAA81BB8112968C912A2D402FC0
:102B50006B2D0EC0808120E040E060E090E00E949C
:102B6000042DAA81BB8112968C9120E040E060E0A8
:102B700090E00E94042D0E94672D837091E009F07F
:102B800090E0F70191937F012A813B812D5F3F4FB8
:102B90003B832A83C216D30641F60E94E02DC090E3
:102BA000E902D090EA02E090EB02F090EC02DC0146
:102BB000CB018C0D9D1DAE1DBF1D80931B029093FC
:102BC0001C02A0931D02B0931E0231E039833ECA5D
:102BD000EFE15E1268CB70900D01770C770C04E08A
:102BE000070D013108F000E1882361F040E060E06A
:102BF00080E00E94012D8CE0E4E2F2E0DF011D9212
:102C00008A95E9F780910D01811115C0809120020C
:102C1000909121020E94312921E08931910508F427
:102C200020E020931F02499730F00E944C29909396
:102C3000210280932002E7E6EE2EE1E0FE2EF4E290
:102C4000AF2EF2E0BF2E612CAAEA3A2E65014701B1
:102C500073E0472EF40121914F012983271508F4D1
:102C60003EC0201708F03BC06394422F50E05B83C6
:102C70004A83FA01E959FE4F94A580910E018923F8
:102C800009F42DC0D6011C91312F25E5321B08F423
:102C900030E07091EF02232D210F08F42FEF4091C7
:102CA000F00252E0259F200D11242E5F249F212D3C
:102CB0001124632D631B822F0E94F32D462F282F92
:102CC000672F8A819B810E94042D80911F02882397
:102CD00031F021E0121B08F410E0D6011C934A9455
:102CE000BFEFCB1ADB0A4110B5CFE0E7EE16E1E00B
:102CF000FE0651F0F3E0EF0EF11C23E0A20EB11C32
:102D000033E0361508F0A2CF41E04983003108F4E2
:102D1000BDC9BBC9F1E25F1203C08CEE9AE205C0E7
:102D200022E25212C0CA86EE9AE20E94E71DD3C97F
:102D300039E253120BC08091F50221E0382F321B8B
:102D400008F430E0832F6BE47AE2C5CB351518F137
:102D500046E2541203C065E97AE207C0451538F02F
:102D600054E25512ABCB6DEC7AE280E0B4CB97E243
:102D700059120BC08091F50221E0582F521B08F424
:102D800050E0852F63E67AE2A6CBA8E25A128BCAFE
:102D900063E67AE2EACFBCE25B126ACA65E37AE2F2
:102DA000E4CFEAE25E1203C06BE47AE2DECFFBE23C
:102DB0005F1279CA8091F50221E0482F421B08F486
:102DC00040E0842F65E37AE286CB3FEF53126BCA73
:102DD0008091E9029091EA02A091EB02B091EC029D
:102DE00088279C70AA27BB272AE0B695A7959795B8
:102DF00087952A95D1F782309105A105B10571F02B
:102E000083309105A105B10569F040E00197A10566
:102E1000B10511F060E008C064E102C044E160E087
:102E200080E003C044E164E184E10E94012D82E07E
:102E30003FC92396E2E10C94173380E00895909106
:102E40008B0392FF0DC0282F2871283019F4877F3B
:102E5000846006C0282F2471243011F48B7F886091
:102E600093FF0DC0282F2871283119F4877E8461C3
:102E700006C0282F2471243111F48B7E88612091A3
:102E80008C0320FF0DC0382F3871383019F4877F3C
:102E9000816006C0382F3171313011F48E7F886027
:102EA00021FF0DC0282F2871283119F4877E8161F8
:102EB00006C0282F2171213111F48E7E886194FD86
:102EC000877E08958238910569F1B0F481339105C8
:102ED00009F475C048F48932910509F467C08A3253
:102EE000910509F471C008958533910509F459C01D
:102EF00089339105B9F00895833E910589F138F43D
:102F0000803E9105D1F0823E910529F10895863EDB
:102F10009105C9F1873E9105D9F1843E910509F0EB
:102F20006CC027C020918B0320FD57C021FD55C0E8
:102F300020918C0323FD5BC0089580918B0380FD5D
:102F400048C080918C0380FF48C080918B0384FD32
:102F500046C083EE51C080918B0382FF3CC0F5CF09
:102F600080918B0382FD37C080918C0380FD35C03A
:102F7000ECCF80918C0381FF36C080918B0384FD60
:102F80002EC087EE39C080918B0383FF2AC0F5CF16
:102F900080918B0383FD25C080918C0381FD23C02C
:102FA000ECCF80918B0385FD22C01FC080918B03E5
:102FB00085FD1BC080918C0383FF19C00AC08091DE
:102FC0008B0386FD16C017C080918B0386FD13C04E
:102FD00010C089E311C082EE0FC080EE0DC080E00A
:102FE0000BC086EE09C084EE07C085E305C089E208
:102FF00003C08AE201C081E390E00895209190022D
:103000009091570257E02917A9F030E0529FF00144
:10301000539FF00D1124E85AFD4F7181761306C0BD
:103020007081781303C07581741306C02F5F3F4F02
:103030002770E9CF80E0089581E00895F894E82FA3
:10304000E295EF70F0E031A1282F2F7081E090E041
:1030500001C0880F2A95EAF7982F9095932391A3A2
:1030600092A1892B82A378940895A4E0B0E0EBE3C9
:10307000F8E10C94023319821A821B821C8208E147
:1030800011E0AE014F5F5F4F7A015A01CC24C39427
:10309000D12CF80180818F3F09F441C0F894E82FCA
:1030A000E295EF70F0E021A18F70A60102C0440FFD
:1030B000551F8A95E2F7CA01922F982B91A392A1EE
:1030C0008095892382A3789400C0ECE1F1E0912CF3
:1030D00031E021912F3F89F0A22FA295AF70B0E08F
:1030E00090968C9190E02F7002C0959587952A95C7
:1030F000E2F780FD02C0832F01C080E0982A330FE1
:1031000051E0EF31F50729F7F80180818F3F11F089
:103110000E941E18F0EAFA95F1F7F70190820F5F0E
:103120001F4FFFEFEF1AFF0A41E00C31140709F0BF
:10313000B0CF44E050E0B5018EEA91E00E94323316
:10314000892BA9F089819A81AB81BC818093AE01E2
:103150009093AF01A093B001B093B10181E080934F
:10316000BA020E944C299093B9028093B8028091D0
:10317000BA02811102C080E027C08091B80290910C
:10318000B9020E9431290597B0F344E050E06EEA9D
:1031900071E089EB91E00E943233892B91F08091AC
:1031A000AE019091AF01A091B001B091B1018093B7
:1031B000B9019093BA01A093BB01B093BC0181E027
:1031C00001C080E01092BA022496EBE00C941E330A
:1031D000743048F4633038F4843028F4462F672F75
:1031E0000E94B723089580E090E008951F93CF9345
:1031F000DF930E946217EC01C11580E5D807E8F55E
:10320000C11590E4D90708F0A8C0C03ED10530F53B
:10321000CD3CD10508F094C0C83AD10578F4C53A40
:10322000D10508F083C0C130D10509F47CC008F491
:10323000F2C0C430D10508F0F1C0EDC0C33CD105E7
:1032400008F0E9C0C85AD0E0CC0FDD1FCE5DDE4FDC
:103250000990D881C02DCE019464E1C0C11580E2EF
:10326000D80708F0CBC0C11591E0D90708F06BC0B2
:10327000C83ED10508F4D2C0CEC0C03682E5D8071A
:1032800028F5C03492E5D90708F079C0C03282E54C
:10329000D80708F06CC0C11592E5D90708F481C0C1
:1032A0004C2F4695469580E2489FA0011124C3709B
:1032B00021E030E0C90102C0880F991FCA95E2F7EA
:1032C000EA01C82BD92BCE019D68A9C0C03A82E57E
:1032D000D807B8F48C2F8F71C03892E5D90708F061
:1032E0007BC08695869590E2899F90011124C370DA
:1032F00081E090E002C0880F991FCA95E2F79A68B2
:1033000068C0C03C82E5D80708F46DC0C03E92E5B5
:10331000D90708F080C0CF71DD27DC2FCC27CE0184
:10332000806F906A7CC081E090E079C0C55AD0E09F
:10333000C15EDE4F8881C82FD0E0CE0190646FC09F
:10334000CE0190656CC08D2F0E941F17182FCE01E3
:1033500099270E9462171F715CC0CE0199270E94B5
:103360006217CC27DF70D06A8C2B9D2B58C0CF7191
:10337000D0E0DC2FCC27CE01816F906A50C08C2F1B
:103380008F718695869590E2899F90011124C37074
:1033900081E090E002C0880F991FCA95E2F79C680F
:1033A00018C08C2F8F710E941F1795E0D695C79576
:1033B0009A95E1F7CF70D0E0DC2FCC27282F30E0B2
:1033C00084FF05C084E0220F331F8A95E1F7D0699E
:1033D000CE01822B932B23C090E0D82FCC27CE0197
:1033E000846F906A1CC08C2F8F710E941F178F7181
:1033F00090E0D82FCC27CE01906211C08D2F8F7115
:103400000E941F17182FCE0199270E9462171F7163
:103410009062912B04C080E090E001C0CE01DF916A
:10342000CF911F910895A6E0B0E0E9E1FAE10C9494
:1034300009330E944C298C018091B6029091B70209
:103440000817190781F019821A820E944C29682FE7
:1034500049815A81792F80E090E00E94630910939E
:10346000B7020093B6022696E4E00C94253380E080
:1034700090E00E942932863E9E4F19F40E94192442
:10348000089580E00895A8E0B0E0E9E4FAE10C9442
:103490000B3366EE7EEF80E090E00E945D3260E0EC
:1034A00082E090E00E943F3260E083E090E00E9482
:1034B0003F321092B50260E074E184E090E00E9437
:1034C0005D3260E086E090E00E943F326FEF87E07F
:1034D00090E00E943F3240E050E0BA0188E090E086
:1034E0000E94513260E084E290E00E943F3260E04E
:1034F00087E190E00E943F3260E08CE090E00E9423
:103500003F3260E08DE090E00E943F3219821A82E3
:103510001B821C821D821E821F82188648E050E09A
:1035200068E170E0CE0101960E942F3240E050E049
:10353000BA0180E290E00E94513280E00E94EA23CA
:103540000E94092440E050E0BA018FE090E00E9420
:10355000513240E050E0BA0183E190E00E945132E4
:103560002896E2E00C94273380959091B402892349
:103570008093B40208959091B4028091B302982B85
:10358000909330028091B2028823D9F0892B8093E6
:10359000300280910C01882331F080918B0387FFEA
:1035A00002C08EE101C086E0E2E3F2E090E08150EB
:1035B00028F021912223D9F39F5FF9CF9111109226
:1035C000B20240E250E062E972E080E392E00E94E1
:1035D0003233892B21F180E2E0E3F2E0A2E9B2E0AC
:1035E00001900D928A95E1F7E0918203F0918303B7
:1035F0003097A9F080910C01882359F080918B03BA
:1036000087FF07C0809130028093310286E080936B
:1036100030020280F381E02D80E392E00995089565
:10362000909191028095892380939102282F277091
:1036300069F4981759F090918C0392FF07C0869512
:10364000869586950E94912F1092910208959091EF
:103650008C0392FB222720F9281779F080FB92F93E
:1036600090938C0360918B0370918C0384E090E0C5
:103670000E945D3282E00E94101B089580919002AA
:1036800090915702891719F08F5F8770FBCF0895CB
:10369000CF93DF938091560282958F7009F04EC0D0
:1036A00080915502882309F449C08091900240918D
:1036B00057025091510260915002C0915202D09134
:1036C000530277E08417D1F190E0789FF001799F61
:1036D000F00D1124DF01A85ABD4F14962C911497B8
:1036E000222349F111962C911197251324C02C9176
:1036F000261321C015962C91159721111CC01296E6
:103700002D913C9113972C1B3D0B283C310598F4CF
:10371000809156028F70806180935602E25AFD4F6D
:1037200080818F708061808380E592E00E94F30940
:103730000E943E1B03C001968770C4CFDF91CF91DA
:103740000895A4E1B0E0E7EAFBE10C9401338C01B9
:1037500086E0F801DE011F9601900D928A95E1F74F
:10376000F8018481E58090E5892E92E0992E909170
:103770005402911120C0882309F463C1EE2009F49A
:1037800042C0C8010E94AD2FF82E8823E1F187E0E6
:10379000F801D40101900D928A95E1F780915402CD
:1037A000813031F480915002909151020E94182F83
:1037B0000E94481B48C1F801D080C180A280B3801C
:1037C000F09055022091520230915302FF2009F4EB
:1037D000E7C0A501421B530B483C510508F09DC0B2
:1037E000882309F430C180915602282F207F9091C0
:1037F0005102222361F09C1509F460C0C8010E94A7
:10380000AD2F811163C0C8010E94F3091AC19C1138
:1038100013C0909150029D110FC0E1100DC08F7028
:1038200080618093560280E592E00E94F3098091C6
:103830005602F801868303C1E1103AC040E06C2DC6
:103840008D2D0E94FE1740E06C2D8D2D0E94FE17DD
:10385000E82E8111F4C0DF86C88A8F8598890E947E
:10386000182F292F22952F70243020F49F7022309A
:1038700028F009C02A50223080F014C0992349F062
:10388000811107C013C0992321F0F8019681907F20
:1038900069F0805E883030F409C0803F38F0815F85
:1038A000833020F0C8010E94F309EF2CFE2CCBC01E
:1038B00080915602816080935602C1C0909150025F
:1038C0009D119CCFE1109ACFF80198C0EE2009F429
:1038D0009ACF20915602822F82958F7090E00297A6
:1038E0008CF0809150029091510299878887BB8615
:1038F000AA86809154028C871D862E87CE01089659
:103900000E94F30987E0F801A0E5B2E001900D9272
:103910008A95E1F70E94481B94C090915602292F86
:10392000207F51F480E592E00E94F30987E0F401E2
:1039300011928A95E9F783C0882309F484C08091A5
:1039400051028C110CC0809150028D1108C0E11001
:1039500006C0F8019683C8010E94F3096AC0C80135
:103960000E94AD2F882309F44ECFEE2009F44BCFEF
:1039700020915602822F82958F7090E0029714F268
:1039800080915002909151029A838983BC82AB82CC
:10399000809154028D831E822F83CE010196B0CF79
:1039A000A21AB30AF8ECAF16B10408F042C088239B
:1039B00009F447C0FE2CEE2009F425CF8091510276
:1039C0008C1129C0809150028D1125C09091560212
:1039D00090FD18C0892F82958F70282F30E0211517
:1039E000310581F0F80196832F30310541F08F5F6A
:1039F000982F9295907F86818F70892B8683C8013E
:103A00000E94F30987E0F801A0E5B2E001900D9271
:103A10008A95E1F718C0C8010E94AD2F811172CFBD
:103A200080915602816080935602C8010E94F3097A
:103A30000AC087E0F40111928A95E9F704C0F12CDD
:103A400002C0FF24F3948F2D6496ECE00C941D3398
:103A50009091B20121E030E0F90101C0EE0F8A95AA
:103A6000EAF7D90102C0AA0FBB1F6A95E2F7BD01B0
:103A70006E2B01C0220F4A95EAF7892F862368131F
:103A800003C0892F822B03C02095822F89230E9497
:103A90008E2F0895A7E0B0E0E0E5FDE10C94FB3245
:103AA000282E4B0120910D01220F220F2E83122F61
:103AB0001C5F113108F010E13091F5023983AE81BD
:103AC000A11708F07CC08E81682E712CF301E95992
:103AD000FE4F94A580910E01892309F46CC03090AB
:103AE000EE024090EF02522C1F82C301880F991FF3
:103AF000DC01AD58BE4FBB83AA83C301880F991F59
:103B0000FC01EC58FE4FFD83EC83F9815F1608F051
:103B100040C0E52CF12CAA81BB81CC90D12CF701BF
:103B2000EB50FD4F8181C81AD108AC81BD81AC90AA
:103B3000B12C8185A81AB108CC9C9001CD9C300D88
:103B4000300D1124AA9CC001AB9C900D900D112446
:103B5000820F931F0E947C2D082F6091F10221E0BB
:103B6000620F08F46FEFF701EE0FFF1FEB50FD4FF0
:103B7000818D928D0E94D62D7C019501A601632D29
:103B8000742D8F81F4010995362E472E8F8353941F
:103B9000BCCF2091F0028F81382F329F312D11241C
:103BA000832F632D742D0E94F32D462F282F672F0E
:103BB000C3010E94042D8E818F5F8E8380CF81E0B0
:103BC000103108F080E02796E2E10C941733A0E072
:103BD000B0E0EDEEFDE10C9405338C01C0910D01D8
:103BE000CC0FCC0FD4E0DC0FD13108F0D0E1209124
:103BF000F10231E0230F08F42FEF30E040E050E015
:103C00006FEF7FEF80E090E00E9463327901CD1783
:103C100008F041C0CC2ED12CF601E959FE4F94A5F5
:103C200080910E018923A9F19091F502915097FDA1
:103C300015C0492F092E000C550BFA01EB50FD4F12
:103C40008189C813F3CF440F551FFA01EB50FD4F84
:103C5000218D328D2E153F0548F701C097016091E7
:103C6000F10241E0640F08F46FEFC9010E94D62D04
:103C7000AC016091EE027091EF028091F002F801C8
:103C800009950E94F32D462F282F672FC6010E9409
:103C9000042DCF5FBCCF81E0D03108F080E0CDB7FC
:103CA000DEB7E8E00C942133A0E0B0E0EAE5FEE105
:103CB0000C9406338C01C0910D01CC0FCC0FD4E0D5
:103CC000DC0FD13108F0D0E16091F1026695669584
:103CD00021E0620F08F46FEF8091E9029091EA020F
:103CE0000E94D62DD82ECD17F0F4EC2EF12CF70132
:103CF000E959FE4F94A580910E01892391F06091BE
:103D0000EE027091EF028091F0022D2D4C2FF80100
:103D100009950E94F32D462F282F672FC7010E9477
:103D2000042DCF5FE0CF81E0D03108F080E0CDB747
:103D3000DEB7E7E00C942233A0E0B0E0E2EAFEE177
:103D40000C9402336C01C0910D01CC0FCC0FD4E068
:103D5000DC0FD13108F0D0E16091F10266956695F3
:103D60008091E9029091EA020E94D62D182F80E4FA
:103D7000810F0E94222D90E8F92EF80E812F0E94CB
:103D8000222D20E8922E980ECD1700F5AC2EB12CE6
:103D9000F501E959FE4F94A580910E018923A1F008
:103DA0006091EE027091EF028091F002E12E0C2FF3
:103DB000292D4F2DF60109950E94F32D462F282F0E
:103DC000672FC5010E94042DCF5FDECF81E0D03187
:103DD00008F080E0CDB7DEB7EBE00C941E336F92B5
:103DE0007F928F929F92AF92BF92CF92DF92EF928B
:103DF0000F931F93CF93DF933C01C0910D01CC0F24
:103E0000CC0FD4E0DC0FD13108F0D0E16091F102A9
:103E100066958091E9029091EA020E94D62D182FB2
:103E2000CD1708F044C08C2E912CF401E959FE4FB7
:103E300094A580910E018923C1F1F401EE0FFF1FBB
:103E4000ED58FE4FC080D12C80E7C81AD108F4018C
:103E5000EE0FFF1FE959FE4FA584B12CE0E2AE1A28
:103E6000B108CC9C9001CD9C300D300D1124AA9C42
:103E7000C001AB9C900D900D1124820F931F0E94E6
:103E80007C2D082F6091EE027091EF028091F0027C
:103E9000E12E9501A601F30109950E94F32D462F0D
:103EA000282F672FC4010E94042DCF5FB9CF81E076
:103EB000D03108F080E0DF91CF911F910F91EF900A
:103EC000DF90CF90BF90AF909F908F907F906F903A
:103ED0000895A0E0B0E0EFE6FFE10C9405336C013B
:103EE000C0910D01CC0FCC0FD4E0DC0FD13108F024
:103EF000D0E16091F10266958091E9029091EA0229
:103F00000E94D62D182FCD1778F5EC2EF12CF70145
:103F1000E959FE4F94A580910E01892319F1F7010B
:103F2000EE0FFF1FE959FE4F258530E02052310981
:103F3000F701EE0FFF1FED58FE4F408150E0405754
:103F400051096091EE027091EF028091F002012F11
:103F5000F60109950E94F32D462F282F672FC701E0
:103F60000E94042DCF5FCFCF81E0D03108F080E0F8
:103F7000CDB7DEB7E8E00C942133AAE2B0E0E3EC81
:103F8000FFE10C940A33E1EEF2E089EE92E0209139
:103F9000F10021938E179F07D1F78091E2028330C1
:103FA00009F463C030F4813071F0823009F49DC0AF
:103FB000B4C08A3009F489C08B3009F46EC08930EE
:103FC00009F0ABC020C08091E102813A09F0A5C0A0
:103FD0008091E800877F8093E8008091E5029091CE
:103FE000E602892B21F460E28DEB92E003C060E0F1
:103FF00080E090E070E00E9419288091E8008B77C3
:104000008093E8008AC08091E102813209F085C086
:104010008091E5029091E602009719F0029709F06D
:104020007CC08091E800877F8093E8008091E80061
:1040300082FD05C08091DF028111F8CF6EC0209112
:10404000F3008091F20090E0922B029731F480917E
:10405000F100813011F0863021F48091F1008093DD
:10406000BC028091E8008B7754C08091E102813AD4
:1040700009F053C08091E5029091E602892B09F086
:104080004CC08091E800877F8093E8008091E80031
:1040900080FFFCCF80910C0137C08091E10281321A
:1040A000E1F58091E5029091E602892BB1F58091CE
:1040B000E800877F8093E8000E9493268091E302C6
:1040C00080930C010E94D02F28C08091E1028132A0
:1040D00021F58091E800877F8093E8000E94932675
:1040E0008091E4028093BB0218C08091E102813A82
:1040F000A1F48091E800877F8093E8008091E80038
:1041000080FFFCCF8091BB028093F1008091E8009A
:104110008E778093E8000E9493268091E80083FFC9
:10412000DFC18091E1029091E202492F50E04A30D4
:10413000510508F0D5C1FA01E853FF4F0C94EE3257
:10414000803821F0823809F0CBC108C08091DD02AF
:104150009091DE02992389F082600FC08091E50280
:104160008F70873008F0BCC18093E9008091EB002C
:1041700085FB882780F91092E9009091E800977FED
:104180009093E8008093F1001092F10070C1282F05
:104190002D7F09F0A5C1882319F0823061F0A0C1FC
:1041A0008091E302813009F09BC1933009F080E0F7
:1041B0008093DE022EC08091E30281112AC080919B
:1041C000E5028F702FEF280F263008F089C1809309
:1041D000E9002091EB0020FF1CC0933021F4809176
:1041E000EB00806214C09091EB0090619093EB0023
:1041F00021E030E0A90102C0440F551F8A95E2F783
:104200004093EA001092EA008091EB00886080936E
:10421000EB001092E9008091E800877F8093E8002E
:104220000E9493265DC181115BC11091E3021F774B
:104230008091E3008078812B8093E3008091E800F7
:10424000877F8093E8000E9493268091E80080FF9A
:10425000FCCF8091E30080688093E300111102C0DD
:1042600082E001C083E08093DF023AC1805882304F
:1042700008F036C12091E3023091E4022C3D53E076
:10428000350779F583E08A838AE289834FB7F8940A
:10429000DE01139620E03EE051E2E32FF0E0509380
:1042A0005700E49120FF03C0E295EF703F5FEF708D
:1042B0008E2F90E0EA3010F0C79601C0C0968D9323
:1042C0009D932F5F243149F74FBF8091E800877F8E
:1042D0008093E8006AE270E0CE0101960E941928FE
:1042E000B4C08091E5029091E602432F55274330F8
:1042F0005105A9F068F44130510509F400C142307C
:10430000510509F0EDC08BE590E0ECE6F3E04BC021
:104310004132510529F14232510589F1E1C0C9010B
:10432000992781309105A1F058F0029709F0D8C083
:10433000E9EDF3E0E4918E2F90E0E9EDF3E030C099
:10434000E1E1F4E0E4918E2F90E0E1E1F4E028C0B7
:10435000EFEEF3E0E4918E2F90E0EFEEF3E020C07B
:104360008330910508F0BCC0880F991FFC01EF59FC
:10437000FE4F0190F081E02D89E090E014C0833081
:10438000910508F0ADC0FC01EE0FFF1FE55AFE4F8E
:104390000190F081E02DDC01A85ABE4F8C9190E095
:1043A000009709F49DC02091E800277F2093E80042
:1043B0002091E7023091E8022817390708F4C90173
:1043C00040E0009789F12091DF02222309F43DC0EB
:1043D0002530D9F12091E80023FD37C02091E80075
:1043E00022FD2FC02091E80020FFEBCF4091F30089
:1043F0002091F20030E0342B009759F0283031053D
:1044000040F444914093F100319601972F5F3F4F64
:10441000F3CF41E02830310509F040E02091E80079
:104420002E772093E800CDCF4111CDCF0AC08091E7
:10443000DF02882351F0853041F08091E80083FD50
:1044400004C08091E80082FFF2CF8091E8008B7772
:104450008093E80045C0803809F042C08091E800B0
:10446000877F8093E8008091E0028093F100809143
:10447000E8008E77D3CE811133C08091E302909112
:10448000E4029927029764F58091E800877F809382
:10449000E8001091E3021093E0020E9493261111AC
:1044A00006C08091E30087FD02C081E001C084E086
:1044B0008093DF0242E061EC81E00E94B22642E29A
:1044C00061EC84E00E94B22642E261EC82E00E944C
:1044D000B22642E260EC83E00E94B2268091DF02C5
:1044E0008091E80083FF10C08091E800877F80936F
:1044F000E8008091EB0080628093EB0005C082E1D0
:1045000090E0E7ECF3E04FCFAA96E3E00C9426337B
:10451000EDE4F3E093E0ED37F90729F08183608360
:1045200042833396F7CF0895FC01EE0FFF1F8E0FE5
:104530009F1FFC01E35BFC4F61834083228308954E
:10454000EDEEF2E0248130E1231B08F420E0248327
:1045500080914C03816080934C030895EDEEF2E06E
:10456000248130E1230F08F42FEF248380914C0342
:10457000816080934C030895559A8BB18F7D9BB1D8
:1045800090622FB7F894EDE4F3E033E0ED37F307F2
:1045900089F0319148E09BB9000000C037FF8BB92A
:1045A000330F000000C000C000C08BB900C04A95A6
:1045B00091F7EBCF2FBF8FE594E00197F1F700C0A3
:1045C000000008950F931F93CF93DF93C42FD22F32
:1045D000FC0185818823B1F040937F030E944C2920
:1045E00090937E0380937D0380E28C0F883008F0E7
:1045F0004DC0C77081E001C0880FCA95EAF70E94DC
:10460000063044C080917F03481330C080917D0301
:1046100090917E030E943129883C910538F510E283
:104620001D0FCD17B9F080E28C0F883040F4C770B1
:1046300081E001C0880FCA95EAF70E94FF2F183069
:1046400010F581E09D2F977001C0880F9A95EAF7C9
:104650000E940630802F0E9496311830B8F4D7702F
:1046600081E001C0880FDA95EAF70AC080E28C0F7A
:10467000883060F4C77081E001C0880FCA95EAF7FE
:104680000E94FF2F03C0802F0E949631DF91CF91AF
:104690001F910F910895CF93DF93C9E8D0E060E0B8
:1046A000CE010E943F322196C11584E0D807B9F7A8
:1046B000DF91CF9108951F93CF93DF93962F84308E
:1046C000E8F46430D8F44330C8F4632F122FC42FB9
:1046D000D0E0CC0FDD1F26E0929FC00DD11D11242C
:1046E00098E1899FC00DD11D1124CE0189960E94A9
:1046F0003F32612FCE018A960E943F32DF91CF91E7
:104700001F910895A0E0B0E0E8E8F3E20C940333D1
:10471000A12CE12CF12CB12C00E010E0C0E0D0E0A5
:104720006701C00ED11EFE01EE0FFF1FEC0DFD1D37
:10473000EB5EFB4F259134914C2F6B2D8A2D0E94FF
:104740005B232196C330D10571F70A5F1F4FB394E5
:1047500084E0B812E3CF88E1E80EF11CA39484E072
:10476000A812D9CFCDB7DEB7EAE00C941F330F9370
:104770001F93CF93DF93843008F56430F8F443300F
:10478000E8F4C42FD0E0CC0FDD1F26E0629FC00DFF
:10479000D11D112438E1839FC00DD11D1124CE01FC
:1047A00089960E94213290E0182F0027CE018A9628
:1047B0000E9421329801282BC90102C080E090E0BC
:1047C000DF91CF911F910F91089588E290E00E94B0
:1047D0003F320895CF93C82F811102C06FEF01C0FF
:1047E00063E285E290E00E943F32C11102C06FEFA8
:1047F00001C066E086E290E00E943F32C11102C033
:104800006FEF01C060E287E290E00E943F32CF91FB
:10481000089580E00E94EA2360E070E0CB010E94EE
:10482000E5230E9482230E944B2381E00E94EA2319
:10483000089585E290E00E942132833281F486E27D
:1048400090E00E942132863051F487E290E00E948D
:10485000213291E0803209F090E0892F01C080E0A0
:1048600081700895882311F0FA0101C0FB010995B8
:1048700008951F93CF93DF93FC01E959FE4F24A5C0
:104880006223B9F0EC010E94672D182F0E94672D5A
:1048900020E8829FC00111247FE7790F612F80916A
:1048A000F0020E94F32D462F282F672FCE010E9481
:1048B000042DDF91CF911F910895A0E0B0E0E3E6D1
:1048C000F4E20C940633EC01FC01E959FE4F94A587
:1048D000692349F1D090EF020091F0021091EE02AD
:1048E000E12EF12C0E94672D282FC7018C549F4F79
:1048F00068E671E00E94DA328E199F0997FD0396EF
:1049000095958795959587952370612F289F600DC4
:1049100011247D2D802F0E94F32D462F282F672FE5
:10492000CE010E94042DCDB7DEB7E7E00C94223310
:104930009091ED02937059F08093EE026093EF0234
:104940004093F00280914C03282B20934C03089550
:10495000EDEEF2E0438120E1421B08F440E081816A
:1049600021E0628190E00E9498240895EDEEF2E04B
:10497000438120E1420F08F44FEF818121E0628101
:1049800090E00E9498240895EDEEF2E0628120E12B
:10499000621B08F460E0818121E0438190E00E9485
:1049A00098240895EDEEF2E0628120E1620F08F4B0
:1049B0006FEF818121E0438190E00E949824089567
:1049C000EDEEF2E0818190E021E043816281089781
:1049D0000E9498240895EDEEF2E0818190E021E0BC
:1049E0004381628108960E94982408959091ED0277
:1049F0009370A1F0811102C0946007C08E3210F054
:104A0000946B03C0880F880F982B9093ED0210923F
:104A1000120180914C03682B60934C0308958091A0
:104A2000ED0286958695815009F48DE261E00E9441
:104A3000F62408958091ED02869586958F5F8E32DB
:104A400008F081E061E00E94F62408958091ED0273
:104A5000837011F0109212018091ED028C7F80938F
:104A6000ED0208954F925F926F927F928F929F9284
:104A7000AF92BF92CF92DF92EF92FF928091470365
:104A800090914803A0914903B0914A032FB7F8943D
:104A9000C0908703D0908803E0908903F0908A0348
:104AA0002FBFC81AD90AEA0AFB0A0E9440294B0103
:104AB0005C0160934703709348038093490390938C
:104AC0004A03A0911E03EEE1F3E08A2F90E04FEF3E
:104AD0005FEF60E070E04C195D096E097F09A9176E
:104AE00099F0218D328D2901612C712C44155505C9
:104AF0006605770510F4815004C02C0D3D1D328FE2
:104B0000218F9F5F3296EBCF80931E0380914B03E2
:104B1000811108C08091ED02982F937019F086954D
:104B2000869501C080E0909112019130D9F028F073
:104B30009230D9F0933031F150C010920D01809233
:104B4000E9029092EA02A092EB02B092EC0289E2B2
:104B5000EEE1F3E0A5EFB2E001900D928A95E1F766
:104B600081E00DC00E94AD0F38C08093110180918B
:104B7000ED028370809310010E94BC2283E0809339
:104B800012012BC080914C03882351F048E050E083
:104B900068E170E08DEE92E00E942F3210924C039B
:104BA0004091E9025091EA026091EB027091EC02AF
:104BB0002FB7F8948091870390918803A09189037F
:104BC000B0918A032FBF841B950BA60BB70B4097A0
:104BD000A105B10510F010921201FF90EF90DF9047
:104BE000CF90BF90AF909F908F907F906F905F908D
:104BF0004F9008958091BC0208951F920F920FB6B6
:104C00000F9211242F933F934F935F936F937F9352
:104C10008F939F93AF93BF93CF93DF93EF93FF93C4
:104C2000C091E900CF708091EC00D82FD17080FD49
:104C3000D0E81092E9008091F000877F8093F00027
:104C400078940E94BD1F1092E9008091F000886066
:104C50008093F000CD2BCF70C093E900FF91EF91CE
:104C6000DF91CF91BF91AF919F918F917F916F9184
:104C70005F914F913F912F910F900FBE0F901F901A
:104C80001895E8EDF0E080818E7F80831092E2003D
:104C90001092DA001092E100A0EEB0E08C918160F9
:104CA0008C9380818F77808319BCA7EDB0E08C91C5
:104CB0008E7F8C9380818F7E808310928D030895E8
:104CC0002091E4003091E50095E64091EC00842FBE
:104CD000817040FF23C08091E80080FD1DC080915D
:104CE000DF02882399F0853099F08091EB0085FDF3
:104CF00011C04091E4005091E5002417350729F3D5
:104D0000915011F09A01E1CF84E0089582E0089576
:104D100083E0089581E0089580E008954091E800DF
:104D200042FFDDCF08958091E10287FF11C080919D
:104D3000E80082FD05C08091DF028111F8CF11C02B
:104D40008091E8008B770BC08091DF02882349F0C7
:104D50008091E80080FFF8CF8091E8008E77809303
:104D6000E8000895982F973068F59093E900981718
:104D700039F07091EC002091ED005091F00003C0EB
:104D8000242F762F50E021FD02C09F5FECCF3091A1
:104D9000EB003E7F3093EB003091ED003D7F309390
:104DA000ED003091EB0031603093EB007093EC003C
:104DB0002093ED005093F0002091EE0027FDE5CF09
:104DC00080E008958F708093E90081E00895A0E06D
:104DD000B0E0EDEEF6E20C940533C8EDD0E088814A
:104DE0008F7E8883E7EDF0E080818160808384E0BE
:104DF00082BF81E080938D0388818E7F888302EE5D
:104E000010E0F80110821092DA0081EEC82ED12C49
:104E1000F601108288818F778883888180688883F3
:104E200088818F7D888319BC1092DF021092E00286
:104E30001092DE021092DD0290EEE92EF12CF701C5
:104E400080818B7F808388818160888342E060E0FD
:104E500080E00E94B226F60180818E7F8083F80177
:104E6000808181608083808188608083F701808178
:104E70008E7F8083888180618883CDB7DEB7E8E04C
:104E80000C9421331F920F920FB60F9211242F937F
:104E90003F934F935F936F937F938F939F93AF93C2
:104EA000BF93EF93FF938091E10082FF09C080914F
:104EB000E20082FF05C08091E1008B7F8093E100DA
:104EC0008091DA0080FF2AC08091D80080FF26C040
:104ED0008091DA008E7F8093DA008091D90080FF84
:104EE00018C080E189BD82E189BD09B400FEFDCF13
:104EF00081E08093DF0280918D0381110FC00E94B9
:104F000041260E94E7268091E20084608093E200BF
:104F100005C019BC1092DF0210928D038091E10050
:104F200080FF17C08091E20080FF13C08091E200F3
:104F30008E7F8093E2008091E20080618093E200A6
:104F40008091D80080628093D80019BC85E080935E
:104F5000DF028091E10084FF30C08091E20084FF95
:104F60002CC080E189BD82E189BD09B400FEFDCF7E
:104F70008091D8008F7D8093D8008091E1008F7E52
:104F80008093E1008091E2008F7E8093E200809127
:104F9000E20081608093E2008091E002882311F0BA
:104FA00084E007C08091E30087FD02C081E001C07A
:104FB00083E08093DF028091DF028091E10083FF34
:104FC00027C08091E20083FF23C08091E100877FAA
:104FD0008093E10082E08093DF021092E0028091F2
:104FE000E1008E7F8093E1008091E2008E7F8093CC
:104FF000E2008091E20080618093E20042E060E0A4
:1050000080E00E94B2268091F00088608093F000DA
:10501000FF91EF91BF91AF919F918F917F916F9190
:105020005F914F913F912F910F900FBE0F901F9066
:1050300018952091E7023091E8022617370748F0CB
:105040006115710539F42091E8002E772093E8006E
:1050500001C0B901FC0120E06115710579F1809171
:10506000DF028823F1F18530F1F18091E80083FDC2
:105070003CC08091E80082FD2EC08091E80080FF56
:10508000EBCF2091F3008091F20090E0922B61151C
:10509000710551F08830910538F421912093F10089
:1050A000615071090196F3CF21E0089709F020E0E3
:1050B0008091E8008E778093E800CECF2111CFCF8A
:1050C0000AC08091DF02882361F0853061F0809111
:1050D000E80083FD0AC08091E80082FFF2CF80E003
:1050E000089582E0089583E0089581E008950F9384
:1050F0001F93CF93DF938B01EA019091DF029430ED
:1051000079F58F708093E9008FEF9091E8008150DE
:1051100095FD06C095ED9A95F1F700008111F5CF48
:105120008091E80085FF1CC00E946026882361F002
:105130008091E8008E778093E80012C0F801819199
:105140008F018093F1002197209791F38091E800DF
:1051500085FDF4CF8091E8008E778093E800E4CF5E
:10516000DF91CF911F910F91089543E050E0BC0172
:1051700084E00E947728089546E050E0BC0184E076
:105180000E9477280895CF93DF93EC0180910C0162
:10519000811105C048E050E0BE0181E00BC0809164
:1051A0008B0387FF03C040E284E002C048E081E057
:1051B00050E0BE010E94772880E2FE01ADEBB2E034
:1051C00001900D928A95E1F7DF91CF91089581E0EA
:1051D0008093E00080E28093D8001092C9008FE1B4
:1051E0009EE40197F1F700C0000087E090EBDC013E
:1051F0008093A1039093A203A093A303B093A4036D
:105200009CE088E10FB6F894A895809360000FBEEB
:1052100090936000FFCF78941F920F920FB60F9279
:1052200011248F939F93AF93BF93809187039091A5
:105230008803A0918903B0918A030196A11DB11D35
:105240008093870390938803A0938903B0938A0384
:10525000BF91AF919F918F910F900FBE0F901F90B4
:1052600018959C014FB7F89480918703909188031B
:10527000A0918903B0918A034FBF821B930B0895BD
:105280002FB7F89460918703709188038091890308
:1052900090918A032FBF08952FB7F89480918703C8
:1052A00090918803A0918903B0918A032FBF08953C
:1052B0001F920F920FB60F9211248F939F93AF936B
:1052C000BF9380918603811113C0809187039091D1
:1052D0008803A0918903B0918A034196A11DB11D55
:1052E0008093870390938803A0938903B0938A03E4
:1052F000BF91AF919F918F910F900FBE0F901F9014
:10530000189520910C012223C9F020918B0327FFCF
:1053100015C0262F2695269526952E31C8F4FC011A
:10532000E20FF11D677081E090E001C0880F6A957F
:10533000EAF780959281892382830895FC0106967D
:105340002281621301C012823196E817F907C1F772
:10535000089520910C012223C1F020918B0327FF97
:1053600014C0262F2695269526952E3130F5FC0162
:10537000E20FF11D677081E090E001C0880F6A952F
:10538000EAF79281892B82830895FC0132962FEFF0
:1053900030E04191641789F02F3F19F4411101C0A9
:1053A000232F3F5F3630A9F72F3F39F0FC01E20F82
:1053B000F11D27FDFA95628308950895A3E0B0E0FA
:1053C000E4EEF9E20C940B332091840330918503D1
:1053D00028173907A1F09093850380938403E09107
:1053E0008203F0918303309751F024E029839B835B
:1053F0008A830680F781E02DCE01019609952396D8
:10540000E2E00C942733A3E0B0E0E9E0FAE20C9488
:105410000B33209180033091810328173907A1F0C5
:105420009093810380938003E0918203F091830342
:10543000309751F023E029839B838A830680F7818C
:10544000E02DCE01019609952396E2E00C942733D6
:10545000E0918203F0918303309729F00190F0816D
:10546000E02D0995089580E00895EF92FF920F9343
:105470009701201B31092F3F310519F010F02FEF54
:1054800030E02095382F320F08F43FEF832F0F9133
:10549000FF90EF900895EF92FF920F939701201BDA
:1054A00031092F3F310519F010F02FEF30E0322F86
:1054B0003095482F430F08F44FEF842F620F0F9160
:1054C000FF90EF900895EF92FF920F93972F09347A
:1054D00038F4B701601B71096F3F710519F010F0C6
:1054E0006FEF70E0485F5F4F4131510540F0A90117
:1054F000485F5F4F4131510510F06FEF70E06095EC
:10550000482F460F08F44FEF842F37FF02C02D5F5E
:105510003F4F35952795359527956091EE02620F9F
:10552000792F0F91FF90EF900895EF92FF920F93D4
:10553000E00EF11CF90137FF03C0F195E195F10987
:1055400024E0EE0FFF1F2A95E1F7EF3FF10519F078
:1055500014F0EFEFF0E09A0157FF03C03195219569
:10556000310994E0220F331F9A95E1F72E173F0778
:105570000CF4F901EE0DFF1DEF3FF10519F010F0ED
:10558000EFEFF0E02E2F2095382F320F08F43FEF89
:10559000832F0F91FF90EF900895EF92FF920F935A
:1055A000970195E0099F200D311D11242F3F3105F2
:1055B00019F010F02FEF30E02095382F320F08F45B
:1055C0003FEF832F0F91FF90EF90089522E8241B67
:1055D00008F420E0620F08954095282F429F412D46
:1055E0001124842F0895E42FF0E0EE0FFF1FED58F3
:1055F000FE4F9081921B97FD9195292F38E1239FB3
:10560000212D1124620F08950F931F9310E0F801CC
:10561000EE0FFF1FED58FE4F9081905797FD91952B
:10562000000F111FF801E959FE4FE585F0E0B09732
:10563000DF01AA0FBB1F8D010E0F1F1F2003D0011A
:10564000219FB00D1124E8E3F0E0E91BF10997FD7B
:10565000F3959F01220F331F89010E0F1F1F400377
:105660009001419F300D11242A0F3B1F37FF02C0CC
:1056700021583F4F220F232F221F330B620F1F9100
:105680000F9108950F931F93522F10E0F801EE0F22
:10569000FF1FE959FE4FE585F0E0B097EE0FFF1FC1
:1056A0009F015203D001539FB00D1124000F111F11
:1056B000F801ED58FE4F008110E000571109000F6E
:1056C000111F40039001419F300D11242A0F3B1FF1
:1056D00037FF02C021583F4F220F232F221F330BC9
:1056E000620F1F910F9108950F931F93522F10E097
:1056F000F801EE0FFF1FE959FE4FE585F0E0B09786
:105700009F015203D001539FB00D1124000F111FB0
:10571000F801ED58FE4F008110E0005711094003D9
:105720009001419F300D11242A0F3B1F37FF02C00B
:1057300021583F4F220F232F221F330B620F1F913F
:105740000F910895EF920F931F9393E0099F8001AB
:105750001124159507956E2D600F1F910F91EF90F5
:105760000895A22F50E0FA01EE0FFF1FE959FE4FF6
:105770009585905297FD9195440F551FFA01ED586C
:10578000FE4F3081232F30E02A1B3109290F311DB4
:1057900097FD3A95620F0895E42FF0E0EE0FFF1F9A
:1057A000E959FE4F6585621B0895E42FF0E0EE0F86
:1057B000FF1FED58FE4F6081621B0895622F089510
:1057C000E42FF0E0EE0FFF1FED58FE4F408134EE66
:1057D000439F412D1124E82FF0E050E0445E5F4FDD
:1057E000DA01A21BB1099D01B7FF03C031952195D4
:1057F000310993E0220F331F9A95E1F7AF01421B65
:10580000530B9A0157FF02C020E030E0582F259F2C
:10581000212D1124822F0895E42FF0E0EE0FFF1FB9
:10582000ED58FE4F408134EE439F412D1124E72F68
:10583000F0E050E0445E5F4FDA01A21BB1099D0128
:10584000B7FF03C031952195310993E0220F331F33
:105850009A95E1F7AF01421B530B9A0157FF02C023
:1058600020E030E0279F212D1124722F0895FC01A4
:105870009B01009721F477FF2BC080E80895AC01CD
:1058800097FF04C044275527481B590BB901640FE3
:10589000751F37FD0CC0241B350BC901A5E0880F0F
:1058A000991FAA95E1F70E94DA3280E20CC0CB0181
:1058B00065E0880F991F6A95E1F7BA01621B730BC7
:1058C0000E94DA3280E6861BF7FF03C081950895B7
:1058D00080E00895EF920F93CF93DF93D72FC82FD7
:1058E000C9010E19BA010E94372C602F681B7D2F49
:1058F0008C2FDF91CF910F91EF9008950F93CF935D
:10590000DF93D72FC82FC901BA010E94372C682F07
:10591000600F7D2F8C2FDF91CF910F910895EF9223
:105920000F931F93CF93DF93D62FC72F182FC90143
:105930000E19010FBA010E94372C081B202F219F3E
:10594000212D1124822F6D2F7C2FDF91CF911F915C
:105950000F91EF900895EF920F931F93CF93DF93E2
:10596000D62F172FC82FC9010E19070FBA010E9491
:10597000372C702F781B719F712D11246D2F8C2F58
:10598000DF91CF911F910F91EF900895FF920F93A8
:105990001F93CF93DF93F62ED72F182FC901C12F56
:1059A000C01BBA010E94372C982F990F890FC81B72
:1059B0002C2F219F212D1124822F6F2D7D2FCDB7CC
:1059C000DEB7E5E00C942433FF920F931F93CF933F
:1059D000DF93F62E172FD82FC901C72FC01BBA018E
:1059E0000E94372C982F990F890F7C2F781B719F5D
:1059F000712D11246F2D8D2FCDB7DEB7E5E00C94FE
:105A000024330E94882208950E9494220895EDEE86
:105A1000F2E085E380838091150190911601A091B9
:105A2000170181839283A3838FE784838FEF85831C
:105A300048E050E068E170E0CF010E942F32109200
:105A40004C030895482F982F46FD9095E92FEF734A
:105A50009F7046FD9F5FE295EF70EE0FF0E0ED5511
:105A6000FE4F2181299F802D212D112482958F7039
:105A70002295207F822B3081982F930F892F47FD0D
:105A80008195805808950F931F93CF93DF93D62F5E
:105A9000072F182FC42F822F0E94222DEC2FF0E009
:105AA000EE0FFF1FED58FE4F90819058890F87FD34
:105AB0008195880F682F2CE0629F612D11246D0F56
:105AC000702F812FDF91CF911F910F9108954091F9
:105AD00013015091140125E038E0429FC001439F1B
