:100000000C9472030C94AC030C94AC030C94AC03EE
:100010000C94AC030C94AC030C94AC030C94AC03A4
:100020000C94AC030C94AC030C9454160C949115E2
:100030000C945E1A0C94AC030C94AC030C94AC03BB
:100040000C94AC030C94AC030C94AC030C94AC0374
:100050000C94AC030C94111A0C94AC030C94AC03E8
:100060000C94AC030C94AC030C94AC030C94AC0354
:100070000C94AC030C94AC030C94AC030C94AC0344
:100080000C9408220C94AC030C94AC030C94AC03B9
:100090000C94AC030C94AC039C049F04A204AC0429
:1000A000AF04BE04C504D004FA042C053405E004F2
:1000B000E60486071C088E075207560792075A0760
:1000C0009607A207660712086A07A6076E07AA071F
:1000D000F4077207AE07FE077807B407C2075E078A
:1000E0009A0762079E077F07BB07DB070A080C0811
:1000F0004E078A0725084E0854083F0845085A0845
:10010000600866089E08C408C908CE08D308D80845
:10011000DD08E208E708EC08F108CA09CA09FC0989
:10012000FC097A0A960AB80BB80B9B0A290B3A0B02
:100130003A0B4D11581163116D11B40D9F11D61169
:10014000E211A413CB137915CB13791517143A14B4
:1001500079152D153D1507634236B79BD8A71A3977
:10016000685618AEBAAB558C1D3CB7CC5763BD6D05
:10017000EDFD753EF6177231BF000000803F0800AC
:100180000000BE922449123EABAAAA2ABECDCCCC16
:100190004C3E00000080BEABAAAAAA3E00000000B0
:1001A000BF000000803F0000000000084178D3BB82
:1001B0004387D1133D190E3CC3BD4282AD2B3E682F
:1001C000EC8276BED98FE1A93E4C80EFFFBE01C420
:1001D000FF7F3F00000000001E0F057F3F1F6432BD
:1001E00014643214783C1E1E140A0505010902A18C
:1001F0000185020901A10005091901290815002539
:100200000195087501810205010930093115812523
:100210007F95027508810609381581257F9501753E
:10022000088106050C0A38021581257F950175089D
:100230008106C0C005010980A101850319012AB703
:1002400000150126B700950175108100C0050C0945
:1002500001A101850419012AA002150126A0029519
:100260000175108100C005010906A1018506050779
:1002700019E029E715002501950875018102050798
:10028000190029EF1500250195F075018102050877
:1002900019012905950575019102950175039101D3
:1002A000C00660FF0961A1010962150026FF0095E3
:1002B00020750881020963150026FF009520750846
:1002C0009102C005010906A101050719E029E715FA
:1002D00000250195087501810295017508810105C8
:1002E00007190029FF150026FF00950675088100F3
:1002F00005081901290515002501950575019102CB
:10030000950175039101C009025B00030100A0FA89
:10031000090400000103010100092111010001226B
:1003200044000705810308000109040100020300DD
:10033000000009211101000122220007058203208B
:100340000001070503032000010904020001030066
:10035000000009211101000122B6000705840320D5
:1003600000011201000200000008636964690100D5
:10037000010200010C03410074006C006100730075
:10038000000016034B006F006F0062006100630005
:100390007A0065006300680000000403090422235A
:1003A000252628292A2C2D2F3032333536383A3B52
:1003B0003D3E4042434547494A4C4E5051535557A4
:1003C000595A5C5E6062646668696B6D6F717375C3
:1003D00077797B7D7F81838587898A8C8E909294C3
:1003E00096989A9C9E9FA1A3A5A7A8AAACAEAFB1D0
:1003F000B3B4B6B8B9BBBCBEBFC1C2C3C5C6C7C91A
:10040000CACBCCCDCED0D1D2D2D3D4D5D6D7D7D8D3
:10041000D9D9DADADBDBDBDCDCDCDCDCDDDDDDDD25
:10042000DCDCDCDCDCDBDBDBDADAD9D9D8D7D7D62D
:10043000D5D4D3D2D2D1D0CECDCCCBCAC9C7C6C5E4
:10044000C3C2C1BFBEBCBBB9B8B6B4B3B1AFAEAC2A
:10045000AAA8A7A5A3A19F9E9C9A98969492908ED5
:100460008C8A89878583817F7D7B79777573716FAE
:100470006D6B6968666462605E5C5A59575553518A
:10048000504E4C4A4947454342403E3D3B3A383640
:10049000353332302F2D2C2A2928262523220001FE
:1004A0000101010101010101020202020202020234
:1004B0000203030303030303030404040404040406
:1004C00005050505050606060606070707070708CA
:1004D000080808090909090A0A0A0B0B0B0C0C0C7D
:1004E0000D0D0D0E0E0E0F0F0F1010111111121217
:1004F00013131414151516161717181819191A1A94
:100500001B1B1C1D1D1E1E1F2020212222232424F4
:10051000252626272829292A2B2C2D2D2E2F303130
:100520003232333435363738393A3B3C3D3E3F4042
:100530004142434445464748494A4C4D4E4F50512D
:100540005354555658595A5B5D5E5F6162646566E7
:1005500068696B6C6D6F7072737577787A7B7D7E6E
:100560008082838587888A8C8E8F91939596989ABE
:100570009C9EA0A2A3A5A7A9ABADAFB1B3B5B7BAD6
:10058000BCBEC0C2C4C6C9CBCDCFD1D4D6D8DBDDAA
:10059000DFE2E4E7E9EBEEF0F3F5F8FAFDFFFFAA9E
:1005A0007F5540167C1E001F0020002100220023E2
:1005B0000024002500260027002D002E004C002AD4
:1005C000007C002B0014001A000800150017001C06
:1005D0000018000C00120013002F00300031000042
:1005E000007D00390004001600070009000A000B16
:1005F000000D000E000F0033003400320028000010
:10060000007E00E10064001D001B000600190005CB
:100610000011001000360037003800E500520000DD
:10062000002152E000E200AE0000000000000000E7
:10063000002C00000000000000E600500051000007
:10064000004F00007C3A003B003C003D003E003F74
:10065000004000410042004300440045004C0001BE
:10066000000100010020782178237824782578265D
:1006700078277828780100010001000100010000BE
:100680000001000100447C427C407C8B748A740130
:100690000001000100010001000100010001000053
:1006A0000001000100010001000100010001000142
:1006B0000001000100010001000100010001000033
:1006C0000001000100010001000000000000000026
:1006D0000001000000000000000100010001000016
:1006E0000001000011241FBECFEFD0E2DEBFCDBF5E
:1006F00004B603FE18C08091820690918306A091F3
:100700008406B09185068730904BA740B04B59F4D2
:10071000109282061092830610928406109285062B
:10072000E0E0F0EF099514E0A0E0B1E0EAEAFAE6D3
:1007300000E00BBF02C007900D92AA36B107D9F7AF
:1007400026E0AAE6B4E001C01D92A238B207E1F7A4
:100750000E94F30B0C9453350C940000A3E2B0E01C
:10076000E4EBF3E00C94C82FFC018481882311F49E
:100770000C94EF0B7F0121E04081518162817381F4
:1007800095810E94502D8C01D70115968C910A38C5
:10079000B4E71B0769F4882309F4DDC260913E06C3
:1007A00061FB992790F981E0892780FB61F90AC0F4
:1007B0000B38E4E71E0769F4882309F4CCC2609182
:1007C0003E06626060933E0687E090E00E947730CC
:1007D000C2C20C38F4E71F0761F48823E9F0609186
:1007E0003E066D7F60933E0687E090E00E94773082
:1007F00013C00F38F4E71F0709F08DC2882361F09A
:1008000080E090E0ACEDB3E480931C0190931D0177
:10081000A0931E01B0931F0180913E0680FF7BC014
:1008200081FF79C0F7018581882309F474C0C8016C
:1008300080589447029708F46EC08091700581112A
:100840006AC080917105811166C060911C01709130
:100850001D0180911E0190911F019B01AC010E941E
:100860000F314B015C010E944430BC01990F880B91
:10087000990B0E94233220E03EEF4FEF56E40E9496
:1008800080312DEC3CEC4CE45DE30E94D83220E05A
:1008900030E040E85FE30E940F31A50194010E941F
:1008A000D83260930C0170930D0180930E019093E8
:1008B0000F010E944430BC01990F880B990B0E94D4
:1008C000233220E03EEF4FEF56E40E9480312DECC2
:1008D0003CEC4CE45DE30E94D83220E030E040E89C
:1008E0005FE30E940F3120911C0130911D01409166
:1008F0001E0150911F010E94D83260931401709321
:100900001501809316019093170163E070E084E075
:1009100091E00E94612ED70115968C91882309F4ED
:10092000ACC0F801E054FC47ED30F10508F0A5C07B
:10093000E45BFF4F0C94EA340E948B1C9EC00E9423
:100940007B1C9BC080915F0580FF03C00E947B1CC5
:1009500046C00E948B1C43C00E94661C8EC08091C2
:10096000620591E0980F93708C7F892B80936205CC
:100970009330A9F58C7F8093620531C0809160052A
:10098000982F909590FB80F928C020915F052695BF
:1009900081E0820F30E02C37310554F081E008C04F
:1009A00090915F0596958FEF890F911101C08BE7AC
:1009B000880F90915F059170892B80935F050FC020
:1009C00080916005982F9E7F9E5F05C08091600595
:1009D000982F9E7F92508170892B80936005609143
:1009E0005F057091600580916105909162050E949C
:1009F000B12943C08091620582FF10C08B7F809334
:100A0000620560915F05709160058091610590912C
:100A100062050E94B12960E081E01BC08460809380
:100A2000620560915F05709160058091610590910C
:100A300062050E94B12960E08CE00E94ED1C64E137
:100A400082E00E94ED1C65E081E00E94ED1C61E007
:100A50008CE00E94ED1C11C0909161058AE0890F25
:100A6000983748F088E707C09091610586EF890FB5
:100A7000943108F484E10E94FA1C80915F0580FFA4
:100A80000FC0F7012581909162059370222331F008
:100A90009230F8F486950E940E1D02C09111FACF93
:100AA0000038F4E71F0749F4D70115968C91882385
:100AB00009F461C00E94E31F22C30138B4E71B0799
:100AC00081F4F7018581882309F455C00E94C81F6D
:100AD00016C30038B4E71B0769F30138F4E71F07B2
:100AE000A9F30238F4E71F0759F4D70115968C9142
:100AF000882309F440C080913E0680FDE7CFDACF1D
:100B0000C80184599447029758F4F70185818823D6
:100B100091F11092400664E070E080E291E023C021
:100B2000003944E7140711F10139B4E71B0709F450
:100B30004CC10239F4E71F0709F43AC10115B1E7C6
:100B40001B0709F44AC10130F1E71F0709F04DC145
:100B5000D70115968C91882371F01092710568E089
:100B600070E080E491E00E94612EC9C2D701159621
:100B70008C91811127C120917005211105C08091B0
:100B80007105882309F460C1F7013581332309F425
:100B90004BC0003E110561F40E94DB1B81E0809395
:100BA0006D0410926C041092A8041092A404A7C2C1
:100BB000023E110571F40E94DB1B80916D048823B5
:100BC00019F081E080936C0410926D041092A804D7
:100BD00096C2033E110591F480916C04882321F1A3
:100BE0000E94DB1B10926D0481E08093A804109298
:100BF000A5041092A7041092A60481C20235110523
:100C000031F480918B0290918C020A9708C00135D3
:100C1000110551F480918B0290918C020A96909369
:100C20008C0280938B026BC28091200281110DC0D7
:100C3000D70111964C91119785E090E0841B9109A2
:100C40004C91405FD42EBCE01DC0813069F4F701A7
:100C5000418185E090E0841B9109D82EDD0CDD0CEC
:100C6000D80E80818D5C31C0823081F4D70111961D
:100C70004C91119785E090E0841B91094C914D5C5B
:100C8000D42EB7E08B9FD00C112423C08330F9F40D
:100C900083E2E0EBF3E0DE01119601900D928A957C
:100CA000E1F7F7018081FE01E80FF11DD7011196F0
:100CB0004C9185E090E0841B9109D084BCE08B9F2F
:100CC000D00C11248D2D59E0D52ED80E02C04CE049
:100CD000D42E3323A1F0222319F08D2D0E948C21D4
:100CE00080916D04882391F08091A404E82FF0E0B6
:100CF000EC56FB4FD0828F5F8093A40407C0222361
:100D000029F08D2D0E94F31F0E9493210F3F1105A2
:100D100008F09AC0F4C10D3824E71207E1F48823E3
:100D200009F47ACD29E038E348E95FE360911C01DA
:100D300070911D0180911E0190911F010E94D83277
:100D40004B015C0120E030E84BEB54E40E947B3126
:100D500087FF62CD24C00E3834E7130709F05CCD5D
:100D6000D70115968C91882309F456CD29E038E3F4
:100D700048E95FE360911C0170911D0180911E01A3
:100D800090911F010E9480314B015C0120E030E016
:100D900042E852E40E94D33218160CF03DCD809206
:100DA0001C0190921D01A0921E01B0921F0134CD32
:100DB000D70115968C91882309F4DDCE80917005BA
:100DC000811108C00E94D11B9AC1F7018581882337
:100DD00009F4D1CE0E94E11B92C1F70185818823DD
:100DE00009F4C9CE0E94C71B8AC10230B1E71B07B4
:100DF00051F4F7018581882309F4BDCE80917105F6
:100E00008111ABCEEFCF0339F4E71F0709F0B3CE62
:100E1000D70115968C91882309F4ADCE0E94DB1B77
:100E20002091200230E02F5F3F4F23703327209323
:100E3000200248E2429FC001439F900D112465E0CB
:100E400070E080589E4F8FCEF801E851FC47E730A4
:100E5000F10508F410C1F7019581992309F4C6C181
:100E600010927405980130572332310508F034C1CF
:100E700084E090E00E94613090937C0580937B0534
:100E8000F801E150F047E232F10520F4E75AFF4F54
:100E90000C94EA3480917B058160D4C080917C05FC
:100EA0008860DCC080917B058260CCC080917B052E
:100EB0008460C8C080917B058860C4C080917C0537
:100EC0008160CCC080917C058260C8C080917B0528
:100ED0008061B8C080917B058062B4C080917B0541
:100EE0008064B0C00E94162780917B058068AAC0EC
:100EF00080917B058860846080937B0552C08091DF
:100F00007C058260816080937C0562C080917B0556
:100F10008E7F98C080917C05877FA0C080917B05E3
:100F20008D7F90C080917B058B7F8CC080917B05ED
:100F3000877F88C080917C058E7F90C080917C05E2
:100F40008D7F8CC080917B058F7E7CC080917B05DE
:100F50008F7D78C080917B058F7B74C00E9416279F
:100F600080917B058F776EC080917B05877F8B7F1B
:100F700080937B051BC080917C058D7F8E7F809345
:100F80007C052BC080917B0582FB222720F991E014
:100F9000922790FB82F990FB83F980937B0599233C
:100FA00029F064E070E081E692E01BC062E070E04E
:100FB00081E392E016C080917C05982F9095917006
:100FC0008E7F892B90FB81F980937C05992329F0F2
:100FD00064E070E081E492E004C062E070E081E2ED
:100FE00092E00E94612E3CC080917B0586FB222707
:100FF00020F991E0922790FB86F924C00E941627E1
:1010000080917B0587FB222720F991E0922790FBB6
:1010100087F918C061E001C060E08EE090E00E94B6
:1010200077301EC080917B0584FB222720F991E058
:10103000922790FB84F906C080917B05982F9095AC
:1010400090FB80F980937B050BC080917C0583FB2E
:10105000222720F991E0922790FB83F980937C0569
:1010600060917B0570917C0584E090E00E94953052
:101070000E94162744C0E558FF4F0C94EA3406E25C
:1010800021EE41EE6AE17CE705C007E225EE45EE80
:101090006BE17CE7C7010E94431B31C006E221EEF1
:1010A00040EE68E17CE7F6CF07E225EE44EE69E129
:1010B0007CE7F0CF06E221EE42EE6CE17CE7EACF7E
:1010C00007E225EE46EE6DE17CE7E4CF08E221E0A1
:1010D00045EE6EE17CE7DECF809127060631ECE736
:1010E0001E0701F58A7A91E009F490E090936E046E
:1010F000811169C389E20E94B51A0E942C2A80914D
:10110000FC05877009F46BC3D70115968C91882371
:1011100009F465C380917C0582FF61C382E00E946F
:10112000D3265DC38272F801E052F847EB30F10537
:1011300008F061C0EE57FF4F0C94EA3480913505FA
:1011400080FF19C0282F2E7F20933505309136055A
:1011500040913705509138056091390570913A05F5
:1011600080913B0590913C050E94731E1092920560
:101170000E94041EC4CF81608093350561E086958E
:1011800086950E942920BBCF882329F00E946E20DB
:10119000B6CF8823D9F30E947920B1CF882329F0D4
:1011A0000E948D1FACCF8823D9F30E94971FA7CF31
:1011B000882329F00E94731FA2CF8823D9F30E94AD
:1011C000801F9DCF882329F00E94591F98CF882324
:1011D000D9F30E94661F93CF882329F00E94991E9D
:1011E0008ECF8823D9F30E94B31E89CF06312CE716
:1011F000120709F4EAC29801205E32452032310517
:10120000A8F4911116C00F7181E090E09C0102C01A
:10121000220F331F0A95E2F78901622F83E090E0E5
:101220000E947730C8010E94112769CF992309F4E1
:101230005AC003303CE7130709F441C050F40115CC
:101240005CE71507A9F001308CE7180709F43DC0E9
:101250004AC00B359CE7190709F442C00C35ACE7CE
:101260001A07B1F10A351C4709F03DC081E039C0C9
:1012700081E00E94052E81E08093E00080E280936F
:10128000D8001092C900EFE1FEE43197F1F700C0F9
:10129000000087E090EBDC01809382069093830648
:1012A000A0938406B09385069CE088E10FB6F8947D
:1012B000A895809360000FBE90936000FFCF6FEF02
:1012C0007FEF80E090E00E9495300E94262E17CF9D
:1012D00080917C0582FB882780F991E0892701C0F5
:1012E00080E00E94EA26D70115968C9115970D9102
:1012F0001C91882349F0C8010E946A24D82E682FC7
:10130000C8010E94882604C0C8010E945526D82E14
:10131000B8018D2D0E9474280E9494288C01A82E5B
:10132000F701D580C680C2949FE0C9228091FC0558
:10133000877001F1DD20F1F0812F807F803469F02A
:1013400080E2800F8830B0F0812F807E803229F4D7
:10135000F1E0F01778F4CC2069F080917C0582FFF1
:1013600009C082E00E94D3268091FC058770BB24CF
:10137000B3948111B12C912E92948FE09822892DF3
:1013800090E08C30910508F0F3C1FC01E357FF4F6A
:101390000C94EA34812F807F1F70882311F01295FE
:1013A000107FDD20B9F0112309F4D0C180E2800F55
:1013B000883010F0A11006C090912706192B1093C9
:1013C000270605C09091FE05192B1093FE050E947B
:1013D0002C2ABCC1802F0E942D2C112309F4C8C1D6
:1013E000005E083080F1AA2071F110959091FE0501
:1013F00019231093FE052AC0812F807F1F70803231
:1014000011F01295107FAA2029F021E0A21609F40C
:101410004CC057C080917C0582FD1BC0DD2069F067
:10142000112339F090912706192B109327060E945B
:101430002C2A80E00E94872C9BC180E00E942D2CEA
:10144000112309F495C1812F0E94252A0E942C2A7C
:101450008FC1DD2081F0CC20C1F131E0C31288C101
:101460009091FD05812F8923181709F481C1192B4B
:101470001093FD057DC1C1107BC1812F0E944727BC
:101480008091FD05912F982329F0912F9095892324
:101490008093FD0520916F04812F822309F468C198
:1014A0001095212320936F0463C1DD2029F045E0CE
:1014B0004C1508F45DC109C054E05C1508F458C12E
:1014C00015C0DD2031F0C11041C1812F0E944E278F
:1014D0004FC1CC2059F0093309F047C18FEF97EE87
:1014E000A3E081509040A040E1F73DC1812F0E94D0
:1014F00047273EC1812F86958695837019F08130EC
:1015000059F036C1DD2019F0C801937002C080E0A7
:1015100090E00E94111B34C1DD2019F0C8019370C6
:1015200002C080E090E00E94EC1A2AC16D2D802F4D
:101530000E94552B25C1812F837009F041C0D11025
:101540001BC1302F329536953770330F330F802FF4
:101550008F7090E0032E02C0880F991F0A94E2F763
:1015600004FF0BC04FE050E002C0440F551F3A95F6
:10157000E2F79A012095309502C020E030E0169500
:1015800016951370123099F068F440912806509126
:101590002906113029F0822B932B8423952304C034
:1015A000842B952B822B932B0E941127E5C0822B35
:1015B000932B209128063091290682279327F4CF78
:1015C000DD2019F0812F817001C08695882309F4F0
:1015D000D3C0302F329536953770330F330F802FAD
:1015E0008F7090E0032E02C0880F991F0A94E2F7D3
:1015F00004FF0BC04FE050E002C0440F551F3A9566
:10160000E2F79A012095309502C020E030E016956F
:1016100016951370123079F0B8F440917A04509115
:101620007B04113029F0822B932B842395230EC049
:10163000842B952B09C0822B932B20917A04309117
:101640007B048227932702C0822B932B0E94BC2607
:1016500093C01F70DD2039F0812F0E940127802F59
:101660000E944E2789C0802F0E944727812F0E9409
:10167000C12682C0802FB2EFAB16A1F1BA1538F0A7
:10168000E0EFAE1659F0F1EFAF1639F15BC023EF82
:10169000A21679F134EFA316E1F054C0DD20A1F0D9
:1016A00044E04C1508F464C01F7181E090E0012E05
:1016B00002C0880F991F0A94E2F720917A043091B2
:1016C0007B048227932723C055E05C1508F450C0A3
:1016D000EBCF80917C0582FD1DC0DD2029F0812F9C
:1016E0008F7123C0DD20D9F3812F8F710E94C12615
:1016F0003FC0DD2051F01F7181E090E0012E02C05B
:10170000880F991F0A94E2F702C080E090E00E94DF
:10171000BC262EC0DD2061F0812F8F7198E0899F5B
:101720009001112423602093FC050E94012720C012
:1017300081E00E94D326A1E0AC15D0F482E00E94A3
:10174000D32616C0DD2021F0CC2049F2802F72CEA6
:10175000CC2051F2893349F4BFEFE7EEF3E0B1500A
:10176000E040F040E1F700C00000802F0E942D2CE7
:1017700088EF890D843020F40E94361B0E943E2D94
:10178000BB20B1F08091FC0580FD12C0D7011596F9
:101790001C928695869586950E940127C7010E9416
:1017A000AE038091FC058695869586950E94C1269C
:1017B00020E0F701408151816281738184819581AC
:1017C0000E94502D0CC085E396CC80916E0481114F
:1017D00004C089E20E94871A90CC85E3FBCFA396D0
:1017E000ECE00C94E42FA6E2B0E0E9EFFBE00C940F
:1017F000C22F85B7806885BF85B7806885BF84B7ED
:10180000877F84BF0FB6F894A895809160008861A7
:1018100080936000109260000FBE90E080E80FB6E9
:10182000F89480936100909361000FBE81E08093F3
:10183000900280E797E290936B0480936A040E9481
:10184000D9150E94F8158091E20084608093E2002F
:1018500078948091D9048823A1F01091E9001F7039
:101860009091EC00892F817090FD80E8182B1092E8
:10187000E9008091E80083FD0E94BE121F70109362
:10188000E90082E084BD93E095BD9AEF97BD809317
:101890006E0088E0EFE3F5E0DF011D928A95E9F73D
:1018A00081E08093AB0460E080E00E94AE1C61E0C8
:1018B00080E00E94AE1CEFE8F1E03197F1F700C044
:1018C000000010E08091AB04181790F460E0812FC5
:1018D0000E949B1C082F61E0812F0E949B1CE12F1E
:1018E000F0E0E655FB4F880F082B00831F5FEACF1F
:1018F00003ED13E038EDE32E33E0F32ED8018D91A4
:101900008D018F3F11F00E945D28E016F106B1F7BE
:1019100008ED13E028EEE22E23E0F22EF80181918B
:101920008F018F3F11F00E945D28E016F106B1F79C
:101930008AE0EFE7F4E0DF01282F1D922A95E9F70E
:10194000E0E7F4E0DF011D928A95E9F780E090E09E
:101950000E946130853E9E4F11F00E94B82982E0BE
:1019600090E00E9453308093890484E090E00E94CC
:10197000613090937C0580937B0583E090E00E942A
:10198000533090E00E941127859A8D9A849A8C9A00
:10199000869A8E9A0E94852080917C0481117FC056
:1019A00088E090E00E945B304B015C0183E290E0B4
:1019B0000E945330282F30E040E050E060E070E0BB
:1019C00080E090E000E20E940235282939294A2966
:1019D0005B292093350530933605409337055093A6
:1019E00038056093390570933A0580933B059093D1
:1019F0003C052C7F09F041C025E02093350510926D
:101A000036053FEF3093370530933805109239058E
:101A100030E04FEF5FEF60E00E94731E88E090E0DF
:101A20000E945B306B017C0183E290E00E945330A6
:101A3000282F30E040E050E060E070E080E090E08F
:101A40000E940235B22FA32FF42FE52F5B019701DF
:101A50008601BC29A12BF22BE32BB0933505A09373
:101A60003605F0933705E093380560933905B09259
:101A70003A0580933B0590933C050E945F1E1092AF
:101A800092050E9480178091350580FF05C060E0B7
:101A9000869586950E94292081E080937C0480E0D1
:101AA00090E00E946130853E9E4F11F00E94B8295F
:101AB0008FE190E00E945B3060935F05709360055A
:101AC0008093610590936205672B682B692B11F455
:101AD0000E94661C0E942E2F67E081E00E94ED1C90
:101AE0006CE886E10E94ED1C63EE87E10E94ED1C2C
:101AF0006CE38AE10E94ED1C69E16F7D60688BE117
:101B00000E94ED1C65EF8CE10E94ED1C60EA8DE106
:101B10000E94ED1C60E38EE10E94ED1C61E083E019
:101B20000E94ED1C61E08CE00E94ED1C60E081E011
:101B30000E94ED1C60E08CE00E94ED1C6FE084E0F0
:101B40000E94ED1C61E08CE00E94ED1C81E892E0B7
:101B500090937805809377055524539494E9692EE2
:101B600094E0792E222423948091D904853009F0C1
:101B70006DC010E48091D904853009F04FC0809188
:101B8000D904843009F43BC080E00E943E2D0E94BD
:101B9000A11F1092920580917E0481110DC0509278
:101BA0007E0480913505982F917090937D048E7FEF
:101BB000809335050E94041E10927D0588E190E017
:101BC0000FB6F894A895809360000FBE1093600044
:101BD00083B7817F846083BF83B7816083BF78943C
:101BE000889583B78E7F83BF0FB6F894A8958091B0
:101BF0006000886180936000109260000FBE0E94B8
:101C0000A22AEFE7F4E081919191892B09F0CBC1F1
:101C1000A9E8B4E0AE17BF07B1F7ACCF0E94162712
:101C20000E94361B0E943E2D10927E0480917D04FE
:101C3000882351F08091350581608093350560E0FF
:101C4000869586950E9429200E9412200E94A22A31
:101C50000AE814E08FE7882E84E0982ED401F8017A
:101C6000219131918D919D91822793276E167F0648
:101C700019F0892BA9F305C0892B19F40E947E2A3B
:101C80003DC0412CD401AD90BD904D01F801C08004
:101C9000D180CA24DB24C114D10441F1312CEE24BB
:101CA000E394F12CC6018E219F21892BB1F039A23A
:101CB0004AA20E94521A9CA38BA32DA291E09501E7
:101CC0002E213F21232B09F490E09EA349A15AA184
:101CD0006BA17CA18DA10E94752D3394EE0CFF1C8D
:101CE000F0E13F12DFCFD801AD92BC9243940E5F7A
:101CF0001F4FB5E04B12C6CF0E94461A8091A80430
:101D0000882309F444C08091A6049091A704009709
:101D100081F40E94521A9093A7048093A604209104
:101D2000A50430E02115310571F48091A40490E000
:101D30000BC00E94371A20918B0230918C02281719
:101D4000390738F324C0C9010197F901EC56FB4F5C
:101D5000108120917005222341F0FC01EC56FB4FCD
:101D600080810E94F31F0E94932180917005882337
:101D700019F0812F0E948C218091A50490E001969A
:101D80006091A40470E00E94D6348093A5048091F1
:101D90009205882309F49BC080919105E091350557
:101DA000E695E695E81BE0938D05823059F4F0E066
:101DB000E951FE4FE4910E2F10E0FBE4EF2EFEE11F
:101DC000FF2E60C0863059F4F0E0EC51FE4FE491F4
:101DD0000E2F10E0EFEAEE2EE9E1FE2E53C089301F
:101DE00061F4E695F0E0EF51FE4FE4910E2F10E024
:101DF00077E8E72E79E1F72E45C08F3061F4E6955C
:101E0000F0E0E252FE4FE4910E2F10E06CE2E62E7D
:101E100069E1F62E37C0853159F4F0E0E552FE4F06
:101E2000E4910E2F10E050EEE52E58E1F52E2AC079
:101E30008831A1F08332C9F08432F1F48E2F63E04F
:101E40000E94CA34E92FF0E0E852FE4FE4910E2FD1
:101E500010E047EAE42E47E1F42E14C008E210E057
:101E600038E6E32E38E1F32E0DC004EF11E029E34C
:101E7000E22E28E1F22E06C000ED17E09EE1E92EE9
:101E80009DE1F92E80918E05882361F010928E05D8
:101E90000E94521A90938C0580938B0510929005A6
:101EA00010928F050E94521AE0918B05F0918C05DB
:101EB0008E1B9F0B8F3F9F4750F40E0F1F1F1093D9
:101EC0008C0500938B058BE895E0F70109958091CF
:101ED000AC04882351F01092AC04809141058093AA
:101EE000420580913F0580934005F12C8091AB0421
:101EF000F816B8F561E08F2D0E949B1C182F60E04A
:101F00008F2D0E949B1CE12FEE0F8E2B0F2D10E0CA
:101F1000D801A655BB4FEC912E2F237030E0482FEF
:101F200050E024173507D9F0EE0FEE0FE82BEC93B5
:101F3000EF70F0E0E851FC4F07551B4F9081D8013E
:101F40008C91890F8C93181614F460E003C08823D9
:101F500021F061E08F2D0E94C81CF8011082F394DB
:101F6000C5CF90E080914205209141052817C1F12D
:101F7000E82FF0E0ED5BFA4F90818F5F83708093E4
:101F80004205809140058F5F8093400597FF04C014
:101F90006AE070E089EA03C06AE070E08AEA0E94C1
:101FA000582791E0DFCF8091D804882309F4E2CD4F
:101FB000B4E1B9BDE6E1E9BD09B400FEFDCF809111
:101FC000D8008F7D8093D8008091E000826080935C
:101FD000E0008091E00081FDFCCF0E941627CACD71
:101FE00091110E94461A86E0EAE6F5E0DE011196BC
:101FF00001900D928A95E1F7D0906B0510916C05D8
:10200000E0906D0500916E05F0906F0510926C05E3
:1020100010926D0510926E0510926F05111103C09C
:10202000EE2009F44BC080916805909169050E94EB
:10203000371A9C0190916305992309F4D0C1253189
:102040003105E0F19F3F19F09F5F909363051123E5
:1020500061F00E94381C111614F491E001C09FEF4A
:10206000899F802D112480936C05EE2061F00E94E1
:10207000381C1E1414F09FEF01C091E0899F802D41
:10208000112480936D0580916C058823B9F0C09070
:102090006D05CC2099F00E94581C882319F080937C
:1020A0006C0502C050926C058C2D0E94581C882330
:1020B00019F080936D0502C050926D05011103C0A7
:1020C000FF2009F44BC080916605909167050E943E
:1020D000371A9C0190916405992309F485C1213533
:1020E0003105E0F19F3F19F09F5F90936405002355
:1020F00061F00E94161C101614F491E001C09FEFCD
:10210000899F802D112480936E05FF2061F00E942D
:10211000161C1F1414F09FEF01C091E0899F802DC1
:10212000112480936F0580916E058823B9F0C090CB
:102130006F05CC2099F00E94581C882319F08093D9
:102140006E0502C050926E058C2D0E94581C88238B
:1021500019F080936F0502C050926F0580916B0556
:102160008D111AC080916C05882311F0181314C0CA
:1021700080916D05882311F0E8120EC080916F05E3
:10218000882311F0F81208C090916E05992331F060
:1021900081E0091304C002C081E001C080E080FD3D
:1021A00015C080916C0581110FC080916D05811162
:1021B0000BC080916E05811107C081E090916F0581
:1021C000911103C080E001C081E080FD0E94EC1B02
:1021D000DA821B83EC820D83FE8286E0FE0131965B
:1021E000AAE6B5E001900D928A95E1F70E94361BB0
:1021F000182F8091AD04181739F01093AD040E9488
:10220000461A812F0E943E2D8091D904843009F016
:10221000ABCC83E08093E9008091E80082FFA4CCFE
:102220008091E80085FF23C00E943E1781111DC0E8
:1022300080E2E82EF12C8E010F5F1F4F09C08091C4
:10224000F100D8018D938D01B1E0EB1AF10869F02E
:102250008091E80085FDF3CF8091E8008B77809333
:10226000E8000E943E17882399F391E001C090E0B6
:102270008091E8008B778093E800992309F474CC6F
:10228000E9818E2F90E0FC01B197E830F10508F06C
:102290006BCCE756FF4F0C94EA3481E28093AE0496
:1022A0001092AF048BE18093B0045092B10484C0CB
:1022B00082E28093AE045092AF041092B00485E0A5
:1022C0008093B10479C083E28093AE041092AF048E
:1022D0001092B0041092B1046FC0FA808B81282F45
:1022E00030E02F0D311D2930310514F08DEF62C023
:1022F0008A3030F48E010F5F1F4FEF2CE80E09C0BB
:102300008EEF58C08091350580FD06C00D5F1F4FD0
:10231000F394EF10F7CF28CCE7E0EF15B8F3D8012E
:1023200015962C91159714964C91149713966C91C1
:102330008F2D90E00E9474170E94041EE7CF88E062
:1023400090E00E945B306B017C0183E290E00E9490
:102350005330282F30E040E050E060E070E080E053
:1023600090E000E20E940235460157012C293929EC
:102370004A295B292093350530933605409337056C
:10238000509338056093390570933A0580933B0567
:1023900090933C050E945F1E8091350580FFE4CB41
:1023A00060E0869586950E942920DECB87E28093A7
:1023B000AE0488E08093AF0440E250E06EEA74E03F
:1023C00082E00AC088E28093AE0482E08093AF048A
:1023D00040E250E06EEA74E00E94BF19C5CB2B309A
:1023E000310508F031CE6ACE2B30310508F07CCEB5
:1023F000B5CE8091DB0487FF11C08091E80082FD9B
:1024000005C08091D9048111F8CF11C08091E800F6
:102410008B770BC08091D904882349F08091E80024
:1024200080FFF8CF8091E8008E778093E8000895D0
:10243000982F973068F59093E900981739F07091CC
:10244000EC002091ED005091F00003C0242F762F76
:1024500050E021FD02C09F5FECCF3091EB003E7F4A
:102460003093EB003091ED003D7F3093ED003091E3
:10247000EB0031603093EB007093EC002093ED00A3
:102480005093F0002091EE0027FDE5CF80E0089505
:102490008F708093E90081E008952091E1043091EC
:1024A000E2042617370748F06115710539F42091C9
:1024B000E8002E772093E80001C0B901FC0120E07C
:1024C0006115710569F18091D9048823E1F18530A6
:1024D000E1F18091E80083FD3AC08091E80082FD3F
:1024E0002CC08091E80080FFEBCF8091F2009091AA
:1024F000F3006115710551F08830910538F4219190
:102500002093F100615071090196F3CF21E0089703
:1025100009F020E08091E8008E778093E800D0CF2A
:102520002111D1CF0AC08091D904882361F0853070
:1025300061F08091E80083FD0AC08091E80082FF8D
:10254000F2CF80E0089582E0089583E0089581E06D
:10255000089543E050E0BC0184E00E94BF19089553
:1025600046E050E0BC0184E00E94BF19089540E2BB
:1025700050E0BC0184E00E94BF190895AAE2B0E0D7
:10258000E4ECF2E10C94D12FEBEDF4E083EE94E077
:102590002091F10021938E179F07D1F78091DC04E1
:1025A000833009F461C030F4813071F0823009F475
:1025B000A0C0B7C08A3009F48CC08B3009F46CC05D
:1025C000893009F0AEC020C08091DB04813A09F067
:1025D000A8C08091E800877F8093E8008091DF04A5
:1025E0009091E004892B21F468E08FEC94E003C023
:1025F00060E080E090E070E00E944D128091E80081
:102600008B778093E8008DC08091DB04813209F0E4
:1026100088C08091DF049091E004009719F0029740
:1026200009F07FC08091E800877F8093E800809167
:10263000E80082FD05C08091D9048111F8CF71C0F6
:102640008091F2009091F300029731F48091F100B3
:10265000813011F0863021F48091F10080938E0258
:102660008091E8008B7759C08091DB04813A09F0B2
:1026700058C08091DF049091E004892B09F051C08B
:102680008091E800877F8093E8008091E80080FFD8
:10269000FCCF80918F023CC08091DB04813209F035
:1026A00040C08091DF049091E004892BD1F58091A6
:1026B000E800877F8093E8000E94F91181E0909103
:1026C000DD04911101C080E080938F020E941627E3
:1026D00028C08091DB04813221F58091E800877F5A
:1026E0008093E8000E94F9118091DE0480938D02AE
:1026F00018C08091DB04813AA1F48091E800877FC3
:102700008093E8008091E80080FFFCCF80918D02EB
:102710008093F1008091E8008E778093E8000E941A
:10272000F9118091E80083FFE4C18091DB0490916E
:10273000DC04492F50E04A30510508F0DAC1FA01B3
:10274000EF55FF4F0C94EA34803821F0823809F0BD
:10275000D0C108C08091D7049091D804992389F002
:1027600082600FC08091DF048F70873008F0C1C194
:102770008093E9008091EB0085FB882780F9109217
:10278000E9009091E800977F9093E8008093F10032
:102790001092F1006EC1282F2D7F09F0AAC1882365
:1027A00019F0823061F0A5C18091DD04813009F01B
:1027B000A0C1933009F080E08093D8042EC08091AE
:1027C000DD0481112AC08091DF048F702FEF280F64
:1027D000263008F08EC18093E9002091EB0020FFA5
:1027E0001CC0933021F48091EB00806214C0909162
:1027F000EB0090619093EB0021E030E0A90102C072
:10280000440F551F8A95E2F74093EA001092EA00C0
:102810008091EB0088608093EB001092E90080913A
:10282000E800877F8093E8000E94F91162C181115E
:1028300060C11091DD041F778091E3008078812BC7
:102840008093E3008091E800877F8093E8000E94F6
:10285000F9118091E80080FFFCCF8091E30080684F
:102860008093E300111102C082E001C083E08093F5
:10287000D9043FC18058823008F03BC12091DD046B
:102880003091DE042C3D53E0350779F583E08A83EF
:102890008AE289834FB7F894DE01139620E03EE088
:1028A00051E2E32FF0E050935700E49120FF03C082
:1028B000E295EF703F5FEF708E2F90E0EA3010F0FE
:1028C000C79601C0C0968D939D932F5F243149F721
:1028D0004FBF8091E800877F8093E8006AE270E054
:1028E000CE0101960E944D12B2C08091DF049091FA
:1028F000E004432F552743305105A9F068F44130D7
:10290000510509F405C14230510509F0F2C08BE5CB
:1029100090E0E7E0F3E04BC04132510529F142324B
:10292000510589F1E6C0C901992781309105A1F0CF
:1029300058F0029709F0DDC0E4E7F3E0E4918E2F50
:1029400090E0E4E7F3E030C0EAE9F3E0E4918E2FB1
:1029500090E0EAE9F3E028C0E2E8F3E0E4918E2FAA
:1029600090E0E2E8F3E020C08330910508F0C1C0B8
:10297000880F991FFC01EF5FFB4F0190F081E02D64
:1029800089E090E014C08330910508F0B2C0FC01EA
:10299000EE0FFF1FE550FC4F0190F081E02DDC01B0
:1029A000A850BC4F8C9190E0009709F4A2C02091F0
:1029B000E800277F2093E8002091E1043091E204B1
:1029C0008217930708F49C0140E02115310571F14D
:1029D0008091D9048823D9F18530C9F18091E8002C
:1029E00083FD35C08091E80082FD2DC08091E80014
:1029F00080FFEBCF8091F2009091F300211531051B
:102A000059F08830910540F444914093F10031969B
:102A1000215031090196F2CF41E0089709F040E0DA
:102A20008091E8008E778093E800CFCF4111D0CF1E
:102A30000AC08091D904882351F0853041F08091FB
:102A4000E80083FD04C08091E80082FFF2CF80910E
:102A5000E8008B778093E8004CC0803809F049C0CB
:102A60008091E800877F8093E8008091DA0480936A
:102A7000F1008091E8008E77D5CE81113AC0809127
:102A8000DD049091DE04992702979CF58091E8007F
:102A9000877F8093E8001091DD041093DA040E9490
:102AA000F911111106C08091E30087FD02C081E099
:102AB00001C084E08093D90442E061EC81E00E948F
:102AC000181242E261EC84E00E94181242E261ECCA
:102AD00082E00E94181242E260EC83E00E94181229
:102AE0008091D904843011F081E001C082E08093AC
:102AF00090028091E80083FF10C08091E800877FFA
:102B00008093E8008091EB0080628093EB0005C029
:102B100082E190E0E2E6F3E04ACFAA96E3E00C948B
:102B2000ED2F1F920F920FB60F9211240BB60F923A
:102B30002F933F934F935F936F937F938F939F93C5
:102B4000AF93BF93CF93DF93EF93FF93C091E900CF
:102B5000CF708091EC00D82FD17080FDD0E810921A
:102B6000E9008091F000877F8093F00078940E94C4
:102B7000BE121092E9008091F00088608093F0000E
:102B8000CD2BCF70C093E900FF91EF91DF91CF91F2
:102B9000BF91AF919F918F917F916F915F914F9175
:102BA0003F912F910F900BBE0F900FBE0F901F9073
:102BB0001895E8EDF0E080818C7F80831092E20030
:102BC0001092DA001092E100A0EEB0E08C918160EA
:102BD0008C9380818F77808319BCA7EDB0E08C91B6
:102BE0008E7F8C9380818F7E80831092CE04089597
:102BF000A0E0B0E0EEEFF5E10C94CC2FC8EDD0E012
:102C000088818F7E8883E7EDF0E08081816080831A
:102C100081E08093CE0488818C7F888302EE10E06F
:102C2000D8011C921092DA0081EEC82ED12CD60168
:102C30001C9288818F7788838881806888838881C7
:102C40008F7D888380818068808319BC1092D9042D
:102C50001092DA041092D8041092D70490EEE92E64
:102C6000F12CF70180818B7F80838881816088834C
:102C700042E060E080E00E941812D6018C918E7FC5
:102C80008C93F8018081816080838081886080835B
:102C9000D7018C918E7F8C93888180618883CDB79A
:102CA000DEB7E8E00C94E82F1F920F920FB60F9258
:102CB00011240BB60F922F933F934F935F936F9313
:102CC0007F938F939F93AF93BF93EF93FF938091E5
:102CD000E10082FF09C08091E20082FF05C080917F
:102CE000E1008B7F8093E1008091DA0080FF2AC0B1
:102CF0008091D80080FF26C08091DA008E7F80937B
:102D0000DA008091D90080FF18C084E189BD86E196
:102D100089BD09B400FEFDCF81E08093D904809184
:102D2000CE0481110FC00E94D9150E94F815809120
:102D3000E20084608093E20005C019BC1092D904BF
:102D40001092CE048091E10080FF1AC08091E200D1
:102D500080FF16C08091E2008E7F8093E200809118
:102D6000E20080618093E2008091D80080628093CD
:102D7000D80019BC85E08093D90483E08093900249
:102D80008091E10084FF37C08091E20084FF33C06E
:102D900084E189BD86E189BD09B400FEFDCF809143
:102DA000D8008F7D8093D8008091E1008F7E809342
:102DB000E1008091E2008F7E8093E2008091E2004A
:102DC00081608093E2008091DA04882311F084E02E
:102DD00007C08091E30087FD02C081E001C083E06D
:102DE0008093D9048091D904843011F081E001C02E
:102DF00082E0809390028091E10083FF2CC080915B
:102E0000E20083FF28C08091E100877F8093E1008A
:102E100082E08093D9041092DA048091E1008E7FE1
:102E20008093E1008091E2008E7F8093E2008091A8
:102E3000E20080618093E20042E060E080E00E9476
:102E400018128091F00088608093F00081E08093F8
:102E5000900280938F02FF91EF91BF91AF919F916C
:102E60008F917F916F915F914F913F912F910F9033
:102E70000BBE0F900FBE0F901F9018952091E4008D
:102E80003091E50095E64091EC00842F817040FF81
:102E900023C08091E80080FD1DC08091D904882363
:102EA00099F0853099F08091EB0085FD11C040913B
:102EB000E4005091E5002417350729F3915011F0F3
:102EC0009A01E1CF84E0089582E0089583E00895B7
:102ED00081E0089580E008954091E80042FFDDCF51
:102EE000089580918E020895FC01EE0FFF1F8E0F52
:102EF0009F1FFC01E95BFA4F6183408322830895A1
:102F0000269A089585B18F7B95B190642FB7F89478
:102F1000E7E4F5E035E0EF35F30789F0319148E07B
:102F200095B9000000C037FF85B9330F000000C01D
:102F300000C000C085B900C04A9591F7EBCF2FBF04
:102F40008FE594E00197F1F700C000000895A0E03C
:102F5000B0E0EDEAF7E10C94C72FFC0182807480A9
:102F600081E08483EEE9F3E09490EDE1F4E0E49114
:102F7000009138050695015810E0000F111F012F30
:102F80001127CDE0D5E0C12CD12CAA24AA94B12CD4
:102F9000E919EE2EF12C22E0281530F0809136054B
:102FA0008883809137058983711003C01B821A8240
:102FB0004AC08B818823F9F081508B832FEF829F49
:102FC000C00111246C8170E00E94AE2FFB01FF272D
:102FD000E256FC4F8491E82FE9192FEFE29FC001E0
:102FE0001124B7010E94AE2F80913805689FB0016F
:102FF00011247A8328C00E944430B5010E94D6343F
:103000008017910704F582E0881588F40E94443007
:10301000B5010E94D63488830E9444302091370540
:103020002695622F70E00E94D634280F29831A82D9
:1030300080913805843120F0893C18F088EC01C07B
:1030400084E18C838B8396014A81698188810E9407
:10305000CD1E2FEFC21AD20A259688E0C816D104D9
:1030600009F099CF0E94041ECDB7DEB7EDE00C94B5
:10307000E32F0F931F93CF93DF938C01C0E0D0E039
:10308000F8018481C430D1051CF4882339F002C0D2
:10309000811104C09E014091380502C09E0140E0AC
:1030A00060913705809136050E94CD1E2196C8306B
:1030B000D10531F70E94041EF801848190E0019649
:1030C000817099278483DF91CF911F910F9108958B
:1030D000A0E0B0E0EEE6F8E10C94C82FEC014C81E2
:1030E000042F10E09801D8010E94FF309B01AC0131
:1030F0000E94CA306B017C01E0E2F0E0E01BF10BC2
:10310000A5E5B0E09B01AC010E94CA304B015C0117
:103110009F01DF010E94F3349B01AC010E94D53076
:103120009B01AC012C0D3D1D4E1D5F1DC501B40161
:103130000E94DD30822F022F2A3228F493E0299F4B
:10314000900111240DC025E530E0281B3109C9018B
:10315000880F991F280F391F37FF02C02F5F3F4F7D
:1031600035952795122F1095E12CF12C85E5D82E59
:10317000D01AE1FC02C08D2D01C0802F9701412F94
:10318000609137050E94CD1E8FEFE81AF80A98E08B
:10319000E916F10471F70E94041E8C81811102C0AE
:1031A00091E003C0803219F49FEF909393029091C5
:1031B0009302890F8C83CDB7DEB7ECE00C94E42F3B
:1031C000CF93DF93C0E0D0E020E040E060E0CE01AC
:1031D0000E9474172196C830D105B1F7C0E0D0E045
:1031E00080910C05082E000C990BC817D90794F094
:1031F00080919202082E000C990B8C179D0754F0B9
:103200009E014091380560913705809136050E94F6
:10321000CD1E06C020E040E060E0CE010E947417A1
:103220002196C830D105E1F60E94041E80919102DA
:1032300090910C05980F90930C0520919202280F05
:1032400020939202121614F497301CF0819580930B
:103250009102DF91CF910895EF92FF920F931F9308
:10326000CF93DF93FC01828180FF03C0FF24FA9497
:1032700002C0FF24F394C0E0D0E020E040E060E032
:10328000CE010E94741704E010E0E12C80910B0540
:103290008E0D893014F0877002C087FD885F082E7C
:1032A000000C990BC817D90791F480913805809FBD
:1032B000A001819F500D112455954795559547952F
:1032C0009E0160913705809136050E94CD1EEF0C5E
:1032D00001501109D9F62196C830D10571F60E9426
:1032E000041E80910B05F1E0FF1206C0811102C09F
:1032F00087E006C0815004C090E00196877099274E
:1033000080930B05CDB7DEB7E6E00C94EA2FEF9281
:10331000FF921F93CF93DF93EC0110E0E12CF12C8F
:103320008C8197014091380560913705810F0E948B
:10333000CD1E8FEFE81AF80A115E183F89F70E9438
:10334000041E9A818C8190FF02C08F5F01C0815062
:103350008C83DF91CF911F91FF90EF900895CF93D1
:10336000DF93EC01E5E3F5E0438162818C810E940B
:103370003B1E8C818F5F8C83DF91CF9108950F93DB
:103380001F93CF93DF938B01EA019091D90494307E
:1033900079F58F708093E9008FEF9091E80081506C
:1033A00095FD06C095ED9A95F1F700008111F5CFD6
:1033B0008091E80085FF1CC00E943E17882361F0C1
:1033C0008091E8008E778093E80012C0F801819127
:1033D0008F018093F1002197209791F38091E8006D
:1033E00085FDF4CF8091E8008E778093E800E4CFEC
:1033F000DF91CF911F910F910895CF93DF93EC014F
:1034000048E050E0BC0181E00E94BF1988E0FE0165
:10341000AFECB4E001900D928A95E1F7DF91CF9186
:10342000089578941F920F920FB60F9211248F93E4
:103430009F93AF93BF9380917E0590917F05A0915C
:103440008005B09181050196A11DB11D80937E0577
:1034500090937F05A0938005B0938105BF91AF91B4
:103460009F918F910F900FBE0F901F9018959C0108
:103470004FB7F89480917E0590917F05A0918005CB
:10348000B09181054FBF821B930B08952FB7F8941D
:1034900060917E0570917F058091800590918105F6
:1034A0002FBF08952FB7F89480917E0590917F05E6
:1034B000A0918005B09181052FBF08951F920F92B2
:1034C0000FB60F9211248F939F93AF93BF93809168
:1034D0007D05811113C080917E0590917F05A0919B
:1034E0008005B09181054196A11DB11D80937E0597
:1034F00090937F05A0938005B0938105BF91AF9114
:103500009F918F910F900FBE0F901F9018959091E3
:103510008F02913021F490917B0597FD03C0E3EE7B
:10352000F4E01DC0E82FE695E695E695EE31E0F46F
:10353000F0E0E551FB4F877021E030E0A90102C0C7
:10354000440F551F8A95E2F7CA018095928189231D
:1035500082830895319654E0E93EF50729F092817F
:103560008913F8CF1282F6CF089590918F0291308F
:10357000D1F490917B0597FF16C0E82FE695E6956C
:10358000E695EE3140F5F0E0E551FB4F877021E024
:1035900030E0A90102C0440F551F8A95E2F7CA0125
:1035A0009281892B16C0A5EEB4E0EFEF90E02D914B
:1035B000821789F0EF3F19F4211101C0E92F9F5FB5
:1035C0009630A9F7EF3F39F00E2E000CFF0BED51AE
:1035D000FB4F828308950895A3E0B0E0E2EFFAE1A3
:1035E0000C94D22F2091790530917A05281739074C
:1035F000A1F090937A0580937905E0917705F09199
:103600007805309751F024E029839B838A830084D6
:10361000F185E02DCE01019609952396E2E00C9408
:10362000EE2FA3E0B0E0E7E1FBE10C94D22F209174
:1036300075053091760528173907A1F09093760526
:1036400080937505E0917705F0917805309751F0FA
:1036500023E029839B838A830084F185E02DCE01BA
:10366000019609952396E2E00C94EE2FE091770500
:10367000F0917805309729F00190F081E02D0995BF
:10368000089580E008950F931F93CF93DF93C42F85
:10369000D22FFC0185818823B1F0409374050E94EC
:1036A000521A909373058093720580E28C0F8830D4
:1036B00008F068C0C77081E001C0880FCA95EAF7BA
:1036C0000E944E275FC08091740548133DC08091D1
:1036D0007205909173050E94371A883C9105A0F5F8
:1036E00010E21D0FCD17E9F080E28C0F883040F416
:1036F000C77081E001C0880FCA95EAF70E9447278A
:10370000183078F581E09D2F977001C0880F9A9549
:10371000EAF70E944E27093351F560E570E089E32E
:1037200029C0093319F460E570E002C060E070E080
:10373000802F0E945827183028F5D77081E001C0EB
:10374000880FDA95EAF70AC080E28C0F8830D0F44F
:10375000C77081E001C0880FCA95EAF70E94472729
:1037600011C0093351F460E570E089E309C060E0FD
:1037700070E0802F0E945827E0CF60E070E0802F3B
:103780000E945827DF91CF911F910F91089581E0FA
:103790008093710568E070E084E193E00E94612EFF
:1037A000089581E08093700568E070E084E992E01C
:1037B0000E94612E08958091700581110E94A11FC1
:1037C00008950E94DB1B1092700568E070E084EDA4
:1037D00092E00E94612E08950E94521A20916C0579
:1037E000211104C020916D05222321F090936905D9
:1037F0008093680520916E05211104C020916F050A
:10380000222321F09093670580936605E091770568
:10381000F0917805309749F082E080936A05068040
:10382000F781E02D8AE695E0099508958091650578
:1038300080FD16C081FD16C082FD18C08091640510
:10384000882391F0883290F428E0829FC0011124EF
:1038500068E270E00E94D634862F672B29F007C0FB
:1038600082E0089584E0089581E0089588E0089555
:103870008091650580FD14C081FD14C082FD16C0D5
:1038800080916305882381F08E3180F420E5829F4A
:10389000C00111246EE170E00E94D634862F089595
:1038A00084E1089588E2089588E0089580E5089508
:1038B000282F35EB2303C001112497FF03C0805844
:1038C000910902C080589F4F892F0895E2E6F5E0E4
:1038D00080818C7F808383E280935F0510926005F6
:1038E00060915F057091600580916105909162051E
:1038F0000E94B1290895EFE5F5E080818E7F8083F5
:1039000060915F05709160058091610590916205FD
:103910000E94B1290895EFE5F5E080818160808300
:1039200060915F05709160058091610590916205DD
:103930000E94B1290895611102C020EC01C027E95D
:10394000E22FE295EF70F0E080A190E02F7002C0CE
:10395000959587952A95E2F781700895611102C0C7
:1039600080EC01C087E9E82FE295EF70F0E031A12B
:10397000282F2F7081E090E001C0880F2A95EAF788
:10398000982F9095932391A392A1892B82A30895B8
:1039900090914105E92FF0E04091420550E09F01F0
:1039A0002F5F3F4F2370332742175307A1F0ED5B82
:1039B000FA4F8F7720812078822B60FB87F98083F4
:1039C0009F5F93709093410580913F058F5F809337
:1039D0003F0581E0089580E00895EDE3F5E0808300
:1039E000618324E630E042E050E0BF0184EB0E94B6
:1039F000632F0895CF93C82F8093610560915F0571
:103A00007091600580916105909162050E94B129D5
:103A10006C2F82E00E94ED1CCF910895CF93C82FA8
:103A200060E08CE00E94ED1C6C2F84E00E94ED1C95
:103A300061E08CE00E94ED1CCF9108950895A0E014
:103A4000B0E0E5E2FDE10C94CC2F7B01E82FF0E043
:103A5000F11006C0E256FB4F8491782F682F73C097
:103A60002F2D30E0E256FB4FE491FE2F0E2F10E099
:103A700046E0649FC0011124CFEFD0E0BE010E9458
:103A8000AE2FAB016BEA6403C001659F900D11245A
:103A90008E0D911D8E0D911D982F990F980FBE01BF
:103AA000621B730B609FD001619FB00D709FB00DC2
:103AB00011248B2FF99EB0011124672F77277E01E7
:103AC000E61AF70AB701609F7001619FF00C709FC2
:103AD000F00C11246E01C91AD108C29EB001C39E18
:103AE000700DD29E700D1124272F3327C21BD30BCC
:103AF000C09F9001C19F300DD09F300D1124732FB6
:103B00004230510591F048F441155105D9F041304A
:103B10005105B1F47E2FEF2D15C04430510561F0F1
:103B200040F04630510571F00BC0EB2F832F7F2FF3
:103B300009C07F2DEB2F02C0E32F7B2F8F2F02C0F8
:103B40007B2F8F2D6E2FCDB7DEB7E8E00C94E82FDA
:103B5000E1E7F0E080818D7F8083E0E9F0E0808123
:103B60008F7380830895CF92DF92EF92FF926B0163
:103B70007C0120E030E0A9010E947B31811106C068
:103B8000809190008F738093900039C08091900055
:103B9000806880939000C0928305D0928405E09263
:103BA0008505F092860520E030E040E051E4C70151
:103BB000B6010E94D8329B01AC0160E074E284E758
:103BC0009BE40E9480316B017C010E94F231709372
:103BD00097006093960020E030E048E452E4C7018B
:103BE000B6010E94D83220E030E048EC52E40E9456
:103BF00080310E94F2317093990060939800FF9099
:103C0000EF90DF90CF900895CF93DF9380913505AB
:103C100080FF05C00E948217DF91CF910895C0E018
:103C2000D0E020E040E060E0CE010E9474172196D1
:103C3000C830D105B1F7EECFFF920F931F93CF930A
:103C4000DF939091350590FF11C0F42E062F182FA9
:103C5000C0E0D0E02F2D402F612FCE010E947417BD
:103C60002196C830D105B1F70E94041ECDB7DEB74A
:103C7000E5E00C94EB2F9091350590FF0BC0762F6B
:103C8000682F842F0E941F1D962F672F482F892F82
:103C90000E941C1E0895CF93DF93EC01EC81F0E0AD
:103CA000E256FC4F4491E5E3F5E0628181810E9498
:103CB0003B1E8C818F5F8C83DF91CF910895809123
:103CC0003505282F2695269530E02115310519F464
:103CD0008370846005C02A32310524F08370846AC1
:103CE000809335050895A0E0B0E0E9E7FEE10C948B
:103CF000C82F49015A016B017C010E945F1E84019B
:103D0000A4016A2D7B2D88E090E00E948930940107
:103D10004A2D5B2DB601C70100E20E941D35622FBE
:103D200083E290E00E947730CDB7DEB7ECE00C94F0
:103D3000E42F80913905882319F08150809339054B
:103D40002091350530913605409137055091380561
:103D50006091390570913A0580913B0590913C0541
:103D60000E94731E089580913905833018F48F5F87
:103D700080933905209135053091360540913705FE
:103D8000509138056091390570913A0580913B0555
:103D900090913C050E94731E0895CF93762FC22FF9
:103DA000682F842F0E941F1D472F282F8C2F90E0F3
:103DB0000E947417CF910895A0E0B0E0E2EEFEE11A
:103DC0000C94C92F182FF62E042FE22E9091350552
:103DD00090FF6AC0E92FE695E695AE2FB0E0A95FA7
:103DE000BB4F8C91809391059C7F943061F4612F3F
:103DF0007F2D842F0E941F1D962F672F482F892FFC
:103E00000E941C1E3AC0823019F40091380535C05A
:103E1000863019F41091360530C08930D9F38931D4
:103E200061F5E9512E2F2170922EE695F0E0E256D1
:103E3000FA4FE491CE2FD0E0A12CB12CC12CD12C83
:103E4000C50123E0969587952A95E1F7911002C068
:103E5000810F03C0212F281B822F9601402F6F2D29
:103E60000E94CD1E8FEFC81AD80AAC0EBD1E28E0E6
:103E7000C216D10429F70E94041E10933605F09251
:103E8000370500933805EE2079F0209135056091D3
:103E9000390570913A05312F4F2D502F80913B05F8
:103EA00090913C050E94731ECDB7DEB7EBE00C94F9
:103EB000E52FE5E3F5E0438128E0421B08F440E00C
:103EC00021E0628181810E94DC1E0895E5E3F5E036
:103ED000438128E0420F08F44FEF21E062818181A5
:103EE0000E94DC1E0895E5E3F5E0628128E0621B94
:103EF00008F460E021E0438181810E94DC1E089586
:103F0000E5E3F5E0628128E0620F08F46FEF21E05D
:103F1000438181810E94DC1E0895E5E3F5E0818103
:103F200021E04381628188500E94DC1E0895E5E310
:103F3000F5E0818121E043816281885F0E94DC1E7F
:103F4000089580918C03811122C0109281060E94F5
:103F5000A81D10923B0610923C061092300610925B
:103F60002F06E1E4F6E080E090E0A0E8BFEB1182EC
:103F7000108282839383A483B58317821682389636
:103F800026E0E138F20799F781E080938C030895E9
:103F900062E070E08CE793E00E94612E2FEF81EEEB
:103FA00094E0215080409040E1F700C000000E9462
:103FB000A11F60913E066E7F60933E0687E090E011
:103FC0000E947730089560913E06616060933E06DE
:103FD00087E090E00E94773062E070E08CE693E04A
:103FE0000E94612E0895682F70E065547109072EB4
:103FF000000C880B990B0E94233220E030E040E453
:1040000051E40E9480319B01AC0160E070E080E0EF
:1040100090E40E94453320E030E04CED53E40E94F0
:10402000D8320895609135056695669570E04BE04D
:1040300050E08DE893E00E943935892B19F481E036
:10404000809392050E94521A90938C0580938B0561
:1040500008959091350590FF40C09370811102C082
:10406000946007C08A3210F0946A03C0880F880FEA
:10407000982B90933505662391F02091350530916A
:10408000360540913705509138056091390570919A
:104090003A0580913B0590913C050E94731E60910A
:1040A00035056695669570E04BE050E08DE893E04D
:1040B0000E943935892B19F01092920502C00E9496
:1040C000122081E080938E0520E0409138056091B8
:1040D0003705809136050E94DC1E089580913505D4
:1040E00086958695815009F489E261E00E94292035
:1040F000089580913505869586958F5F8A3208F000
:1041000081E061E00E942920089580913D0681119F
:1041100042C087E090E00E94533080933E0682FDCB
:1041200009C0682F6560626060933E0687E090E09A
:104130000E947730E1E4F6E080E090E0A0E8BFEB99
:104140001182108282839383A483B583178216829F
:10415000389626E0E138F20799F70E94A81D3E9AAA
:1041600082E0809390008AE18093910081E08093C7
:104170003D060E94A11F80913E0680FF06C063E0BD
:1041800070E084E593E00E94612E0E94521A9093A1
:104190003206809331060895A0E0B0E0E2EDF0E24F
:1041A0000C94C72F4B015C016A0180913E0680FF91
:1041B000AEC080913D06811102C00E94852020E0A2
:1041C00030E0A901C501B4010E947B3187FF04C022
:1041D000B7FAB094B7F8B09470908106072D10E04C
:1041E000E801219743E0000F111F4A95E1F7E12C08
:1041F000F12CCF3FFFEFDF07D9F128E0E21AF108F9
:10420000F801EE0DFF1DEF5BF94F228133814481F0
:104210005581C501B4010E947B31811127C08E01F7
:1042200033E0000F111F3A95E1F70F5B194F8091B2
:10423000810690E00197C817D9070CF068C0219655
:1042400088E0F8013896D80101900D928A95E1F73F
:104250000E94521AF8019187808782869386A486ED
:10426000B586D786C686085F1F4FE1CF2197C1CF9D
:1042700081E0870D893020F58093810681E080936D
:10428000820580933C06C0918106D0E021970E9470
:10429000521AFE0123E0EE0FFF1F2A95E1F7EF5BB4
:1042A000F94F9183808382829382A482B582D782E0
:1042B000C6820E94521A80918C03882341F113C058
:1042C00088E08093810681E496E028E0FC0138963E
:1042D000DC0101900D922A95E1F7089626E08937D6
:1042E000920799F7CBCF8091710082608093710023
:1042F0008091900080688093900080913C06882394
:1043000021F00E94342E0E94B31D10928C03CDB771
:10431000DEB7EDE00C94E32F0E94F31F4FEF5FEF49
:104320000E94CC200895A0E0B0E0E9E9F1E20C940D
:10433000CC2F6B017C0120E030E0A9010E947B3191
:1043400087FF04C0F7FAF094F7F8F09480913C06E8
:10435000882309F458C080913D06811102C00E9453
:10436000852001E416E0C7E0D0E0F80122AD33ADCE
:1043700044AD55ADC701B6010E947B3181112BC000
:1043800083E0CC0FDD1F8A95E1F7CF5BD94F19820F
:10439000188280E090E0A0E8BFEB8A839B83AC8327
:1043A000BD831F821E82AC01BD01F6E0C937DF0765
:1043B000D1F088E0FE013896DE0101900D928A95D9
:1043C000E1F7198618864A875B876C877D871F8689
:1043D0001E862896EACF219708501109CF3F8FEF0C
:1043E000D80719F610C0C1E0C093820580918106FC
:1043F000815080938106811106C00E94A81DC09340
:104400008C0310923C06CDB7DEB7E8E00C94E82FA1
:104410001F920F920FB60F9211240BB60F924F926C
:104420005F926F927F92AF92BF92CF92DF92EF92A4
:10443000FF920F931F932F933F934F935F936F932D
:104440007F938F939F93AF93BF93CF93DF93EF931C
:10445000FF938091870590918805A0918905B0917F
:104460008A050196A11DB11D80938705909388054B
:10447000A0938905B0938A0560918705709188059E
:104480008091890590918A050E9421326B017C01FF
:1044900020E030E040E85CE36091830570918405A2
:1044A00080918505909186050E94D8329B01AC01D0
:1044B000C701B6010E947B3187FD42C1109287057A
:1044C000109288051092890510928A0580913C0609
:1044D000811105C0C0913B06CC2309F420C10E9484
:1044E000521AEC0180913B06811102C010E0E3C03A
:1044F00080913106909132060E94371A20912F0642
:10450000309130068217930788F38091310690919D
:1045100032060E94371A20912F06309130067C0116
:10452000E21AF30AD0933206C093310600913306A3
:1045300010913406C8010196909334068093330697
:104540000E94521AA0903606B0903706809133062A
:10455000909134068A159B0560F0C0913506CC23F6
:1045600029F0109234061092330603C00E94A11F56
:10457000D6C080913A06C0913306D0913406C090DF
:104580003806D0903906811131C0F80153E0EE0FA2
:10459000FF1F5A95E1F7EC0DFD1DDE0163E0AA0F48
:1045A000BB1F6A95E1F7AC0DBD1D2D913D914D915D
:1045B0005C9160817181828193810E947B31811144
:1045C00015C081E080933A064FE050E060E070E073
:1045D000CB010E94CC2010933406009333068FE069
:1045E00090E09093300680932F0664C010923A06B4
:1045F0008E0133E0000F111F3A95E1F70C0D1D1DE0
:10460000F80164817581868197810E94F2319B0156
:10461000A3E5B7E00E94FF3020EF30E040E050E03B
:104620000E94DD30F1E0AF1AB10840EF442E512C6A
:10463000612C712C2E153F0550F0D0933406C09399
:104640003306E216F306E0F0C1E0D0E01CC0085FDC
:104650001F4FCA15DB0588F7E21AF30A2196F80105
:1046600064817581868197810E94F2319B01A3E567
:10467000B7E00E94FF30A30192010E94DD30DACF43
:10468000E901CE19DF09809133069091340623E0C9
:10469000880F991F2A95E1F7F601E80FF91F60814D
:1046A000718182819381AE010E94CC20D09330062B
:1046B000C0932F0611E080913C06882341F1809140
:1046C0003F06811111E0C1E4D6E0E12CF12C80918C
:1046D000810690E0E816F906D4F48E819F81019757
:1046E0008E3F9F4F78F4888199810E94371A2E81DE
:1046F0003F818217930730F06A817B818C819D8195
:104700000E9493212FEFE21AF20A2896E0CFC0917F
:104710008205CC2319F01092820501C0C12F80912F
:104720003C06811107C080913B06811103C00E94A5
:10473000A81D06C0CC2321F00E94342E0E94B31D78
:10474000FF91EF91DF91CF91BF91AF919F918F91A9
:104750007F916F915F914F913F912F911F910F9199
:10476000FF90EF90DF90CF90BF90AF907F906F90D1
:104770005F904F900F900BBE0F900FBE0F901F9049
:1047800018952091FB059091C20557E02917A9F0D3
:1047900030E0529FF001539FF00D1124ED53FA4F7A
:1047A0007181761306C07081781303C0758174130C
:1047B00006C02F5F3F4F2770E9CF80E0089581E06A
:1047C0000895909127068091FE05892B9091FD0513
:1047D0009923E1F0892B90918F02913041F49091CF
:1047E0007B0597FF04C09EE12DEE34E003C096E008
:1047F00025EE34E0F90120E0915028F03191332387
:10480000D9F32F5FF9CF21111092FD050895809102
:10481000FB059091C205891719F08F5F8770FBCF58
:104820000895CF93DF938091C10582958F7009F031
:104830004EC08091C005882309F449C08091FB05D2
:104840004091C2055091BC056091BB05C091BD056A
:10485000D091BE0577E08417D1F190E0789FF00108
:10486000799FF00D1124DF01AD53BA4F14962C91AE
:104870001497222349F111962C911197251324C0E6
:104880002C91261321C015962C91159721111CC02F
:1048900012962D913C9113972C1B3D0B283C310512
:1048A00098F48091C1058F7080618093C105E753B2
:1048B000FA4F80818F70806180838BEB95E00E943E
:1048C000AE030E94072403C001968770C4CFDF9116
:1048D000CF910895A0E0B0E0E0E7F4E20C94CB2F94
:1048E0007C0100917A0410917B04809128069091BC
:1048F0002906082B192BCFE0D0E0CC24C394D12C6F
:10490000C6010C2E02C0880F991F0A94E2F780237B
:104910009123892B21F4219798F7B12C09C0BC2E43
:10492000B7018C2F0E9474280E949428019799F354
:104930008B2DCDB7DEB7E9E00C94E72FCF93DF9353
:10494000EC010E946A24BE010E9474280E949428EF
:10495000DF91CF910895FC0124812223D9F0808139
:1049600091810E949E2492959F70963079F010F468
:10497000925001C09A50923068F4803F69F018F468
:10498000883E40F409C0843F29F406C0883E20F0E8
:10499000813F11F080E0089581E00895A4E1B0E046
:1049A000E4EDF4E20C94C82F8C0186E0F801DE01FE
:1049B0001F9601900D928A95E1F7F8018481E580B8
:1049C0009BEB892E95E0992E9091BF05911120C007
:1049D000882309F463C1EE2009F442C0C8010E9493
:1049E000AB24F82E8823E1F187E0F801D40101908F
:1049F0000D928A95E1F78091BF05813031F4809165
:104A0000BB059091BC050E949E240E94112448C1C0
:104A1000F801D080C180A280B380F090C0052091C1
:104A2000BD053091BE05FF2009F4E7C0A501421B7A
:104A3000530B483C510508F09DC0882309F430C150
:104A40008091C105282F207F9091BC05222361F021
:104A50009C1509F460C0C8010E94AB24811163C099
:104A6000C8010E94AE031AC19C1113C09091BB05EE
:104A70009D110FC0E1100DC08F7080618093C10542
:104A80008BEB95E00E94AE038091C105F80186830F
:104A900003C1E1103AC040E06C2D8D2D0E94C1236E
:104AA00040E06C2D8D2D0E94C123E82E8111F4C0B1
:104AB000DF86C88A8F8598890E949E24292F229597
:104AC0002F70243020F49F70223028F009C02A5023
:104AD000223080F014C0992349F0811107C013C01F
:104AE000992321F0F8019681907F69F0805E8830EB
:104AF00030F409C0803F38F0815F833020F0C80176
:104B00000E94AE03EF2CFE2CCBC08091C1058160CA
:104B10008093C105C1C09091BB059D119CCFE11050
:104B20009ACFF80198C0EE2009F49ACF2091C105E0
:104B3000822F82958F7090E002978CF08091BB0558
:104B40009091BC0599878887BB86AA868091BF050E
:104B50008C871D862E87CE0108960E94AE0387E0C3
:104B6000F801ABEBB5E001900D928A95E1F70E9458
:104B7000112494C09091C105292F207F51F48BEB13
:104B800095E00E94AE0387E0F40111928A95E9F75F
:104B900083C0882309F484C08091BC058C110CC0AB
:104BA0008091BB058D1108C0E11006C0F801968305
:104BB000C8010E94AE036AC0C8010E94AB248823CA
:104BC00009F44ECFEE2009F44BCF2091C105822F7E
:104BD00082958F7090E0029714F28091BB059091BE
:104BE000BC059A838983BC82AB828091BF058D838B
:104BF0001E822F83CE010196B0CFA21AB30AF8EC21
:104C0000AF16B10408F042C0882309F447C0FE2C57
:104C1000EE2009F425CF8091BC058C1129C080912C
:104C2000BB058D1125C09091C10590FD18C0892F3D
:104C300082958F70282F30E02115310581F0F80121
:104C400096832F30310541F08F5F982F9295907F9A
:104C500086818F70892B8683C8010E94AE0387E00E
:104C6000F801ABEBB5E001900D928A95E1F718C021
:104C7000C8010E94AB24811172CF8091C10581606F
:104C80008093C105C8010E94AE030AC087E0F40109
:104C900011928A95E9F704C0F12C02C0FF24F39425
:104CA0008F2D6496ECE00C94E42F953078F58031EC
:104CB00068F5E82FF0E080E1989FE00DF11D1124E8
:104CC0009E2F977083E0F695E7958A95E1F7EE0FB2
:104CD000FF1FEE0FFF1FED56FA4F40E050E080E05F
:104CE000219130E0092E02C0369527950A94E2F70B
:104CF00021703327042E01C0220F0A94EAF7822B79
:104D00004F5F5F4F4430510559F7089580E0089593
:104D1000953088F5803178F5E82FF0E080E1989FB4
:104D2000E00DF11D11248E2F877051E001C0550F49
:104D30008A95EAF783E0F695E7958A95E1F7EE0F15
:104D4000FF1FEE0FFF1FED56FA4F20E030E070E03E
:104D50004081CB01022E02C0969587950A94E2F716
:104D60008170819584278523842781932F5F3F4F0E
:104D70002430310569F7089590937B0480937A0479
:104D8000089521E030E002C0220F331F8A95E2F738
:104D90002095309580917A0490917B04822393230F
:104DA0000E94BC2608959091FC05809589238093EC
:104DB000FC05282F277069F4981759F090917C050D
:104DC00092FF07C08695869586950E94C12610920F
:104DD000FC05089590917C0592FB222720F9281765
:104DE00079F080FB92F990937C0560917B0570913E
:104DF0007C0584E090E00E94953082E00E94D326FA
:104E0000089521E030E002C0220F331F8A95E2F7B7
:104E100080917A0490917B04822B932B0E94BC2674
:104E200008959093290680932806089510922706E6
:104E300080918F02813041F480917B0587FF04C00F
:104E40008EE1EDEEF4E003C086E0E5EEF4E0DF0194
:104E50001D928A95E9F780E090E00E94111B80E0A6
:104E600090E00E94EC1A1092FE050E942C2AEAE6BD
:104E7000F5E086E0DF011D928A95E9F7109263055F
:104E800010926405109265050E94EC1B089588231A
:104E900021F00E94252A0E942C2A0895882339F0A7
:104EA00090912706892B809327060E942C2A08952B
:104EB0001F93CF93DF93182FEB010E94872C20972D
:104EC00041F08FE99FE00197F1F700C000002197C2
:104ED000F6CF812F0E942D2CDF91CF911F91089545
:104EE00080E0089590917B0592FF10C041E0282F4B
:104EF0002471243009F040E031E0282F2871283057
:104F000009F030E0431711F02CE0822793FF10C026
:104F100041E0282F2471243109F040E031E0282FAE
:104F20002871283109F030E0431711F02CE0822776
:104F300030917C0530FF10C051E0282F21712130C5
:104F400009F050E041E0282F2871283009F040E0B6
:104F5000541711F029E0822731FF10C041E0282FBB
:104F60002171213109F040E031E0282F28712831EA
:104F700009F030E0431711F029E0822794FD877E85
:104F800008958238910569F1B0F48133910509F4EF
:104F900075C048F48932910509F467C08A329105D9
:104FA00009F471C008958533910509F459C0893316
:104FB0009105B9F00895833E910589F138F4803E5A
:104FC0009105D1F0823E910529F10895863E910523
:104FD000C9F1873E9105D9F1843E910509F06CC075
:104FE00027C020917B0520FD57C021FD55C0209191
:104FF0007C0523FD5BC0089580917B0580FD48C042
:1050000080917C0580FF48C080917B0584FD46C06F
:1050100083EE51C080917B0582FF3CC0F5CF80912B
:105020007B0582FD37C080917C0580FD35C0ECCFCB
:1050300080917C0581FF36C080917B0584FD2EC068
:1050400087EE39C080917B0583FF2AC0F5CF809120
:105050007B0583FD25C080917C0581FD23C0ECCFBD
:1050600080917B0585FD22C01FC080917B0585FD59
:105070001BC080917C0583FF19C00AC080917B050D
:1050800086FD16C017C080917B0586FD13C010C039
:1050900089E311C082EE0FC080EE0DC080E00BC02E
:1050A00086EE09C084EE07C085E305C089E203C02F
:1050B0008AE201C081E390E00895F894E82FE29538
:1050C000EF70F0E031A1282F2F7081E090E001C057
:1050D000880F2A95EAF7982F9095932391A392A190
:1050E000892B82A3789408957530C8F46031B8F4A0
:1050F0008230B8F4E72FF0E095E0899FE00DF11DD4
:10510000112484E0EE0FFF1F8A95E1F7E60FF11DF1
:10511000EE0FFF1FED55FA4F85919491089580E0B1
:1051200001C081E090E008951F93CF93DF930E9428
:10513000C127EC01C11580E5D807E8F5C11590E459
:10514000D90708F0A8C0C03ED10530F5CD3CD10547
:1051500008F094C0C83AD10578F4C53AD10508F0F2
:1051600083C0C130D10509F47CC008F4F2C0C4305A
:10517000D10508F0F1C0EDC0C33CD10508F0E9C08D
:10518000C85AD0E0CC0FDD1FCC5CDB4F0990D88132
:10519000C02DCE019464E1C0C11580E2D80708F0AB
:1051A000CBC0C11591E0D90708F06BC0C83ED1054E
:1051B00008F4D2C0CEC0C03682E5D80728F5C03486
:1051C00092E5D90708F079C0C03282E5D80708F027
:1051D0006CC0C11592E5D90708F481C04C2F4695E3
:1051E000469580E2489FA0011124C37021E030E081
:1051F000C90102C0880F991FCA95E2F7EA01C82BBE
:10520000D92BCE019D68A9C0C03A82E5D807B8F471
:105210008C2F8F71C03892E5D90708F07BC0869536
:10522000869590E2899F90011124C37081E090E0FF
:1052300002C0880F991FCA95E2F79A6868C0C03CFF
:1052400082E5D80708F46DC0C03E92E5D90708F0A2
:1052500080C0CF71DD27DC2FCC27CE01806F906A14
:105260007CC081E090E079C0C55AD0E0CF5CDB4FD4
:105270008881C82FD0E0CE0190646FC0CE019065C8
:105280006CC08D2F0E947227182FCE0199270E9483
:10529000C1271F715CC0CE0199270E94C127CC276E
:1052A000DF70D06A8C2B9D2B58C0CF71D0E0DC2FE3
:1052B000CC27CE01816F906A50C08C2F8F7186955C
:1052C000869590E2899F90011124C37081E090E05F
:1052D00002C0880F991FCA95E2F79C6818C08C2FEE
:1052E0008F710E94722795E0D695C7959A95E1F740
:1052F000CF70D0E0DC2FCC27282F30E084FF05C012
:1053000084E0220F331F8A95E1F7D069CE01822B0A
:10531000932B23C090E0D82FCC27CE01846F906AC6
:105320001CC08C2F8F710E9472278F7190E0D82F34
:10533000CC27CE01906211C08D2F8F710E947227F1
:10534000182FCE0199270E94C1271F719062912BBF
:1053500004C080E090E001C0CE01DF91CF911F91A9
:105360000895AB01BC018FE190E00E94893008955F
:10537000A8E0B0E0EEEBF9E20C94D22F65EE7EEF00
:1053800080E090E00E94953060E082E090E00E9432
:10539000773081E090E0909329068093280661E0C1
:1053A00083E090E00E94773060E074E184E090E078
:1053B0000E94953060E086E090E00E94773060E0E7
:1053C00087E090E00E94773040E050E0BA0188E04A
:1053D00090E00E94893060E083E290E00E947730A4
:1053E00060E08CE090E00E94773060E08DE090E03B
:1053F0000E94773019821A821B821C821D821E82B3
:105400001F82188648E050E067E170E0CE01019607
:105410000E94673040E050E0BA018FE190E00E94C6
:1054200089300E94661C40E050E0BA018FE090E0B5
:105430000E94893040E050E0BA0183E190E00E9490
:1054400089302896E2E00C94EE2F80959091270603
:10545000892380932706089580918F02813051F52A
:1054600080917B0587FF26C00E94E1238093EC0496
:1054700040E250E06FEF75E08BEE94E00E9446351D
:10548000892BD9F180E2EBEEF4E0AFEFB5E00190CB
:105490000D928A95E1F7E0917705F09178053097C4
:1054A00061F186E08093EB040480F581E02D8BEEC2
:1054B00094E022C00E94E1238093E30448E050E09E
:1054C0006FE176E083EE94E00E944635892BA9F0E7
:1054D00088E0E3EEF4E0AFE1B6E001900D928A954A
:1054E000E1F7E0917705F0917805309731F002808F
:1054F000F381E02D83EE94E009950895A6E0B0E0F5
:10550000E4E8FAE20C94D02F0E94521A8C018091A8
:105510002A0690912B060817190781F019821A8222
:105520000E94521A682F49815A81792F80E090E0B9
:105530000E94752D10932B0600932A062696E4E010
:105540000C94EC2FAAE0B0E0E8EAFAE20C94C62F43
:10555000AE014F5F5F4F7A018AE0FA0111928A959E
:10556000E9F703ED13E06A0198ED692E93E0792ED7
:1055700088248394912CF80180818F3F09F447C0DF
:10558000F894E82FE295EF70F0E021A18F70A4016C
:1055900002C0440F551F8A95E2F7CA01922F982B3B
:1055A00091A392A18095892382A3789400C0E8ED0D
:1055B000F3E021E030E0A12CB12C41914F3F89F084
:1055C000A42FA295AF70B0E090968C9190E04F70B0
:1055D00002C0959587954A95E2F780FD02C0C90102
:1055E00002C080E090E0A82AB92A220F331F53E0BE
:1055F000E83EF50711F7F80180818F3F11F00E9416
:105600005D28F0EAFA95F1F7F601B182A0820F5F0A
:105610001F4FF2E0CF0ED11C6016710609F0ABCF20
:105620004AE050E0B70180E794E00E944635892BBC
:1056300091F08AE0F701A0E7B4E001900D928A951D
:10564000E1F781E080932E060E94521A90932D0676
:1056500080932C060CC080912E06882341F0809107
:105660002C0690912D060E94371A059710F480E0C1
:1056700018C04AE050E060E774E08FE794E00E94D1
:105680004635892B59F08AE0E0E7F4E0AFE7B4E073
:1056900001900D928A95E1F781E001C080E01092BF
:1056A0002E062A96EEE00C94E22F662309F45CC0E5
:1056B0008D3C21F40E94381C819504C08E3C29F455
:1056C0000E94381C80936D05C5C08F3C21F40E9458
:1056D000381C819504C0803D29F40E94381C8093B9
:1056E0006C05B8C0893D19F40E94161C05C08A3D9E
:1056F00031F40E94161C819580936E05ABC08B3DE2
:1057000021F40E94161C819504C08C3D29F40E944E
:10571000161C80936F059EC09FE2980F983078F416
:1057200021E030E0A90102C0440F551F9A95E2F72D
:10573000CA0190916B05892B80936B058BC08D3DC1
:1057400021F48091650581600CC08E3D21F480912B
:105750006505826006C08F3D09F07CC080916505BB
:1057600084608093650576C08D3C39F490916D0519
:1057700097FF35C010926D0559C08E3C29F4909169
:105780006D051916BCF32BC090916C058F3C29F464
:1057900097FF25C010926C0549C0803D19F4191679
:1057A000CCF31DC090916E05893D29F41916BCF407
:1057B00010926E053BC08A3D19F497FF10C0F8CFD8
:1057C0008B3D39F490916F0597FF09C010926F05DA
:1057D0002DC08C3D21F490916F051916BCF39FE20A
:1057E000980F983080F421E030E0A90102C0440F06
:1057F000551F9A95E2F7CA01809590916B05892310
:1058000080936B0513C08D3D21F4809165058E7FDB
:105810000BC08E3D21F4809165058D7F05C08F3DC5
:1058200029F4809165058B7F8093650580916C05D7
:10583000811106C080916D05811102C0109263052F
:1058400080916E05811106C080916F05811102C0A3
:10585000109264050E94EC1B0895882309F456C039
:10586000823859F40E94361B81FF50C089E30E94A0
:10587000B51A0E942C2A89E30CC0833879F40E945F
:10588000361B80FF43C083E50E94B51A0E942C2A74
:1058900083E50E94871A0E942C2A0895843859F4BF
:1058A0000E94361B82FF32C087E40E94B51A0E9414
:1058B0002C2A87E4EECF9CEF980F913A50F390E2B8
:1058C000980F983050F4877091E001C0990F8A9535
:1058D000EAF7892F0E94252ADECF9BE5980F9330A7
:1058E00028F480E090E00E94111B089598E5980F3D
:1058F0009B3128F480E090E00E94EC1A089593E335
:10590000980F933118F460E00E94552B0895CF93BF
:10591000882309F4B1C0C82F8238A1F40E94361B35
:1059200081FDAAC089E30E94B51A0E942C2A2FEF9C
:1059300087EE93E0215080409040E1F700C00000E6
:1059400089E315C08338C1F40E94361B80FD94C0E2
:1059500083E50E94B51A0E942C2A2FEF81EE94E075
:10596000215080409040E1F700C0000083E50E9494
:10597000871A0E942C2A80C08438A1F40E94361B0A
:1059800082FD7AC087E40E94B51A0E942C2A2FEF6C
:1059900081EE94E0215080409040E1F700C000008B
:1059A00087E4E5CF8CEF8C0F813A98F580918F02D8
:1059B0008130E1F480917B0587FF18C0EC2FE695DC
:1059C000E695E695F0E0E551FB4F8281282F30E027
:1059D0004C2F477081E090E002C0880F991F4A95D4
:1059E000E2F782239323892B59F40FC0E5EEF4E00C
:1059F0008191C81729F024E0EB3EF207C9F705C0F2
:105A00008C2F0E94871A0E942C2A8C2F0E94B51A74
:105A1000B0CF80E28C0F883068F4C77081E090E0EE
:105A200001C0880FCA95EAF790912706892B8093C9
:105A300027069FCFEBE5EC0FE33040F4F0E0EF5C9E
:105A4000FB4F808190E00E94111B16C0E8E5EC0F2F
:105A5000EB3150F4F0E0EE0FFF1FEC5CFB4F808168
:105A600091810E94EC1A08C083E38C0F833120F4EB
:105A700061E08C2F0E94552BCF910895809580FF77
:105A800002C08D9A01C08D9881FF02C08C9A01C01E
:105A90008C9882FF02C08E9A01C08E9881E0089592
:105AA000A6E0B0E0E6E5FDE20C94D12F49835A83ED
:105AB00049815A81992361F0222351F0CA010E9441
:105AC0006A24182F682F89819A810E94882604C031
:105AD000CA010E945526182F69817A81812F0E9460
