:10000000FFC3000035C4000033C4000031C4000049
:100010002FC400002DC400002BC4000029C4000020
:1000200027C4000025C4000023C400000C94A82BA2
:100030000C94522C0C94BA261BC4000019C4000066
:1000400017C4000015C4000013C400000C9433272B
:100050000FC400000DC400000BC4000009C4000060
:1000600007C4000005C4000003C4000001C4000070
:10007000FFC300002F072F0756075607AC07CA0714
:1000800091089108CE072E083B083B0870137213A5
:1000900076137A137E13821386138A138E139313A7
:1000A00097138B1A8D1A901A921A8E1A941A961AFE
:1000B000981A021E741E0A1ED41DD81D0E1EDB1DAA
:1000C000111E1C1EE61D6A1EEA1D201EEE1D241EAA
:1000D0004E1EF21D281E581EF81D2E1E381EDF1D36
:1000E000151EE21D181EFD1D331E441E641E661ED5
:1000F000D01D061E7D1EAE22B422A222A822BA2244
:10010000C022C6221C241F24542465246D24782474
:100110007B247B247B24C224C2247F248224872442
:100120009424A124A424A824B524B62CDD2CCE2DFF
:10013000DD2CCE2D282D4A2DCE2D9E2DAD2D2E0021
:100140001E002100220035002300260027000000A9
:100150001F0020002F003000240025002D002B0060
:1001600014001500170061001C00120013000000AD
:100170001A0008005F00600018000C002A00292106
:10018000040009000A005E000B000F0033000000AD
:10019000160007005C005D000D000E003400E10059
:1001A0001D00190005005B00110037003800000039
:1001B0001B00060059005A001000360028004600B7
:1001C000E300E2002C00C1522C00E600E700000032
:1001D00000000000000000000000000039003500B1
:1001E0003A003D003E00410042004500680000002A
:1001F0003B003C003F004000430044004C00010035
:1002000001000100010001000100460001000000A2
:100210006500010001000100010001000100010072
:10022000010001000100010001000100007C00004C
:1002300001000100010001000100010001000100B6
:100240000100010001000100A800310001000000D0
:100250000100010001000100AA00A9000100007CCA
:10026000007C01000100010001000100010000000C
:10027000000000000000000000000000010001007C
:100280000100247825780100010001000100000030
:10029000207823782678010001000100460035000F
:1002A0001E0021002200010023002600270000007C
:1002B0001F0020000100010024002500010035027C
:1002C0001E02210222020100230226022702000050
:1002D0001F02200201000100240225022A00010061
:1002E0000100010001000100A80031000100000030
:1002F0000100010001000100AA00A9000100007C2A
:10030000007C01000100010001000100010000006B
:1003100000000000000000000000000001000100DB
:10032000010024782578010001000100010000008F
:10033000207823782678010001000100460035006E
:100340001E002100220001002300260027000000DB
:100350001F002000010001002400250001003502DB
:100360001E022102220201002302260227020000AF
:100370001F02200201000100240225022A000100C0
:100380000100010001000100A8003100010000008F
:100390000100010001000100AA00A9000100007C89
:1003A000007C0100010001000100010001000000CB
:1003B00000000000000000000000000001001E0F0F
:1003C0000500047F3F1F643214643214783C1E1E03
:1003D000140A052223252628292A2C2D2F303233D2
:1003E0003536383A3B3D3E4042434547494A4C4EFC
:1003F0005051535557595A5C5E6062646668696B28
:100400006D6F71737577797B7D7F81838587898A2D
:100410008C8E90929496989A9C9E9FA1A3A5A7A833
:10042000AAACAEAFB1B3B4B6B8B9BBBCBEBFC1C263
:10043000C3C5C6C7C9CACBCCCDCED0D1D2D2D3D4F6
:10044000D5D6D7D7D8D9D9DADADBDBDBDCDCDCDC14
:10045000DCDDDDDDDDDCDCDCDCDCDBDBDBDADAD9E2
:10046000D9D8D7D7D6D5D4D3D2D2D1D0CECDCCCB64
:10047000CAC9C7C6C5C3C2C1BFBEBCBBB9B8B6B482
:10048000B3B1AFAEACAAA8A7A5A3A19F9E9C9A9812
:10049000969492908E8C8A89878583817F7D7B79E3
:1004A000777573716F6D6B6968666462605E5C5AC4
:1004B0005957555351504E4C4A4947454342403E87
:1004C0003D3B3A3836353332302F2D2C2A29282619
:1004D000252322FFAA7F55400001010101010101EE
:1004E00001010202020202020202020303030303E9
:1004F00003030304040404040404050505050506B8
:100500000606060607070707070808080809090975
:10051000090A0A0A0B0B0B0C0C0C0D0D0D0E0E0E1E
:100520000F0F0F10101111111212131314141515AF
:1005300016161717181819191A1A1B1B1C1D1D1E21
:100540001E1F202021222223242425262627282975
:10055000292A2B2C2D2D2E2F3031323233343536A3
:100560003738393A3B3C3D3E3F40414243444546A3
:100570004748494A4C4D4E4F50515354555658597F
:100580005A5B5D5E5F616264656668696B6C6D6F26
:100590007072737577787A7B7D7E80828385878899
:1005A0008A8C8E8F91939596989A9C9EA0A2A3A5D3
:1005B000A7A9ABADAFB1B3B5B7BABCBEC0C2C4C6D4
:1005C000C9CBCDCFD1D4D6D8DBDDDFE2E4E7E9EB90
:1005D000EEF0F3F5F8FAFDFF000000000000000067
:1005E0002A2B28000000000000000000000000008E
:1005F00000000029000000002C1E34202122243499
:100600002627252E362D3738271E1F20212223246A
:1006100025263333362E37381F0405060708090A06
:100620000B0C0D0E0F101112131415161718191AA2
:100630001B1C1D2F3130232D350405060708090A20
:100640000B0C0D0E0F101112131415161718191A82
:100650001B1C1D2F3130354C000000000000000035
:10066000000000000000000000000000000000008A
:100670000000000000000000000000007E0F00D419
:10068000FFFFFFC700000078180350006C006500F2
:1006900078007500730037003500200048004500E1
:1006A00000000A034E0061007300700000000403A4
:1006B000090409025B00030100A0FA09040000011B
:1006C00003010100092111010001224400070581F5
:1006D00003080001090401000203000000092111C0
:1006E0000100012222000705820320000107050303
:1006F0000320000109040200010300000009211188
:10070000010001227B000705840320000112010083
:100710000200000008707039530100010200010658
:1007200060FF0961A1010962150026FF009520758F
:100730000881020963150026FF00952075089102C3
:10074000C005010902A10185020901A100050919DD
:100750000129081500250195087501810205010987
:100760003009311581257F950275088106093815F4
:1007700081257F950175088106050C0A38021581CF
:10078000257F950175088106C0C005010980A1017A
:10079000850319012AB700150126B70095017510C8
:1007A0008100C0050C0901A101850419012AA002DC
:1007B000150126A002950175108100C005010906EA
:1007C000A101050719E029E7150025019508750124
:1007D00081029501750881010507190029FF15009F
:1007E00026FF0095067508810005081901290515E1
:1007F000002501950575019102950175039101C0D0
:1008000011241FBECFEFD4E0DEBFCDBF04B603FE80
:1008100018C080919A0390919B03A0919C03B09182
:100820009D038730904BA740B04B59F410929A0328
:1008300010929B0310929C0310929D03E0E0F8E35A
:10084000099511E0A0E0B1E0E2EEFFE502C00590FD
:100850000D92AA3FB107D9F723E0AAEFB1E001C09A
:100860001D92AA39B207E1F70E9443130C94EF2FAF
:10087000C7CB262F8430D0F46A30C0F44830B0F4AF
:1008800090E06AE070E00E94032E820F911DFC014F
:1008900083E0EE0FFF1F8A95E1F7E40FF11DEE0FE5
:1008A000FF1FE25CFE4F85919491089581E090E0F6
:1008B000089581E0089581E00895FDCF0895FBCF6C
:1008C0000895FDCF0895F7CF0895F5CF08950895C1
:1008D000FECF0895FCCF08950895FECF0895A6E0B9
:1008E000B0E0E5E7F4E00C94AB2E49835A839E8395
:1008F0003091010289819A81311112C03E813323E6
:1009000049F0222339F078D5182F682F89819A81F0
:100910004DD502C05ED5182F69817A81812F03C021
:100920006BD569817A810E9450102696E3E00C9481
:10093000C72EFC01262F4081518162817381848101
:100940009581CDCFCF93DF93EC0161E0F2DFBE0163
:10095000BADF882331F061E0CE01EBDFBE01B1DF09
:1009600002C080E090E08170DF91CF9108950F93F5
:100970001F93CF93DF93EC0160E0DBDF8C01BE01BE
:10098000A7DFBE01C801A6DFDF91CF911F910F91B4
:10099000089591E001C0990F8A95EAF7892F6AC4FA
:1009A000CF93C82F81E00C2E01C0880F0A94EAF77C
:1009B0000E944E0E8C2FEDDFCF91089581E00895B7
:1009C000FDCF0895FBCF0895CF93C82F07D48C2F68
:1009D000F7DF8C2FF7DF2FEF84E39CE0215080407E
:1009E0009040E1F700C00000CF91089581E0ECDF76
:1009F0000C94592780E0E8DF0C947D270F931F9318
:100A0000CF93DF938C0161E094DFEC01F8018581E5
:100A100081110E941B1AB801CE014FDF882309F40F
:100A200061C0B801CE0151DF882309F45BC0B80171
:100A3000CE010E946A23882309F454C0B801CE0174
:100A40000E949622882309F44DC0B801CE010E946D
:100A5000AE1D882309F446C0B801CE010E94841D52
:100A6000882309F43FC0B801CE010E945B1388239C
:100A7000C9F1B801CE010E94D822882399F1B801AA
:100A8000CE010E944A11882369F1F80185818823EB
:100A900031F1C330FCE7DF07C9F040F4C115ECE7E2
:100AA000DE0791F0C130DC4799F019C0CB358CE7F7
:100AB000D80799F0CC35ECE7DE0761F0CA35DC47A2
:100AC00071F40E94130E0BC091DF0CC00E94430E04
:100AD00091DF08C00E940B0E02C00E94150EC801D3
:100AE000E8DE01C080E0DF91CF911F910F91089562
:100AF000F4DE0E94962617C018D0EEDE0C949C26D9
:100B000081E008950895CF93DF93D82FF9DFC82FA0
:100B1000882311F08D2FF6DF8C2FDF91CF91089570
:100B20000895F1CF089580E0FCCF0E941C25F9CFF5
:100B3000CF930E941C25C82F8091FC01C81771F02B
:100B4000C093FC010E9427276093FD017093FE0172
:100B50008093FF01909300028C2FE3DFCF910895E3
:100B6000ADE0B0E0E6EBF5E00C94AC2E4887598799
:100B70006A877B878C879D879111A1D7CE010196CB
:100B800027E0FC0111922A95E9F726E0FE0138964C
:100B9000DC0101900D922A95E1F72D81211109C008
:100BA00029813A814B815C816D817E818F81CED696
:100BB00003C0C8DE8111F4CF2D96E2E00C94C82E5C
:100BC000FC012481213019F48081918141C4089570
:100BD000662319F00E94241F02C00E94771F0C9404
:100BE000EE1FCF93882309F481C0C82F823899F46F
:100BF0000E942B2581FD7AC089E30E94F125BBD795
:100C00002FEF87EE93E0215080409040E1F700C045
:100C1000000089E314C08338B1F40E942B2580FDC5
:100C200065C083E50E94F125A6D72FEF81EE94E001
:100C3000215080409040E1F700C0000083E50E9411
:100C4000F72599D753C0843899F40E942B2582FD4B
:100C50004DC087E40E94F1258ED72FEF81EE94E0FE
:100C6000215080409040E1F700C0000087E4E7CFCA
:100C70008CEF8C0F813A68F48C2F0E94B625882364
:100C800021F08C2F0E94F72576D78C2F0E94F1251A
:100C9000D8CF80E28C0F883040F4C77081E001C06B
:100CA000880FCA95EAF7EED6CCCFEBE5EC0FE33030
:100CB00040F4F0E0E659FE4F808190E00E944C2520
:100CC00015C0E8E5EC0FEB3150F4F0E0EE0FFF1F3C
:100CD000EC5CFE4F808191810E94732507C083E305
:100CE0008C0F833118F461E08C2F72DFCF9108955F
:100CF000882309F44DC0823851F40E942B2581FFCE
:100D000047C089E30E94F12536D789E30BC08338B9
:100D100061F40E942B2580FF3BC083E50E94F125F2
:100D20002AD783E50E94F72526C7843851F40E940C
:100D30002B2582FF2DC087E40E94F1251CD787E474
:100D4000F1CF9CEF980F913A68F390E2980F9830AA
:100D500048F4877091E001C0990F8A95EAF7892FCE
:100D600097D6E2CF9BE5980F933020F480E090E097
:100D70000C944C2598E5980F9B3120F480E090E08E
:100D80000C94732593E3980F933110F460E020CF17
:100D900008951F93CF93DF93182FEB0122DF209745
:100DA00041F08FE99FE00197F1F700C00000219723
:100DB000F6CF812F9DDFDF91CF911F910895893369
:100DC00019F060E070E002C060E570E0E2CF8823D7
:100DD00011F058D6D0C60895882311F059D6CBC645
:100DE0000895A0E0B0E0E7EFF6E00C94A62E7C01B9
:100DF000062FC72FFC01D581168112951F7038D69A
:100E00008823E9F0DD23D9F08C2F807F803461F0D6
:100E100080E2800F883098F08C2F807E803221F421
:100E2000023068F0112359F08091160382FF07C049
:100E300082E0CBD61DD691E0D82ED92601C0D12C88
:100E4000CC2EC2948FE0C8228C2D90E08C3091057E
:100E500008F067C1FC01E65CFF4F0C948F2E8C2FCD
:100E6000807FCF70882311F0C295C07FDD2381F091
:100E7000CC2309F444C180E2800F883010F00111C6
:100E800003C08C2FFFD502C08C2F0CD674D637C16F
:100E9000802F2EDFCC2309F444C180E2800F8830FC
:100EA00018F1002309F18C2F03D620C08C2F807FEE
:100EB000CF70803211F0C295C07F002319F001304D
:100EC00051F133C08091160382FD12C0DD2339F049
:100ED000CC2319F08C2FD6D54ED680E011C180E0FE
:100EE00007DFCC2309F41DC18C2FD2D544D619C1FC
:100EF000DD2341F01123E9F0113009F012C18C2FEC
:100F0000E6D50FC111110DC18C2F66DF8C2FEAD5EC
:100F10008C2F37D606C1DD2321F0163008F001C131
:100F200008C0153008F0FDC014C0DD2329F01111F0
:100F3000E6C08C2F4CDFF5C0112359F0093309F0BE
:100F4000EEC0FFEF27EE83E0F15020408040E1F754
:100F5000E4C08C2F41DFE5C08C2F86958695837089
:100F600019F0813061F0DDC0DD2321F0802F9C2F4E
:100F7000937002C080E090E00E944C25DAC0DD232F
:100F800021F0802F9C2F937002C080E090E00E949F
:100F90007325CFC06D2F802F1BDECBC08C2F8370AD
:100FA00059F5D111C2C0402F429546954770440F64
:100FB000440F202F2F70042E01C0220F0A94EAF74D
:100FC00004FF08C08FE090E001C0880F4A95EAF75F
:100FD000809501C080E0C695C695C370822BC23053
:100FE00039F040F4C13011F04BD19FC045D19DC0C4
:100FF0004BD19BC03FD199C0DD2319F08C2F81705C
:1010000001C08695882309F490C0402F42954695EB
:101010004770440F440F202F2F70042E01C0220F61
:101020000A94EAF704FF08C08FE090E001C0880F3F
:101030004A95EAF7809501C080E0C695C695C370D1
:10104000822BC23039F040F4C13011F052D16DC062
:101050004CD16BC052D169C01BD167C0CF70DD23AA
:1010600029F08C2F23D1802FB2DE5FC0802FB4DE19
:101070008C2F26D15AC0023F11F128F4003F41F0D5
:10108000013FB9F038C0033F01F1043F71F033C0B4
:10109000DD2339F0153008F044C08C2F8F711BD13F
:1010A00040C0163008F03DC0F8CF8091160382FD95
:1010B00014C0DD2331F08C2F8F71F8D032C0DD23C6
:1010C000D1F38C2F8F71FCD02CC0DD2321F08C2F1D
:1010D0008F71E5D026C0E1D024C0DD2329F063E084
:1010E0008C2F8F715BD51DC081E06FD51230C8F099
:1010F00082E06BD516C0DD2329F01123E1F2802FA9
:1011000070DD0FC01123E9F2093349F49FEFE7EED8
:10111000F3E09150E040F040E1F700C00000802F84
:10112000E7DD88EF8C0D843020F40E941C25F9DC6B
:101130000DC0DD2059F098D480FD08C0F70115825C
:101140008DD4B4D0C7011BD089D4BAD0CDB7DEB707
:10115000E8E00C94C22E0F931F93CF93DF93EC0122
:10116000688179818D817DD18C01CBD072D0B8011D
:10117000CE0137DEDF91CF911F910F910895CF936C
:10118000DF93FC0124812223A9F0EC0137DC8111DB
:101190000DC06ED4882371F08D81882359F0809121
:1011A000160382FF07C082E010D504C0CE01D3DF52
:1011B000CE01DDDBDF91CF91089580E090E00E94C9
:1011C0004C2580E090E00E94732579D4D4D40E940D
:1011D0000A200C94EE1F0E94FD25EFCF60D4FBCFB8
:1011E00092959F70963079F010F4925001C09A5009
:1011F000923068F4803F69F018F4883E40F409C0EA
:10120000843F29F406C0883E20F0813F11F080E041
:10121000089581E00895FC012481222321F080813A
:10122000918116D1DDCF80E00895A6E0B0E0EBE13A
:10123000F9E00C94AC2E2696E2E00C94C82EA7E0C0
:10124000B0E0E5E2F9E00C94AC2E2796E2E00C94D5
:10125000C82E08950895FECF0895FDCF0895FACFC2
:101260000895F8CF0895FDCF0895F9DFFCDF80934E
:1012700021020895FACF089590912102892BF5CF8C
:10128000909121028923F1CF909121028927EDCFFE
:10129000E1DFE3DF80932002089580E0F9CF91E061
:1012A00001C0990F8A95EAF7892FF2CF21E030E04B
:1012B00001C0220F8A95EAF780912002822BE8CFA5
:1012C00021E030E001C0220F8A95EAF72095809155
:1012D00020028223DDCF21E030E001C0220F8A9579
:1012E000EAF7809120028227D3CF90912002892BA8
:1012F000CFCF909120028923CBCF909120028927D4
:10130000C7CF0895282FFA01862F8770A1E001C06A
:10131000AA0F8A95EAF7CB0133E0969587953A951F
:10132000E1F763E070E00E94032EE80FF91F40E050
:1013300050E0622F70E090819B01042E02C0369530
:1013400027950A94E2F72170219529272A23292736
:1013500021934F5F5F4F4330510569F70895FB01BB
:10136000A82FA77023E0969587952A95E1F763E06B
:1013700070E00E94032EE80FF91F40E050E080E08B
:10138000219130E00A2E02C0369527950A94E2F7A3
:1013900021703327042E01C0220F0A94EAF7822B12
:1013A0004F5F5F4F4330510559F70895282F9A300A
:1013B00078F4883068F4862F692F70E093E0660F28
:1013C000771F9A95E1F7620F711D42E052E09ACFC4
:1013D00008959A3078F4883068F4282F892F90E0A7
:1013E00033E0880F991F3A95E1F762E072E0820FCF
:1013F000911DB5CF80E00895CF92DF92FF920F93B9
:101400001F93CF93DF936C01009120028091210202
:10141000082BC3E0D0E010E0C8010C2E02C0959567
:1014200087950A94E2F780FD04C02197A8F7F12C74
:1014300006C0FC2EB6018C2F3ED60197B1F38F2D3E
:10144000DF91CF911F910F91FF90DF90CF90089582
:10145000CF93DF93EC01D0DFBE012DD6DF91CF918A
:1014600008951F93CF93DF93EB019091010299238D
:1014700019F0CB01EDDF0FC0882339F0CB01BCDFC1
:10148000182F682FCE0192DF03C0CB01A2DF182FE7
:10149000BE01812F10D6DF91CF911F910895E1E019
:1014A000F0E0DF0102C0AA0FBB1F6A95E2F7BD01A1
:1014B000DF0102C0AA0FBB1F4A95E2F7AD01462B20
:1014C00001C0EE0F2A95EAF7942F9823491302C022
:1014D0008E2B0895E0958E230895242F462F682F94
:1014E00080912002DCDFD4CECF93DF93C091220223
:1014F00080912302C817A1F0D0E0CE0167E070E030
:101500000E94032EFC01EC5DFD4F20813181428160
:10151000538164817581868192DE2196C770E8CF00
:10152000DF91CF91089520915C0230915D0240914E
:101530005E0250915F026091600270916102809141
:1015400062027DCECF93DF938091620282958F708D
:1015500009F04AC080916102882309F445C02091B6
:10156000220240912302A0915D02B0915C02C091E1
:101570005E02D0915F022417B9F130E0C90167E043
:1015800070E00E94032EFC01EC5DFD4F84818823F6
:1015900039F181818A1324C080818B1321C0858118
:1015A00081111EC0828193818C1B9D0B883C91050B
:1015B000B8F4809162028F70806180936202C901E9
:1015C00067E070E00E94032EFC01E65DFD4F908114
:1015D0009F70906190838CE592E0D1DD85DF04C03F
:1015E0002F5F3F4F2770C7CFDF91CF910895CF93E3
:1015F000B82FC62F20912202A09123022A17B1F002
:1016000030E0C90167E070E00E94032EFC01EC5D50
:10161000FD4F81818C1306C080818B1303C08581AF
:10162000841306C02F5F3F4F2770E8CF80E001C0D2
:1016300081E0CF910895A4E1B0E0E1E2FBE00C94F9
:10164000A22E8C0186E0F801DE011F9601900D921A
:101650008A95E1F7F8018481E5809CE5A92E92E066
:10166000B92E90916002911115C0882309F467C1C9
:10167000EE20B9F1C801CFDDF82E882391F187E083
:10168000F801D50101900D928A95E1F7C50198DA2C
:1016900059DF51C1F801C080D18082809380F090E1
:1016A000610220915E0230915F02A401421B530B44
:1016B000FF2009F4E8C0483C510508F096C0882393
:1016C00009F43FC180916202282F207F90915D0232
:1016D000222351F09D1509F45AC0C8019CDD8111E7
:1016E0005EC0C8014CDD2BC19D1113C090915C02FE
:1016F0009C110FC0E1100DC08F7080618093620259
:1017000012DF8CE592E03BDD80916202F801868376
:1017100014C1E11036C040E06D2D8C2D68DF40E033
:101720006D2D8C2D64DFE82E811107C1CF86D88AFC
:101730008F8598898DDE292F22952F70243020F4F3
:101740009F70223028F009C02A50223080F014C047
:10175000992349F0811107C012C0992321F0F801A3
:101760009681907F61F0805E883030F408C0803FC1
:1017700030F0815F833018F0C80101DDEF2CFE2CC2
:10178000E0C080916202816080936202D6C0909135
:101790005C029C11A2CFE110A0CFF8019FC0EE2007
:1017A00009F49FCF20916202822F82958F7090E082
:1017B000029784F080915C0290915D0299878887FE
:1017C0009B868A86809160028C871D862E87CE013B
:1017D0000896D5DC87E0F801ACE5B2E001900D9207
:1017E0008A95E1F7AFDE9FDEAAC090916202292FB1
:1017F000207F89F4682D9A8A898AA6017A899E2D8C
:1018000014DD8CE592E0BBDC87E0F50111928A954E
:10181000E9F789DE92C0882309F493C080915D02C4
:101820008D1110C080915C028C110CC0E1100AC0B7
:10183000F8019683C801A3DC87E0F50111928A952F
:10184000E9F77FC0C801E7DC882309F44ACFEE201E
:1018500009F447CF20916202822F82958F7090E029
:1018600002970CF4B7CF80915C0290915D029A834D
:1018700089839C828B82809160028D831E822F835C
:10188000CE010196A6CF483C510508F048C08823F8
:1018900009F455C0FE2CEE2009F423CF80915D029F
:1018A0008D1131C080915C028C112DC0909162022B
:1018B00090FD20C0892F82958F70282F30E0211550
:1018C0003105C1F0F80196832F30310541F08F5F6B
:1018D000982F9295907F86818F70892B8683C8017F
:1018E0004EDC87E0F801ACE5B2E001900D928A95FC
:1018F000E1F721C087E0F801ACE5B2E001900D927C
:101900008A95E1F71EC0C80186DC811163CF809102
:101910006202816080936202C80131DC12C0682DCE
:101920009A8A898AA6017A899E2D7FDC87E0F50153
:1019300011928A95E9F7F7DD04C0F12C02C0FF246B
:10194000F3948F2D6496ECE00C94BE2EAEE0B0E0E4
:10195000ECEAFCE00C94AC2E288739874A875B8739
:101960006C877D878E87CE01089665DE882361F0BF
:101970006C85662309F45BC0288539854A855B85BB
:101980007D858E855CDC53C087E0FE013896DE01E4
:10199000119601900D928A95E1F76C85662309F402
:1019A00046C08091230290E09C012F5F3F4F27703B
:1019B00033274091220250E02417350709F43EC036
:1019C0006D8367E070E00E94032EDC01AC5DBD4FCB
:1019D00097E0FE01319601900D929A95E1F72093E0
:1019E000230282DD24C090E067E070E00E94032EB5
:1019F0008C5D9D4F20DE882369F18091220290E06A
:101A000067E070E00E94032EFC01EC5DFD4F208139
:101A100031814281538164817581868110DC80919E
:101A2000220290E00196877099278093220280918C
:101A30002202909123028913D6CF0CC0CFDB1092E3
:101A4000230210922202ECE5F2E087E0DF011D9212
:101A50008A95E9F72E96E2E00C94C82E80916B02ED
:101A6000869586958695089580916B028770089576
:101A700090916B02977081E009F480E00895809165
:101A80007702089590917702892B809377020895C9
:101A90008095909177028923809377020895109220
:101AA0007702089590917602892B809376020895AB
:101AB0008095909176028923809376020895109202
:101AC000760208950895FECF0895FDCF0895909170
:101AD0006D02292F2823821721F0982B90936D02F5
:101AE000F4CF089590916D02292F282329F0809535
:101AF000892380936D02E9CF089580916D02882338
:101B000021F010926D0280E0E0CF08950F931F93B3
:101B1000CF93DF930091040110910501C0917702EA
:101B200080917602C82B80916D02882329F0C82B02
:101B30000E94A7258111E1DFF801C083C091040153
:101B4000D091050148E050E063E672E0CE010E94CA
:101B50006E2F892B59F088E0FE01A3E6B2E00190D8
:101B60000D928A95E1F7CE010E942D25DF91CF914C
:101B70001F910F910895CACF0895A4CF0895FDCF66
:101B8000089590916C02292F282329F080958923AC
:101B900080936C02F4CF089595CF08959091160329
:101BA00092FF0EC0982F990F990F990F692B609390
:101BB0006B027CDB80916B02869586958695ECCFD7
:101BC00075CB10926B0280E0E7CF90916B0280950D
:101BD000892380936B02282F277059F4981749F0B6
:101BE0009091160392FF05C086958695869568DBD1
:101BF000E8CF08959091160392FB222720F9281729
:101C000049F080FB92F99093160385E193E04AD066
:101C100082E0DBCF08958091160382FB882780F94C
:101C200091E08927E7CF81E0E5CF80E0E3CF60E076
:101C300070E0CB01EEC360E070E0CB01E4D3F7CFFE
:101C4000A3E0B0E0E6E2FEE00C94AC2E36D341D344
:101C50001B82CE01039654D381E0809321025AD394
:101C60001A8219828A81846080618A83CE010196FA
:101C700062D327D60E945323DEDF2396E2E00C9442
:101C8000C82EDECF08952BC3089518D381110C946C
:101C9000192308952AC3089539C308953BC30895AD
:101CA0003EC3089548C308954DC308958CC3089555
:101CB000B6C30895A6E0B0E0E0E6FEE00C94AA2EDC
:101CC0000E941B278C01809178029091790208175D
:101CD000190781F019821A820E941B27682F4981F7
:101CE0005A81792F80E090E00E94B005109379022C
:101CF000009378022696E4E00C94C62E0E942727D3
:101D0000609388027093890280938A0290938B0279
:101D10006093840270938502809386029093870279
:101D2000089581E0089581E00895FDCF0895089514
:101D3000FECF0895FCCF0895FACF0895F8CF089507
:101D4000FDCF0895F9DFFCCFF2CF0895F0CF0895CD
:101D5000FDCF0895F9DFFCCFEACF089588E491E143
:101D6000A5D4FADFF7CFE6DFE3DFE1CF8EDF811125
:101D700001C087DF8CE892E08DDF85E193E090DFA2
:101D80000E94FE1A89DF76DA8091200266CA0E94DC
:101D900012270E945F23F0D3E9DF0E9490050E9482
:101DA0003C19D0CFA6E0B0E0E8EDFEE00C94A32E05
:101DB000B8DF811102C07EDF4DC0F0D38AE7E82E84
:101DC00082E0F82E670100E0F60111916F01802F8B
:101DD0002BD381270F5F0A3019F08823A9F302C0A3
:101DE000882349F380918C0281FD24D39EDFA82EA5
:101DF00010E099249394812F17D3B82EF701C08057
:101E0000C82609F100E0DD24D3948C2D8D21A9F0A2
:101E1000AA2099F009831A830E941B279C838B8335
:101E20009D8291E08B2D8D2109F490E049815A81AA
:101E30006B817C818D810E94B0050F5FDD0C0830C5
:101E400021F7F701B0821F5FFFEFEF1AFF0A1A3088
:101E500091F654DF0E941C1A0E942C200E949805C3
:101E60002696EBE00C94BF2E1F93CF93DF9325D1E2
:101E7000EC01C11580E5D807E8F5C11590E4D90754
:101E800008F0AAC0C03ED10530F5CD3CD10508F020
:101E900098C0C83AD10578F4C53AD10508F087C092
:101EA000C130D10509F480C008F4F2C0C430D105B6
:101EB00008F0F1C0EDC0C33CD10508F0E9C0C85A34
:101EC000D0E0CC0FDD1FC359DE4F0990D881C02D63
:101ED000CE019464E1C0C11580E2D80708F0CDC0FE
:101EE000C11591E0D90708F06FC0C83ED10508F4CC
:101EF000D2C0CEC0C03682E5D80738F5C03492E5EE
:101F0000D90708F07AC0C03282E5D80708F06DC062
:101F1000C11592E5D90708F485C04C2F4695469522
:101F200050E0F5E0440F551FFA95E1F7C37021E04A
:101F300030E0C90102C0880F991FCA95E2F7EA0193
:101F4000C82BD92BCE019D68A7C0C03A82E5D8071F
:101F5000C8F48C2F8F71C03892E5D90708F07CC087
:101F60008695869590E065E0880F991F6A95E1F760
:101F7000C37021E030E002C0220F331FCA95E2F7A0
:101F80003A6867C0C03C82E5D80708F46CC0C03E20
:101F900092E5D90708F07CC0CF71DD27DC2FCC2774
:101FA000CE01806F906A78C081E090E075C0C55A1C
:101FB000D0E0CD55DE4F8881C82FD0E0CE019064AF
:101FC0006BC0CE01906568C08D2F13D1182FCE0144
:101FD000992773D01F715AC0CE0199276ED0CC2794
:101FE000DF70D06A8C2B9D2B57C0CF71D0E0DC2FD7
:101FF000CC27CE01816F906A4FC08C2F8F71869550
:10200000869590E09C0175E0220F331F7A95E1F7E9
:10201000C37081E090E002C0880F991FCA95E2F773
:102020009C6817C08C2F8F71E4D095E0D695C7952A
:102030009A95E1F7CF70D0E0DC2FCC27282F30E045
:1020400084FF05C084E0220F331F8A95E1F7D06931
:10205000CE01822B932B20C090E0D82FCC27CE012D
:10206000846F906A19C08C2F8F71C3D08F7190E0EC
:10207000D82FCC27CE0190620FC08D2F8F71B9D091
:10208000182FCE01992719D01F719062912B04C08F
:1020900080E090E001C0CE01DF91CF911F910895C3
:1020A0007A3030F4683020F4462F672F0C94641B8C
:1020B00080E090E00895F4DFD7CE8238910569F191
:1020C000B0F48133910509F475C048F48932910563
:1020D00009F467C08A32910509F471C00895853307
:1020E000910509F459C089339105B9F00895833EEB
:1020F000910589F138F4803E9105D1F0823E910539
:1021000029F10895863E9105C9F1873E9105D9F1DF
:10211000843E910509F06CC027C02091150320FD75
:1021200057C021FD55C02091160323FD5BC00895C3
:102130008091150380FD48C08091160380FF48C040
:102140008091150384FD46C083EE51C08091150334
:1021500082FF3CC0F5CF8091150382FD37C080918E
:10216000160380FD35C0ECCF8091160381FF36C089
:102170008091150384FD2EC087EE39C08091150330
:1021800083FF2AC0F5CF8091150383FD25C0809180
:10219000160381FD23C0ECCF8091150385FD22C07D
:1021A0001FC08091150385FD1BC08091160383FF1E
:1021B00019C00AC08091150386FD16C017C0809112
:1021C000150386FD13C010C089E311C082EE0FC055
:1021D00080EE0DC080E00BC086EE09C084EE07C023
:1021E00085E305C089E203C08AE201C081E390E093
:1021F00008959091150392FF10C041E0282F24719B
:10220000243009F040E031E0282F2871283009F00F
:1022100030E0431711F02CE0822793FF10C041E01B
:10222000282F2471243109F040E031E0282F287153
:10223000283109F030E0431711F02CE0822730916B
:10224000160330FF10C051E0282F2171213009F012
:1022500050E041E0282F2871283009F040E0541761
:1022600011F029E0822731FF10C041E0282F2171B1
:10227000213109F040E031E0282F2871283109F0A0
:1022800030E0431711F029E0822794FD877E0895FE
:1022900080E00895CF939C01205E324520323105C5
:1022A00040F4FB01C581C11105C08F710E94D004AB
:1022B00001C0C1E08C2FCF910895089580E090E097
:1022C0000E94912F21E0833E9E4F09F020E0822F53
:1022D000089563EE7EEF80E090E00C94BF2F6FEFE7
:1022E0007FEF80E090E00C94BF2FCF93DF93EC0161
:1022F00082E090E00E94842F8883DF91CF9108953F
:10230000FC01608182E090E00C94A52F83E090E0D6
:102310000C94842F682F83E090E00C94A52FCF932A
:10232000DF93EC0184E090E00E94912F99838883F1
:10233000DF91CF910895FC016081718184E090E08C
:102340000C94BF2F4F925F926F927F928F929F92C9
:10235000AF92BF920F93CF93DF93EC0188E090E0B0
:102360000E948C2F2B013C01688359826A827B82F8
:102370001C821D821E821F8283E290E00E94842FB5
:10238000282F30E040E050E060E070E080E090E036
:1023900000E20E94D32E2429352946295729288373
:1023A00039834A835B836C837D838E839F83DF9134
:1023B000CF910F91BF90AF909F908F907F906F9033
:1023C0005F904F9008950F93CF93DF93EC01488176
:1023D00059816A817B8188E090E00E94B72F288133
:1023E00039814A815B816C817D818E819F8100E290
:1023F0000E94EE2E622F83E290E00E94A52FDF91D3
:10240000CF910F910895AB01BC018FE090E00C9447
:10241000B72FAB01BC0183E190E00C94B72F682F7C
:102420008EE090E00C94A52FE82FF0E0EF5DFC4FDC
:1024300080810895089580EA8A95F1F7089500C093
:102440000895F9CF08950895FECF0895FDCF08951A
:10245000FACF0895FDCF0895F894E82FE295EF7034
:10246000F0E031A1282F2F7081E090E001C0880FAB
:102470002A95EAF7982F9095932391A392A1892BFF
:1024800082A3789408950F931F93CF93DF93CEEA9E
:10249000D1E089918F3F09F0DFDF81E0C83BD807A9
:1024A000C1F7C6EAD1E00EEA11E089918F3F09F049
:1024B000D3DF0C171D07C9F7DF91CF911F910F9143
:1024C0000895A0E0B0E0E7E6F2E10C94A62E8C01BE
:1024D000C62FD0E0CE0182559E4F7C01FC01908139
:1024E0009F3F09F444C0D62EF894E92FE295EF708F
:1024F000F0E081A19F7021E030E001C0220F9A95A9
:10250000EAF7822B81A382A12095282322A3789425
:1025100096DFE6EAF1E04EEA51E031E0C12C21918C
:102520002F3F89F0A22FA295AF70B0E090968C91CA
:1025300090E02F7002C0959587952A95E2F780FD6F
:1025400002C0832F01C080E0C82A330F4E175F07F7
:1025500031F7F70180818F3F09F07EDF61E0C11024
:1025600001C060E08D2D6DDFC00FD11FC882CDB7D7
:10257000DEB7E8E00C94C22E86DF8AE0E1E2F3E009
:10258000DF01982F1D929A95E9F7E7E1F3E0DF016B
:102590001D928A95E9F78AE039D05CCFAAE0B0E0D5
:1025A000E4EDF2E10C94A92E8E010F5F1F4F8AE03B
:1025B000F80111928A95E9F7F12C6F2DC80181DF9E
:1025C000F394FAE0FF12F9CF4AE050E0B80187E156
:1025D00093E00E946E2F21E0009709F420E0892B00
:1025E00041F08AE0F801A7E1B3E001900D928A95ED
:1025F000E1F74AE061E273E087E193E008D0182F49
:1026000025DF812F2A96E5E00C94C52E0895EF92E0
:10261000FF920F931F93CF93DF937C018B01C42F05
:10262000222351F081E080938F020E941B27909318
:102630008E0280938D0204C080918F02811102C0AE
:1026400080E01AC080918D0290918E020E94B02687
:102650000597B0F3D0E0AE01B701C8010E946E2F1C
:10266000892B39F0AE01B701C8010E947B2F81E0B0
:1026700001C080E010928F02CDB7DEB7E6E00C9487
:10268000C42E90CB08950E94B9260E94DC2866DBF8
:102690000E94F4287CDB0E94FD280E940029F1DFC3
:1026A0000E9416290E94D2275EDBF7CF9093FB0190
:1026B0008093FA0108950F931F93CF93FB01C58177
:1026C000CC2309F438C08C01DAD98272F801E052C7
:1026D000F847EB30F10580F5EA5BFF4F0C948F2E45
:1026E000C3D51FC0882321F0B3D51BC08823E1F3D5
:1026F000A3D517C0882321F047D213C08823E1F364
:1027000038D20FC0882321F059D20BC08823E1F3BF
:1027100048D207C0882321F06BD203C08823E1F39D
:102720005AD2C0E009C0882321F0FFD0FACF882315
:10273000E1F3ECD0F6CFC1E08C2FCF911F910F9138
:102740000895EF92FF920F931F93CF93DF93E82F9B
:1027500071110AC0442321F0F0E0E852FB4FE491EC
:102760006E2F7E2F8E2F6CC0C62FD0E0072F10E06B
:10277000282F30E0442329F0F901E852FB4F24913F
:1027800030E0CE0166E070E00E94032EEE24EA9471
:10279000F12CB7010E94462EDB01CC0FDD1FCB01CF
:1027A0006BEA7FEF0E94032E8C0F9D1FC82FCC0F6A
:1027B000C80FC701801B910BB9010E94032EE92F9E
:1027C000492FD0E0CE01B8010E94032E692F70E09E
:1027D000C701861B970BB9010E94032EF92FC70171
:1027E0008C1B9D0BB8010E94032E692F70E0C7015E
:1027F000861B970BB9010E94032EA230B10591F000
:1028000040F4109761F01197B9F4722F8E2FEF2FCB
:1028100016C0A430B10561F040F0169769F4842F1A
:10282000792F0CC0722F892F0AC0822F7F2F07C0EB
:10283000822F7E2FE92F03C08F2F742FE22F6E2F50
:10284000CDB7DEB7E6E00C94C42E41E07ACF089510
:10285000FCCF089590910901291B922FE091E50189
:10286000F091E601242F462F682F892F90E00995DB
:102870000895CF93DF93762FE901682F842FE8DF47
:10288000962F672F9E01482F892FE4DFDF91CF918C
:10289000089580912B03282F2695269530E0211549
:1028A000310519F48370846005C02B32310524F0A2
:1028B0008370886A80932B030895EBDF8BE293E0AB
:1028C000F5C9EBE2F3E085E0808311828FEF82832C
:1028D00083831482CF01EAC980912B0380FF03C058
:1028E00086958695089580E0089580912B038170E8
:1028F000089590912F03933018F49F5F90932F03C6
:10290000882319F08BE293E0D1C9089581E0F1CFDB
:1029100090912F03992319F0915090932F038823BE
:1029200019F08BE293E0C2C9089581E0F1CF809164
:102930002F03089580932F03089580912C03089509
:1029400080912D03089580912E0308950F931F9376
:10295000CF9380912B0380FF09C0E091E901F091B2
:10296000EA010995CF911F910F910895C0910B0134
:102970000091E5011091E60180910C01C81768F7FC
:10298000809109019C2F981B20E040E060E0892F96
:1029900090E0F8010995CF5FEFCFEF92FF920F9390
:1029A0001F93CF93DF9390912B0390FF1BC0042FB5
:1029B000162FD82FC0910B01E090E501F090E601B1
:1029C00080910C01C81768F4809109019C2F981B15
:1029D000202F412F6D2F892F90E0F7010995CF5FB0
:1029E000EFCFB4DFCDB7DEB7E6E00C94C42E909104
:1029F0002B0390FF09C0762F682F842F29DF962F95
:102A0000672F482F892FC9CF0895CF93DF93EC010B
:102A1000EC81F0E0ED52FC4F4491EBE2F3E0628197
:102A20008181E5DF8C818F5F8C83DF91CF91089569
:102A3000CF93DF93EC01EBE2F3E0438162818C8181
:102A4000D6DF8C818F5F8C83DF91CF910895CF93F8
:102A5000DF93EC0140912E039C8190FF02C0842FF4
:102A600001C080E091FF02C0642F01C060E092FFCE
:102A700040E093DF8C8190E00196877099278C83EA
:102A8000DF91CF910895A0E0B0E0E9E4F5E10C9486
:102A9000A62E182FF62E042FE22E90912B0390FFD6
:102AA0005AC0E92FE695E695AE2FB0E0A854BE4F88
:102AB0008C918093F3029C7F943051F4612F7F2D91
:102AC000842FC6DE962F672F482F892F66DF38C0E8
:102AD000823019F400912E0333C0863019F410911E
:102AE0002C032EC08930D9F3893151F5E9518E2F4D
:102AF0008170D82EE695F0E0ED52FB4FE491C12CA9
:102B0000CE2FD0E040910D01C416C8F42C2D30E03A
:102B1000C901BE010E94032E642F70E00E94462E60
:102B2000812FD11002C0860F01C0861B90910B012E
:102B3000290F311D402F6F2D9CDEC394E3CF06DF9C
:102B400010932C03F0922D0300932E03EE2019F026
:102B50008BE293E0ABD8CDB7DEB7E8E00C94C22EA1
:102B6000EBE2F3E09181282F438162818CE0890FB1
:102B70008ACF81E0F5CFEBE2F3E09181282F43810A
:102B8000628184EF890F7FCF81E0F5CFEBE2F3E044
:102B900062812CE0620F08F46FEF282F438181815E
:102BA00072CF81E0F3CFEBE2F3E062812CE0621BB5
:102BB00008F460E0282F4381818165CF81E0F3CF65
:102BC000EBE2F3E043812CE0420F08F44FEF282FB3
:102BD0006281818158CF81E0F3CFEBE2F3E0438162
:102BE0002CE0421B08F440E0282F628181814BCF0A
:102BF00081E0F3CF20E047CF90912B0390FF11C0ED
:102C0000223178F4922F242F462F682F80910901CA
:102C1000981BE091E501F091E601892F90E009957C
:102C200095CE0895EF92FF921F93CF93DF93EC011F
:102C300010E0EE24EA94F12C60910D011617B0F427
:102C400080910B01212F30E0280F311D70E0C7016A
:102C50000E945A2E812F0E94FA2D9C8140912E03B2
:102C600060912D03890F05DE1F5FE6CF6FDE9A812D
:102C70008C8190FF02C08F5F01C081508C83DF91F7
:102C8000CF911F91FF90EF900895A0E0B0E0EBE4AA
:102C9000F6E10C94A42EFC01828180FF02C0DFEFDC
:102CA00001C0D1E0C0E00091E5011091E60162E1D0
:102CB000A62E80910D01C81708F043C080910B012A
:102CC00090910901891B8C0F20E040E060E090E0CA
:102CD000F801099554E0E52EF12CB12CCC2ED12C25
:102CE000809191028B0D83312CF06A2D0E94392E38
:102CF000892F05C087FF03C090910D01890F082E11
:102D0000000C990BC816D906A9F480910B01960105
:102D1000280F311D80912E0390E0B7010E94032EF1
:102D20009595879595958795482F60912D0380916E
:102D30002C039FDDBD0EF1E0EF1AF10889F6CF5F9D
:102D4000B8CF04DE80919102D13031F4811102C0FC
:102D500080910D01815007C090E0019660910D01B6
:102D600070E00E945A2E80939102CDB7DEB7EAE060
:102D70000C94C02E0F931F93CF93DF93C0910B0140
:102D80000091E5011091E60180910C01C81768F4EB
:102D9000809109019C2F981B20E040E060E0892F82
:102DA00090E0F8010995CF5FEFCF10E0C091E50109
:102DB000D091E60160910D01161770F5E12FF0E05A
:102DC00070E0CF010E945A2E20910B01820F2091BA
:102DD0009002022E000C330BE217F30794F02091BF
:102DE0000801022E000C330B2E173F0754F0282F3A
:102DF00030E040912E0360912D0380912C0339DD4A
:102E000009C090910901891B20E040E060E090E05A
:102E1000FE0109951F5FCECF99DD209107018091BA
:102E20009002820F8093900290910801920F9093EC
:102E3000080119165CF4082E000C990B40910D0145
:102E400050E041505109841795071CF021952093BB
:102E50000701DF91CF911F910F910895A0E0B0E09D
:102E6000E4E3F7E10C949E2E8C01FC01C481CC2E8E
:102E7000D12CE12CF12CA7019601C701B6010E94CB
:102E8000142EA70196010E94142E4B015C0180E2D2
:102E900090E06C01CC1AD1080D2C000CEE08FF0854
:102EA00025E530E040E050E0C501B4010E94142E59
:102EB0002B013C01A7019601C701B6010E94142E07
:102EC000A70196010E94142E9B01AC01280D391D0B
:102ED0004A1D5B1DC301B2010E946D2ED22F822FAD
:102EE00090E02A3230F025E530E0A901481B590B6B
:102EF000CA0163E070E00E94032E97FD019695954C
:102F00008795C82FC095F12C85E5E82EED1A8091A4
:102F10000D01F81688F4F1FC02C08E2D01C08D2F32
:102F200090910B012F2D30E0290F311D4C2F609116
:102F30002D039FDCF394EBCF09DDF801848181112F
:102F400002C091E003C0803219F49FEF9093060114
:102F500090910601890FF8018483CDB7DEB7E0E1D7
:102F60000C94BA2E0F931F93CF93DF938C01C0E084
:102F7000D0E080910D01282F30E0C217D3072CF547
:102F8000869590E0F801348120910B01C817D9078C
:102F90003CF4332371F0CE01820F911D9C0106C0D9
:102FA000311107C0FE01E20FF11D9F0140912E0378
:102FB00005C0CE01820F911D9C0140E060912D0360
:102FC00080912C0356DC2196D4CFC0DCF80184819B
:102FD00090E00196817099278483DF91CF911F91B2
:102FE0000F910895A0E0B0E0E8EFF7E10C94A02E77
:102FF000FC017280648081E08483E3EDF3E08490DF
:10300000E2E5F4E0E491C0912E03C695C158D0E00A
:10301000CC0FDD1FCD2EDD24912CAA24AA94B12C37
:10302000E8190E2F10E080910D01981608F095C058
:10303000E92CF12C82E0871570F0C70165E070E0A3
:103040000E94032EFC01EE56FD4F80912C038083DD
:1030500080912D038183C70165E070E00E94032EFB
:10306000611006C0FC01EE56FD4F1382128262C051
:10307000EC01CE56DD4F8B81882321F181508B836B
:1030800090E06FEF70E00E94032E6C8170E00E9470
:10309000462EFB01FF27ED52FC4FE4918E2F88193D
:1030A00090E06FEF70E00E94032EB8010E94462E60
:1030B00020912E0330E0862F90E0B9010E94032E6C
:1030C0009A8338C00E94532FB5010E945A2E8C1546
:1030D0009D0584F5E2E0E71588F40E94532FB501C1
:1030E0000E945A2E88830E94532F20912D032695EB
:1030F000622F70E00E945A2E280F2983C70165E0D5
:1031000070E00E94032E8E569D4FFC01128220918A
:103110002E03243120F0293C18F028EC01C024E1D2
:10312000C70165E070E00E94032EFC01EE56FD4FE2
:103130002483238380910B019701280F311DC70140
:1031400065E070E00E94032EFC01EE56FD4F4281C7
:10315000618180818EDB939466CFF8DBCDB7DEB7DB
:10316000EEE00C94BC2EEBE2F3E080818E7F808356
:10317000CF010E94560E1092F402E8CBEBE2F3E08E
:1031800080818E7F80831092F402E0CB60912B03CC
:103190006695669570E04BE050E08EE091E00E940D
:1031A000612F892B19F481E08093F4020E941B2780
:1031B0009093ED028093EC02089590912B0390FF81
:1031C0002FC09370811102C0946007C08B3210F041
:1031D000986A03C0880F880F982B90932B0366235F
:1031E00021F08BE293E00E94560E60912B036695CE
:1031F000669570E04BE050E08EE091E00E94612F18
:10320000892B19F01092F40201C0C0DF81E0809395
:10321000EF0240912E0360912D0380912C03EACCA4
:103220000895682F90912B039695969581E0890FCC
:103230008B3208F081E0C1CF81E0F3CF682F90910D
:103240002B03969596958FEF890F09F48AE2B5CFF7
:1032500081E0F4CF61E0B1CFEBE2F3E08081816007
:10326000808386958695F6CF80912B0380FF01C0E1
:103270007ACFF2CF60E0A1CF8091F20281111FC01E
:103280008BE293E00E94540E80912B038C7F29F4F3
:1032900018DB8BE293E00E94540EFBDA1092F402EA
:1032A000E091E301F091E401099580912B0380FF07
:1032B00003C086958695DEDF81E08093F202089553
:1032C0008BE293E00E94540EE4DA80912B0380FF9E
:1032D00003C086958695CECF0895EBE2F3E080811A
:1032E0008160808386958695C5CF80912B0380FF72
:1032F00001C044CFF2CF0F931F93CF93DF93809100
:10330000F402882309F492C08091F302E0912B0328
:10331000E695E695E81BE093EE02823049F4F0E092
:10332000E153FC4FE491CE2FD0E005E015E159C008
:10333000863049F4F0E0E453FC4FE491CE2FD0E026
:1033400008E115E14EC0893051F4E695F0E0E7530D
:10335000FC4FE491CE2FD0E002E116E142C08F3065
:1033600051F4E695F0E0EA53FC4FE491CE2FD0E023
:1033700005E416E136C0853149F4F0E0ED53FC4F29
:10338000E491CE2FD0E00AEB16E12BC08831D9F0C2
:10339000833239F4E1ECF3E0C591D49107E215E111
:1033A00020C08432A9F08532C1F48E2F63E00E94E0
:1033B0002D2EE92FF0E0E254FC4FE491CE2FD0E027
:1033C00002EF17E10EC0C8E2D0E00EE217E109C03B
:1033D000C4EFD1E002EB17E104C0C0EDD7E007E293
:1033E00014E18091EF02882361F01092EF020E94B5
:1033F0001B279093ED028093EC021092F102109241
:10340000F0020E941B27E091EC02F091ED028E1B6E
:103410009F0B8F3F9F4750F4EC0FFD1FF093ED0281
:10342000E093EC028CEE92E0F8010995DF91CF91E8
:103430001F910F91089508955ECF0895E3E3F3E09F
:1034400081E2808311828DE1828382E0838360E266
:10345000CF0174C0E3E3F3E082E2808381E0818303
:10346000128286E0838360E2CF0168C0E3E3F3E089
:1034700083E2808311821282138260E2CF015EC0F8
:10348000FF920F931F93CF93DF93EC01F9800A8192
:10349000802F90E08F0D911D439714F08DEF05C0A4
:1034A0000A3010F410E008C08EEF8093340360E21D
:1034B00083E393E043D00BC02396101741F0212FF4
:1034C0002F0D4A816981888197DB1F5FF5CFCDB7CA
:1034D000DEB7E5E00C94C52EE3E3F3E087E28083FA
:1034E00082E1818360E2CF0129C0E3E3F3E088E277
:1034F000808382E0818360E2CF0120C0DC01EC9117
:103500004E2F50E0FA01B197E830F10598F4EF5AE8
:10351000FF4F0C948F2E92DF01C09CDF81E0089555
:10352000A5DFFCCFADDFFACFCBDEF8CFD5DFF6CF0E
:10353000DCDFF4CF80E00895E1CF08950C949A2564
:103540000895549A0895362F63E070E00E94032E88
:10355000DC01AD5ABC4F11963C9311974C93FD0181
:1035600022830895E3E5F3E0818360834283339609
:1035700093E0E938F907C1F708958BB18F7E9BB1CD
:1035800090612FB7F894E3E5F3E033E0E938F3070F
:1035900089F0319148E09BB9000000C037FF8BB93A
:1035A000330F000000C000C000C08BB900C04A95B6
:1035B00091F7EBCF2FBF8FE594E00197F1F700C0B3
:1035C000000008950C94430E089580E00E941412A8
:1035D000817008950E94CE122FEF86E791E021506E
:1035E00080409040E1F700C000000E94CE12EDDF65
:1035F000882319F0E7DF0C9459270895EBCF08953D
:10360000A1E0B0E0E6E0FBE10C94A82E7C01FC0117
:1036100060817181828193818E010F5F1F4F21E054
:1036200030E040E050E0A9D18981F701408151812B
:10363000628173814F5F5F4F6F4F7F4F4083518334
:10364000628373832196E6E00C94C42E84E008958F
:10365000CCC00895FDC008951F93CF93DF93C3D0CE
:10366000D0E0C0E010E0412F6C2F8D2F0E94390474
:103670009C01412F6C2F8D2FEBD01F5F183099F7D5
:10368000CF5FCA3079F7DF5FD43059F7DF91CF9140
:103690001F9108950F931F938A019B0140E050E012
:1036A000BC0180E090E0FFD01F910F9108950F932F
:1036B0001F938A019B0140E050E0BC0180E090E054
:1036C00020D11F910F910895843028F46A3018F4A6
:1036D000483008F48AC080E090E0089580E10895C1
:1036E00047D1CB0108950F931F938A019B0140E0BE
:1036F00050E0BC0180E090E040D11F910F9108950F
:103700000F931F938A019B0140E050E0BC0180E0D1
:1037100090E079D11F910F91089566D0B8C14F9272
:103720005F926F927F92BF92CF92DF92EF92FF9261
:103730000F931F93CF93DF9300D000D0CDB7DEB7A8
:10374000B82E8FE08B1508F43CC012D1615071097E
:10375000810991098E010F5F1F4F21E030E040E0A9
:1037600050E00BD1898181112CC002D12B013C0189
:10377000C12CD12C7601BB20C9F0C414D504E604B9
:10378000F704F9F08E010F5F1F4F21E030E040E0B9
:1037900050E0C701B601F1D08981811101C0BA940E
:1037A0008FEFC81AD80AE80AF80AE5CFC982DA8288
:1037B000EB82FC8240E0BE016F5F7F4F80E09BE1C7
:1037C000E0D50F900F900F900F90DF91CF911F9148
:1037D0000F91FF90EF90DF90CF90BF907F906F9010
:1037E0005F904F900895089508950F931F93CF937E
:1037F000DF93843030F56A3020F5483010F5C62F5D
:10380000D0E094E0CC0FDD1F9A95E1F750E0440F33
:10381000551FC40FD51F90E060EA70E00E94032E90
:10382000C80FD91FCE0189960E94842F90E0182FCF
:103830000027CE018A960E94842F9801282BC90167
:1038400002C080E090E0DF91CF911F910F91089529
:103850001F93CF93DF93843010F56A3000F5483022
:10386000F0F4122FC62FD0E094E0CC0FDD1F9A9514
:10387000E1F750E0440F551FC40FD51F90E060EAF8
:1038800070E00E94032EC80FD91F632FCE018996C6
:103890000E94A52F612FCE018A960E94A52FDF914D
:1038A000CF911F910895A0E0B0E0E9E5FCE10C9410
:1038B000A22EE8014B015C01820E931EA41EB51ED0
:1038C0006B017C01C6018996C814D904EA04FB0483
:1038D00099F020E8C21622E0D206E104F10420F4B7
:1038E0000E94842F888301C0188221968FEFC81A06
:1038F000D80AE80AF80AE6CFCDB7DEB7ECE00C94B8
:10390000BE2E8F929F92AF92BF92CF92DF92EF9294
:10391000FF920F931F934B015C01820E931EA41E16
:10392000B51E6B017C01C6018996C814D904EA044E
:10393000FB0499F020E8C21622E0D206E104F1046B
:1039400020F4F80160810E94A52F0F5F1F4FFFEF49
:10395000CF1ADF0AEF0AFF0AE6CF1F910F91FF90FF
:10396000EF90DF90CF90BF90AF909F908F90089591
:1039700067E571E080E090E008954F925F926F926A
:103980007F928F929F92AF92BF92EF92FF920F938E
:103990001F93CF93DF934B015C0129013A017B0117
:1039A000E801E01AF10A27E5E21A2DEFF20ACE014A
:1039B0008E0D9F1DAE01401B510B60E070E0441561
:1039C00055056605770580F4480D591D6A1D7B1D58
:1039D000473551406105710520F40E94842F88838A
:1039E00001C018822196E3CFDF91CF911F910F91F3
:1039F000FF90EF90BF90AF909F908F907F906F90CF
:103A00005F904F9008954F925F926F927F928F9246
:103A10009F92AF92BF92EF92FF920F931F93CF931B
:103A2000DF934B015C0129013A017B01E801E01AB7
:103A3000F10A27E5E21A2DEFF20ACE018E0D9F1D45
:103A4000AE01401B510B60E070E044155505660562
:103A5000770570F4480D591D6A1D7B1D473551408F
:103A60006105710518F468810E94A52F2196E5CFA4
:103A7000DF91CF911F910F91FF90EF90BF90AF908A
:103A80009F908F907F906F905F904F900895A0E1EE
:103A9000B0E0EDE4FDE10C949E2ECE0101965C01B8
:103AA00080E1F50111928A95E9F706E110E097E5CA
:103AB000492E55245394612C712C29EA822E22E040
:103AC000922E73016201F1E14F16510461047104F9
:103AD0002CF080E1C82ED12CE12CF12CA601B401F0
:103AE000C5010E94962F8C0C9D1C0D2C000CEE081D
:103AF000FF084C185D086E087F080150110909F78E
:103B00006096E0E10C94BA2ECF93DF9386319C4708
:103B100009F5EB010E943F0D9D81992371F08A7A8E
:103B200091E009F490E09093F502811102C089E2DE
:103B300001C085E30E94F12509C08091F502811141
:103B400002C089E201C085E30E94F7250E94BB0DF7
:103B500080E001C081E0DF91CF910895CF93DF93A2
:103B6000FC01DB0115968C91882309F4D9C09F01D3
:103B700030572332310508F0D4C0EF0185E193E0DE
:103B80000E94500EFE01E150F047E232F10520F4B0
:103B9000E75AFF4F0C948F2E809115038160AAC0C5
:103BA000809116038860B2C0809115038260A2C024
:103BB0008091150320C08091150388609BC080917F
:103BC00016031EC0809116038260A0C08091150369
:103BD000806190C08091150380628CC08091150334
:103BE000806488C00E94EE0880911503806882C0BE
:103BF00080911503886084607DC080911603826087
:103C0000816084C0809115038E7F74C080911603FB
:103C1000877F7CC0809115038D7F6CC080911503D8
:103C200020C080911503877F65C0809116031EC058
:103C3000809116038D7F6AC0809115038F7E5AC0D4
:103C4000809115038F7D56C0809115038F7B52C0E4
:103C50000E94EE08809115038F774CC08091150368
:103C6000877F8B7F47C0809116038D7F8E7F4EC0EC
:103C70008091150382FB222720F991E0922790FB87
:103C800082F990FB83F936C080911603982F9095A6
:103C900091708E7F892B90FB81F938C0809115033C
:103CA00086FB222720F991E0922790FB86F922C01B
:103CB0000E94EE088091150387FB222720F991E0EE
:103CC000922790FB87F916C081E001C080E00E9436
:103CD000580E1EC08091150384FB222720F991E025
:103CE000922790FB84F906C080911503982F909538
:103CF00090FB80F9809315030BC08091160383FB22
:103D0000222720F991E0922790FB83F980931603F4
:103D100085E193E00E94520E0E94EE0880E001C00F
:103D200081E0DF91CF910895082E000C990B65EB8F
:103D300070E00E94032E97FF03C08058910902C0D3
:103D400080589F4F892F08958091FC0280FF06C004
:103D500060911E0170E0660F771F2CC081FF08C0C4
:103D600060911E0170E0660F771F660F771F22C0FB
:103D700082FF09C060911E0170E043E0660F771F6B
:103D80004A95E1F717C06091FB026623D1F02091BC
:103D90001D01621778F780911E0190E070E033E01A
:103DA000880F991F3A95E1F70E94032E622F70E069
:103DB0000E945A2E6038710540F46115710519F49E
:103DC00006C068E070E0862F08958FE7089581E0CF
:103DD00008958091FC0280FF08C060911A0170E094
:103DE000759567957595679523C081FF06C06091AD
:103DF0001A0170E0759567951BC082FF04C0609141
:103E00001A0170E012C06091FA026623A9F02091B5
:103E100019016217A0F780911A0170E090E00E94EA
:103E2000032E622F70E00E945A2E6038710540F414
:103E30006115710519F406C061E070E0862F0895E0
:103E40008FE7089581E008958D3C19F47DDF819519
:103E500003C08E3C21F478DF8093000308958F3CEB
:103E600019F472DF819503C0803D21F46DDF8093EA
:103E7000FF020895893D11F4ACDF04C08A3D29F4A6
:103E8000A8DF81958093010308958B3D19F4A1DF8C
:103E9000819503C08C3D21F49CDF8093020308953B
:103EA0009FE2980F983078F421E030E0A90102C039
:103EB000440F551F9A95E2F7CA019091FE02892B93
:103EC0008093FE0208958D3D21F48091FC02816073
:103ED0000BC08E3D21F48091FC02826005C08F3DB5
:103EE00029F48091FC0284608093FC0208958D3C4B
:103EF00039F49091000397FF35C01092000359C028
:103F00008E3C29F4909100031916BCF32BC09091BC
:103F1000FF028F3C29F497FF25C01092FF0249C091
:103F2000803D19F41916CCF31DC090910103893D11
:103F300029F41916BCF4109201033BC08A3D19F410
:103F400097FF10C0F8CF8B3D39F49091020397FF93
:103F500009C0109202032DC08C3D21F49091020300
:103F60001916BCF39FE2980F983080F421E030E0FE
:103F7000A90102C0440F551F9A95E2F7CA01809526
:103F80009091FE0289238093FE0213C08D3D21F49F
:103F90008091FC028E7F0BC08E3D21F48091FC024B
:103FA0008D7F05C08F3D29F48091FC028B7F80932B
:103FB000FC028091FF02811106C0809100038111F3
:103FC00002C01092FB0280910103811106C0809112
:103FD0000203811102C01092FA0208952CD7209199
:103FE000FF02211104C020910003222321F09093AD
:103FF000F9028093F80220910103211104C020915D
:104000000203222321F09093F7028093F6028DEFB2
:1040100092E030C5EDEFF2E086E0DF011D928A9577
:10402000E9F71092FB021092FA021092FC02089536
:10403000FC01828181110DC0838181110AC08481BC
:10404000811107C091E08581811101C090E0892F25
:1040500001C081E081700895A6E0B0E0E2E3F0E203
:104060000C94AB2E86E0EDEFF2E0DE0111960190AC
:104070000D928A95E1F71092FF02109200031092C0
:104080000103109202038B81811104C08C8188236B
:1040900009F452C08091F8029091F90261D6FC01B6
:1040A0002091FB02222339F080911F0190E08E17AE
:1040B0009F0760F041C08091200190E06AE070E0CD
:1040C0000E94032E8E179F0718F036C02F3F19F05D
:1040D0002F5F2093FB021B81112359F035DE682FDF
:1040E000111614F08FEF01C081E00E94FA2D809329
:1040F000FF021C81112359F027DE682F111614F0DE
:104100008FEF01C081E00E94FA2D8093000380911F
:10411000FF02882389F010910003112369F004DE67
:10412000811101C081E08093FF02812FFDDD8111AB
:1041300001C081E0809300038D81811104C08E81D4
:10414000882309F452C08091F6029091F70208D6B4
:10415000FC012091FA02222339F080911B0190E0AA
:104160008E179F0760F041C080911C0190E06AE0CB
:1041700070E00E94032E8E179F0718F036C02F3F65
:1041800019F02F5F2093FA021D81112359F021DECF
:10419000682F111614F08FEF01C081E00E94FA2DF4
:1041A000809301031E81112359F013DE682F11162D
:1041B00014F08FEF01C081E00E94FA2D809302037A
:1041C00080910103882389F010910203112369F083
:1041D000ABDD811101C081E080930103812FA4DD5B
:1041E000811101C081E080930203BE016F5F7F4FA8
:1041F0008DEF92E00DD5811104C08DEF92E018DFB4
:104200008111ECDE86E0FE013196ADEFB2E0019067
:104210000D928A95E1F72696E3E00C94C72E8F92D3
:104220009F92BF92CF92DF92EF92FF920F931F93D4
:10423000CF93DF93E82FF0E0E852FA4FB490282FA5
:1042400026952695269530E0F901E858F94FE49037
:104250008770F12C082E02C0F594E7940A94E2F7D7
:1042600091E0E922FF24F901E859F94FC490D12CDB
:10427000082E02C0D594C7940A94E2F7E1E0CE225A
:10428000DD24F901E85AF94FC491D0E002C0D59578
:10429000C7958A95E2F7C170DD27062F10E0E1147B
:1042A000F10471F081EE0E94F105C801009741F020
:1042B000EFE9FFE03197F1F700C000000197F6CF7A
:1042C000C114D10439F44801B8018B2D0E94C906EC
:1042D000C8010EC086EE0E94F105C801009799F34F
:1042E000EFE9FFE03197F1F700C000000197F6CF4A
:1042F000009741F0EFE9FFE03197F1F700C00000CF
:104300000197F6CFCD2819F5EF2879F081EE0E94BC
:1043100078060115110549F08FE99FE00197F1F743
:1043200000C0000001501109F4CFCD2BF1F08CE258
:104330000E94DF0681149104C1F0EFE9FFE031979C
:10434000F1F700C00000F1E08F1A9108F3CF86EE7C
:104350000E947806C8010097B9F2EFE9FFE03197B3
:10436000F1F700C000000197F6CFDF91CF911F91C8
:104370000F91FF90EF90DF90CF90BF909F908F9024
:104380000895A0E0B0E0E7ECF1E20C94A62E8C01D9
:104390007B01D42FC701F8010995882309F45AC07D
:1043A000813009F054C0C701F8010995C82F813048
:1043B00031F4C701F80109950E94DF0639C0823047
:1043C00031F4C701F80109950E94F10531C083302D
:1043D00031F4C701F80109950E94780629C084309C
:1043E00039F5C701F8010995C82FC12CD12C2C2F04
:1043F00030E0205331092A30310568F4C6016AE003
:1044000070E00E94032E6901C80ED91EC701F80191
:104410000995C82FECCFC114D10451F08FE99FE06A
:104420000197F1F700C0000091E0C91AD108F3CF5D
:104430008D2F90E0009741F0EFE9FFE03197F1F721
:1044400000C000000197F6CFC111A4CF03C06D2FAB
:10445000E6DEA0CFCDB7DEB7E8E00C94C22E0F9316
:104460001F93CF93DF93C42FD22FFC018581882324
:10447000A9F040930503DFD49093040380930303D2
:1044800080E28C0F883008F04CC0C77081E001C01A
:10449000880FCA95EAF70E94E70643C0809105039A
:1044A00048132FC0809103039091040359D4883C92
:1044B000910538F510E21D0FCD17B9F080E28C0F91
:1044C000883040F4C77081E001C0880FCA95EAF7D0
:1044D0000E94EC06183010F581E09D2F977001C006
:1044E000880F9A95EAF70E94E706802F0E94DF0660
:1044F0001830B8F4D77081E001C0880FDA95EAF778
:104500000AC080E28C0F883060F4C77081E001C07F
:10451000880FCA95EAF70E94EC0603C0802F0E941C
:10452000DF06DF91CF911F910F9108950F93FC014A
:10453000E851FC47E730F10588F5CB01E558FF4F1E
:104540000C948F2E06E221EE41EE6AE17CE723C057
:1045500007E225EE45EE6BE17CE71DC006E221EEA9
:1045600040EE68E17CE717C007E225EE44EE69E122
:104570007CE711C006E221EE42EE6CE17CE70BC065
:1045800007E225EE46EE6DE17CE705C008E221E09A
:1045900045EE6EE17CE763DF80E008C0FB018581CA
:1045A000882319F01092050301C081E00F9108954E
:1045B0001F93CF93DF9387372CE7920721F088373B
:1045C0009C4749F027C0FB01C581CC2311F028D0BE
:1045D00007C026D013C0FB01C581CC2371F023D0C6
:1045E0000E94560923D0D82F1ED0C82F19D04D2F86
:1045F0006C2F0E946D0AC0E00EC015D00E946009A9
:1046000015D0182F10D0D82F0BD0412F6D2F0E940E
:104610006D0A01C0C1E08C2FDF91CF911F910895E9
:1046200080912301089580912201089580912101B4
:104630000895A3E0B0E0EFE1F3E20C94AC2EAE01FC
:104640004F5F5F4FBE016E5F7F4FCE010396A6D1D5
:104650008B81853239F48A81853021F481E099811A
:10466000973209F080E081702396E2E00C94C82E26
:10467000882321F047E265E085E203C04FEF6FEF4A
:104680008FEFB2C108950895CF92DF92EF92FF921B
:104690006B017C01F8DFC701B601C5D1FF90EF9037
:1046A000DF90CF90089579D180E0E2DF60E070E0A4
:1046B000CB01EADF0E942C1B30D881E0D9CFE2DFAA
:1046C000A9D1E1DFB6DF811101C0EDCF08950C94CF
:1046D000751908959C01FB018581882349F0A90182
:1046E00057574038510528F4C90119D880E008957A
:1046F00081E008952FEFFC0120830895CF93DF938D
:10470000EC0188818230D9F078F4813021F50E9463
:10471000A31490E06FEF70E00E94032E6FEF70E043
:104720000E94462E698317C0833091F0843099F43B
:104730000E949D1489830E94A0148A830CC00E9449
:104740007514882319F00E946C1404C080E002C024
:104750000E9497148983DF91CF910895CF93DF93BF
:10476000EC018881823001F1A8F4813079F58981EA
:1047700090E06FEF70E00E94032E6FEF70E00E94F8
:10478000462ED62F0E94A014C82F0E949D144D2F94
:104790006C2F1AC08330A1F08430C1F40E94A3149E
:1047A000482F6A81898110C08981811103C00E94CC
:1047B000BE180CC00E946D1989810E943A1906C06A
:1047C00089810E949A1402C00E94FA15DF91CF914C
:1047D0000895FC019C012E5F3F4F9081983031F08D
:1047E000993031F0973031F4C901B8CFC90186CF83
:1047F0000C945D148FEF80830895FC012181223099
:1048000009F4E7CF77CFA0E0B0E0E9E0F4E20C9460
:10481000A42EEC01F62E0E949C1A8111B9C0E881E9
:104820008E2F90E0FC013197E331F10508F0AAC02A
:10483000EE57FF4F0C948F2E19828CE066C0898151
:10484000823081F028F4813009F09CC000D30BC085
:10485000833071F0843009F095C01A821B821C826B
:104860001D8292C0D7D09A838B837C836D838CC04A
:10487000EA806E0183E0C80ED11C00E010E0AE2C8F
:10488000B12CC501800F911F0A9708F07DC08E2DB5
:10489000800F0E941412F60181936F010F5F1F4F6A
:1048A0000C31110571F770C08981823031F085308B
:1048B00009F068C08A810BDF67C06A817B818C81C7
:1048C0009D810E94952EE0DE5FC04B816A818981C7
:1048D0000E94281B9C838D8357C02C813D813227E9
:1048E000232732274B816A8189810E942A1B4CC071
:1048F0000E942C1B49C06F2DCE017FDF45C00E9456
:104900006E1B24C00E94701B99838A833DC06B81FB
:1049100070E089819A81AE014C5F5F4F98278927AB
:1049200098270E94731B30C06B8170E089819A8147
:10493000AE014C5F5F4F9827892798270E94801B04
:1049400023C00E948D1B20C00E94261B89831CC08F
:104950006B8170E089819A81AE014C5F5F4F98272F
:10496000892798270E944A1B0FC06B8170E08981BC
:104970009A81AE014C5F5F4F9827892798270E9444
:10498000571B02C08FEF88836F2DCE010E949E1AA5
:10499000CDB7DEB7EAE00C94C02E0895EF92FF92F7
:1049A0000F931F93CF93DF937C018B01EA01892B37
:1049B00031F085E290E00E94842FF7018083011599
:1049C000110531F086E290E00E94842FF801808387
:1049D000209729F087E290E00E94842F8883CDB74A
:1049E000DEB7E6E00C94C42ECF93DF93D62FC42F0E
:1049F000682F85E290E00E94A52F6D2F86E290E05F
:104A00000E94A52F6C2F87E290E00E94A52FDF91D6
:104A1000CF91089588E290E00E94842F682F70E083
:104A200080E090E0089588E290E00C94A52F9093A8
:104A30000B0380930A030895E0910A03F0910B039E
:104A4000309739F00190F081E02D309711F0099501
:104A5000089580E00895F0CF0895E0910A03F09161
:104A60000B03309731F00280F381E02D309709F08D
:104A700009950895E0910A03F0910B03309759F0DE
:104A800026813781232B39F022E0DC012C9306802C
:104A9000F781E02D09950895A3E0B0E0E2E5F5E2A5
:104AA0000C94AC2E20910803309109032817390784
:104AB000B1F09093090380930803E0910A03F09109
:104AC0000B03309761F00084F185E02D309739F0C9
:104AD00023E029839B838A83CE010196099523963F
:104AE000E2E00C94C82EA3E0B0E0E9E7F5E20C9414
:104AF000AC2E209106033091070328173907B1F037
:104B00009093070380930603E0910A03F0910B034F
:104B1000309761F00084F185E02D309739F024E082
:104B200029839B838A83CE01019609952396E2E02F
:104B30000C94C82EE0910A03F0910B03309731F0EA
:104B40000284F385E02D309709F009950895E091EE
:104B50000401F0910501329697E080E0915029F030
:104B600021912223D9F38F5FF9CF0895882371F023
:104B70002091040130910501F9013296285F3F4FE1
:104B80009191891729F0E217F307D1F780E0089592
:104B900081E008959C01FC0132969FEF80E04191F5
:104BA000461789F09F3F19F4411101C0982F8F5F7C
:104BB0008630A9F79F3F39F0F901E90FF11D97FD04
:104BC000FA956283089508959C012A5F3F4FFC0186
:104BD0004281461301C01282019682179307B9F7EA
:104BE0000895682F8091040190910501D3CF682F1B
:104BF0008091040190910501E7CFE0910401F091CB
:104C00000501329686E0DF011D928A95E9F7089545
:104C1000DC01FB0111969C9111978181981321C0B1
:104C200012968C911297882319F09281891319C0DA
:104C300013968C911397882319F09381891311C0CF
:104C400015968C911597882319F09581891309C0C1
:104C500014969C91992339F081E02481291304C092
:104C600002C081E001C080E0817008950895FECF08
:104C7000089583E0809327016091240170912501BC
:104C80008091260190912701F2CF811102C081E02D
:104C900001C082E080932701609124017091250179
:104CA0008091260190912701E2CFEFCF089581E016
:104CB0008093270160912401709125018091260144
:104CC00090912701D4CFF3CF089591E0811101C0D5
:104CD00090E09093260160912401709125018091CC
:104CE000260190912701C3CF8091260108958093DA
:104CF00025016091240170912501809126019091F8
:104D00002701B5CF809125010895809324016091FA
:104D10002401709125018091260190912701A7CF50
:104D20008091240108950895FECF0895FDCF089540
:104D3000FACF0895F8CF0895F6CF0895CF93FADF0C
:104D40000E94CE12F5DFC0E08C2F0E941412811158
:104D500004C0CF5FCA30C1F701C081E0CF91089590
:104D6000CF93DF93EC0167D08C1B9D0BDF91CF912C
:104D7000089508951F920F920FB60F9211248F93EA
:104D80009F93AF93BF9380910C03811113C08091C7
:104D9000890390918A03A0918B03B0918C03419673
:104DA000A11DB11D8093890390938A03A0938B0367
:104DB000B0938C03BF91AF919F918F910F900FBED5
:104DC0000F901F90189580919103843031F10E94CB
:104DD000780510920C0320E488E190E00FB6F89477
:104DE000A895809360000FBE2093600083B7817FF9
:104DF000846083BF83B7816083BF7894889583B7CD
:104E00008E7F83BF0FB6F894A8958091600088616B
:104E100080936000109260000FBE08950E94EE081B
:104E20000C947C0582E084BD93E095BD9AEF97BD1C
:104E300080936E0008952FB7F89480918903909124
:104E40008A03A0918B03B0918C032FBF08952FB7D5
:104E5000F8946091890370918A0380918B039091FB
:104E60008C032FBF089578941F920F920FB60F9264
:104E700011248F939F93AF93BF9380918903909157
:104E80008A03A0918B03B0918C030196A11DB11DE3
:104E90008093890390938A03A0938B03B0938C0330
:104EA000BF91AF919F918F910F900FBE0F901F9068
:104EB000189581E08093E00080E28093D800109202
:104EC000C9008FE19EE40197F1F700C0000087E080
:104ED00090EBDC0180939A0390939B03A0939C0337
:104EE000B0939D039CE088E10FB6F894A895809359
:104EF00060000FBE90936000FFCF9CE088E10FB68A
:104F0000F894A895809360000FBE90936000FFCF47
:104F100008959B01909191039430E9F48F708093F0
:104F2000E9008FEF9091E800815095FD06C095ED66
:104F30009A95F1F700008111F5CF8091E80085FF87
:104F40000AC0BA01C90140E050E0E3D18091E80015
:104F50008E778093E8000895603229F4BC0140E226
:104F600050E082E0D6CF089543E050E0BC0184E0F9
:104F7000D0CF46E050E0BC0184E0CBCFCF93DF93AD
:104F8000EC01B2DE48E050E0BE0181E0C2DF88E023
:104F9000FE01ADE0B3E001900D928A95E1F7DF915B
:104FA000CF910895A0E2B0E0E7EDF7E2D5C6809199
:104FB0009103843001F583E08093E9008091E8005B
:104FC00082FF19C08091E80085FF09C040E050E0F1
:104FD00060E270E0CE010196DDD191E001C090E089
:104FE0008091E8008B778093E800992321F060E2BC
:104FF000CE01019608DCA096E2E0CAC664DE81E03C
:1050000064CE60918D0381E0611101C080E031CEFA
:105010009091910381E0943009F080E060918D03DC
:1050200034CE42E061EC81E0AFD242E261EC84E058
:10503000ABD242E261EC82E0A7D242E260EC83E0D4
:10504000A3D29091910381E0943009F080E06091C7
:105050008D032BCE80919303833009F45DC030F42F
:10506000813071F0823009F490C008958A3009F4DB
:105070007FC08B3009F467C0893009F09CC01FC025
:1050800080919203813A09F096C08091E800877F71
:105090008093E8008091960390919703892B21F4E7
:1050A00068E08DE093E003C060E080E090E070E0B5
:1050B000B2D18091E8008B778093E80008958091C9
:1050C0009203813209F077C0809196039091970303
:1050D000009719F0029709F06EC08091E800877F71
:1050E0008093E8008091E80082FD05C080919103E3
:1050F0008111F8CF60C08091F200823031F480914C
:10510000F100813011F0863019F48091F100EFDD6B
:105110008091E8008B774CC080919203813A09F02E
:105120004AC08091960390919703892B09F043C060
:105130008091E800877F8093E8008091E80080FFFD
:10514000FCCFD2DD30C0809192038132A1F58091F5
:10515000960390919703892B71F58091E800877FE2
:105160008093E80046D280919403AFDD0C94EE0862
:10517000809192038132F9F48091E800877F8093D7
:10518000E80037D280919503C0CD80919203813A97
:1051900091F48091E800877F8093E8008091E80097
:1051A00080FFFCCFBDDD8093F1008091E8008E7719
:1051B0008093E8001EC2089584B7877F84BF0FB62E
:1051C000F894A895809160008861809360001092A7
:1051D00060000FBE90E080E80FB6F8948093610005
:1051E000909361000FBE63CD56D2A3D2E2EEF0E001
:1051F0008081846080837894E3C488E291E017CC56
:1052000080919103853089F480919103853061F418
:10521000DADD94DD8823C1F380918F038823A1F325
:1052200062D00E94EE08F0CFF9CD089508959A015A
:10523000409198035091990300C0492F552743305E
:105240005105C9F060F44130510581F042305105FB
:1052500009F041C08BE590E042EB56E040C041329E
:105260005105E1F04232510531F135C082E190E063
:105270004DE057E034C099278130910549F028F07E
:10528000029749F5E8E8F6E005C0EEEAF6E002C06C
:10529000E2EAF6E0849190E0AF0121C0633071054D
:1052A000D0F4660F771FFB01EC50FE4F4081518117
:1052B00089E090E014C06330710568F4FB01EE0FE3
:1052C000FF1FE251FE4F40815181FB01E551FE4F2E
:1052D000808190E004C080E090E040E050E0F9017F
:1052E00051834083089584E089BD86E089BD09B477
:1052F00000FEFDCF8091D8008F7D8093D8008091F3
:10530000E00082608093E0008091E00081FDFCCFAE
:105310000895A0E0B0E0EEE8F9E218C5EC018B01D9
:105320007A0186D1811132C0E114F10439F0F7011C
:1053300080819181081B190BC80FD91FC12CD12C5A
:105340000115110511F18091E80085FD15C08091CE
:10535000E8008E778093E800E114F10449F0F7014A
:1053600080819181C80ED91ED182C08285E00EC095
:105370005FD1882329F30AC089918093F1000150FD
:105380001109FFEFCF1ADF0ADBCF80E0CDB7DEB720
:10539000E8E0F8C4A0E0B0E0EFECF9E2D7C4EC013B
:1053A0008B017A0145D1811132C0E114F10439F049
:1053B000F70180819181081B190BC80FD91FC12CDF
:1053C000D12C0115110511F18091E80085FD15C062
:1053D0008091E8008B778093E800E114F10449F0B4
:1053E000F70180819181C80ED91ED182C08285E0EB
:1053F0000EC01ED1882329F30AC08091F100899341
:1054000001501109FFEFCF1ADF0ADBCF80E0CDB7E3
:10541000DEB7E8E0B7C420919803309199032617CE
:10542000370748F06115710539F42091E8002E77AF
:105430002093E80001C0B901FC0120E0611571056D
:1054400061F1809191038823D9F18530D9F1809160
:10545000E80083FD39C08091E80082FD2BC0809177
:10546000E80080FFEBCF8091F20090E061157105BC
:1054700051F08830910538F421912093F10061506A
:1054800071090196F3CF21E0089709F020E080919F
:10549000E8008E778093E800D1CF2111D2CF0AC0E7
:1054A00080919103882361F0853061F08091E8005C
:1054B00083FD0AC08091E80082FFF2CF80E008956A
:1054C00082E0089583E0089581E008952091980393
:1054D000309199032617370748F06115710539F4A3
:1054E0002091E8002E772093E80001C0B901FC016B
:1054F00020E06115710579F180919103882309F409
:105500003DC0853009F43CC08091E80083FD3AC07D
:105510008091E80082FD2CC08091E80080FFE9CFF7
:105520008091F20090E06115710559F08830910585
:1055300040F424912093F100319661507109019655
:10554000F2CF21E0089709F020E08091E8008E7703
:105550008093E800CECF2111CFCF0AC08091910374
:10556000882361F0853061F08091E80083FD0AC0F6
:105570008091E80082FFF2CF80E0089582E00895F4
:1055800083E0089581E00895982F953068F5909311
:10559000E900981739F07091EC002091ED005091DE
:1055A000F00003C0242F762F50E021FD02C09F5F42
:1055B000ECCF3091EB003E7F3093EB003091ED006B
:1055C0003D7F3093ED003091EB0031603093EB0084
:1055D0007093EC002093ED005093F0002091EE00CA
:1055E00027FDE5CF80E008958F708093E90081E08A
:1055F00008958091920387FF11C08091E80082FD99
:1056000005C0809191038111F8CF11C08091E8000D
:105610008B770BC080919103882349F08091E8003B
:1056200080FFF8CF8091E8008E778093E80008959E
:105630002091E4003091E50095E64091EC00842F44
:10564000817040FF23C08091E80080FD1DC08091E3
:105650009103882399F0853099F08091EB0085FDC6
:1056600011C04091E4005091E5002417350729F35B
:10567000915011F09A01E1CF84E0089582E00895FD
:1056800083E0089581E0089580E008954091E80066
:1056900042FFDDCF089556D058D0E0EEF0E0808193
:1056A00081608083E8EDF0E080818F77808319BC92
:1056B000E3E6F0E08081816080831092900308959A
:1056C00041D043D08091D8008F778093D8008091CB
:1056D000D80080688093D8008091D8008F7D809317
:1056E000D80084E089BD86E089BD09B400FEFDCF05
:1056F0001092910310928D0310928F0310928E03DB
:1057000042E060E080E040DF8091E1008E7F8093A6
:10571000E1008091E20081608093E2008091E200EC
:1057200088608093E2008091E0008E7F8093E000AB
:105730000895E3E6F0E080818E7F808381E08093AE
:105740009003BECF1092E20008951092E1000895F8
:105750001F920F920FB60F9211242F933F934F93E6
:105760005F936F937F938F939F93AF93BF93EF93C9
:10577000FF938091E10082FF0AC08091E20082FFE6
:1057800006C08091E1008B7F8093E10018D2809168
:10579000E10080FF18C08091E20080FF14C080917A
:1057A000E2008E7F8093E2008091E200806180932E
:1057B000E2008091D80080628093D80019BC85E017
:1057C000809391031EDC8091E10084FF2FC08091C3
:1057D000E20084FF2BC084E089BD86E089BD09B466
:1057E00000FEFDCF8091D8008F7D8093D8008091FE
:1057F000E1008F7E8093E1008091E2008F7E8093B4
:10580000E2008091E20081608093E20080918D034C
:10581000882311F084E007C08091E30087FD02C077
:1058200081E001C083E080939103F2DB8091E1008D
:1058300083FF27C08091E20083FF23C08091E100B5
:10584000877F8093E10082E08093910310928D0323
:105850008091E1008E7F8093E1008091E2008E7F55
:105860008093E2008091E20080618093E20042E058
:1058700060E080E089DE8091F00088608093F00035
:10588000BDDBFF91EF91BF91AF919F918F917F9180
:105890006F915F914F913F912F910F900FBE0F909D
:1058A0001F9018951F920F920FB60F9211242F93ED
:1058B0003F934F935F936F937F938F939F93AF9398
:1058C000BF93CF93DF93EF93FF93C091E900CF7025
:1058D0008091EC00D82FD17080FDD0E81092E900C3
:1058E0008091F000877F8093F00078941ED0109212
:1058F000E9008091F00088608093F000CD2BCF709C
:10590000C093E900FF91EF91DF91CF91BF91AF91EB
:105910009F918F917F916F915F914F913F912F91C7
:105920000F900FBE0F901F901895AAE2B0E0EAE921
:10593000FCE211C2E2E9F3E08091F100819323E0FF
:10594000EA39F207C9F786DB8091E80083FF26C1B8
:105950008091920390919303492F50E04A30510572
:1059600008F01CC1FA01EB56FF4FD9C1803821F075
:10597000823809F013C108C080918E0390918F0383
:10598000992389F082600FC0809196038F708530D3
:1059900008F004C18093E9008091EB0085FB882723
:1059A00080F91092E9009091E800977F9093E800C9
:1059B0008093F1001092F100CCC0282F2D7F09F0C8
:1059C000EDC0882319F0823061F0E8C08091940323
:1059D000813009F0E3C0933009F080E080938F03B9
:1059E0002EC08091940381112AC0809196038F70FC
:1059F0002FEF280F243008F0D1C08093E9002091C8
:105A0000EB0020FF1CC0933021F48091EB008062FA
:105A100014C09091EB0090619093EB0021E030E096
:105A2000A90102C0440F551F8A95E2F74093EA008E
:105A30001092EA008091EB0088608093EB00109256
:105A4000E9008091E800877F8093E800D2DDA6C05E
:105A50008111A4C0109194031F778091E300807896
:105A6000812B8093E3008091E800877F8093E8009A
:105A7000C0DD8091E80080FFFCCF8091E30080686A
:105A80008093E300111102C082E001C083E08093A3
:105A9000910384C08058823008F080C080919403C4
:105AA000909195038C3D53E0950771F583E08A83CF
:105AB0008AE289834FB7F894DE01139620E03EE036
:105AC00051E2E32FF0E050935700E49120FF03C030
:105AD000E295EF703F5FEF708E2F90E0EA3010F0AC
