:100000003CC4000072C4000070C400006EC4000054
:100010006CC400006AC4000068C4000066C400002C
:1000200064C4000062C400000C9476310C94413228
:100030000C94532C5AC4000058C4000056C400004D
:1000400054C4000052C4000050C400004EC400005C
:100050000C94F71C0C94CC2C48C4000046C400003F
:1000600044C4000042C4000040C400003EC400007C
:100070003CC400003AC4000038C4000036C400008C
:1000800034C4000032C4000030C400002EC400009C
:100090002CC400002AC4000028C4000026C40000AC
:1000A00024C4000022C4000020C400008D078D0776
:1000B000B407B4070A082808EF08EF082C088C08D2
:1000C000990899082114231427142B142F1433147E
:1000D00037143B143F1444144814291C2B1C331CA4
:1000E0002F1C311C351C371C051E071E0A1E0C1E3A
:1000F000081E0E1E101E121E121F081F151F651F40
:10010000691F691F651F691F691F361F691F401F0F
:100110004A1F691F691F691F691F651F691F691FC2
:10012000651F691F231F691F691F5A1F5A1F5A1F06
:100130005A1F5A1F5A1F5A1F5A1F5A1F671F691FDB
:10014000121F051F691F691F691F691F691F691F2A
:10015000691F691F691F691F671F691F691F651F65
:10016000691F581F581F581F581F581F581F581FC6
:10017000581F581F671FA9221B23B1227B227F22F1
:10018000B5228222B822C3228D2211239122C722B6
:100190009522CB22F5229922CF22FF229F22D5221F
:1001A000DF228622BC228922BF22A422DA22EB226D
:1001B0000B230D237722AD2224234B2751273F27E2
:1001C000452757275D276327042907293C294D29FF
:1001D00055296029632963296329AA29AA2967293E
:1001E0006A296F297C2989298C2990299D29A53282
:1001F000CC32BD33CC32BD3317333933BD338D33BD
:100200009C3329003A003B003C003D003E003F008B
:100210004000410042004300440045004C004600BD
:10022000470035001E001F0020002100220023008F
:1002300024002500260027002D002E002A0049005A
:100240004A002B0014001A000800150017001C00BB
:1002500018000C00120013002F00300031004C0079
:100260004D00390004001600070009000A000B00C9
:100270000D000E000F003300340032002800000093
:100280000000E10064001D001B00060019000500CD
:1002900011001000360037003800E5004C00000067
:1002A0005200E000E300E2004F004E004B00480027
:1002B0002C0000000000E600E7006500E4005000AC
:1002C00051000100010001000100010001000100D6
:1002D0000100010001000100010001000100010016
:1002E0000100010001000100010001000100010006
:1002F00001000100010001000100010001000100F6
:1003000001000100010001000100010001000100E5
:1003100001000100010001000100010001000100D5
:1003200001000100010001000100010001000100C5
:1003300001000100010001000100010001000000B6
:1003400000000100010001000100010001000100A6
:100350000100010001000100010001000100000096
:100360000100010001000100010001000100010085
:100370000100000000000100010001000100010077
:1003800001001E0F0500047F3F1F64321464321405
:10039000783C1E1E140A052223252628292A2C2DE6
:1003A0002F3032333536383A3B3D3E4042434547A5
:1003B000494A4C4E5051535557595A5C5E606264DD
:1003C0006668696B6D6F71737577797B7D7F8183EB
:1003D0008587898A8C8E90929496989A9C9E9FA1EC
:1003E000A3A5A7A8AAACAEAFB1B3B4B6B8B9BBBC0D
:1003F000BEBFC1C2C3C5C6C7C9CACBCCCDCED0D182
:10040000D2D2D3D4D5D6D7D7D8D9D9DADADBDBDB79
:10041000DCDCDCDCDCDDDDDDDDDCDCDCDCDCDBDB1A
:10042000DBDADAD9D9D8D7D7D6D5D4D3D2D2D1D06E
:10043000CECDCCCBCAC9C7C6C5C3C2C1BFBEBCBB6B
:10044000B9B8B6B4B3B1AFAEACAAA8A7A5A3A19FE3
:100450009E9C9A98969492908E8C8A8987858381A7
:100460007F7D7B79777573716F6D6B696866646288
:10047000605E5C5A5957555351504E4C4A49474556
:100480004342403E3D3B3A3836353332302F2D2CF7
:100490002A292826252322FFAA7F55400000000094
:1004A0000000000000000001010203040506080A24
:1004B0000C0F1114181C2024292E33393F464C539D
:1004C0005B626A7179818A929AA2AAB2B9C1C8CFD5
:1004D000D5DCE1E7EBF0F4F7FAFCFDFEFFFEFDFCF6
:1004E000FAF7F4F0EBE7E1DCD5CFC8C1B9B2AAA2C4
:1004F0009A928A8179716A625B534C463F39332EF6
:100500002924201C1814110F0C0A080605040302E4
:1005100001010000000000000000000000010101D6
:1005200001010101010102020202020202020203B0
:100530000303030303030304040404040404050580
:100540000505050606060606070707070708080843
:1005500008090909090A0A0A0B0B0B0C0C0C0D0DF2
:100560000D0E0E0E0F0F0F1010111111121213138A
:100570001414151516161717181819191A1A1B1B03
:100580001C1D1D1E1E1F202021222223242425265F
:1005900026272829292A2B2C2D2D2E2F3031323297
:1005A000333435363738393A3B3C3D3E3F404142A3
:1005B000434445464748494A4C4D4E4F5051535489
:1005C000555658595A5B5D5E5F616264656668693D
:1005D0006B6C6D6F7072737577787A7B7D7E8082BD
:1005E000838587888A8C8E8F91939596989A9C9E06
:1005F000A0A2A3A5A7A9ABADAFB1B3B5B7BABCBE16
:10060000C0C2C4C6C9CBCDCFD1D4D6D8DBDDDFE2E2
:10061000E4E7E9EBEEF0F3F5F8FAFDFF0000000087
:10062000000000002A2B280000000000000000004D
:100630000000000000000029000000002C1E3420F3
:10064000212224342627252E362D3738271E1F2019
:100650002122232425263333362E37381F0405065E
:100660000708090A0B0C0D0E0F10111213141516A2
:100670001718191A1B1C1D2F3130232D35040506A0
:100680000708090A0B0C0D0E0F1011121314151682
:100690001718191A1B1C1D2F3130354C0000000093
:1006A000000000000000000000000000000000004A
:1006B000000000000000000000000000000000003A
:1006C0007E0F00D4FFFFFFC7000000781403540022
:1006D0004B004C00200041002F0042003800370042
:1006E0000000080354004B00430000000403090409
:1006F00009025B00030100A0FA09040000010301E4
:1007000001000921110100012244000705810308AD
:100710000001090401000203000000092111010089
:1007200001222200070582032000010705030320A0
:100730000001090402000103000000092111010069
:100740000122B60007058403200001120100020007
:100750000000084B5407000100010200010660FF81
:100760000961A1010962150026FF00952075088125
:10077000020963150026FF00952075089102C00547
:10078000010902A10185020901A100050919012938
:100790000815002501950875018102050109300938
:1007A000311581257F950275088106093815812547
:1007B0007F950175088106050C0A38021581257F91
:1007C000950175088106C0C005010980A101850356
:1007D00019012AB700150126B7009501751081008F
:1007E000C0050C0901A101850419012AA002150107
:1007F00026A002950175108100C005010906A1011E
:100800008506050719E029E71500250195087501FA
:1008100081020507190029EF1500250195F07501E2
:1008200081020508190129059505750191029501B7
:1008300075039101C005010906A101050719E02909
:10084000E71500250195087501810295017508815C
:10085000010507190029FF150026FF0095067508F8
:100860008100050819012905150025019505750167
:100870009102950175039101C00011241FBECFEFB5
:10088000DAE0DEBFCDBF04B603FE18C080911804C5
:1008900090911904A0911A04B0911B048730904BD9
:1008A000A740B04B59F410921804109219041092FA
:1008B0001A0410921B04E0E0F8E3099512E0A0E0AE
:1008C000B1E0EAECFBE602C005900D92A230B10760
:1008D000D9F724E0A2E0B2E001C01D92A831B2072E
:1008E000E1F70E94F4130C94E3358ACB8230C8F40C
:1008F0006630B8F44031A8F4E62FF0E096E0899F26
:10090000E00DF11D112484E0EE0FFF1F8A95E1F741
:10091000E40FF11DEE0FFF1FEE5FFD4F85919491E7
:10092000089581E090E0089581E0089581E00895C0
:10093000FDCF0895FBCF0895FDCF0895F7CF08951B
:10094000F5CF08950895FECF0895FCCF089508953A
:10095000FECF0895A6E0B0E0E0EBF4E00C94A13403
:1009600049835A839E833091090289819A8131118A
:1009700012C03E81332349F0222339F097D5182F36
:10098000682F89819A8171D502C080D5182F69811D
:100990007A81812F03C08AD569817A810E94E21011
:1009A0002696E3E00C94BD34FC01262F4081518152
:1009B0006281738184819581CDCFCF93DF93EC01E8
:1009C00061E0F2DFBE01BADF882331F061E0CE01E1
:1009D000EBDFBE01B1DF02C080E090E08170DF910B
:1009E000CF9108950F931F93CF93DF93EC0160E0B5
:1009F000DBDF8C01BE01A7DFBE01C801A6DFDF91EE
:100A0000CF911F910F91089591E001C0990F8A95A0
:100A1000EAF7892F8DC4CF93C82F81E00C2E01C037
:100A2000880F0A94EAF70E94CE0E8C2FEDDFCF914B
:100A3000089581E00895FDCF0895FBCF0895CF93E9
:100A4000C82F2AD48C2FF7DF8C2FF7DF2FEF84E30A
:100A50009CE0215080409040E1F700C00000CF9121
:100A6000089581E0ECDF0C94F22C80E0E8DF0C9438
:100A7000162D0F931F93CF93DF938C0161E094DFCA
:100A8000EC01F801858181110E94061BB801CE019D
:100A90004FDF882309F468C0B801CE0151DF8823F5
:100AA00009F462C0B801CE010E940828882309F425
:100AB0005BC0B801CE010E941B1C882309F454C0FE
:100AC000B801CE010E943327882309F44DC0B80134
:100AD000CE010E945522882309F446C0B801CE01F8
:100AE0000E942B22882309F43FC0B801CE010E9446
:100AF0000C148823C9F1B801CE010E947527882300
:100B000099F1B801CE010E94DC11882369F1F80146
:100B10008581882331F1C330FCE7DF07C9F040F459
:100B2000C115ECE7DE0791F0C130DC4799F019C040
:100B3000CB358CE7D80799F0CC35ECE7DE0761F0D0
:100B4000CA35DC4771F40E948F0E0BC08ADF0CC0DF
:100B50000E94C30E8ADF08C00E94870E02C00E9456
:100B6000910EC801E1DE01C080E0DF91CF911F91BD
:100B70000F910895EDDE0E94282C80E00E94FE1B5C
:100B80002BD00C949A190E94421B28D00E945F1A05
:100B9000DEDE0C942E2C81E0089581FF02C0899A3C
:100BA00001C0899882FF02C0889A089588980895A4
:100BB000CF93DF93D82FEFDFC82F882311F08D2F2D
:100BC000ECDF8C2FDF91CF910895819A8998809ADC
:100BD00088980895EDCF089580E0FCCF0E940B2AFD
:100BE000F9CFCF930E940B2AC82F80910402C81717
:100BF00071F0C09304020E94C02C609305027093B0
:100C0000060280930702909308028C2FE3DFCF91B6
:100C10000895ADE0B0E0EFE0F6E00C94A234488730
:100C200059876A877B878C879D87911199D7CE01D9
:100C3000019627E0FC0111922A95E9F726E0FE01D2
:100C40003896DC0101900D922A95E1F72D81211152
:100C500009C029813A814B815C816D817E818F81C0
:100C6000CFD603C0AADE8111F4CF2D96E2E00C941A
:100C7000BE34FC012481213019F48081918142C469
:100C80000895662319F00E94C12302C00E94142413
:100C90000C948B24CF93882309F486C0C82F823804
:100CA00099F40E941A2A81FD7FC089E30E94532B88
:100CB000D6D72FEF87EE93E0215080409040E1F7A8
:100CC00000C0000089E314C08338B1F40E941A2ADE
:100CD00080FD6AC083E50E94532BC1D72FEF81EEC0
:100CE00094E0215080409040E1F700C0000083E58F
:100CF0000E946A2BB4D758C0843899F40E941A2AEB
:100D000082FD52C087E40E94532BA9D72FEF81EEBA
:100D100094E0215080409040E1F700C0000087E45B
:100D2000E7CF8CEF8C0F813A90F48C2F0E946F1FCD
:100D300081113AC08C2F0E94C92A882321F08C2F60
:100D40000E946A2B8CD78C2F0E94532BD3CF80E22A
:100D50008C0F883040F4C77081E001C0880FCA95BD
:100D6000EAF7E1D6C7CFEBE5EC0FE33040F4F0E073
:100D7000E259FE4F808190E00E944D2A15C0E8E5BF
:100D8000EC0FEB3150F4F0E0EE0FFF1FE85CFE4F8C
:100D9000808191810E94742A07C083E38C0F833184
:100DA00018F461E08C2F6DDFCF910895882309F44A
:100DB0004DC0823851F40E941A2A81FF47C089E34E
:100DC0000E94532B4CD789E30BC0833861F40E94F7
:100DD0001A2A80FF3BC083E50E94532B40D783E54E
:100DE0000E946A2B3CC7843851F40E941A2A82FF61
:100DF0002DC087E40E94532B32D787E4F1CF9CEFBC
:100E0000980F913A68F390E2980F983048F4877001
:100E100091E001C0990F8A95EAF7892F8AD6E2CF2F
:100E20009BE5980F933020F480E090E00C944D2ADD
:100E300098E5980F9B3120F480E090E00C94742AA0
:100E400093E3980F933110F460E01BCF08951F9344
:100E5000CF93DF93182FEB011DDF209741F08FE92F
:100E60009FE00197F1F700C000002197F6CF812F96
:100E70009DDFDF91CF911F910895893319F060E0D4
:100E800070E002C060E570E0E2CF882311F04BD63D
:100E9000E6C60895882311F04CD6E1C60895A0E077
:100EA000B0E0E5E5F7E00C949C347C01062FC72FF9
:100EB000FC01D581168112951F702BD68823E9F08D
:100EC000DD23D9F08C2F807F803461F080E2800FA9
:100ED000883098F08C2F807E803221F4023068F0C8
:100EE000112359F08091830382FF07C082E0E9D685
:100EF00010D691E0D82ED92601C0D12CCC2EC29488
:100F00008FE0C8228C2D90E08C30910508F067C1ED
:100F1000FC01EA5AFF4F0C945A348C2F807FCF701B
:100F2000882311F0C295C07FDD2381F0CC2309F422
:100F300044C180E2800F883010F0011103C08C2F73
:100F4000F2D502C08C2FFFD58AD637C1802F2EDF75
:100F5000CC2309F444C180E2800F883018F10023CB
:100F600009F18C2FF6D520C08C2F807FCF70803276
:100F700011F0C295C07F002319F0013051F133C048
:100F80008091830382FD12C0DD2339F0CC2319F058
:100F90008C2FC9D564D680E011C180E007DFCC2357
:100FA00009F41DC18C2FC5D55AD619C1DD2341F0D6
:100FB0001123E9F0113009F012C18C2FD9D50FC1DE
:100FC00011110DC18C2F66DF8C2FDDD58C2F55D6DE
:100FD00006C1DD2321F0163008F001C108C015302C
:100FE00008F0FDC014C0DD2329F01111E6C08C2FDC
:100FF0004CDFF5C0112359F0093309F0EEC0FFEFC3
:1010000027EE83E0F15020408040E1F7E4C08C2FD0
:1010100041DFE5C08C2F86958695837019F081306D
:1010200061F0DDC0DD2321F0802F9C2F937002C082
:1010300080E090E00E944D2ADAC0DD2321F0802F6D
:101040009C2F937002C080E090E00E94742ACFC071
:101050006D2F802F16DECBC08C2F837059F5D111E8
:10106000C2C0402F429546954770440F440F202F31
:101070002F70042E01C0220F0A94EAF704FF08C063
:101080008FE090E001C0880F4A95EAF7809501C093
:1010900080E0C695C695C370822BC23039F040F40B
:1010A000C13011F04BD19FC045D19DC04BD19BC0E9
:1010B0003FD199C0DD2319F08C2F817001C0869536
:1010C000882309F490C0402F429546954770440FFD
:1010D000440F202F2F70042E01C0220F0A94EAF72C
:1010E00004FF08C08FE090E001C0880F4A95EAF73E
:1010F000809501C080E0C695C695C370822BC23032
:1011000039F040F4C13011F052D16DC04CD16BC0F8
:1011100052D169C01BD167C0CF70DD2329F08C2F5D
:1011200023D1802FB2DE5FC0802FB4DE8C2F26D17A
:101130005AC0023F11F128F4003F41F0013FB9F0DD
:1011400038C0033F01F1043F71F033C0DD2339F0B3
:10115000153008F044C08C2F8F711BD140C0163061
:1011600008F03DC0F8CF8091830382FD14C0DD23D9
:1011700031F08C2F8F71F8D032C0DD23D1F38C2F5A
:101180008F71FCD02CC0DD2321F08C2F8F71E5D026
:1011900026C0E1D024C0DD2329F063E08C2F8F71BD
:1011A00079D51DC081E08DD51230C8F082E089D597
:1011B00016C0DD2329F01123E1F2802F6BDD0FC073
:1011C0001123E9F2093349F49FEFE7EEF3E0915080
:1011D000E040F040E1F700C00000802FE7DD88EF3D
:1011E0008C0D843020F40E940B2AF4DC0DC0DD202D
:1011F00059F08BD480FD08C0F701158280D4B4D09B
:10120000C7011BD07CD4BAD0CDB7DEB7E8E00C94D0
:10121000B8340F931F93CF93DF93EC0168817981EA
:101220008D8179D18C01CBD072D0B801CE0137DE5F
:10123000DF91CF911F910F910895CF93DF93FC0120
:1012400024812223A9F0EC0114DC81110DC061D4AA
:10125000882371F08D81882359F08091830382FF68
:1012600007C082E02ED504C0CE01D3DFCE01BADBA9
:10127000DF91CF91089580E090E00E944D2A80E0B8
:1012800090E00E94742A6CD4EAD40E94A8240C94A2
:101290008B240E94812BEFCF53D4FBCF92959F706C
:1012A000963079F010F4925001C09A50923068F460
:1012B000803F69F018F4883E40F409C0843F29F467
:1012C00006C0883E20F0813F11F080E0089581E063
:1012D0000895FC012481222321F08081918112D183
:1012E000DDCF80E00895A6E0B0E0E9E7F9E00C94F6
:1012F000A2342696E2E00C94BE34A7E0B0E0E3E826
:10130000F9E00C94A2342796E2E00C94BE340895E0
:101310000895FECF0895FDCF0895FACF0895F8CF30
:101320000895FDCF0895F9DFFCDF80932F02089523
:10133000FACF089590912F02892BF5CF90912F022B
:101340008923F1CF90912F028927EDCFE1DFE3DFF1
:1013500080932E02089580E0F9CF91E001C0990FAB
:101360008A95EAF7892FF2CF21E030E001C0220F01
:101370008A95EAF780912E02822BE8CF21E030E0B7
:1013800001C0220F8A95EAF7209580912E028223D0
:10139000DDCF21E030E001C0220F8A95EAF780918D
:1013A0002E028227D3CF90912E02892BCFCF9091FE
:1013B0002E028923CBCF90912E028927C7CF089583
:1013C000962F9770A1E001C0AA0F9A95EAF793E0D3
:1013D000769567959A95E1F7FB01EE0FFF1F6E0F6B
:1013E0007F1FFA01E60FF71F40E050E0682F70E022
:1013F00090819B01042E02C0369527950A94E2F74E
:101400002170219529272A23292721934F5F5F4F98
:101410004330510569F708959B01782F777043E0B9
:10142000969587954A95E1F7FC01EE0FFF1F8E0F09
:101430009F1FF901E80FF91F40E050E080E0219183
:1014400030E0072E02C0369527950A94E2F7217006
:101450003327042E01C0220F0A94EAF7822B4F5F34
:101460005F4F4330510559F70895282F963068F49F
:10147000803158F4862F622F70E020E1929F600D3A
:10148000711D11244AE052E09BCF0895963060F41C
:10149000803150F4292F90E06AE072E030E1239F20
:1014A000800D911D1124B8CF80E00895CF92DF9276
:1014B000FF920F931F93CF93DF936C0100912E0245
:1014C00080912F02082BC3E0D0E010E0C8010C2E61
:1014D00002C0959587950A94E2F780FD04C0219794
:1014E000A8F7F12C06C0FC2EB6018C2F76D60197FA
:1014F000B1F38F2DDF91CF911F910F91FF90DF906E
:10150000CF900895CF93DF93EC01D0DFBE0165D675
:10151000DF91CF9108951F93CF93DF93EB019091CB
:101520000902992319F0CB01EDDF0FC0882339F0B0
:10153000CB01BCDF182F682FCE0197DF03C0CB0192
:10154000A5DF182FBE01812F48D6DF91CF911F91C3
:101550000895E1E0F0E0DF0102C0AA0FBB1F6A9529
:10156000E2F7BD01DF0102C0AA0FBB1F4A95E2F7F7
:10157000AD01462B01C0EE0F2A95EAF7942F982370
:10158000491302C08E2B0895E0958E230895242FD1
:10159000462F682F80912E02DCDFD8CE1F93CF9389
:1015A000DF93C091300217E080913102C81799F0A3
:1015B000D0E01C9FF0011D9FF00D1124EE5CFD4F4B
:1015C000208131814281538164817581868195DEDC
:1015D0002196C770E9CFDF91CF911F910895209197
:1015E0006A0230916B0240916C0250916D026091E1
:1015F0006E0270916F02809170027FCECF93DF9365
:101600008091700282958F7009F04CC080916F02BA
:10161000882309F447C080913002409131025091F3
:101620006B0260916A02C0916C02D0916D0277E00A
:101630008417C1F190E0789FF001799FF00D11249B
:10164000DF01AE5CBD4F14962C911497222339F123
:1016500011962C911197251322C02C9126131FC08F
:1016600015962C91159721111AC012962D913C9127
:1016700013972C1B3D0B283C310588F48091700298
:101680008F70806180937002E85CFD4F80818F7065
:10169000806180838AE692E0D0DD80DF03C001961E
:1016A0008770C6CFDF91CF9108952091300290913D
:1016B000310257E02917A9F030E0529FF001539F03
:1016C000F00D1124EE5CFD4F7181761306C0708120
:1016D000781303C07581741306C02F5F3F4F2770C6
:1016E000E9CF80E0089581E00895A4E1B0E0EBE760
:1016F000FBE00C9498348C0186E0F801DE011F9623
:1017000001900D928A95E1F7F8018481E5809AE6CF
:10171000A92E92E0B92E90916E02911115C08823E6
:1017200009F467C1EE20B9F1C801D3DDF82E882392
:1017300091F187E0F801D50101900D928A95E1F7CA
:10174000C50197DA5BDF51C1F801C080D18082808A
:101750009380F0906F0220916C0230916D02A40191
:10176000421B530BFF2009F4E8C0483C510508F028
:1017700096C0882309F43FC180917002282F207FF2
:1017800090916B02222351F09D1509F45AC0C801B3
:10179000A0DD81115EC0C80150DD2BC19D1113C0B9
:1017A00090916A029C110FC0E1100DC08F70806192
:1017B0008093700214DF8AE692E03FDD8091700230
:1017C000F801868314C1E11036C040E06D2D8C2DE8
:1017D0006CDF40E06D2D8C2D68DFE82E811107C194
:1017E000CF86D88A8F8598898DDE292F22952F70F4
:1017F000243020F49F70223028F009C02A50223073
:1018000080F014C0992349F0811107C012C09923B8
:1018100021F0F8019681907F61F0805E883030F48D
:1018200008C0803F30F0815F833018F0C80105DDCB
:10183000EF2CFE2CE0C080917002816080937002DA
:10184000D6C090916A029C11A2CFE110A0CFF801FE
:101850009FC0EE2009F49FCF20917002822F8295C5
:101860008F7090E0029784F080916A0290916B02F1
:10187000998788879B868A8680916E028C871D86D1
:101880002E87CE010896D9DC87E0F801AAE6B2E0FF
:1018900001900D928A95E1F7B1DEA1DEAAC0909188
:1018A0007002292F207F89F4682D9A8A898AA601DF
:1018B0007A899E2D18DD8AE692E0BFDC87E0F5018B
:1018C00011928A95E9F78BDE92C0882309F493C0C0
:1018D00080916B028D1110C080916A028C110CC036
:1018E000E1100AC0F8019683C801A7DC87E0F50182
:1018F00011928A95E9F77FC0C801EBDC882309F4CF
:101900004ACFEE2009F447CF20917002822F8295B2
:101910008F7090E002970CF4B7CF80916A0290919B
:101920006B029A8389839C828B8280916E028D8365
:101930001E822F83CE010196A6CF483C510508F0A8
:1019400048C0882309F455C0FE2CEE2009F423CFAB
:1019500080916B028D1131C080916A028C112DC073
:101960009091700290FD20C0892F82958F70282F52
:1019700030E021153105C1F0F80196832F30310593
:1019800041F08F5F982F9295907F86818F70892B81
:101990008683C80152DC87E0F801AAE6B2E0019034
:1019A0000D928A95E1F721C087E0F801AAE6B2E03E
:1019B00001900D928A95E1F71EC0C8018ADC811161
:1019C00063CF80917002816080937002C80135DC22
:1019D00012C0682D9A8A898AA6017A899E2D83DC95
:1019E00087E0F50111928A95E9F7F9DD04C0F12C41
:1019F00002C0FF24F3948F2D6496ECE00C94B43471
:101A0000AEE0B0E0E6E0FDE00C94A1342887398731
:101A10004A875B876C877D878E87CE01089665DE57
:101A2000882359F06C85662399F1288539854A8584
:101A30005B857D858E8561DC2BC087E0FE01389655
:101A4000DE01119601900D928A95E1F76C8566236F
:101A5000F9F02091310230E0C90101968770992791
:101A60004091300250E084179507C9F16D8397E0EB
:101A7000929FD001939FB00D1124AE5CBD4FFE012B
:101A8000319601900D929A95E1F78093310286DDAF
:101A900017E08091300290913102891761F1189F0F
:101AA000C00111248E5C9D4F20DE882321F1E0913E
:101AB00030021E9FF0011124EE5CFD4F2081318128
:101AC0004281538164817581868117DC8091300267
:101AD00090E001968770992780933002DACFDCDBA3
:101AE0001092310210923002EAE6F2E087E0DF0164
:101AF0001D928A95E9F72E96E3E00C94BD3480910F
:101B000099028695869586950895809199028770A9
:101B1000089590919902977081E009F480E008950A
:101B20008091C50208959091C502892B8093C502CA
:101B3000089580959091C50289238093C5020895E8
:101B40001092C50208959091C402892B8093C4021B
:101B5000089580959091C40289238093C4020895CA
:101B60001092C40208950895FECF0895FDCF089500
:101B700090919B02292F2823821721F0982B909374
:101B80009B02F4CF089590919B02292F282329F0DE
:101B90008095892380939B02E9CF089580919B02D1
:101BA000882321F010929B0280E0E0CF0895CF932C
:101BB000C091C5028091C402C82B80919B028823EA
:101BC00029F0C82B0E94A82A8111E8DF8C2FCF9121
:101BD0000895CF93DF93C0910601D0910701E7DF0D
:101BE0008883C0910601D091070148E050E061E987
:101BF00072E0CE010E946235892B59F088E0FE0127
:101C0000A1E9B2E001900D928A95E1F7CE010E9420
:101C10001C2ADF91CF910895CF93DF93C0910401E7
:101C2000D0910501C4DF8983C0910401D0910501E1
:101C300040E250E061E772E0CE010E946235892BFC
:101C400059F080E2FE01A1E7B2E001900D928A9581
:101C5000E1F7CE010E94292ADF91CF9108950E94D9
:101C6000042A882329F08091820387FF01C0D4CF02
:101C7000B0CF79CF0895FDCF089590919A02292F82
:101C8000282329F08095892380939A02F4CF089520
:101C90006ACF08959091830392FF0EC098E0899FC8
:101CA00090011124262B209399025EDB80919902EA
:101CB000869586958695ECCF57CB1092990280E059
:101CC000E7CF909199028095892380939902282FDC
:101CD000277059F4981749F09091830392FF05C03B
:101CE0008695869586954ADBE8CF08959091830383
:101CF00092FB222720F9281749F080FB92F9909354
:101D0000830382E893E04ED082E0DBCF0895809198
:101D1000830382FB882780F991E08927E7CF81E060
:101D2000E5CF80E0E3CF60E070E0CB0115C460E078
:101D300070E0CB010BD4F7CFA4E0B0E0E2EAFEE024
:101D40000C94A2344CD357D31C82CE0104966AD390
:101D500081E080932F0270D31A8219828A81846075
:101D600080618A83CE01019678D31B82CE010396CF
:101D700086D36DD60E94F027DADF2496E2E00C9439
:101D8000BE34DACF08953DC308952AD381110C944F
:101D9000B62708953CC308954BC308954DC30895D5
:101DA00050C308955AC308955FC3089568C3089542
:101DB0006CC30895ABC30895D5C30895A6E0B0E001
:101DC000E4EEFEE00C94A0340E94B42C8C018091CF
:101DD000C6029091C7020817190781F019821A826A
:101DE0000E94B42C682F49815A81792F80E090E0BD
:101DF0000E9409061093C7020093C6022696E4E0EB
:101E00000C94BC340E94C02C6093D8027093D90209
:101E10008093DA029093DB026093D4027093D50230
:101E20008093D6029093D702089581E0089581E0CF
:101E30000895FDCF08950895FECF0895FCCF08952D
:101E4000FACF0895F8CF0895FDCF0895F9DFFCCFBC
:101E5000F2CF0895F0CF0895FDCF0895F9DFFCCFBC
:101E6000EACF08958AED91E1D2D4FADFF7CFE6DF29
:101E7000E3DFE1CF8ADF811101C083DF8CED92E0E7
:101E800089DF82E893E08CDF0E94751E85DF50DADF
:101E900080912E0240CA0E94AB2C0E94FC271BD4CA
:101EA000E9DF0E94E5050E94851D0E94421B0E94F9
:101EB000201ACCCFA6E0B0E0E0E6FFE00C94963428
:101EC000B4DF811102C07ADF5CC017D428ECE22EA7
:101ED00022E0F22E5701D12CF501019111915F0101
:101EE0008D2D45D380279127D394F6E0DF1619F086
:101EF000892B91F302C0892B31F38091DC0281FDA3
:101F00003FD397DF782E10E066246394812F2FD380
:101F10004C01F701A080B180A826B926A114B10414
:101F200049F100E0CC24C394D12CC5018C219D2122
:101F3000892BC1F07720B1F009831A830E94B42C59
:101F40009C838B836D8221E0C4018C219D21892B90
:101F500009F420E049815A816B817C818D81922F27
:101F60000E9409060F5FCC0CDD1C0031F1F6F70171
:101F7000918280821F5FF2E0EF0EF11C163031F685
:101F800041DF0E94071B0E94E31C0E94CA240E949A
:101F9000F1052696EEE00C94B2341F93CF93DF93B5
:101FA0001ED1EC01C11580E5D807E8F5C11590E414
:101FB000D90708F0A6C0C03ED10530F5CD3CD1050B
:101FC00008F094C0C83AD10578F4C53AD10508F0B4
:101FD00083C0C130D10509F47CC008F4EBC0C43023
:101FE000D10508F0EAC0E6C0C33CD10508F0E2C064
:101FF000C85AD0E0CC0FDD1FCF58DE4F0990D881F2
:10200000C02DCE019464DAC0C11580E2D80708F073
:10201000C6C0C11591E0D90708F06BC0C83ED10514
:1020200008F4CBC0C7C0C03682E5D80728F5C03455
:1020300092E5D90708F076C0C03282E5D80708F0EB
:1020400069C0C11592E5D90708F47EC04C2F4695AA
:10205000469580E2489FA0011124C37021E030E042
:10206000C90102C0880F991FCA95E2F7EA01C82B7F
:10207000D92BCE019D68A2C0C03A82E5D807B8F43A
:102080008C2F8F71C03892E5D90708F077C08695FC
:10209000869590E2899F90011124C37081E090E0C1
:1020A00002C0880F991FCA95E2F79A6864C0C03CC5
:1020B00082E5D80708F469C0C03E92E5D90708F068
:1020C00079C0CF71DD27DC2FCC27CE01806F906ADD
:1020D00075C081E090E072C0C55AD0E0C955DE4FAE
:1020E0008881C82FD0E0CE01906468C0CE01906591
:1020F00065C08D2F10D1182FCE01992770D01F7178
:1021000057C0CE0199276BD0CC27DF70D06A8C2BBB
:102110009D2B54C0CF71D0E0DC2FCC27CE01816F36
:10212000906A4CC08C2F8F718695869590E2899F1E
:1021300090011124C37081E090E002C0880F991FC4
:10214000CA95E2F79C6817C08C2F8F71E4D095E098
:10215000D695C7959A95E1F7CF70D0E0DC2FCC27C4
:10216000282F30E084FF05C084E0220F331F8A95BA
:10217000E1F7D069CE01822B932B20C090E0D82FBD
:10218000CC27CE01846F906A19C08C2F8F71C3D079
:102190008F7190E0D82FCC27CE0190620FC08D2F89
:1021A0008F71B9D0182FCE01992719D01F71906265
:1021B000912B04C080E090E001C0CE01DF91CF916F
:1021C0001F910895763030F4603120F4462F672F48
:1021D0000C94172080E090E00895F4DFDECE823882
:1021E000910569F1B0F48133910509F475C048F4A3
:1021F0008932910509F467C08A32910509F471C0EA
:1022000008958533910509F459C089339105B9F0D2
:102210000895833E910589F138F4803E9105D1F00F
:10222000823E910529F10895863E9105C9F1873EC8
:102230009105D9F1843E910509F06CC027C0209129
:10224000820320FD57C021FD55C02091830323FD4B
:102250005BC008958091820380FD48C08091830314
:1022600080FF48C08091820384FD46C083EE51C048
:102270008091820382FF3CC0F5CF8091820382FD72
:1022800037C08091830380FD35C0ECCF80918303FC
:1022900081FF36C08091820384FD2EC087EE39C055
:1022A0008091820383FF2AC0F5CF8091820383FD52
:1022B00025C08091830381FD23C0ECCF80918203F0
:1022C00085FD22C01FC08091820385FD1BC08091C7
:1022D000830383FF19C00AC08091820386FD16C064
:1022E00017C08091820386FD13C010C089E311C01E
:1022F00082EE0FC080EE0DC080E00BC086EE09C0FC
:1023000084EE07C085E305C089E203C08AE201C00C
:1023100081E390E008959091820392FF10C041E024
:10232000282F2471243009F040E031E0282F287153
:10233000283009F030E0431711F02CE0822793FF9A
:1023400010C041E0282F2471243109F040E031E031
:10235000282F2871283109F030E0431711F02CE0C4
:1023600082273091830330FF10C051E0282F217164
:10237000213009F050E041E0282F2871283009F081
:1023800040E0541711F029E0822731FF10C041E0EE
:10239000282F2171213109F040E031E0282F2871E8
:1023A000283109F030E0431711F029E0822794FD2D
:1023B000877E089580E00895CF939C01205E32458A
:1023C0002032310540F4FB01C581C11105C08F7178
:1023D0000E940B0501C0C1E08C2FCF910895089594
:1023E00080E090E00E94853521E0833E9E4F09F019
:1023F00020E0822F089563EE7EEF80E090E00C9461
:10240000B3356FEF7FEF80E090E00C94B335CF935E
:10241000DF93EC0182E090E00E9478358883DF91C1
:10242000CF910895FC01608182E090E00C94993591
:1024300083E090E00C947835682F83E090E00C9472
:102440009935CF93DF93EC0184E090E00E948535CD
:1024500099838883DF91CF910895FC016081718118
:1024600084E090E00C94B335CF93DF93EC0186E0E9
:1024700090E00E9478358883DF91CF910895FC0128
:10248000608186E090E00C9499354F925F926F9254
:102490007F928F929F92AF92BF920F93CF93DF93D1
:1024A000EC0188E090E00E9480352B013C016883BC
:1024B00059826A827B821C821D821E821F8283E275
:1024C00090E00E947835282F30E040E050E060E056
:1024D00070E080E090E000E20E94C93424293529B0
:1024E00046295729288339834A835B836C837D83FC
:1024F0008E839F83DF91CF910F91BF90AF909F907C
:102500008F907F906F905F904F9008950F93CF932F
:10251000DF93EC01488159816A817B8188E090E0FA
:102520000E94AB35288139814A815B816C817D8134
:102530008E819F8100E20E94E434622F83E290E06A
:102540000E949935DF91CF910F910895AB01BC01A5
:102550008FE090E00C94AB35AB01BC0183E190E0DF
:102560000C94AB35682F8EE090E00C949935E82FF1
:10257000F0E0EE0FFF1FE057FC4F8081918108953E
:10258000089580EA8A95F1F7089500C00895F9CF7B
:1025900008950895FECF0895FDCF0895FACF0895C8
:1025A000FDCF0895F894E82FE295EF70F0E031A1A7
:1025B000282F2F7081E090E001C0880F2A95EAF75C
:1025C000982F9095932391A392A1892B82A378941D
:1025D00008950F931F93CF93DF93CAEBD1E08991B6
:1025E0008F3F09F0DFDF81E0C03CD807C1F7CAEABE
:1025F000D1E00AEB11E089918F3F09F0D3DF0C178E
:102600001D07C9F7DF91CF911F910F910895A0E0A9
:10261000B0E0EDE0F3E10C949B348C01C62FD0E0E8
:10262000CE0186549E4F6C01FC0190819F3F09F4BE
:102630004DC0B62EF894E92FE295EF70F0E081A13D
:102640009F7021E030E001C0220F9A95EAF7822BBB
:1026500081A382A12095282322A3789496DFEAEA19
:10266000F1E04AEB51E021E030E0E12CF12C619106
:102670006F3F89F0A62FA295AF70B0E090968C9135
:1026800090E06F7002C0959587956A95E2F780FD9E
:1026900002C0C90102C080E090E0E82AF92A220FB6
:1026A000331F4E175F0719F7F60180818F3F09F03E
:1026B00079DF61E0E114F10409F460E08B2D67DF5C
:1026C000CC0FDD1FC00FD11FF982E882CDB7DEB776
:1026D000E9E00C94B7347DDF8CE0E0E9F3E0DF0162
:1026E000982F1D929A95E9F7E4E8F3E0DF011D9237
:1026F0008A95E9F786E039D053CFACE0B0E0E3E863
:10270000F3E10C949F348E010F5F1F4F8CE0F801B2
:1027100011928A95E9F7F12C6F2DC80178DFF394B7
:10272000F6E0FF12F9CF4CE050E0B80184E893E006
:102730000E94623521E0009709F420E0892B41F0E6
:102740008CE0F801A4E8B3E001900D928A95E1F7DE
:1027500046E060E973E084E893E008D0182F1CDFBE
:10276000812F2C96E5E00C94BB340895EF92FF92F4
:102770000F931F93CF93DF937C018B01C42F2223F0
:1027800051F081E08093DF020E94B42C9093DE022E
:102790008093DD0204C08091DF02811102C080E0DD
:1027A0001CC08091DD029091DE020E94432C0597AF
:1027B000B0F3D0E0CC0FDD1FAE01B701C8010E941D
:1027C0006235892B39F0AE01B701C8010E946F351F
:1027D00081E001C080E01092DF02CDB7DEB7E6E015
:1027E0000C94BA3467CB08950E944C2C0E948C2E16
:1027F00039DB0E94A42E4FDB0E94AD2E0E94B02E2A
:10280000F1DF0E94C62E0E946F2D31DBF7CF90932F
:1028100003028093020208950F931F93CF93FB014D
:10282000C581CC2309F438C08C017AD98272F801B1
:10283000E052F847EB30F10580F5EE59FF4F0C946C
:102840005A34F6D51FC0882321F0E6D51BC0882353
:10285000E1F3D6D517C0882321F05FD213C08823B7
:10286000E1F350D20FC0882321F071D20BC088232E
:10287000E1F360D207C0882321F083D203C088230C
:10288000E1F372D2C0E009C0882321F015D1FACF5C
:102890008823E1F302D1F6CFC1E08C2FCF911F91B5
:1028A0000F910895EF92FF920F931F93CF93DF93B1
:1028B0008B01682F11110AC0442329F0E82FF0E0A2
:1028C000E45EFA4F6491762F862F75C0212F30E099
:1028D000E82FF0E0442321F0E45EFA4FE491F0E0C9
:1028E00046E0049FC0011124CFEFD0E0BE010E945A
:1028F00011344BEA4603C001479F900D1124800F0D
:10290000911D800F911D982F990F890FAE01421BC9
:10291000530B4E9FD0014F9FB00D5E9FB00D112401
:102920009B2F189FA0011124452F55278E01041BB2
:10293000150B0E9FA0010F9F500D1E9F500D1124CF
:102940007E01E81AF108E29E8001E39E100DF29EDE
:10295000100D1124212F3327C21BD30BCE9F9001C2
:10296000CF9F300DDE9F300D112462307105A9F02C
:1029700050F46115710571F061307105C1F47E2F5D
:102980008B2F952F17C06430710569F048F06630C1
:10299000710569F48B2F732F0CC07E2F832F0AC013
:1029A0008E2F752F07C08E2F7B2F932F03C0852F5F
:1029B0007B2F9E2F692FCDB7DEB7E6E00C94BA349B
:1029C00041E070CF0895FCCF089590910B01291B31
:1029D000922FE091ED01F091EE01242F462F682F08
:1029E000892F90E009950895CF93DF93762FE90121
:1029F000682F842FE8DF962F672F9E01482F892F9D
:102A0000E4DFDF91CF910895493C08F048ECECCF2A
:102A100080919C03282F2695269530E021153105BD
:102A200019F48370846005C02B32310524F0837063
:102A3000886A80939C0380919F03893C18F088ECFE
:102A400080939F030895E4DF8CE993E0B3C9ECE938
:102A5000F3E085E0808311828FEF828388EC8383AB
:102A60001482CF01A7C980919C0380FF03C0869583
:102A70008695089580E0089580919C038170089563
:102A80009091A003933018F49F5F9093A003882344
:102A900019F08CE993E08EC9089581E0F1CF90910F
:102AA000A003992319F091509093A003882319F063
:102AB0008CE993E07FC9089581E0F1CF8091A00374
:102AC00008958093A003089580919D0308958091B7
:102AD0009E03089580919F0308950F931F93CF93B2
:102AE00080919C0380FF09C0E091F101F091F20117
:102AF0000995CF911F910F910895C0910D010091FB
:102B0000ED011091EE0180910E01C81768F78091D8
:102B10000B019C2F981B20E040E060E0892F90E0A3
:102B2000F8010995CF5FEFCFEF92FF920F931F93BC
:102B3000CF93DF9390919C0390FF1BC0042F162F1F
:102B4000D82FC0910D01E090ED01F090EE01809141
:102B50000E01C81768F480910B019C2F981B202F41
:102B6000412F6D2F892F90E0F7010995CF5FEFCFAF
:102B7000B4DFCDB7DEB7E6E00C94BA3490919C0395
:102B800090FF0CC0493C08F048EC762F682F842F4A
:102B90001ADF962F672F482F892FC6CF0895CF931E
:102BA000DF93EC01EC81F0E0E956FC4F4491ECE955
:102BB000F3E062818181E2DF8C818F5F8C83DF9122
:102BC000CF910895CF93DF93EC01ECE9F3E04381DB
:102BD00062818C81D3DF8C818F5F8C83DF91CF9179
:102BE0000895CF93DF93EC0140919F039C8190FF68
:102BF00002C0842F01C080E091FF02C0642F01C099
:102C000060E092FF40E090DF8C8190E00196877059
:102C100099278C83DF91CF910895A0E0B0E0E3E1A4
:102C2000F6E10C949D34182FF62ED42FE22E9091BD
:102C30009C0390FF59C0E92FE695E695AE2FB0E0D2
:102C4000A054BE4F8C91809359039C7F943069F4BB
:102C5000842F493C08F088EC612F7F2DB4DE962F3D
:102C6000672F482F892F60DF34C0823019F4D0914C
:102C70009F032FC0863019F410919D032AC089301C
:102C8000D9F3893131F5E9518E2F8170D82EE6952F
:102C9000F0E0E956FB4FC49100E060910F01061788
:102CA000B8F40C9FC001112470E00E941134812FF0
:102CB000D11002C0860F01C0861B90910D01202FFC
:102CC00030E0290F311D4D2F6F2D9EDE0F5FE5CFB8
:102CD00004DF10939D03F0929E03D0939F03EE2098
:102CE00019F08CE993E066D8CDB7DEB7E7E00C9435
:102CF000B934ECE9F3E09181282F4381628188E0C7
:102D0000890F8BCF81E0F5CFECE9F3E09181282F9B
:102D10004381628188EF890F80CF81E0F5CFECE9B4
:102D2000F3E0628128E0620F08F46FEF282F4381FF
:102D3000818173CF81E0F3CFECE9F3E0628128E099
:102D4000621B08F460E0282F4381818166CF81E017
:102D5000F3CFECE9F3E0438128E0420F08F44FEFB2
:102D6000282F6281818159CF81E0F3CFECE9F3E034
:102D7000438128E0421B08F440E0282F62818181D2
:102D80004CCF81E0F3CF20E048CF90919C0390FF9F
:102D900011C0263178F4922F242F462F682F80916E
:102DA0000B01981BE091ED01F091EE01892F90E06D
:102DB000099593CE0895EF92FF921F93CF93DF93DF
:102DC000EC0110E0EE24EA94F12C60910F0116174B
:102DD000B0F480910D01212F30E0280F311D70E0FB
:102DE000C7010E942534962F8C8140919F036091EA
:102DF0009E03199F800D112407DE1F5FE6CF6DDE55
:102E00009A818C8190FF02C08F5F01C081508C83BA
:102E1000DF91CF911F91FF90EF900895A0E0B0E077
:102E2000E4E1F7E10C949A34FC01828180FF02C056
:102E3000DFEF01C0D1E0C0E00091ED011091EE01A3
:102E400026E1A22E80910F01C81708F043C080919F
:102E50000D0190910B01891B8C0F20E040E060E098
:102E600090E0F801099594E0E92EF12CB12CCC2EDC
:102E7000D12C8091E1028B0D87312CF06A2D0E94BC
:102E80000434892F05C087FF03C090910F01890F7B
:102E9000082E000C990BC816D906A9F480910D01D3
:102EA0009601280F311D80919F038E9DA0018F9D5B
:102EB000500D1124559547955595479560919E0362
:102EC00080919D03A1DDBD0EF1E0EF1AF10889F6B6
:102ED000CF5FB8CF02DE8091E102D13031F48111B1
:102EE00002C080910F01815007C090E0019660916F
:102EF0000F0170E00E9425348093E102CDB7DEB768
:102F0000EAE00C94B6340F931F93CF93DF93C091F4
:102F10000D010091ED011091EE0180910E01C81795
:102F200068F480910B019C2F981B20E040E060E04A
:102F3000892F90E0F8010995CF5FEFCF10E0C091A5
:102F4000ED01D091EE0160910F01161770F5E12FA0
:102F5000F0E070E0CF010E94253420910D01820F36
:102F60002091E002022E000C330BE217F30794F0DD
:102F700020910A01022E000C330B2E173F0754F04C
:102F8000282F30E040919F0360919E0380919D0324
:102F90003BDD09C090910B01891B20E040E060E01F
:102FA00090E0FE0109951F5FCECF97DD20910901CA
:102FB0008091E002820F8093E00290910A01920FCB
:102FC00090930A0119165CF4082E000C990B40919D
:102FD0000F0150E041505109841795071CF02195CD
:102FE00020930901DF91CF911F910F910895A0E0E7
:102FF000B0E0EDEFF7E10C949834EC014C81042F34
:1030000010E09801D8010E946D349B01AC010E9430
:1030100082346B017C01E0E2F0E0E01BF10BA5E5FE
:10302000B0E09B01AC010E9482344B015C019F0126
:10303000DF010E9467349B01AC010E948C349B012C
:10304000AC012C0D3D1D4E1D5F1DC501B4010E943C
:103050003834822FF22E99E2921728F093E0299FBC
:10306000900111240DC025E530E0281B3109C9016C
:10307000880F991F280F391F37FF02C02F5F3F4F5E
:1030800035952795122F109500E085E5E82EEF186D
:1030900080910F01081788F401FD02C08E2D01C038
:1030A0008F2D90910D01202F30E0290F311D412FE0
:1030B00060919E03A9DC0F5FEBCF0FDD8C81811146
:1030C00002C091E003C0803219F49FEF9093080191
:1030D00090910801890F8C83CDB7DEB7ECE00C949A
:1030E000B4340F931F93CF93DF938C01C0E0D0E0F3
:1030F00080910F01282F30E0C217D3072CF5869559
:1031000090E0F801348120910D01C817D9073CF4F3
:10311000332371F0CE01820F911D9C0106C0311145
:1031200007C0FE01E20FF11D9F0140919F0305C002
:10313000CE01820F911D9C0140E060919E03809121
:103140009D0362DC2196D4CFC8DCF801848190E035
:103150000196817099278483DF91CF911F910F9100
:1031600008952F923F925F926F927F928F929F92DB
:10317000AF92BF92CF92DF92EF92FF920F931F9385
:10318000CF93DF93FC016280548081E08483E7E980
:10319000F3E07490E6E1F4E0E491C0919F03C695FA
:1031A000C158D0E0CC0FDD1F2D2E3324812C25E01B
:1031B000922EAA24AA94B12CE719EE2EF12C80911C
:1031C0000F01881608F090C0C82CD12C22E02615DB
:1031D00068F09C9CF0019D9CF00D1124EE51FD4F78
:1031E00080919D03808380919E03818351100AC04A
:1031F0009C9CF0019D9CF00D1124EE51FD4F13821B
:10320000128260C09C9C80019D9C100D1124E801DD
:10321000CE51DD4F8B818823F9F081508B832FEFC6
:10322000829FC00111246C8170E00E941134FB0167
:10323000FF27E956FC4F8491E82FE7192FEFE29F13
:10324000C0011124B7010E94113480919F03689F2F
:10325000B00111247A8336C00E944735B5010E941F
:1032600025348215930574F582E0861588F40E9452
:103270004735B5010E94253488830E944735209147
:103280009E032695622F70E00E942534280F298323
:103290009C9CF0019D9CF00D1124EE51FD4F12827B
:1032A00080919F03843120F0893C18F088EC01C0A4
:1032B00084E19C9CF0019D9CF00D1124EE51FD4F8A
:1032C0008483838380910D019601280F311D9C9C7E
:1032D000F0019D9CF00D1124EE51FD4F4281618162
:1032E000808192DB83946BCFF8DBDF91CF911F91CC
:1032F0000F91FF90EF90DF90CF90BF90AF909F9095
:103300008F907F906F905F903F902F900895ECE9A1
:10331000F3E080818E7F8083CF010E94DA0E1092CD
:103320005A03DBCBECE9F3E080818E7F808310923F
:103330005A03D3CB10925A0380915703811109C0CD
:1033400081E08093570380919C03817080935603A2
:10335000E9CF089560919C036695669570E04BE017
:1033600050E080E191E00E945535892B19F481E00D
:1033700080935A030E94B42C90935103809350037E
:10338000089590919C0390FF2FC09370811102C00B
:10339000946007C08B3210F0986A03C0880F880FC2
:1033A000982B90939C03662321F08CE993E00E9474
:1033B000DA0E60919C036695669570E04BE050E0F4
:1033C00080E191E00E945535892B19F010925A0343
:1033D00001C0C0DF81E08093530340919F0360915F
:1033E0009E0380919D03CFCC0895682F90919C03FC
:1033F0009695969581E0890F8B3208F081E0C1CFD8
:1034000081E0F3CF682F90919C03969596958FEF6E
:10341000890F09F48AE2B5CF81E0F4CF61E0B1CF42
:10342000ECE9F3E080818160808386958695F6CF14
:1034300080919C0380FF01C06ACFF2CF60E0A1CFF2
:103440008091580381111FC08CE993E00E94D80E2F
:1034500080919C038C7F29F4FADA8CE993E00E9436
:10346000D80ED6DA10925A03E091EB01F091EC01FC
:10347000099580919C0380FF03C086958695DEDFC9
:1034800081E08093580308958CE993E00E94D80E60
:10349000BFDA80919C0380FF03C086958695CECFCE
:1034A0000895ECE9F3E080818160808386958695BC
:1034B000C5CF80919C0380FF01C034CFF2CF109222
:1034C0005703809156038111ECDF44CF0F931F9374
:1034D000CF93DF9380915A03882309F492C080919F
:1034E0005903E0919C03E695E695E81BE0935203AF
:1034F000823049F4F0E0ED56FC4FE491CE2FD0E05D
:103500000FEC15E159C0863049F4F0E0E057FC4F6C
:10351000E491CE2FD0E002EE15E14EC0893051F497
:10352000E695F0E0E357FC4FE491CE2FD0E00BEDB1
:1035300016E142C08F3051F4E695F0E0E657FC4FBB
:10354000E491CE2FD0E00EE017E136C0853149F48A
:10355000F0E0E957FC4FE491CE2FD0E003E817E10B
:103560002BC08831D9F0833239F4E5E8F3E0C59116
:10357000D49101EF15E120C08432A9F08532C1F465
:103580008E2F63E00E94F833E92FF0E0EE57FC4FF6
:10359000E491CE2FD0E001EB18E10EC0C8E2D0E0FC
:1035A00007EF17E109C0C4EFD1E001E718E104C05B
:1035B000C0EDD7E002EE14E180915303882361F05F
:1035C000109253030E94B42C9093510380935003A4
:1035D00010925503109254030E94B42CE0915003B2
:1035E000F09151038E1B9F0B8F3F9F4750F4EC0FC0
:1035F000FD1FF0935103E093500380E593E0F80141
:103600000995DF91CF911F910F91089508955ECF95
:10361000089584EA93E00C94D60E8DE18093A40380
:1036200084EA93E00C94D60E8091A4038695869547
:10363000869508958091A40381FD08C082608093DF
:10364000A40384EA93E00E94D60EBEC1089580913F
:10365000A40381FF08C08D7F8093A40384EA93E0D4
:103660000E94D60EBDC108958091A40381FF01C0C0
:10367000EECFE0CF8091A40386958170089580916C
:103680001B01089584EA93E00E94D40E8091A40364
:1036900082FFC3DF8091A403282F269526952695C7
:1036A00030E02430310524F0877088618093A403D2
:1036B0008091A40380FF04C086958695869501C0FD
:1036C00080E057C12091A403822F86958695869528
:1036D000482F50E04330510554F48F5F982F990FD5
:1036E000990F990F822F8770892B8093A403809163
:1036F000A40381608093A40384EA93E00E94D60E21
:103700008091A40386958695869533C18091A40304
:10371000982F969596959695B1F0915E990F990F81
:10372000990F8770892B8093A403887F91E009F417
:1037300090E08091A40390FB80F98093A40384EA35
:1037400093E00E94D60E8091A40386958695869577
:1037500010C18091A40380FD12C081608093A403F6
:10376000813019F489E08093A40384EA93E00E94F5
:10377000D60E8091A403869586958695FAC0089505
:103780008091A40380FF09C08E7F8093A40384EA04
:1037900093E00E94D60E80E0ECC008958091A403CF
:1037A00080FF01C0EDCFD5CF9091A403892F8695DE
:1037B000869586958F5F8F719770843038F4880F67
:1037C000880F880F892B8093A40302C09093A403D1
:1037D0008091A403887F91E009F490E08091A40394
:1037E00090FB80F98093A40384EA93E00E94D60EB4
:1037F0008091A403869586958695BBC0843008F099
:1038000083E09091A4039770282F220F220F220F9C
:10381000922B9093A403987F21E009F420E09091EB
:10382000A40320FB90F99093A403A3C0E7DF84EAEC
:1038300093E00C94D60EFC01DB0115968C91882345
:10384000C1F0F857E730F105A8F4E359FF4F0C94A5
:103850005A3483E001C080E0E9DF80E0089556DF5C
:10386000FCCF30DFFACF9ADFF8CF9EDFF6CFFCDE59
:10387000F4CF81E00895A0E0B0E0E1E4FCE10C9435
:1038800098348C0180918600909187006CE070E004
:103890000E9411346017710730F0C80169E070E0D0
:1038A0000E94113460C08091860090918700E09062
:1038B0008600F0908700E0918600F0918700C6E0D6
:1038C000D0E0BE010E94113420E030E0060F171F47
:1038D000211D311D4801590185E0880C991CAA1C45
:1038E000BB1C8A95D1F7C701BE010E9411346F013C
:1038F000E12CF12CA7019601260F371F411D511D08
:10390000C501B4010E94383469017A01E091860052
:10391000F0918700CA01B9010E94E9339B01AC0113
:10392000DF010E9482349B01AC01C701B6010E94F5
:10393000E933DC01CB012FE0B695A79597958795E4
:103940002A95D1F7009186001091870020E030E0A1
:10395000081719072A073B0728F460918600709121
:103960008700CB01BC01CB01CDB7DEB7ECE00C94F6
:10397000B434843030F4811105C090918000977F79
:1039800004C083E090918000986090938000A091A3
:103990008600B0918700282F30E00E946D3423E02C
:1039A00030E040E050E00E943834B42FA32F922F33
:1039B0008827892F9A2FAB2FBB275DDF90938D002F
:1039C00080938C000895089510925C0310925B031D
:1039D00010925D03EFE6F0E08081816080830895BE
:1039E000EFE6F0E080818E7F80831EDEC2CF1F92E3
:1039F0000F920FB60F921124EF92FF920F931F9325
:103A00002F933F934F935F936F937F938F939F93E6
:103A1000AF93BF93CF93EF93FF9380911C0191E0FD
:103A2000980F823019F090931C0159C081E0809367
:103A30001C0125DEC82F00915B0310915C030F5F12
:103A40001F4F1DDE28E7829FB0011124C8010E948C
:103A5000113490935C0380935B0328E7C29FB0010D
:103A60001124660F672F661F770B71950E94113422
:103A700067FD6FE780915D03823019F4603451F483
:103A800004C0813039F46F3729F480916F008E7F44
:103A900080936F00E62FF0E0E456FB4FC491E09076
:103AA0008600F0908700C0DD182F2C2F30E0D70162
:103AB0000E946D342FEF30E040E050E00E94383437
:103AC000C90163E070E00E941134169FC001179F86
:103AD000900D1124D0DE90938D0080938C00FF9187
:103AE000EF91CF91BF91AF919F918F917F916F9106
:103AF0005F914F913F912F911F910F91FF90EF9008
:103B00000F900FBE0F901F901895279A2F988AE05C
:103B10008093800089E1809381008FEF9FEF9093E5
:103B2000870080938600AEDDA5DD81114DCF08951D
:103B3000E5EAF3E081E2808311828DE1828382E015
:103B4000838360E2CF0174C0E5EAF3E082E2808320
:103B500081E08183128286E0838360E2CF0168C0C6
:103B6000E5EAF3E083E2808311821282138260E24D
:103B7000CF015EC0FF920F931F93CF93DF93EC01B1
:103B8000F9800A81802F90E08F0D911D479714F0E6
:103B90008DEF05C00A3010F410E008C08EEF80935E
:103BA000A60360E285EA93E043D00BC0239610178A
:103BB00041F0212F2F0D4A8169818881E6D81F5F4E
:103BC000F5CFCDB7DEB7E5E00C94BB34E5EAF3E022
:103BD00087E2808386E1818360E2CF0129C0E5EA44
:103BE000F3E088E2808382E0818360E2CF0120C03D
:103BF000DC01EC914E2F50E0FA01B197E830F1056D
:103C000098F4EC58FF4F0C945A3492DF01C09CDFBB
:103C100081E00895A5DFFCCFADDFFACF35DCF8CF2A
:103C2000D5DFF6CFDCDFF4CF80E00895E1CF089553
:103C30000C949B2A08956A9A0895FC01EE0FFF1FC9
:103C40008E0F9F1FFC01EB53FC4F61834083228347
:103C50000895E5ECF3E0818360834283339694E03A
:103C6000E730F907C1F708958EB18B7F9EB194605C
:103C70002FB7F894E5ECF3E034E0E730F30789F090
:103C8000319148E09EB9000000C037FF8EB9330F74
:103C9000000000C000C000C08EB900C04A9591F776
:103CA000EBCF2FBF8FE594E00197F1F700C0000044
:103CB00008950C94C30E089580E00E94B71281709D
:103CC00008950E947D132FEF86E791E021508040F8
:103CD0009040E1F700C000000E947D13EDDF8823D3
:103CE00019F0E7DF0C94F22C0895EBCF0895893298
:103CF00089F1F0F4843171F1B0F4873009F077C0C4
:103D000081E08093240184E1809323018AE0809301
:103D100022018EE18093210188E080931E0188E2D8
:103D200080931D0164C092EE980F9A30F0F05FC04E
:103D3000803509F444C028F48F3409F058C08AE073
:103D40003FC0813529F0823509F051C081E038C08B
:103D50008FEF36C080916003882379F11092600361
:103D600010925F0310925E0342C08D5180936003F6
:103D7000833099F038F4813069F08230D9F483E2ED
:103D800091E00DC0853099F078F0863099F48DE19E
:103D900091E005C084E291E002C082E291E090935C
:103DA0005F0380935E0323C081E291E0F8CF8EE150
:103DB00091E0F5CF109260031AC080E0089586EF7D
:103DC000E0915E03F0915F03309789F02081082E27
:103DD000000C990B820F911D8F3F910519F014F083
:103DE0008FEF04C097FF02C0108201C0808381E082
:103DF0000895482F50E0FA013597EF33F10508F0A8
:103E000068C0E458FF4F0C945A340E94C10E5DC044
:103E10008091DC02817F8E7F8093DC0281E0809341
:103E2000610308950E94310550C08091DC02982FF3
:103E30009095917090FB80F98093DC02911145C0C0
:103E4000897F877F10C08091DC0281FB222720F9C7
:103E500091E0922790FB81F98093DC029923A9F1EC
:103E60008091DC0281608093DC022FC08091DC02B3
:103E700082FB222720F991E0922790FB82F9ECCF78
:103E80008091DC0283FB222720F991E0922790FBAE
:103E900083F9E2CF0E944C098091820387FB22279D
:103EA00020F991E0922790FB87F9809382030DC05F
:103EB000895301C08D5191E001C0990F8A95EAF7AD
:103EC000892F0E9498090E944C0981E0089581E0A1
:103ED000F8CF80E0089580E00895FDCF0895CF9356
:103EE000C82F80916103813061F030F0823099F504
:103EF0008C2FFDDE81E035C00E94900D823269F585
:103F000004C00E94900D823251F48C2FE6DF8111A3
:103F100003C08C2F6EDF1DC081E090E01AC08C2F93
:103F2000DADF811115C0C43181F050F4CB3081F05B
:103F3000C031A9F482E08093610388E3D8DE08C031
:103F4000C93219F0C83321F00AC01092610307C0CA
:103F500081E0817006C01092610380E002C080E0C1
:103F6000F8CFCF910895A1E0B0E0E9EBFFE10C9428
:103F70009E347C01FC0160817181828193818E017C
:103F80000F5F1F4F21E030E040E050E09ED189817B
:103F9000F70140815181628173814F5F5F4F6F4FA5
:103FA0007F4F40835183628373832196E6E00C94B4
:103FB000BA3484E00895CCC00895F8C008951F93E2
:103FC000CF93DF93C3D0D0E0C0E010E0412F6C2F3F
:103FD0008D2F0E9476049C01412F6C2F8D2FE6D0EF
:103FE0001F5F103199F7CF5FC63079F7DF5FD430AC
:103FF00059F7DF91CF911F9108950F931F938A0175
:104000009B0140E050E0BC0180E090E0F6D01F91C1
:104010000F9108950F931F938A019B0140E050E098
:10402000BC0180E090E016D11F910F91089584307B
:1040300028F4663018F4403108F48AC080E090E03B
:10404000089580E108953CD1CB0108950F931F930B
:104050008A019B0140E050E0BC0180E090E035D156
:104060001F910F9108950F931F938A019B0140E0C8
:1040700050E0BC0180E090E06ED11F910F91089557
:1040800066D0ADC14F925F926F927F92BF92CF92F6
:10409000DF92EF92FF920F931F93CF93DF9300D0A5
:1040A00000D0CDB7DEB7B82E8FE08B1508F43CC03A
:1040B00007D161507109810991098E010F5F1F4F6E
:1040C00021E030E040E050E000D1898181112CC036
:1040D000F7D02B013C01C12CD12C7601BB20C9F0BB
:1040E000C414D504E604F704F9F08E010F5F1F4FE6
:1040F00021E030E040E050E0C701B601E6D0898120
:10410000811101C0BA948FEFC81AD80AE80AF80AD8
:10411000E5CFC982DA82EB82FC8240E0BE016F5FAC
:104120007F4F83EB9FE1C9D50F900F900F900F90B9
:10413000DF91CF911F910F91FF90EF90DF90CF9083
:10414000BF907F906F905F904F900895089508956D
:104150000F931F93CF93DF93843008F56630F8F404
:104160004031E8F4C42FD0E0CC0FDD1F20E2629F85
:10417000C00DD11D112430EC839FC00DD11D112421
:10418000CE0189960E94783590E0182F0027CE0145
:104190008A960E9478359801282BC90102C080E0D8
:1041A00090E0DF91CF911F910F9108951F93CF93CE
:1041B000DF93962F8430E8F46630D8F44031C8F4A9
:1041C000632F122FC42FD0E0CC0FDD1F20E2929F6F
:1041D000C00DD11D112490EC899FC00DD11D11245B
:1041E000CE0189960E949935612FCE018A960E9450
:1041F0009935DF91CF911F910895A0E0B0E0E3E001
:10420000F1E20C949834E8014B015C01820E931E9C
:10421000A41EB51E6B017C01C6018996C814D90481
:10422000EA04FB0491F0C11423E0D206E104F10496
:1042300020F40E947835888301C0188221968FEF80
:10424000C81AD80AE80AF80AE7CFCDB7DEB7ECE01B
:104250000C94B4348F929F92AF92BF92CF92DF9220
:10426000EF92FF920F931F934B015C01820E931EFE
:10427000A41EB51E6B017C01C6018996C814D90421
:10428000EA04FB0491F0C11423E0D206E104F10436
:1042900020F4F80160810E9499350F5F1F4FFFEFF6
:1042A000CF1ADF0AEF0AFF0AE7CF1F910F91FF90A5
:1042B000EF90DF90CF90BF90AF909F908F90089538
:1042C00067ED70E080E090E008954F925F926F920A
:1042D0007F928F929F92AF92BF92EF92FF920F9335
:1042E0001F93CF93DF934B015C0129013A017B01BE
:1042F000E801E01AF10A87EDE81A8CEFF80ACE011E
:104300008E0D9F1DAE01401B510B60E070E0441507
:1043100055056605770580F4480D591D6A1D7B1DFE
:10432000473D51056105710520F40E947835888369
:1043300001C018822196E3CFDF91CF911F910F9199
:10434000FF90EF90BF90AF909F908F907F906F9075
:104350005F904F9008954F925F926F927F928F92ED
:104360009F92AF92BF92EF92FF920F931F93CF93C2
:10437000DF934B015C0129013A017B01E801E01A5E
:10438000F10A87EDE81A8CEFF80ACE018E0D9F1D19
:10439000AE01401B510B60E070E044155505660509
:1043A000770570F4480D591D6A1D7B1D473D510569
:1043B0006105710518F468810E9499352196E5CF51
:1043C000DF91CF911F910F91FF90EF90BF90AF9031
:1043D0009F908F907F906F905F904F900895A0E195
:1043E000B0E0E5EFF1E20C949434CE0101965C016B
:1043F00080E1F50111928A95E9F70EE010E097ED62
:10440000492E512C612C712C29E2822E23E0922E10
:1044100073016201F1E14F165104610471042CF043
:1044200080E1C82ED12CE12CF12CA601B401C501EC
:104430000E948A358C0C9D1C0D2C000CEE08FF0888
:104440004C185D086E087F080150110909F7609645
:10445000E0E10C94B034CF93DF9386319C4709F5AB
:10446000EB010E94900D9D81992371F08A7A91E071
:1044700009F490E090936203811102C089E201C0C7
:1044800085E30E94532B09C080916203811102C011
:1044900089E201C085E30E946A2B0E942F0E80E012
:1044A00001C081E0DF91CF910895CF93DF93FC01AC
:1044B000DB0115968C91882309F4D9C09F013057F0
:1044C0002332310508F0D4C0EF0182E893E00E9466
:1044D000D00EFE01E150F047E232F10520F4E55440
:1044E000FF4F0C945A34809182038160AAC080915E
:1044F00083038860B2C0809182038260A2C08091F1
:10450000820320C08091820388609BC080918303D6
:104510001EC0809183038260A0C08091820380616D
:1045200090C08091820380628CC0809182038064FD
:1045300088C00E944C0980918203806882C080916B
:104540008203886084607DC0809183038260816083
:1045500084C0809182038E7F74C080918303877FA3
:104560007CC0809182038D7F6CC08091820320C0CB
:1045700080918203877F65C0809183031EC08091F4
:1045800083038D7F6AC0809182038F7E5AC08091A1
:1045900082038F7D56C0809182038F7B52C00E9420
:1045A0004C09809182038F774CC080918203877F72
:1045B0008B7F47C0809183038D7F8E7F4EC080911B
:1045C000820382FB222720F991E0922790FB82F957
:1045D00090FB83F936C080918303982F909591705A
:1045E0008E7F892B90FB81F938C08091820386FBF6
:1045F000222720F991E0922790FB86F922C00E94A1
:104600004C098091820387FB222720F991E09227B1
:1046100090FB87F916C081E001C080E00E94DC0EAB
:104620001EC08091820384FB222720F991E092270B
:1046300090FB84F906C080918203982F909590FB9F
:1046400080F9809382030BC08091830383FB222730
:1046500020F991E0922790FB83F98093830382E80D
:1046600093E00E94D20E0E944C0980E001C081E0DC
:10467000DF91CF910895282F35EB2303C00111243A
:1046800097FF03C08058910902C080589F4F892F1F
:1046900008958091690380FF06C06091220170E057
:1046A000660F771F26C081FF04C06091220184E05D
:1046B00005C082FF07C06091220188E0689FB001B9
:1046C000112417C0909168039923D1F060912101C2
:1046D000961788F72091220188E0289F90011124E5
:1046E000929FA001939F500D112470E0CA010E9477
:1046F00025346038710540F46115710519F406C060
:1047000068E070E0862F08958FE7089581E00895AE
:104710008091690380FF08C060911E0170E075956B
:1047200067957595679521C081FF06C060911E0150
:1047300070E07595679519C082FF04C060911E01F5
:1047400070E010C090916703992399F060911D016A
:104750009617A0F780911E01899FC001112470E077
:104760000E9425346038710540F46115710519F413
:1047700006C061E070E0862F08958FE7089581E01C
:1047800008958D3C19F485DF819503C08E3C21F49A
:1047900080DF80936D0308958F3C19F47ADF819553
:1047A00003C0803D21F475DF80936C030895893D3B
:1047B00011F4AEDF04C08A3D29F4AADF819580930D
:1047C0006E0308958B3D19F4A3DF819503C08C3DE2
:1047D00021F49EDF80936F0308959FE2980F983035
:1047E00078F421E030E0A90102C0440F551F9A95EA
:1047F000E2F7CA0190916B03892B80936B030895B4
:104800008D3D21F48091690381600BC08E3D21F4C0
:1048100080916903826005C08F3D29F4809169030E
:1048200084608093690308958D3C39F490916D0301
:1048300097FF35C010926D0359C08E3C29F49091BA
:104840006D031916BCF32BC090916C038F3C29F4B7
:1048500097FF25C010926C0349C0803D19F41916CA
:10486000CCF31DC090916E03893D29F41916BCF458
:1048700010926E033BC08A3D19F497FF10C0F8CF29
:104880008B3D39F490916F0397FF09C010926F032D
:104890002DC08C3D21F490916F031916BCF39FE25B
:1048A000980F983080F421E030E0A90102C0440F55
:1048B000551F9A95E2F7CA01809590916B03892361
:1048C00080936B0313C08D3D21F4809169038E7F2B
:1048D0000BC08E3D21F4809169038D7F05C08F3D13
:1048E00029F4809169038B7F8093690380916C0325
:1048F000811106C080916D03811102C0109268037E
:1049000080916E03811106C080916F03811102C0F6
:104910001092670308950E94B42C20916C0321111A
:1049200004C020916D03222321F0909366038093AD
:10493000650320916E03211104C020916F0322238F
:1049400021F090936403809363038AE693E093C518
:10495000EAE6F3E086E0DF011D928A95E9F710921E
:10496000680310926703109269030895FC01828125
:1049700081110DC0838181110AC08481811107C01A
:1049800091E08581811101C090E0892F01C081E013
:1049900081700895A6E0B0E0E0EDF4E20C94A1345B
:1049A00086E0EAE6F3E0DE01119601900D928A9529
:1049B000E1F710926C0310926D0310926E03109247
:1049C0006F038B81811104C08C81882309F451C04D
:1049D000809165039091660356D7AC01909168036E
:1049E000992339F02091230130E02417350758F03E
:1049F00040C0209124018AE0289F900111242417AF
:104A0000350718F036C09F3F19F09F5F90936803F9
:104A10001B81112359F03DDE111614F09FEF01C0E8
:104A200091E0989F902D112490936C031C81112389
:104A300059F02FDE111614F09FEF01C091E0989FFE
:104A4000902D112490936D0380916C03882389F03D
:104A500010916D03112369F00EDE811101C081E018
:104A600080936C03812F07DE811101C081E0809368
:104A70006D038D81811104C08E81882309F451C09A
:104A80008091630390916403FED6AC01909167031B
:104A9000992339F020911F0130E02417350758F091
:104AA00040C0209120018AE0289F90011124241702
:104AB000350718F036C09F3F19F09F5F909367034A
:104AC0001D81112359F024DE111614F09FEF01C04F
:104AD00091E0989F902D112490936E031E811123D5
:104AE00059F016DE111614F09FEF01C091E0989F67
:104AF000902D112490936F0380916E03882389F089
:104B000010916F03112369F0B6DD811101C081E0BE
:104B100080936E03812FAFDD811101C081E080930E
:104B20006F03BE016F5F7F4F8AE693E003D681116A
:104B300004C08AE693E01ADF8111EDDE86E0FE0113
:104B40003196AAE6B3E001900D928A95E1F7269698
:104B5000E3E00C94BD348F929F92BF92CF92DF928C
:104B6000EF92FF920F931F93CF93DF93E82FF0E024
:104B7000E45EF94FB490282F26952695269530E0CF
:104B8000F901E454F94FE4908770F12C082E02C02B
:104B9000F594E7940A94E2F791E0E922FF24F90101
:104BA000E455F94FC490D12C082E02C0D594C79477
:104BB0000A94E2F7E1E0CE22DD24F901E456F94F50
:104BC000C491D0E002C0D595C7958A95E2F7C1702F
:104BD000DD27062F10E0E114F10471F081EE0E9450
:104BE0004A06C801009741F0EFE9FFE03197F1F77D
:104BF00000C000000197F6CFC114D10439F4480178
:104C0000B8018B2D0E942707C8010EC086EE0E94B6
:104C10004A06C801009799F3EFE9FFE03197F1F7F1
:104C200000C000000197F6CF009741F0EFE9FFE0E8
:104C30003197F1F700C000000197F6CFCD2819F5A4
:104C4000EF2879F081EE0E94D6060115110549F092
:104C50008FE99FE00197F1F700C0000001501109B2
:104C6000F4CFCD2BF1F08CE20E943D07811491042A
:104C7000C1F0EFE9FFE03197F1F700C00000F1E08B
:104C80008F1A9108F3CF86EE0E94D606C8010097CE
:104C9000B9F2EFE9FFE03197F1F700C000000197AA
:104CA000F6CFDF91CF911F910F91FF90EF90DF90A2
:104CB000CF90BF909F908F900895A0E0B0E0E3E682
:104CC000F6E20C949B348C017B01D42F8AE0B82E41
:104CD000C701F8010995882309F459C0813009F00A
:104CE00053C0C701F8010995C82F813031F4C701BD
:104CF000F80109950E943D0738C0823031F4C701A0
:104D0000F80109950E944A0630C0833031F4C7018A
:104D1000F80109950E94D60628C0843031F5C701F4
:104D2000F8010995C82FC12CD12C8C2F90E0C09789
:104D30008A30910568F4BC9C9001BD9C300D112413
:104D40006C01C20ED31EC701F8010995C82FEDCF23
:104D5000C114D10451F08FE99FE00197F1F700C031
:104D6000000091E0C91AD108F3CF8D2F90E0009791
:104D700041F0EFE9FFE03197F1F700C00000019743
:104D8000F6CFC111A5CF03C06D2FE5DEA1CFCDB702
:104D9000DEB7E9E00C94B7340F931F93CF93DF9302
:104DA000C42FD22FFC0185818823A9F04093720380
:104DB000DBD5909371038093700380E28C0F883071
:104DC00008F04CC0C77081E001C0880FCA95EAF7AF
:104DD0000E94450743C08091720348132FC0809101
:104DE0007003909171034FD5883C910538F510E21E
:104DF0001D0FCD17B9F080E28C0F883040F4C770DA
:104E000081E001C0880FCA95EAF70E944A0718306E
:104E100010F581E09D2F977001C0880F9A95EAF7F1
:104E20000E944507802F0E943D071830B8F4D770C4
:104E300081E001C0880FDA95EAF70AC080E28C0FA2
:104E4000883060F4C77081E001C0880FCA95EAF726
:104E50000E944A0703C0802F0E943D07DF91CF9137
:104E60001F910F9108950F93FC01E851FC47E73023
:104E7000F10588F5CB01E352FF4F0C945A3406E25A
:104E800021EE41EE6AE17CE723C007E225EE45EE24
:104E90006BE17CE71DC006E221EE40EE68E17CE7B5
:104EA00017C007E225EE44EE69E17CE711C006E297
:104EB00021EE42EE6CE17CE70BC007E225EE46EE08
:104EC0006DE17CE705C008E221E045EE6EE17CE79C
:104ED00063DF80E008C0FB018581882319F0109210
:104EE000720301C081E00F9108951F93CF93DF9368
:104EF00087372CE7920721F088379C4749F027C075
:104F0000FB01C581CC2311F028D007C026D013C0E7
:104F1000FB01C581CC2371F023D00E94B40923D0BA
:104F2000D82F1ED0C82F19D04D2F6C2F0E94C70A22
:104F3000C0E00EC015D00E94BE0915D0182F10D0A9
:104F4000D82F0BD0412F6D2F0E94C70A01C0C1E09E
:104F50008C2FDF91CF911F910895809127010895A3
:104F6000809126010895809125010895A3E0B0E085
:104F7000ECEBF7E20C94A234AE014F5F5F4FBE0141
:104F80006E5F7F4FCE010396F1D18B81853239F46C
:104F90008A81853021F481E09981973209F080E09F
:104FA00081702396E2E00C94BE34882321F047E21E
:104FB00065E085E203C04FEF6FEF8FEFFDC108950D
:104FC0000895CF92DF92EF92FF926B017C01F8DFA0
:104FD000C701B60110D2FF90EF90DF90CF900895F7
:104FE000C4D180E0E2DF60E070E0CB01EADF0E9444
:104FF000DF1F46D881E0D9CFE2DFF4D1E1DFB6DFB1
:10500000811101C0EDCF08950E94CE1B0C94591A56
:105010009C01FB018581882349F0A901575740383D
:10502000510528F4C9012ED880E0089581E0089543
:105030002FEFFC0120830895CF93DF93EC0188814B
:10504000813031F0823079F40E943A1B89830BC0A1
:105050000E94141B2FEF829FC001112463E070E0B7
:105060000E9411346983DF91CF910895FC01808102
:10507000813019F0823069F00895818123E0829FA8
:10508000C00111246FEF70E00E941134862F0C9440
:10509000FE1B8181811102C00C94271B0C941A1BEA
:1050A000FC019C012E5F3F4F9081983031F0993088
:1050B00031F0973031F4C901D9CFC901BDCF0C947B
:1050C000091B8FEF80830895CF93DF93EC018881D4
:1050D0008230D1F070F4813019F50E946A152FEFFB
:1050E000829FC001112468EC70E00E941134698332
:1050F00017C0833091F0843099F40E94641589833D
:105100000E9467158A830CC00E943C15882319F001
:105110000E94331504C080E002C00E945E1589839E
:10512000DF91CF910895CF93DF93EC018881823096
:1051300001F1A8F4813079F5C9810E946715D82F53
:105140000E946415282F38ECC39FC00111246FEF13
:1051500070E00E941134462F6D2F822F1AC08330C9
:10516000A1F08430C1F40E946A15482F6A818981B8
:1051700010C08981811103C00E9492190CC00E9445
:10518000511A89810E941E1A06C089810E946115E8
:1051900002C00E94C316DF91CF910895FC019C01CB
:1051A0002E5F3F4F9081983031F0993031F0973039
:1051B00031F4C901B8CFC90187CF0C9423158FEF03
:1051C00080830895FC012181213009F469CF2230C8
:1051D00009F4E4CF2DCFA0E0B0E0E1EFF8E20C94C9
:1051E0009A34EC01D62E0E94161E8111B9C0E881B6
:1051F0008E2F90E0FC013197E331F10508F0AAC051
:10520000EC51FF4F0C945A3419828CE066C08981AE
:10521000823081F028F4813009F09CC0B1D30BC0FA
:10522000833071F0843009F095C01A821B821C8291
:105230001D8292C0D7D09A838B837C836D838CC070
:10524000CA807E0100E010E0AC2CB12CC501800FBB
:10525000911F069708F080C08C2D800F0E94B71216
:10526000F701938384830F5F1F4FF2E0EF0EF11C71
:105270000E30110559F770C08981823031F08530C8
:1052800009F068C08A81C0DE67C06A817B818C8139
:105290009D810E94603495DE5FC04B816A81898167
:1052A0000E94DB1F9C838D8357C02C813D81322758
:1052B000232732274B816A8189810E94DD1F4CC0E0
:1052C0000E94DF1F49C06D2DCE017CDF45C00E94CA
:1052D000212024C00E94232099838A833DC06B81B2
:1052E00070E089819A81AE014C5F5F4F98278927D2
:1052F00098270E94262030C06B8170E089819A81B6
:10530000AE014C5F5F4F9827892798270E94332072
:1053100023C00E94402020C00E94D91F89831CC046
:105320006B8170E089819A81AE014C5F5F4F982755
:10533000892798270E94FD1F0FC06B8170E089812B
:105340009A81AE014C5F5F4F9827892798270E946A
:105350000A2002C08FEF88836D2DCE010E94181E97
:10536000CDB7DEB7EAE00C94B6340895EF92FF9221
:105370000F931F93CF93DF937C018B01EA01892B5D
:1053800031F085E290E00E947835F70180830115C5
:10539000110531F086E290E00E947835F8018083B3
:1053A000209729F087E290E00E9478358883CDB776
:1053B000DEB7E6E00C94BA34CF93DF93D62FC42F38
:1053C000682F85E290E00E9499356D2F86E290E08B
:1053D0000E9499356C2F87E290E00E949935DF9109
:1053E000CF91089588E290E00E947835682F70E0B0
:1053F00080E090E0089588E290E00C9499359093D5
:10540000780380937703089501D291E0813009F009
:1054100090E0892F0895E0917703F0917803309719
:1054200039F00190F081E02D309711F00995089541
:1054300080E00895F0CF0895E0917703F09178032C
:10544000309731F00280F381E02D309709F0099513
:105450000895E0917703F0917803309759F0248113
:105460003581232B39F026E0DC012C930480F58173
:10547000E02D09950895E0917703F0917803309736
:1054800059F026813781232B39F022E0DC012C935F
:105490000680F781E02D09950895A3E0B0E0E3E5EB
:1054A000FAE20C94A2342091750330917603281708
:1054B0003907B1F09093760380937503E0917703F9
:1054C000F0917803309761F00084F185E02D3097FA
:1054D00039F023E029839B838A83CE0101960995C5
:1054E0002396E2E00C94BE34A3E0B0E0EAE7FAE2EF
:1054F0000C94A23420917303309174032817390758
:10550000B1F09093740380937303E0917703F0916B
:105510007803309761F00084F185E02D309739F001
:1055200024E029839B838A83CE01019609952396E3
:10553000E2E00C94BE34E0917703F0917803309769
:1055400031F00284F385E02D309709F00995089534
:10555000CF93DF93C0910601D0910701229654DFCB
:10556000882359F08091820387FF07C0C09104010E
:10557000D091050122969EE101C096E080E0915015
:1055800028F029912223D9F38F5FF9CFDF91CF91B2
:105590000895CF93882321F1C82F36DF882311F196
:1055A0008091820387FF1EC08C2F869586958695F5
:1055B0008E31B0F4E0910401F0910501E80FF11D86
:1055C0002281822F90E0C77021E030E002C0220FDC
:1055D000331FCA95E2F72823392381E0232B89F46E
:1055E00080E00FC08091060190910701FC01329686
:1055F00008962191C21721F0E817F907D1F7F0CFEB
:1056000081E0CF9108959C01FC0132969FEF80E0EC
:105610004191461789F09F3F19F4411101C0982F1D
:105620008F5F8630A9F79F3F39F0F901E90FF11D2F
:1056300097FDFA956283089508959C012A5F3F4F74
:10564000FC014281461301C0128201968217930722
:10565000B9F70895262F2695269526952E3168F4BC
:10566000FC01E20FF11D677021E030E001C0220F64
:105670006A95EAF78281282B22830895262F2695A2
:10568000269526952E3170F4FC01E20FF11D67700E
:1056900021E030E001C0220F6A95EAF7209582816F
:1056A000282322830895CF93C82FAEDE6C2F882342
:1056B00051F08091820387FF06C080910401909190
:1056C0000501C8DF05C080910601909107019BDFAD
:1056D000CF910895CF93C82F97DE6C2F882351F078
:1056E0008091820387FF06C080910401909105019B
:1056F000C5DF05C080910601909107019EDFCF9123
:10570000089582DE882359F08091820387FF07C0C5
:10571000E0910401F091050132968EE106C0E0911E
:105720000601F0910701329686E0DF011D928A950D
:10573000E9F70895DC01FB0111969C911197818195
:10574000981321C012968C911297882319F0928198
:10575000891319C013968C911397882319F093819C
:10576000891311C015968C911597882319F095818E
:10577000891309C014969C91992339F081E0248102
:10578000291304C002C081E001C080E08170089547
:105790000895FECF089583E080932B016091280146
:1057A0007091290180912A0190912B01F2CF8111F2
:1057B00002C081E001C082E080932B01609128014A
:1057C0007091290180912A0190912B01E2CFEFCFB6
:1057D000089581E080932B01609128017091290147
:1057E00080912A0190912B01D4CFF3CF089591E0BD
:1057F000811101C090E090932A016091280170917D
:10580000290180912A0190912B01C3CF80912A0117
:105810000895809329016091280170912901809158
:105820002A0190912B01B5CF809129010895809391
:105830002801609128017091290180912A0190919D
:105840002B01A7CF8091280108950895FECF0895D8
:10585000FDCF0895FACF0895F8CF0895F6CF0895B3
:10586000CF93FADF0E947D13F5DFC0E08C2F0E94FA
:10587000B712892B29F4CF5FC630C1F780E001C091
:1058800081E0CF910895CF93DF93EC016DD08C1B15
:105890009D0BDF91CF91089585B7806885BF85B74F
:1058A000806885BF08951F920F920FB60F92112442
:1058B0008F939F93AF93BF9380917903811113C00E
:1058C0008091070490910804A0910904B0910A0402
:1058D0004196A11DB11D8093070490930804A093E5
:1058E0000904B0930A04BF91AF919F918F910F90DB
:1058F0000FBE0F901F90189580910F04843031F1E6
:105900000E94BA051092790320E488E190E00FB676
:10591000F894A895809360000FBE2093600083B731
:10592000817F846083BF83B7816083BF78948895CB
:1059300083B78E7F83BF0FB6F894A89580916000DF
:10594000886180936000109260000FBE08950E94ED
:105950004C090C94C30582E084BD93E095BD9AEF99
:1059600097BD80936E0008952FB7F8948091070437
:1059700090910804A0910904B0910A042FBF0895E2
:105980002FB7F8946091070470910804809109047E
:1059900090910A042FBF089578941F920F920FB62A
:1059A0000F9211248F939F93AF93BF93809107041D
:1059B00090910804A0910904B0910A040196A11DD8
:1059C000B11D8093070490930804A0930904B09339
:1059D0000A04BF91AF919F918F910F900FBE0F90CE
:1059E0001F90189581E08093E00080E28093D800BA
:1059F0001092C9008FE19EE40197F1F700C000000A
:105A000087E090EBDC018093180490931904A09335
:105A10001A04B0931B049CE088E10FB6F894A89593
:105A2000809360000FBE90936000FFCF9CE088E100
:105A30000FB6F894A895809360000FBE9093600015
:105A4000FFCF9B0190910F049430E9F48F70809305
:105A5000E9008FEF9091E800815095FD06C095ED2B
:105A60009A95F1F700008111F5CF8091E80085FF4C
:105A70000AC0BA01C90140E050E0FBD18091E800C2
:105A80008E778093E8000895603229F4BC0140E2EB
:105A900050E082E0D6CF089543E050E0BC0184E0BE
:105AA000D0CF46E050E0BC0184E0CBCF40E250E0F4
:105AB000BC0184E0C6CFCF93DF93EC01A7DE48E0C2
:105AC00050E0BE0181E0BDDF88E0FE01AAE7B3E05F
:105AD00001900D928A95E1F7DF91CF910895A0E2B0
