:100000000C9481020C94B9020C94B9020C94B902BC
:100010000C94B9020C94B9020C94B9020C94B90274
:100020000C94B9020C94B9020C94EB280C94BD29E1
:100030000C9479230C94B9020C94B9020C94B90273
:100040000C94B9020C94B9020C94B9020C94B90244
:100050000C94B9020C9402240C94B9020C94B902C9
:100060000C94B9020C94B9020C94B9020C94B90224
:100070000C94B9020C94B9020C94B9020C94B90214
:100080000C94B9020C94B9020C94B9020C94B90204
:100090000C94B9020C94B9020C94B9020C94B902F4
:1000A0000C94B9020C94B9020C94B9029F059F05F7
:1000B000CB05CB052C064A06280728074F06B706AE
:1000C000C806C80688128B12901295129A129F12B7
:1000D000A412A912AE12B412B912D916DC16E01687
:1000E000E316DE16E616E916EC16CE1A401BD61AF3
:1000F000A01AA41ADA1AA71ADD1AE81AB21A361BBD
:10010000B61AEC1ABA1AF01A1A1BBE1AF41A241BE1
:10011000C41AFA1A041BAB1AE11AAE1AE41AC91A65
:10012000FF1A101B301B321B9C1AD21A491B851F49
:100130008B1F791F7F1F911F971F9D1F2421272130
:100140005E21712179218421872187218721CF2177
:10015000CF218C218F219421A121AE21B121B52164
:10016000C221252A4C2A442B4C2A442B982ABB2AEC
:10017000442B122B212B3A003B003C003D003E005B
:100180003F00400041004200430044004500680039
:1001900069006A0001520100010001000100010034
:1001A0000100010001000100010001000100010047
:1001B00001000100025201000100010001000100E4
:1001C0000100010001000100010001000100010027
:1001D00001000100005200010101010101010101C2
:1001E00002020202020202020203030303030303E8
:1001F00003040404040404040505050505060606B5
:100200000606070707070708080808090909090A71
:100210000A0A0B0B0B0C0C0C0D0D0D0E0E0E0F0F16
:100220000F101011111112121313141415151616A4
:100230001717181819191A1A1B1B1C1D1D1E1E1F13
:100240002020212222232424252626272829292A62
:100250002B2C2D2D2E2F303132323334353637388A
:10026000393A3B3C3D3E3F40414243444546474886
:10027000494A4C4D4E4F50515354555658595A5B5C
:100280005D5E5F616264656668696B6C6D6F7072FC
:10029000737577787A7B7D7E8082838587888A8C68
:1002A0008E8F91939596989A9C9EA0A2A3A5A7A99C
:1002B000ABADAFB1B3B5B7BABCBEC0C2C4C6C9CB93
:1002C000CDCFD1D4D6D8DBDDDFE2E4E7E9EBEEF049
:1002D000F3F5F8FAFDFF00000000000000002A2BF3
:1002E00028000000000000000000000000000000E6
:1002F0000029000000002C1E34202122243426274F
:10030000252E362D3738271E1F202122232425266F
:100310003333362E37381F0405060708090A0B0C3D
:100320000D0E0F101112131415161718191A1B1C85
:100330001D2F3130232D350405060708090A0B0C43
:100340000D0E0F101112131415161718191A1B1C65
:100350001D2F3130354C000000000000000000006F
:10036000000000000000000000000000000000008D
:10037000000000000000000000007E0F00D4FFFF1E
:10038000FFC70000007812034D0042005F004D00DF
:100390006100630072006F00000014034D006100F3
:1003A0006E00790062006F0061007200640000005E
:1003B0000403090409025B00030100A0FA09040018
:1003C000000103010100092111010001224400077D
:1003D000058103080001090401000203000000096F
:1003E00021110100012222000705820320000107DC
:1003F00005030320000109040200010300000009B5
:100400002111010001227B00070584032000011255
:1004100001000200000008424D1500030101020026
:10042000010660FF0961A1010962150026FF009520
:1004300020750881020963150026FF0095207508C4
:100440009102C005010902A10185020901A100056F
:100450000919012908150025019508750181020572
:1004600001093009311581257F950275088106093A
:10047000381581257F950175088106050C0A38021B
:100480001581257F950175088106C0C00501098089
:10049000A101850319012AB700150126B7009501AE
:1004A00075108100C0050C0901A101850419012AFC
:1004B000A002150126A002950175108100C005015A
:1004C0000906A101050719E029E71500250195088E
:1004D000750181029501750881010507190029FF41
:1004E000150026FF009506750881000508190129E9
:1004F000051500250195057501910295017503917A
:1005000001C011241FBECFEFDAE0DEBFCDBF04B6BD
:1005100003FE18C08091B8029091B902A091BA026E
:10052000B091BB028730904BA740B04B59F410926A
:10053000B8021092B9021092BA021092BB02E0E027
:10054000F8E3099511E0A0E0B1E0EAE0F9E502C0C6
:1005500005900D92A43CB107D9F722E0A4ECB1E0DC
:1005600001C01D92A83BB207E1F70E9456120C94FD
:10057000832C0C940000CF93C82F0E941F0481305D
:1005800069F038F0823081F420E04FEF6FEF8AEAB3
:1005900009C020E04FEF60E080E004C020E04FEFB2
:1005A0006FEF85E50E9447168C2FCF91089581113A
:1005B00007C0662311F089EA01C08AEA0E94460555
:1005C00081E008958330C0F46430B0F44430A0F486
:1005D000E62FF0E094E0899FE00DF11D1124EE0F6D
:1005E000FF1FEE0FFF1FE40FF11DEE0FFF1FEA5874
:1005F000FE4F85919491089581E090E0089581E007
:10060000089581E008950E94010308950E94030364
:1006100008950E940103089508950E940C0308950F
:10062000A6E0B0E0E6E1F3E00C94B62B49835A83F0
:100630009E833091CB0189819A81311115C03E8111
:10064000332359F0222349F00E94C208182F682F43
:1006500089819A810E949E0803C00E94B008182FC9
:1006600069817A81812F04C00E94C20869817A81E0
:100670000E94FC0F2696E3E00C94D22BFC01262F5F
:100680004081518162817381848195810E94100330
:100690000895CF93DF93EC0161E00E943E03BE0119
:1006A0000E940603DF91CF910895CF93DF93EC0171
:1006B00060E00E943E03BE010E940D03DF91CF91D6
:1006C000089591E001C0990F8A95EAF7892F0E9459
:1006D000E7070895CF93C82F81E00C2E01C0880F43
:1006E0000A94EAF70E943E0D8C2F0E946103CF917D
:1006F000089581E008950E9479030895CF93C82F4B
:100700000E9499078C2F0E947B032FEF84E39CE0CB
:10071000215080409040E1F700C00000CF91089543
:1007200081E00E947E030E942824089580E00E94B8
:100730007E030E944C2408950F931F93CF93DF9361
:100740008C0161E00E943E03EC01F801858181117A
:100750000E945E16B801CE010E946920882309F428
:100760005EC0B801CE010E940903882309F457C076
:10077000B801CE010E946D1F882309F450C0B80152
:10078000CE010E94781A882309F449C0B801CE012D
:100790000E944E1A882309F442C0B801CE010E947B
:1007A00072128823E1F1B801CE010E94B01F8823A4
:1007B000B1F1B801CE010E94FA10882381F1F8014D
:1007C0008581882341F1C330FCE7DF07D1F040F495
:1007D000C115ECE7DE0791F0C130DC47A1F01BC08A
:1007E000CB358CE7D807A9F0CC35ECE7DE0771F004
:1007F000CA35DC4781F40E94190D0DC00E94900398
:100800000EC00E94210D0E94960309C00E940F0D88
:1008100002C00E941D0DC8010E94FF0201C080E0BD
:10082000DF91CF911F910F9108950E9452230E9452
:10083000490408950E944D040E945B230895982F57
:1008400092959F7019F0892F24E001C020E0982F25
:100850009695969511F02E5F892F982F969509F011
:100860002F5F822F089581E008950895CF93DF933D
:10087000D82F0E943304C82F882319F08D2F0E948F
:1008800035048C2FDF91CF91089508950E9436048E
:10089000089580E00E94460408950E94DF210E948E
:1008A00046040895CF930E94DF21C82F8091C6018E
:1008B000C81779F0C093C6010E94E7236093C7016F
:1008C0007093C8018093C9019093CA018C2F0E9434
:1008D0004604CF910895ADE0B0E0E1E7F4E00C9478
:1008E000B72B488759876A877B878C879D879111AB
:1008F0000E944B0CCE01019627E0FC0111922A9533
:10090000E9F726E0FE013896DC0101900D922A9568
:10091000E1F72D8121110AC029813A814B815C8147
:100920006D817E818F810E94950B04C00E944903D6
:100930008111F2CF2D96E2E00C94D32BFC0124819F
:10094000213021F4808191810E94EF08089566236F
:1009500019F00E94E81B02C00E94431C0E94BA1CAE
:100960000895CF93882309F444C0C82F8CEF8C0FCF
:10097000813A70F48C2F0E945E22882329F08C2FFC
:100980000E94A1220E94AD0C8C2F0E9499220CC0C3
:1009900080E28C0F883058F4C77081E001C0880F66
:1009A000CA95EAF70E942E0C0E94AD0C22C0EBE51E
:1009B000EC0FE33040F4F0E0EA5AFE4F808190E023
:1009C0000E94052216C0E8E5EC0FEB3150F4F0E090
:1009D000EE0FFF1FE05EFE4F808191810E942A2270
:1009E00008C083E38C0F833120F461E08C2F0E94D8
:1009F000A704CF910895882381F19CEF980F913A35
:100A000018F40E94A1220DC090E2980F983060F473
:100A1000877091E001C0990F8A95EAF7892F0E94AB
:100A2000340C0E94AD0C08959BE5980F933028F488
:100A300080E090E00E940522089598E5980F9B3190
:100A400028F480E090E00E942A22089593E3980F12
:100A5000933118F460E00E94A70408951F93CF9388
:100A6000DF93182FEB010E94B104209741F08FE92A
:100A70009FE00197F1F700C000002197F6CF812F8A
:100A80000E94FB04DF91CF911F910895893319F0E3
:100A900060E070E002C060E570E00E942E050895FD
:100AA000882321F00E942E0C0E94AD0C089588230B
:100AB00021F00E94340C0E94AD0C0895A0E0B0E03B
:100AC000E4E6F5E00C94B12B7C01162FC72FFC0156
:100AD000D581068102950F700E94240C8823F9F0BD
:100AE000DD23E9F08C2F807F803461F080E2810F7C
:100AF0008830A8F08C2F807E803221F4123078F07C
:100B0000002369F08091700282FF09C082E00E9498
:100B1000E30C0E94240C91E0D82ED92601C0D12CE0
:100B2000CC2EC2948FE0C8228C2D90E08C309105A1
:100B300008F08EC1FC01EA5AFF4F0C949A2B8C2FBF
:100B4000807FCF70882311F0C295C07FDD2399F09C
:100B5000CC2309F469C180E2810F883010F01111B3
:100B600004C08C2F0E942E0C03C08C2F0E943E0CC0
:100B70000E94AD0C59C1812F0E94FB04CC2309F4C3
:100B800067C180E2810F883038F1112329F18C2F61
:100B90000E94440C24C08C2F807FCF70803211F0D3
:100BA000C295C07F112319F0113099F13CC080919A
:100BB000700282FD17C0DD2349F0CC2329F08C2F71
:100BC0000E942E0C0E94AD0C80E02FC180E00E949C
:100BD000FB04CC2309F43CC18C2F0E94340C0E94EE
:100BE000AD0C36C1DD2349F0002309F1013009F0D5
:100BF0002FC18C2F0E94550C2BC1011129C18C2FA4
:100C00000E9457058C2F0E94610C8C2F0E94B60CFD
:100C10001FC1DD2321F0063008F01AC108C00530DD
:100C200008F016C115C0DD2331F00111FDC08C2F75
:100C30000E9450050DC1002359F0193309F005C178
:100C4000FFEF27EE83E0F15020408040E1F7FBC04A
:100C50008C2F0E945705FCC08C2F8695869583703B
:100C600019F0813061F0F4C0DD2321F0812F9C2F39
:100C7000937002C080E090E00E940522F1C0DD2365
:100C800021F0812F9C2F937002C080E090E00E94A1
:100C90002A22E6C06D2F812F0E94A704E1C08C2F6D
:100CA000837079F5D111D8C0412F42954695477090
:100CB000440F440F212F2F70042E01C0220F0A94DD
:100CC000EAF714FF08C08FE090E001C0880F4A9552
:100CD000EAF7809501C080E0C695C695C370822B67
:100CE000C23049F058F4C13019F00E94F007B4C086
:100CF0000E94EA07B1C00E94F607AEC00E94E70753
:100D0000ABC0DD2319F08C2F817001C0869588233C
:100D100009F4A2C0412F429546954770440F440FF5
:100D2000212F2F70042E01C0220F0A94EAF714FF1E
:100D300008C08FE090E001C0880F4A95EAF78095DF
:100D400001C080E0C695C695C370822BC23049F0C1
:100D500058F4C13019F00E943C087EC00E94360849
:100D60007BC00E94420878C00E94FF0775C0CF7008
:100D7000DD2339F08C2F0E941108812F0E9450052D
:100D80006BC0812F0E9457058C2F0E941D0864C0E4
:100D9000123F21F128F4103F41F0113FC1F040C053
:100DA000133F19F1143F79F03BC0DD2341F00530CA
:100DB00008F04EC08C2F8F710E942A0849C006305F
:100DC00008F046C0F7CF8091700282FD18C0DD2385
:100DD00039F08C2F8F710E9411083AC0DD23C9F3BE
:100DE0008C2F8F710E941D0833C0DD2329F08C2FBA
:100DF0008F710E9408082CC00E94040829C0DD23BE
:100E000031F063E08C2F8F710E94C50C21C081E00E
:100E10000E94E30C0230E0F082E00E94E30C18C074
:100E2000DD2331F00023A9F2812F0E94B10410C00C
:100E30000023B1F2193349F49FEFE7EEF3E091504C
:100E4000E040F040E1F700C00000812F0E94FB0469
:100E500088EF8C0D843020F40E94DF210E9446042C
:100E6000DD2089F00E94200C80FD0DC0F701158265
:100E70000E941A0C0E941108C7010E9460070E947C
:100E80001A0C0E941D08CDB7DEB7E8E00C94CD2BFC
:100E90000F931F93CF93DF93EC01688179818D814C
:100EA0000E94FA088C010E9448080E94DA07B801E3
:100EB000CE010E945E05DF91CF911F910F910895A1
:100EC000CF93DF93FC0124812223D1F0EC010E9417
:100ED0009C0381110FC00E94240C882389F08D810E
:100EE000882371F08091700282FF0AC082E00E9424
:100EF000E30C06C0CE010E944807CE010E945503B4
:100F0000DF91CF91089580E090E00E94052280E07B
:100F100090E00E942A220E944B0C0E94AD0C0E947D
:100F2000D91C0E94BA1C08950E94A9220E9483071E
:100F300008950E943B0C0E949407089592959F701B
:100F4000963079F010F4925001C09A50923068F4C3
:100F5000803F69F018F4883E40F409C0843F29F4CA
:100F600006C0883E20F0813F11F080E0089581E0C6
:100F70000895FC012481222339F0808191810E940F
:100F8000EF080E949E07089580E00895A6E0B0E073
:100F9000ECECF7E00C94B72B2696E2E00C94D32B04
:100FA000A7E0B0E0E6EDF7E00C94B72B2796E2E07F
:100FB0000C94D32B089508950E94DB0708950E9496
:100FC000DC0708950E94DF078093D30108950E94F3
:100FD000E20708959091D301892B0E94E2070895BA
:100FE0009091D30189230E94E20708959091D30143
:100FF00089270E94E20708950E94BB0208950E947B
:10100000FC078093D201089580E00E94FF070895B5
:1010100091E001C0990F8A95EAF7892F0E94FF0796
:10102000089521E030E001C0220F8A95EAF780910F
:10103000D201822B0E94FF07089521E030E001C019
:10104000220F8A95EAF720958091D20182230E948F
:10105000FF07089521E030E001C0220F8A95EAF7EA
:101060008091D20182270E94FF0708959091D201BA
:10107000892B0E94FF0708959091D20189230E9435
:10108000FF0708959091D20189270E94FF070895D4
:101090000895962F9770A1E001C0AA0F9A95EAF7DC
:1010A00093E0769567959A95E1F7FB01EE0FFF1FA8
:1010B0006E0F7F1FFA01E60FF71F40E050E0682F28
:1010C00070E090819B01042E02C0369527950A940A
:1010D000E2F72170219529272A23292721934F5FA1
:1010E0005F4F4330510569F708959B01782F777062
:1010F00043E0969587954A95E1F7FC01EE0FFF1FB7
:101100008E0F9F1FF901E80FF91F40E050E080E0CB
:10111000219130E0072E02C0369527950A94E2F718
:1011200021703327042E01C0220F0A94EAF7822B84
:101130004F5F5F4F4330510559F70895282F943082
:1011400070F4843060F4862F622F70E024E0929F68
:10115000600D711D11244CEC51E00E944908089566
:10116000943070F4843060F4292F90E06CEC71E0DE
:1011700034E0239F800D911D11240E94750808956D
:1011800080E00895CF92DF92FF920F931F93CF9349
:10119000DF936C010091D2018091D301082BC3E051
:1011A000D0E010E0C8010C2E02C0959587950A94F6
:1011B000E2F780FD04C02197A8F7F12C07C0FC2EB0
:1011C000B6018C2F0E9408100197A9F38F2DDF9193
:1011D000CF911F910F91FF90DF90CF900895CF9303
:1011E000DF93EC010E94C208BE010E940810DF914B
:1011F000CF9108951F93CF93DF93EB019091CB0193
:10120000992321F0CB010E94EF0813C0882349F0F5
:10121000CB010E94C208182F682FCE010E949E08A1
:1012200004C0CB010E94B008182FBE01812F0E947C
:101230000810DF91CF911F910895E1E0F0E0DF0108
:1012400002C0AA0FBB1F6A95E2F7BD01DF0102C011
:10125000AA0FBB1F4A95E2F7AD01462B01C0EE0F66
:101260002A95EAF7942F9823491302C08E2B0895EC
:10127000E0958E230895242F462F682F8091D20168
:101280000E941D090E94FF0708951F93CF93DF93CB
:10129000C091D40117E08091D501C817A1F0D0E02A
:1012A0001C9FF0011D9FF00D1124EA52FE4F20817A
:1012B0003181428153816481758186810E94D0078A
:1012C0002196C770E8CFDF91CF911F9108952091AB
:1012D0000E0230910F024091100250911102609164
:1012E000120270911302809114020E94D007089597
:1012F000CF93DF938091140282958F7009F04EC0D6
:1013000080911302882309F449C08091D40140914F
:10131000D50150910F0260910E02C0911002D09140
:10132000110277E08417D1F190E0789FF001799F66
:10133000F00D1124DF01AA52BE4F14962C91149780
:10134000222349F111962C911197251324C02C9139
:10135000261321C015962C91159721111CC01296A9
:101360002D913C9113972C1B3D0B283C310598F493
:10137000809114028F70806180931402E452FE4FBA
:1013800080818F70806180838EE092E00E94600790
:101390000E94450903C001968770C4CFDF91CF91A9
:1013A00008952091D4019091D50157E02917A9F013
:1013B00030E0529FF001539FF00D1124EA52FE4F8E
:1013C0007181761306C07081781303C07581741320
:1013D00006C02F5F3F4F2770E9CF80E0089581E07E
:1013E0000895A4E1B0E0E7EFF9E00C94AD2B8C0197
:1013F00086E0F801DE011F9601900D928A95E1F7D3
:10140000F8018481E5809EE0A92E92E0B92E9091AA
:101410001202911118C0882309F480C1EE20D9F17D
:10142000C8010E94B907F82E8823A9F187E0F801C6
:10143000D50101900D928A95E1F7C5010E949E04A5
:101440000E94780998C0F801C080D1808280938082
:10145000F09013022091100230911102A401421B5E
:10146000530BFF2009F406C1483C510508F0AFC0FA
:10147000882309F455C180911402282F207F909170
:101480000F02222361F09D1509F462C0C8010E9479
:10149000B907811173C0C8010E9460073FC19D1147
:1014A00015C090910E029C1111C0E1100FC08F70F9
:1014B0008061809314020E9467098EE092E00E948E
:1014C000600780911402F801868326C1E1103AC0BA
:1014D00040E06D2D8C2D0E94D10940E06D2D8C2DAA
:1014E0000E94D109E82E811117C1CF86D88A8F8535
:1014F00098890E94EF08292F22952F70243020F41C
:101500009F70223028F009C02A50223080F014C089
:10151000992349F0811107C013C0992321F0F801E4
:101520009681907F69F0805E883030F409C0803FFA
:1015300038F0815F833020F0C8010E946007EF2CF3
:10154000FE2CEEC080911402816080931402E4C0EE
:1015500090910E029C119ACFE11098CFF8018683EA
:10156000C8010E94600787E0F801AEE0B2E0019098
:101570000D928A95E1F70E946709D2C0EE2009F426
:101580008ACF20911402822F82958F7090E002976B
:101590008CF080910E0290910F02998788879B862C
:1015A0008A86809112028C871D862E87CE0108962E
:1015B0000E94600787E0F801AEE0B2E001900D9272
:1015C0008A95E1F70E9478090E946709A7C0909167
:1015D0001402292F207FA1F4682D9A8A898AA601F6
:1015E0007A899E2D0E94C6078EE092E00E946007D5
:1015F00087E0F50111928A95E9F70E9467098CC08E
:10160000882309F48DC080910F028D1111C0809143
:101610000E028C110DC0E1100BC0F8019683C801B9
:101620000E94600787E0F50111928A95E9F778C07A
:10163000C8010E94B907882309F42DCFEE2009F4D0
:101640002ACF20911402822F82958F7090E002970A
:101650000CF4B0CF80910E0290910F029A8389838F
:101660009C828B82809112028D831E822F83CE01F9
:1016700001969ECF483C510508F040C0882309F4EC
:101680004DC0FE2CEE2009F406CF80910F028D1183
:1016900027C080910E028C1123C09091140290FDFE
:1016A00016C0892F82958F70282F30E021153105C3
:1016B00071F0F80196832F30310509F451CF8F5F17
:1016C000982F9295907F86818F70892B48CF87E0E5
:1016D000F801AEE0B2E001900D928A95E1F720C0EA
:1016E000C8010E94B907811165CF80911402816001
:1016F00080931402C8010E94600712C0682D9A8A64
:10170000898AA6017A899E2D0E94C60787E0F50185
:1017100011928A95E9F72FCFF12C02C0FF24F394A0
:101720008F2D6496ECE00C94C92BAEE0B0E0EBE9B1
:10173000FBE00C94B62B288739874A875B876C8738
:101740007D878E87CE0108960E94F109882361F07B
:101750006C856623A9F1288539854A855B857D8559
:101760008E850E94D0072CC087E0FE013896DE01EE
:10177000119601900D928A95E1F76C85662301F12F
:101780002091D50130E0C9010196877099274091D9
:10179000D40150E084179507E1F16D8397E0929FA3
:1017A000D001939FB00D1124AA52BE4FFE01319675
:1017B00001900D929A95E1F78093D5010E94450919
:1017C00017E08091D4019091D501891779F1189F84
:1017D000C00111248A529E4F0E94F109882331F1E1
:1017E000E091D4011E9FF0011124EA52FE4F2081A6
:1017F0003181428153816481758186810E94D00745
:101800008091D40190E00196877099278093D4014C
:10181000D8CF0E9499071092D5011092D401EEE022
:10182000F2E087E0DF011D928A95E9F72E96E3E06A
:101830000C94D22B80911D028695869586950895ED
:1018400080911D028770089590911D02977081E02C
:1018500009F480E008958091290208959091290269
:10186000892B8093290208958095909129028923DC
:1018700080932902089510922902089590912802D8
:10188000892B8093280208958095909128028923BE
:1018900080932802089510922802089508950E94C6
:1018A0004E0C08950E944F0C089590911F02292F0D
:1018B0002823821729F0982B90931F020E94520C24
:1018C000089590911F02292F282331F080958923B4
:1018D00080931F020E94520C089580911F0288235A
:1018E00029F010921F0280E00E94520C08950F937D
:1018F0001F93CF93DF930091000110910101C091DC
:10190000290280912802C82B80911F02882331F080
:10191000C82B0E944F2281110E946D0CF801C083D8
:10192000C0910001D091010148E050E065E172E012
:10193000CE010E94152C892B59F088E0FE01A5E10B
:10194000B2E001900D928A95E1F7CE010E94EC2160
:10195000DF91CF911F910F9108950E94770C089508
:101960000E944E0C08950E94B00C089590911E02A2
:10197000292F282331F08095892380931E020E940D
:10198000B30C08950E944E0C08959091700292FF3E
:1019900011C098E0899F90011124262B20931D02ED
:1019A0000E94110880911D028695869586950E9459
:1019B000C20C08950E941108089510921D0280E043
:1019C0000E94C20C089590911D02809589238093F6
:1019D0001D02282F277069F4981759F09091700212
:1019E00092FF07C08695869586950E941D080E94E5
:1019F000DD0C08959091700292FB222720F92817A0
:101A000069F080FB92F99093700280916F0290913F
:101A100070020E94490D82E00E94E30C08958091BB
:101A2000700282FB882780F991E089270E94FA0CD6
:101A3000089581E00E94FA0C089580E00E94FA0C5B
:101A400008956FEF7FEF80E090E00E946D2C089585
:101A500080E090E00E94392C853E9E4F19F40E9450
:101A6000FB1F089580E0089582E090E00E942B2CF7
:101A7000089583E090E00E942B2C0895682F83E066
:101A800090E00E944F2C089584E090E00E94392C51
:101A90000895BC0184E090E00E946D2C0895AB0194
:101AA000BC018FE090E00E94612C0895AB01BC0165
:101AB00083E190E00E94612C089560E070E0CB012A
:101AC0000E94560D089560E070E0CB010E944F0D1A
:101AD0000E945D0D0895A8E0B0E0E1E7FDE00C9400
:101AE000B72B65EE7EEF80E090E00E946D2C60E009
:101AF00082E090E00E944F2C81E08093D3010E940D
:101B00003E0D60E074E184E090E00E946D2C60E0A6
:101B100086E090E00E944F2C60E087E090E00E9419
:101B20004F2C40E050E0BA0188E090E00E94612C28
:101B300060E083E290E00E944F2C60E08CE090E057
:101B40000E944F2C60E08DE090E00E944F2C1982A3
:101B50001A821B821C821D821E821F82188648E008
:101B600050E067E170E0CE0101960E943F2C40E01A
:101B700050E0BA018FE190E00E94612C80E00E9469
:101B800014200E9449200E94630D2896E2E00C94E4
:101B9000D32B0E946B0D0895682F8EE090E00E9479
:101BA0004F2C0895A6E0B0E0E8EDFDE00C94B52BD5
:101BB0000E94DB238C0180912A0290912B0208174E
:101BC000190781F019821A820E94DB23682F49814C
:101BD0005A81792F80E090E00E946B0410932B02D1
:101BE00000932A022696E4E00C94D12B0E94E7236E
:101BF000609338027093390280933A0290933B02CB
:101C000060933402709335028093360290933702CA
:101C100008950E94E72360933802709339028093FD
:101C20003A0290933B0260933002709331028093AA
:101C3000320290933302089581E0089581E008957F
:101C40000E941E0E089508950E94230E08950E947A
:101C5000230E08950E94270E08950E94230E0895D2
:101C60000E942D0E08950E94230E089588EF90E1A2
:101C70000E946D120E94330E0E94300E08950E9441
:101C8000240E0E94230E08950E94280D811102C087
:101C90000E94C90D0E94340D80933C020E94440DA5
:101CA0009093700280936F020E94B6180E94390DC3
:101CB0000E94E7078091D2010E94FC0708950E94CC
:101CC000D2230E9459200E94F7160E94C2110E943E
:101CD000440E0E9445040E94C0150E942A0E0895D9
:101CE000A6E0B0E0E6E7FEE00C94AE2B0E941C0EEE
:101CF000811103C00E94D20D53C00E94D8118CE202
:101D0000E82E82E0F82E670100E0F60111916F01E4
:101D1000802F0E940D1181270F5F043019F0882356
:101D2000A1F302C0882331F380913C0281FD0E941F
:101D300013110E94200EA82E10E099249394812F55
:101D40000E940D11B82EF701C080C82609F100E0ED
:101D5000DD24D3948C2D8D21A9F0AA2099F009833C
:101D60001A830E94DB239C838B839D8291E08B2DC1
:101D70008D2109F490E049815A816B817C818D81AC
:101D80000E946B040F5FDD0C043021F7F701B08275
:101D90001F5FFFEFEF1AFF0A143089F60E94F60D5D
:101DA0000E945F160E94741781110E94090E0E9402
:101DB000FB1C0E9452042696EBE00C94CA2B1F9346
:101DC000CF93DF930E940D10EC01C11580E5D80779
:101DD000E8F5C11590E4D90708F0A8C0C03ED105C8
:101DE00030F5CD3CD10508F094C0C83AD10578F45F
:101DF000C53AD10508F083C0C130D10509F47CC0D3
:101E000008F4F2C0C430D10508F0F1C0EDC0C33C05
:101E1000D10508F0E9C0C85AD0E0CC0FDD1FC75A81
:101E2000DE4F0990D881C02DCE019464E1C0C11568
:101E300080E2D80708F0CBC0C11591E0D90708F0BF
:101E40006BC0C83ED10508F4D2C0CEC0C03682E512
:101E5000D80728F5C03492E5D90708F079C0C03218
:101E600082E5D80708F06CC0C11592E5D90708F4DF
:101E700081C04C2F4695469580E2489FA0011124D1
:101E8000C37021E030E0C90102C0880F991FCA95D4
:101E9000E2F7EA01C82BD92BCE019D68A9C0C03A50
:101EA00082E5D807B8F48C2F8F71C03892E5D90736
:101EB00008F07BC08695869590E2899F9001112459
:101EC000C37081E090E002C0880F991FCA95E2F7C5
:101ED0009A6868C0C03C82E5D80708F46DC0C03E6F
:101EE00092E5D90708F080C0CF71DD27DC2FCC2721
:101EF000CE01806F906A7CC081E090E079C0C55AC5
:101F0000D0E0C157DE4F8881C82FD0E0CE01906469
:101F10006FC0CE0190656CC08D2F0E94A910182F44
:101F2000CE0199270E940D101F715CC0CE01992728
:101F30000E940D10CC27DF70D06A8C2B9D2B58C0CF
:101F4000CF71D0E0DC2FCC27CE01816F906A50C0DA
:101F50008C2F8F718695869590E2899F9001112430
:101F6000C37081E090E002C0880F991FCA95E2F724
:101F70009C6818C08C2F8F710E94A91095E0D6958F
:101F8000C7959A95E1F7CF70D0E0DC2FCC27282FAA
:101F900030E084FF05C084E0220F331F8A95E1F70B
:101FA000D069CE01822B932B23C090E0D82FCC2771
:101FB000CE01846F906A1CC08C2F8F710E94A91073
:101FC0008F7190E0D82FCC27CE01906211C08D2F59
:101FD0008F710E94A910182FCE0199270E940D1011
:101FE0001F719062912B04C080E090E001C0CE018F
:101FF000DF91CF911F910895743038F4643028F444
:10200000462F672F0E946619089580E090E008959A
:102010000E94FC0F0E94DF0E08958238910569F13D
:10202000B0F48133910509F475C048F48932910503
:1020300009F467C08A32910509F471C008958533A7
:10204000910509F459C089339105B9F00895833E8B
:10205000910589F138F4803E9105D1F0823E9105D9
:1020600029F10895863E9105C9F1873E9105D9F180
:10207000843E910509F06CC027C020916F0220FDBD
:1020800057C021FD55C02091700223FD5BC008950B
:1020900080916F0280FD48C08091700280FF48C02F
:1020A00080916F0284FD46C083EE51C080916F0223
:1020B00082FF3CC0F5CF80916F0282FD37C08091D6
:1020C000700280FD35C0ECCF8091700281FF36C078
:1020D00080916F0284FD2EC087EE39C080916F021F
:1020E00083FF2AC0F5CF80916F0283FD25C08091C8
:1020F000700281FD23C0ECCF80916F0285FD22C06C
:102100001FC080916F0285FD1BC08091700283FF0C
:1021100019C00AC080916F0286FD16C017C0809159
:102120006F0286FD13C010C089E311C082EE0FC09C
:1021300080EE0DC080E00BC086EE09C084EE07C0C3
:1021400085E305C089E203C08AE201C081E390E033
:10215000089590916F0292FF10C041E0282F2471E2
:10216000243009F040E031E0282F2871283009F0B0
:1021700030E0431711F02CE0822793FF10C041E0BC
:10218000282F2471243109F040E031E0282F2871F4
:10219000283109F030E0431711F02CE0822730910C
:1021A000700230FF10C051E0282F2171213009F05A
:1021B00050E041E0282F2871283009F040E0541702
:1021C00011F029E0822731FF10C041E0282F217152
:1021D000213109F040E031E0282F2871283109F041
:1021E00030E0431711F029E0822794FD877E08959F
:1021F00080E00895CF939C01205E32452032310566
:1022000040F4FB01C581C11105C08F710E946A03B2
:1022100001C0C1E08C2FCF910895E82FF0E0EB587A
:10222000FD4F80810895089580EA8A95F1F7089519
:1022300000C008950E941411089508950E941D1170
:1022400008950E941E1108950E941D1108950E9474
:1022500024110895F894E82FE295EF70F0E031A191
:10226000282F2F7081E090E001C0880F2A95EAF7AF
:10227000982F9095932391A392A1892B82A3789470
:1022800008950F931F93CF93DF93C2E9D1E0899113
:102290008F3F11F00E942A1181E0C639D807B9F7A3
:1022A000C6E9D1E00AE911E089918F3F11F00E945F
:1022B0002A110C171D07C1F7DF91CF911F910F91C4
:1022C0000895EF92FF920F931F93CF93DF93C62F42
:1022D000D0E0CE56DE4F28812F3F09F44EC0042FA8
:1022E000162F7C01F894E22FE295EF70F0E081A1C7
:1022F000422F4F7021E030E001C0220F4A95EAF7EB
:10230000822B81A382A12095282322A378940E9466
:10231000181166E971E0F701A7014C5F5F4FF12CDE
:10232000302F3095DB012D91BD012F3FB1F0822F71
:1023300082958F7090E0DC0190968C9190E02F70E8
:1023400002C0959587952A95E2F780FD06C08081A9
:10235000802B8083FF24F39403C0808183238083B8
:102360003196E417F507F1F688818F3F11F00E944E
:102370002A116F2D812F0E941A11CDB7DEB7E6E02A
:102380000C94CF2B0E94411184E0E5E7F2E0DF01DD
:10239000982F1D929A95E9F7E1E7F2E0DF011D928F
:1023A0008A95E9F784E00E9418120E942711089587
:1023B000A4E0B0E0EEEDF1E10C94B52B19821A82A5
:1023C0001B821C8210E001E0402F612FCE0101969C
:1023D0000E9461111F5F000F1430B1F744E050E01C
:1023E000BE016F5F7F4F81E792E00E94152C21E0D4
:1023F000009709F420E0892B61F089819A81AB81F3
:10240000BC818093710290937202A0937302B09387
:10241000740244E065E772E081E792E00E941912DD
:10242000182F0E942111812F2496E4E00C94D12BC7
:102430000895EF92FF920F931F93CF93DF937C0148
:102440008B01C42F222351F081E080933F020E9430
:10245000DB2390933E0280933D0204C080913F02B3
:10246000811102C080E01AC080913D0290913E022D
:102470000E94F3230597B0F3D0E0AE01B701C80185
:102480000E94152C892B39F0AE01B701C8010E94BA
:10249000222C81E001C080E010923F02CDB7DEB770
:1024A000E6E00C94CF2B0E94700E08950E947223D8
:1024B0000E94E4250E94360E0E94FE250E945F0EB7
:1024C0000E940B260E9410260E9453120E942A2668
:1024D0000E94A9240E943F0EF5CF9093C5018093DE
:1024E000C40108950F931F93CF93FB01C581CC23A3
:1024F00009F444C08C010E942B0C8272F801E05256
:10250000F847EB30F105D8F5EE59FF4F0C949A2BB4
:102510000E94B21527C0882329F00E94A01522C06E
:102520008823D9F30E9490151DC0882329F00E94AA
:102530001C1518C08823D9F30E940D1513C08823D9
:1025400029F00E943E150EC08823D9F30E942D1554
:1025500009C0882329F00E94601504C08823D9F39C
:102560000E944F15C0E00BC0882329F00E942B1455
:10257000F9CF8823D9F30E940B14F4CFC1E08C2F3C
:10258000CF911F910F910895EF92FF920F931F9398
:10259000CF93DF938B01682F11110AC0442329F0D8
:1025A000E82FF0E0EA52FE4F6491762F862F75C037
:1025B000212F30E0E82FF0E0442321F0EA52FE4FD3
:1025C000E491F0E046E0049FC0011124CFEFD0E099
:1025D000BE010E94722B4BEA4603C001479F900D3B
:1025E0001124800F911D800F911D982F990F890F35
:1025F000AE01421B530B4E9FD0014F9FB00D5E9F0B
:10260000B00D11249B2F189FA0011124452F552791
:102610008E01041B150B0E9FA0010F9F500D1E9FD6
:10262000500D11247E01E81AF108E29E8001E39E1C
:10263000100DF29E100D1124212F3327C21BD30B36
:10264000CE9F9001CF9F300DDE9F300D1124623060
:102650007105A9F050F46115710571F061307105D3
:10266000C1F47E2F8B2F952F17C06430710569F050
:1026700048F06630710569F48B2F732F0CC07E2FE4
:10268000832F0AC08E2F752F07C08E2F7B2F932F7D
:1026900003C0852F7B2F9E2F692FCDB7DEB7E6E0D5
:1026A0000C94CF2B41E00E94C412089580917902CE
:1026B000982F96959695913021F083708460809341
:1026C000790280917C028B3018F08AE080937C0242
:1026D0000895A0E0B0E0EFE6F3E10C94B12B88E0C0
:1026E00090E00E94332C6B017C0183E290E00E9419
:1026F0002B2C282F30E040E050E060E070E080E0DC
:1027000090E000E20E94DE2BB22FA32FF42FE52FE2
:10271000D62FC72F97018601BC29A12BF22B5E2F44
:10272000532B2B2F3A2F4F2F6D2F7C2FCDB7DEB78A
:10273000E8E00C94CD2BA0E0B0E0E1EAF3E10C94EA
:10274000AD2B49015A016B017C010E945613840193
:10275000A4016A2D7B2D88E090E00E94612C9401F9
:102760004A2D5B2DB601C70100E20E94F92B622FB2
:1027700083E290E00E944F2CCDB7DEB7ECE00C94E2
:10278000C92BE9E7F2E020813181428153816481E4
:102790007581868197810E949B130895E9E7F2E095
:1027A00025E0208311828FEF82838AE08383148265
:1027B000758130E04FEF5AE060E0868197810E949A
:1027C0009B1308958091790280FF03C086958695BA
:1027D000089580E008958091790281700895909124
:1027E0007D02933018F49F5F90937D02882391F0CF
:1027F0002091790230917A0240917B0250917C02C3
:1028000060917D0270917E0280917F0290918002A2
:102810000E949B13089581E00E94EF130895909108
:102820007D02992319F0915090937D02882391F0B5
:102830002091790230917A0240917B0250917C0282
:1028400060917D0270917E0280917F029091800262
:102850000E949B13089581E00E940F1408958091B7
:102860007D02089580937D02662389F0682F209170
:10287000790230917A0240917B0250917C027091F2
:102880007E0280917F02909180020E949B130895A6
:1028900060E00E943214089580917A020895809138
:1028A0007B02089580917C0208950F931F93CF932C
:1028B0008091790280FF09C0E091A201F091A3010B
:1028C0000995CF911F910F910895C0910401009136
:1028D0009E0110919F0180910501C81768F78091B2
:1028E00002019C2F981B20E040E060E0892F90E0DF
:1028F000F8010995CF5FEFCFE9E7F2E020812E7F65
:1029000020833181428153816481758186819781E1
:102910000E949B130E9455140895E9E7F2E080811C
:102920008E7F80830E9455140895EF92FF920F933B
:102930001F93CF93DF939091790290FF1CC0042FD7
:10294000162FD82FC0910401E0909E01F0909F01B6
:1029500080910501C81768F4809102019C2F981B93
:10296000202F412F6D2F892F90E0F7010995CF5F20
:10297000EFCF0E945514CDB7DEB7E6E00C94CF2B15
:102980000F931F93CF93DF939091790290FF35C0FF
:10299000022FC42FD62F182FE92FE695E695F0E0E9
:1029A000E656FE4F8081809341029C7F943071F403
:1029B000842F4B3008F08AE0612F7D2F0E94521344
:1029C000962F672F482F892F0E94951410937A0213
:1029D000D0937B02C0937C02002379F0209179028E
:1029E00060917D0270917E02312F4D2F5C2F80917E
:1029F0007F02909180020E949B13DF91CF911F91E3
:102A00000F910895E9E7F2E09181282F43816281D7
:102A100088E0890F0E94C014089581E00E94021589
:102A20000895E9E7F2E09181282F4381628188EFE0
:102A3000890F0E94C014089581E00E941115089525
:102A4000E9E7F2E0628121E1620F08F46FEF282FDD
:102A5000438181810E94C014089581E00E94201565
:102A60000895E9E7F2E0628121E1621B08F460E089
:102A7000282F438181810E94C014089581E00E9423
:102A800031150895E9E7F2E0438121E1420F08F4AE
:102A90004FEF282F628181810E94C014089581E048
:102AA0000E9442150895E9E7F2E0438121E1421BCB
:102AB00008F440E0282F628181810E94C0140895AB
:102AC00081E00E945315089520E00E94C0140895EB
:102AD0002091790220FF1EC0237024602093790288
:102AE000662381F030917A0240917B0250917C0202
:102AF00060917D0270917E0280917F0290918002B0
:102B00000E949B1340917C0260917B0280917A022B
:102B10000E9464150895682F81E00E946815089549
:102B200081E00E948B150895682F90917902969507
:102B300096958FEF890F09F481E00E94681508953A
:102B400081E00E949415089561E00E94681508953F
:102B5000E9E7F2E0808181608083869586950E9416
:102B6000A41508958091790280FF03C00E947C140F
:102B700008950E94A815089560E00E9468150895C0
:102B80008091400281113AC00E946913209379021A
:102B900030937A0240937B0250937C0260937D02D3
:102BA00070937E0280937F02909380022C7FA1F429
:102BB0000E94CE130E9469132093790230937A0207
:102BC00040937B0250937C0260937D0270937E025F
:102BD00080937F02909380020E945613E0919C01A3
:102BE000F0919D0109958091790280FF04C086953E
:102BF00086950E94BC1581E08093400208950E9452
:102C000069132093790230937A0240937B025093A8
:102C10007C0260937D0270937E0280937F0290938A
:102C200080020E9456138091790280FF04C086952D
:102C300086950E94BC150895E9E7F2E080818160E5
:102C40008083869586950E94BC15089580917902AF
:102C500080FF03C00E948D1408950E941C160895E1
:102C60009091790290FF12C0223080F4922F242F8D
:102C7000462F682F80910201981BE0919E01F091F0
:102C80009F01892F90E009950E9455140895CF93D4
:102C90009091790290FF10C04B3008F04AE0C22FAB
:102CA000762F682F842F0E945213962F672F2C2F78
:102CB000482F892F0E943016CF91089508950895C6
:102CC000E1E8F2E081E2808311828BE182838CE093
:102CD000838360E2CF010E94A0240895E1E8F2E03E
:102CE00082E2808381E08183128286E0838360E2D6
:102CF000CF010E94A0240895E1E8F2E083E28083FE
:102D000011821282138260E2CF010E94A0240895F2
:102D1000FF920F931F93CF93DF93EC01F9800A8109
:102D2000802F90E08F0D911D039714F08DEF05C05B
:102D30000A3010F410E009C08EEF8093820260E246
:102D400081E892E00E94A0240CC02396101749F05D
:102D5000212F2F0D4A81698188810E9430161F5FC3
:102D6000F4CFCDB7DEB7E5E00C94D02BE1E8F2E08C
:102D700087E2808382E0818360E2CF010E94A02409
:102D80000895E1E8F2E088E2808382E0818360E2F6
:102D9000CF010E94A0240895DC01EC914E2F50E059
:102DA000FA01B197E830F105D0F4E359FF4F0C94E4
:102DB0009A2B0E94601602C00E946E1681E0089550
:102DC0000E947C16FBCF0E948816F8CF0E94FF1548
:102DD000F5CF0E94B616F2CF0E94C116EFCF80E069
:102DE00008950E94CC1608950E941E0E089588E052
:102DF000E4E4F2E0DF011D928A95E9F70E94FF17F3
:102E00000895FC01228130E02F5F3F4F237033276C
:102E1000438150E081E02417350709F080E00895F0
:102E20000F931F93CF93DF93EC01162F042F0E9473
:102E30000117811113C08A81FE01E80FF11D1F7770
:102E400064816078612B00FB67F964838F5F837016
:102E50008A8388818F5F888381E001C080E0DF9171
:102E6000CF911F910F910895FC0183819281981752
:102E7000B1F0DF01A80FB11D14968C9187FB992743
:102E800090F98F77DB018C93DA019C9383818F5FBC
:102E90008370838381818F5F818381E0089580E0E7
:102EA0000895462F682F84E492E00E941017089539
:102EB000AB01BC0184E492E00E9434170895CF93E3
:102EC000DF93D62F0E94D702C82F882349F06AE0EB
:102ED00070E0DD2311F089EA01C08AEA0E942E0524
:102EE0008C2FDF91CF910895A2E0B0E0EAE7F7E1FF
:102EF0000C94B62B80914302882351F01092430228
:102F0000809146028093470280914402809345025B
:102F10000E9442180E94F41610E0882379F0BE0146
:102F20006F5F7F4FCE0102960E945817882331F0C1
:102F300069818A810E945F1711E0F1CF812F22966B
:102F4000E3E00C94D22B8FE891E00197F1F700C0F9
:102F500000000895611102C086E601C087E637B11E
:102F6000282F2F7081E090E001C0880F2A95EAF7A2
:102F7000982F9095932397B998B1892B88B9089584
:102F8000611102C026E601C027E686B190E02F70ED
:102F900002C0959587952A95E2F781700895089566
:102FA000CF93DF93C0E080914C02C81750F460E0EB
:102FB0008C2F0E94AA1761E08C2F0E94AA17CF5F66
:102FC000F2CF0E94A317C0E080914C02C81790F482
:102FD00060E08C2F0E94C017D82F61E08C2F0E94D8
:102FE000C017EC2FF0E0E25BFD4F880FD82BD083A9
:102FF000CF5FEACF0E94CF17DF91CF91089581E094
:1030000080934C020E94D01708951F93CF93DF93B3
:10301000E42FEE0F6E2BC82FD0E0DE01A25BBD4F78
:10302000EC912E2F237030E0462F50E02417350707
:1030300029F1182FEE0FEE0FE62BEC93EF70F0E076
:10304000EC55FE4FC35BDD4F90818881890F8883EB
:10305000843024F060E0812F0E94511788818D3FD9
:1030600024F461E0812F0E9451178881082E000C02
:10307000990B64E070E00E94862B8883DF91CF91EA
:103080001F910895CF93DF93C0E080914C02C81741
:1030900080F461E08C2F0E94C017D82F60E08C2F45
:1030A0000E94C0174D2F682F8C2F0E940518CF5FEC
:1030B000ECCFDF91CF910895269A0895FC01EE0F91
:1030C000FF1F8E0F9F1FFC01EF55FD4F6183408353
:1030D00022830895E1EAF2E081836083428384835E
:1030E00063834583089585B18F7B95B190642FB735
:1030F000F894E1EAF2E032E0E73AF30789F031913F
:1031000048E095B9000000C037FF85B9330F0000D3
:1031100000C000C000C085B900C04A9591F7EBCF50
:103120002FBF8FE594E00197F1F700C000000895EC
:103130000E94210D089580E00E940D118170089574
:103140000E94D8112FEF86E791E0215080409040F7
:10315000E1F700C000000E94D8110E949B1888234C
:1031600021F00E9498180E94282408950E94A01817
:10317000089584E0089550E0440F551F28E0629FB1
:10318000400D511D11249A0160E2869F200D311DD2
:103190001124C901889608950F931F93CF93DF934D
:1031A0008430A0F4643090F4443080F40E94BB1862
:1031B0008C010E942B2C90E0D82FCC27C8010196BF
:1031C0000E942B2C9E01282BC90102C080E090E0B8
:1031D000DF91CF911F910F9108950F931F93CF937C
:1031E000DF93843080F4643070F4443060F4E9019B
:1031F0000E94BB188C016D2F0E944F2C6C2FC801B0
:1032000001960E944F2CDF91CF911F910F9108954D
:103210001F93CF93DF93D0E0C0E010E0412F6C2FDD
:103220008D2F0E94E2029C01412F6C2F8D2F0E9456
:10323000ED181F5F143091F7CF5FC43071F7DF5F77
:10324000D43051F7DF91CF911F910895EF92FF9203
:103250000F931F93CF93DF93EA017A01E60EF71ED7
:103260008C01C8018896CE15DF0561F00038110584
:1032700020F40E942B2C888301C0188221960F5FB6
:103280001F4FEFCFCDB7DEB7E6E00C94CF2BEF9218
:10329000FF920F931F93CF93DF93EA017A01E60E1B
:1032A000F71E8C01C8018896CE15DF0551F0003855
:1032B000110518F468810E944F2C21960F5F1F4F53
:1032C000F1CFCDB7DEB7E6E00C94CF2B843038F4E5
:1032D000643028F4443018F40E94CC18089580E03B
:1032E00090E0089580E1089588E593E00895EF92D5
:1032F000FF920F931F93CF93DF93EA017A01E60EBB
:10330000F71E8C01C80188559F4FCE15DF0569F067
:10331000083523E0120720F40E942B2C888301C07B
:10332000188221960F5F1F4FEDCFCDB7DEB7E6E0D5
:103330000C94CF2BEF92FF920F931F93CF93DF93B9
:10334000EA017A01E60EF71E8C01C80188559F4FED
:10335000CE15DF0559F0083523E0120718F468810F
:103360000E944F2C21960F5F1F4FEFCFCDB7DEB7D6
:10337000E6E00C94CF2BCF93DF93C8EAD0E060E077
:10338000CE010E944F2C2196C11584E0D807B9F7D1
:10339000DF91CF910895A8E0B0E0E1EDF9E10C9460
:1033A000AD2BF82E8FE08F1508F474C08FEF93E0EB
:1033B0000E942B2C81116EC008EA10E0FF2071F0F2
:1033C000011594E0190709F465C0C8010E942B2C6F
:1033D000811101C0FA940F5F1F4FF0CFFE013196AB
:1033E0006F0188E011928A95E9F77801FFEFEF1AF3
:1033F000FF0AC8010E942B2C89831A82882309F4B2
:1034000049C0813009F040C0580182E0A80EB11CCB
:10341000C7010E942B2C8A838823E1F19FEF980F2C
:10342000933060F4780193E0E90EF11CC5010E942D
:103430002B2C8B83882371F11C8226C0843019F5D4
:103440004E01E3E08E0E911C02E010E07501FFEFEB
:10345000EF1AFF0AC5010E942B2CF40181934F0142
:103460008823C1F08C3741F4E2E0F0E0EC0FFD1F5F
:10347000E00FF11F108208C00F5F1F4F5701073088
:10348000110521F707C0750160E0C6010E949B1E6F
:103490008701ABCF2896ECE00C94C92BCF93DF9338
:1034A00086319C4709F5EB010E942B0C9D819923E5
:1034B00071F08A7A91E009F490E090934F028111C3
:1034C00002C089E201C085E30E94992209C080916F
:1034D0004F02811102C089E201C085E30E94A1224E
:1034E0000E94AD0C80E001C081E0DF91CF91089592
:1034F000CF93DF93FC01DB0115968C91882309F4AF
:10350000DDC09F0130572332310508F0D8C0EF01EC
:103510000E94440D9093700280936F02FE01E1506F
:10352000F047E232F10520F4EB58FF4F0C949A2B50
:1035300080916F028160AAC0809170028860B2C0E1
:1035400080916F028260A2C080916F0220C0809142
:103550006F0288609BC0809170021EC080917002D3
:103560008260A0C080916F02806190C080916F02E4
:1035700080628CC080916F02806488C00E9499072D
:1035800080916F02806882C080916F028860846041
:103590007DC0809170028260816084C080916F02E2
:1035A0008E7F74C080917002877F7CC080916F0293
:1035B0008D7F6CC080916F0220C080916F02877FE9
:1035C00065C0809170021EC0809170028D7F6AC0BC
:1035D00080916F028F7E5AC080916F028F7D56C09E
:1035E00080916F028F7B52C00E94990780916F0279
:1035F0008F774CC080916F02877F8B7F47C080910F
:1036000070028D7F8E7F4EC080916F0282FB2227D9
:1036100020F991E0922790FB82F990FB83F936C064
:1036200080917002982F909591708E7F892B90FBDE
:1036300081F938C080916F0286FB222720F991E042
:10364000922790FB86F922C00E94990780916F0211
:1036500087FB222720F991E0922790FB87F916C07B
:1036600081E001C080E00E94CC0D1EC080916F02FD
:1036700084FB222720F991E0922790FB84F906C071
:1036800080916F02982F909590FB80F980936F0244
:103690000BC08091700283FB222720F991E09227D2
:1036A00090FB83F98093700280916F029091700279
:1036B0000E94490D0E94990780E001C081E0DF91DE
:1036C000CF910895282F35EB2303C001112497FFD4
:1036D00003C08058910902C080589F4F892F0895D8
:1036E0008091560280FF06C060910C0170E0660F69
:1036F000771F26C081FF04C060910C0184E005C0E3
:1037000082FF07C060910C0188E0689FB00111241E
:1037100017C0909155029923D1F060910B01961733
:1037200088F720910C0188E0289F90011124929F36
:10373000A001939F500D112470E0CA010E94862BB6
:103740006038710540F46115710519F406C068E030
:1037500070E0862F08958FE7089581E008958091A5
:10376000560280FF08C06091080170E0759567956A
:103770007595679521C081FF06C06091080170E0D2
:103780007595679519C082FF04C06091080170E0CB
:1037900010C090915402992399F0609107019617F7
:1037A000A0F780910801899FC001112470E00E9458
:1037B000862B6038710540F46115710519F406C057
:1037C00061E070E0862F08958FE7089581E0089505
:1037D0008D3C21F40E94701B819504C08E3C29F41D
:1037E0000E94701B80935A0208958F3C21F40E941E
:1037F000701B819504C0803D29F40E94701B80934A
:1038000059020895893D19F40E94AF1B05C08A3DF5
:1038100031F40E94AF1B819580935B0208958B3D2C
:1038200021F40E94AF1B819504C08C3D29F40E94B5
:10383000AF1B80935C0208959FE2980F983078F454
:1038400021E030E0A90102C0440F551F9A95E2F72C
:10385000CA0190915802892B8093580208958D3D9A
:1038600021F48091560281600BC08E3D21F480913D
:103870005602826005C08F3D29F480915602846013
:103880008093560208958D3C39F490915A0297FF27
:1038900035C010925A0259C08E3C29F490915A02B8
:1038A0001916BCF32BC0909159028F3C29F497FF55
:1038B00025C01092590249C0803D19F41916CCF365
:1038C0001DC090915B02893D29F41916BCF4109239
:1038D0005B023BC08A3D19F497FF10C0F8CF8B3DC7
:1038E00039F490915C0297FF09C010925C022DC0E0
:1038F0008C3D21F490915C021916BCF39FE2980F65
:10390000983080F421E030E0A90102C0440F551F37
:103910009A95E2F7CA018095909158028923809385
:10392000580213C08D3D21F4809156028E7F0BC04A
:103930008E3D21F4809156028D7F05C08F3D29F484
:10394000809156028B7F809356028091590281119B
:1039500006C080915A02811102C0109255028091D6
:103960005B02811106C080915C02811102C010923D
:10397000540208950E94DB2320915902211104C0B2
:1039800020915A02222321F09093530280935202F5
:1039900020915B02211104C020915C02222321F0BE
:1039A000909351028093500287E592E00E94F721A4
:1039B0000895E7E5F2E086E0DF011D928A95E9F7D8
:1039C0001092550210925402109256020895FC0172
:1039D000828181110DC0838181110AC0848181118E
:1039E00007C091E08581811101C090E0892F01C05D
:1039F00081E081700895A6E0B0E0E1E0FDE10C9483
:103A0000B62B86E0E7E5F2E0DE01119601900D921B
:103A10008A95E1F71092590210925A0210925B02B5
:103A200010925C028B81811104C08C81882309F47F
:103A300056C080915202909153020E94F323AC0130
:103A400090915502992339F020910D0130E024170F
:103A5000350758F044C020910E018AE0289F90015C
:103A600011242417350718F03AC09F3F19F09F5FC3
:103A7000909355021B81112361F00E94701B111657
:103A800014F09FEF01C091E0989F902D1124909326
:103A900059021C81112361F00E94701B111614F051
:103AA0009FEF01C091E0989F902D112490935A02AE
:103AB00080915902882399F010915A02112379F0CC
:103AC0000E94621B811101C081E080935902812F05
:103AD0000E94621B811101C081E080935A028D8196
:103AE000811104C08E81882309F456C08091500250
:103AF000909151020E94F323AC01909154029923BA
:103B000039F02091090130E02417350758F044C0FE
:103B100020910A018AE0289F90011124241735077B
:103B200018F03AC09F3F19F09F5F909354021D8197
:103B3000112361F00E94AF1B111614F09FEF01C01A
:103B400091E0989F902D112490935B021E81112388
:103B500061F00E94AF1B111614F09FEF01C091E0BD
:103B6000989F902D112490935C0280915B02882392
:103B700099F010915C02112379F00E94621B81116F
:103B800001C081E080935B02812F0E94621B811142
:103B900001C081E080935C02BE016F5F7F4F87E5CB
:103BA00092E00E94B422811105C087E592E00E9454
:103BB000E71C81110E94BA1C86E0FE013196A7E540
:103BC000B2E001900D928A95E1F72696E3E00C941D
:103BD000D22B8F929F92BF92CF92DF92EF92FF9261
:103BE0000F931F93CF93DF93E82FF0E0EA52FD4F3E
:103BF000B490282F26952695269530E0F901EA58AD
:103C0000FC4FE4908770F12C082E02C0F594E794E5
:103C10000A94E2F791E0E922FF24F901EA59FC4F06
:103C2000C490D12C082E02C0D594C7940A94E2F710
:103C3000E1E0CE22DD24F901EA5AFC4FC491D0E044
:103C400002C0D595C7958A95E2F7C170DD27062F8A
:103C500010E0E114F10471F081EE0E94B104C8019A
:103C6000009741F0EFE9FFE03197F1F700C0000065
:103C70000197F6CFC114D10439F44801B8018B2D56
:103C80000E942E05C8010EC086EE0E94B104C80134
:103C9000009799F3EFE9FFE03197F1F700C00000DA
:103CA0000197F6CF009741F0EFE9FFE03197F1F788
:103CB00000C000000197F6CFCD2819F5EF2879F064
:103CC00081EE0E94FB040115110549F08FE99FE088
:103CD0000197F1F700C0000001501109F4CFCD2B7E
:103CE000F1F08CE20E94460581149104C1F0EFE9E5
:103CF000FFE03197F1F700C00000F1E08F1A910862
:103D0000F3CF86EE0E94FB04C8010097B9F2EFE9F9
:103D1000FFE03197F1F700C000000197F6CFDF9187
:103D2000CF911F910F91FF90EF90DF90CF90BF90B8
:103D30009F908F900895EF92FF920F931F93CF93D0
:103D4000DF93EC01162F0AE08881882309F457C01D
:103D5000813009F04FC08981813041F47E0182E0D9
:103D6000E80EF11C8A810E94460509C0823049F4A0
:103D70007E01E2E0EE0EF11C8A810E94B104E701AF
:103D80002DC0833041F47E01F2E0EF0EF11C8A81F8
:103D90000E94FB04F4CF843011F021961FC02A81C9
:103DA000229680E090E030E0205331092A3031053E
:103DB00058F4089FA001099F500D1124C901840FD8
:103DC000951F21962881EFCF009741F0EFE9FFE0A2
:103DD0003197F1F700C000000197F6CF812F90E0F6
:103DE000009759F0EFE9FFE03197F1F700C00000CC
:103DF0000197F6CF612F0E94E91D2196A5CFCDB77F
:103E0000DEB7E6E00C94CF2B0F931F93CF93DF9395
:103E1000C42FD22FFC0185818823B1F040935F022B
:103E20000E94DB2390935E0280935D0280E28C0F00
:103E3000883008F04DC0C77081E001C0880FCA9576
:103E4000EAF70E94500544C080915F02481330C0D9
:103E500080915D0290915E020E94F323883C91055F
:103E600038F510E21D0FCD17B9F080E28C0F8830C5
:103E700040F4C77081E001C0880FCA95EAF70E943C
:103E80005705183010F581E09D2F977001C0880FFD
:103E90009A95EAF70E945005802F0E944605183037
:103EA000B8F4D77081E001C0880FDA95EAF70AC04C
:103EB00080E28C0F883060F4C77081E001C0880F09
:103EC000CA95EAF70E94570503C0802F0E94460555
:103ED000DF91CF911F910F9108950F93FC01E8514D
:103EE000FC47E730F10590F5CB01E956FF4F0C9404
:103EF0009A2B06E221EE41EE6AE17CE723C007E25D
:103F000025EE45EE6BE17CE71DC006E221EE40EEBA
:103F100068E17CE717C007E225EE44EE69E17CE743
:103F200011C006E221EE42EE6CE17CE70BC007E235
:103F300025EE46EE6DE17CE705C008E221E045EEA6
:103F40006EE17CE70E94041F80E008C0FB018581D0
:103F5000882319F010925F0201C081E00F9108954B
:103F60001F93CF93DF9387372CE7920721F0883791
:103F70009C4759F031C0FB01C581CC2319F00E9448
:103F8000F21F09C00E94F21F18C0FB01C581CC239B
:103F900091F00E94F51F0E9411080E94F81FD82F6F
:103FA0000E94F51FC82F0E94F21F4D2F6C2F0E94F8
:103FB0003B09C0E012C00E94F51F0E941D080E942C
:103FC000F81F182F0E94F51FD82F0E94F21F412FB3
:103FD0006D2F0E943B0901C0C1E08C2FDF91CF9172
:103FE0001F91089580911101089580911001089505
:103FF00080910F01089584E290E00E942B2C85327D
:1040000081F485E290E00E942B2C823051F486E20C
:1040100090E00E942B2C91E0823009F090E0892FF3
:1040200001C080E081700895CF93C82F811102C034
:104030006FEF01C065E284E290E00E944F2CC11155
:1040400002C06FEF01C062E085E290E00E944F2C59
:10405000C11102C06FEF01C062E086E290E00E94F1
:104060004F2CCF910895089587E290E00E942B2C69
:10407000682F70E080E090E008950895CF93C62FF8
:104080000E943D206C2F87E290E00E944F2CCF9140
:10409000089580E00E94142060E070E0CB010E944F
:1040A0003E200E9408190E94BB1981E00E94142042
:1040B00008950E9433200E9434200E943D200E94D7
:1040C000FB1F811102C00E94492008950E942616FC
:1040D00008959C01FB018581882351F0A901575760
:1040E0004038510530F4C9010E94CB1980E0089591
:1040F00081E008952FEFFC0120830895CF93DF9393
:10410000EC0188818230D1F070F4813019F50E9481
:1041100052142FEF829FC00111246AE070E00E94C8
:10412000722B698317C0833091F0843099F40E9418
:104130004C1489830E944F148A830CC00E94EB1395
:10414000882319F00E94E21304C080E002C00E949C
:104150002F148983DF91CF910895CF93DF93EC01E2
:104160008881823001F1A8F4813079F5C9810E94FB
:104170004F14D82F0E944C14282F3AE0C39FC0013F
:1041800011246FEF70E00E94722B462F6D2F822F4B
:104190001AC08330A1F08430C1F40E945214482F19
:1041A0006A81898110C08981811103C00E948D14A8
:1041B0000CC00E941C1689810E94BC1506C0898112
:1041C0000E94481402C00E946415DF91CF910895A7
:1041D000FC019C012E5F3F4F9081983041F0993057
:1041E00051F0973059F4C9010E94AD200895C901DA
:1041F0000E947E2008950E94C11308958FEF80834E
:104200000895FC012181223019F40E94E8200895CC
:104210000E947A200895A0E0B0E0E1E1F1E20C9480
:10422000AF2BEC01F62E0E94F1168111BEC0E88181
:104230008E2F90E0FC013197E331F10508F0AFC01B
:10424000E256FF4F0C949A2B19828CE06BC0898147
:10425000823089F030F4813009F0A1C00E94E72358
:104260000CC0833079F0843009F099C01A821B8227
:104270001C821D8296C00E9434209A838B837C838B
:104280006D838FC0EA806E0183E0C80ED11C00E010
:1042900010E0AE2CB12CC501800F911F049708F0DF
:1042A00080C08E2D800F0E940D11F60181936F0149
:1042B0000F5F1F4F0C31110571F773C08981823078
:1042C00039F0853009F06BC08A810E94662069C090
:1042D0006A817B818C819D810E94A02B0E943E205F
:1042E00060C04B816A8189810E94CC189C838D8338
:1042F00058C02C813D813227232732274B816A8188
:1043000089810E94ED184DC00E9408194AC06F2D86
:10431000CE010E94012145C00E94721924C00E9452
:10432000741999838A833DC06B8170E089819A8179
:10433000AE014C5F5F4F9827892798270E94771915
:1043400030C06B8170E089819A81AE014C5F5F4F14
:104350009827892798270E949A1923C00E94BB1981
:1043600020C00E94B91889831CC06B8170E08981CC
:104370009A81AE014C5F5F4F9827892798270E944A
:1043800026190FC06B8170E089819A81AE014C5F64
:104390005F4F9827892798270E94471902C08FEFFF
:1043A00088836F2DCE010E94A024CDB7DEB7EAE04E
:1043B0000C94CB2B90936502809364020895E09156
:1043C0006402F0916502309729F00190F081E02DB0
:1043D0000995089580E00895E0916402F0916502E6
:1043E000309721F00280F381E02D09950895E09146
:1043F0006402F0916502309739F022E0DC012C93E1
:104400000680F781E02D09950895A3E0B0E0EBE088
:10441000F2E20C94B72B20916202309163022817CC
:104420003907A1F09093630280936202E0916402E5
:10443000F0916502309751F023E029839B838A83B2
:104440000084F185E02DCE01019609952396E2E0E6
:104450000C94D32BA3E0B0E0E0E3F2E20C94B72B92
:10446000209160023091610228173907A1F09093E2
:10447000610280936002E0916402F09165023097DE
:1044800051F024E029839B838A830084F185E02D09
:10449000CE01019609952396E2E00C94D32BE0918E
:1044A0000001F0910101329697E080E0915029F0EF
:1044B00021912223D9F38F5FF9CF0895882371F0DA
:1044C0002091000130910101F9013296285F3F4FA0
:1044D0009191891729F0E217F307D1F780E0089549
:1044E00081E008959C01FC0132969FEF80E04191AC
:1044F000461789F09F3F19F4411101C0982F8F5F33
:104500008630A9F79F3F39F0F901E90FF11D97FDBA
:10451000FA956283089508959C012A5F3F4FFC013C
:104520004281461301C01282019682179307B9F7A0
:104530000895682F80910001909101010E947222DC
:104540000895682F80910001909101010E948C22B2
:104550000895E0910001F0910101329686E0DF01BB
:104560001D928A95E9F70895DC01FB0111969C9153
:1045700011978181981321C012968C9112978823EC
:1045800019F09281891319C013968C91139788237F
:1045900019F09381891311C015968C911597882372
:1045A00019F09581891309C014969C91992339F0CB
:1045B00081E02481291304C002C081E001C080E0B1
:1045C0008170089508950E94E222089583E0809307
:1045D0001501609112017091130180911401909165
:1045E00015010E94E3220895811102C081E001C0FB
:1045F00082E0809315016091120170911301809106
:104600001401909115010E94E32208950E94F42262
:10461000089581E08093150160911201709113015A
:1046200080911401909115010E94E32208950E9447
:104630000923089591E0811101C090E09093140145
:1046400060911201709113018091140190911501F4
:104650000E94E3220895809114010895809313012C
:1046600060911201709113018091140190911501D4
:104670000E94E3220895809113010895809312010E
:1046800060911201709113018091140190911501B4
:104690000E94E322089580911201089508950E94D6
:1046A0004E2308950E944F2308950E944E2308959B
:1046B0000E944E2308950E944E230895CF930E9496
:1046C00058230E94D8110E945523C0E08C2F0E94CD
:1046D0000D11811104C0CF5FC430C1F701C081E06A
:1046E000CF91089585B7806885BF85B7806885BFFD
:1046F00008951F920F920FB60F9211248F939F93DC
:10470000AF93BF9380916602811113C08091A7027D
:104710009091A802A091A902B091AA024196A11D70
:10472000B11D8093A7029093A802A093A902B09311
:10473000AA02BF91AF919F918F910F900FBE0F90E2
:104740001F9018958091AF02843031F10E941504BA
:104750001092660220E488E190E00FB6F894A895E4
:10476000809360000FBE2093600083B7817F8460D8
:1047700083BF83B7816083BF7894889583B78E7F2A
:1047800083BF0FB6F894A8958091600088618093EC
:104790006000109260000FBE08950E9499070E9469
:1047A0001A04089582E084BD93E095BD9AEF97BD09
:1047B00080936E0008952FB7F8948091A70290918E
:1047C000A802A091A902B091AA022FBF08952FB705
:1047D000F8946091A7027091A8028091A90290912B
:1047E000AA022FBF08959C014FB7F8948091A702A9
:1047F0009091A802A091A902B091AA024FBF821B7A
:10480000930B089578941F920F920FB60F92112474
:104810008F939F93AF93BF938091A7029091A8022B
:10482000A091A902B091AA020196A11DB11D809389
:10483000A7029093A802A093A902B093AA02BF91E5
:10484000AF919F918F910F900FBE0F901F90189571
:1048500081E08093E00080E28093D8001092C9004C
:104860008FE19EE40197F1F700C0000087E090EB34
:10487000DC018093B8029093B902A093BA02B0937E
:10488000BB029CE088E10FB6F894A8958093600085
:104890000FBE90936000FFCF9CE088E10FB6F894C4
:1048A000A895809360000FBE90936000FFCF08959D
:1048B0009B019091AF029430F1F48F708093E900E6
:1048C0008FEF9091E800815095FD06C095ED9A9587
:1048D000F1F700008111F5CF8091E80085FF0BC052
:1048E000BA01C90140E050E00E949F268091E80093
:1048F0008E778093E800089543E050E0BC0184E0A7
:104900000E945824089546E050E0BC0184E00E94D3
:1049100058240895CF93DF93EC010E942B2348E0A5
:1049200050E0BE0181E00E94582488E0FE01A7E625
:10493000B2E001900D928A95E1F7DF91CF91089551
:10494000603231F4BC0140E250E082E00E94582421
:104950000895A0E2B0E0EFEAF4E20C94B72B809166
:10496000AF02843011F583E08093E9008091E80084
:1049700082FF1BC08091E80085FF0AC040E050E044
:1049800060E270E0CE0101960E94E42691E001C051
:1049900090E08091E8008B778093E800992329F0DC
:1049A00060E2CE0101960E940B21A096E2E00C94F9
:1049B000D32B8091AE02811109C00E946F280E9402
:1049C000CC288091E20084608093E20008951092E8
:1049D000AE0208950E94172381E00E941A230895D1
:1049E0006091AB0281E0611101C080E00E94E6228B
:1049F00008959091AF0281E0943009F080E06091D9
:104A0000AB020E94F422089542E061EC81E00E9432
:104A1000E82742E261EC84E00E94E82742E261EC90
:104A200082E00E94E82742E260EC83E00E94E827EF
:104A30009091AF0281E0943009F080E06091AB0288
:104A40000E94062308958091B102833009F463C067
:104A500030F4813071F0823009F49DC008958A30BD
:104A600009F489C08B3009F46EC0893009F0ABC0FD
:104A700020C08091B002813A09F0A5C08091E80081
:104A8000877F8093E8008091B4029091B502892BD2
:104A900021F468E087E692E003C060E080E090E007
:104AA00070E00E9429278091E8008B778093E800CE
:104AB00008958091B002813209F085C08091B402DE
:104AC0009091B502009719F0029709F07CC080918F
:104AD000E800877F8093E8008091E80082FD05C0B0
:104AE0008091AF028111F8CF6EC02091F3008091C8
:104AF000F20090E0922B029731F48091F100813026
:104B000011F0863021F48091F1000E942E238091D3
:104B1000E8008B7754C08091B002813A09F053C00D
:104B20008091B4029091B502892B09F04CC080911C
:104B3000E800877F8093E8008091E80080FFFCCF49
:104B40000E942B2337C08091B0028132E1F5809121
:104B5000B4029091B502892BB1F58091E800877F6E
:104B60008093E8000E941D288091B2020E941A23BF
:104B70000E94990708958091B002813221F58091B9
:104B8000E800877F8093E8000E941D288091B3028F
:104B90000E943E2308958091B002813AA1F4809151
:104BA000E800877F8093E8008091E80080FFFCCFD9
:104BB0000E944B238093F1008091E8008E778093D0
:104BC000E8000E941D28089584B7877F84BF0FB630
:104BD000F894A8958091600088618093600010929D
:104BE00060000FBE90E080E80FB6F89480936100FB
:104BF000909361000FBE0E94092308950E946F28C0
:104C00000E94CC28E2EEF0E080818460808378947A
:104C10000E94572B089586E191E00E94DA210895C1
:104C20008091AF028530A9F48091AF02853079F48C
:104C30000E94A2230E945E238823B1F38091AD02DB
:104C4000882391F30E9489260E949907EDCF0E9444
:104C5000CD23089508959A014091B6025091B7026C
:104C60000E9433260895492F552743305105C9F036
:104C700060F44130510581F04230510509F041C0E6
:104C80008BE590E044EB53E040C041325105E1F048
:104C90004232510531F135C082E190E04FE054E0FD
:104CA00034C099278130910549F028F0029749F5E1
:104CB000E6E8F3E005C0E0EBF3E002C0EAE9F3E088
:104CC000849190E0AF0121C063307105D0F4660F8C
:104CD000771FFB01E354FE4F4081518189E090E052
:104CE00014C06330710568F4FB01EE0FFF1FE95437
:104CF000FE4F40815181FB01EC54FE4F808190E0DA
:104D000004C080E090E040E050E0F901518340832E
:104D1000089580E189BD82E189BD09B400FEFDCF1F
:104D20008091D8008F7D8093D8008091E0008260D0
:104D30008093E0008091E00081FDFCCF0895A0E029
:104D4000B0E0E5EAF6E20C94B12BEC018B017A01BC
:104D50000E943C28811133C0E114F10439F0F701BD
:104D600080819181081B190BC80FD91FC12CD12C30
:104D70000115110519F18091E80085FD16C080919B
:104D8000E8008E778093E800E114F10449F0F70120
:104D900080819181C80ED91ED182C08285E00FC06A
:104DA0000E943C28882321F30AC089918093F10056
:104DB00001501109FFEFCF1ADF0ADACF80E0CDB73B
:104DC000DEB7E8E00C94CD2BA0E0B0E0EAEEF6E22E
:104DD0000C94B12BEC018B017A010E943C288111CB
:104DE00033C0E114F10439F0F70180819181081B8F
:104DF000190BC80FD91FC12CD12C0115110519F1A0
:104E00008091E80085FD16C08091E8008B77809343
:104E1000E800E114F10449F0F70180819181C80EA6
:104E2000D91ED182C08285E00FC00E943C28882311
:104E300021F30AC08091F100899301501109FFEF1D
:104E4000CF1ADF0ADACF80E0CDB7DEB7E8E00C9406
:104E5000CD2B2091B6023091B7022617370748F0C4
:104E60006115710539F42091E8002E772093E80050
:104E700001C0B901FC0120E06115710579F1809153
:104E8000AF028823F1F18530F1F18091E80083FDD4
:104E90003CC08091E80082FD2EC08091E80080FF38
:104EA000EBCF2091F3008091F20090E0922B6115FE
:104EB000710551F08830910538F421912093F1006B
:104EC000615071090196F3CF21E0089709F020E0C5
:104ED0008091E8008E778093E800CECF2111CFCF6C
:104EE0000AC08091AF02882361F0853061F0809123
:104EF000E80083FD0AC08091E80082FFF2CF80E0E5
:104F0000089582E0089583E0089581E00895209156
:104F1000B6023091B7022617370748F061157105C0
:104F200039F42091E8002E772093E80001C0B90100
:104F3000FC0120E06115710591F18091AF02882399
:104F400009F440C0853009F43FC08091E80083FD3A
:104F50003DC08091E80082FD2FC08091E80080FF75
:104F6000E9CF2091F3008091F20090E0922B61153F
:104F7000710559F08830910540F424912093F10097
:104F80003196615071090196F2CF21E0089709F03E
:104F900020E08091E8008E778093E800CBCF21114C
:104FA000CCCF0AC08091AF02882361F0853061F0D8
:104FB0008091E80083FD0AC08091E80082FFF2CF73
:104FC00080E0089582E0089583E0089581E00895E7
:104FD000982F973068F59093E900981739F0709101
:104FE000EC002091ED005091F00003C0242F762FAB
:104FF00050E021FD02C09F5FECCF3091EB003E7F7F
:105000003093EB003091ED003D7F3093ED00309117
:10501000EB0031603093EB007093EC002093ED00D7
:105020005093F0002091EE0027FDE5CF80E0089539
:105030008F708093E90081E008958091B00287FF2E
:1050400011C08091E80082FD05C08091AF028111FE
:10505000F8CF11C08091E8008B770BC08091AF0230
:10506000882349F08091E80080FFF8CF8091E80024
:105070008E778093E80008952091E4003091E50058
:1050800095E64091EC00842F817040FF23C0809111
:10509000E80080FD1DC08091AF02882399F0853023
:1050A00099F08091EB0085FD11C04091E400509192
:1050B000E5002417350729F3915011F09A01E1CF4B
:1050C00084E0089582E0089583E0089581E00895E2
:1050D00080E008954091E80042FFDDCF08950E94EE
:1050E000DE280E94E628E0EEF0E080818160808387
:1050F000E8EDF0E080818F77808319BCA7EDB0E008
:105100008C918E7F8C9380818F7E80831092AE02F3
:1051100008950F931F93CF93DF930E94DE280E9480
:10512000E628C8EDD0E088818F7788838881806801
:10513000888388818F7D888319BC1092AF0210927A
:10514000AB021092AD021092AC0200EE10E0F8013A
:1051500080818B7F808388818160888342E060E0EA
:1051600080E00E94E827E1EEF0E080818E7F80837E
:10517000E2EEF0E0808181608083808188608083BE
:10518000F80180818E7F8083888180618883DF91B0
:10519000CF911F910F910895E8EDF0E080818F7E0F
:1051A0008083E7EDF0E080818160808384E082BFCE
:1051B00081E08093AE020E9489280895E8EDF0E036
:1051C00080818E7F80831092E20008951092DA0031
:1051D0001092E10008951F920F920FB60F921124C2
:1051E0002F933F934F935F936F937F938F939F93EF
:1051F000AF93BF93EF93FF938091E10082FF0BC0C9
:105200008091E20082FF07C08091E1008B7F809354
:10521000E1000E94562B8091DA0080FF1FC0809130
:10522000D80080FF1BC08091DA008E7F8093DA0067
:105230008091D90080FF0DC080E189BD82E189BDE8
:1052400009B400FEFDCF81E08093AF020E94D92413
:1052500005C019BC1092AF020E94E7248091E100C2
:1052600080FF19C08091E20080FF15C08091E200AC
:105270008E7F8093E2008091E20080618093E20063
:105280008091D80080628093D80019BC85E080931B
:10529000AF020E94F0248091E10084FF30C0809131
:1052A000E20084FF2CC080E189BD82E189BD09B4A0
:1052B00000FEFDCF8091D8008F7D8093D800809133
:1052C000E1008F7E8093E1008091E2008F7E8093E9
:1052D000E2008091E20081608093E2008091AB0265
:1052E000882311F084E007C08091E30087FD02C0AD
:1052F00081E001C083E08093AF020E94F924809195
:10530000E10083FF29C08091E20083FF25C08091E6
:10531000E100877F8093E10082E08093AF021092EA
:10532000AB028091E1008E7F8093E1008091E200EA
:105330008E7F8093E2008091E20080618093E200A2
:1053400042E060E080E00E94E8278091F000886001
:105350008093F0000E94EA24FF91EF91BF91AF91FA
:105360009F918F917F916F915F914F913F912F917D
:105370000F900FBE0F901F9018951F920F920FB6AF
:105380000F9211242F933F934F935F936F937F93CB
:105390008F939F93AF93BF93CF93DF93EF93FF933D
:1053A000C091E900CF708091EC00D82FD17080FDC2
:1053B000D0E81092E9008091F000877F8093F000A0
:1053C00078940E94012A1092E9008091F000886090
:1053D0008093F000CD2BCF70C093E900FF91EF9147
:1053E000DF91CF91BF91AF919F918F917F916F91FD
:1053F0005F914F913F912F910F900FBE0F901F9093
:105400001895AAE2B0E0E7E0FAE20C94B62BE0EBE4
:10541000F2E08091F100819322E0E83BF207C9F7C6
:105420000E9423258091E80083FF2EC18091B00265
:105430009091B102492F50E04A30510508F024C143
:10544000FA01EF54FF4F0C949A2B803821F08238E8
:1054500009F01AC108C08091AC029091AD02992365
:1054600089F082600FC08091B4028F70873008F09D
:105470000BC18093E9008091EB0085FB882780F9C0
:105480001092E9009091E800977F9093E800809354
:10549000F1001092F100D1C0282F2D7F09F0F4C047
:1054A000882319F0823061F0EFC08091B202813020
:1054B00009F0EAC0933009F080E08093AD022EC07D
:1054C0008091B20281112AC08091B4028F702FEFB7
:1054D000280F263008F0D8C08093E9002091EB0017
:1054E00020FF1CC0933021F48091EB00806214C037
:1054F0009091EB0090619093EB0021E030E0A901E6
:1055000002C0440F551F8A95E2F74093EA001092BB
:10551000EA008091EB0088608093EB001092E90034
:105520008091E800877F8093E8000E941D28ACC02E
:105530008111AAC01091B2021F778091E300807898
:10554000812B8093E3008091E800877F8093E800BF
:105550000E941D288091E80080FFFCCF8091E3002D
:1055600080688093E300111102C082E001C083E0F3
:105570008093AF0289C08058823008F085C0809146
:10558000B2029091B3028C3D53E0950779F583E028
:105590008A838AE289834FB7F894DE01139620E06C
:1055A0003EE051E2E32FF0E050935700E49120FFFA
:1055B00003C0E295EF703F5FEF708E2F90E0EA300E
:1055C00010F0C79601C0C0968D939D932F5F243134
:1055D00049F74FBF8091E800877F8093E8006AE237
:1055E00070E0CE0101960E94292716C06091B40296
:1055F0007091B502AE014F5F5F4F0E942B26BC0138
:10560000892B09F441C09091E800977F9093E800BE
:1056100089819A810E9487278091E8008B77809307
:10562000E80032C0803881F58091E800877F809360
:10563000E8008091AB028093F1008091E8008E77C2
:1056400072CF811121C08091B2029091B30299274B
:105650000297D4F48091E800877F8093E8008091DE
:10566000B2028093AB020E941D288091AB0281118F
:1056700006C08091E30087FD02C081E001C084E0A4
:105680008093AF020E9404258091E80083FF0AC046
:105690008091E800877F8093E8008091EB00806232
:1056A0008093EB00AA96E3E00C94D22B0895CF935D
:1056B0008091AF028823A1F0C091E900CF70909152
:1056C000EC00892F817090FD80E8C82B1092E900D2
:1056D0008091E80083FD0E94012ACF70C093E90009
:1056E000CF910895AA1BBB1B51E107C0AA1FBB1F86
:1056F000A617B70710F0A61BB70B881F991F5A955E
:10570000A9F780959095BC01CD01089597FB072ED0
:1057100016F4009407D077FD09D00E94722B07FC85
:1057200005D03EF4909581959F4F089570956195B1
:105730007F4F0895EE0FFF1F0590F491E02D09941F
:1057400069279627692778278727782708952F9232
:105750003F924F925F926F927F928F929F92AF9201
:10576000BF92CF92DF92EF92FF920F931F93CF934E
:10577000DF93CDB7DEB7CA1BDB0B0FB6F894DEBFE5
:105780000FBECDBF09942A88398848885F846E840B
:105790007D848C849B84AA84B984C884DF80EE8055
:1057A000FD800C811B81AA81B981CE0FD11D0FB65E
:1057B000F894DEBF0FBECDBFED0108950F93083002
:1057C00090F0982F872F762F652F542F432F322F4D
:1057D00022270850F4CF220F331F441F551F661F86
:1057E000771F881F991F0A95B2F70F91089597FBAD
:1057F00010F8169400080F93083098F00850232FE3
:10580000342F452F562F672F782F892F902DF4CFC7
:10581000059497958795779567955795479537950B
:1058200027950A95AAF70F910895FB01DC0104C0A2
:105830008D910190801921F441505040C8F7881B88
:10584000990B0895FB01DC0102C001900D924150BB
:105850005040D8F70895F999FECF92BD81BDF89ACE
:10586000992780B50895A6E1B0E044E050E00C949B
:10587000752CA8E1B0E042E050E00C94752CDC01FE
:10588000A40FB51F4150504048F0CB01840F951F25
:105890002E910E94502C41505040D0F70895262F51
:1058A000F999FECF92BD81BDF89A019700B4021616
:1058B00039F01FBA20BD0FB6F894FA9AF99A0FBEC4
:1058C00008950396272F0E94502C0E944F2C252FBD
:1058D0000E94502C242F0C94502C0196272F0E94AC
:1058E000502C0C944F2CDC01CB01FC01F999FECF1C
:1058F00006C0F2BDE1BDF89A319600B40D92415058
:0A5900005040B8F70895F894FFCF67
:10590A0020020002000202280850011E0A140103A4
:10591A000201000001003B238A24572483247C24AB
:10592A00E200E900EA00B500B600B700CD00830145
:10593A00CC008A0192019401210223022402250249
:10594A00260227022A02B300B4006F0070009F01EA
:10595A00CB019F02A002818283E200E900EA00B53E
:10596A0000B600B700CD008301CC008A01920194F1
:10597A00012102230224022502260227022A02B357
:10598A0000B4006F0070009F01CB019F02A002814A
:10599A008283949596979091929300015C185E1871
:1059AA006A18731800FF0100010000FFFF000001E0
:1059BA000001FF0044227BBE0421044304C603DF26
:0459CA0003FF0300D4
:00000001FF
