:100000000C94B5020C94D2020C94D2020C94D2023D
:100010000C94D2020C94D2020C94D2020C94D20210
:100020000C94D2020C94D2020C943C260C940E2711
:100030000C94DF200C94D2020C94D2020C94D202C5
:100040000C94D2020C94D2020C94D2020C94D202E0
:100050000C94D2020C9468210C94D2020C94D2021B
:100060000C94D2020C94D2020C94D2020C94D202C0
:100070000C94D2020C94D2020C94D2020C94D202B0
:100080000C94D2020C94D2020C94D2020C94D202A0
:100090000C94D2020C94D2020C94D2020C94D20290
:1000A0000C94D2020C94D2020C94D202A906A90696
:1000B000D506D50636075407400840085907CF072C
:1000C000E007E007B818BB18C018C718CC18D1183B
:1000D000D618DB18E018E518EA18EF18F718F71823
:1000E000F118F718F718F718F718F418F718751922
:1000F00078197B197E198919811984198719AC1B04
:100100001E1CB41B7E1B821BB81B851BBB1BC61B86
:10011000901B141C941BCA1B981BCE1BF81B9C1B0A
:10012000D21B021CA21BD81BE21B891BBF1B8C1BF2
:10013000C21BA71BDD1BEE1B0E1C101C7A1BB01B69
:10014000271C5E1F641F521F581F6A1F701F761FD7
:1001500076279D2795289D279528E9270C289528FF
:10016000632872288A017B016C010000020180FF74
:1001700080060180FF80FF00000000000180FF80FA
:10018000050180FF80FF00000000040180FF80FF68
:1001900000000000460047004800290054005500B8
:1001A000560049004A004B005F00600061005700A4
:1001B0004C004D004E005C005D005E0057002B02BD
:1001C00052002B0059005A005B005841500051006A
:1001D0004F006200007E6300584100000000A8004C
:1001E0000000000000000000007C037C00005300C1
:1001F00034006700000000000000000026025200EA
:1002000027022C023900530047005000D3004F0052
:100210002C020100280201002A0051004C000100BC
:10022000D10028002C022C422C00360001000000D6
:10023000000000000000000000000000207821788D
:10024000227800000000000000002378257827783D
:1002500000000000000000002478267828780000C4
:10026000000000000000000000000000000000008E
:10027000000000000000000000000000000000007E
:10028000000000000000000000000000000000006E
:10029000000000000000000000000000000000005E
:1002A000000000000000000000000000000000004E
:1002B000000000000000000000000000000000003E
:1002C000000000000000000000000000000000002E
:1002D000000000000000000000000000000000001E
:1002E000000000000004643214000101010101015A
:1002F00001010102020202020202020203030303DD
:1003000003030303040404040404040505050505AC
:10031000060606060607070707070808080809096A
:1003200009090A0A0A0B0B0B0C0C0C0D0D0D0E0E15
:100330000E0F0F0F101011111112121313141415A8
:100340001516161717181819191A1A1B1B1C1D1D1C
:100350001E1E1F2020212222232424252626272872
:1003600029292A2B2C2D2D2E2F30313232333435A2
:10037000363738393A3B3C3D3E3F404142434445A5
:10038000464748494A4C4D4E4F5051535455565884
:10039000595A5B5D5E5F616264656668696B6C6D2E
:1003A0006F7072737577787A7B7D7E8082838587A4
:1003B000888A8C8E8F91939596989A9C9EA0A2A3E2
:1003C000A5A7A9ABADAFB1B3B5B7BABCBEC0C2C4E7
:1003D000C6C9CBCDCFD1D4D6D8DBDDDFE2E4E7E9A7
:1003E000EBEEF0F3F5F8FAFDFF16036E0061007610
:1003F00000700061006400200031002E0030000019
:10040000001403790075007300680061006B006FD1
:100410000062006F0000000403090409025B00038E
:100420000100A0FA090400000103010100092111E3
:1004300001000122440007058103080001090401AD
:10044000000203000000092111010001222200071F
:1004500005820320000107050303200001090402AF
:10046000000103000000092111010001227B0007A7
:10047000058403200001120100020000000865321B
:1004800008000000010200010660FF0961A10109E6
:1004900062150026FF00952075088102096315008A
:1004A00026FF00952075089102C005010902A101EF
:1004B00085020901A1000509190129081500250176
:1004C0009508750181020501093009311581257FE3
:1004D00095027508810609381581257F95017508F3
:1004E0008106050C0A38021581257F950175088162
:1004F00006C0C005010980A101850319012AB700C2
:10050000150126B700950175108100C0050C090181
:10051000A101850419012AA002150126A002950156
:1005200075108100C005010906A101050719E02920
:10053000E71500250195087501810295017508816F
:10054000010507190029FF150026FF00950675080B
:10055000810005081901290515002501950575017A
:100560009102950175039101C00011241FBECFEFC8
:10057000DAE0DEBFCDBF11E0A0E0B1E0EAECF3E5E8
:1005800002C005900D92A63CB107D9F722E0A6EC77
:10059000B1E001C01D92A93FB207E1F70E945A13D2
:1005A0000C94E3290C9400000F931F93CF93DF93D7
:1005B0008C01EB010E943004882369F001151E476D
:1005C00051F4CD81CC2339F082E60E94500682E6B8
:1005D0000E9450068C2FDF91CF911F910F910895AB
:1005E0000E9459030895CF93DF93D82FC62F0E94FE
:1005F000F519882309F459C0D1112AC02091E601C8
:100600003091E7018091E8019091E901822B932BD1
:100610000E942205813061F018F0823089F045C0D7
:10062000CC2319F089EA90E03EC08AEA90E03BC012
:10063000CC2319F00E94071638C00E94161635C048
:10064000CC2319F00E94271630C00E9438162DC006
:10065000D13059F52091E6013091E7018091E80110
:100660009091E901822B932B0E942205813061F049
:1006700018F0823089F019C0CC2311F080E301C05A
:100680008FE20E94500611C0CC2319F087E292E05D
:100690000AC086E292E007C0CC2319F080E392E022
:1006A00002C08FE292E00E94230480E0DF91CF91AC
:1006B00008950E949B1F81FB662760F980E00E94DD
:1006C000F0140E949B1F80FF05C080E00E9450092B
:1006D000682F02C060E070E0617081E00E94F01459
:1006E0000E949B1F82FB662760F982E00E94F01443
:1006F00081E008954FEF60E080E00E945E1684E69E
:1007000091E090935B0280935A0208958430B0F494
:100710006630A0F4473090F49AE2899FF0011124EA
:1007200087E0689FE00DF11D1124E40FF11DEE0F2D
:10073000FF1FEC56FE4F85919491089581E090E063
:1007400008950E94860308959C013A9521153F4122
:1007500030F5BC0166277270AC01442754709C01CF
:100760002227387094FF0FC090FF02C080E101C0C3
:1007700080E0672B09F08062452B09F08064232B11
:1007800079F080680895892F8170672B09F0826065
:10079000452B09F08460232B19F08860089580E0D0
:1007A0000895CF93DF93EB010E94A403FE01099506
:1007B000DF91CF910895CF93DF93EC01805E910993
:1007C000089710F0209719F46AE576E002C06BE90B
:1007D00078E0CE010E94D1038C2F0E94BB05DF91EF
:1007E000CF910895CF93DF93EC010E940506CE01CF
:1007F000805E9109089710F0209719F461E676E081
:1008000002C062EA78E0CE010E94D103DF91CF916D
:1008100008950F931F93CF93DF938C01EB010E94F8
:10082000DB03209741F08FE99FE00197F1F700C0CB
:1008300000002197F6CFC8010E94F203DF91CF910B
:100840001F910F9108958933910519F060E070E0D0
:1008500002C060E570E00E940904089581E00895F7
:1008600081E008950E94300408950E9432040895A2
:1008700008950E9438040895A6E0B0E0E2E4F4E0B0
:100880000C94002949835A839E833091CD0189813C
:100890009A81311115C03E81332359F0222349F04A
:1008A0000E94280A182F682F89819A810E94040AC1
:1008B00003C00E94160A182F69817A81812F04C013
:1008C0000E94280A69817A810E941B112696E3E022
:1008D0000C941C29FC01262F408151816281738177
:1008E000848195810E943C040895CF93DF93EC01AD
:1008F00061E00E946A04BE010E943504DF91CF913D
:100900000895CF93DF93EC0160E00E946A04BE017A
:100910000E943904DF91CF91089581E008950E94EB
:100920008D040895CF93C82F0E94BF088C2F0E947A
:100930008F042FEF84E39CE0215080409040E1F74A
:1009400000C00000CF91089581E00E9492040E94AF
:100950008E21089580E00E9492040E949F210895B4
:100960000F931F93CF93DF938C0161E00E946A0481
:10097000EC01F801858181110E948718B801CE0130
:100980000E94D402882309F449C0B801CE010E9414
:10099000461F882309F442C0B801CE010E94561BAD
:1009A0008823E1F1B801CE010E942C1B8823B1F10C
:1009B000B801CE010E94A118882381F1F801858138
:1009C000882341F1C330FCE7DF07D1F040F4C115C3
:1009D000ECE7DE0791F0C130DC47A1F01BC0CB355E
:1009E0008CE7D807A9F0CC35ECE7DE0771F0CA3503
:1009F000DC4781F40E94400E0DC00E94A4040EC08A
:100A00000E94480E0E94AA0409C00E94360E02C02D
:100A10000E94440EC8010E942E0401C080E0DF91B4
:100A2000CF911F910F9108950E94B8200E94530505
:100A30000E94071708950E9457050E9418180E94E7
:100A4000C1200895292F33272115310519F0C90137
:100A500048E001C040E09C0164E0369527956A9526
:100A6000E1F72115310511F04C5FC9019C01369564
:100A70002795369527952115310511F04E5FC9014F
:100A80009C0136952795232B09F04F5F842F0895FD
:100A900008950895CF93C82F0E9448058C2F0E9477
:100AA000F002CF91089580E00E944A0508950E94C7
:100AB0008E1F0E944A050895CF930E948E1FC82F53
:100AC0008091C801C81779F0C093C8010E944D21D8
:100AD0006093C9017093CA018093CB019093CC01BC
:100AE0008C2F0E944A05CF910895ADE0B0E0EBE76E
:100AF000F5E00C940129488759876A877B878C87A2
:100B00009D8791110E94720DCE01019627E0FC0194
:100B100011922A95E9F726E0FE013896DC01019052
:100B20000D922A95E1F72D8121110AC029813A8180
:100B30004B815C816D817E818F810E94BC0C04C0E1
:100B40000E9475048111F2CF2D96E2E00C941D29CC
:100B5000FC012481213021F4808191810E945A0A74
:100B60000895662319F00E94C61C02C00E94371D1A
:100B70000E94AE1D0895CF93882309F444C0C82F66
:100B80008CEF8C0F813A70F48C2F0E9410208823F8
:100B900029F08C2F0E9453200E94D40D8C2F0E948C
:100BA0004B200CC080E28C0F883058F4C77081E075
:100BB00001C0880FCA95EAF70E94550D0E94D40D16
:100BC00022C0EBE5EC0FE33040F4F0E0EF5AFE4FCB
:100BD000808190E00E94B71F16C0E8E5EC0FEB3172
:100BE00050F4F0E0EE0FFF1FE55EFE4F8081918133
:100BF0000E94DC1F08C083E38C0F833120F461E086
:100C00008C2F0E94B105CF910895882381F19CEF2C
:100C1000980F913A18F40E9453200DC090E2980F5B
:100C2000983060F4877091E001C0990F8A95EAF7D7
:100C3000892F0E945B0D0E94D40D08959BE5980FAB
:100C4000933028F480E090E00E94B71F089598E563
:100C5000980F9B3128F480E090E00E94DC1F0895FB
:100C600093E3980F933118F460E00E94B105089562
:100C70001F93CF93DF93182FEB010E94BB052097A2
:100C800041F08FE99FE00197F1F700C00000219744
:100C9000F6CF812F0E940506DF91CF911F91089515
:100CA000893319F060E070E002C060E570E00E94F6
:100CB00038060895882321F00E94550D0E94D40D16
:100CC0000895882321F00E945B0D0E94D40D0895A1
:100CD000A0E0B0E0EEE6F6E00C94FB287C01162FD5
:100CE000C72FFC01D581068102950F700E944B0D24
:100CF0008823F9F0DD23E9F08C2F807F803461F0C8
:100D000080E2810F8830A8F08C2F807E803221F421
:100D1000123078F0002369F08091980282FF09C0B8
:100D200082E00E940A0E0E944B0D91E0D82ED92637
:100D300001C0D12CCC2EC2948FE0C8228C2D90E023
:100D40008C30910508F09CC1FC01EA5AFF4F0C94CD
:100D5000EB288C2F807FCF70882311F0C295C07F45
:100D6000DD2399F0CC2309F477C180E2810F88302C
:100D700010F0111104C08C2F0E94550D03C08C2F50
:100D80000E94650D0E94D40D67C1812F0E94050647
:100D9000CC2309F475C180E2810F883038F111232A
:100DA00029F18C2F0E946B0D24C08C2F807FCF7077
:100DB000803211F0C295C07F112319F0113099F1E2
:100DC0003CC08091980282FD17C0DD2349F0CC23FE
:100DD00029F08C2F0E94550D0E94D40D80E03DC15A
:100DE00080E00E940506CC2309F44AC18C2F0E94A2
:100DF0005B0D0E94D40D44C1DD2349F0002309F1AD
:100E0000013009F03DC18C2F0E947C0D39C10111C8
:100E100037C18C2F0E9461068C2F0E94880D8C2F69
:100E20000E94DD0D2DC1DD2321F0063008F028C120
:100E300008C0053008F024C115C0DD2331F00111D0
:100E40000BC18C2F0E945A061BC1002359F0193385
:100E500009F013C1FFEF27EE83E0F15020408040FE
:100E6000E1F709C18C2F0E9461060AC18C2F86957B
:100E70008695837019F0813061F002C1DD2321F085
:100E8000812F9C2F937002C080E090E00E94B71FDA
:100E9000FFC0DD2321F0812F9C2F937002C080E0E2
:100EA00090E00E94DC1FF4C06D2F812F0E94B105DD
:100EB000EFC08C2F8370B1F5D111E6C0412F429560
:100EC00046954770440F440F812F8F7090E09C012E
:100ED000042E02C0220F331F0A94E2F714FF0AC047
:100EE0008FE090E002C0880F991F4A95E2F7809545
:100EF000909502C080E090E0C695C695C370822BA5
:100F0000932BC23049F058F4C13019F00E941B09EC
:100F1000BBC00E941209B8C00E942409B5C00E943B
:100F20000F09B2C0DD2319F08C2F817001C08695A6
:100F3000882309F4A9C0412F429546954770440F74
:100F4000440F812F8F7090E09C01042E02C0220F6D
:100F5000331F0A94E2F714FF0AC08FE090E002C04A
:100F6000880F991F4A95E2F78095909502C080E01E
:100F700090E0C695C695C370822B932BC23049F082
:100F800058F4C13019F00E949F097EC00E94960952
:100F90007BC00E94A80978C00E94300975C0CF703C
:100FA000DD2339F08C2F0E946409812F0E945A069C
:100FB0006BC0812F0E9461068C2F0E94740964C04F
:100FC000123F21F128F4103F41F0113FC1F040C021
:100FD000133F19F1143F79F03BC0DD2341F0053098
:100FE00008F04EC08C2F8F710E94860949C00630D0
:100FF00008F046C0F7CF8091980282FD18C0DD232B
:1010000039F08C2F8F710E9464093AC0DD23C9F337
:101010008C2F8F710E94740933C0DD2329F08C2F2F
:101020008F710E9458092CC00E94370929C0DD2306
:1010300031F063E08C2F8F710E94EC0D21C081E0B4
:101040000E940A0E0230E0F082E00E940A0E18C0F0
:10105000DD2331F00023A9F2812F0E94BB0510C0CF
:101060000023B1F2193349F49FEFE7EEF3E091501A
:10107000E040F040E1F700C00000812F0E9405062B
:1010800088EF8C0D843020F40E948E1F0E944A0548
:10109000DD2089F00E94470D80FD0DC0F70115820B
:1010A0000E94410D0E946409C7010E9478080E94B5
:1010B000410D0E947409CDB7DEB7E8E00C94172902
:1010C0000F931F93CF93DF93EC01688179818D811A
:1010D0000E94650A8C010E94B1090E940009B801B2
:1010E000CE010E946806DF91CF911F910F91089564
:1010F000CF93DF93FC0124812223D1F0EC010E94E5
:10110000B00481110FC00E944B0D882389F08D819E
:10111000882371F08091980282FF0AC082E00E94C9
:101120000A0E06C0CE010E946008CE010E94810412
:10113000DF91CF910895882321F00E94650D0E94D0
:10114000D40D0895882321F00E946B0D0E94D40DC8
:10115000089580E090E00E94B71F80E090E00E9438
:10116000DC1F0E94720D0E94D40D0E94CD1D0E94B2
:10117000AE1D08950E945B200E94A90808950E9458
:10118000620D0E94BA08089592959F70963079F08A
:1011900010F4925001C09A50923068F4803F69F088
:1011A00018F4883E40F409C0843F29F406C0883E04
:1011B00020F0813F11F080E0089581E00895FC0166
:1011C0002481222339F0808191810E945A0A0E9451
:1011D000C408089580E00895A6E0B0E0E2EFF8E0EA
:1011E0000C9401292696E2E00C941D29A7E0B0E0BA
:1011F000ECEFF8E00C9401292796E2E00C941D290D
:10120000089508950E94010908950E940209089511
:101210000E9405099093E9018093E80108950E94D6
:10122000080908952091E8013091E901822B932B60
:101230000E94080908952091E8013091E901822374
:1012400093230E94080908952091E8013091E90153
:10125000822793270E94080908950E940109089592
:101260000E942D099093E7018093E601089580E0A4
:1012700090E00E9430090895009721F481E06623F0
:1012800071F00CC021E030E002C0220F331F6A95DC
:10129000E2F72823392381E0232B09F480E0089525
:1012A000682F8091E6019091E7010E943C09089522
:1012B00021E030E0A90102C0440F551F8A95E2F7F2
:1012C000CA010E943009089521E030E002C0220FD7
:1012D000331F8A95E2F78091E6019091E701822B16
:1012E000932B0E943009089521E030E002C0220FC4
:1012F000331F8A95E2F7209530958091E601909111
:10130000E701822393230E943009089521E030E011
:1013100002C0220F331F8A95E2F78091E601909177
:10132000E701822793270E94300908952091E60162
:101330003091E701822B932B0E9430090895209170
:10134000E6013091E701822393230E94300908953A
:101350002091E6013091E701822793270E9430090E
:1013600008950895962F9770A1E001C0AA0F9A954D
:10137000EAF793E0769567959A95E1F7660F771F00
:10138000660F771FFA01E60FF71F40E050E0682F65
:1013900070E090819B01042E02C0369527950A9437
:1013A000E2F72170219529272A23292721934F5FCE
:1013B0005F4F4430510569F70895FB01782F77702E
:1013C00023E0969587952A95E1F7880F991F880F56
:1013D000991FE80FF91F40E050E080E0219130E0D4
:1013E000072E02C0369527950A94E2F7217033271D
:1013F000042E01C0220F0A94EAF7822B4F5F5F4F41
:101400004430510559F70895282F963070F48730ED
:1014100060F4862F622F70E027E0929F600D711DAF
:1014200011244EEC51E00E94B2090895963070F4F8
:10143000873060F4292F90E06EEC71E037E0239F55
:10144000800D911D11240E94DD09089580E008950A
:10145000A0E0B0E0EEE2FAE00C94FA287C01009102
:10146000E6011091E7018091E8019091E901082BD4
:10147000192BCFE0D0E0CC24C394D12CC6010C2E84
:1014800002C0880F991F0A94E2F780239123892BC9
:1014900021F4219798F7B12C07C0BC2EB7018C2FEF
:1014A0000E9427110197A9F38B2DCDB7DEB7E9E094
:1014B0000C941629CF93DF93EC010E94280ABE01F9
:1014C0000E942711DF91CF9108951F93CF93DF934F
:1014D000EB019091CD01992321F0CB010E945A0A92
:1014E00013C0882349F0CB010E94280A182F682FC7
:1014F000CE010E94040A04C0CB010E94160A182FD4
:10150000BE01812F0E942711DF91CF911F91089575
:101510001F93CF93DF93C091EA0117E08091EB0115
:10152000C817A1F0D0E01C9FF0011D9FF00D112401
:10153000E451FE4F20813181428153816481758164
:1015400086810E94F6082196C770E8CFDF91CF917F
:101550001F91089520912402309125024091260286
:1015600050912702609128027091290280912A02ED
:101570000E94F6080895CF93DF9380912A02829506
:101580008F7009F04EC080912902882309F449C068
:101590008091EA014091EB01509125026091240273
:1015A000C0912602D091270277E08417D1F190E014
:1015B000789FF001799FF00D1124DF01A451BE4FF7
:1015C00014962C911497222349F111962C9111977E
:1015D000251324C02C91261321C015962C91159704
:1015E00021111CC012962D913C9113972C1B3D0B81
:1015F0002438310598F480912A028F70806180939D
:101600002A02EE50FE4F80818F708061808384E2D9
:1016100092E00E9478080E94880A03C001968770B1
:10162000C4CFDF91CF9108952091EA019091EB0111
:1016300057E02917A9F030E0529FF001539FF00DB9
:101640001124E451FE4F7181761306C07081781326
:1016500003C07581741306C02F5F3F4F2770E9CF19
:1016600080E0089581E00895A4E1B0E0EAE3FBE0C2
:101670000C94F7288C0186E0F801DE011F9601909A
:101680000D928A95E1F7F8018481E58094E2A92E14
:1016900092E0B92E90912802911118C0882309F484
:1016A00064C1EE20D9F1C8010E94DF08F82E88231A
:1016B000A9F187E0F801D50101900D928A95E1F733
:1016C000C5010E94A8050E94BB0A98C0F801C0800D
:1016D000D18082809380F09029022091260230915F
:1016E0002702A401421B530BFF2009F406C1443812
:1016F000510508F0AFC0882309F439C180912A024E
:10170000282F207F90912502222361F09D1509F456
:1017100062C0C8010E94DF08811173C0C8010E9425
:10172000780823C19D1115C0909124029C1111C00D
:10173000E1100FC08F70806180932A020E94AA0A74
:1017400084E292E00E94780880912A02F801868360
:101750000AC1E1103AC040E06D2D8C2D0E94140B9F
:1017600040E06D2D8C2D0E94140BE82E8111FBC0E2
:10177000CF86D88A8F8598890E945A0A292F229568
:101780002F70243020F49F70223028F009C02A5096
:10179000223080F014C0992349F0811107C013C092
:1017A000992321F0F8019681907F69F0805E88305E
:1017B00030F409C0803F38F0815F833020F0C801E9
:1017C0000E947808EF2CFE2CD2C080912A02816002
:1017D00080932A02C8C0909124029C119ACFE110F4
:1017E00098CFF8018683C8010E94780887E0F80145
:1017F000A4E2B2E001900D928A95E1F70E94AA0A54
:10180000B6C0EE2009F48ACF20912A02822F829559
:101810008F7090E002978CF08091240290912502C5
:10182000998788879B868A86809128028C871D8667
:101830002E87CE0108960E94780887E0F801A4E27E
:10184000B2E001900D928A95E1F70E94BB0A0E94D6
:10185000AA0A8BC090912A02292F207FA1F4682D1B
:101860009A8A898AA6017A899E2D0E94EC0884E2D0
:1018700092E00E94780887E0F50111928A95E9F7D5
:101880000E94AA0A70C0882309F471C080912502C1
:101890008D1111C0809124028C110DC0E1100BC07C
:1018A000F8019683C8010E94780887E0F50111923B
:1018B0008A95E9F75CC0C8010E94DF08882309F413
:1018C0002DCFEE2009F42ACF20912A02822F829573
:1018D0008F7090E002970CF4B0CF80912402909129
:1018E00025029A8389839C828B82809128028D8332
:1018F0001E822F83CE0101969ECF4438510528F5D4
:10190000882399F1FE2CEE2009F408CF809125025E
:10191000D8120DC0809124028C1109C087E0F80113
:10192000A4E2B2E001900D928A95E1F720C0C801CF
:101930000E94DF08811181CF80912A02816080930B
:101940002A02C8010E94780812C0682D9A8A898AE2
:10195000A6017A899E2D0E94EC0887E0F50111927C
:101960008A95E9F74BCFF12C02C0FF24F3948F2D19
:101970006496ECE00C941329AEE0B0E0E2ECFCE0FD
:101980000C940029288739874A875B876C877D8775
:101990008E87CE0108960E94340B882361F06C85F7
:1019A0006623A9F1288539854A855B857D858E85E5
:1019B0000E94F6082CC087E0FE013896DE011196E1
:1019C00001900D928A95E1F76C85662301F12091D3
:1019D000EB0130E0C9010196877099274091EA0137
:1019E00050E084179507E1F16D8397E0929FD00155
:1019F000939FB00D1124A451BE4FFE01319601906A
:101A00000D929A95E1F78093EB010E94880A17E006
:101A10008091EA019091EB01891779F1189FC0013B
:101A2000112484519E4F0E94340B882331F1E091A0
:101A3000EA011E9FF0011124E451FE4F2081318103
:101A4000428153816481758186810E94F60880916C
:101A5000EA0190E00196877099278093EA01D8CF38
:101A60000E94BF081092EB011092EA01E4E2F2E05A
:101A700087E0DF011D928A95E9F72E96E3E00C944A
:101A80001C298091330286958695869508958091CC
:101A900033028770089590913302977081E009F4C2
:101AA00080E0089580913F02089590913F02892B34
:101AB00080933F020895809590913F0289238093FF
:101AC0003F02089510923F02089590913E02892BA3
:101AD00080933E020895809590913E0289238093E1
:101AE0003E02089510923E02089508950E94750DD9
:101AF00008950E94760D089590913502292F28238C
:101B0000821729F0982B909335020E94790D089541
:101B100090913502292F282331F0809589238093D5
:101B200035020E94790D089580913502882329F0AD
:101B30001092350280E00E94790D08950F931F9353
:101B4000CF93DF930091000110910101C0913F02FA
:101B500080913E02C82B80913502882331F0C82B3A
:101B60000E94012081110E94940DF801C083C09150
:101B70000001D091010148E050E06BE272E0CE013B
:101B80000E947529892B59F088E0FE01ABE2B2E092
:101B900001900D928A95E1F7CE010E949E1FDF9180
:101BA000CF911F910F9108950E949E0D08950E945C
:101BB000750D08950E94D70D089590913402292F34
:101BC000282331F080958923809334020E94DA0D16
:101BD00008950E94750D08959091980292FF11C08A
:101BE00098E0899F90011124262B209333020E94B4
:101BF0006409809133028695869586950E94E90D49
:101C000008950E94640908951092330280E00E94B2
:101C1000E90D0895909133028095892380933302D2
:101C2000282F277069F4981759F09091980292FF25
:101C300007C08695869586950E9474090E94040EB9
:101C400008959091980292FB222720F9281769F0B5
:101C500080FB92F99093980280919702909198025C
:101C60000E94690E82E00E940A0E089580919802F7
:101C700082FB882780F991E089270E94210E089530
:101C800081E00E94210E089580E00E94210E0895B7
:101C90006FEF7FEF80E090E00E94CD29089580E013
:101CA00090E00E94992921E0853E9E4F09F020E0B6
:101CB000822F089582E090E00E948B29089583E0AE
:101CC00090E00E948B29089584E090E00E94992979
:101CD0000895BC0184E090E00E94CD290895AB01F5
:101CE000BC018FE090E00E94C1290895AB01BC01C6
:101CF00083E190E00E94C129089560E070E0CB018B
:101D00000E94760E089560E070E0CB010E946F0E95
:101D10000E947D0E0895A8E0B0E0E1E9FEE00C9499
:101D2000012965EE7EEF80E090E00E94CD2960E021
:101D300082E090E00E94AF2981E090E09093E90179
:101D40008093E80161E083E090E00E94AF2960E0C9
:101D500074E184E090E00E94CD2960E086E090E0AC
:101D60000E94AF2960E087E090E00E94AF2940E048
:101D700050E0BA0188E090E00E94C12960E083E26F
:101D800090E00E94AF2960E08CE090E00E94AF29D3
:101D900060E08DE090E00E94AF2919821A821B82D8
:101DA0001C821D821E821F82188648E050E067E177
:101DB00070E0CE0101960E949F2940E050E0BA01F8
:101DC0008FE190E00E94C1290E94830E2896E2E0F4
:101DD0000C941D290E948B0E0895682F8EE090E0D0
:101DE0000E94AF290895A6E0B0E0E9EFFEE00C9470
:101DF000FF280E9441218C01809140029091410274
:101E00000817190781F019821A820E944121682F50
:101E100049815A81792F80E090E00E9475051093E6
:101E20004102009340022696E4E00C941B290E9494
:101E30004D2160935002709351028093520290930F
:101E4000530260934C0270934D0280934E02909324
:101E50004F0208950E944D216093500270935102E9
:101E60008093520290935302609348027093490208
:101E700080934A0290934B02089581E0089581E097
:101E800008950E943F0F089508950E94440F0895F9
:101E90000E947A0308950E94440F08950E944B0FF8
:101EA00008950E94440F089587E192E10E94711302
:101EB0000E94510F0E944E0F08950E94450F0E94EC
:101EC000440F08950E944F0E811102C00E94EA0E35
:101ED0000E945A0E809354020E94640E90939802BE
:101EE000809397020E94291B0E945F0E90E00E943F
:101EF0000F098091E6019091E7010E942D09089554
:101F00000E9438210E948D190E94CB120E94620FFC
:101F10000E9449050E94B0170E94480F0895A6E04C
:101F2000B0E0E5E9FFE00C94F8280E943D0F811134
:101F300003C00E94F30E53C00E94E11282E4E82E17
:101F400082E0F82E670100E0F60111916F01802F09
:101F50000E94191281270F5F063019F08823A1F320
:101F600002C0882331F38091540281FD0E941F1228
:101F70000E94410FA82E10E099249394812F0E9473
:101F80001912B82EF701C080C82609F100E0DD243F
:101F9000D3948C2D8D21A9F0AA2099F009831A835E
:101FA0000E9441219C838B839D8291E08B2D8D210A
:101FB00009F490E049815A816B817C818D810E9476
:101FC00075050F5FDD0C073021F7F701B0821F5F49
:101FD000FFEFEF1AFF0A163089F60E94170F0E94D2
:101FE00088180E94F71981110E942A0F0E94EF1D84
:101FF0000E945C052696EBE00C9414291F93CF9366
:10200000DF930E942C11EC01C11580E5D807E8F59B
:10201000C11590E4D90708F0A8C0C03ED10530F53D
:10202000CD3CD10508F094C0C83AD10578F4C53A42
:10203000D10508F083C0C130D10509F47CC008F493
:10204000F2C0C430D10508F0F1C0EDC0C33CD105E9
:1020500008F0E9C0C85AD0E0CC0FDD1FCC5ADE4FE3
:102060000990D881C02DCE019464E1C0C11580E2F1
:10207000D80708F0CBC0C11591E0D90708F06BC0B4
:10208000C83ED10508F4D2C0CEC0C03682E5D8071C
:1020900028F5C03492E5D90708F079C0C03282E54E
:1020A000D80708F06CC0C11592E5D90708F481C0C3
:1020B0004C2F4695469580E2489FA0011124C3709D
:1020C00021E030E0C90102C0880F991FCA95E2F7EC
:1020D000EA01C82BD92BCE019D68A9C0C03A82E580
:1020E000D807B8F48C2F8F71C03892E5D90708F063
:1020F0007BC08695869590E2899F90011124C370DC
:1021000081E090E002C0880F991FCA95E2F79A68B3
:1021100068C0C03C82E5D80708F46DC0C03E92E5B7
:10212000D90708F080C0CF71DD27DC2FCC27CE0186
:10213000806F906A7CC081E090E079C0C55AD0E0A1
:10214000C657DE4F8881C82FD0E0CE0190646FC0A3
:10215000CE0190656CC08D2F0E94C811182FCE0142
:1021600099270E942C111F715CC0CE0199270E94F3
:102170002C11CC27DF70D06A8C2B9D2B58C0CF71CF
:10218000D0E0DC2FCC27CE01816F906A50C08C2F1D
:102190008F718695869590E2899F90011124C37076
:1021A00081E090E002C0880F991FCA95E2F79C6811
:1021B00018C08C2F8F710E94C81195E0D695C795D5
:1021C0009A95E1F7CF70D0E0DC2FCC27282F30E0B4
:1021D00084FF05C084E0220F331F8A95E1F7D069A0
:1021E000CE01822B932B23C090E0D82FCC27CE0199
:1021F000846F906A1CC08C2F8F710E94C8118F71E0
:1022000090E0D82FCC27CE01906211C08D2F8F7116
:102210000E94C811182FCE0199270E942C111F71FE
:102220009062912B04C080E090E001C0CE01DF916C
:10223000CF911F910895763038F4673028F4462FF7
:10224000672F0E94A103089580E090E008950E9406
:102250001B110E94FE0F08958238910569F1B0F4B8
:102260008133910509F475C048F48932910509F468
:1022700067C08A32910509F471C0089585339105CC
:1022800009F459C089339105B9F00895833E910549
:1022900089F138F4803E9105D1F0823E910529F113
:1022A0000895863E9105C9F1873E9105D9F1843E96
:1022B000910509F06CC027C02091970220FD57C0FE
:1022C00021FD55C02091980223FD5BC008958091A7
:1022D000970280FD48C08091980280FF48C080919D
:1022E000970284FD46C083EE51C08091970282FF21
:1022F0003CC0F5CF8091970282FD37C08091980253
:1023000080FD35C0ECCF8091980281FF36C080916E
:10231000970284FD2EC087EE39C08091970283FF1B
:102320002AC0F5CF8091970283FD25C08091980245
:1023300081FD23C0ECCF8091970285FD22C01FC094
:102340008091970285FD1BC08091980283FF19C080
:102350000AC08091970286FD16C017C0809197022F
:1023600086FD13C010C089E311C082EE0FC080EE5D
:102370000DC080E00BC086EE09C084EE07C085E387
:1023800005C089E203C08AE201C081E390E00895BC
:102390009091970292FF10C041E0282F24712430C1
:1023A00009F040E031E0282F2871283009F030E0B2
:1023B000431711F02CE0822793FF10C041E0282F33
:1023C0002471243109F040E031E0282F28712831B0
:1023D00009F030E0431711F02CE082273091980289
:1023E00030FF10C051E0282F2171213009F050E05A
:1023F00041E0282F2871283009F040E0541711F0EF
:1024000029E0822731FF10C041E0282F21712131BE
:1024100009F040E031E0282F2871283109F030E040
:10242000431711F029E0822794FD877E089580E00C
:102430000895E82FF0E0E156FD4F8081089508955A
:1024400080EA8A95F1F7089500C008950E9420124D
:10245000089508950E94291208950E942A1208954D
:102460000E94291208950E9430120895F894E82FCE
:10247000E295EF70F0E031A1282F2F7081E090E01D
:1024800001C0880F2A95EAF7982F9095932391A37E
:1024900092A1892B82A3789408950F931F93CF93D1
:1024A000DF93C4E9D1E089918F3F11F00E94361289
:1024B00081E0CA39D807B9F7CDE8D1E004E911E0E5
:1024C00089918F3F11F00E9436120C171D07C1F73A
:1024D000DF91CF911F910F910895A0E0B0E0E3E765
:1024E000F2E10C94FB288C01C62FD0E0CE018C5673
:1024F0009E4F7C01FC0190819F3F09F447C0D62E7E
:10250000F894E92FE295EF70F0E081A19F7021E04F
:1025100030E001C0220F9A95EAF7822B81A382A1B5
:102520002095282322A378940E942412EDE8F1E05C
:1025300044E951E031E0C12C21912F3F89F0A22FD5
:10254000A295AF70B0E090968C9190E02F7002C091
:10255000959587952A95E2F780FD02C0832F01C0EB
:1025600080E0C82A330F4E175F0731F7F7018081EB
:102570008F3F11F00E94361261E0C11001C060E08F
:102580008D2D0E942612C00FD11FC882CDB7DEB795
:10259000E8E00C9417290E944D1286E0EFE9F2E082
:1025A000DF01982F1D929A95E9F7E9E9F2E0DF0142
:1025B0001D928A95E9F786E00E941C130E9433124F
:1025C0000895A6E0B0E0E7EEF2E10C94FE288E015B
:1025D0000F5F1F4F86E0F80111928A95E9F7F12C01
:1025E0006F2DC8010E946D12F394F6E0FF12F8CF30
:1025F00046E050E0B80189E992E00E94752921E0A7
:10260000009709F420E0892B41F086E0F801A9E960
:10261000B2E001900D928A95E1F746E06FE972E031
:1026200089E992E00E941D13182F0E942D12812F1C
:102630002696E5E00C941A290895EF92FF920F93E5
:102640001F93CF93DF937C018B01C42F222351F082
:1026500081E0809357020E9441219093560280931B
:10266000550204C080915702811102C080E01AC057
:1026700080915502909156020E9459210597B0F31E
:10268000D0E0AE01B701C8010E947529892B39F04D
:10269000AE01B701C8010E94822981E001C080E03B
:1026A00010925702CDB7DEB7E6E00C9419290E94CC
:1026B0008F0F08950E94D8200E9435230E94540F46
:1026C0000E944F230E94800F0E945C230E9461237E
:1026D0000E9457130E947B230E94FD210E945D0FE0
:1026E000F5CF9093C7018093C6010895EF92FF92B2
:1026F0000F931F93CF93DF938B01682F11110AC0A3
:10270000442329F0E82FF0E0E751FD4F6491762F44
:10271000862F75C0212F30E0E82FF0E0442321F010
:10272000E751FD4FE491F0E046E0049FC001112421
:10273000CFEFD0E0BE010E94C3284BEA4603C001A0
:10274000479F900D1124800F911D800F911D982F90
:10275000990F890FAE01421B530B4E9FD0014F9F23
:10276000B00D5E9FB00D11249B2F189FA001112466
:10277000452F55278E01041B150B0E9FA0010F9F9F
:10278000500D1E9F500D11247E01E81AF108E29EA3
:102790008001E39E100DF29E100D1124212F33278E
:1027A000C21BD30BCE9F9001CF9F300DDE9F300D0B
:1027B000112462307105A9F048F46115710569F0C2
:1027C00061307105C9F48B2F752F0DC06430710510
:1027D00081F058F06630710579F47E2F8B2F932F9E
:1027E0000DC0832F7B2F9E2F09C08E2F7B2F952FFF
:1027F00005C08E2F732F02C07E2F852F692FCDB776
:10280000DEB7E6E00C94192941E00E9476130895A2
:1028100008950E9404140895CF93DF93762FE90161
:10282000682F842F0E940914798368838A83DF913B
:10283000CF910895493708F048E70E940C14089595
:102840008091A502282F2695269530E02115310587
:1028500019F48370846005C02930310524F0837039
:1028600080628093A5028091A802893718F088E7DA
:102870008093A8020895A0E0B0E0E1E4F4E10C94B4
:10288000FB2888E090E00E9493296B017C0183E2A1
:1028900090E00E948B29282F30E040E050E060E07B
:1028A00070E080E090E000E20E942829B22FA32F80
:1028B000F42FE52FD62FC72F97018601BC29A12B16
:1028C000F22B5E2F532B2B2F3A2F4F2F6D2F7C2F58
:1028D000CDB7DEB7E8E00C941729A0E0B0E0E3E75D
:1028E000F4E10C94F72849015A016B017C010E9424
:1028F00020148401A4016A2D7B2D88E090E00E94C1
:10290000C12994014A2D5B2DB601C70100E20E9446
:102910004329622F83E290E00E94AF29CDB7DEB752
:10292000ECE00C941329E5EAF2E025E02083118223
:102930008FEF828388E783831482758130E04FEFC5
:1029400058E760E0868197810E946D140895809118
:10295000A50280FF03C086958695089580E00895BE
:102960009091A902933018F49F5F9093A902882355
:1029700091F02091A5023091A6024091A7025091BA
:10298000A8026091A9027091AA028091AB02909175
:10299000AC020E946D14089581E00E94B014089565
:1029A0009091A902992319F091509093A90288233C
:1029B00091F02091A5023091A6024091A70250917A
:1029C000A8026091A9027091AA028091AB02909135
:1029D000AC020E946D14089581E00E94D014089505
:1029E00021E030E0A90102C0440F551F8A95E2F7AB
:1029F000CA0120916702662311F0822B02C08095E4
:102A000082238093670281E080935902089521E038
:102A100030E001C0220F8A95EAF7809167022823EF
:102A200081E009F480E00895A5E0B0E0EAE1F5E195
:102A30000C94F728909003018091A502982F917033
:102A400080FF08C0A0905A02B0905B02A114B104AC
:102A5000A9F423C08091040120910501821790F709
:102A6000E82FF0E0AF01440F551FE40FF51FE355C9
:102A7000FD4F1182108212828F5FF0CF992369F08F
:102A8000812C882D0E940715882309F44DC0F5017B
:102A9000C590D490C114D104B1F480910201692D84
:102AA00070E023E0829FC0011124E091A501F09124
:102AB000A60183559D4F09952596ECE00C941329AA
:102AC00035E0C30ED11C45E050E0B601CE010196C1
:102AD0000E945F2909810F3F39F110E08A81980136
:102AE000280F311DC9012A30310514F089E090E02A
:102AF0007C01EE0CFF1C8E0D9F1D9C0123553D4F4C
:102B00007901C801880F991F080F191F03551D4F20
:102B10000E151F05A8F698014D816C818B810E94CE
:102B20001A140D5F1F4FF4CF82E0A80EB11C8394DE
:102B300026E08212A6CFB1CF9091A50290FF16C0D9
:102B40009091040120910501921770F4E92FF0E0B3
:102B5000DF01AA0FBB1FEA0FFB1FE355FD4F818367
:102B6000608342839F5FF0CF0E9414150895A3E015
:102B7000B0E0EDEBF5E10C94FD28182FF62E042FB4
:102B8000E22E8091A50280FF33C0E82FE695E695FE
:102B9000F0E0E656FE4F9081909365028C7F843082
:102BA00061F49E012F5F3F4F812F0E941A144B81C9
:102BB00069818A810E949C1504C0923011F41091A1
:102BC000A6021093A602F092A7020093A802EE209C
:102BD00079F02091A5026091A9027091AA02312F8B
:102BE0004F2D502F8091AB029091AC020E946D143A
:102BF0002396E6E00C941929E5EAF2E09181282F6A
:102C00004381628188E0890F0E94B715089581E0B1
:102C10000E94FC150895E5EAF2E09181282F438196
:102C2000628188EF890F0E94B715089581E00E94A4
:102C30000B160895E5EAF2E0628128E0620F08F4DD
:102C40006FEF282F438181810E94B715089581E09D
:102C50000E941A160895E5EAF2E0628128E0621BFC
:102C600008F460E0282F438181810E94B715089500
:102C700081E00E942B160895E5EAF2E0438128E006
:102C8000420F08F44FEF282F628181810E94B7150F
:102C9000089581E00E943C160895E5EAF2E0438140
:102CA00028E0421B08F440E0282F628181810E94C5
:102CB000B715089581E00E944D16089520E00E9406
:102CC000B7150895A3E0B0E0E8E6F6E10C94FF281C
:102CD0008C018091580281110AC09E012F5F3F4FE5
:102CE00048E76FEF0E941A148A8180935802F80116
:102CF0008481813051F028F0823061F44091580293
:102D00000AC08091580240E007C06091580240E03C
:102D100080E003C040E080E060E00E949C15F80184
:102D2000848190E0019663E070E00E94D72884835C
:102D30002396E4E00C941B299091A50290FF0FC00C
:102D4000293068F430E0F901EE0FFF1FE20FF31FA6
:102D5000E355FD4F8183608342830E9414150895DB
:102D6000FF920F931F93CF93DF93EC01F12C0FEFA2
:102D700010E060910601F616F0F4809104012F2D09
:102D800030E0280F311DC901880F991F280F391F06
:102D900023553D4F70E0C8010E94D728962F8C81A3
:102DA0004091A8026091A702F99E800D11240E9413
:102DB0001A14F394DECF0E9414159A818C8190FF2F
:102DC00002C08F5F01C081508C83CDB7DEB7E5E0D4
:102DD0000C941A29E5EAF2E020812E7F20833181CC
:102DE0004281538164817581868197810E946D142F
:102DF000109266020E9414150895E5EAF2E08081BF
:102E00008E7F8083109266020E941415089510929E
:102E100066028091630281110AC081E0809363029F
:102E20008091A5028170809362020E94FD16089530
:102E30006091A5026695669570E041E050E087E0FC
:102E400091E00E946829892B19F481E08093660241
:102E50000E94412190935D0280935C0208959091BD
:102E6000A50290FF3FC09370811102C0946007C01B
:102E7000893010F0906203C0880F880F982B9093D0
:102E8000A502662391F02091A5023091A6024091FF
:102E9000A7025091A8026091A9027091AA028091A4
:102EA000AB029091AC020E946D146091A5026695F0
:102EB000669570E041E050E087E091E00E9468296B
:102EC000892B19F01092660202C00E94181781E047
:102ED00080935F024091A8026091A7028091A602B0
:102EE0000E945E160895682F9091A502969596957A
:102EF00081E0890F893008F081E00E942F17089542
:102F000081E00E9473170895682F9091A50296950D
:102F100096958FEF890F09F488E00E942F17089586
:102F200081E00E948417089561E00E942F170895A0
:102F3000E5EAF2E0808181608083869586950E9433
:102F4000941708958091A50280FF03C00E94EA169D
:102F500008950E949817089560E00E942F17089521
:102F60008091640281113CC00E943B142093A50211
:102F70003093A6024093A7025093A8026093A9023F
:102F80007093AA028093AB029093AC022C7FA1F4C1
:102F90000E9493140E943B142093A5023093A60232
:102FA0004093A7025093A8026093A9027093AA02CB
:102FB0008093AB029093AC020E94201410926602A0
:102FC000E091A301F091A40109958091A50280FFF1
:102FD00004C0869586950E94AC1781E080936402B8
:102FE00008950E943B142093A5023093A6024093BB
:102FF000A7025093A8026093A9027093AA0280933B
:10300000AB029093AC020E9420148091A50280FF35
:1030100004C0869586950E94AC170895E5EAF2E013
:10302000808181608083869586950E94AC17089583
:10303000109263028091620281110E940E180E9418
:10304000181708950F931F93CF93DF938091660213
:10305000882309F447C080916502E091A502E695B6
:10306000E695E81BE0935E02823051F4E695F0E0CD
:10307000EA51FD4FE491CE2FD0E000EB16E10DC0F8
:10308000883039F4E4EEF2E0C591D49102E616E11D
:1030900004C0C0EDD7E008E014E180915F0288230E
:1030A00061F010925F020E94412190935D02809333
:1030B0005C0210926102109260020E944121E09134
:1030C0005C02F0915D028E1B9F0B8F3F9F4750F477
:1030D000CE0FDF1FD0935D02C0935C028CE592E0BF
:1030E000F801099580915902882361F010925902E4
:1030F00080916602811106C08091A5028695869511
:103100000E94AC17DF91CF911F910F910895089500
:103110000E9422180895882311F0FA0101C0FB01D2
:10312000099508950E94A714823038F00E94A714D0
:10313000873018F40E948017089582E00E94941747
:1031400008951F93CF93DF93FB01158111114FC099
:10315000EC010E94520D8272FE01E052F847E53107
:10316000F10520F4EE59FF4F0C94EB2811E03FC01D
:103170000E94A2173CC040E957E160E877E104C033
:1031800040E857E160E977E10E948B1830C046E1E2
:1031900056E167E076E1F8CF47E056E166E176E197
:1031A000F3CF48E356E167E276E1EECF47E256E13E
:1031B00068E376E1E9CF4AE556E169E476E1E4CFF8
:1031C00049E456E16AE576E1DFCF4CEE54E16CEC80
:1031D00074E1DACF4CEC54E16CEE74E1D5CF81E0D0
:1031E00004C00E94921803C088E00E949417812FA7
:1031F000DF91CF911F910895E8ECF2E081E28083A6
:10320000118289E1828384E0838360E2CF010E949E
:10321000F4210895E8ECF2E082E2808381E081838A
:10322000128285E0838360E2CF010E94F421089539
:10323000E8ECF2E083E2808311821282138260E282
:10324000CF010E94F4210895FF920F931F93CF9313
:10325000DF93EC01F9800A81802F90E08F0D911DA2
:103260000A9714F08DEF05C00A3010F410E009C081
:103270008EEF8093C90260E288EC92E00E94F42114
:103280000CC02396101749F0212F2F0D4A81698118
:1032900088810E949C161F5FF4CFCDB7DEB7E5E0B2
:1032A0000C941A29E8ECF2E087E2808389E08183BC
:1032B00060E2CF010E94F4210895E8ECF2E088E298
:1032C000808382E0818360E2CF010E94F42108952F
:1032D000DC01EC914E2F50E0FA01B197E830F10596
:1032E000C0F4E958FF4F0C94EB280E94FC18089595
:1032F0000E940A1908950E94181908950E9424191D
:1033000008950E94F11708950E94521908950E948D
:103310005D1908950E943F0F089588E0E9E6F2E004
:10332000DF011D928A95E9F70E94821A0895FC0137
:10333000228130E02F5F3F4F23703327438150E0DD
:1033400081E02417350709F080E008950F931F935B
:10335000CF93DF93EC01162F042F0E949719811150
:1033600013C08A81FE01E80FF11D1F776481607828
:10337000612B00FB67F964838F5F83708A83888188
:103380008F5F888381E001C080E0DF91CF911F9142
:103390000F910895FC01838192819817B1F0DF01AC
:1033A000A80FB11D14968C9187FB992790F98F7700
:1033B000DB018C93DA019C9383818F5F837083831D
:1033C00081818F5F818381E0089580E00895462F99
:1033D000682F89E692E00E94A6190895AB01BC010E
:1033E00089E692E00E94CA19089581E00895A2E05A
:1033F000B0E0EDEFF9E10C94002980916802882398
:1034000051F01092680280916B0280936C0280915F
:10341000690280936A020E94C51A0E948A1910E00C
:10342000882379F0BE016F5F7F4FCE0102960E9424
:10343000EE19882331F069818A810E94F30211E03C
:10344000F1CF812F2296E3E00C941C298FE891E0C4
:103450000197F1F700C000000895611102C085E3F3
:1034600001C086E334B1282F2F7081E090E001C0C5
:10347000880F2A95EAF7982F9095932394B995B1E0
:10348000892B85B90895611102C025E301C026E3A7
:1034900083B190E02F7002C0959587952A95E2F749
:1034A000817008950895CF93DF93C0E080917102F9
:1034B000C81750F460E08C2F0E942D1A61E08C2F09
:1034C0000E942D1ACF5FF2CF0E94261AC0E0809191
:1034D0007102C81790F460E08C2F0E94431AD82F15
:1034E00061E08C2F0E94431AEC2FF0E0ED58FD4F65
:1034F000880FD82BD083CF5FEACF0E94521ADF917A
:10350000CF91089581E0809371020E94531A08952B
:103510001F93CF93DF93E42FEE0F6E2BC82FD0E0D5
:10352000DE01AD58BD4FEC912E2F237030E0462FB9
:1035300050E02417350729F1182FEE0FEE0FE62B78
:10354000EC93EF70F0E0E955FE4FCE58DD4F9081DF
:103550008881890F8883843024F060E0812F0E9465
:10356000E71988818D3F24F461E0812F0E94E719DB
:103570008881082E000C990B64E070E00E94D72827
:103580008883DF91CF911F910895CF93DF93C0E09F
:1035900080917102C81780F461E08C2F0E94431A59
:1035A000D82F60E08C2F0E94431A4D2F682F8C2F4C
:1035B0000E94881ACF5FECCFDF91CF910895539A84
:1035C00008952BB1277F3BB138604FB7F894FC01C9
:1035D000CB01880F991F680F791F6E0F7F1FE617A9
:1035E000F70789F0819198E03BB9000000C087FFA0
:1035F0002BB9880F000000C000C000C02BB900C06C
:103600009A9591F7ECCF4FBF8FE594E00197F1F7D2
:1036100000C0000008950E94480E089580E00E94B6
:103620001912817008950E94E1122FEF86E791E050
:10363000215080409040E1F700C000000E94E1125C
:103640000E940E1B882321F00E940B1B0E948E21DA
:1036500008950E94131B0895CF93DF9386319C47F2
:1036600009F5EB010E94520D9D81992371F08A7A30
:1036700091E009F490E090937402811102C089E214
:1036800001C085E30E944B2009C080917402811122
:1036900002C089E201C085E30E9453200E94D40D3C
:1036A00080E001C081E0DF91CF910895CF93DF9357
:1036B000FC01DB0115968C91882309F4DDC09F0184
:1036C00030572332310508F0D8C0EF010E94640E54
:1036D0009093980280939702FE01E150F047E23206
:1036E000F10520F4E158FF4F0C94EB2880919702EC
:1036F0008160AAC0809198028860B2C080919702D0
:103700008260A2C08091970220C080919702886059
:103710009BC0809198021EC0809198028260A0C0D8
:1037200080919702806190C08091970280628CC0E6
:1037300080919702806488C00E94BF0880919702A0
:10374000806882C080919702886084607DC080918B
:1037500098028260816084C0809197028E7F74C0DD
:1037600080919802877F7CC0809197028D7F6CC08A
:103770008091970220C080919702877F65C08091D9
:1037800098021EC0809198028D7F6AC08091970236
:103790008F7E5AC0809197028F7D56C0809197028C
:1037A0008F7B52C00E94BF08809197028F774CC0D8
:1037B00080919702877F8B7F47C0809198028D7F91
:1037C0008E7F4EC08091970282FB222720F991E0E4
:1037D000922790FB82F990FB83F936C08091980282
:1037E000982F909591708E7F892B90FB81F938C02E
:1037F0008091970286FB222720F991E0922790FB87
:1038000086F922C00E94BF088091970287FB222779
:1038100020F991E0922790FB87F916C081E001C062
:1038200080E00E94ED0E1EC08091970284FB22274B
:1038300020F991E0922790FB84F906C080919702CD
:10384000982F909590FB80F9809397020BC0809100
:10385000980283FB222720F991E0922790FB83F9BD
:103860008093980280919702909198020E94690E2D
:103870000E94BF0880E001C081E0DF91CF910895F0
:10388000282F35EB2303C001112497FF03C0805874
:10389000910902C080589F4F892F089580917B0223
:1038A00080FF06C060910D0170E0660F771F26C093
:1038B00081FF04C060910D0184E005C082FF07C054
:1038C00060910D0188E0689FB001112417C09091AC
:1038D0007A029923D1F060910C01961788F7209114
:1038E0000D0188E0289F90011124929FA001939FD1
:1038F000500D112470E0CA010E94D728603871056C
:1039000040F46115710519F406C068E070E0862F77
:1039100008958FE7089581E0089580917B0280FFEC
:1039200008C06091090170E0759567957595679578
:1039300021C081FF06C06091090170E0759567950F
:1039400019C082FF04C06091090170E010C090911D
:103950007902992399F0609108019617A0F7809158
:103960000901899FC001112470E00E94D7286038A6
:10397000710540F46115710519F406C061E070E04D
:10398000862F08958FE7089581E0089590917E0233
:1039900091110CC090917F02911108C09091810209
:1039A000911104C090918002992331F098E0909396
:1039B0007A0291E0909379028D3C21F40E944E1C92
:1039C000819504C08E3C29F40E944E1C80937F0296
:1039D00008958F3C21F40E944E1C819504C0803DC7
:1039E00029F40E944E1C80937E020895893D19F4AB
:1039F0000E948D1C05C08A3D31F40E948D1C81956A
:103A00008093800208958B3D21F40E948D1C819546
:103A100004C08C3D29F40E948D1C8093810208957E
:103A20009FE2980F983078F421E030E0A90102C0BD
:103A3000440F551F9A95E2F7CA0190917D02892B98
:103A400080937D0208958D3D21F480917B028160F9
:103A50000BC08E3D21F480917B02826005C08F3DBA
:103A600029F480917B02846080937B0208958D3CD1
:103A700039F490917F0297FF35C010927F0259C0B0
:103A80008E3C29F490917F021916BCF32BC09091C3
:103A90007E028F3C29F497FF25C010927E0249C018
:103AA000803D19F41916CCF31DC090918002893D18
:103AB00029F41916BCF4109280023BC08A3D19F417
:103AC00097FF10C0F8CF8B3D39F49091810297FF9A
:103AD00009C0109281022DC08C3D21F49091810289
:103AE0001916BCF39FE2980F983080F421E030E083
:103AF000A90102C0440F551F9A95E2F7CA018095AB
:103B000090917D02892380937D0213C08D3D21F425
:103B100080917B028E7F0BC08E3D21F480917B02D1
:103B20008D7F05C08F3D29F480917B028B7F809330
:103B30007B0280917E02811106C080917F028111FB
:103B400002C010927A0280918002811106C0809199
:103B50008102811102C01092790208950E944121D0
:103B600020917E02211104C020917F02222321F0A6
:103B7000909378028093770220918002211104C0F3
:103B800020918102222321F0909376028093750286
:103B90008CE792E00E94A91F0895ECE7F2E086E02E
:103BA000DF011D928A95E9F710927A02109279024C
:103BB00010927B020895FC01828181110DC08381E6
:103BC00081110AC08481811107C091E08581811132
:103BD00001C090E0892F01C081E081700895A6E0C6
:103BE000B0E0E5EFFDE10C94002986E0ECE7F2E0BF
:103BF000DE01119601900D928A95E1F710927E02F6
:103C000010927F0210928002109281028B818111AA
:103C100004C08C81882309F456C08091770290916A
:103C200078020E945921AC0190917A02992339F0CF
:103C300020910E0130E02417350758F044C0209140
:103C40000F018AE0289F900111242417350718F0EE
:103C50003AC09F3F19F09F5F90937A021B81112316
:103C600061F00E944E1C111614F09FEF01C091E00C
:103C7000989F902D112490937E021C81112361F056
:103C80000E944E1C111614F09FEF01C091E0989F06
:103C9000902D112490937F0280917E02882399F0C9
:103CA00010917F02112379F00E94401C811101C004
:103CB00081E080937E02812F0E94401C811101C00F
:103CC00081E080937F028D81811104C08E818823E1
:103CD00009F456C080917502909176020E94592194
:103CE000AC0190917902992339F020910A0130E0DA
:103CF0002417350758F044C020910B018AE0289F13
:103D0000900111242417350718F03AC09F3F19F08D
:103D10009F5F909379021D81112361F00E948D1C99
:103D2000111614F09FEF01C091E0989F902D11247F
:103D3000909380021E81112361F00E948D1C111648
:103D400014F09FEF01C091E0989F902D1124909363
:103D5000810280918002882399F0109181021123C1
:103D600079F00E94401C811101C081E080938002A3
:103D7000812F0E94401C811101C081E0809381024B
:103D8000BE016F5F7F4F8CE792E00E946620811139
:103D900005C08CE792E00E94DB1D81110E94AE1DE0
:103DA00086E0FE013196ACE7B2E001900D928A9573
:103DB000E1F72696E3E00C941C290F931F93CF9311
:103DC000DF93C42FD22FFC0185818823B1F040936B
:103DD00084020E944121909383028093820280E2B8
:103DE0008C0F883008F04DC0C77081E001C0880F8B
:103DF000CA95EAF70E945A0644C08091840248138B
:103E000030C080918202909183020E9459218438AF
:103E1000910538F510E21D0FCD17B9F080E28C0F37
:103E2000883040F4C77081E001C0880FCA95EAF776
:103E30000E946106183010F581E09D2F977001C037
:103E4000880F9A95EAF70E945A06802F0E94500622
:103E50001830B8F4D77081E001C0880FDA95EAF71E
:103E60000AC080E28C0F883060F4C77081E001C026
:103E7000880FCA95EAF70E94610603C0802F0E944E
:103E80005006DF91CF911F910F9108950F93FC0180
:103E9000E851FC47E730F10590F5CB01EF55FF4FB6
:103EA0000C94EB2806E221EE41EE6AE17CE723C0A8
:103EB00007E225EE45EE6BE17CE71DC006E221EE50
:103EC00040EE68E17CE717C007E225EE44EE69E1C9
:103ED0007CE711C006E221EE42EE6CE17CE70BC00C
:103EE00007E225EE46EE6DE17CE705C008E221E041
:103EF00045EE6EE17CE70E94DD1E80E008C0FB011C
:103F00008581882319F01092840201C081E00F910D
:103F1000089590938A02809389020895E09189021E
:103F2000F0918A02309729F00190F081E02D0995F7
:103F3000089580E008950E948E1F0895E0918902FF
:103F4000F0918A02309721F00280F381E02D0995EB
:103F50000895E0918902F0918A02309739F022E0C9
:103F6000DC012C930680F781E02D09950895A3E0EC
:103F7000B0E0EDEBFFE10C94012920918702309134
:103F8000880228173907A1F090938802809387024E
:103F9000E0918902F0918A02309751F023E0298361
:103FA0009B838A830084F185E02DCE0101960995DB
:103FB0002396E2E00C941D29A3E0B0E0E2EEFFE1DD
:103FC0000C94012920918502309186022817390727
:103FD000A1F09093860280938502E0918902F0918E
:103FE0008A02309751F024E029839B838A830084DE
:103FF000F185E02DCE01019609952396E2E00C941F
:104000001D29E0910001F0910101329697E080E0D6
:10401000915029F021912223D9F38F5FF9CF089590
:10402000882371F02091000130910101F90132964D
:10403000285F3F4F9191891729F0E217F307D1F7D5
:1040400080E0089581E008959C01FC0132969FEF85
:1040500080E04191461789F09F3F19F4411101C05A
:10406000982F8F5F8630A9F79F3F39F0F901E90F4C
:10407000F11D97FDFA956283089508959C012A5FCA
:104080003F4FFC014281461301C012820196821704
:104090009307B9F70895682F80910001909101016D
:1040A0000E9424200895682F8091000190910101C1
:1040B0000E943E200895E0910001F09101013296A6
:1040C00086E0DF011D928A95E9F70895DC01FB0186
:1040D00011969C9111978181981321C012968C9111
:1040E0001297882319F09281891319C013968C9125
:1040F0001397882319F09381891311C015968C9119
:104100001597882319F09581891309C014969C91FD
:10411000992339F081E02481291304C002C081E091
:1041200001C080E08170089508950E949420089550
:1041300083E080938B020E9495200895811102C034
:1041400081E001C082E080938B020E949520089557
:104150000E949E20089581E080938B020E9495200A
:1041600008950E94AB20089508950E94B4200895F8
:104170000E94B52008950E94B42008950E94B420A2
:1041800008950E94B4200895CF930E94BE200E94FB
:10419000E1120E94BB20C0E08C2F0E9419128111F5
:1041A00004C0CF5FC630C1F701C081E0CF91089550
:1041B00085B7806885BF85B7806885BF08951F92E1
:1041C0000F920FB60F9211248F939F93AF93BF93CB
:1041D00080918C02811113C08091E8029091E902D4
:1041E000A091EA02B091EB024196A11DB11D80930E
:1041F000E8029093E902A093EA02B093EB02BF9128
:10420000AF919F918F910F900FBE0F901F901895B7
:104210008091F002843031F10E94140510928C02DA
:1042200020E488E190E00FB6F894A89580936000B0
:104230000FBE2093600083B7817F846083BF83B704
:10424000816083BF7894889583B78E7F83BF0FB6D4
:10425000F894A89580916000886180936000109226
:1042600060000FBE08950E94BF080E941B050895BC
:1042700082E084BD93E095BD9AEF97BD80936E0078
:1042800008952FB7F8948091E8029091E902A091E7
:10429000EA02B091EB022FBF08952FB7F894609116
:1042A000E8027091E9028091EA029091EB022FBF3F
:1042B00008959C014FB7F8948091E8029091E9022B
:1042C000A091EA02B091EB024FBF821B930B0895BD
:1042D00078941F920F920FB60F9211248F939F9391
:1042E000AF93BF938091E8029091E902A091EA0216
:1042F000B091EB020196A11DB11D8093E80290934D
:10430000E902A093EA02B093EB02BF91AF919F91B3
:104310008F910F900FBE0F901F90189587E797E72A
:1043200090930108809300089AE088E10FB6F89412
:10433000A895809360000FBE90936000FFCF9AE035
:1043400088E10FB6F894A895809360000FBE909313
:104350006000FFCF80919502089508959B01909190
:10436000F0029430F1F48F708093E9008FEF909118
:10437000E800815095FD06C095ED9A95F1F7000093
:104380008111F5CF8091E80085FF0BC0BA01C9010A
:1043900040E050E00E94F0238091E8008E77809307
:1043A000E800089543E050E0BC0184E00E94AE21A3
:1043B000089546E050E0BC0184E00E94AE210895DB
:1043C000CF93DF93EC0148E050E0BC0181E00E9414
:1043D000AE2188E0FE01ADE8B2E001900D928A9531
:1043E000E1F7DF91CF910895603231F4BC0140E2F2
:1043F00050E082E00E94AE210895A0E2B0E0E3E048
:10440000F2E20C9401298091F002843011F583E0EE
:104410008093E9008091E80082FF1BC08091E80052
:1044200085FF0AC040E050E060E270E0CE010196F6
:104430000E94352491E001C090E08091E8008B77E4
:104440008093E800992329F060E2CE0101960E9452
:104450006819A096E2E00C941D298091EF02811169
:1044600009C00E94C0250E941D268091E200846040
:104470008093E20008951092EF0208950E94B12007
:1044800008956091EC0281E0611101C080E00E941A
:10449000982008959091F00281E0943009F080E036
:1044A0006091EC020E949E20089542E061EC81E060
:1044B0000E94392542E261EC84E00E94392542E203
:1044C00061EC82E00E94392542E260EC83E00E94C8
:1044D00039259091F00281E0943009F080E06091FC
:1044E000EC020E94A82008958091F202833009F422
:1044F00063C030F4813071F0823009F49DC00895BA
:104500008A3009F489C08B3009F46EC0893009F013
:10451000ABC020C08091F102813A09F0A5C0809122
:10452000E800877F8093E8008091F5029091F60281
:10453000892B21F468E08DE892E003C060E080E020
:1045400090E070E00E947A248091E8008B7780935D
:10455000E80008958091F102813209F085C08091D0
:10456000F5029091F602009719F0029709F07CC0CD
:104570008091E800877F8093E8008091E80082FDC9
:1045800005C08091F0028111F8CF6EC02091F30038
:104590008091F20090E0922B029731F48091F1002B
:1045A000813011F0863021F48091F10080939502E2
:1045B0008091E8008B7754C08091F102813A09F034
:1045C00053C08091F5029091F602892B09F04CC0FE
:1045D0008091E800877F8093E8008091E80080FF69
:1045E000FCCF80911A0137C08091F1028132E1F550
:1045F0008091F5029091F602892BB1F58091E80047
:10460000877F8093E8000E946E258091F30280935B
:104610001A010E94BF0808958091F102813221F5AC
:104620008091E800877F8093E8000E946E2580914A
:10463000F4028093960208958091F102813AA1F4E8
:104640008091E800877F8093E8008091E80080FFF8
:10465000FCCF809196028093F1008091E8008E77E4
:104660008093E8000E946E25089584B7877F84BFF9
:104670000FB6F894A89580916000886180936000DF
:10468000109260000FBE90E080E80FB6F89480931F
:104690006100909361000FBE0E94AB2008950E94BC
:1046A000C0250E941D26E2EEF0E0808184608083B8
:1046B00078940E94A828089580E191E00E94891FC3
:1046C00008958091F0028530A9F48091F002853040
:1046D00079F40E9408218091EE028823B1F30E94B0
:1046E000C420882391F30E94DA230E94BF08EDCFF3
:1046F0000E943321089508959A014091F702509144
:10470000F8020E9484230895492F5527433051050C
:10471000C9F060F44130510581F04230510509F093
:1047200041C08BE590E04BE154E040C0413251057F
:10473000E1F04232510531F135C082E190E046E7C7
:1047400054E034C099278130910549F028F0029750
:1047500049F5E9EEF3E005C0E7E1F4E002C0E1E08D
:10476000F4E0849190E0AF0121C063307105D0F492
:10477000660F771FFB01E054FE4F4081518189E0B5
:1047800090E014C06330710568F4FB01EE0FFF1F69
:10479000E654FE4F40815181FB01E954FE4F808178
:1047A00090E004C080E090E040E050E0F9015183E7
:1047B0004083089580E189BD82E189BD09B400FE8E
:1047C000FDCF8091D8008F7D8093D8008091E0004C
:1047D00082608093E0008091E00081FDFCCF08952D
:1047E000A0E0B0E0E6EFF3E20C94FB28EC018B01D3
:1047F0007A010E948D25811133C0E114F10439F052
:10480000F70180819181081B190BC80FD91FC12C9A
:10481000D12C0115110519F18091E80085FD16C014
:104820008091E8008E778093E800E114F10449F06C
:10483000F70180819181C80ED91ED182C08285E0A6
:104840000FC00E948D25882321F30AC0899180938F
:10485000F10001501109FFEFCF1ADF0ADACF80E033
:10486000CDB7DEB7E8E00C941729A0E0B0E0EBE3A9
:10487000F4E20C94FB28EC018B017A010E948D2557
:10488000811133C0E114F10439F0F7018081918185
:10489000081B190BC80FD91FC12CD12C01151105EC
:1048A00019F18091E80085FD16C08091E8008B77B2
:1048B0008093E800E114F10449F0F70180819181CF
:1048C000C80ED91ED182C08285E00FC00E948D25FE
:1048D000882321F30AC08091F100899301501109C6
:1048E000FFEFCF1ADF0ADACF80E0CDB7DEB7E8E01E
:1048F0000C9417292091F7023091F80226173707F8
:1049000048F06115710539F42091E8002E77209365
:10491000E80001C0B901FC0120E06115710579F1E1
:104920008091F0028823F1F18530F1F18091E80067
:1049300083FD3CC08091E80082FD2EC08091E8009C
:1049400080FFEBCF2091F3008091F20090E0922B5A
:104950006115710551F08830910538F4219120934B
:10496000F100615071090196F3CF21E0089709F039
:1049700020E08091E8008E778093E800CECF21116F
:10498000CFCF0AC08091F002882361F0853061F0BA
:104990008091E80083FD0AC08091E80082FFF2CF99
:1049A00080E0089582E0089583E0089581E008950D
:1049B0002091F7023091F8022617370748F0611569
:1049C000710539F42091E8002E772093E80001C0AA
:1049D000B901FC0120E06115710591F18091F002AF
:1049E000882309F440C0853009F43FC08091E80075
:1049F00083FD3DC08091E80082FD2FC08091E800DA
:104A000080FFE9CF2091F3008091F20090E0922B9B
:104A10006115710559F08830910540F42491209377
:104A2000F1003196615071090196F2CF21E00897AB
:104A300009F020E08091E8008E778093E800CBCFEA
:104A40002111CCCF0AC08091F002882361F085301B
:104A500061F08091E80083FD0AC08091E80082FF48
:104A6000F2CF80E0089582E0089583E0089581E028
:104A70000895982F973068F59093E900981739F0CA
:104A80007091EC002091ED005091F00003C0242FB4
:104A9000762F50E021FD02C09F5FECCF3091EB00FC
:104AA0003E7F3093EB003091ED003D7F3093ED0081
:104AB0003091EB0031603093EB007093EC00209369
:104AC000ED005093F0002091EE0027FDE5CF80E04F
:104AD00008958F708093E90081E008958091F1023C
:104AE00087FF11C08091E80082FD05C08091F0022F
:104AF0008111F8CF11C08091E8008B770BC08091B5
:104B0000F002882349F08091E80080FFF8CF80917F
:104B1000E8008E778093E80008952091E4003091BA
:104B2000E50095E64091EC00842F817040FF23C0A2
:104B30008091E80080FD1DC08091F002882399F0EB
:104B4000853099F08091EB0085FD11C04091E40023
:104B50005091E5002417350729F3915011F09A017F
:104B6000E1CF84E0089582E0089583E0089581E034
:104B7000089580E008954091E80042FFDDCF089558
:104B80000E942F260E943726E0EEF0E080818160AF
:104B90008083E8EDF0E080818F77808319BCA7EDFA
:104BA000B0E08C918E7F8C9380818F7E8083109279
:104BB000EF0208950F931F93CF93DF930E942F2648
:104BC0000E943726C8EDD0E088818F77888388815E
:104BD0008068888388818F7D888319BC1092F00259
:104BE0001092EC021092EE021092ED0200EE10E034
:104BF000F80180818B7F808388818160888342E097
:104C000060E080E00E943925E1EEF0E080818E7F57
:104C10008083E2EEF0E08081816080838081886023
:104C20008083F80180818E7F808388818061888382
:104C3000DF91CF911F910F910895E8EDF0E0808111
:104C40008F7E8083E7EDF0E080818160808384E067
:104C500082BF81E08093EF020E94DA250895E8ED9B
:104C6000F0E080818E7F80831092E20008951092A0
:104C7000DA001092E10008951F920F920FB60F9282
:104C800011242F933F934F935F936F937F938F9351
:104C90009F93AF93BF93EF93FF938091E10082FFC7
:104CA0000BC08091E20082FF07C08091E1008B7F02
:104CB0008093E1000E94A7288091DA0080FF1FC046
:104CC0008091D80080FF1BC08091DA008E7F809396
:104CD000DA008091D90080FF0DC080E189BD82E1BA
:104CE00089BD09B400FEFDCF81E08093F0020E94EF
:104CF0002D2205C019BC1092F0020E943B22809127
:104D0000E10080FF19C08091E20080FF15C0809112
:104D1000E2008E7F8093E2008091E20080618093C8
:104D2000E2008091D80080628093D80019BC85E0B1
:104D30008093F0020E9441228091E10084FF30C004
:104D40008091E20084FF2CC080E189BD82E189BDB1
:104D500009B400FEFDCF8091D8008F7D8093D800EC
:104D60008091E1008F7E8093E1008091E2008F7E50
:104D70008093E2008091E20081608093E200809164
:104D8000EC02882311F084E007C08091E30087FDE6
:104D900002C081E001C083E08093F0020E944A22B9
:104DA0008091E10083FF29C08091E20083FF25C04C
:104DB0008091E100877F8093E10082E08093F002A0
:104DC0001092EC028091E1008E7F8093E10080914F
:104DD000E2008E7F8093E2008091E2008061809308
:104DE000E20042E060E080E00E9439258091F0001E
:104DF00088608093F0000E943E22FF91EF91BF9166
:104E0000AF919F918F917F916F915F914F913F9162
:104E10002F910F900FBE0F901F9018951F920F9219
:104E20000FB60F9211242F933F934F935F936F937D
:104E30007F938F939F93AF93BF93CF93DF93EF9322
:104E4000FF93C091E900CF708091EC00D82FD17012
:104E500080FDD0E81092E9008091F000877F809378
:104E6000F00078940E9452271092E9008091F0009F
:104E700088608093F000CD2BCF70C093E900FF9144
:104E8000EF91DF91CF91BF91AF919F918F917F91E2
:104E90006F915F914F913F912F910F900FBE0F90A7
:104EA0001F901895AAE2B0E0E8E5F7E20C9400291B
:104EB000E1EFF2E08091F100819322E0E93FF20717
:104EC000C9F70E9474228091E80083FF2EC180916F
:104ED000F1029091F202492F50E04A30510508F05A
:104EE00024C1FA01E855FF4F0C94EB28803821F0DB
:104EF000823809F01AC108C08091ED029091EE024B
:104F0000992389F082600FC08091F5028F708730FD
:104F100008F00BC18093E9008091EB0085FB8827A6
:104F200080F91092E9009091E800977F9093E80053
:104F30008093F1001092F100D1C0282F2D7F09F04D
:104F4000F4C0882319F0823061F0EFC08091F30241
:104F5000813009F0EAC0933009F080E08093EE02DE
:104F60002EC08091F30281112AC08091F5028F70CA
:104F70002FEF280F263008F0D8C08093E900209149
:104F8000EB0020FF1CC0933021F48091EB00806285
:104F900014C09091EB0090619093EB0021E030E021
:104FA000A90102C0440F551F8A95E2F74093EA0019
:104FB0001092EA008091EB0088608093EB001092E1
:104FC000E9008091E800877F8093E8000E946E25C9
:104FD000ACC08111AAC01091F3021F778091E30049
:104FE0008078812B8093E3008091E800877F809315
:104FF000E8000E946E258091E80080FFFCCF809140
:10500000E30080688093E300111102C082E001C0D8
:1050100083E08093F00289C08058823008F085C018
:105020008091F3029091F4028C3D53E0950779F55D
:1050300083E08A838AE289834FB7F894DE0113966E
:1050400020E03EE051E2E32FF0E050935700E4917E
:1050500020FF03C0E295EF703F5FEF708E2F90E06E
:10506000EA3010F0C79601C0C0968D939D932F5FD4
:10507000243149F74FBF8091E800877F8093E80093
:105080006AE270E0CE0101960E947A2416C0609117
:10509000F5027091F602AE014F5F5F4F0E947C23D4
:1050A000BC01892B09F441C09091E800977F90934F
:1050B000E80089819A810E94D8248091E8008B774A
:1050C0008093E80032C0803881F58091E800877FC6
:1050D0008093E8008091EC028093F1008091E800D9
:1050E0008E7772CF811121C08091F3029091F402EA
:1050F00099270297D4F48091E800877F8093E80095
:105100008091F3028093EC020E946E258091EC0264
:10511000811106C08091E30087FD02C081E001C0DB
:1051200084E08093F0020E9455228091E80083FF82
:105130000AC08091E800877F8093E8008091EB00AF
:1051400080628093EB00AA96E3E00C941C290895FA
:10515000CF938091F0028823A1F0C091E900CF7035
:105160009091EC00892F817090FD80E8C82B1092FF
:10517000E9008091E80083FD0E945227CF70C09320
:10518000E900CF910895AA1BBB1B51E107C0AA1FDC
:10519000BB1FA617B70710F0A61BB70B881F991FD8
:1051A0005A95A9F780959095BC01CD01089597FB7C
:1051B000072E16F4009407D077FD09D00E94C3286B
:1051C00007FC05D03EF4909581959F4F089570950A
:1051D00061957F4F0895EE0FFF1F0590F491E02D2C
:1051E00009942F923F924F925F926F927F928F928B
:1051F0009F92AF92BF92CF92DF92EF92FF920F9366
:105200001F93CF93DF93CDB7DEB7CA1BDB0B0FB66F
:10521000F894DEBF0FBECDBF09942A88398848882C
:105220005F846E847D848C849B84AA84B984C884C2
:10523000DF80EE80FD800C811B81AA81B981CE0FB9
:10524000D11D0FB6F894DEBF0FBECDBFED0108959E
:105250000F93083090F0982F872F762F652F542FBB
:10526000432F322F22270850F4CF220F331F441F21
:10527000551F661F771F881F991F0A95B2F70F9158
:10528000089597FB10F8169400080F93083098F0D3
:105290000850232F342F452F562F672F782F892F13
:1052A000902DF4CF059497958795779567955795A9
:1052B0004795379527950A95AAF70F910895FB0111
:1052C000DC0102C005900D9241505040D8F708957E
:1052D000FC014150504030F001900616D1F7319753
:1052E000CF010895882799270895FB01DC0104C0A8
:1052F0008D910190801921F441505040C8F7881BCE
:10530000990B0895FB01DC0102C001900D92415000
:105310005040D8F70895F999FECF92BD81BDF89A13
:10532000992780B50895A6E1B0E044E050E00C94E0
:10533000D529A8E1B0E042E050E00C94D529DC0189
:10534000A40FB51F4150504048F0CB01840F951F6A
:105350002E910E94B02941505040D0F70895262F39
:10536000F999FECF92BD81BDF89A019700B402165B
:1053700039F01FBA20BD0FB6F894FA9AF99A0FBE09
:1053800008950396272F0E94B0290E94AF29252F48
:105390000E94B029242F0C94B0290196272F0E9437
:1053A000B0290C94AF29DC01CB01FC01F999FECFA7
:1053B00006C0F2BDE1BDF89A319600B40D9241509D
:0A53C0005040B8F70895F894FFCFAD
:1053CA003602000900090901280850011E0A1401C1
:1053DA00AA21E021AD21D921D22101E200E900EA86
:1053EA0000B500B600B700CD008301CC008A019257
:1053FA000194012102230224022502260227022AFD
:10540A0002B300B4006F0070009F01CB019F02A09D
:10541A0002818283E200E900EA00B500B600B70023
:10542A00CD008301CC008A0192019401210223025A
:10543A0024022502260227022A02B300B4006F00C2
:10544A0070009F01CB019F02A002818283F4F5F6CE
:10545A00323331F7946697C6349000010202020291
:10546A00020208DF1AE11A00FF0100010000FFFF33
:10547A000000010001FF0044227B25058804AA04DC
:06548A002D044604660437
:00000001FF
