:100000000C94AE040C94E6040C94E6040C94E60400
:100010000C94E6040C94E6040C94E6040C94E604B8
:100020000C94E6040C94E6040C94F9260C94B42584
:100030000C94FF280C94E6040C94E6040C94E6045B
:100040000C94E6040C94E6040C94E6040C94E60488
:100050000C94E6040C94B2280C94E6040C94E60488
:100060000C94E6040C94E6040C94E6040C94E60468
:100070000C94E6040C94E6040C94E6040C94E60458
:100080000C94E6040C94E6040C94E6040C94E60448
:100090000C94E6040C94E6040C94E6040C94E60438
:1000A0000C94E6040C94E6040C94E6041209150979
:1000B00051097D0984098F099209920992091F0B40
:1000C0001F0B8B0A8E0A930AB70AD80ADB0ADE0ACC
:1000D000000B1F0B1F0B1F0B1F0B1F0B1F0B1F0BEF
:1000E0001F0B1F0B1F0B1F0B1F0B1F0B6A08730827
:1000F00083088D08C408CF0804090B09A80CB60CA6
:10010000C20CCC0CD80CDF0CEC0CF30C580DCC0D45
:10011000600D2A0D2E0D640D310D670D720D3C0D15
:10012000C20D400D760D440D7A0DA40D480D7E0DC7
:10013000AE0D4E0D840D8E0D350D6B0D380D6E0D03
:10014000530D890D9A0DBA0DBC0D260D5C0DD50D04
:10015000FB0D010EEF0DF50D070E0D0E130E620EC9
:10016000860E8B0E900E950E9A0E9F0EA40EA90E63
:10017000AE0EB30EBA0EBD0EC00EC30EC60EC90E25
:10018000CC0ECF0ED20ED70E3C0F3C0F6F0F6F0F61
:10019000EE0F0811081108110C1080109110911029
:1001A0004F125A128012B712ED122B136A136D13ED
:1001B000731376137B137E138113841387138A13AF
:1001C0008D139213951398139D13DC131B145E1457
:1001D00061146414DA14BB159416C61EED1E962025
:1001E000ED1E9620391F5C1F9620512061201E0FA6
:1001F0000500047F3F1F643214643214783C1E1ED5
:10020000140A0500000000000000000000000000CB
:1002100000000000000000000000000000000000DE
:10022000000000000000007E0F00D4FFFFFFC700A9
:1002300000007800000000000000002A2B280000C9
:100240000000000000000000000000000000290085
:100250000000002C1E3420212224342627252E368F
:100260002D3738271E1F20212223242526333336FD
:100270002E37381F0405060708090A0B0C0D0E0F50
:10028000101112131415161718191A1B1C1D2F31D3
:1002900030232D350405060708090A0B0C0D0E0F37
:1002A000101112131415161718191A1B1C1D2F31B3
:1002B00030354C05010980A101850319012AB700D9
:1002C000150126B700950175108100C0050C0901C4
:1002D000A101850419012AA002150126A002950199
:1002E00075108100C005010906A1018506050719E1
:1002F000E029E71500250195087501810205071918
:100300000029EF1500250195F075018102050819F6
:10031000012905950575019102950175039101C0AB
:100320000660FF0961A1010962150026FF00952002
:10033000750881020963150026FF00952075089154
:1003400002C005010906A101050719E029E715000A
:100350002501950875018102950175088101050740
:10036000190029FF150026FF009506750881000574
:1003700008190129051500250195057501910295BA
:100380000175039101C009025B00030100A0FA0995
:1003900004000001030101000921110100012244B0
:1003A00000070581030800010904010002030000A1
:1003B000000921110100012222000705820320000B
:1003C00001070503032000010904020001030000E6
:1003D00000092111010001226D000705840320009E
:1003E0000112010002000000084E693653010001AD
:1003F0000200011203530051005500410052004514
:10040000002E00580000001A0369004E00450054F9
:100410000054002000530074007500640069006FF0
:10042000000000040309042223252628292A2C2D54
:100430002F3032333536383A3B3D3E404243454714
:10044000494A4C4E5051535557595A5C5E6062644C
:100450006668696B6D6F71737577797B7D7F81835A
:100460008587898A8C8E90929496989A9C9E9FA15B
:10047000A3A5A7A8AAACAEAFB1B3B4B6B8B9BBBC7C
:10048000BEBFC1C2C3C5C6C7C9CACBCCCDCED0D1F1
:10049000D2D2D3D4D5D6D7D7D8D9D9DADADBDBDBE9
:1004A000DCDCDCDCDCDDDDDDDDDCDCDCDCDCDBDB8A
:1004B000DBDADAD9D9D8D7D7D6D5D4D3D2D2D1D0DE
:1004C000CECDCCCBCAC9C7C6C5C3C2C1BFBEBCBBDB
:1004D000B9B8B6B4B3B1AFAEACAAA8A7A5A3A19F53
:1004E0009E9C9A98969492908E8C8A898785838117
:1004F0007F7D7B79777573716F6D6B6968666462F8
:10050000605E5C5A5957555351504E4C4A494745C5
:100510004342403E3D3B3A3836353332302F2D2C66
:100520002A2928262523220000213100011132002A
:1005300002122200031323000414240005152500D1
:100540000616260007172700807060008171610081
:100550008373630084746400857565008676550036
:10056000876656000829390009193A000A1A2A0034
:100570000B1B2B000C1C2C000D1D2D000E1E2E0025
:100580000F1F2F00483858004F3F5F0088786800E1
:10059000897969008A7A6A008B7B6B008C7C6C009D
:1005A0008D7D6D008E7E5D008F6E5E0100213101BC
:1005B0000111320102122201031323010414240148
:1005C0000515250106162601071727018070600111
:1005D00081716101827262018373630184746401B9
:1005E00085756501867655018766560108293901AA
:1005F00009193A010A1A2A010B1B2B010C1C2C01A8
:100600000E1E2E010F1F2F0188786801897969015C
:100610008A7A6A018B7B6B018C7C6C018D7D6D010C
:100620008E7E5D018F6E5E29001E001F002000215E
:1006300000220023002500260027002D002E004C5C
:10064000002A002B0014001A000800150017001CD7
:100650000018000C00120013002F00300031003988
:100660000004001600070009000A000B000D000E30
:10067000000F003300340000002800E10000001DDE
:10068000001B00060019000500110010003600379D
:10069000003800E5002152E000E300E20000000025
:1006A0000000002C002400000000000000E60061B3
:1006B00052E40001003A003B003C003D003E003F98
:1006C0000041004200430044004500010046000094
:1006D0007C2078217801006B006C00010001000192
:1006E00000010001004B004E00010001000100016B
:1006F000000100010001005000510052004F004A6B
:10070000004D000000010001000000010001000197
:1007100000010001000100010001000100010001D1
:1007200000010001000100010000000000000001C4
:1007300000400000000000000001006052010001C4
:1007400000010001000100010001000100010001A1
:100750000001000100010001000100010001000191
:100760000001000100010001000100010001000181
:100770000001000100010001000100010001000171
:100780000001000100010001000100010001000062
:100790000001000100000001000100010001000152
:1007A0000001000100010001000100010001000141
:1007B0000001000100000000000000010001000035
:1007C0000000000000010060520100010001000172
:1007D0000001000100010001000100010001000111
:1007E0000001000100010001000100010001000101
:1007F00000010001000100010001000100010001F1
:1008000000010001000100010001000100010001E0
:1008100000010001000100010001000000010001D1
:1008200000000001000100010001000100010001C1
:1008300000010001000100010001000100010001B0
:1008400000000000000000010001000000000000A6
:1008500000010060520100000101010101010101DC
:100860000102020202020202020203030303030363
:100870000303040404040404040505050505060631
:1008800006060607070707070808080809090909EF
:100890000A0A0A0B0B0B0C0C0C0D0D0D0E0E0E0F95
:1008A0000F0F101011111112121313141415151625
:1008B000161717181819191A1A1B1B1C1D1D1E1E96
:1008C0001F202021222223242425262627282929E7
:1008D0002A2B2C2D2D2E2F30313232333435363712
:1008E00038393A3B3C3D3E3F404142434445464710
:1008F00048494A4C4D4E4F50515354555658595AE9
:100900005B5D5E5F616264656668696B6C6D6F708C
:1009100072737577787A7B7D7E8082838587888AFB
:100920008C8E8F91939596989A9C9EA0A2A3A5A732
:10093000A9ABADAFB1B3B5B7BABCBEC0C2C4C6C92E
:10094000CBCDCFD1D4D6D8DBDDDFE2E4E7E9EBEEE7
:10095000F0F3F5F8FAFDFFFFAA7F554011241FBE02
:10096000CFEFDAE0DEBFCDBF04B603FE18C0809142
:10097000CC069091CD06A091CE06B091CF068730DF
:10098000904BA740B04B59F41092CC061092CD0674
:100990001092CE061092CF06E0E0F8E3099512E03F
:1009A000A0E0B1E0E8EBFBE602C005900D92AE3BA3
:1009B000B107D9F726E0AEEBB2E001C01D92AC3C26
:1009C000B207E1F70E94E8040C94DA350C940000B9
:1009D000A6E2B0E0EEEEF4E00C94E83385B7806870
:1009E00085BF85B7806885BF84B7877F84BF0FB612
:1009F000F894A895809160008861809360001092BF
:100A000060000FBE90E080E80FB6F894809361001C
:100A1000909361000FBE8BEA96E19093BF028093A2
:100A2000BE020E94F8250E949E268091E20084600A
:100A30008093E2007894809176048823A1F010914D
:100A4000E9001F709091EC00892F817090FD80E883
:100A5000182B1092E9008091E80083FD0E94E31DAD
:100A60001F701093E90082E084BD93E095BD9AEF7A
:100A700097BD80936E000E94E32B811102C00E94FB
:100A8000682C08E211E0D8018D918D018F3F11F0A3
:100A90000E94DE17B1E006331B07A9F706E311E059
:100AA000ABE3EA2EA1E0FA2EF80181918F018F3F8E
:100AB00011F00E94DE17E016F106B1F78AE0E9EDC9
:100AC000F2E0DF01282F1D922A95E9F7E0ECF2E031
:100AD000DF011D928A95E9F780E090E00E94A23440
:100AE000853E9E4F21F40E94E32B811163C065EE89
:100AF0007EEF80E090E00E94D63460E082E090E0FB
:100B00000E94B83481E08093CA0261E083E090E003
:100B10000E94B83460E074E184E090E00E94D63432
:100B200060E086E090E00E94B83460E087E090E00A
:100B30000E94B83440E050E0BA0188E090E00E94A2
:100B4000CA3460E083E290E00E94B83460E08CE058
:100B500090E00E94B83460E08DE090E00E94B834EC
:100B600019821A821B821C821D821E821F82188695
:100B700048E050E067E170E0CE0101960E94A834A1
:100B800040E050E0BA018FE190E00E94CA3480E07A
:100B90000E94C42B0E94682C40E050E0BA018FE014
:100BA00090E00E94CA3440E050E0BA0183E190E056
:100BB0000E94CA3482E090E00E9494348093CD0277
:100BC00084E090E00E94A23490934E0580934D05FE
:100BD0000E94D71BEFEFF6E721E0E150F040204004
:100BE000E1F700C000000E94D71B8091D90280FF6E
:100BF00008C06FEF7FEF80E090E00E94D6340E9443
:100C00008E2883E090E00E9494340E942D310E944F
:100C1000DE2A81E08093550548E050E067E170E00E
:100C200084E894E00E9484341092550580918404F5
:100C30008C7FF9F489E2809384048091250190915E
:100C40002601A09127018093850490938604A093A8
:100C500087048FE7809388048FEF8093890448E0AE
:100C600050E067E170E084E894E00E94A8341092BC
:100C700055058091CC02811180C088E090E00E94EF
:100C80009C344B015C0183E290E00E949434282F55
:100C900030E040E050E060E070E080E090E000E2B2
:100CA0000E948935282939294A295B2920939E06E3
:100CB00030939F064093A0065093A1066093A2062E
:100CC0007093A3068093A4069093A5062C7F09F049
:100CD00042C025E020939E0610929F063FEF30937E
:100CE000A00630E83093A1061092A20630E04FEF44
:100CF00050E860E00E94352E88E090E00E949C342D
:100D00006B017C0183E290E00E949434282F30E054
:100D100040E050E060E070E080E090E00E948935C3
:100D2000B22FA32FF42FE52F5B0197018601BC2979
:100D3000A12BF22BE32BB0939E06A0939F06F0937A
:100D4000A006E093A1066093A206B092A30680934A
:100D5000A4069093A5060E941A2E1092B0060E9437
:100D6000E92980919E0680FF05C060E08695869502
:100D70000E94093081E08093CC0284E091E090935E
:100D80004A0580934905F8ED4F2EF2E05F2ECE0123
:100D900001967C0180917604853009F041C08091F4
:100DA0007604853009F038C080917604843031F1C2
:100DB0000E94901110924F05A8E1B0E0E0E40FB658
:100DC000F894A895A09360000FBEE093600083B7ED
:100DD000817F846083BF83B7816083BF7894889567
:100DE00083B78E7F83BF0FB6F894A895809160007B
:100DF000886180936000109260000FBE0E94D71B34
:100E0000E9EDF2E081919191892B09F01EC422E075
:100E1000E33EF207B9F7C3CF0E9453310E94D729AE
:100E20000E94D71B0EEC12E0E9EDAE2EE2E0BE2EE2
:100E3000D501F801219131918D919D9182279327C0
:100E40004E165F0619F0892BA9F305C0892B19F4FA
:100E50000E94B31B3FC0312CD5018D909D905D0148
:100E6000F80180819181340168267926611471042A
:100E700049F1212CCC24C394D12CC3018C219D2178
:100E8000892BB9F029A23AA20E94F3289CA38BA334
:100E9000F1E0FDA391E094012C213D21232B09F4E5
:100EA00090E09EA349A15AA16BA17CA18DA10E94B3
:100EB00058322394CC0CDD1C2EE02212DECFD80158
:100EC0008D929C9233940E5F1F4FB5E03B12C4CFBE
:100ED0000E94E7288091B006882309F4A6C080917B
:100EE000AF06E0919E06E695E695E81BE093AB061B
:100EF000823059F4F0E0E150FE4FE4910E2F10E003
:100F000055ECC52E54E2D52E6BC0863059F4F0E076
:100F1000E450FE4FE4910E2F10E045EBC42E44E266
:100F2000D42E5EC0893061F4E695F0E0E750FE4FC4
:100F3000E4910E2F10E03DEBC32E33E2D32E50C0D0
:100F40008F3061F4E695F0E0EA50FE4FE4910E2F09
:100F500010E028E5C22E23E2D22E42C0853159F49A
:100F6000F0E0ED50FE4FE4910E2F10E09AE0C92E14
:100F700093E2D92E35C08831F9F0833249F4E1EF9C
:100F8000F1E0059114918BE7C82E84E2D82E28C099
:100F90008432C9F08532F1F48E2F63E00E943F3530
:100FA000E92FF0E0E251FE4FE4910E2F10E0B7EE92
:100FB000CB2EB3E2DB2E14C008E210E0AFE8CA2E5D
:100FC000A2E2DA2E0DC004EF11E0F7E5CF2EF2E237
:100FD000DF2E06C000ED17E0E6E5CE2EE2E2DE2EC3
:100FE0008091AC06882361F01092AC060E94F32831
:100FF0009093AA068093A9061092AE061092AD06B1
:101000000E94F328E091A906F091AA068E1B9F0B7F
:101010008F3F9F4750F40E0F1F1F1093AA06009397
:10102000A90689EA96E0F60109950E9490110E94AE
:10103000D7299091D802891721F08093D8020E9475
:10104000E72880917604843009F0A4CE83E0809371
:10105000E9008091E80082FF9DCE8091E80085FF45
:1010600023C00E94172681111DC070E2C72ED12C0B
:101070008E010F5F1F4F09C08091F100D8018D9341
:101080008D01B1E0CB1AD10869F08091E80085FDAF
:10109000F3CF8091E8008B778093E8000E941726B9
:1010A000882399F391E001C090E08091E8008B776C
:1010B0008093E800992309F46DCE2981822F90E076
:1010C000FC013197E832F10508F0B9C2EA5AFF4F46
:1010D0000C946D3581E28093E3021092E4028AE180
:1010E0008093E50217C082E28093E302E1E0E0939F
:1010F000E4021092E50285E08093E60283EE92E03E
:101100000E94DC1D9EC283E28093E3021092E402FF
:101110001092E5021092E602F1CFDA808B81282F3F
:1011200030E02D0D311D2331310514F08DEF77C0E6
:101130008A30E0F78E010F5F1F4FCD2CC80ECD1403
:1011400009F47FC280919E0680FF1AC0F1E1FD156F
:10115000B8F0D80114969C91149715968C91159718
:10116000ED2DF0E09F01220F331FE20FF31FE15737
:10117000FB4F13962C912183908382830E94F32D41
:101180000D5F1F4FD394DBCF60E080E00E94342DD1
:101190000E944D2D0E94592D60E08CE178C188E0BD
:1011A00090E00E949C344B015C0183E290E00E943D
:1011B0009434282F30E040E050E060E070E080E0C0
:1011C00090E000E20E948935340145012629372943
:1011D0004829592920939E0630939F064093A006E4
:1011E0005093A1066093A2067093A3068093A40671
:1011F0009093A5060E941A2E80919E0680FF21C220
:1012000060E086958695D1C087E28093E302B2E1E3
:10121000B093E40273CF88E28093E30282E080938C
:10122000E4026CCF1A828CE07CC18A81823009F49E
:1012300029C250F4813009F002C20E94E7289B8342
:101240008C837D836E83FDC1833041F0843009F04F
:10125000F6C11B821C821D821E82F3C14B81DE01FE
:10126000119680E090E0242F30E0B901680F791FDB
:101270006530710508F0E5C1E42FE80FF0E0EE0FEE
:10128000FF1FE752FD4F5081618113966C931397B6
:1012900014965C931497019612968E30910529F757
:1012A000D0C18A81823019F0853051F0C8C16B817C
:1012B0007C818D819E810E9473350E94E429C1C189
:1012C00080919E0680FF08C08E7F80939E061092BC
:1012D000B0060E94F32D08C0816080939E0660E0F6
:1012E000869586950E94093080918404E1E08E27DE
:1012F0008093840410921901A4C14C816B818A816E
:101300000E94782C9D83C5C12D813E8132272327E1
:1013100032274C816B818A810E940C2C92C10E94E1
:10132000332C8FC18A81823009F082C0283009F4C1
:1013300046C0293009F469C08B818230F9F098F4F5
:10134000813009F07EC18C81F0E88F9FC0011124AB
:101350006FEF70E00E94D433462F20E06091A0062A
:1013600080919F0629C0833019F1843009F069C14A
:1013700020E04091A1066D818C811EC09C818091EE
:101380009E06911108C08E7F80939E061092B00633
:101390000E94F32D56C1816080939E0660E0869581
:1013A00086950E94093060E08C810E94093049C115
:1013B0008C818093A20645C10E942A2F42C18B8155
:1013C0008230D9F078F4813009F03BC18091A106D8
:1013D0002FEF829FC0011124880F892F881F990B3E
:1013E00091958AC0833071F0843009F02AC18091D0
:1013F0009F068C838091A00681C080919E0680FF0D
:1014000077C073C08091A20677C020919E0630916C
:101410009F064091A0065091A1066091A20670918E
:10142000A3068091A4069091A5060E94352E09C1BD
:10143000833009F004C12830A9F1293009F460C0D3
:101440008B818230D1F070F4813009F0FAC04C8188
:101450002AEA429F412D11248091850420E0609169
:1014600086041CC08330B1F0843009F0EAC08C815E
:1014700020E0409187046D8111C08C81811103C0EF
:101480000E944D2DDEC00E94592D60E08C810E948B
:10149000342DD7C08C8180938804D3C090E00E9403
:1014A000212DCFC08B818230D9F078F4813009F0C2
:1014B000C8C080918704AFEF8A9FC00111246AEAF7
:1014C00070E00E94D4336C83BCC0833099F08430C8
:1014D00009F0B7C0809185048C83809186040EC08A
:1014E00080918404982F937019F08695869504C096
:1014F00080E002C0809188048C83A3C08D83A1C04A
:1015000048E050E067E170E084E894E00E94A8348D
:101510001092550596C0B0E1BA8393C0E1E0EA832A
:1015200088EA8B838EC00A811B8110270127102730
:101530008C80912C6701C801885A9D4F96012E1905
:101540003F092815390508F07CC0083AF1E01F076B
:1015500030F40E949434D60114968C9302C0F601A4
:1015600014820F5F1F4FFFEFCF1ADF0AE4CF0A810B
:101570001B811027012710278C80912C6701C8013F
:10158000885A9D4F96012E193F092815390508F0F4
:1015900058C0083A21E0120728F4D60114966C913D
:1015A0000E94B8340F5F1F4FBFEFCB1ADB0AE7CFA3
:1015B0000E94FC2B46C084E08A8343C00A811B81C1
:1015C0001027012710278C80912C6701C80188966D
:1015D00096012E193F092815390598F50033E2E0E8
:1015E0001E0730F40E949434D60114968C9302C0E6
:1015F000F60114820F5F1F4FFFEFCF1ADF0AE6CF0D
:101600000A811B811027012710278C80912C6701EC
:10161000C801889696012E193F092815390588F4C6
:10162000003322E0120728F4D60114966C910E9430
:10163000B8340F5F1F4FBFEFCB1ADB0AE9CF8FEF34
:101640008983C7010E94DC1DA5CB80917504882386
:1016500009F4A5CB80E189BD92E199BD09B400FEF2
:10166000FDCF8091D8008F7D8093D8008091E000DD
:1016700082608093E0008091E00081FDFCCF0E94B9
:1016800053318DCB87E290E00E9494341B821C8200
:101690001D828E83D6CFA8E0B0E0E1E5FBE00C949C
:1016A000E833FC018481882309F436C67F0121E0F8
:1016B000408151816281738195810E9433328C0116
:1016C000F7018581882309F49AC19801375720389A
:1016D000310508F032C1003108F0C1C28FEF93E04C
:1016E0000E9494348111BBC238E5A32E32E0B32EA0
:1016F000002379F0A114F4E0BF0609F4B0C2C501DB
:101700000E949434811101C001502FEFA21AB20A35
:10171000EFCFCE0101962C0188E0F20111928A955B
:10172000E9F72AE0322E85010F5F1F4FC5010E94A5
:10173000943489831A82882309F491C2813009F094
:1017400041C06501F2E0CF0ED11CC8010E94943463
:101750008A83882309F483C29FEF980F933060F443
:1017600023E0A20EB11CC6010E9494348B8388230F
:1017700009F475C21C8229C0843031F54E0133E072
:10178000830E911C02E010E056018FEFA81AB80AF0
:10179000C6010E949434F40181934F01882309F417
:1017A0005EC28C3741F4E2E0F0E0EC0FFD1FE00F89
:1017B000F11F10820AC00F5F1F4F6501073011052E
:1017C00019F74DC2580101C056018201F80120816C
:1017D000222309F4A8CF213009F053C08181813040
:1017E00081F46801F2E0CF0ED11CF80182818933C7
:1017F00019F460E570E002C060E070E00E941B3206
:1018000015C0823049F46801F2E0CF0ED11CF80116
:1018100082810E94B0310AC0833051F46801F2E045
:10182000CF0ED11CF80182810E948631860182C0D0
:10183000843019F00F5F1F4F7DC0F80122810E5FC9
:101840001F4F80E090E030E0205331092A3031050D
:1018500068F4389EA001399E500D1124C901840FEF
:10186000951F0F5F1F4FF8012081EDCF009709F4FE
:1018700061C0EFE9FFE03197F1F700C00000019788
:10188000F5CFE22FF0E0ED5CFD4F2490822F86959E
:101890008695869590E0FC01ED5DFD4F6490277084
:1018A000712C022E02C0759467940A94E2F7F1E05D
:1018B0006F227724FC01ED5EFD4F8490912C022E67
:1018C00002C0959487940A94E2F731E08322992428
:1018D000FC01ED5FFD4FC490D12C02C0D594C7949C
:1018E0002A95E2F781E0C822DD246114710419F021
:1018F00081EE0E94B0318114910419F086EE0E94AD
:10190000B03160E070E0822D0E941B32811491049E
:1019100019F086EE0E9486316114710419F081EE8F
:101920000E948631C114D10429F060E070E08CE29D
:101930000E941B320F5F1F4F49CFF801EB56F10990
:10194000E830F10508F05BC0E258FF4F0C946D35AC
:101950009091840481E08927809384041092190176
:101960008091550581608093550579C180918404EB
:10197000869586958F5F8D3108F081E061E00E9449
:10198000342D6DC18091850490E021E04091870461
:1019900060918604089609C08091850490E021E05A
:1019A000409187046091860408970E94212D57C1B9
:1019B0006091860420E1620F08F46FEF06C0609129
:1019C000860420E1621B08F460E08091850421E038
:1019D0004091870490E0E9CF4091870420E1420FD5
:1019E00008F44FEF06C04091870420E1421B08F441
:1019F00040E08091850421E060918604EBCFF801FE
:101A0000E851FC47E730F10508F4E5C0882309F404
:101A100046C11092A806C8019057839708F00CC1E0
:101A200084E090E00E94A23490934E0580934D058F
:101A3000F801E150F047E232F10520F4EA57FF4F98
:101A40000C946D3580914D058160ACC080914E0540
:101A50008860B4C080914D058260A4C080914D051E
:101A600020C080914D0588609DC080914E051EC0AC
:101A700080914E058260A2C080914D05806192C028
:101A800080914D0580628EC080914D0580648AC032
:101A90000E94533180914D05806884C080914D052E
:101AA000886084607FC080914E058260816086C0BE
:101AB00080914D058E7F76C080914E05877F7EC0D8
:101AC00080914D058D7F6EC080914D0520C0809125
:101AD0004D05877F67C080914E051EC080914E05E1
:101AE0008D7F6CC080914D058F7E5CC080914D05CF
:101AF0008F7D58C080914D058F7B54C00E9453311B
:101B000080914D058F774EC080914D05877F8B7FEB
:101B100049C080914E058D7F8E7F50C080914D05CC
:101B200082FB222720F991E0922790FB82F990FB1B
:101B300083F938C080914E05982F909591708E7FD3
:101B4000892B90FB81F93AC080914D0586FB2227B5
:101B500020F991E0922790FB86F924C00E9453312E
:101B600080914D0587FB222720F991E0922790FB79
:101B700087F918C061E001C060E08EE090E00E944B
:101B8000B8341EC080914D0584FB222720F991E0D6
:101B9000922790FB84F906C080914D05982F90956F
:101BA00090FB80F980934D050BC080914E0583FB1F
:101BB000222720F991E0922790FB83F980934E052C
:101BC00060914D0570914E0584E090E00E94D634FE
:101BD0000E94533144C0E855FF4F0C946D3506E226
:101BE00021EE41EE6AE17CE723C007E225EE45EEF7
:101BF0006BE17CE71DC006E221EE40EE68E17CE788
:101C000017C007E225EE44EE69E17CE711C006E269
:101C100021EE42EE6CE17CE70BC007E225EE46EEDA
:101C20006DE17CE705C008E221E045EE6EE17CE76E
:101C3000C7010E946F2D13C00631FCE71F0719F57D
:101C4000809164048A7A91E009F490E09093030310
:101C5000811117C089E20E9456290E94271980919C
:101C60003904877009F458C3F7018581882309F482
:101C700053C380914E0582FF4FC382E00E947919C1
:101C80004BC385E3E8CF07372CE7120709F4F2C20C
:101C900008373CE7130709F0FDC282E0EFC20631C6
:101CA0008CE7180709F4DCC2809164048272F801A1
:101CB000E052F847E531F10508F07EC0E155FF4FED
:101CC0000C946D3580919E0680FF19C0282F2E7FC1
:101CD00020939E0630919F064091A0065091A10648
:101CE0006091A2067091A3068091A4069091A5062A
:101CF0000E94352E1092B0060E94F32DB0CF816065
:101D000080939E0661E0869586954EC045E550E33A
:101D100060E670E32CC040E650E365E570E327C061
:101D20004DED5FE267EE7FE222C047EE5FE26DEDD0
:101D30007FE21DC043EC5FE260ED7FE218C040ED42
:101D40005FE263EC7FE213C049EA5FE266EB7FE2A9
:101D50000EC046EB5FE269EA7FE209C04BE55EE256
:101D600065E77EE204C045E75EE26BE57EE20E9445
:101D7000BB2C75CF61E081E017C065E082E019C03F
:101D800068E086E016C06EE089E013C064E18FE091
:101D900010C067E185E10DC061E088E105C062E245
:101DA00089E107C061E083E20E94093058CF6AE20E
:101DB00085E20E94A62C53CF0737FCE71F0709F4E2
:101DC0005BC208372CE7120709F45BC2F701858173
:101DD00000811181882349F0C8010E946C30D82EFF
:101DE000682FC8010E94DC3004C0C8010E94A830DE
:101DF000D82EB8018D2D0E94F5170E940318D82EF9
:101E0000192FA82EF7010581C680C2949FE0C92230
:101E100080913904877001F10023F1F0812F807FD8
:101E2000803469F080E28D0D8830B0F0812F807EA3
:101E3000803229F4F1E0FD1578F4CC2069F080912E
:101E40004E0582FF09C082E00E9479198091390411
:101E50008770BB24B3948111B12C912E92948FE0A2
:101E60009822892D90E08C30910508F0D1C1FC01B9
:101E7000EC53FF4F0C946D35812F807F1F708823AA
:101E800011F01295107F0023B9F0112309F4AEC1AF
:101E900080E28D0D883010F0A11006C0909164048E
:101EA000192B1093640405C090913B04192B1093D7
:101EB0003B040E9427199AC18D2D0E94863111235F
:101EC00009F4A6C180E28D0D883088F1AA2079F14D
:101ED000109590913B04192310933B042BC0812F44
:101EE000807F1F70803211F01295107F8D2DAA20F7
:101EF00029F021E0A21609F44CC057C080914E058C
:101F000082FD1BC0002369F0112339F09091640415
:101F1000192B109364040E94271980E00E94B031AD
:101F200077C180E00E948631112309F471C1812FAD
:101F30000E9420190E9427196BC1002381F0CC2038
:101F4000C1F131E0C31264C190913A04812F892319
:101F5000181709F45DC1192B10933A0459C1C11027
:101F600057C1812F0E94753180913A04912F982397
:101F700029F0912F9095892380933A0420910403AE
:101F8000812F822309F444C1109521232093040357
:101F90003FC1002329F085E08C1508F439C109C040
:101FA00094E09C1508F434C115C0002331F0C11031
:101FB0001DC1812F0E947C312BC1CC2059F0893367
:101FC00009F023C1EFEFF7EE23E0E150F0402040AD
:101FD000E1F719C1812F0E9475311AC1812F8695B1
:101FE0008695837019F0813061F012C1002321F0D1
:101FF0008D2D912F937002C080E090E00E94B22955
:102000000DC1002321F08D2D912F937002C080E02F
:1020100090E00E948D2902C1812F8370A9F50111E2
:10202000FBC04D2D429546954770440F440F8D2DB2
:102030008F7090E09C01042E01C0220F0A94EAF7F1
:10204000D4FE08C08FE090E001C0880F4A95EAF7FF
:10205000809501C080E0169516951370123069F0D6
:1020600088F49091CA02113019F0822B892302C0A2
:10207000922B892B0E942D31CFC0822B9091CA02C6
:102080008927F8CF822BF6CF002319F0812F81709A
:1020900001C08695882309F4BFC04D2D4295469511
:1020A0004770440F440F8D2D8F7090E09C01042EDB
:1020B00001C0220F0A94EAF7D4FE08C08FE090E036
:1020C00001C0880F4A95EAF7809501C080E0169517
:1020D00016951370123059F078F49091CB021130AC
:1020E00019F0822B892309C0922B892B06C0822BE1
:1020F0009091CB02892701C0822B0E9411318CC0A4
:102100001F70002339F0812F0E9421318D2D0E94F4
:102110007C3182C08D2D0E947531812F0E94143137
:102120007BC08D2D32EFA31681F13A1538F090EF78
:10213000A91659F0E1EFAE1619F154C0F3EFAF163E
:1021400059F124EFA216C1F04DC0002381F034E014
:102150003C1508F45DC01F7181E090E0012E01C0C4
:10216000880F0A94EAF79091CB02892720C085E076
:102170008C1508F44DC0EFCF80914E0582FD1AC03A
:10218000002329F0812F8F7120C00023D9F3812FE4
:102190008F710E9414313CC0002341F01F7181E017
:1021A000012E01C0880F0A94EAF701C080E00E9466
:1021B00011312EC0002361F0812F8F7198E0899F2B
:1021C000900111242360209339040E94213120C002
:1021D00081E00E947919E1E0EC15D0F482E00E94E0
:1021E000791916C0002321F0CC2061F28D2D96CEF6
:1021F000CC2069F2893349F4FFEF27EE33E0F15048
:1022000020403040E1F700C000008D2D0E94863153
:1022100088EF890D843010F40E94D729BB20A9F0E3
:102220008091390480FD11C0F7011582869586954D
:1022300086950E942131C7010E944B0B8091390481
:102240008695869586950E94143120E0F70140819D
:10225000518162817381848195810E9433325CC097
:1022600080910303811104C089E20E942829F5CCE2
:1022700085E3FBCF81E002C081E004C00E942131F0
:1022800003C082E00E94143143E062E081E00E94DA
:10229000911BE5CC03309CE7190749F46FEF7FEF02
:1022A00080E090E00E94D6340E94E832D8CC04301E
:1022B000ECE71E07B8F40115FCE71F0771F40E9454
:1022C00053319FEFE4E3FCE09150E040F040E1F750
:1022D00000C000000E948E28C2CC01302CE71207FB
:1022E00019F374CD0B353CE7130721F480E00E940D
:1022F00090196CCD0C358CE7180741F480914E0590
:1023000082FB882780F991E08927F1CF0A351C47A5
:1023100009F05CCD81E0EBCF2896E2E10C94043427
:10232000A0E0B0E0E6E9F1E10C94E8330E94E72890
:10233000609305037093060380930703909308034B
:1023400030918404232F237021F0D32FD695D69576
:1023500001C0D0E020911901213091F028F0223005
:1023600099F12330E9F1F2C41092110160938004D5
:1023700070938104809382049093830481E02DC044
:1023800090910F01D9130DC0832F837090E040917D
:102390000E0150E021E08417950709F420E0822F18
:1023A00001C081E081708093130180918904909134
:1023B0001201981709F441C08093120140E060E0D7
:1023C00080E00E94D92439C0D0930F01832F8370FD
:1023D00080930E010E94152A83E080931901B6C4F0
:1023E00080915505882351F048E050E067E170E0A6
:1023F00084E894E00E94A83410925505409180042E
:102400005091810460918204709183042FB7F894F5
:102410008091500590915105A0915205B0915305BE
:102420002FBF841B950BA60BB70B4097A105B105D9
:1024300008F48CC41092190189C48D2F90E08D315D
:10244000910540F1809111018F5F8093110182E02D
:102450008093190180911301811108C0DD2309F4D3
:10246000BBCF80911901823079F403C0DD2309F4D8
:102470006DC40E94D72981FF07C020E040E06FEFC4
:1024800088E090E00E94DC248091110181500E943C
:10249000662D5CC4FC01E053FF4F0C946D358091B8
:1024A0001301882309F447C440E060E080E00E9403
:1024B000D92441C4809111010E94662D192FC82F83
:1024C0006091850470918604809187040E948F2E0C
:1024D000062FF72EE82EC11708F0EBC1EC2FF0E025
:1024E000DF01A75BBD4F8C9190911201982331F0D1
:1024F0002E2D402F6F2DCF010E94DC24CF5FEBCF1C
:10250000809111010E94662D192FC82FF09086042A
:1025100000918704E0908504B701802F0E948F2EE0
:10252000D62EC72EB82E609188046E0D7F2D802F79
:102530000E948F2E062FF72EE82EC11708F0B9C182
:102540008C2F90E0FC01E75BFD4F30812091120160
:10255000232359F030FF04C02E2D402F6F2D03C0D0
:102560002B2D4D2D6C2D0E94DC24CF5FE6CF80916A
:1025700011010E94662D092FC82FD0908604C090AB
:1025800087042091880410E4129F112D1124C01794
:1025900008F05CC0EC2EF12CF701E75BFD4F908159
:1025A000809112018923B9F0F701EE0FFF1FE65366
:1025B000FE4F808182958F7060918504819F600DB0
:1025C00011247D2D8C2D0E948F2E462F282F672FB2
:1025D000C7010E94DC24CF5FDACF809111010E94F5
:1025E000662D092FC82FD0908604C09087042091B3
:1025F000880410E4129F112D1124C01738F5EC2E19
:10260000F12CF701E75BFD4F908180911201892346
:10261000D9F0F701EE0FFF1FE753FE4F6081169FC1
:10262000B0011124B5E075956795BA95E1F78091F1
:102630008504680F7D2D8C2D0E948F2E462F282F0C
:10264000672FC7010E94DC24CF5FD7CFC1E00034E1
:1026500008F472C370C3809111010E94662D192F76
:10266000C82FF090850400918604E0908704609163
:1026700088046695669566958091800490918104A2
:102680000E9493250E94DF24805887FD8195880F42
:10269000282F3E2D239F212D1124822F6F2D702F47
:1026A0000E948F2E062FF72EE82EC11708F001C1C9
:1026B000EC2FF0E0DF01A75BBD4F8C9190911201F0
:1026C000982331F02E2D402F6F2DCF010E94DC2456
:1026D000CF5FEBCF8BE991E20BC089E392E20E94DE
:1026E0008A1DC82F29C38EE192E219C089E991E2BF
:1026F0000E948F1CF6CF80E991E2FACF87E891E241
:10270000F7CF8CE691E2F4CF8DE591E208C08AE63E
:1027100095E2E5CF8DE092E2E2CF89EF91E20E946F
:10272000231DDFCF8FE291E205C08DEF90E202C062
:102730008FEB90E20E94D31CD4CF809111010E94B4
:10274000662DF92E90911301911121C0609188049A
:1027500020E1620F08F46FEF809180049091810472
:102760000E9493256AE070E00E94D433892BF1F433
:102770000E94242590E4899F900111246091120108
:10278000832F932F990F990B0E94E62C0FC0082FCF
:1027900010E0CF2CD12C0C151D0544F460911201D2
:1027A000C8010E94E62C0F5F1F4FF5CFC1E0AFE3D9
:1027B000AF1508F0C1C2BFC2809111010E94662D01
:1027C000F92E90911301911121C06091880420E1AC
:1027D000620F08F46FEF80918004909181040E9451
:1027E000932565E070E00E94D433892BF1F40E94B8
:1027F0002425B0E48B9F9001112460911201832F56
:10280000932F990F990B0E94C22C0FC0082F10E034
:10281000CF2CD12C0C151D0544F460911201C80178
:102820000E94C22C0F5F1F4FF5CFC1E0EFE3EF1501
:1028300008F082C280C2809111010E94662D192F7A
:10284000C82FF090860400918704E0908504609181
:1028500088046695669566958091800490918104C0
:102860000E9493250E94DF24805887FD8195880F60
:10287000682F2CE0629F612D11246E0D7F2D802F1B
:102880000E948F2E062FF72EE82EC11790F4EC2F02
:10289000F0E0DF01A75BBD4F8C919091120198236E
:1028A00031F02E2D402F6F2DCF010E94DC24CF5F01
:1028B000ECCFC1E0103408F43FC23DC280E095E2A5
:1028C00017CF8EEA90E214CF809111010E94662DFD
:1028D000F92E40918004509181046091820470919E
:1028E00083048091090390910A03A0910B03B09196
:1028F0000C0384179507A607B70708F055C00E9478
:102900002425F0E48F9FC0011124092F112707FD12
:102910001A95F801E75BFD4F9081809112018923A0
:1029200009F442C00E94242581FD0EC00E94242586
:10293000C82F0E94242520E8829FC00111247FE730
:10294000790F8091870403C080E070E0C0E06C2FB5
:102950000E948F2E462F282F672FC8010E94DC244B
:102960002091880430E1230F08F42FEF60E1822FDB
:1029700090E00E949325BC0184EF91E00E94D43343
:102980008091800490918104A0918204B09183048D
:10299000860F971FA11DB11D8093090390930A0311
:1029A000A0930B03B0930C03C1E03FE33F1508F085
:1029B000C3C1C1C14091CD035091CE036091CF03FB
:1029C0007091D0038091800490918104A091820441
:1029D000B091830484179507A607B70708F4ABC125
:1029E00080911301811107C0809111010E94662D11
:1029F000092FC82F55C040E060E080E00E94D92434
:102A00007DE0E72E73E0F72E00E010E00E94242521
:102A100081FF08C0D7011C9211961C921197129643
:102A20001C921EC00E942425C82F0E942425B0E8B5
:102A30008B9FC00111247FE7790F6801CC0CDD1C4E
:102A4000C601800F911FFC01E35FFC4F6F016C2FEB
:102A5000809187040E948F2ED6016D937D938C9375
:102A60000F5F1F4FB3E0EB0EF11C0034110571F640
:102A7000BBCF8C2F90E0FC01E75BFD4F30812091B4
:102A80001201232361F0FC01EE0FFF1FE80FF91F75
:102A9000E35FFC4F2281408161810E94DC24CF5F93
:102AA000C01738F3C1E0003408F0C0E0003408F487
:102AB00043C120E010E001501109822F90E08017FF
:102AC0009107C4F4DC01AA0FBB1FA80FB91FA35FB5
:102AD000BC4F0196FC01EE0FFF1F8E0F9F1FFC01E4
:102AE000E35FFC4FC080D180E280CD92DD92EC921A
:102AF0002F5FE3CF0E9424257801EE0CFF1C81FF9D
:102B000009C00E0D1F1DF801E35FFC4F10821182FA
:102B1000128218C00E942425D82E0E942425E0E8A5
:102B20008E9FC00111247FE7790F0E0D1F1D035FDB
:102B30001C4F6D2D809187040E948F2ED8016D93BC
:102B40007D938C930E949D250091800410918104B7
:102B50002091820430918304DC01CB01800F911F0E
:102B6000A21FB31F8093CD039093CE03A093CF03F6
:102B7000B093D003E1C080911301882329F040E095
:102B800060E080E00E94D924809111010E94662DAE
:102B9000792E40918004509181046091820470915B
:102BA00083048091F4039091F503A091F603B09112
:102BB000F70384179507A607B70708F0B0C0609120
:102BC000850470918604809187040E948F2EC62F01
:102BD000672E582E81EDC82E83E0D82E03E811E031
:102BE00099EC892E91E0992E5601E12CF12CF501FA
:102BF0008081811104C0212C412C312C03C0252C53
:102C00004C2E362CF801EE0DFF1DE081F0E0DF01C7
:102C1000A75BBD4F8C9190911201982331F0222D2A
:102C2000432D642DCF010E94DC24F801EE19FF0929
:102C3000E585F0E0DF01A75BBD4F8C91909112011B
:102C4000982331F0222D432D642DCF010E94DC24E6
:102C5000D50111968C91F50181935F01FFEFEF1A79
:102C6000FF0A26E0E216F10409F0C1CFD60116965C
:102C70008C91811104C0B12CF12CE12C03C0B52C36
:102C8000FC2EE62CD8011696EC91F0E0DF01A75B54
:102C9000BD4F8C9190911201982331F02B2D4E2D28
:102CA0006F2DCF010E94DC24D8011796EC91F0E043
:102CB000DF01A75BBD4F8C9190911201982331F0F9
:102CC0002B2D4E2D6F2DCF010E94DC240E94242538
:102CD000837091E009F090E0F6019683F7E0CF0E63
:102CE000D11C025F1F4F8016910609F07DCF0E9414
:102CF0009D250091800410918104209182043091DF
:102D00008304DC01CB01800F911FA21FB31F8093AE
:102D1000F4039093F503A093F603B093F703C1E097
:102D20002FE3271548F407C0809111010E94662DFA
:102D3000C1E0903408F0C0E0809111018F5F809372
:102D40001101CC2309F483CBD1118BCBCDB7DEB7E6
:102D5000E2E10C94043480E0089590914D0592FFD7
:102D600010C041E0282F2471243009F040E031E008
:102D7000282F2871283009F030E0431711F02CE09B
:102D8000822793FF10C041E0282F2471243109F0DD
:102D900040E031E0282F2871283109F030E0431756
:102DA00011F02CE0822730914E0530FF10C051E029
:102DB000282F2171213009F050E041E0282F28719F
:102DC000283009F040E0541711F029E0822731FF44
:102DD00010C041E0282F2171213109F040E031E09D
:102DE000282F2871283109F030E0431711F029E02D
:102DF000822794FD877E08958238910569F1B0F4A9
:102E00008133910509F475C048F48932910509F4BC
:102E100067C08A32910509F471C008958533910520
:102E200009F459C089339105B9F00895833E91059D
:102E300089F138F4803E9105D1F0823E910529F167
:102E40000895863E9105C9F1873E9105D9F1843EEA
:102E5000910509F06CC027C020914D0520FD57C099
:102E600021FD55C020914E0523FD5BC00895809142
:102E70004D0580FD48C080914E0580FF48C080917F
:102E80004D0584FD46C083EE51C080914D0582FF03
:102E90003CC0F5CF80914D0582FD37C080914E0535
:102EA00080FD35C0ECCF80914E0581FF36C080910A
:102EB0004D0584FD2EC087EE39C080914D0583FFFE
:102EC0002AC0F5CF80914D0583FD25C080914E0528
:102ED00081FD23C0ECCF80914D0585FD22C01FC030
:102EE00080914D0585FD1BC080914E0583FF19C063
:102EF0000AC080914D0586FD16C017C080914D0512
:102F000086FD13C010C089E311C082EE0FC080EEB1
:102F10000DC080E00BC086EE09C084EE07C085E3DB
:102F200005C089E203C08AE201C081E390E0089510
:102F30009091640480913B04892B90913A049923E9
:102F4000E1F0892B90911001992341F090914D056A
:102F500097FF04C09EE129E235E003C096E021E23C
:102F600035E0F90120E0915028F031913323D9F375
:102F70002F5FF9CF211110923A040895209138045F
:102F80009091FF0357E02917A9F030E0529FF0011C
:102F9000539FF00D1124E050FC4F7181761306C051
:102FA0007081781303C07581741306C02F5F3F4F83
:102FB0002770E9CF80E0089581E00895F894E82F24
:102FC000E295EF70F0E031A1282F2F7081E090E0C2
:102FD00001C0880F2A95EAF7982F9095932391A323
:102FE00092A1892B82A378940895753048F46E30AD
:102FF00038F4843028F4462F672F0E94782C0895E7
:1030000080E090E008951F93CF93DF930E94FC1619
:10301000EC01C11580E5D807E8F5C11590E4D907A2
:1030200008F0A8C0C03ED10530F5CD3CD10508F070
:1030300094C0C83AD10578F4C53AD10508F083C0E8
:10304000C130D10509F47CC008F4F2C0C430D10508
:1030500008F0F1C0EDC0C33CD10508F0E9C0C85A82
:10306000D0E0CC0FDD1FC25CDE4F0990D881C02DAF
:10307000CE019464E1C0C11580E2D80708F0CBC04E
:10308000C11591E0D90708F06BC0C83ED10508F41E
:10309000D2C0CEC0C03682E5D80728F5C03492E54C
:1030A000D90708F079C0C03282E5D80708F06CC0B3
:1030B000C11592E5D90708F481C04C2F4695469575
:1030C00080E2489FA0011124C37021E030E0C901D3
:1030D00002C0880F991FCA95E2F7EA01C82BD92BC5
:1030E000CE019D68A9C0C03A82E5D807B8F48C2FFC
:1030F0008F71C03892E5D90708F07BC08695869518
:1031000090E2899F90011124C37081E090E002C099
:10311000880F991FCA95E2F79A6868C0C03C82E59B
:10312000D80708F46DC0C03E92E5D90708F080C00A
:10313000CF71DD27DC2FCC27CE01806F906A7CC059
:1031400081E090E079C0C55AD0E0C55CDE4F88814F
:10315000C82FD0E0CE0190646FC0CE0190656CC0E6
:103160008D2F0E94AD16182FCE0199270E94FC16B4
:103170001F715CC0CE0199270E94FC16CC27DF701E
:10318000D06A8C2B9D2B58C0CF71D0E0DC2FCC2780
:10319000CE01816F906A50C08C2F8F718695869575
:1031A00090E2899F90011124C37081E090E002C0F9
:1031B000880F991FCA95E2F79C6818C08C2F8F71F1
:1031C0000E94AD1695E0D695C7959A95E1F7CF7018
:1031D000D0E0DC2FCC27282F30E084FF05C084E02E
:1031E000220F331F8A95E1F7D069CE01822B932BF2
:1031F00023C090E0D82FCC27CE01846F906A1CC0EA
:103200008C2F8F710E94AD168F7190E0D82FCC2734
:10321000CE01906211C08D2F8F710E94AD16182FB4
:10322000CE0199270E94FC161F719062912B04C059
:1032300080E090E001C0CE01DF91CF911F91089511
:10324000809590916404892380936404089580910B
:103250001001882351F180914D0587FF26C00E94FF
:1032600098178093280540E250E06CE374E087E211
:1032700095E00E94CD35892BD9F180E2E7E2F5E0B7
:10328000ACE3B4E001900D928A95E1F7E091490535
:10329000F0914A05309761F186E08093270504801C
:1032A000F581E02D87E295E022C00E949817809377
:1032B0001F0548E050E06CE574E08FE195E00E9466
:1032C000CD35892BA9F088E0EFE1F5E0ACE5B4E07D
:1032D00001900D928A95E1F7E0914905F0914A0538
:1032E000309731F00280F381E02D8FE195E0099570
:1032F0000895909139048095892380933904282F6B
:10330000277069F4981759F090914E0592FF07C005
:103310008695869586950E941431109239040895F9
:1033200090914E0592FB222720F9281779F080FB17
:1033300092F990934E0560914D0570914E0584E091
:1033400090E00E94D63482E00E947919089580911D
:1033500038049091FF03891719F08F5F8770FBCFB6
:103360000895CF93DF938091FE0382958F7009F0CB
:103370004EC08091FD03882309F449C08091380430
:103380004091FF035091F9036091F803C091FA0353
:10339000D091FB0377E08417D1F190E0789FF001A2
:1033A000799FF00D1124DF01A050BC4F14962C9191
:1033B0001497222349F111962C911197251324C0BB
:1033C0002C91261321C015962C91159721111CC004
:1033D00012962D913C9113972C1B3D0B283C3105E7
:1033E00098F48091FE038F7080618093FE03EA5F02
:1033F000FB4F80818F708061808388EF93E00E9413
:103400004B0B0E94A71903C001968770C4CFDF91B0
:10341000CF910895A4E1B0E0E0E1FAE10C94EE333D
:103420008C0186E0F801DE011F9601900D928A95CD
:10343000E1F7F8018481E58098EF892E93E0992ED9
:103440009091FC03911120C0882309F463C1EE2000
:1034500009F442C0C8010E943031F82E8823E1F1FE
:1034600087E0F801D40101900D928A95E1F78091EF
:10347000FC03813031F48091F8039091F9030E94AC
:103480009B300E94B11948C1F801D080C180A28050
:10349000B380F090FD032091FA033091FB03FF20ED
:1034A00009F4E7C0A501421B530B483C510508F045
:1034B0009DC0882309F430C18091FE03282F207F0E
:1034C0009091F903222361F09C1509F460C0C801B2
:1034D0000E943031811163C0C8010E944B0B1AC198
:1034E0009C1113C09091F8039D110FC0E1100DC005
:1034F0008F7080618093FE0388EF93E00E944B0BF6
:103500008091FE03F801868303C1E1103AC040E0D8
:103510006C2D8D2D0E94BE1740E06C2D8D2D0E94CC
:10352000BE17E82E8111F4C0DF86C88A8F8598897E
:103530000E949B30292F22952F70243020F49F70F9
:10354000223028F009C02A50223080F014C099237C
:1035500049F0811107C013C0992321F0F801968129
:10356000907F69F0805E883030F409C0803F38F089
:10357000815F833020F0C8010E944B0BEF2CFE2CA2
:10358000CBC08091FE0381608093FE03C1C0909107
:10359000F8039D119CCFE1109ACFF80198C0EE205E
:1035A00009F49ACF2091FE03822F82958F7090E0CC
:1035B00002978CF08091F8039091F903998788879E
:1035C000BB86AA868091FC038C871D862E87CE0140
:1035D00008960E944B0B87E0F801A8EFB3E001903A
:1035E0000D928A95E1F70E94B11994C09091FE0363
:1035F000292F207F51F488EF93E00E944B0B87E046
:10360000F40111928A95E9F783C0882309F484C0F4
:103610008091F9038C110CC08091F8038D1108C0C2
:10362000E11006C0F8019683C8010E944B0B6AC0E6
:10363000C8010E943031882309F44ECFEE2009F4EE
:103640004BCF2091FE03822F82958F7090E00297DE
:1036500014F28091F8039091F9039A838983BC82D4
:10366000AB828091FC038D831E822F83CE01019655
:10367000B0CFA21AB30AF8ECAF16B10408F042C0FA
:10368000882309F447C0FE2CEE2009F425CF809151
:10369000F9038C1129C08091F8038D1125C09091F8
:1036A000FE0390FD18C0892F82958F70282F30E07F
:1036B0002115310581F0F80196832F30310541F055
:1036C0008F5F982F9295907F86818F70892B86834C
:1036D000C8010E944B0B87E0F801A8EFB3E001900E
:1036E0000D928A95E1F718C0C8010E94303181110E
:1036F00072CF8091FE0381608093FE03C8010E9417
:103700004B0B0AC087E0F40111928A95E9F704C0D7
:10371000F12C02C0FF24F3948F2D6496ECE00C94FE
:103720000A349091CB0221E030E0F90101C0EE0FA4
:103730008A95EAF7D90102C0AA0FBB1F6A95E2F782
:10374000BD016E2B01C0220F4A95EAF7892F86230F
:10375000681303C0892F822B03C02095822F8923F1
:103760000E9411310895A6E0B0E0E9EBFBE10C9472
:10377000F6330E94F3288C018091650490916604D1
:103780000817190781F019821A820E94F328682FFE
:1037900049815A81792F80E090E00E94583210933D
:1037A0006604009365042696E4E00C941234AAE0C3
:1037B000B0E0EDEDFBE10C94EE33AE014F5F5F4FF7
:1037C0007A018AE0DA011D928A95E9F708E211E0B0
:1037D000CC24C394D12CAA24A394B12C4E01BBE0D9
:1037E0008B0E911CF80180818F3F09F44AC0F89438
:1037F000E82FE295EF70F0E021A18F70A50102C0E3
:10380000440F551F8A95E2F7CA01922F982B91A376
:1038100092A18095892382A3789400C066E371E029
:10382000F701A60140955095DB012D91BD012F3F79
:10383000A9F0822F82958F7090E0DC0190968C9198
:1038400090E02F7002C0959587952A95E2F780FD4C
:1038500005C0808191818C299D2904C0808191813E
:10386000842395239183808332968E169F06E1F6FA
:10387000F80180818F3F11F00E94DE17F0EAFA957F
:10388000F1F7CC0CDD1C0F5F1F4F41E0063314072E
:1038900009F0A8CF4AE050E0B70180EC92E00E9426
:1038A000CD35892B91F08AE0F701A0ECB2E00190D0
:1038B0000D928A95E1F781E0809369040E94F328D4
:1038C00090936804809367040CC0809169048823F6
:1038D00041F080916704909168040E94D828059770
:1038E00010F480E018C04AE050E060EC72E089ED2E
:1038F00092E00E94CD35892B59F08AE0E0ECF2E0AD
:10390000A9EDB2E001900D928A95E1F781E001C046
:1039100080E0109269042A96ECE00C940A34A0E04E
:10392000B0E0E5E9FCE10C94F3338C0180911101E6
:103930000E94662DEC01609188046695669521E0F1
:10394000620F08F46FEF80918004909181040E94CF
:103950009325D82ECD17F0F4EC2EF12CF701E75B70
:10396000FD4F908180911201892391F0609185042F
:1039700070918604809187042D2D4C2FF8010995B4
:103980000E948F2E462F282F672FC7010E94DC240C
:10399000CF5FE0CF81E0D03408F080E0CDB7DEB774
:1039A000E7E00C940F34A0E0B0E0E9EDFCE10C940A
:1039B000EF336C01809111010E94662D192FC82FE1
:1039C0006091880466956695809180049091810449
:1039D0000E949325D82F80E48D0F0E94DF2490E869
:1039E000F92EF80E8D2F0E94DF2420E8922E980EDB
:1039F000C11700F5AC2EB12CF501E75BFD4F9081AE
:103A0000809112018923A1F0609185047091860450
:103A100080918704ED2E0C2F292D4F2DF60109954D
:103A20000E948F2E462F282F672FC5010E94DC246D
:103A3000CF5FDECF81E0103408F080E0CDB7DEB795
:103A4000EBE00C940B34A0E0B0E0E9E2FDE10C9473
:103A5000ED335C01809111010E94662DF92E182F23
:103A600060918804669580918004909181040E9401
:103A70009325782E1F1508F043C0812E912CF40158
:103A8000E75BFD4F9081809112018923B9F1F40128
:103A9000EE0FFF1FE753FE4FC081D0E0C057D109A2
:103AA000F401EE0FFF1FE653FE4FC080D12C80E2E1
:103AB000C81AD108CC9F9001CD9F300D300D112434
:103AC000CC9CC001CD9C900D900D1124820F931FB2
:103AD0000E943925082F6091850470918604809199
:103AE0008704E72C9601AE01F50109950E948F2EFF
:103AF000462F282F672FC4010E94DC241F5FBACFF6
:103B000081E0FFE3FF1508F480E0CDB7DEB7EDE01C
:103B10000C940934A0E0B0E0E0E9FDE10C94F2334C
:103B20007C01809111010E94662DD92E182F609181
:103B30008804669580918004909181040E94932569
:103B4000C82E1D1578F5C12FD0E0FE01E75BFD4FB3
:103B5000908180911201892319F1FE01EE0FFF1F60
:103B6000E653FE4F208130E020523109FE01EE0F76
:103B7000FF1FE753FE4F408150E0405751096091CD
:103B8000850470918604809187040C2DF7010995B6
:103B90000E948F2E462F282F672FCE010E94DC24F3
:103BA0001F5FCFCF81E0FFE3FD1508F480E0CDB7C4
:103BB000DEB7E8E00C940E3440E250E0BC0182E055
:103BC0000E942E280895AAE2B0E0E9EEFDE10C94EF
:103BD000F733E8E7F4E080E894E02091F1002193E6
:103BE0008E179F07D1F780917904833009F463C061
:103BF00030F4813071F0823009F49DC0B4C08A3055
:103C000009F489C08B3009F46EC0893009F0ABC06B
:103C100020C080917804813A09F0A5C08091E80025
:103C2000877F8093E80080917C0490917D04892BAC
:103C300021F468E08CE694E003C060E080E090E06E
:103C400070E00E94D0278091E8008B778093E80095
:103C50008AC080917804813209F085C080917C040B
:103C600090917D04009719F0029709F07CC0809133
:103C7000E800877F8093E8008091E80082FD05C01E
:103C8000809176048111F8CF6EC02091F30080916D
:103C9000F20090E0922B029731F48091F100813094
:103CA00011F0863021F48091F10080936B048091B3
:103CB000E8008B7754C080917804813A09F053C0B2
:103CC00080917C0490917D04892B09F04CC08091F7
:103CD000E800877F8093E8008091E80080FFFCCFB8
:103CE0008091100137C0809178048132E1F5809194
:103CF0007C0490917D04892BB1F58091E800877F49
:103D00008093E8000E944A2680917A0480931001F3
:103D10000E94533128C080917804813221F580912E
:103D2000E800877F8093E8000E944A2680917B0408
:103D300080936A0418C080917804813AA1F480913C
:103D4000E800877F8093E8008091E80080FFFCCF47
:103D500080916A048093F1008091E8008E778093CF
:103D6000E8000E944A268091E80083FFDFC180912D
:103D7000780490917904492F50E04A30510508F0B9
:103D8000D5C1FA01E351FF4F0C946D35803821F015
:103D9000823809F0CBC108C08091740490917504F9
:103DA000992389F082600FC080917C048F708730E6
:103DB00008F0BCC18093E9008091EB0085FB882767
:103DC00080F91092E9009091E800977F9093E800C5
:103DD0008093F1001092F10070C1282F2D7F09F01F
:103DE000A5C1882319F0823061F0A0C180917A04C6
:103DF000813009F09BC1933009F080E08093750415
:103E00002EC080917A0481112AC080917C048F7029
:103E10002FEF280F263008F089C18093E900209108
:103E2000EB0020FF1CC0933021F48091EB008062F6
:103E300014C09091EB0090619093EB0021E030E092
:103E4000A90102C0440F551F8A95E2F74093EA008A
:103E50001092EA008091EB0088608093EB00109252
:103E6000E9008091E800877F8093E8000E944A265D
:103E70005DC181115BC110917A041F778091E300CD
:103E80008078812B8093E3008091E800877F809386
:103E9000E8000E944A268091E80080FFFCCF8091D4
:103EA000E30080688093E300111102C082E001C04A
:103EB00083E0809376043AC18058823008F036C19E
:103EC00020917A0430917B042C3D53E0350779F53D
:103ED00083E08A838AE289834FB7F894DE011396E0
:103EE00020E03EE051E2E32FF0E050935700E491F0
:103EF00020FF03C0E295EF703F5FEF708E2F90E0E0
:103F0000EA3010F0C79601C0C0968D939D932F5F45
:103F1000243149F74FBF8091E800877F8093E80004
:103F20006AE270E0CE0101960E94D027B4C0809171
:103F30007C0490917D04432F552743305105A9F00F
:103F400068F44130510509F400C14230510509F0CF
:103F5000EDC08BE590E0E6E8F3E04BC0413251055F
:103F600029F14232510589F1E1C0C9019927813017
:103F70009105A1F058F0029709F0D8C0E3EFF3E003
:103F8000E4918E2F90E0E3EFF3E030C0E3E2F4E061
:103F9000E4918E2F90E0E3E2F4E028C0E7E0F4E063
:103FA000E4918E2F90E0E7E0F4E020C083309105AB
:103FB00008F0BCC0880F991FFC01E358FE4F019028
:103FC000F081E02D89E090E014C08330910508F085
:103FD000ADC0FC01EE0FFF1FE958FE4F0190F081CC
:103FE000E02DDC01AC58BE4F8C9190E0009709F4B5
:103FF0009DC02091E800277F2093E80020917E0457
:1040000030917F042817390708F4C90140E0009770
:1040100089F120917604222309F43DC02530D9F19D
:104020002091E80023FD37C02091E80022FD2FC039
:104030002091E80020FFEBCF4091F3002091F200A7
:1040400030E0342B009759F02830310540F444918A
:104050004093F100319601972F5F3F4FF3CF41E03E
:104060002830310509F040E02091E8002E772093B8
:10407000E800CDCF4111CDCF0AC0809176048823CE
:1040800051F0853041F08091E80083FD04C08091BB
:10409000E80082FFF2CF8091E8008B778093E80000
:1040A00045C0803809F042C08091E800877F809346
:1040B000E800809177048093F1008091E8008E778A
:1040C000D3CE811133C080917A0490917B049927DB
:1040D000029764F58091E800877F8093E800109153
:1040E0007A04109377040E944A26111106C0809129
:1040F000E30087FD02C081E001C084E08093760484
:1041000042E061EC81E00E94692642E261EC84E0D9
:104110000E94692642E261EC82E00E94692642E246
:1041200060EC83E00E946926809176048091E8002B
:1041300083FF10C08091E800877F8093E800809122
:10414000EB0080628093EB0005C082E190E0E1EE3D
:10415000F3E04FCFAA96E3E00C941334E42FF0E0A1
:10416000EE0FFF1FE753FE4F9081921B97FD919535
:10417000292F38E1239F212D1124620F08950F93D9
:104180001F9310E0F801EE0FFF1FE753FE4F9081E1
:10419000905797FD9195000F111FF801E653FE4FC0
:1041A000E081F0E0B097DF01AA0FBB1F8D010E0F79
:1041B0001F1F2003D001219FB00D1124E8E3F0E080
:1041C000E91BF10997FDF3959F01220F331F890128
:1041D0000E0F1F1F40039001419F300D11242A0F25
:1041E0003B1F37FF02C021583F4F220F232F221FB2
:1041F000330B620F1F910F9108950F931F93522F4E
:1042000010E0F801EE0FFF1FE653FE4FE081F0E0F3
:10421000B097EE0FFF1F9F015203D001539FB00DC7
:104220001124000F111FF801E753FE4F008110E029
:1042300000571109000F111F40039001419F300DDD
:1042400011242A0F3B1F37FF02C021583F4F220F76
:10425000232F221F330B620F1F910F9108950F938D
:104260001F93522F10E0F801EE0FFF1FE653FE4F91
:10427000E081F0E0B0979F015203D001539FB00D51
:104280001124000F111FF801E753FE4F008110E0C9
:104290000057110940039001419F300D11242A0F4E
:1042A0003B1F37FF02C021583F4F220F232F221FF1
:1042B000330B620F1F910F910895EF920F931F938D
:1042C00093E0099F80011124159507956E2D600FCD
:1042D0001F910F91EF900895A22F50E0FA01EE0F79
:1042E000FF1FE653FE4F9081905297FD9195440F2A
:1042F000551FFA01E753FE4F3081232F30E02A1B70
:104300003109290F311D97FD3A95620F0895E42F69
:10431000F0E0EE0FFF1FE653FE4F6081621B089531
:10432000E42FF0E0EE0FFF1FE753FE4F6081621BAA
:104330000895622F0895E42FF0E0EE0FFF1FE7537A
:10434000FE4F408134EE439F412D1124E72FF0E0D2
:1043500050E0445E5F4FDA01A21BB1099D01B7FF37
:1043600003C031952195310993E0220F331F9A95AF
:10437000E1F7AF01421B530B9A0157FF02C020E047
:1043800030E0279F212D1124722F0895FC019B01FD
:10439000009721F477FF2BC080E80895AC0197FFC8
:1043A00004C044275527481B590BB901640F751FDA
:1043B00037FD0CC0241B350BC901A5E0880F991FE0
:1043C000AA95E1F70E94593580E20CC0CB0165E067
:1043D000880F991F6A95E1F7BA01621B730B0E945F
:1043E000593580E6861BF7FF03C08195089580E06C
:1043F0000895EF920F93CF93DF93D72FC82FC90162
:104400000E19BA010E94C621602F681B7D2F8C2FC8
:10441000DF91CF910F91EF9008950F93CF93DF939A
:10442000D72FC82FC901BA010E94C621682F600F7B
:104430007D2F8C2FDF91CF910F910895EF920F93E5
:104440001F93CF93DF93D62F172FC82FC9010E19B3
:10445000070FBA010E94C621702F781B719F712D22
:1044600011246D2F8C2FDF91CF911F910F91EF9021
:104470000895FF920F931F93CF93DF93F62E172F7C
:10448000D82FC901C72FC01BBA010E94C621982F7F
:10449000990F890F7C2F781B719F712D11246F2D1F
:1044A0008D2FCDB7DEB7E5E00C9411340895EF926F
:1044B000FF920F931F93CF93DF938C01CFE8D4E04B
:1044C000E12CF12CF8018481F9E0EF16F1041CF4E1
:1044D000882339F002C0811104C09E014091A106D9
:1044E00002C09E0140E06091A00680919F060E945C
:1044F000192F8FEFE81AF80A239692E1E916F104D2
:1045000009F70E94F32DF801848190E001968170F3
:1045100099278483CDB7DEB7E6E00C941034A0E091
:10452000B0E0E5E9F2E20C94EE33EC014C81042FAB
:1045300010E09801D8010E9430359B01AC010E9427
:10454000FB346B017C01E0E2F0E0E01BF10BA5E540
:10455000B0E09B01AC010E94FB344B015C019F0168
:10456000DF010E947A359B01AC010E9406359B0158
:10457000AC012C0D3D1D4E1D5F1DC501B4010E94F7
:104580000E35822FF22E99E2921728F093E0299FA0
:10459000900111240DC025E530E0281B3109C90127
:1045A000880F991F280F391F37FF02C02F5F3F4F19
:1045B00035952795122F10959FE8C92E94E0D92E96
:1045C00000E085E5E82EEF1801FD02C08E2D01C048
:1045D0008F2D9601412F6091A0060E94192F0F5F29
:1045E00083E0C80ED11C023179F70E94F32D8C8133
:1045F000811102C091E003C0803219F49FEF9093C3
:10460000160190911601890F8C83CDB7DEB7ECE0CF
:104610000C940A340F931F93CF93DF93CFE8D4E029
:10462000FE01118210821282339684E0E53CF80785
:10463000C1F700E010E080918D04082E000C990B6A
:104640000817190794F080911501082E000C990B9A
:104650008017910754F09E014091A1066091A00639
:1046600080919F060E94192F03C0198218821A8216
:104670000F5F1F4F239602311105E9F60E94F32DBB
:104680008091140190918D04980F90938D04209146
:104690001501280F20931501121614F491311CF006
:1046A000819580931401DF91CF911F910F9108950F
:1046B000A0E0B0E0EEE5F3E20C94F133FC0182817E
:1046C00080FF03C0DD24DA9402C0DD24D3940FE818
:1046D00014E0C0E0D0E022E1B22EF8011182108295
:1046E000128294E0E92EF12CC12C80918C048C0D67
:1046F00083312CF06B2D0E944B35892F02C087FD32
:104700008E5E082E000C990BC817D90791F4809182
:10471000A1068E9DA0018F9D500D112455954795A2
:104720005595479598016091A00680919F060E943B
:10473000192FCD0CF1E0EF1AF108B9F621960D5FB3
:104740001F4FC231D10549F60E94F32D80918C0490
:1047500091E0D91206C0811102C081E107C08150E9
:1047600005C090E00196BE010E94593580938C04EB
:10477000CDB7DEB7E9E00C940D34EF92FF921F93B2
:10478000CF93DF93EC018FE8E82E84E0F82E10E061
:104790008C8197014091A1066091A006810F0E9433
:1047A000192F125F83E0E80EF11C1C3F89F70E946D
:1047B000F32D9A818C8190FF02C08F5F01C08150E0
:1047C0008C83DF91CF911F91FF90EF900895A0E02F
:1047D000B0E0EDEEF3E20C94ED33FC0182807480E6
:1047E00081E08483E7E2F4E09490E6EAF4E0E49187
:1047F0000091A1060695015810E0000F111F012F2E
:104800001127C5ECD4E02FE8C22E24E0D22EAA2432
:10481000AA94B12CE919EE2EF12C22E0281530F0E3
:1048200080919F0688838091A0068983711003C0C0
:104830001B821A824AC08B818823F9F081508B83B6
:104840002FEF829FC00111246C8170E00E94D4334D
:10485000FB01FF27E95DFB4F8491E82FE9192FEF5A
:10486000E29FC0011124B7010E94D4338091A106B8
:10487000689FB00111247A8328C00E946B34B5016F
:104880000E9459358017910704F582E0881588F455
:104890000E946B34B5010E94593588830E946B34A5
:1048A0002091A0062695622F70E00E945935280FAE
:1048B00029831A828091A106843120F0893C18F066
:1048C00088EC01C084E18C838B8396014A816981E5
:1048D00088810E94192F259623E0C20ED11C85E005
:1048E000CF31D80709F099CF0E94F32DCDB7DEB7AD
:1048F000EDE00C940934A3E0B0E0E1E8F4E20C94BC
:10490000F6338C0180918E0481110AC09E012F5FC5
:104910003F4F40E86FEF0E94192F8A8180938E04E9
:10492000F8018481813051F028F0823061F44091A7
:104930008E040AC080918E0440E007C060918E040E
:1049400040E080E003C040E080E060E00E94092E8B
:10495000F801848190E0019663E070E00E9459358F
:1049600084832396E4E00C941234CF93DF93EC011C
:10497000EEE9F6E0438162818C810E94F12F8C8107
:104980008F5F8C83DF91CF910895CF93DF93EC01FC
:10499000EC81F0E0E95DFB4F4491EEE9F6E06281E5
:1049A00081810E94F12F8C818F5F8C83DF91CF9169
:1049B00008950E94C52A08950E946E2A0895482FDE
:1049C000982F46FD9095E92FEF739F7046FD9F5FEE
:1049D000E295EF70EE0FF0E0E757FD4F2181299F40
:1049E000802D212D112482958F702295207F822B7E
:1049F0003081982F930F892F47FD81958058089516
:104A00000F931F93CF93DF93D62F072F182FC42F09
:104A1000822F0E94DF24EC2FF0E0EE0FFF1FE75300
:104A2000FE4F90819058890F87FD8195880F682FE0
:104A30002CE0629F612D11246D0F702F812FDF916B
:104A4000CF911F910F910895409117015091180136
:104A500025E038E0429FC001439F900D529F900D8A
:104A60001124875E994C9093180180931701890F48
:104A70000895BC018230910508F40895613E8EE1ED
:104A8000780748F49B0195E0369527959A95E1F7CC
:104A900048E0420F01C04FEF91E0242F30E0290F92
:104AA000311D35952795229FF001239FF00DF00DC4
:104AB00011246E177F0718F44FEF420F04C02F3FE9
:104AC00039F091E0920F491740F78FEF890F089561
:104AD0008FEF08950F93CF93DF93D72FC82F47FD04
:104AE0004195E8E3F0E0CF01841B910947FD9395E0
:104AF000889FB001899F700D700D1124229FC00105
:104B0000239F900D900D1124860F971F0E94392529
:104B1000682F660F860F682F600F7D2F8C2FDF9117
:104B2000CF910F91089520E030E0869F212D969F30
:104B3000200D311D1124C90108952091880430E110
:104B4000230F08F42FEF60E1822F90E00E9493255D
:104B5000BC0188EB9BE00E94D43380E090E0089594
:104B6000089580916B0408951F920F920FB60F92D3
:104B700011242F933F934F935F936F937F938F9362
:104B80009F93AF93BF93CF93DF93EF93FF93C09126
:104B9000E900CF708091EC00D82FD17080FDD0E873
:104BA0001092E9008091F000877F8093F000789464
:104BB0000E94E31D1092E9008091F00088608093CC
:104BC000F000CD2BCF70C093E900FF91EF91DF9102
:104BD000CF91BF91AF919F918F917F916F915F9195
:104BE0004F913F912F910F900FBE0F901F901895EE
:104BF000E8EDF0E080818E7F80831092E2001092D9
:104C0000DA001092E100A0EEB0E08C9181608C930C
:104C100080818F77808319BCA7EDB0E08C918E7F67
:104C20008C9380818F7E808310925405089520910B
:104C3000E4003091E50095E64091EC00842F81700E
:104C400040FF23C08091E80080FD1DC08091760464
:104C5000882399F0853099F08091EB0085FD11C093
:104C60004091E4005091E5002417350729F3915055
:104C700011F09A01E1CF84E0089582E0089583E085
:104C8000089581E0089580E008954091E80042FF92
:104C9000DDCF08958091780487FF11C08091E800EE
:104CA00082FD05C0809176048111F8CF11C08091FA
:104CB000E8008B770BC080917604882349F08091BF
:104CC000E80080FFF8CF8091E8008E778093E800BD
:104CD0000895982F973068F59093E900981739F068
:104CE0007091EC002091ED005091F00003C0242F52
:104CF000762F50E021FD02C09F5FECCF3091EB009A
:104D00003E7F3093EB003091ED003D7F3093ED001E
:104D10003091EB0031603093EB007093EC00209306
:104D2000ED005093F0002091EE0027FDE5CF80E0EC
:104D300008958F708093E90081E00895A0E0B0E0CD
:104D4000E4EAF6E20C94F233C8EDD0E088818F7E7D
:104D50008883E7EDF0E080818160808384E082BF1A
:104D600081E08093540588818E7F888302EE10E075
:104D7000F80110821092DA0081EEC82ED12CF601D3
:104D8000108288818F778883888180688883888172
:104D90008F7D888319BC109276041092770410924C
:104DA00075041092740490EEE92EF12CF7018081C5
:104DB0008B7F808388818160888342E060E080E02F
:104DC0000E946926F60180818E7F8083F8018081B0
:104DD00081608083808188608083F70180818E7FFD
:104DE0008083888180618883CDB7DEB7E8E00C944A
:104DF0000E341F920F920FB60F9211242F933F93F0
:104E00004F935F936F937F938F939F93AF93BF93D2
:104E1000EF93FF938091E10082FF09C08091E2004F
:104E200082FF05C08091E1008B7F8093E10080913B
:104E3000DA0080FF2AC08091D80080FF26C08091D0
:104E4000DA008E7F8093DA008091D90080FF18C04D
:104E500080E189BD82E189BD09B400FEFDCF81E01A
:104E6000809376048091540581110FC00E94F8252B
:104E70000E949E268091E20084608093E20005C03B
:104E800019BC10927604109254058091E10080FFC5
:104E900017C08091E20080FF13C08091E2008E7FF6
:104EA0008093E2008091E20080618093E200809133
:104EB000D80080628093D80019BC85E08093760486
:104EC0008091E10084FF30C08091E20084FF2CC01B
:104ED00080E189BD82E189BD09B400FEFDCF8091EA
:104EE000D8008F7D8093D8008091E1008F7E8093E1
:104EF000E1008091E2008F7E8093E2008091E200E9
:104F000081608093E20080917704882311F084E02F
:104F100007C08091E30087FD02C081E001C083E00B
:104F200080937604809176048091E10083FF27C00E
:104F30008091E20083FF23C08091E100877F80930E
:104F4000E10082E080937604109277048091E10082
:104F50008E7F8093E1008091E2008E7F8093E2005B
:104F60008091E20080618093E20042E060E080E0B6
:104F70000E9469268091F00088608093F000FF9184
:104F8000EF91BF91AF919F918F917F916F915F91C1
:104F90004F913F912F910F900FBE0F901F9018953A
:104FA00020917E0430917F042617370748F0611561
:104FB000710539F42091E8002E772093E80001C0B4
:104FC000B901FC0120E06115710579F18091760449
:104FD0008823F1F18530F1F18091E80083FD3CC038
:104FE0008091E80082FD2EC08091E80080FFEBCF29
:104FF0002091F3008091F20090E0922B61157105F1
:1050000051F08830910538F421912093F1006150DE
:1050100071090196F3CF21E0089709F020E0809113
:10502000E8008E778093E800CECF2111CFCF0AC061
:1050300080917604882361F0853061F08091E800EA
:1050400083FD0AC08091E80082FFF2CF80E00895DE
:1050500082E0089583E0089581E008950F931F93FF
:10506000CF93DF938B01EA0190917604943079F528
:105070008F708093E9008FEF9091E800815095FD4B
:1050800006C095ED9A95F1F700008111F5CF80915A
:10509000E80085FF1CC00E941726882361F08091DC
:1050A000E8008E778093E80012C0F80181918F01AB
:1050B0008093F1002197209791F38091E80085FD7E
:1050C000F4CF8091E8008E778093E800E4CFDF9101
:1050D000CF911F910F91089543E050E0BC0184E00F
:1050E0000E942E28089540E250E0BC0184E00E9416
:1050F0002E280895CF93DF93EC0148E050E0BC01E7
:1051000081E00E942E2888E0FE01ACE6B4E0019028
:105110000D928A95E1F7DF91CF91089581E0809318
:10512000E00080E28093D8001092C9008FE19EE4F5
:105130000197F1F700C0000087E090EBDC0180935D
:10514000CC069093CD06A093CE06B093CF069CE0FC
:1051500088E10FB6F894A895809360000FBE9093F5
:105160006000FFCF78941F920F920FB60F92112418
:105170008F939F93AF93BF9380915005909151056A
:10518000A0915205B09153050196A11DB11D8093C8
:10519000500590935105A0935205B0935305BF91CC
:1051A000AF919F918F910F900FBE0F901F90189508
:1051B0009C014FB7F8948091500590915105A091B2
:1051C0005205B09153054FBF821B930B08952FB723
:1051D000F89460915005709151058091520590911D
:1051E00053052FBF08952FB7F894809150059091E3
:1051F0005105A0915205B09153052FBF08951F92FC
:105200000F920FB60F9211248F939F93AF93BF937A
:1052100080914F05811113C08091500590915105E7
:10522000A0915205B09153054196A11DB11D8093E7
:10523000500590935105A0935205B0935305BF912B
:10524000AF919F918F910F900FBE0F901F90189567
:1052500090911001992321F090914D0597FD03C085
:10526000EFE1F5E01DC0E82FE695E695E695EE3115
:10527000E0F4F0E0E95DFA4F877021E030E0A90149
:1052800002C0440F551F8A95E2F7CA0180959281AA
:10529000892382830895319655E0E532F50729F098
:1052A00092818913F8CF1282F6CF08959091100160
:1052B0009923D1F090914D0597FF16C0E82FE69500
:1052C000E695E695EE3140F5F0E0E95DFA4F87703E
:1052D00021E030E0A90102C0440F551F8A95E2F792
:1052E000CA019281892B16C0A1E2B5E0EFEF90E0F0
:1052F0002D91821789F0EF3F19F4211101C0E92F98
:105300009F5F9630A9F7EF3F39F00E2E000CFF0B90
:10531000E15EFA4F828308950895A3E0B0E0E3E9E7
:10532000F9E20C94F83320914B0530914C05281785
:105330003907A1F090934C0580934B05E091490506
:10534000F0914A05309751F024E029839B838A83AA
:105350000084F185E02DCE01019609952396E2E0C7
:105360000C941434A3E0B0E0E8EBF9E20C94F833C9
:10537000209147053091480528173907A1F09093EF
:10538000480580934705E0914905F0914A0530971B
:1053900051F023E029839B838A830084F185E02DEB
:1053A000CE01019609952396E2E00C941434E09125
:1053B0004905F0914A05309729F00190F081E02DE0
:1053C0000995089580E0089587E290E00E94B8343E
:1053D0000895579A08952BB12F773BB130684FB796
:1053E000F894FC01CB01880F991F680F791F6E0F8D
:1053F0007F1FE617F70789F0819198E03BB900001D
:1054000000C087FF2BB9880F000000C000C000C09B
:105410002BB900C09A9591F7ECCF4FBF8FE594E080
:105420000197F1F700C000000895A0E0B0E0EBE1C3
:10543000FAE20C94F03386EEC82E85E0D82E91E97E
:10544000A92E92E0B92EE12CF12CF601808188235F
:10545000C1F0C0E0D0E0A7014C0F5D1F4A5A5A4F7F
:105460006C2F6C5DF501808104E610E020E130E0F6
:10547000880F0E9486336096C039D10561F7F60126
:105480001082F4EACF0ED11C84EAE80EF11CEFEF93
:10549000AE1ABE0AF8E4EF16F1E0FF06B1F6CDB79A
:1054A000DEB7EAE00C940C34A1E0B0E0EAE5FAE201
:1054B0000C94F6334983E82FF0E0EF56FD4F8081DE
:1054C00004E610E021E030E0AE014F5F5F4F880F4F
:1054D0000E9486332196E4E00C941234A4E0B0E0FC
:1054E000E4E7FAE20C94F5338034910508F049C002
:1054F000122F042FF62EBC01660F771F660F771F41
:10550000695D7A4F44E050E0CE0101960E947B3401
:10551000898183702A8130E0682F70E044EA849F9B
:10552000C00111248A5A9A4FFC01E20FF31FE08157
:105530005B814C81EF110CC0FC01E50FF11DE08196
:10554000E01306C0FC01E40FF11D80818117C9F052
:10555000E4EAE69FC001E79F900D11248A5A9A4F12
:10556000FC01E20FF31FF082FC01E50FF11D008347
:10557000FC01E40FF11D1083FC01E057FF4F21E017
:1055800020832496E5E00C941134FF920F931F932F
:10559000CF93DF93182F062FF42EC0E0D0E02F2DED
:1055A000402F612FCE010E946E2A2196C034D10572
:1055B000B1F7CDB7DEB7E5E00C941134A4E0B0E06C
:1055C000E4EEFAE20C94F0330E94513310E04BE029
:1055D0006DEF812F0E94542A40E06AE0812F0E94E3
:1055E000542A8FE39CE90197F1F700C0000040E0E6
:1055F00060E0812F0E94542A40E061E0812F0E94E8
:10560000542A40E066E0812F0E94542A40E06DEF6A
:10561000812F0E94542A00E040E0602F812F0E94D9
:10562000542A0F5F0231C1F740E0602F812F0E94A2
:10563000542A0F5F0432C1F740E0602F812F0E948F
:10564000542A0F5F043BC1F74BE06DEF812F0E949E
:10565000542A41E06AE0812F0E94542A40E06DEF15
:10566000812F0E94542A1F5F123009F0B0CF07E249
:1056700015E097E2C92E96E0D92E24EAA22EEE2458
:10568000E394F12CBB24B39444E050E0B801CE0184
:1056900001960E947B344A813B812C8189818370F1
:1056A000542F569556955695A89EC00111248A5A96
:1056B0009A4FFC01E50FF11DEF56FF4F4770B70100
:1056C00002C0660F771F4A95E2F7AB015081452B68
:1056D0004083432F469546954695FC01E40FF11D06
:1056E000EF56FF4F3770A70101C0440F3A95EAF714
:1056F0003081432B4083322F369536953695FC0109
:10570000E30FF11DEF56FF4F2770A70102C0440FB2
:10571000551F2A95E2F79A013081232B2083FC0143
:10572000ED55FF4FB0820C5F1F4FC016D10609F038
:10573000ABCF86E5C82E85E0D82EF12C560153EA72
:10574000A50EB11CF5018081882399F000E010E0DE
:10575000F801EF56FF4FEC0DFD1D4081602F8F2D9E
:105760000E94542A0F5F1F4F0231110589F7F5017E
:105770001082F394F4EACF0ED11C42E0F412DECF93
:105780002496EAE00C940C34CF93C82F811102C008
:105790006FEF01C064E284E290E00E94B834C1116E
:1057A00002C06FEF01C068E085E290E00E94B8346B
:1057B000C11102C06FEF01C067E286E290E00E9473
:1057C000B834CF91089584E290E00E9494348432FA
:1057D00081F485E290E00E949434883051F486E2AE
:1057E00090E00E94943491E0873209F090E0892F94
:1057F00001C080E081700895CF93DF93C8E5D2E0C7
:1058000060E0CE010E94B8342196C11584E0D8072B
:10581000B9F7DF91CF9108951F93CF93DF93962F20
:105820008430E8F46530D8F44E30C8F4632F122F7A
:10583000C42FD0E0CC0FDD1F2CE1929FC00DD11DF5
:1058400011249CE8899FC00DD11D1124CE0188969A
:105850000E94B834612FCE0189960E94B834DF913E
:10586000CF911F910895A0E0B0E0E9E3FCE20C9431
:10587000F033A12CE12CF12CB12C00E010E0C0E0C1
:10588000D0E06701C00ED11EFE01EE0FFF1FEC0D30
:10589000FD1DE95DF94F259134914C2F6B2D8A2D1B
:1058A0000E940C2C2196CE30D10571F7045E1F4F5B
:1058B000B39485E0B812E3CF8CE8E80EF11CA39412
:1058C00084E0A812D9CFCDB7DEB7EAE00C940C344F
:1058D00080E00E94C42B60E070E0CB010E94E429CC
:1058E0000E94332C0E94FC2B81E00E94C42B08955F
:1058F0000F931F93CF93DF93843008F56530F8F44E
:105900004E30E8F4C42FD0E0CC0FDD1F2CE1629FB5
:10591000C00DD11D11243CE8839FC00DD11D112461
:10592000CE0188960E94943490E0182F0027CE0173
:1059300089960E9494349801282BC90102C080E006
:1059400090E0DF91CF911F910F91089590919E0665
:1059500090FF05C096959695981748F003C0811161
:1059600006C090E0961718F40E946030089561E038
:105970000E9409300895882311F0FA0101C0FB014B
:10598000099508951F93CF93DF93FC01E75BFD4FCB
:1059900020816223B9F0EC010E942425182F0E9477
:1059A000242520E8829FC00111247FE7790F612F11
:1059B000809187040E948F2E462F282F672FCE01BB
:1059C0000E94DC24DF91CF911F910895A0E0B0E008
:1059D000ECEEFCE20C94F333EC01FC01E75BFD4FD1
:1059E0009081692349F1D090860400918704109139
:1059F0008504E12EF12C0E942425282FC7018C5408
:105A00009F4F68E671E00E9459358E199F0997FDF6
:105A1000039695958795959587952370612F289F77
:105A2000600D11247D2D802F0E948F2E462F282F50
:105A3000672FCE010E94DC24CDB7DEB7E7E00C94DF
:105A40000F3490918404937071F080938504609377
:105A500086044B3A08F04AEA409387048091550542
:105A6000282B209355050895909184049370A1F0FC
:105A7000811102C0946007C08D3110F0906703C09F
:105A8000880F880F982B90938404109219018091AD
:105A90005505682B609355050895809184048370A3
:105AA00011F010921901809184048C7F80938404FA
:105AB000089580918404837011F4109219018091EB
:105AC00084048C7F81608093840408959DE0899F85
:105AD000802D1124980F913408F090E408950F93CD
