:1000000068C200009EC200009CC200009AC20000AC
:1000100098C2000096C2000094C2000092C2000084
:1000200090C200008EC200000C94192C0C94012D7B
:100030000C94CE2B86C2000084C2000082C2000055
:1000400080C200007EC200007CC200007AC20000B4
:1000500078C200000C94F52B74C2000072C200003C
:1000600070C200006EC200006CC200006AC20000D4
:1000700068C2000066C2000064C2000062C20000E4
:1000800060C200005EC200005CC200005AC20000F4
:1000900058C2000056C2000054C2000052C2000004
:1000A00050C200004EC200004CC20000050109020F
:1000B000A10185020901A1000509190129081500FE
:1000C0002501950875018102050109300931158165
:1000D000257F95027508810609381581257F9501D0
:1000E00075088106050C0A38021581257F95017572
:1000F000088106C0C005010980A101850319012AF4
:10010000B700150126B700950175108100C0050CD8
:100110000901A101850419012AA002150126A002E6
:10012000950175108100C005010906A1018506052C
:100130000719E029E71500250195087501810205D9
:1001400007190029EF1500250195F07501810205B9
:10015000081901290595057501910295017503910D
:1001600001C00660FF0961A1010962150026FF00B8
:100170009520750881020963150026FF00952075FA
:10018000089102C005010906A101050719E029E748
:1001900015002501950875018102950175088101F9
:1001A0000507190029FF150026FF0095067508812F
:1001B000000508190129051500250195057501910E
:1001C00002950175039101C009025B00030100A0C3
:1001D000FA090400000103010100092111010001D5
:1001E00022440007058103080001090401000203FD
:1001F00000000009211101000122220007058203ED
:100200002000010705030320000109040200010387
:1002100000000009211101000122B6000705840336
:100220002000011201000200000008424B120000F1
:10023000030102000114034B0062006400700061BE
:100240000064006D006B003300000010036B00625F
:10025000006400660061006E007300000004030982
:10026000042900E000E2002A005300540055005623
:10027000005F006000610057005C005D005E0000F0
:100280000059005A005B0058006200000063000043
:100290000001000100010001000100010001000156
:1002A0000001000100010001000100010001000047
:1002B0000001000100010001000100000001000038
:1002C0000001000100010001000100010001000126
:1002D0000001000100010001000100010001000017
:1002E0000001000100010001000100000001000008
:1002F00000010001000100010001000100010001F6
:1003000000010001000100010001000100010000E6
:1003100000010001000100010001000000010000D7
:1003200000000101010101010101010202020202BA
:10033000020202020303030303030303040404048D
:100340000404040505050505060606060607070755
:10035000070708080808090909090A0A0A0B0B0B0C
:100360000C0C0C0D0D0D0E0E0E0F0F0F10101111A9
:10037000111212131314141515161617171818192D
:10038000191A1A1B1B1C1D1D1E1E1F202021222294
:10039000232424252626272829292A2B2C2D2D2ED7
:1003A0002F30313232333435363738393A3B3C3DF1
:1003B0003E3F404142434445464748494A4C4D4EE2
:1003C0004F50515354555658595A5B5D5E5F6162A8
:1003D00064656668696B6C6D6F7072737577787A37
:1003E0007B7D7E8082838587888A8C8E8F91939592
:1003F00096989A9C9EA0A2A3A5A7A9ABADAFB1B3B6
:10040000B5B7BABCBEC0C2C4C6C9CBCDCFD1D4D695
:10041000D8DBDDDFE2E4E7E9EBEEF0F3F5F8FAFD37
:10042000FF000000000000000000000000000000CD
:1004300000000000000000000000000000000000BC
:1004400000000000007E0F00D4FFFFFFC700000087
:100450007800000000000000002A2B2800000000A7
:100460000000000000000000000000002900000063
:10047000002C1E3420212224342627252E362D3709
:1004800038271E1F202122232425263333362E37DA
:10049000381F0405060708090A0B0C0D0E0F101172
:1004A00012131415161718191A1B1C1D2F3130237F
:1004B0002D350405060708090A0B0C0D0E0F101147
:1004C00012131415161718191A1B1C1D2F3130354D
:1004D0004C0011241FBECFEFDAE0DEBFCDBF04B663
:1004E00003FE18C080912E0490912F04A091300437
:1004F000B09131048730904BA740B04B59F4109223
:100500002E0410922F041092300410923104E0E077
:10051000F8E3099524E0AAE0B2E001C01D92AE32F2
:10052000B207E1F712E0A0E0B1E0E6E1FFE502C0CA
:1005300005900D92AA30B107D9F70E94C4250C94FA
:10054000E12E5ECD8093E70308958093E80308953C
:1005500021E030E001C0220F8A95EAF78091E8039C
:10056000822BF3CF21E030E0A90102C0440F551FD8
:100570008A95E2F7CA0180959091E8038923E5CF37
:10058000282F963090F5843080F534E0939FC00199
:100590001124820F911D282F277041E001C0440FC4
:1005A0002A95EAF723E0969587952A95E1F7FC01CD
:1005B000EE0FFF1FE80FF91FE053FC4F20E030E083
:1005C00070E05191DF01CB01022E02C09695879514
:1005D0000A94E2F7817081958527842385278E937D
:1005E0002F5F3F4F2330310561F70895282F963054
:1005F00078F5843068F534E0939FC0011124820FB0
:10060000911D682F677023E0969587952A95E1F7ED
:10061000FC01EE0FFF1FE80FF91FE053FC4F40E015
:1006200050E080E0219130E0062E02C036952795FB
:100630000A94E2F721703327042E01C0220F0A9496
:10064000EAF7822B4F5F5F4F4330510559F708950A
:1006500080E008959091E80321E030E0F90101C0C5
:10066000EE0F8A95EAF7D90102C0AA0FBB1F6A955F
:10067000E2F7EA2B01C0220F4A95EAF7892F8E2371
:10068000E81303C0892F822B60CF2095822F892306
:10069000FBCF8091EE039091ED03981301C0089574
:1006A0008F5F8770FACF9091E903809589238093BB
:1006B000E903282F277021110CC0891751F0909160
:1006C000EB0392FF06C08695869586954BDF1092C8
:1006D000E90308958091E4039091EC03892B5091F4
:1006E000E503511591F090912001913021F4909102
:1006F000EA0397FD0BC096E02EE032E040E0915017
:1007000048F441111092E503852B08959EE126E1FE
:1007100032E0F4CFF90161919F01611581F34F5FE0
:10072000EECF982F90958091E40389238093E40382
:100730000895803E9105D9F1C8F48133910509F4FB
:1007400082C048F48932910509F472C08A32910559
:1007500009F480C0089589339105E9F08238910544
:10076000D1F08533910509F45EC00895843E91056A
:10077000D9F148F4823E910539F1833E910549F162
:1007800081EE90E00895863E9105C9F1873E91057E
:1007900009F43EC008952091EA032370211164C03A
:1007A0002091EB0323FF14C089E290E0089520918B
:1007B000EA0320FD45C03091EB0330FF09C024FD62
:1007C00024C083EE90E008952091EA0322FDF7CF44
:1007D00008952091EA0322FD44C03091EB0330FDDF
:1007E00043C024FFF5CF11C02091EB0321FFF0CFD0
:1007F0008091EA0384FD09C087EE90E0089520917E
:10080000EA0323FFE5CF24FFF7CF80E090E00895CF
:100810002091EA0323FD2BC03091EB0331FFE1CFA0
:1008200084EE90E008952091EA0325FFD1CFBCCF5C
:100830002091EA0325FD1EC02091EB0323FFC8CFC2
:1008400089E390E008952091EA0326FFC1CF8AE270
:1008500090E008952091EA0326FFBACF81E390E06B
:10086000089582EE90E0089580EE90E0089586EE7F
:1008700090E0089585E390E008959091EA0392FF57
:1008800010C041E0282F2471243009F040E031E00D
:10089000282F2871283009F030E0431711F02CE0A0
:1008A000822793FF10C041E0282F2471243109F0E2
:1008B00040E031E0282F2871283109F030E043175B
:1008C00011F02CE082273091EB0330FF10C051E093
:1008D000282F2171213009F050E041E0282F2871A4
:1008E000283009F040E0541711F029E0822731FF49
:1008F00010C041E0282F2171213109F040E031E0A2
:10090000282F2871283109F030E0431711F029E031
:10091000822794FD877E08951F93CF93DF9309DF8D
:10092000EC01811522E5920708F052C0811540E5DF
:10093000940708F0CDC0803E910520F58D3C9105CF
:1009400008F0A1C0883A910570F4853A910508F045
:1009500097C081309105B9F10497813A910598F1DA
:10096000C0E0D0E030C0885A91094B97C8F7C85A08
:10097000D0E0CC0FDD1FC356DE4F0990D881C02DCB
:10098000D46421C0811550E49507B0F4C11580E20C
:10099000D80708F0B3C0C83ED105A8F0CE019A959B
:1009A00081159F41E8F68D2F68DF182FCE0199271A
:1009B000C0DEEC01D12B07C09927BBDECC27DF704E
:1009C000C82BD92BD06ACE01DF91CF911F9108950A
:1009D000803842E59407C8F5803652E5950708F05F
:1009E0005BC0C03482E5D807D0F4C03292E5D907A5
:1009F00008F04BC08C2F8695869520E2829FC0011F
:100A00001124C37021E030E0A90102C0440F551F3A
:100A1000CA95E2F7EA01C82BD92BDD68D4CF8C2F19
:100A200086958695877050E2859FC0011124C3701A
:100A300021E030E0A90102C0440F551FCA95E2F73A
:100A4000EA01C82BD92BDC68BECF803C52E5950764
:100A500058F48F71C03AD245A0F590E0982F8827BE
:100A6000EC01C46FD06AAFCF805C9245809708F0EC
:100A700077CFDC2FCC27CC27DF71C06FD06AA3CF14
:100A8000A497D064A0CFD0659ECFCF71D0E0DC2FEB
:100A9000CC27C16FD06A97CF86958695877020E264
:100AA000829FC0011124C37021E030E0A90102C07F
:100AB000440F551FCA95E2F7EA01C82BD92BDA6813
:100AC00082CFDBDEC82FD0E0DC2FCC27D0627BCFFB
:100AD0008F71D3DE93E0CC0FDD1F9A95E1F7CC2721
:100AE000DF70282F30E084FF05C050E1859F900122
:100AF00011243327C22BD32BD06965CF8D2F8F7153
:100B0000BCDE182FCE01992714DEEC01D12BDECFED
:100B100080E00895F894E82FE295EF70F0E041A1AD
:100B20008F7021E030E0B90102C0660F771F8A950F
:100B3000E2F7CB01962F9095942391A392A1892B54
:100B400082A378940895CF92DF92EF92FF921F9341
:100B5000CF93DF93172FE82FF0E0EF5DFC4F71117B
:100B60000CC0E4918E2F7E2F6E2FDF91CF911F91BD
:100B7000FF90EF90DF90CF900895E62EF12CC72ED6
:100B8000D12CF491EF2F86E0689F90011124CFEFD4
:100B9000D0E0C901BE010E944C2DAB01EE0CFF1C40
:100BA00065E5649FC001659F900D1124E81AF90A5C
:100BB0006E2D660F6E0D7E01EC18FD08FE9DD001B6
:100BC000FF9DB00D11248B2F169F70011124EF2C67
:100BD000FF246E01CE18DF087601FE9D6001FF9DA7
:100BE000D00C11247E01E61AF108B701169F70019E
:100BF000179FF00C1124EF2CFF24CE19DF09FC9F66
:100C00007001FD9FF00C11247F2D43305105C1F080
:100C10002C3F334058F441305105B1F0423051057A
:100C200009F0A2CFEB2F8F2D7F2F9ECF443051059F
:100C300071F04630510509F497CF7B2F8D2D94CF5D
:100C40007D2DEB2F8F2F90CF7F2FED2D8DCFEF2D83
:100C50007B2FF8CF282F269F020E20E0211D112484
:100C6000822F08959C0180E090E0269F020E811D56
:100C7000369F800D911D1124830F911D08959C01B5
:100C80008230910508F408959FEF213E8EE13807E8
:100C900040F4C90145E0969587954A95E1F798E0BB
:100CA000980F61E0E62FE90FFF27FF1FAF01559571
:100CB0004795842F449FF001459FF00DF00D1124BE
:100CC0002E173F0738F49FEF940F961758F78FEFC2
:100CD000860F08954F3FE9F361E0640FF6CF40912E
:100CE0000D0150910E0125E038E0429FC001439F65
:100CF000900D529F900D1124875E994C90930E0198
:100D000080930D01890F0895CF93C82FE8DF8C9F42
:100D1000C0011124892FCF910895982FE82F96FDB7
:100D2000E0958E2F8F7096FD8F5FE695E695E695A0
:100D3000E670F0E0EC5CFE4F2181289F202D812D94
:100D4000112422952F708295807F282B8081820F1D
:100D500097FD819580580895FC019B01009719F437
:100D6000832F80780895AC0197FF04C0442755274E
:100D7000481B590BB901640F751F37FD0FC0C9011E
:100D8000841B950BA5E0880F991FAA95E1F70E9497
:100D9000602D80E2861BF7FD81950895CB0165E00B
:100DA000880F991F6A95E1F7BA01621B730B0E94C5
:100DB000602D80E6EFCF1F93CF93DF93D62FC72F01
:100DC000182F822F8695A9DF805887FD8195612F86
:100DD000880F40DF6D2F7C2FDF91CF911F910895F9
:100DE0000F931F93CF93DF93162FC72FD82F022F68
:100DF000E42FF0E0EE0FFF1FE25AFE4F64EE808119
:100E000029DF6C2F70E0482F50E0445E5F4F202FA9
:100E100030E0CA01801B910997FF03C0C901841B00
:100E2000950B23E0880F991F2A95E1F79B01281B5A
:100E3000390BC90137FF02C080E090E06C2F0ADF58
:100E4000782F612F8D2FDF91CF911F910F910895F2
:100E50000F931F93CF93DF93162FC72FD82FBA016D
:100E6000C9012C2F201B022F77DF982F990F990F84
:100E7000891B6C2F800FEEDE782F612F8D2FDF9175
:100E8000CF911F910F910895EF920F931F93CF93DE
:100E9000DF93162FC72FD82FBA01C9010E190C0FD7
:100EA0005BDF6C2F081B802FD5DE782F612F8D2FF5
:100EB000DF91CF911F910F91EF900895622F0895C8
:100EC000E42FF0E0EE0FFF1FE25AFE4F6081621B3D
:100ED0000895E42FF0E0EE0FFF1FEA5BFE4F618DF7
:100EE000621B0895322F50E0FA01EE0FFF1FEA5BFC
:100EF000FE4F918D905297FD9195440F551FFA0129
:100F0000E25AFE4F2081231B330B290F311D97FD21
:100F10003A95620F08950F93CF93DF93D72FC82F81
:100F2000BA01C90119DF682F600F7D2F8C2FDF9167
:100F3000CF910F910895EF920F93CF93DF93D72F17
:100F4000C82FBA01C9010E1907DF602F681B7D2F5A
:100F50008C2FDF91CF910F91EF9008950F931F93F6
:100F6000522F10E0F801EE0FFF1FEA5BFE4FA18D3C
:100F7000A052BB0B9D015203F001539FF00D1124B1
:100F8000000F111FD801A25ABE4F2C912057330BCE
:100F90004203D001439FB00D11249F012A0F3B1F34
:100FA00037FF02C021583F4F220F232F221F330B40
:100FB000620F1F910F9108950F931F93522F10E00E
:100FC000F801EE0FFF1FEA5BFE4FA18DA052BB0B95
:100FD0009D015203F001539FF00D1124000F111FCA
:100FE000D801A25ABE4F2C912057330B4203D00197
:100FF000439FB00D11249F012A0F3B1F37FF02C0F2
:10100000215C3F4F96E0359527959A95E1F7620F61
:101010001F910F9108950F931F93A42F10E0F801D3
:10102000EE0FFF1FE25AFE4F9081905797FD91956A
:10103000000F111FF801EA5BFE4F018D0052110BEA
:101040002003A001219F500D112428E330E0291B2B
:10105000310997FD33951A2F1203F001139FF00DFC
:1010600011244E0F5F1F9A01220F331F240F351FCB
:1010700037FF02C021583F4F220F232F221F330B6F
:10108000620F1F910F9108951F93CF93DF93162F37
:10109000D72FC82F822F869540DE805887FD8195F7
:1010A0006CE0880FD7DD682F610F7D2F8C2FDF91CB
:1010B000CF911F9108950F931F93CF93DF938B01CF
:1010C000D82FC42F822F29DEEC2FF0E0EE0FFF1F68
:1010D000E25AFE4F90819058890F87FD81956CE010
:1010E000880FB8DD682F600F712F8D2FDF91CF91A2
:1010F0001F910F9108951F93CF93DF93162FD72F32
:10110000C82FE42FF0E0EE0FFF1FE25AFE4F808160
:10111000821B87FD819568E19DDD682F610F7D2F22
:101120008C2FDF91CF911F91089520917F0330E1A3
:10113000230F08F42FEF60E1822F90E093DDBC01D4
:1011400088EB9BE00E944C2D80E090E008951F9377
:10115000CF93DF93162FD72FC82F60E4842F80956D
:1011600079DD682F610F7D2F8C2FDF91CF911F913B
:101170000895EF92FF920F93970195E0099F200D3C
:10118000311D1124211591E0390710F02FEF30E0C7
:101190002095382F320F08F43FEF832F0F91FF90E7
:1011A000EF900895EF92FF920F93E00EF11CF9017A
:1011B00037FF03C0F195E195F10924E0EE0FFF1F21
:1011C0002A95E1F7E11531E0F30714F0EFEFF0E0D5
:1011D0009A0157FF03C031952195310994E0220F00
:1011E000331F9A95E1F72E173F070CF4F901EE0D26
:1011F000FF1DE11591E0F90710F0EFEFF0E02E2F61
:101200002095382F320F08F43FEF832F0F91FF9076
:10121000EF900895EF92FF920F93972FFA01B90183
:101220009701093430F4201B3109211541E03407BE
:1012300010F02FEF30E03896719740F0AB01485F27
:101240005F4F4131510510F02FEF30E02095382FDE
:10125000320F08F43FEF832F77FF02C06D5F7F4F9F
:10126000759567957595679520917C03620F792F29
:101270000F91FF90EF900895EF92FF920F939701D7
:10128000201B3109211541E0340710F02FEF30E029
:10129000322F3095482F430F08F44FEF842F620F01
:1012A0000F91FF90EF900895EF92FF920F939701A7
:1012B000201B3109211591E0390710F02FEF30E0A4
:1012C0002095382F320F08F43FEF832F0F91FF90B6
:1012D000EF90089590917A03982B90937A03089554
:1012E000C9C00895D2C00895982F990F990F890FFA
:1012F00095E0980F963108F095E10895EBE7F3E05B
:10130000908121E09227908310921B01E3CF80917E
:101310007B038370811102C010921B0180917B03BB
:101320008C7F816080937B03089580917B03837021
:10133000811110921B0180917B038C7F80937B0332
:101340000895982F862F20917B032370211581F01B
:10135000911579F0933278F49F73990F990F20913A
:101360007B032370922B90937B0310921B01B2CFCF
:10137000089591E0F2CF92E2F0CF80917B038695C1
:1013800086958F5F833208F081E061E0DACF80914B
:101390007B03869586958A9509F482E261E0D1CF38
:1013A000982F822F20917B032370211551F0909369
:1013B0007C0360937D03413808F040E840937E034E
:1013C00089CF0895EBE7F3E0818190E021E043814C
:1013D00062810896E5CFEBE7F3E0818121E043816C
:1013E00062818850990BDCCFEBE7F3E0628120E16A
:1013F000620F08F46FEF818121E0438190E0D0CF4C
:10140000EBE7F3E0628120E1621B08F460E0818198
:1014100021E0438190E0C4CFEBE7F3E0438120E19A
:10142000420F08F44FEF818121E0628190E0B8CF54
:10143000EBE7F3E0438120E1421B08F440E08181C7
:1014400021E0628190E0ACCFEBE7F3E0248130E172
:10145000230F08F42FEF248381E03CCFEBE7F3E088
:10146000248130E1231B08F420E0248381E032CF83
:10147000859A0895FC01EE0FFF1FE80FF91FEC5A43
:10148000FD4F6183408322830895FF920F931F9342
:10149000CF93DF93182F062FF42EC0E0D0E02F2D2E
:1014A000402F612FCE01E6DF2196C531D105B9F776
:1014B000CDB7DEB7E5E00C94A92D282F35EB23033B
:1014C000C001112497FF04C080589109892F089505
:1014D00080589F4FFBCF8091DB0380FD14C081FDBE
:1014E00014C082FD16C08091DA03811581F08E311F
:1014F00080F420E5829FC00111246EE170E00E941B
:10150000602D862F089584E1089588E2089588E08B
:10151000089580E508958091DB0380FD17C081FD6B
:1015200017C082FD19C08091D903811599F08832C6
:1015300098F428E0829FC001112468E270E00E94C4
:10154000602D6115710551F0862F089562E0FCCF82
:1015500064E0FACF61E0F8CF68E0F6CF81E008956B
:10156000E091C603F091C703309739F00190F08104
:10157000E02D309711F00995089580E00895A3E0DB
:10158000B0E0E5ECFAE00C94902D9C0180915202C1
:101590009091530282179307B1F030935302209336
:1015A0005202E091C603F091C703309761F00084C6
:1015B000F185E02D309739F083E089833B832A83DE
:1015C000CE01019609952396E2E00C94AC2DA3E0A0
:1015D000B0E0EDEEFAE00C94902D9C018091500269
:1015E0009091510282179307B1F0309351022093EA
:1015F0005002E091C603F091C703309761F0008478
:10160000F185E02D309739F084E089833B832A838C
:10161000CE01019609952396E2E00C94AC2D9091B1
:101620002001913091F0AEE0B2E0EFEF90E02D912B
:10163000821751F0EF3F19F4211101C0E92F9F5F8C
:101640009630A9F7EF3FC9F408959091EA0397FF08
:10165000EACFE82FE695E695E695803FA8F7F0E01B
:10166000EC5EFD4F877021E030E001C0220F8A95CB
:10167000EAF78281822B828308950E2E000CFF0BE5
:10168000E45FFD4FF8CF90912001913021F49091CB
:10169000EA0397FD0CC0EEE0F2E09191891302C0DD
:1016A000DF011E9252E0E431F507B9F70895E82F03
:1016B000E695E695E695803FC8F7F0E0EC5EFD4FD5
:1016C000877021E030E0A90102C0440F551F8A95C0
:1016D000E2F7CA01809592818923828308958091DF
:1016E0001F0108952FB7F89480914C0290914D02FC
:1016F000A0914E02B0914F022FBF0895F3DF2091C9
:10170000DE033091DF03232B211521F08093710339
:10171000909372032091E0033091E103232B211574
:1017200021F080936F0390937003E091C603F091D2
:10173000C703309759F00680F781E02D309731F0DC
:1017400082E08093DC038CED93E0099508956115A8
:1017500009F441C0E3E3E80FE33148F4F0E0ED5170
:10176000F14D0C94732DB7DE81958093DF03C6CFC6
:10177000B2DEFBCFB0DE81958093DE03F8CFABDE27
:10178000FBCFC9DE8093E003F2CFC5DE8195FACFAF
:10179000C2DE81958093E103EACFBDDEFBCF815DA0
:1017A000990B21E030E001C0220F8A95EAF7809181
:1017B000DD03822B8093DD03DACF8091DB03816030
:1017C0008093DB03D4CF8091DB038260F9CF8091DB
:1017D000DB038460F5CF4091DE038D3C59F48091AA
:1017E000DF0387FF0DC01092DF03411559F41092FB
:1017F000DA0308C08E3C81F48091DF0318169CF355
:10180000411581F08091E0039091E103892B8111D2
:10181000AECF1092D903ABCF8F3C41F447FFF0CF4E
:101820001092DE038091DF038115E0CF803D19F433
:101830001416B4F3E5CF9091E003893D29F419160D
:10184000FCF61092E003DCCF8A3D19F497FFD8CF65
:10185000F8CF9091E1038B3D29F497FFD1CF1092FF
:10186000E103CECF8C3D19F41916CCF3C9CF9FE21A
:10187000980F983090F4815D990B21E030E0B90128
:1018800002C0660F771F8A95E2F7CB018095909191
:10189000DD0389238093DD03B3CF8D3D31F4809147
:1018A000DB038E7F8093DB03ABCF8E3D21F48091F1
:1018B000DB038D7FF7CF8F3D09F0A2CF8091DB0353
:1018C0008B7FF0CF2FB7F89460914C0270914D024E
:1018D00080914E0290914F022FBF0895FC019B0111
:1018E00080914202909143028617970740F0672B40
:1018F00029F48091E8008E778093E800C90140E0E8
:10190000009741F4411106C08091E80082FF2FC08A
:1019100080E008952091A3032115A9F12530A9F1B4
:101920002091E80023FD2DC02091E80022FDECCF9E
:101930002091E80020FFE4CF3091F3002091F200E5
:10194000009719F02830310558F041E02830310572
:1019500009F040E02091E8002E772093E800D0CFF6
:1019600041914093F10001972F5F3F4FE9CF809164
:10197000A303811541F0853041F08091E80083FF99
:10198000C3CF81E0089582E0089583E008958091B7
:101990003C0287FF13C08091E80082FF06C080915F
:1019A000E8008B778093E80008958091A30381116C
:1019B000F2CF08958091A3038115D9F38091E800B7
:1019C00080FFF8CF8091E8008E77ECCF2091E40083
:1019D0003091E50095E6A9012091EC00822F8170FD
:1019E00020FF06C08091E80080FF06C080E00895D7
:1019F0002091E80022FD1AC08091A303811589F08F
:101A0000853089F08091EB0085FD0FC02091E400C6
:101A10003091E50042175307F9F29A95E1F684E018
:101A2000089582E0089583E0089581E00895E8ED47
:101A3000F0E080818E7F80831092E2001092DA00C5
:101A40001092E100A0EEB0E08C9181608C938081D7
:101A50008F77808319BCA7EDB0E08C918E7F8C933B
:101A600080818F7E808310923B020895E091C603AF
:101A7000F091C703309739F00284F385E02D309759
:101A800011F060E209950895AF92BF92DF92EF9254
:101A9000FF920F931F93CF93DF935C0180910A0114
:101AA00023DCC82F192F60917F0366958091F10286
:101AB0009091F202D7D8D82ED0E0CE01880F991F8E
:101AC0009C012A5B3E4F79011C1709F070F481E0FC
:101AD000153108F080E0DF91CF911F910F91FF90B9
:101AE000EF90DF90BF90AF900895FE01E857FE4F52
:101AF000808190910B0189238115A9F0F701218D37
:101B00002052330B408D4057550B60917C037091F0
:101B10007D0380917E030D2DF501099514D8472F83
:101B2000282FCE01DDDBF2E0EF0EF11C2196CCCFA9
:101B3000A0E0B0E0EEE9FDE00C94842D3C01809142
:101B40000A01D2DBC82F192F60917F03669580911F
:101B5000F1029091F20286D8F82ED0E0CE01880FE3
:101B6000991F9C012A5B3E4F69011C1709F048F43C
:101B700081E0153108F080E0CDB7DEB7EEE00C94DF
:101B8000A02DFE01E857FE4F808190910B01892323
:101B9000811561F1F601808D282F2057330B5901F3
:101BA000818DE82FE052FF0B4F01AA9C9001AB9C66
:101BB000300D300D1124EE9FC001EF9F900D900D60
:101BC0001124820F931F5BD8082F60917C037091C2
:101BD0007D0380917E03EF2C9401A501F30109950B
:101BE0000E94A305472F282FCE017ADBF2E0CF0E0B
:101BF000D11C2196BACFA4E0B0E0E1E0FEE00C9465
:101C00008A2D6C0180910A016FDB8B83F92E609124
:101C10007F03669566958091F1029091F20222D839
:101C2000182F80E4810F79D880588983812F75D847
:101C300080588A839B81892F90E09C838B839B8132
:101C40009F1548F081E0E5E1FE1608F080E024965B
:101C5000E8E00C94A62DEB81FC81E857FE4F8081D3
:101C600090910B018923811599F060917C0370910B
:101C70007D0380917E03E12E0B812A814981F6014B
:101C800009950E94A305472F282F8B819C8128DB73
:101C90008B819C810196D1CFA0E0B0E0E2E5FEE02F
:101CA0000C948B2DC82FD0E0FE01E857FE4F8081A9
:101CB00090910B018923811531F1D0907D03009122
:101CC0007E0310917C03E12EF12C83E01DD8482F78
:101CD000C7018C549F4F68E671E00E94602D8E19F9
:101CE0009F0997FD03969595879595958795612F03
:101CF000489F600D11247D2D802F0E94A305472F42
:101D0000282FCE01EDDACDB7DEB7E7E00C94A72D92
:101D10001F93CF93DF93C82FD0E0FE01E857FE4F0B
:101D2000808190910B018923811589F00E946F06B3
:101D3000182F80E80E9484067FE7780F612F80913A
:101D40007E030E94A305472F282FCE01C9DADF9119
:101D5000CF911F910895EF92FF920F931F93CF930E
:101D6000DF937C0180910A01BFDAC82F192F60919F
:101D70007F036695669521E0620F08F46FEF80910E
:101D8000F1029091F2020E943206082FD0E0C117B2
:101D900048F081E0153108F080E0CDB7DEB7E6E02D
:101DA0000C94A82DFE01E857FE4F808190910B0105
:101DB0008923811581F060917C0370917D0380916E
:101DC0007E03202F4C2FF70109950E94A305472F72
:101DD000282FCE0185DA2196DACFA8E0B0E0E3EF34
:101DE000FEE00C94802D382E6A837B8380910A015B
:101DF0007BDA192F2091FB022E83E82FF0E0F88781
:101E0000EF83CF01880F991F9C012A5B3E4F690128
:101E1000432C512C3FEF431A530A8F81811740F016
:101E200081E0153108F080E02896E2E10C949C2DC9
:101E3000EF81F885E857FE4F808190910B0189234F
:101E40008115E9F080917C038C8390917D039D83C3
:101E5000F201E550FD4F3F01232C1982FE812F1620
:101E6000C0F060917E0389810E942A066C817D8189
:101E70000E94A305472F282F8F81988531DA2F8163
:101E800038852F5F3F4F38872F8332E0C30ED11C38
:101E9000C4CFF30181913F01F601A08CA81ABB08C1
:101EA000818CF3018781881A9908AA9C9001AB9CC8
:101EB000300D300D1124889CC001899C900D900D2F
:101EC0001124820F931F0E943F06082F60917F0309
:101ED00021E0620F08F46FEFF301EE0FFF1FEB5FDD
:101EE000F240858996890E9432067C019401A50101
:101EF0006C817D818981EA81FB8109956C837D8379
:101F000089832394ABCF982F9093E900891771F0C0
:101F10007091EC002091ED005091F00021FD09C07E
:101F20009F5F973089F78093E9000895762F242FDB
:101F300050E03091EB003E7F3093EB003091ED00AC
:101F40003D7F3093ED003091EB0031603093EB003A
:101F50007093EC002093ED005093F0002091EE0080
:101F600027FDDECF0895A0E0B0E0E9EBFFE00C94A0
:101F70008A2DC8EDD0E088818F7E8883E7EDF0E080
:101F800080818160808384E082BF81E080933B0216
:101F900088818E7F888302EE10E0F8011082109213
:101FA000DA0081EEC82ED12CF601108288818F775D
:101FB000888388818068888388818F7D888319BC25
:101FC0001092A30310923A02109226031092390243
:101FD00090EEE92EF12CF70180818B7F8083888140
:101FE0008160888342E060E080E08DDFF6018081DF
:101FF0008E7F8083F801808181608083808188600A
:102000008083F70180818E7F8083888180618883CF
:10201000CDB7DEB7E8E00C94A62DE091EE039091E9
:10202000ED0327E0E91302C080E00895AE2FB0E091
:102030002E9FF0011124E151FC4F3181361306C06F
:102040003081381303C03581341304C0FD0131964B
:10205000E770E8CF81E0089531B33F7D21B320627E
:102060004FB7F89484E592E0FC010196508168E056
:1020700021BB000000C057FF31BB550F000000C05E
:1020800000C000C031BB00C06A9591F752E08339AF
:10209000950751F74FBF8FE594E00197F1F700C026
:1020A0000000089581E08093E00080E28093D800F2
:1020B0001092C9008FE19EE40197F1F700C0000083
:1020C00087E090EBDC0180932E0490932F04A09383
:1020D0003004B093310488E19CE00FB6F894A895E1
:1020E000809360000FBE90936000FFCF0F931F930B
:1020F000CF93DF938B01EA019091A303943051F5C4
:102100008093E9008FEF9091E80095FD06C095ED72
:102110009A95F1F700008A95B1F78091E80085FF64
:1021200019C054DC811111C08091E80085FD06C002
:102130008091E8008E778093E800F3CFF8018191D9
:102140008F018093F100219779F78091E8008E77D5
:102150008093E800DF91CF911F910F910895792F1F
:10216000603229F440E250E0682F82E0BFCF08954A
:10217000CF93DF93D82FC92F48E050E0682F792FF5
:1021800081E0B4DF88E0ED2FFC2FA4E4B2E0019001
:102190000D928A95E1F7DF91CF910895BC0140E25D
:1021A00050E084E0A3CFBC0146E050E084E09ECF45
:1021B000BC0143E050E084E099CF9091EB0392FBA7
:1021C000222720F9281779F080FB92F99093EB03EE
:1021D0006091EA037091EB0384E090E00E94802E0E
:1021E00082E00C94530308951F93CF93DF93C62F7F
:1021F000122F632F982F942B9430C0F4C630B0F474
:1022000098E0C99FE0011124C40FD11DC40FD11D56
:1022100090E3899FC00DD11D1124CE0189960E94A3
:10222000662E612FCE018A960E94662EDF91CF9195
:102230001F910895AF92BF92CF92DF92FF920F93BA
:102240001F93CF93DF93A12CB12C00E0650110E028
:1022500012C0FE01259135914F2D612F802FC4DFD3
:102260002296F39484E0F812F4CF84E0C80ED11CD7
:102270001F5F163039F0E601CC0FDD1FCF59DD4F5F
:10228000F12CE7CF0F5F88E1A80EB11C0430F1F606
:10229000DF91CF911F910F91FF90DF90CF90BF9072
:1022A000AF90089580912001813069F58091EA0313
:1022B00087FF29C00E946A038093150240E250E024
:1022C00066EA73E084E192E00E940C2E892BD1F043
:1022D00080E2E4E1F2E0A6EAB3E001900D928A9593
:1022E000E1F7E091C603F091C703309759F00480FD
:1022F000F581E02D309731F086E08093140284E17F
:1023000092E0099508950E946A0380930C0248E0C8
:1023100050E068EC73E08CE092E00E940C2E892B78
:1023200089F388E0ECE0F2E0A8ECB3E001900D92D4
:102330008A95E1F7E091C603F091C703309711F356
:102340000280F381E02D3097E9F28CE092E0D9CF62
:10235000CF93C82F8115C1F08CEF8C0F813A80F597
:1023600080912001813021F48091EA0387FD0EC025
:10237000EEE0F2E08191C817F9F022E0E431F207D3
:10238000C9F78C2F4CD98EDFCF910895EC2FE695AD
:10239000E695E695F0E0EC5EFD4F828190E04C2FF3
:1023A000477021E030E002C0220F331F4A95E2F768
:1023B00082239323892B29F38C2F65D973DFE1CFF7
:1023C00080E28C0F883068F4C77081E090E001C033
:1023D000880FCA95EAF7C091E403C82BC093E403C1
:1023E000D2CF8BE58C0F833030F42C2F2452330B5B
:1023F000C901C5D8C9CFE8E5EC0FEB3148F4F0E0EE
:10240000EE0FFF1FED52FE4F80819181E0D8BCCFCF
:1024100083E38C0F833108F0B7CF61E08C2F97D91D
:10242000B3CF811541F19CEF980F913A10F42BD95D
:1024300039CF90E2980F983050F4877091E001C046
:10244000990F8A95EAF7892F0E949103F1CF9BE5B6
:10245000980F933018F480E090E091C898E5980FB9
:102460009B3118F480E090E0B2C893E3980F933169
:1024700010F460E06CC908951F93CF93DF93182F79
:10248000EB0166DF209731F4812FCBDFDF91CF9115
:102490001F9108958FE99FE00197F1F700C00000B8
:1024A0002197F0CF811531F09091E403892B80932F
:1024B000E403F8CE0895811519F00E949103F2CE3D
:1024C0000895EF92FF920F931F93CF93DF93C62F40
:1024D000D42F122F811599F06093E20303D99093C2
:1024E000380280933702C77081E001C0880FCA9517
:1024F000EAF7D8DFCDB7DEB7E6E00C94A82D8091DF
:10250000E20368132FC0E0903702F0903802EAD857
:102510008E199F09883C910528F500E20D0FCD1713
:1025200099F0C770FF24F3948F2D01C0880FCA95CE
:10253000EAF7C1DF083040F48D2F877001C0FF0C2F
:102540008A95EAF78F2DAEDF60E070E0812F94DF8F
:10255000083080F6D77081E001C0880FDA95EAF77D
:10256000AADFC8CFC77081E001C0880FCA95EAF71B
:10257000F7CF1092E40380912001813019F580910A
:10258000EA0387FF1FC0E6E1F2E08EE1DF011D9262
:102590008A95E9F780E090E00E94BF0A80E090E031
:1025A00016D81092EC037EDE86E0ECEDF3E0DF015E
:1025B0001D928A95E9F71092DA031092D9031092CE
:1025C000DB039CC8EEE0F2E086E0E0CFD2DF2FEF45
:1025D00084E39CE0215080409040E1F700C000007F
:1025E00088E19CE00FB6F894A895809360000FBE38
:1025F00090936000FFCFAAE2B0E0E1E0F3E10C9439
:102600008F2D8CE392E0FC0101962091F100208354
:1026100022E084349207B9F780913D02893009F4B1
:1026200057C0C8F4823009F4B2C0833009F482C0C4
:10263000813081F18091E80083FFE6C080913C0207
:1026400090913D029A3008F0DFC0E92FF0E0EA50A7
:10265000F14D0C94732D8A3009F489C08B3051F7F9
:1026600080913C02813231F7809140029091410289
:10267000892B01F78091E800877F8093E80087D954
:1026800081E090913E02911101C080E08093200191
:1026900070DFD0CF80913C02813A61F68091E800F2
:1026A000877F8093E8008091400290914102892BBE
:1026B00059F060E080E090E070E010D98091E8008F
:1026C0008B778093E800B6CF68E084E492E0F4CFA3
:1026D00080913C02813209F0ADCF8091400290910F
:1026E00041028D7F892B09F0A5CF8091E800877F7B
:1026F0008093E8008091E80082FF17C09091F3007A
:102700008091F200029731F48091F100813011F054
:10271000863021F48091F10080931F018091E800C0
:102720008B778093E80033D985CF8091A303811103
:10273000E1CF80CF80913C02813A09F07BCF80913C
:10274000400290914102892B09F074CF8091E800FA
:10275000877F8093E8008091E80080FFFCCF809124
:1027600020018093F1008091E8008E77DACF80918C
:102770003C02813209F05ECF8091E800877F809330
:10278000E80005D980913F0280931E0153CF8091CC
:102790003C02813A09F04ECF8091E800877F809318
:1027A000E8008091E80080FFFCCF80911E01D9CF26
:1027B000803889F0823841F5809140028F708730EF
:1027C00018F58093E9008091EB0085FB882780F95C
:1027D0001092E90006C080912603880F909139027B
:1027E000892B9091E800977F9093E8008093F10007
:1027F0001092F1008091E8008E7723C0811116C0FD
:1028000080913E02813009F18091E80083FF0AC087
:102810008091E800877F8093E8008091EB008062E0
:102820008093EB00AA96E3E00C94AB2D823061F725
:1028300080913E02811581F01092E9008091E800BC
:10284000877F8093E800A3D8DFCF81E0933009F041
:1028500080E080932603F0CF809140028F702FEFAD
:10286000280F263088F68093E9002091EB0020FFA6
:10287000E3CF933031F48091EB0080628093EB00E2
:10288000DBCF9091EB0090619093EB0021E030E082
:10289000A90102C0440F551F8A95E2F74093EA0050
:1028A0001092EA008091EB008860E8CF8111ACCFF4
:1028B00010913E021F778091E3008078812B8093F6
:1028C000E3008091E800877F8093E80060D88091E2
:1028D000E80080FFFCCF8091E30080688093E300F4
:1028E00083E0111101C082E08093A3038DCF805853
:1028F000823008F089CF80913E0290913F028C3D5A
:1029000053E0950799F583E08A838AE289834FB77C
:10291000F894DE01139620E03EE051E2E32FF0E070
:1029200050935700849120FF03C082958F703F5FC2
:102930008F708A30C8F0895C90E08D939D932F5FF3
:10294000243161F74FBF8091E800877F8093E800D2
:102950006AE270E0CE0101960E946E0C8091E80060
:102960008B778093E80050CF805DE6CF292F332707
:102970002330310509F44DC078F52130310509F4D3
:102980007CC08BE590E0E8ECF1E02230310509F005
:102990003BCF2091E800277F2093E800209142025E
:1029A000309143028217930708F49C0140E02115FF
:1029B000310509F067C0411165C08091E80082FDD2
:1029C000CDCF8091A303811549F2853039F28091F2
:1029D000E80083FFF2CFC2CF809140029091410284
:1029E00021323105D9F12232310509F00DCF833082
:1029F000910508F009CFFC01EE0FFF1FE85DFE4FC7
:102A00000190F081E02D8B5D9E4FDC018C9190E078
:102A100011C09C013327813089F022303105B1F09B
:102A2000232B09F0F1CEEDE5F2E0E4918E2F90E05A
:102A3000EDE5F2E0009709F4E7CEABCFEBE4F2E08E
:102A4000E4918E2F90E0EBE4F2E0F4CFE5E3F2E0E6
:102A5000E4918E2F90E0E5E3F2E0ECCF8330910536
:102A600008F0D2CEFC01EE0FFF1FE25DFE4F019099
:102A7000F081E02D89E090E08CCF82E190E0E3E20C
:102A8000F2E087CF8091A303811509F467CF8530E9
:102A900009F464CF8091E80083FD60CF8091E80065
:102AA00082FD8BCF8091E80080FF81CF9091F30071
:102AB0008091F2002115310519F08830910550F010
:102AC00041E0089709F040E08091E8008E7780931C
:102AD000E8006DCF44914093F100319621503109C7
:102AE0000196E8CF803809F08FCE8091E800877F8B
:102AF0008093E80080913A028093F1007BCE8111AF
:102B000083CE10913E02123008F07ECE8091E80014
:102B1000877F8093E80010933A020E94C70C11153A
:102B2000D9F084E08093A30342E061EC81E0EBD92B
:102B300042E261EC84E0E7D942E261EC82E0E3D971
:102B400042E260EC83E0DFD98091A303843051F44A
:102B500082E08093210158CE8091E30087FDE1CF90
:102B600081E0E0CF81E0F5CF0F931F93CF93DF9308
:102B7000982F942B943018F5663008F528E0629F62
:102B8000E0011124C40FD11DC40FD11D30E3839F78
:102B9000C00DD11D1124CE0189960E944A2E082F06
:102BA00010E0102F0027CE018A960E944A2E98012D
:102BB000282BC901DF91CF911F910F91089580E0DB
:102BC00090E0F8CF462F672F763028F4982F942B7B
:102BD000943008F4C9CF80E090E00895A0E0B0E020
:102BE000E4EFF5E10C948B2D7C010091E8038091DA
:102BF000E703082BC3E0D0E010E0C8010C2E02C0B0
:102C0000959587950A94E2F780FD09C02197A8F76A
:102C1000D12C8D2DCDB7DEB7E7E00C94A72DDC2E9F
:102C2000B7018C2FCFDF0E948C04019779F3F1CF8D
:102C30000F931F93CF93FC01858100811181811532
:102C400081F0611571F0C801C9DFC82F682FC80174
:102C50000E94C002B8018C2FB5DFCF911F910F9158
:102C60000895C8010E94F602C82FF4CFCF93DF93D6
:102C7000D82FC92FB3DF6D2F7C2FA4DF0E948C04C7
:102C8000DF91CF910895FC018481811599F08081B5
:102C90009181ECDF282F92959F70963099F060F427
:102CA000925F9F70923030F4203FB1F038F481E0B1
:102CB000283E38F080E008959A5FF3CF81E0243F0A
:102CC000C9F7089591E0213F09F090E081E0283EA6
:102CD00008F080E0892B089581E00895382F292F8E
:102CE000CB01A32FB22F873123E09207A105B105B5
:102CF00020F487519F4F0C944A2E80E00895CF9284
:102D0000DF92EF92FF92CF93DF93EC01C880D980DE
:102D1000EA80FB80C701B601E1DF9FEFC91AD90A3B
:102D2000E90AF90AC882D982EA82FB82DF91CF914F
:102D3000FF90EF90DF90CF900895A4E0B0E0E3EA39
:102D4000F6E10C94852D6C01FC018481811509F458
:102D500080C061E0C6016CDF8C01F60185818115C0
:102D600009F4E8C0980137572038310508F0DFC46E
:102D7000003108F05EC066E173E080E090E0AEDF15
:102D8000811157C0812C912C540101111FC08982DF
:102D90009A82AB82BC828E010F5F1F4FC801AFDFEA
:102DA000A02E912E811509F444C0813009F06BC02A
:102DB000C801A5DF8130E9F4C801A1DF60E570E05A
:102DC000893311F060E070E057DBE8CFF7E18F1650
:102DD000F3E09F06A104B10461F1C501B4017EDFF7
:102DE0002FEF821A920AA20AB20A8111EFCF015084
:102DF000CCCF823021F4C80182DFAADACFCF833072
:102E000021F4C8017CDF0DDBC9CF843081F4C80117
:102E100076DFE12CF12C3AE0B32E482F4053550BCE
:102E20009A014A305105C8F0E114F10411F58111FD
:102E3000B5CF8091E9038770811559F0F60185813E
:102E4000811539F08091EB0382FF03C082E00E947C
:102E500053032496EDE00C94A12DBE9CC001BF9CB1
:102E6000900D11247901E80EF91E8A2D992D47DF66
:102E7000D4CFEFE9FFE03197F1F700C00000F1E0B7
:102E8000EF1AF108D1CFE82FF0E0EF5AFB4F749022
:102E9000282F26952695269530E0F901EF5BFB4F0C
:102EA000E4908770F12C082E02C0F594E7940A9400
:102EB000E2F7E0FAEE24FF24E0F8F901EF5CFB4FC3
:102EC000A490B12C082E02C0B594A7940A94E2F7FE
:102ED000A0FAAA24BB24A0F8F901EF5DFB4F84906F
:102EE000912C02C0959487948A95E2F780FA882401
:102EF000992480F8E114F10411F081EE29DAA1148B
:102F0000B10411F086EE24DA60E070E0872DB4DAC7
:102F1000A114B10411F086EE84DAE114F10411F089
:102F200081EE7FDA8114910409F438CF60E070E01B
:102F30008CE24ACFF801E851FC47E730F10508F090
:102F4000D1C3E050F14D0C94732D26E241EE61EEB9
:102F5000B8DA6FCF27E245EE65EEFACF26E241EE12
:102F600060EEF6CF27E245EE64EEF2CF26E241EEC8
:102F700062EEEECF27E245EE66EEEACF28E241E0D0
:102F8000EBCF8091EA0381608093EA036091EA03CA
:102F90007091EB0384E090E00E94802EEADA49CF42
:102FA0008091EB0388608093EB03F0CF8091EA037C
:102FB0008260EACF8091EA038460E6CF8091EA03E1
:102FC0008860E2CF8091EB038160EDCF8091EB03CD
:102FD0008260E9CF8091EA038061D6CF8091EA03D5
:102FE0008062D2CF8091EA038064CECFC2DA809132
:102FF000EA038068C9CF8091EA038C60C5CF8091D5
:10300000EB038360D0CF8091EA038E7FBDCF8091A8
:10301000EB03877FC8CF8091EA038D7FB5CF809186
:10302000EA038B7FB1CF8091EA03877FADCF809198
:10303000EB038E7FB8CF8091EB038D7FB4CF80916F
:10304000EA038F7EA1CF8091EA038F7D9DCF80918F
:10305000EA038F7B99CF8DDA8091EA038F7794CF43
:103060008091EA03837F90CF8091EB038C7F9BCF8D
:103070008091EA03992782FF939590FB82F990FB58
:1030800083F982CF8091EB03982F909590FB80F984
:1030900090FB81F988CF9091EA03892F8F7B96FF6F
:1030A000806472CF66DA9091EA03892F97FB87F9E3
:1030B00080586ACF61E08EE090E00E94662E66CF75
:1030C00060E0F9CF9091EA03892F8F7E94FF8061B1
:1030D0005BCF9091EA03892F8E7F90FF816054CF60
:1030E0009091EB03892F877F93FF88605CCF89E203
:1030F00004C39091E4039272F801E054F847ED3074
:10310000F10508F04FC0E95FF04D0C94732D9272F9
:10311000F801E052F847EB30F10508F043C0EC5EEF
:10312000F04D0C94732D81E00E947E0982CE9115A2
:1031300011F10E94C7097DCE911511F10E94EB0992
:1031400078CE911511F10E94000A73CE911511F1FC
:103150000E94180A6ECE911511F10E942E0A69CEB6
:103160000E94870981E00E946A0963CE0E94950946
:10317000F9CF9115F1F20E94BD095BCE9115F1F2E4
:103180000E94E20956CE9115F1F20E94F40951CE47
:103190009115F1F20E940C0A4CCE9115F1F20E94A9
:1031A000240A47CE07372CE71207F9F008373CE727
:1031B000130751F19801205E32452032310550F558
:1031C00081113AC00F7181E090E0AC0102C0440F60
:1031D000551F0A95E2F78A01642F83E090E00E9470
:1031E000662E802F0E94A20224CE811549F081E034
:1031F0000E94A80243E062E081E00E942A0319CE07
:1032000081E00E94B202F6CF811511F082E0F0CF8A
:1032100082E0F7CF8115B9F10B355CE7150751F165
:103220000C359CE71907D9F00A35ECE71E0701F1C8
:103230000130FCE71F0731F103302CE71207E1F002
:1032400001151C4701F595D94FEF54E38CE041502F
:1032500050408040E1F700C000000E945210809171
:10326000EB03002482FF0394802D0E94DD10E1CD4A
:1032700081E0FBCF80E0F9CF6FEF7FEF80E090E05F
:103280000E94802EA3D9F601E080F180811509F417
:1032900044C0C701A3DC182F682FC7010E94C002D9
:1032A000B701812F8FDC0E948C048C01F601B58060
:1032B000A680A2942FE0A2228091E9038770811555
:1032C00001F1EB2CB114F1F0812F807F803461F09B
:1032D00080E2800F8830A8F0812F807E803221F438
:1032E000023078F0A11469F08091EB0382FF09C0ED
:1032F00082E00E9453038091E9038770EE24E394F7
:103300008111E12CE12FE295EF70103C08F06EC0C6
:10331000F0E0E15EF04D0C94732DC7010E94F602BF
:10332000182FBECFF12FFF70FF2E103118F0F2943E
:1033300090EFF922B114B9F0F11469F080E2800F36
:10334000883010F0011109C08091E4038F29809327
:10335000E4030E945211802F42C08091EC038F2918
:103360008093EC03F6CF802F5CD8F11409F43EC0B3
:1033700080E2800F883010F0011104C08F2D0E9470
:10338000910306C0F0948091EC038F218093EC03AD
:103390000E9452112BC0212F2F70F22E107F10325D
:1033A00019F0F29480EFF822011549F0013009F488
:1033B00064C0B11409F46FC0A114A1F1CCCF809105
:1033C000EB0382FD2BC0B11469F0F11439F0809148
:1033D000E4038F298093E4030E94521180E00E944D
:1033E000A81104C080E01DD8F110C8CFE11409F481
:1033F000B2C08091E90380FDAEC0F60115828695CA
:10340000869586950E94A802C60197DC8091E90303
:103410008695869586950E94B2029DC0B11491F062
:10342000A11003C08F2D3ED8E1CF31E0A312DECF33
:103430008091E5039F2D9823F916C1F28F2980937F
:10344000E503D4CFA110D2CF8F2D35D89091E503CD
:103450008F2D8923811529F08F2D809589238093C5
:10346000E5038091E6039F2D9823911509F4BECFC3
:10347000F094F822F092E603B9CFB11429F046E0B7
:10348000A41608F0B3CFCECF55E0A51608F0AECF06
:103490008F2D11D8ABCFA114D9F3093349F48FEF95
:1034A00097EEE3E081509040E040E1F700C000007B
:1034B000802F0E9411129ACF812F86958695837056
:1034C000811561F0813009F091CFC8019370B1107E
:1034D00002C080E090E00E94E70A88CFC8019370A4
:1034E000B11002C080E090E00E94BF0A7FCF6B2D38
:1034F000802F0E94A70B7ACF812F8370811137C054
:10350000B11027C0402F429546954770440F440F95
:10351000802F8F70042E01C0880F0A94EAF7202FA5
:10352000207104FF07C02FE030E001C0220F4A9550
:10353000EAF72095169516951370123099F013300E
:1035400079F03091E703113051F0822B83230E94F0
:10355000A2020E94B00A60E0C6016ADB7ACC832B2B
:10356000822BF5CF822B9091E7038927F0CFB114FE
:1035700051F110FFEECF402F429546954770440F12
:10358000440F802F8F70042E01C0880F0A94EAF731
:10359000202F207104FF07C02FE030E001C0220F70
:1035A0004A95EAF72095169516951370123089F012
:1035B000133069F03091E803113041F0822B8323FE
:1035C0000E94A502C6CF823020F2D5CF832B822B5A
:1035D000F7CF822B9091E8038927F2CF1F70B114A7
:1035E00039F0812F0E94A802802F0E945212B1CF81
:1035F000802F0E945B12812F0E94B202AACF023F4D
:1036000071F170F4003FC9F0013F91F0B11409F479
:1036100055C0A11409F44FC0802F0E94A81199CF62
:10362000033F21F1043F91F79091EB0392FD2AC0F3
:10363000812F8F71B11401F316C0B11469F0F5E058
:10364000AF1608F086CF1F7181E090E0012E01C017
:10365000880F0A94EAF7BECF26E0A216F2CF812F98
:103660008F71B110C9CF0E94A80273CF80E0B1144E
:1036700009F4A6CF1F7181E0012E01C0880F0A94C2
:10368000EAF79ECFB11461F0812F8F7192FFEBCFDB
:10369000982F990F990F990F93609093E903E3CFB7
:1036A00081E00E94530332E0A31608F452CF82E077
:1036B0000E9453034ECF812F8F71D5CFA11479F083
:1036C000093349F44FEF57EE83E0415050408040BA
:1036D000E1F700C00000802F0E9411123ACF812F25
:1036E0008F718ACF0631FCE71F0709F002CD809168
:1036F000E303811509F4FBCC85E30E94430B14C05E
:103700009091E40306312CE7120709F000CD9A7A74
:1037100081E0911101C080E08093E30385E3911182
:1037200001C089E20E940F0B0E94521182CBF80166
:10373000E851FC47E730F10508F403CC1092E203AE
:103740009801305723323105D8F684E090E00E948A
:10375000522E9093EB038093EA03F801E150F04777
:10376000E232F10508F00DCCE55DF04D0C94732DBF
:1037700080912D04803178F480912C04811559F0CA
:10378000E091EE032091ED0330912804409127044D
:1037900057E02E1301C008956E2F70E05E9FF00178
:1037A0001124DF01A151BC4F14968C9114978115FF
:1037B00051F111968C911197831325C08C9184132C
:1037C00022C015968C91159781111DC012968D916E
:1037D0009C91A0912904B0912A048A1B9B0B883CE0
:1037E000910588F480912D048F70806180932D0461
:1037F000EB50FC4F80818F708061808387E294E082
:103800009CDA0C944903FB013196E770C2CFADE01E
:10381000B0E0EDE0FCE10C94842D8C0186E0F80131
:10382000DE01189601900D928A95E1F7F801F58076
:10383000848197E2892E94E0992E60902B04611088
:1038400016C0811589F0F11409F40AC1C8011BDA08
:10385000811509F405C187E0F801A7E2B4E0019001
:103860000D928A95E1F784DFFF24F39454C07080B1
:10387000A280B380D0902C042091290430912A0496
:10388000A501421B530BD11409F4BBC0483C5105A0
:1038900008F075C0811541F380912804C180E09043
:1038A0002D0450E1E51608F056C0C81214C08091EE
:1038B0002704871110C0F11048C08E2D8F708061D1
:1038C00080932D0487E294E038DA80912D04F8018A
:1038D0008683F12C20C0F11038C040E06C2D872D7C
:1038E0000E940D1040E06C2D872D0E940D10F82EC7
:1038F0008111EFCF88859985B9D9292F22952F700D
:10390000903470F49F70223098F09115A9F0F8016E
:103910009681903188F48F2D2D96EEE00C94A02D99
:103920002A5F2F70223060F0C80107DAFD2CF3CF38
:10393000911511F0811579F3805E883060F3F4CF32
:10394000803F48F3815F8330F9CF80912D048160FF
:1039500080932D04BECFC81238C0809127048711F0
:1039600034C0F11032C0E682C801E7D987E0F8011F
:10397000A7E2B4E001900D928A95E1F775CFE0904F
:103980002D04F0E1EF1648F487E294E0D6D987E001
:10399000F40111928A95E9F79CCF811509F464CF5F
:1039A00090912804F801818198130FC08091270419
:1039B00087110BC0F11009C0E682C801BED987E0AB
:1039C000F40111928A95E9F74FCFC8015CD98115AE
:1039D00009F446C0F11409F443C080912D048032EB
:1039E00008F439CF80912704909128049A83898321
:1039F000BC82AB826D821E82EF82CE0101969DD980
:103A00002ACF483C510508F0C2CF811509F42CCFCC
:103A1000F11431F1909128048181981318C080919C
:103A20002704871114C080912D0480FD9FCF803121
:103A300008F49CCF8683807F803F09F495CF8681F0
:103A4000982F907F905F8F70892B86838DCFC801D0
:103A50001AD9811100CF80912D04816080932D04AB
:103A6000C8016BD901CFABE1B0E0E9E3FDE10C9413
:103A70008E2D4E8B5F8B688F798F8A8F192F9B8F3E
:103A800091111092EC031D8A86E0FE017696DE010C
:103A90001F9601900D928A95E1F70A8D011551F05C
:103AA0000B8B1C8B61E0CE010F96C2D861E0CE017A
:103AB0000F96BED80B8B1C8B87E0FE013F96DE0174
:103AC000189601900D928A95E1F7CE0108969FDE37
:103AD000811128C02091ED033091EE0387E0FE01B3
:103AE0003896DE01119601900D928A95E1F78C854A
:103AF0008115C1F0822F90E00196877099273817C1
:103B00001906D9F097E0929FD0011124A151BC4F22
:103B1000FE01319601900D929A95E1F78093ED03A5
:103B20000E94490317E08091EE039091ED03891301
:103B300012C06B96E4E00C94AA2D0E94B912109268
:103B4000ED031092EE0387E0E7E2F4E0DF011D925F
:103B50008A95E9F7E7CF189FC001112481519C4F46
:103B600056DE811531F38091EE0390E00196877067
:103B700099278093EE03D7CFA6E0B0E0E2ECFDE119
:103B80000C948E2D0E94720B8C018091A403909155
:103B9000A5038017910771F019821A820E94720B97
:103BA000BC0149815A8180E090E05DDF1093A5035C
:103BB0000093A4032696E4E00C94AA2D85E290E0FD
:103BC0000E944A2E853289F486E290E00E944A2EB5
:103BD000883059F487E290E00E944A2E91E08133C8
:103BE00009F090E0892F8170089580E0FCCFA6E075
:103BF000B0E0EDEFFDE10C94832DFE01319686E0FF
:103C0000DF011D928A95E9F78CE3E82E81E0F82E1A
:103C10008F0192E4C92E91E0D92E3F01AA24A394EA
:103C2000B12C36E4832E31E0932EF70181917F0190
:103C30008F3F09F43EC0F894E82FE295EF70F0E072
:103C400021A18F70A50102C0440F551F8A95E2F78C
:103C5000CA01922F982B91A392A18095892382A3C8
:103C6000789400C0E2E4F1E031E0512C21912F3F43
:103C700079F0A22FA295AF70A05EB0E08C9190E099
:103C80002F7002C0959587952A95E2F780FF35C081
:103C900080E0582A330F8E169F0641F7F701829174
:103CA0008F3F11F00E948A0550EA5A95F1F7D8012A
:103CB0005C920F5F1F4FCE14DF0409F0B6CF46E0D1
:103CC00050E0B30185EF92E00E940C2E892BB9F0F1
:103CD00086E0F301A5EFB2E001900D928A95E1F73D
:103CE00081E0809336020E94720B9093350280939C
:103CF00034022696EFE00C949F2D832FCACF80913B
:103D000036028115B1F300913402109135020E9400
:103D1000720B801B910B059760F346E050E065EF56
:103D200072E084E793E00E940C2E892B49F086E034
:103D3000E5EFF2E0A4E7B3E001900D928A95E1F798
:103D400010923602D6CFA3E0B0E0E9EAFEE10C948F
:103D5000802D482E80911D01841123C090917B03FA
:103D6000937020911C0130E081E09217130609F452
:103D700080E080930C018091800390910B01981753
:103D800039F080930B0140E060E080E00E9472090E
:103D900023E2421688F4E42DF0E0E35BF04D0C944E
:103DA000732D81E0E6CF80910C01811529F040E070
:103DB00060E080E00E94720980E0C1C080910A0149
:103DC0000E9474098983192F60917C0370917D038F
:103DD00080917E030E94A305062FF72EE82E5981BD
:103DE000452F50E05B834A837A81171709F018F456
:103DF00081E015312FC1EA81FB81E857FE4F8081B8
:103E000090910B018923811539F02E2D4F2D602FB4
:103E10008A819B810E9470096A817B816F5F7F4FDD
:103E20007B836A83E1CF80910A010E9474098983B0
:103E3000192FF0907D03E0907E0360917F0380E472
:103E40000E942A06082F9981892F90E09B838A83FC
:103E5000BA811B1769F260F2EA81FB81E857FE4FD5
:103E6000808190910B0189238115C1F0EA81FB814A
:103E7000EE0FFF1FEA5BFE4F818D82958F70609180
:103E80007C03809F600D11247F2D8E2D0E94A30541
:103E9000472F282F8A819B810E947009AA81BB81AC
:103EA0001196BB83AA83D4CF80910A010E94740922
:103EB0008983192FF0907D03E0907E0360917F034A
:103EC00080E40E942A06082FF981EF2FF0E0FB839F
:103ED000EA833A81131709F008F48ACFEA81FB815B
:103EE000E857FE4F808190910B0189238115E1F005
:103EF000EA81FB81EE0FFF1FEA5BFE4F208D209FC2
:103F000090011124B5E035952795BA95E1F76091B8
:103F10007C03620F7F2D8E2D0E94A305472F282F33
:103F20008A819B810E9470092A813B812F5F3F4FCC
:103F30003B832A83CECF8BED96E00E94AB0E90910F
:103F40000A019F5F90930A0181110CC082E0809367
:103F50001B0180910C01811105C0411003C083E059
:103F600080931B012396E2E10C949C2D80EF96E058
:103F7000E4CF88E297E00E94440DE1CF84E497E02B
:103F80000E94980DDCCF8EE597E0D7CF80E697E0D2
:103F9000D4CF89E697E0D1CF82E797E0CECF8BE808
:103FA00097E0E9CF8BE997E0EBCF8EEA97E00E94AC
:103FB000FB0DC5CF8CED97E0FACF8BE098E0F7CF03
:103FC00040910A01498341111AC060917F0320E1A9
:103FD000620F08F46FEF8091F1029091F2020E945B
:103FE00032066AE070E00E944C2D892B41F485E195
:103FF0000E94840690E090930501809304018981DA
:104000000E947409282F99838A8380910C01811161
:104010001AC0809104019091050182179105B8F0B2
:10402000A9818A17910598F40E944C0E86E190E0D0
:1040300090930501809304010AC08A810E944C0E6E
:104040005A815F5F5A836A8179816717B0F381E093
:10405000B981B53108F473CFAFCEE0910A01E9839D
:10406000E1111AC060917F0320E1620F08F46FEF45
:104070008091F1029091F2020E94320665E070E0B8
:104080000E944C2D892B41F485E10E94840690E02A
:10409000909307018093060189810E947409282F5B
:1040A00099838A8380910C0181111AC08091060145
:1040B0009091070182179105B8F049818417910505
:1040C00098F40E94880E86E190E090930701809317
:1040D00006010AC08A810E94880EFA81FF5FFA8376
:1040E0002A8139812317B0F381E059815531B2CF4C
:1040F00084E498E022CF8BE598E01FCF8BE798E02F
:104100001CCF60910A01698361111FC00091970261
:10411000109198020E94720B40917F0320E431E0DD
:10412000241B3109801B910B2817390770F485E196
:104130000E94840690E090930901809308010E94F8
:10414000720B909398028093970289810E94740960
:104150009A8300910801109109010817110540F197
:104160000917110528F5F801E857FE4F8081909155
:104170000B0189238115E1F00E946F0681FD1CC0AF
:104180000E946F06898380E80E9484067FE7780F8B
:1041900080917E0369810E94A305472F282FC801C3
:1041A0000E94700986E190E09093090180930801D4
:1041B00081E07A8175314ECF80E070E01982EACFDC
:1041C0008091D8029091D902A091DA02B091DB02DD
:1041D0004091F1025091F2026091F3027091F40269
:1041E000481759076A077B0708F4E6CD80910C0150
:1041F000811153C080910A010E947409192FE82E81
:10420000F12CC701880F991F8E0D9F1D87569D4F5A
:104210009B838A83E11608F470C0153108F4E8CD59
:10422000812F90E07C0121E0E21AF108AC01440FFB
:10423000551F480F591F435051096CE972E089E935
:1042400092E00E94222E0E946F06A701440F551F84
:104250005B834A8381FF6FC0FA01EE0DFF1DE756B5
:10426000FD4F1082118212820E949508C090F102C7
:10427000D090F202E090F302F090F402DC01CB0166
:104280008C0D9D1DAE1DBF1D8093D8029093D90249
:10429000A093DA02B093DB02ABCD40E060E080E0B7
:1042A0000E947209A9E9B2E0BB83AA8308ED12E07B
:1042B0000E946F0681FF0EC0EA81FB81108211828D
:1042C0001282EA81FB813396FB83EA830E171F0774
:1042D00079F790CF0E946F06F82E80E80E9484063E
:1042E0007FE7780F6F2D80917E030E94A305AA813E
:1042F000BB816D937D938C93E4CFF701E857FE4F1C
:10430000808190910B018923811561F0AA81BB8185
:1043100012962C91129711964C9111976C91C7019E
:104320000E947009EA81FB813396FB83EA83FFEFE9
:10433000EF1AFF0A6FCF0E946F06082F80E80E94D5
:1043400084067FE7780F602F80917E030E94A3058B
:10435000EA81FB81EE0DFF1DE756FD4F60837183FF
:10436000828382CF80910C01811529F040E060E0CA
:1043700080E00E94720980910A010E947409C92E8E
:104380008091F1029091F202A091F302B091F402B7
:104390004091E8025091E9026091EA027091EB02CB
:1043A000481759076A077B0708F09FC060917C0394
:1043B00070917D0380917E030E94A305F62EE72E67
:1043C000D82E0CED12E066E471E07B836A83D8019D
:1043D0008C919D2C5701811103C0912CA12CB12CE3
:1043E000AA81BB81EC91F0E0DF01A857BE4F9C9100
:1043F00080910B019823911531F0292D4A2D6B2DB9
:10440000CF010E947009AA81BB811396EC91F0E064
:10441000DF01A857BE4F9C9180910B019823911505
:1044200031F0292D4A2D6B2DCF010E947009F80122
:10443000818180839D2C5701811103C0912CA12C77
:10444000B12CAA81BB811196EC91F0E0DF01A85755
:10445000BE4F9C9180910B019823911531F0292D2D
:104460004A2D6B2DCF010E947009AA81BB81129643
:10447000EC91F0E0DF01A857BE4F9C9180910B01B9
:104480009823911531F0292D4A2D6B2DCF010E94D3
:1044900070090E946F06837091E0811190E0F8012D
:1044A00091830E5F1F4F2A813B812C5F3F4F3B83DF
:1044B0002A832E55314009F08ACF0E949508009139
:1044C000F1021091F2022091F3023091F402DC012A
:1044D000CB01800F911FA21FB31F8093E80290931E
:1044E000E902A093EA02B093EB0281E055E1C51620
:1044F000B1CD80910A010E947409682E992E809195
:104500000C01811561F040E060E080E00E947209DA
:10451000E7E2F3E088E1DF011D928A95E9F78091F7
:104520000A0181111BC0E091ED02F091EE02FB83C4
:10453000EA830E94720B2A813B81821B930B21E04C
:104540008931910508F420E02093EC02499730F07E
:104550000E94720B9093EE028093ED02C12CD12C3D
:10456000712C5AEA552E22242394760144E0842E9D
:10457000F701EA5BFE4F30813983361508F43FC0FE
:10458000391508F03CC0432F50E05B834A83FA01A1
:10459000E857FE4F808190910B018923811571F1BD
:1045A000B701695D7C4F5B01DB011C91012F25E5A3
:1045B000021B08F400E030907D03252D210F08F444
:1045C0002FEF822F880F820F60917E038E5F0E94F3
:1045D0002A06652D601B732D0E94A305472F282FE7
:1045E0008A819B810E9470098091EC02811531F0D3
:1045F000322D131B08F410E0D5011C9373948A9498
:10460000BFEFEB1AFB0A8110B3CFE4E1CE16D10461
:1046100021F481E035E193161DCDF4E0CF0ED11CDD
:1046200025E0721608F4A1CFF4CF50907E03E52C5C
:10463000F12CA701440F551F4E0D5F1D5695479550
:10464000569547955B834A835A8159838FEF90E053
:10465000B7010E94602D362E80910C01811571F0FA
:1046600040E060E080E00E947209E7E2F3E088E168
:10467000DF011D928A95E9F71092F0028091EF0216
:104680008F5F8093EF0297E2C92E93E0D92EA12C81
:10469000B12C3701EA81FB816E1A7F0A4501860140
:1046A000212C8091F002822981114BC00E94FE2DA5
:1046B000853595400CF045C0D6015C92F401EA5B6B
:1046C000FE4FE081EF3FD9F0D8012C91F0E0B981A5
:1046D000B21708F045C030E04A815B81241B350BDE
:1046E000249FC001259F900D349F900D1124B3018C
:1046F0000E944C2D262F452DCF010E947009239436
:104700000C5F1F4F54E0850E911C66E02612C9CF46
:104710007FEFA71AB70A8FEFC81AD80A94E0A91634
:10472000B10409F0BBCF8091EF02381202C01092A1
:10473000EF028091F0028F5F8D31F8F48093F002E8
:104740003BCBF8018081811509F4B8CF851508F0BD
:10475000B5CF9091EF023912B1CF81508083AECFA7
:104760002E9DC0012F9D900D11246A817B810E9496
:104770004C2D462F20E060E0BFCF1092F00227E3DF
:1047800033E085E04BE253E09FEF950D8901E7E2CE
:10479000F3E0853021F46489561201C0948BD8016E
:1047A0006D918D01651548F07D01B1E0EB1AF108BE
:1047B000D7019C93D80113965C9231964E175F07F0
:1047C00041F78150245031098111E0CFF5CA809121
:1047D0000A010E9474098983F92E20917F0331E038
:1047E000230F08F42FEF30E040E050E06FEF7FEF51
:1047F00080E090E00E94842E8901F981EF2FF0E0A3
:10480000FB83EA83EE24E394D22EC12E4A814F1516
:1048100020F081E055E1F5161DCCEA81FB81E857D7
:10482000FE4F808190910B018923811519F1209110
:10483000FB022150022E000C330B27FF22C08D2DCE
:104840009C2D60917F032E2D620F08F46FEF0E9464
:104850003206AC0160917C0370917D0380917E03F0
:104860000E94A7080E94A305472F282F8A819B81B9
:104870000E9470094A815B814F5F5F4F5B834A836F
:10488000C5CFF901E550FD4F818984130AC0F901B4
:10489000EE0FFF1FE550FD4F818D928D8017910720
:1048A00080F221503109C9CF8091FB0221E0682FAD
:1048B000621B08F460E0862F69EB78E00E94ED0E41
:1048C0003ECB8091FB0221E0782F721B08F470E050
:1048D000872F62ED78E0F2CF8091FB0221E0382F44
:1048E000321B08F430E0832F6AE079E0E7CF809153
:1048F000FB0221E0482F421B08F440E0842F6CE3C8
:1049000079E0DCCF6CE379E080E0D8CF8091FB02E6
:1049100021E0582F521B08F450E0852F64E579E020
:10492000CDCF80910A010E94740981E0953192CB2C
:1049300048E050E067E170E08BE793E00E94572E7B
:1049400010927A030895EBE7F3E081E2808380918F
:10495000220190912301A091240181839283A3835A
:104960008FE784838FEF8583E3CF4F925F926F92BF
:104970007F928F929F92AF92BF92CF92DF92EF92EF
:10498000FF92C0909302D0909402E0909502F09034
:1049900096020E94620C2B013C01530142018C18CB
:1049A0009D08AE08BF080E94620C282F60939302F6
:1049B000709394028093950290939602A0913F0386
:1049C000EFE3F3E08A2F30E04FEFC40ED41EE11C7A
:1049D000F11CC418D508E608F708A3132DC080936E
:1049E0003F0380912503811137C030917B03832FD2
:1049F0008370811519F0832F8695869530911B0160
:104A00003230E9F158F5311138C010920A01609343
:104A1000F1027093F2022093F3029093F40289E280
:104A2000EFE3F3E0ABEFB2E001900D928A95E1F78E
:104A300081E080931B0114C0418D528DC416D506B0
:104A4000E104F10420F481503F5F3296C6CF480D57
:104A5000591D528F418FF8CF80E0D0CF3330D1F045
:104A6000FF90EF90DF90CF90BF90AF909F908F908E
:104A70007F906F905F904F90089565D9F1CF8093AC
:104A80001D0180917B03837080931C010E942C1078
:104A900083E0CFCF80917A0381114ADFC090F10289
:104AA000D090F202E090F302F090F4020E94620CC7
:104AB0006C197D098E099F09603171058105910589
:104AC00078F210921B01CCCFA0E1B0E0EAE6F5E26B
:104AD0000C94822DFE01319680E1DF011D928A95B2
:104AE000E9F702E310E099EEA92EB12C27E1422E5E
:104AF00023E0522E612C712C4F0173016201B1E150
:104B00004B165104610471041CF080E1C82ED12CB5
:104B1000A601B501C4010E94572EAC0CBD1C0D2C82
:104B2000000CEE08FF084C185D086E087F08015065
:104B3000104019F76096E0E10C949E2D6FEF85E22E
:104B400090E00E94662E6FEF86E290E00E94662E53
:104B50006FEF87E290E00E94662E60E088E290E0CE
:104B60000E94662E0E941A11AFDF65E285E290E096
:104B70000E94662E68E086E290E00E94662E61E365
:104B800087E290E00C94662ECDB7DEB7AA970FB6F9
:104B9000F894DEBF0FBECDBF85B7806885BF85B7EF
:104BA000806885BF84B7877F84BF0FB6F894A895C7
:104BB00080916000886180936000109260000FBE59
:104BC00080E890E00FB6F8948093610090936100C4
:104BD0000FBE81E08093210188E895E090930B025D
:104BE00080930A020E94170D0E94B30F8091E20089
:104BF00084608093E20078948091A303811599F0FA
:104C00008091E9001091EC008F701795112717958E
:104C1000182B1092E9008091E80083FD0E94FB129E
:104C20001F701093E90082E084BD93E095BD9AEF78
:104C300097BD80936E000E94DE1D811101C07EDF52
:104C40000CE311E052E4E52E51E0F52ED8018D91F0
:104C50008D018F3F11F00E948A05E016F106B1F731
:104C600087EF0E948A0586EF0E948A0585E90E94E7
:104C70008A0583E90E948A0586E0E4E7F3E0DF0124
:104C8000282F1D922A95E9F7E5EFF2E0DF011D924A
:104C90008A95E9F780E090E00E94522E833E9E4F75
:104CA00021F40E94DE1D811128C063EE7EEF80E0BA
:104CB00090E00E94802E60E082E090E00E94662EEC
:104CC00081E08093E70361E083E090E0FFD760E05C
:104CD00074E184E090E00E94802E35DE2FDF40E01A
:104CE00050E0BA018FE090E00E94782E40E050E062
:104CF000BA0183E190E0FCD71BDE82E090E0CAD7E6
:104D00008093680384E090E0CDD79093EB03809389
:104D1000EA030E94F71DEFEFF6E721E0E150F040D3
:104D20002040E1F700C000000E94F71D809174034D
:104D300080FF07C06FEF7FEF80E090E0E1D70E9437
:104D4000521083E090E0A6D70E94A2020E94380A87
:104D50001092FB0240E150E06FEF70E084E193E0DD
:104D600082D710923F0340E150E06FEF70E088E59A
:104D700093E079D781E080937A0348E050E067E1DF
:104D800070E08BE793E076D710927A0380917B03F3
:104D9000843008F4D8DD8FE091E09093C7038093CE
:104DA000C6038091A30310E403E042E1F42E8530B2
:104DB00009F44EC10E94F71DA9E6B3E0BAA3A9A366
:104DC000E4E7F3E0FCA3EBA32FE633E0DF01E9E641
:104DD000F3E091918D912E173F0709F445C1981783
:104DE000C1F3412C512CF12CABA1BCA1BD90BCA3B3
:104DF000ABA3E9A1FAA18191FAA3E9A38B1509F468
:104E0000D5C0682E6B246201E12CAA24A3948A2DBC
:104E10008621811509F4BFC02A2C2B20E982FA8251
:104E20000E94720B9C838B83F1E0FD8391E0211043
:104E300001C090E09E8349815A816B817C818D8184
:104E40000E94331D211439F0F601EA5BFE4F808188
:104E50008F3F09F010C2312C032D10E080913F03E9
:104E6000830D9927991F09974CF198E0892E912C71
:104E7000801A910AB801605C7C4FA40180E493E041
:104E8000D8D6B801685B7C4FA40188E493E0D1D602
:104E9000A401440F551FB801660F771F685A7C4F55
:104EA00088E593E0C6D6B801605B7C4FA40180E53D
:104EB00093E0BFD688E0831980933F03311419F142
:104EC00040913F03872D90E0242F30E0F901E15C11
:104ED000FC4FDC01AA0FBB1FA25ABE4F5C9151834D
:104EE000880F991FDC01AA5BBE4F59968C91818770
:104EF000718AF901EE0FFF1FE15CFC4F128E118EDB
:104F00004F5F40933F03211409F445C080917B0318
:104F10008C7F843609F03FC0F601EA5BFE4F80814A
:104F20008F3F09F438C0812C912C212C90E09C01FA
:104F3000220F331FA901425A5E4F58A74FA3D90130
:104F4000A15ABE4FBAA7A9A7F601E95DFC4FFEA37F
:104F5000EDA38401312CF801EA5BFE4F80818F3F85
:104F600061F02F108CC1E3108AC1ADA1BEA12C91BC
:104F700030E2230F08F42FEF2C9333940F5F1F4F71
:104F8000B4E03B12E8CF2394E4E08E0E911CF8E1EC
:104F90008F169104F1F6E394AA0C2FEFC21AD20AED
:104FA00034E0E31234CFE9A1FAA1B292F39444E0E1
:104FB000440E511C56E0F51217CF0E94620C58C0E7
:104FC0008091A303843009F438C0CFDC809125039D
:104FD00081110DC00E94A31E10921D0180917B03C0
:104FE000837080931C010E942C1000931B0131E000
:104FF000309325031092240348E150E00FB6F89453
:10500000A895409360000FBE1093600083B7817F26
:10501000846083BF83B7816083BF7894889583B7AA
:105020008E7F83BF0FB6F894A89580916000886149
:1050300080936000109260000FBE0E94F71DE4E7AD
:10504000F3E0819181118EC353E0EA37F507C9F788
:105050008091A303853009F4B3CF0E94B9120E9456
:10506000B00A10922503A6CE9813BBCE0E94BC1D99
:105070007CDC86E0ECEDF3E0DE01119601900D9210
:105080008A95E1F7B090DD03F090DE03D090DF0366
:10509000C090E003E090E1031092DE031092DF0382
:1050A0001092E0031092E1038F2D8D29811509F4F0
:1050B00041C000917103109172030E94720B9C0118
:1050C000201B310B9091DA03911509F446C3253169
:1050D000310580F19F3F19F09F5F9093DA03F1143F
:1050E00059F00E946B0A91E01F140CF09FEF899F0A
:1050F000802D11248093DE03D11459F00E946B0A95
:1051000091E01D140CF09FEF899F802D1124809356
:10511000DF038091DE03811569F01091DF03111523
:1051200049F00E945D0A8093DE03812F0E945D0A90
:105130008093DF038C2D8E29811509F441C00091E5
:105140006F03109170030E94720B9C01201B310BA6
:105150009091D903911509F4FBC22135310580F1F5
:105160009F3F19F09F5F9093D903C11459F00E949B
:105170008B0A91E01C140CF09FEF899F802D112465
:105180008093E003E11459F00E948B0A91E01E1411
:105190000CF09FEF899F802D11248093E103809173
:1051A000E003811569F01091E103111549F00E94A7
:1051B0005D0A8093E003812F0E945D0A8093E103E2
:1051C0008091DD03B81219C08091DE03811511F0C2
:1051D000F81213C02091DF03211511F02D110DC01D
:1051E0009091E103911511F09E1107C03091E003F9
:1051F000311103C0822B892B81110E947E0B86E026
:10520000FE013196ACEDB3E001900D928A95E1F785
:105210000E94B00A90917303891721F08093730361
:105220000E94620C8091A303843009F0BACD83E020
:105230008093E9008091E80082FFB3CD8091E8007F
:1052400090E085FF06C00E94E60C811509F452C06B
:1052500091E08091E8008B778093E800911509F444
:10526000A0CD8981EFEDE80FE83008F0D7C0F0E07D
:10527000E059F04D38C4782E33243394EDCD90E0CE
:10528000EFA1F8A54081FC01EE0FFF1FE25AFE4F8F
:105290002081421B550BA9A5BAA52C91880F991FF7
:1052A000FC01EA5BFE4F818D281B330B449FB0014C
:1052B000459F700D700D1124229FC001239F900DFA
:1052C000900D1124860F971F0E943F06382F8932B8
:1052D00008F053CE28E2231B08F420E0F801E95D32
:1052E000FC4F213108F020E13081320F08F43FEF0C
:1052F000308343CE00E210E0CE0101967C01809124
:10530000E80085FD0AC08091E8008B778093E80073
:105310000E94E60C811599F39BCF8091F100D70193
:105320008D937D010150104051F792CF81E280931F
:105330008303109284038DE18093850384E080933E
:10534000860383E893E00E94360D2BCD82E28093A2
:10535000830381E0809384031092850386E0EFCF7E
:1053600083E280938303109284031092850310924A
:105370008603E7CFCA80DB800C2D10E0EC2DED0D0D
:10538000FF27FF1F769724F08DEF80938403D9CFFA
:10539000FAE09E012F5F3F4F79018EEFDF16A8F7ED
:1053A000B3E0EB0EF11C802F8C198D1508F0F9CCB1
:1053B000D70112962C91129711964C9111976C91DE
:1053C000C8010E9470090F5F1F4FEACF60E082E2C0
:1053D0000E94A109E6CC0E94950981E080937A039E
:1053E00048E050E067E170E08BE793E043D410922F
:1053F0007A0380917B03982F9370911509F4D1CC97
:1054000060E086958695E4CF87E28093830385E10B
:10541000BCCF88E28093830382E0B7CFEFEFE80F41
:10542000E33180F4F0E0E858F04D5DC31A828CE07F
:105430008B8319C08A81833009F138F4813061F09F
:105440008230A1F08FEF89830EC08430D9F71B82A0
:105450001C821D821E8207C00E94620C4AD36B838D
:105460007C838D839E83CE0101966DCF88E290E090
:1054700011D41B821C821D828E83F5CF8B8190E01C
:10548000FE0134968630910574F7DC01AC58BC4FB0
:105490002C9121930196F6CF8A81823031F08530AC
:1054A00089F680E00E947E09DECF6B817C818D8150
:1054B0009E811FD388E290E009D4D5CF4C816B81C7
:1054C0008A810E94B4159827892798279E838D8307
:1054D000CACF2D813E813227232732274C816B8111
:1054E0008A810E94F410BFCF0E941A11BCCF9A810A
:1054F000933009F0A7CF8830B9F1893009F461C041
:105500008B81833051F158F4813091F0823009F071
:10551000AACF8C8181111AC00E949509A4CF843032
:1055200009F0A1CF8C8120E040917E036D810AC0FB
:1055300060E88C810E942A06482F80917C0320E03D
:1055400060917D0390E00E94D0098DCF0E94870971
:1055500060E08C810E94A10986CF8C8180937F03BB
:1055600080E00E946A097FCF8B81833039F178F423
:105570008130B9F0823009F076CF80917B03982F8B
:10558000937086958695911117C080E015C0843080
:1055900009F069CF80917C038C8380917D038D839A
:1055A00062CF80917E03EFEF8E9FC0011124880FA0
:1055B000892F881F990B91958C8355CF80917F03FC
:1055C000FBCFB6D950CF80E18A834DCF83E08A8369
:1055D00087E12ECF8A809B80982489249824A12C4F
:1055E000B12C8E010F5F1F4F8C817801E80EF11CEA
:1055F000E016F10609F437CF80E0F7E18F16F3E00B
:105600009F06A104B10420F4C40187519F4F42D3E7
:10561000D80114968C930F5F1F4FBFEF8B1A9B0A14
:10562000AB0ABB0AE5CF8C80912CA12CB12CCA808F
:10563000DB80DC24CD24DC24E12CF12C8E010F5FF7
:105640001F4F212C312C2101281439044A045B04FA
:1056500008F009CFE7E1CE16E3E0DE06E104F1044D
:1056600038F4D80114966C91C60187519F4F2ED300
:10567000BFEF2B1A3B0A4B0A5B0AEFEFCE1ADE0A8A
:10568000EE0AFE0A0F5F1F4FDFCF1EDAECCE84E07A
:105690009BCF8C80912CA12CB12CCA80DB80DC2488
:1056A000CD24DC24E12CF12C212C312C21018E0184
:1056B0000B5F1F4F281439044A045B0408F0D3CE53
:1056C00080E0F0ECCF16D104E104F10418F4C60137
:1056D0008996E0D2D8018D938D01BFEF2B1A3B0A3A
:1056E0004B0A5B0AEFEFCE1ADE0AEE0AFE0AE2CFA1
:1056F0008C80912CA12CB12CCA80DB80DC24CD24A1
:10570000DC24E12CF12C8E010F5F1F4F212C312C5A
:105710002101281439044A045B0408F0A4CEF0ECFB
:10572000CF16D104E104F10430F4D80114966C9141
:10573000C6018996CBD2BFEF2B1A3B0A4B0A5B0AF4
:10574000EFEFCE1ADE0AEE0AFE0A0F5F1F4FE1CF1F
:105750002B30310508F006CD33CD2B30310508F064
:10576000BBCCE8CC80912603811509F471CC80E193
:1057700089BDF9BC09B400FEFDCF8091D8008F7DB2
:105780008093D8008091E00082608093E000809157
:10579000E00081FDFCCF0E94B9125ACC1F921FB6C7
:1057A0001F9211248F939F93AF93BF9380912403F3
:1057B000811113C080914C0290914D02A0914E0234
:1057C000B0914F024196A11DB11D80934C02909360
:1057D0004D02A0934E02B0934F02BF91AF919F91A3
:1057E0008F911F901FBE1F90189578941F921FB61F
:1057F0001F9211248F939F93AF93BF9380914C027C
:1058000090914D02A0914E02B0914F020196A11DC0
:10581000B11D80934C0290934D02A0934E02B09321
:105820004F02BF91AF919F918F911F901FBE1F900C
:1058300018951F920F920FB60F9211242F933F933A
:105840004F935F936F937F938F939F93AF93BF9388
:10585000EF93FF938091E10082FF09C08091E20005
:1058600082FF05C08091E1008B7F8093E1008091F1
:10587000DA0080FF24C08091D80080FF20C0809192
:10588000DA008E7F8093DA008091D90080FFA9C072
:1058900080E189BD82E189BD09B400FEFDCF81E0D0
:1058A0008093A30380913B02811109C00E94170DD0
:1058B0000E94B30F8091E20084608093E2008091A7
:1058C000E10080FF1AC08091E20080FF16C0809145
:1058D000E2008E7F8093E2008091E20080618093FD
:1058E000E2008091D80080628093D80019BC85E0E6
:1058F0008093A30383E0809321018091E10084FFE2
:105900002FC08091E20084FF2BC080E189BD82E13D
:1059100089BD09B400FEFDCF8091D8008F7D8093B2
:10592000D8008091E1008F7E8093E1008091E200B9
:105930008F7E8093E2008091E20081608093E2009C
:1059400080913A02811509F452C084E08093A30348
:105950008091A303843009F052C082E0809321013A
:105960008091E10083FF2CC08091E20083FF28C07A
:105970008091E100877F8093E10082E08093A30320
:1059800010923A028091E1008E7F8093E100809135
:10599000E2008E7F8093E2008091E200806180933C
:1059A000E20042E060E080E00E94830F8091F0001E
:1059B00088608093F00081E0809321018093200132
:1059C000FF91EF91BF91AF919F918F917F916F91D7
:1059D0005F914F913F912F910F900FBE0F901F90AD
:1059E000189519BC1092A30310923B0268CF8091C6
:1059F000E30087FF02C083E0A9CF81E0A7CF81E069
:105A0000ADCF1F920F920FB60F921124EF92FF921B
:105A10000F931F932F933F934F935F936F937F93B6
:105A20008F939F93AF93BF93CF93EF93FF9309EE21
:105A300010E0F8018081C091EC008F70C795CC27F1
:105A4000C795C82B108280EFE82EF12CF7018081DA
:105A5000877F808378940E94FB12F8011082F701FF
:105A6000808188608083CF70F801C083FF91EF91BF
:105A7000CF91BF91AF919F918F917F916F915F91E6
:105A80004F913F912F911F910F91FF90EF900F90A9
:105A90000FBE0F901F901895AA1BBB1B51E107C0AA
:105AA000AA1FBB1FA617B70710F0A61BB70B881FAE
:105AB000991F5A95A9F780959095BC01CD0108953D
:105AC00097FB072E16F4009406D077FD08D0E4DF8C
:105AD00007FC05D03EF4909581959F4F08957095F1
