:10000000B3C30000CEC30000E6C30000CAC30000B3
:10001000C8C30000C6C30000C4C30000C2C30000C0
:10002000C0C30000BEC300000C944125BAC3000049
:10003000B8C30000B6C30000B4C30000B2C30000E0
:10004000B0C30000AEC30000ACC30000AAC30000F0
:10005000A8C3000005010902A10185020901A10050
:100060000509190129081500250195087501810266
:100070000501093009311581257F95027508810632
:1000800009381581257F950175088106050C0A3808
:10009000021581257F950175088106C0C0050109FB
:1000A00080A101850319012AB700150126B7009523
:1000B0000175108100C0050C0901A1018504190119
:1000C0002AA002150126A002950175108100C00624
:1000D00060FF0961A1010962150026FF00952075E6
:1000E0000881020963150026FF009520750891021A
:1000F000C005010906A101050719E029E71500253A
:10010000019508750181029501750881030507199C
:100110000029FF150026FF009506750881000508D7
:100120001901290515002501950575019102950113
:1001300075039103C00E0342002E00660061006348
:1001400000650000001603570069006E006B006533
:100150000079006C0065007300730000000403095F
:100160000409025B00030100A0FA09040000010376
:10017000010100092101010001224400070581035A
:100180000800010904010002030000000921010127
:10019000000122220007058403080001070504036B
:1001A0000800010904020001030000000921010107
:1001B0000001227B000705830308000112011001E2
:1001C00000000008A0204642000201020001E000F9
:1001D000E200E3000000000000000000000000005A
:1001E0000000E7002152E40000000000E1001D00D3
:1001F0001B000600190005000000000000000000C0
:100200003800E5000000000000003A00040016007D
:10021000070009000A000000000000000000330091
:1002200034000000280000002B0014001A00080011
:1002300015001700000000000000000013002F0050
:1002400030003100000029001E001F0020002100A6
:100250002200000000000000000027002D002E00FA
:1002600000002A0000000000000000000000000064
:10027000000000000000000000000000000000007E
:100280000000000023001C000B0011002C000000E7
:100290000000000000000000240018000D00100005
:1002A0000000260012000F003700E60000000000EA
:1002B00000000000000025000C000E0036000100C8
:1002C000010001000000000000000000000000002C
:1002D0000000010001000100000000000100010019
:1002E0002178010000780178000000000000000083
:1002F00001000100000000000000010001000100F9
:1003000001000478037800000000000000000100F4
:1003100001000000010000000100010001000100D7
:1003200001000100000000000000000001000100C9
:1003300001000100000001003A003B003C003D00CC
:100340003E000000000000000000430044004500A3
:10035000000001000000000000000000000000009C
:10036000000000000000000000000000000000008D
:10037000000000003F00010001000100010000003A
:10038000000000000000000040000100010001002A
:100390000000420001000100010001000000000017
:1003A0000000000000004100010001000100010008
:1003B000010001000000000000000000000000003B
:1003C0000000010001000100000000000100010028
:1003D0000100010001000100000000000000000019
:1003E0000100010000000000000001000100010008
:1003F00001000100010000000000000000000100F9
:1004000001000000010000000100010001000100E6
:1004100001000100000000000000000001000100D8
:1004200001000100000001000100010001000100C5
:1004300001000000000000000000010001000100B8
:1004400000000100000000000000000000000000AB
:10045000000000000000000000000000000000009C
:100460000000000001000100010001000100000087
:100470000000000000000000010001000100010078
:100480000000010001000100010001000000000067
:100490000000000000000100010001000100222313
:1004A000252628292A2C2D2F3032333536383A3B51
:1004B0003D3E4042434547494A4C4E5051535557A3
:1004C000595A5C5E6062646668696B6D6F717375C2
:1004D00077797B7D7F81838587898A8C8E909294C2
:1004E00096989A9C9E9FA1A3A5A7A8AAACAEAFB1CF
:1004F000B3B4B6B8B9BBBCBEBFC1C2C3C5C6C7C919
:10050000CACBCCCDCED0D1D2D2D3D4D5D6D7D7D8D2
:10051000D9D9DADADBDBDBDCDCDCDCDCDDDDDDDD24
:10052000DCDCDCDCDCDBDBDBDADAD9D9D8D7D7D62C
:10053000D5D4D3D2D2D1D0CECDCCCBCAC9C7C6C5E3
:10054000C3C2C1BFBEBCBBB9B8B6B4B3B1AFAEAC29
:10055000AAA8A7A5A3A19F9E9C9A98969492908ED4
:100560008C8A89878583817F7D7B79777573716FAD
:100570006D6B6968666462605E5C5A595755535189
:10058000504E4C4A4947454342403E3D3B3A38363F
:10059000353332302F2D2C2A292826252322FFAA55
:1005A0007F55400001010101010101010102020228
:1005B000020202020202030303030303030304040F
:1005C00004040404040505050505060606060607D9
:1005D0000707070708080808090909090A0A0A0B92
:1005E0000B0B0C0C0C0D0D0D0E0E0E0F0F0F101033
:1005F00011111112121313141415151616171718BA
:100600001819191A1A1B1B1C1D1D1E1E1F20202124
:100610002222232424252626272829292A2B2C2D6B
:100620002D2E2F30313232333435363738393A3B8C
:100630003C3D3E3F404142434445464748494A4C81
:100640004D4E4F50515354555658595A5B5D5E5F4D
:10065000616264656668696B6C6D6F7072737577E3
:10066000787A7B7D7E8082838587888A8C8E8F9145
:10067000939596989A9C9EA0A2A3A5A7A9ABADAF6F
:10068000B1B3B5B7BABCBEC0C2C4C6C9CBCDCFD159
:10069000D4D6D8DBDDDFE2E4E7E9EBEEF0F3F5F802
:1006A000FAFDFF1E0F0500047F3F1F643214643201
:1006B00014783C1E1E140A05000000000000000013
:1006C000000000000000000000000000000000002A
:1006D0000000000000000000000000007E0F00D4B9
:1006E000FFFFFFC7000000780000000000000000CE
:1006F0002A2B28000000000000000000000000007D
:1007000000000029000000002C1E34202122243487
:100710002627252E362D3738271E1F202122232459
:1007200025263333362E37381F0405060708090AF5
:100730000B0C0D0E0F101112131415161718191A91
:100740001B1C1D2F3130232D350405060708090A0F
:100750000B0C0D0E0F101112131415161718191A71
:100760001B1C1D2F3130354C11241FBECFE5D8E0A6
:10077000DEBFCDBF23E0A8E3B1E001C01D92A435E8
:10078000B207E1F711E0A0E6B0E0E0E1F1E502C078
:1007900005900D92A833B107D9F70E94381F0C9429
:1007A000E6272ECCA82FB92F80E090E041E050EA58
:1007B000609530E009C02D9182279795879510F0BC
:1007C00084279527305EC8F36F5FA8F30895EADFAA
:1007D0008D939D930895CF93CFB7CF93C395839B6C
:1007E000E9F7839B0EC0839B0CC0839B0AC0839B4D
:1007F00008C0839B06C0C0912E03C395C0932E03EF
:10080000A6C0DF93C0912D03DD27CE5CDC4F839B18
:1008100002C0DF91E6CF2F930F931F9300B32FEF0A
:1008200003FB20F94F933F9310B34FEF012703FBD6
:1008300021F93BE031C04E7F012F10B3216028C069
:10084000102F4D7F2260000000B329C04B7F246031
:10085000012F000010B32BC010B3477F28602AC0BF
:100860004F7E00B320612CC04F7D10B320622FC09B
:100870004F7B00B3206432C0422700B349934FEF4F
:100880000000102713FB20F910B31C70C9F1297F59
:1008900091F2012703FB21F900B3237F89F2315044
:1008A00058F1102713FB22F910B3277E79F20127A4
:1008B00003FB23F92F7C81F200B3102713FB24F9EB
:1008C0002F7971F200C010B3012703FB25F92F73B4
:1008D00059F200C000B3102713FB26F9223040F272
:1008E00000C010B3012703FB27F9243028F64F7707
:1008F000206810B30000F9CF10E81ABF00271CC011
:100900003B503195C31BD04010E81ABF0881033C0F
:1009100011F10B3401F120912B031981110F1213E6
:10092000EDCF4A81441F093669F10D3211F0013EC5
:1009300029F74F7009F0042F009331033F914F9135
:100940001F910F912F91DF91CAB7C7FD47CFCF916C
:10095000CFBFCF91189520913103222379F31091C5
:100960002F03112309F044C034300AF443C03093FC
:100970002F0320932C0310912D033BE0311B309368
:100980002D0338C000912F03013094F50AE54F7014
:1009900049F43091650034FD2FC000936500C8E034
:1009A000D3E02EC0433059F0443091F0309113031E
:1009B00034FD22C000931303C4E1D3E021C0309181
:1009C000480334FD19C000934803C9E4D3E018C0BC
:1009D00030911F0334FD10C000931F03C0E2D3E029
:1009E0000FC02795A8F45150A9F4220F0000F9CFA9
:1009F0004AE503C042ED01C0432FC4E1D0E032E03C
:100A000011B31C60939A11BB02B320E41CE05F9306
:100A1000012756E002BB279520F4515021F4220F04
:100A2000F9CF012756E000003B5A02BBD0F22795D0
:100A300028F4515029F4220F0000F9CF012756E085
:100A4000279502BB20F4515021F4220FF9CF012742
:100A500056E02991332302BB21F6037F1091300326
:100A6000110FC651D04002BB11F010932B0310E8B8
:100A70001ABF086011B3137F402F437F5F9100C0FE
:100A800000C002BB11BB42BB59CF80FF08C0909A87
:100A900081FF07C0919A82FF06C0969A08959098A8
:100AA000F7CF9198F8CF969808958093C102089552
:100AB0008093C202089521E001C0220F8A95EAF7CF
:100AC0008091C202822BF4CF21E001C0220F8A95CF
:100AD000EAF7822F80959091C2028923E9CF292FCE
:100AE000983090F58F3080F590E03FE0239F800DA7
:100AF000911D112451E081FD54E080FD550F82FDD0
:100B0000529523E0969587952A95E1F7FC01EE0F23
:100B1000FF1FE80FF91FE958FD4F20E030E070E0BB
:100B20004191DF01CB01022E02C0969587950A9470
:100B3000E2F78695880B8427852384278E932F5F81
:100B40003F4F2330310561F70895292F983070F514
:100B50008F3060F590E03FE0239F800D911D1124C0
:100B6000682F677023E0969587952A95E1F7FC0139
:100B7000EE0FFF1FE80FF91FE958FD4F40E050E06E
:100B800080E0219130E0062E02C0369527950A9428
:100B9000E2F72170042E01C0220F0A94EAF7822B9B
:100BA0004F5F5F4F4330510561F7089580E008952E
:100BB0009091C20221E030E0F90101C0EE0F8A9568
:100BC000EAF7D90101C0AA0F6A95EAF7EA2B01C03A
:100BD000220F4A95EAF7892F8E23E81303C0892F45
:100BE000822B66CF2095822F8923FBCFE091C8020C
:100BF0009091C702E91302C080E008959F0157E079
:100C0000E59FF0011124E753FD4F5181561306C0B3
:100C10005081581303C05581541305C02F5F3F4FB7
:100C2000F901E770E7CF81E008958091C802209133
:100C3000C702281301C0089501968770FACF9091DA
:100C4000C302809589238093C302282F277061F403
:100C5000891751F09091C50292FF06C0869586953E
:100C6000869532DF1092C30208958091BE02909162
:100C7000C602892B9091BF02911589F0892B90E0D3
:100C80002CE331E0F90140812F5F3F4F41119F5F1D
:100C900041E022343407B1F791111092BF028093E2
:100CA0003A01E0917502F0917602309741F00280AE
:100CB000F381E02D309719F08AE391E009950895CA
:100CC000811531F09091BE02982B9093BE02CDCF4A
:100CD00008958095982F8091BE0289238093BE024B
:100CE0000895811511F0F5DFC0CF0895803E91057C
:100CF000D1F1C8F48133910509F481C048F48932F7
:100D0000910509F471C08A32910509F47FC00895F4
:100D100089339105E1F082389105C9F08533910559
:100D200009F45DC00895843E9105D1F148F4823EF6
:100D3000910531F1833E910541F181EE90E00895F6
:100D4000863E9105C1F1873E9105F1F1089520910C
:100D5000C402237009F064C02091C50223FF14C0AF
:100D600089E290E008952091C40220FD45C03091B1
:100D7000C50230FF09C024FD24C083EE90E0089531
:100D80002091C40222FDF7CF08952091C40222FDD4
:100D900044C03091C50230FD43C024FFF5CF11C0DF
:100DA0002091C50221FFF0CF8091C40284FD09C0CB
:100DB00087EE90E008952091C40223FFE5CF24FF41
:100DC000F7CF80E090E008952091C40223FD2BC06E
:100DD0003091C50231FFE1CF84EE90E0089520917B
:100DE000C40225FFD1CFBCCF2091C40225FD1EC077
:100DF0002091C50223FFC8CF89E390E00895209198
:100E0000C40226FFC1CF8AE290E008952091C40277
:100E100026FFBACF81E390E0089582EE90E0089536
:100E200080EE90E0089586EE90E0089585E390E0EE
:100E300008959091C40292FF10C041E0282F2471C0
:100E4000243009F040E031E0282F2871283009F0E3
:100E500030E0431711F02CE0822793FF10C041E0EF
:100E6000282F2471243109F040E031E0282F287127
:100E7000283109F030E0431711F02CE0822730913F
:100E8000C50230FF10C051E0282F2171213009F038
:100E900050E041E0282F2871283009F040E0541735
:100EA00011F029E0822731FF10C041E0282F217185
:100EB000213109F040E031E0282F2871283109F074
:100EC00030E0431711F029E0822794FF02C083FD30
:100ED000877E08950F931F93CF93DF9307DFEC0175
:100EE000D23508F04DC0D03508F0C3C0C03ED105A2
:100EF00030F5CD3CD10508F09AC0C83AD10578F458
:100F0000C53AD10508F090C0C130D10599F1CE01A4
:100F10000497813A910570F1C0E0D0E02BC0CE017A
:100F2000885A91094B97C0F7C85AD0E0CC0FDD1F03
:100F3000C453DF4F0990D881C02DD4641BC0D03476
:100F400090F4D03208F0A8C0C83ED10598F0CE0188
:100F500091509F3108F78D2F6CDF082F8C2F90E078
:100F6000C5DE902B54C08C2F90E0C0DEDF70C82F00
:100F7000D92BD06ACE01DF91CF911F910F910895A7
:100F8000C03882E5D807B8F5C03682E5D80708F042
:100F900056C0C03482E5D807C8F4C03282E5D8070D
:100FA00008F047C08C2F8695869520E2829FC0016D
:100FB0001124C37021E030E002C0220F331FCA9514
:100FC000E2F7E901C82BD92BDD68D4CF8C2F8695A9
:100FD0008695877020E2829FC0011124C37021E0B2
:100FE00030E002C0220F331FCA95E2F7E901C82B97
:100FF000D92BDC68BFCFC03C82E5D80750F48C2FDA
:101000008F71C03AD24580F5982F84EF906AEC0139
:10101000B1CFCE01805C9245809708F07DCFDC2F68
:10102000DF71C0EFD06AA6CFA497D064A3CFD065FC
:10103000A1CF8C2F8F71D82FC1EFD06A9BCF8C2F6F
:1010400086958695877020E2829FC0011124C37027
:1010500021E030E002C0220F331FCA95E2F7E90118
:10106000C82BD92BDA6886CFE4DEC0E0D82FD06257
:1010700081CF8C2F8F71DDDE93E0CC0FDD1F9A9531
:10108000E1F7DF70282F84FF04C090E1899F900171
:101090001124C22FD0696ECF8D2F8F71CADE082F19
:1010A0008C2F90E023DE902BEC01E1CF80E00895BF
:1010B000F894E82FE295EF70F0E041A98F7021E0FD
:1010C00001C0220F8A95EAF7922F9095942391AB55
:1010D00092A9822F892B82AB789408950895CF929C
:1010E000DF92EF92FF921F93CF93DF93462F172F3C
:1010F000E82FF0E0ED55FA4F71110CC0E4918E2FFE
:101100007E2F6E2FDF91CF911F91FF90EF90DF9098
:10111000CF900895F491EF2F86E0689FE0011124AD
:101120002FEF30E0CE01B9010E942F26DB01CA016A
:10113000880F991F65E56A9FA0016B9F500D1124D0
:10114000841B482F440F480FC901811B9109F89F48
:101150007001F99FF00C11248F2D149FB001112400
:10116000672F70E06901C61AD70AB601F69F6001C1
:10117000F79FD00C1124A330B10549F1B901641BCC
:101180007109AB01149FB001159F700D1124672FD9
:1011900070E0261B370BF29FA001F39F500D112426
:1011A000752FCC3FD34050F4A130B105A1F0129778
:1011B00009F0A7CFEF2D852F7F2FA3CFA430B10546
:1011C00069F0169709F49DCF7F2D8D2D9ACF7D2D37
:1011D000EF2D8F2F96CF7F2FED2D93CFE52F7F2DE6
:1011E000F8CFCF93762FC22F682F842F78DF472F29
:1011F000282F8C2F90E08AD2CF9108958091B6024B
:10120000843028F4837084608093B60208958C3A09
:10121000E8F38370886AF8CFCF93DF938091B602AA
:1012200080FD0BC0C0E0D0E020E040E060E0CE01F7
:101230006DD22196C031D105B9F76FD7DF91CF912B
:101240000895FF920F931F93CF93DF93182F062FCC
:10125000F42E8091B60280FF0CC0C0E0D0E02F2DAC
:10126000402F612FCE0152D22196C031D105B9F75E
:10127000D3DFCDB7DEB7E5E00C946C26CF93DF93D8
:10128000EC012091B9029C81892F817090FD822F01
:10129000692F627091FD622F492F447092FD422F99
:1012A000D0DF8C81019687708C83DF91CF91089578
:1012B000762F9091B60290FF08C0682F842F0FDF21
:1012C000962F672F482F892FBCCF0895CF93DF9398
:1012D000EC01E6EBF2E0438162818C81E9DF8C81F5
:1012E0008F5F8C83DF91CF910895CF93DF93EC01D3
:1012F000EC81F0E0E256FB4F4491E6EBF2E06281D4
:101300008181D6DF8C818F5F8C83DF91CF910895AF
:10131000FF920F931F93CF93DF93EC01F12C00E02A
:1013200010E08C8198014091B9026091B8028F0D54
:1013300058DF0F5F1F4F8FE0F80E0031110589F75E
:101340006BDF8C819A8190FF07C08F5F8C83CDB754
:10135000DEB7E5E00C946C268150F8CFEF92FF9257
:101360000F931F93CF93DF93FC018281EE24E394CC
:1013700080FF02C0EE24EA94C0E0D0E020E040E02C
:1013800060E0CE01C3D104E010E0F12C8091DD01DA
:101390008F0D813174F18F70082E001C00088C179E
:1013A0000D0679F44091B9020403A001112455956A
:1013B0004795559547959E016091B8028091B70277
:1013C00010DFFE0C0150104009F72196C031D10505
:1013D000A9F622DF8091DD012E2D213071F48115D7
:1013E00079F081508093DD01CDB7DEB7E6E00C9453
:1013F0006B2687FFD1CF805FCFCF83958F70F2CFE1
:101400008FE0F0CFCF93DF93C0E0D0E020E040E06A
:1014100060E0CE017BD12196C031D105B9F7C0E0A3
:10142000D0E08091DC01082E001C0008C817D00510
:101430005CF180916C00082E001C00088C170D06D2
:101440001CF19E014091B9026091B8028091B702EF
:10145000C8DE2196C031D10521F7DEDE80916B0018
:101460009091DC01980F9093DC0120916C00280F83
:1014700020936C00121614F49F301CF08195809319
:101480006B00DF91CF91089520E040E060E0CE0155
:101490003DD1DFCFA0E0B0E0E0E5FAE00C944B26D0
:1014A000EC01FC812F2F30E0D9010E94B5279B0170
:1014B000AC010E94A5277B018C0180E290E08F1B8C
:1014C0009109FC01A5E59701A8010E94A5275B01F0
:1014D0006C019F01DF010E947A269B010E94BB26BE
:1014E0009B01AC012E0D3F1D401F511FB501C601D0
:1014F0000E94C427022F30E00A3280F5A901440F70
:10150000551F420F531F55954795142F1095E12CE9
:10151000F12C85E5801BD82E8D2DE1FC802F9701C5
:10152000412F6091B8025DDE8FEFE81AF80A80E182
:10153000E816F10489F770DE9C8181E0911519F0BD
:10154000903219F48FEF80936A0080916A00890FBE
:101550008C83CDB7DEB7EAE00C94672685E590E092
:10156000821B930BAC01440F551F480F591F5AF6AD
:101570004F5F5F4FC8CF0F931F93CF93DF93EC0163
:1015800020E030E06091B8028091B7029C8189012F
:101590000F5F1F4F283031053CF4911541F0409109
:1015A000B9021FDE9801EECF4091B902911140E0DF
:1015B00018DE98010031110529F72EDE8C81019685
:1015C00081708C83DF91CF911F910F9108950F93BC
:1015D0001F93CF93DF93843040F5811127C09FB5CF
:1015E0009F7D9FBD26B537B5A82FB0E00E94B527D7
:1015F00023E030E040E050E00E94C427E901FA0116
:1016000086B597B56CE070E00E942F2662177307CD
:1016100080F0C90169E070E00E942F2679BD68BDA5
:10162000DF91CF911F910F91089583E09FB5906254
:10163000D8CF86B597B526B537B5890126B537B564
:1016400066E070E00E942F26C60FD71FE11DF11D36
:1016500085E0CC0FDD1FEE1FFF1F8A95D1F7C80173
:1016600066E070E00E942F2640E050E0260F371F12
:10167000411D511DBE01CF010E94C427E901FA019D
:1016800086B597B58C01B901CA010E9480269B01DD
:10169000AC01D8010E94A5279B01AC01BE01CF017E
:1016A0000E948026770FBB27AA27881F991FAA1F91
:1016B00026B537B5281739071A061B0610F486B564
:1016C00097B5BC01ABCF982F990F990F990F209127
:1016D000B1022770922B9093B10221E0983008F468
:1016E00020E09091B10220FB90F99093B1026FCF6E
:1016F000E0917502F0917602309739F00284F3851B
:10170000E02D309711F060E209950895FC01EE0F8D
:10171000FF1FE80FF91FE45AFE4F618340832283C5
:101720000895382F25EB3203C001112497FF04C020
:1017300080589109892F089580589F4FFBCF809141
:10174000AA0280FF0DC06091870070E0660F771FCE
:101750006038710588F56115710581F1862F08954E
:1017600081FF07C06091870084E0689FB001112469
:10177000EFCF82FF04C06091870088E0F6CF9091A0
:10178000A9029115B9F060918600809187009617A3
:1017900028F098E0899FB0011124DACF899FC00119
:1017A000112423E0880F991F2A95E1F770E00E9429
:1017B0009B26CECF68E0D2CF8FE7089581E00895D1
:1017C0008091AA0280FF0CC06091850070E0759541
:1017D0006795759567956115710541F1862F089597
:1017E00081FF06C06091850070E075956795F3CF25
:1017F0006091850082FD0BC09091A8029115A1F027
:101800006091840080918500961738F0682F70E011
:101810006038710500F38FE70895899FC001112496
:1018200070E00E949B26F4CF61E0D8CF81E008955C
:10183000E0917502F0917602309739F00190F081D5
:10184000E02D309711F00995089580E00895A3E008
:10185000B0E0EDE2FCE00C94532620915801309169
:10186000590128173907B1F0809358019093590115
:10187000E0917502F0917602309761F00084F18575
:10188000E02D309739F023E029838A839B83CE01B2
:10189000019609952396E2E00C946F26A3E0B0E050
:1018A000E4E5FCE00C945326209156013091570159
:1018B00028173907B1F08093560190935701E091B2
:1018C0007502F0917602309761F00084F185E02D89
:1018D000309739F024E029838A839B83CE010196D7
:1018E00009952396E2E00C946F269C01FC01329648
:1018F00080E09FEF4081461759F031969F3F19F4E1
:10190000411101C0982F8F5F8630A1F79F3F09F4E6
:101910000895290F311D97FD3A95F90162830895C5
:10192000FC01329608962191261302C0DF011E9217
:10193000E817F907C1F708958091670008952FB758
:10194000F8946091520170915301809154019091EB
:1019500055012FBF08950895FC018381833081F1E3
:1019600030F48130E9F0823019F180E0089581325D
:1019700009F445C08232C9F724813581213031050F
:1019800009F456C02230310509F459C0232B69F7F8
:1019900081EF90E0809348019093490184E4089599
:1019A0008CEB91E0809348019093490182E1089586
:1019B00081E691E080934801909349018BE5089579
:1019C0008281813061F0823091F08111CECF8DE53E
:1019D00091E0809348019093490184E0089585E463
:1019E00091E0809348019093490186E1089585E351
:1019F00091E080934801909349018EE0089584819D
:101A000095818130910571F08230910571F0892BBB
:101A100009F0ABCF83E791E08093480190934901AF
:101A200089E008958CE891E0F7CF8CEA91E0F4CF5B
:101A30002FEC30E02093480130934901089584E56C
:101A400090E080934801909349018BE7089590912D
:101A5000C50292FB222720F9281771F080FB92F92A
:101A60009093C5026091C4027091C50284E090E039
:101A70000E94682782E0E3C80895FC01608186E047
:101A800090E00C944F278091B10280FD11C08160DD
:101A90008093B102813019F489E08093B10281EB27
:101AA00092E0EBDF8091B1028695869586958FCD89
:101AB00008958091B10280FF08C08E7F8093B102AB
:101AC00081EB92E0DADF80E082CD08951F93CF931F
:101AD000DF93122F8330E0F46830D0F44F30C0F43D
:101AE000C42FD0E0CC0FDD1F2EE1629FC00DD11DB1
:101AF000112490EF899FC00DD11D1124632FCE01B9
:101B000089960E944F27612FCE018A960E944F2707
:101B1000DF91CF911F910895AF92BF92CF92DF9244
:101B2000FF920F931F93CF93DF93A12CB12C00E072
:101B3000650110E012C0FE01259135914F2D612FF6
:101B4000802FC4DF2296F3948F2D8F30A1F78FE082
:101B5000C80ED11C1F5F183039F0E601CC0FDD1F15
:101B6000C253DE4FF12CE7CF0F5F88E7A80EB11C00
:101B70000330F1F6DF91CF911F910F91FF90DF902D
:101B8000CF90BF90AF9008950F93CF93DF93C6EBA4
:101B9000D2E0488159816A817B8188E090E00E948F
:101BA00060276C81262F60E070E0CB01622F83E21A
:101BB0000E944F27DF91CF910F91089585E0809388
:101BC000B6021092B7028FEF8093B8028093B902E9
:101BD0001092BA0286EB92E0D7CF8091BA0283309E
:101BE00018F48F5F8093BA0286EB92E0CDCF80919C
:101BF000BA02811519F081508093BA0286EB92E007
:101C0000C3CFA0E0B0E0E7E0FEE00C944B26D82F75
:101C1000B62E042FA22E9091B60290FF21C0192F4C
:101C200016951695E12FF0E0E657FF4F80818093DF
:101C3000B4029C7F9430C9F46D2F7B2D842F4FDA32
:101C4000962F672F482F892FFCDAD093B702B092D6
:101C5000B8020093B902A11419F086EB92E094DF68
:101C6000CDB7DEB7EAE00C946726823019F4009114
:101C7000B902EBCF863019F4D091B702E6CF8930A4
:101C8000D9F3893111F71951E12FE695F0E0E256C9
:101C9000FA4FC4916D017601C60124E096958795AF
:101CA0002A95E1F710FD10C08D0F9701402F6B2D85
:101CB00098DA8FEFE81AF80ACC0ED11C80E1E8160A
:101CC000F10451F7A9DAC1CF2D2F281B822FEDCFB8
:101CD000E6EBF2E0818121E043816281885F91CF70
:101CE000E6EBF2E0818121E043816281885089CF77
:101CF000E6EBF2E0628121E1620F08F46FEF21E090
:101D0000438181817ECFE6EBF2E0628121E1621BBB
:101D100008F460E021E04381818173CFE6EBF2E0DB
:101D2000438121E1420F08F44FEF21E0628181817C
:101D300068CFE6EBF2E0438121E1421B08F440E08A
:101D400021E0628181815DCF8F929F92AF92BF929D
:101D5000CF92DF92EF92FF920F9388E090E00E9483
:101D600036274B015C016093B6029092B7028093D4
:101D7000B802B092B9021092BA021092BB0210924D
:101D8000BC021092BD0283E290E00E942E279401D3
:101D9000A5018092B6023093B702A092B802509388
:101DA000B9028093BA021092BB021092BC02109248
:101DB000BD020F91FF90EF90DF90CF90BF90AF905A
:101DC0009F908F90089586E090E00E942E27809348
:101DD000B10282FD06C08DE18093B10281EB92E0F9
:101DE0004CDE8091B102803220F087708861809350
:101DF000B1029091B102892F817090FF04C0892FA8
:101E0000869586958695E3CB0F931F93CF93DF93AB
:101E1000833008F56830F8F44F30E8F4C42FD0E090
:101E2000CC0FDD1F9EE1699FC00DD11D112490EFE5
:101E3000899FC00DD11D1124CE0189960E942E27A5
:101E4000082FCE018A960E942E27902FDF91CF91E6
:101E50001F910F91089580E090E0F8CF462F7830E1
:101E600030F46F3020F4833010F4672FCDCF80E052
:101E700090E00895CF92DF92FF920F931F93CF933C
:101E8000DF936C010091C2028091C102082BC2E075
:101E9000D0E010E0C8010C2E02C0959587950A94F9
:101EA000E2F780FD0CC02197A8F7F12C8F2DDF9170
:101EB000CF911F910F91FF90DF90CF900895FC2E4E
:101EC000B6018C2FCBDF06D8019769F3EFCF1F93B4
:101ED000CF93DF93FC012581C081D181CE012115F3
:101EE00079F0611569F0C6DF182F682FCE010E94C6
:101EF0006F05BE01812FB2DFDF91CF911F91089551
:101F00000E94A505182FF5CFCF93DF93EC01B2DF28
:101F1000BE01A4DF0E946A07DF91CF910895FC0102
:101F20002481211599F080819181EEDF282F9295EF
:101F30009F70963099F060F4925F9F70923030F409
:101F4000203FB1F038F481E0283E38F080E0089579
:101F50009A5FF3CF81E0243FC9F7089591E0213FD4
:101F600009F090E081E0283E08F080E0892B089598
:101F700081E00895673021E072078105910528F41A
:101F8000CB0187509D4F0C942E2780E00895CF926F
:101F9000DF92EF92FF92CF93DF93EC01C880D9805C
:101FA000EA80FB80B601C701E5DF9FEFC91AD90AB5
:101FB000E90AF90AC882D982EA82FB82DF91CF91CD
:101FC000FF90EF90DF90CF90089585E290E00E941F
:101FD0002E27863269F486E290E00E942E27843014
:101FE00039F487E290E00E942E2791E0803109F0D9
:101FF00090E0892F81700895A0E0B0E0E2E0F0E188
:102000000C944926FC018281A82EB48081E084834F
:10201000EEE9F4E00491EDE1F5E0E491E090B9023D
:10202000E6948FE7E80EF12CEE0CFF1CEF2CF12C60
:10203000CCE8D1E06D011FEFE01B8E2F90E04C014A
:102040008A2D833030F48091B70288838091B80262
:102050008983B11015C01B821A8296014A81698159
:102060008881BFD88FEFC81AD80A259680E1C81694
:10207000D10431F7D1D8CDB7DEB7ECE00C946526AA
:102080008B818115E1F081508B83189FC001112451
:102090006C8170E00E942F2670E0FB01E256FB4F3E
:1020A0008491801B189FC0011124B4010E942F2627
:1020B0008091B902689FB00111247A83CECF0E942B
:1020C00008276FEF70E00E949B268E159F052CF667
:1020D0008A2D833090F00E9408276FEF70E00E94F5
:1020E0009B2688830E9408272091B8022695622F9C
:1020F00070E00E949B26280F29831A828091B902E2
:10210000893C20F088EC8C838B83A7CF8431D8F76F
:1021100084E1F9CF0C94AD25089524E630E040E346
:1021200050E06CE571E080EB0C94E625A0E1B0E0B6
:10213000ECE9F0E10C944526FE013196DF0180E1E7
:102140001D928A95E9F701E110E099EFA92E92E03E
:10215000B92E612C712C230153944A189E2E8F2E78
:102160006201730181E148165104610471041CF09D
:1021700080E1C82ED12CA601B501892D982D0E9491
:102180004027AC0CBD1C0D2C000C00084C185D0841
:10219000600870080150104019F76096E0E10C9457
:1021A00061266FEF85E290E00E944F276FEF86E295
:1021B00090E00E944F276FEF87E290E00E944F2748
:1021C00060E088E290E00E944F27A6DCAFDF66E285
:1021D00085E290E00E944F2764E086E290E00E9452
:1021E0004F2760E187E290E00C944F27A1E0B0E038
:1021F000ECEFF0E10C94532663EE7EEF80E090E08C
:102200000E94682760E082E090E00E944F2781E012
:102210008093C10261E083E090E00E944F2760E07C
:1022200074E184E090E00E9468271982CE01019653
:1022300024DCC4DCB6DF60E070E0AB018FE090E04E
:102240000E94602760E070E0AB0183E190E00E94B3
:1022500060272196E2E00C946F2660E081E090E038
:102260000E946C2788E19CE00FB6F894A89581BD88
:102270000FBE91BDFFCF1F93CF93DF93162FEA01BF
:10228000288124FF1EC0298138E823272983AE0135
:102290004E5F5F4FFA019C01810F982FD9012F5F8C
:1022A0003F4F8C918193892F821B09F0BAF7612FE0
:1022B000CA010E94E7031C5F1883DF91CF911F9131
:1022C00008952AE52883E3CFCF93DF9390912F03DE
:1022D0009350A2F080912D03CCE0D0E0C81BD1092F
:1022E000CE5CDC4F80912C03803108F069C09830BF
:1022F00009F454C010924E0210922F038091650091
:1023000084FF3FC0809164008F3FD9F1C82F89308E
:1023100008F0C8E0982F9C1B9093640090910803EC
:1023200028E89227909308038115E9F080914801ED
:10233000909149012091470126FF14C1FC012C2FE7
:1023400049E053E03491DA013C934F5F5F4F31969F
:102350002150C1F701962C2F2150820F911D80939F
:102360004801909349016C2F89E093E00E94E703B4
:102370008C2F8C5FC83019F09FEF9093640080938E
:10238000650084E190B39C7031F48150D9F71092CC
:10239000300310922B03DF91CF91089580914E026C
:1023A000893108F0A7CFA82FB0E0A25DBD4FFE0194
:1023B00001900D929A95E1F7885F80934E029CCF31
:1023C0008D3209F0B3C0983009F096CF83EC80933A
:1023D00008038AE580936500109247012881822FC7
:1023E000807609F464C0803259F48981893009F417
:1023F0003FC040F4823049F1833099F1813099F047
:1024000090E01BC08A3009F44EC08B30C9F78C8134
:102410009D81892BA9F781E09A81911101C080E00B
:1024200080936800EDCF2C813D81232B49F72AE46E
:1024300031E020934801309349018F81811130C0F0
:102440008E81891768F5982F2BC080916600809344
:10245000430183E491E0809348019093490191E026
:10246000ECCF809168008093420182E491E0F3CF49
:102470008A819B818115924069F48C819D81892B91
:1024800049F481E0809346018E819F8180934401CD
:10249000909345019FEF27FD9E8180E8809347013F
:1024A0009093640029CF8B8180936600A9CF9A8195
:1024B00010921103E981EC30A8F4F0E0E851F84DF6
:1024C0000C94AE262FE432E081E005C01092120396
:1024D00021E133E082E0209348013093490116C0A6
:1024E0009093300321E133E0F6CF9B81913019F4D2
:1024F000CE0132DA08C09230D9F39330C9F3913269
:10250000B9F39232A9F390E490934701982F95CFB5
:1025100090934F02E7CF9BE4909314039093490369
:1025200090932003DFCF21E133E0CECF80914701AC
:1025300087FFE2CE8091440190914501892B71F093
:1025400080914601813051F4888180936700109218
:1025500044011092450110926400CECE8EE180932A
:102560006500CACEDC012C2F49E053E0FA013D9111
:1025700030834F5F5F4F2150C9F7ECCEFF920F932E
:102580001F93CF93DF93D82F8B01F42EC5E0D33068
:1025900081F0D430A9F08091130384FF18C043E187
:1025A00053E06F2DC80167DECDB7DEB7E5E00C94D0
:1025B0006C268091480384FF0AC048E453E0F1CFC1
:1025C00080911F0384FF03C04FE153E0EACF7CDE1C
:1025D00087E99AE30197F1F700C00000C150B9F60E
:1025E000E3CFA0E0B0E0E7EFF2E10C944A26982EAA
:1025F0008B01EA017A0193E0F694E7949A95E1F76A
:10260000CE2C5B01D12CDC1013C0C77061F04C2FB5
:1026100050E083E0EE0CFF1C8A95E1F7B8016E0DE7
:102620007F1D892DABDFCDB7DEB7EBE00C946626BE
:1026300048E050E0B501892DA1DF88E0A80EB11C6B
:10264000D394E1CF603229F440E250E0BC0184E051
:10265000C8CF0895CF93DF93EC0148E050E0BC0170
:1026600081E0BFDF88E0FE01AAE4B1E001900D92B5
:102670008A95E1F7DF91CF91089546E050E0BC01E3
:1026800083E0AFCF43E050E0BC0183E0AACF2FB797
:10269000F8948091520190915301A0915401B0910E
:1026A00055012FBF0895CF93DF93EC01F0DF8C1B12
:1026B0009D0BDF91CF910895A0E1B0E0E2E6F3E158
:1026C0000C944B26FE013196DF0180E11D928A9524
:1026D000E9F795EBE92E90E0F92E8F01BE2EA12EA1
:1026E000F70181917F018F3F09F444C0F894E82FEE
:1026F000E295EF70F0E021A98F7041E001C0440F36
:102700008A95EAF7922F942B91AB92A9842F80950A
:10271000892382AB789400C0EDEBF0E021E030E05B
:10272000C12CD12C41914F3F79F0A42FA295AF70CD
:10273000A05DB0E08C9190E04F7002C095958795B8
:102740004A95E2F780FF3DC080E090E0C82AD92A90
:10275000220F331F80E0EC3CF80721F7F70182914C
:102760008F3F11F00E94580888E78A95F1F7F80129
:10277000C082D1820E5F1F4F8DEBE81680E0F80615
:1027800009F0AECF40E150E06B2D7A2D83E692E068
:102790000E942127892BB9F080E1EB2DFA2DA3E6C9
:1027A000B2E001900D928A95E1F781E080935202A8
:1027B0006EDF80935002909351026096EAE00C9491
:1027C0006726C901C3CF809152028115B1F30091F0
:1027D0005002109151025BDF801B910B059768F34B
:1027E00040E150E063E672E083E592E00E94212739
:1027F000892B49F080E1E3E6F2E0A3E5B2E0019045
:102800000D928A95E1F710925202D7CF9091B602BD
:1028100090FF2CC0811559F18B3258F58F73880FBA
:10282000880F9091B6029370892B8093B602611540
:1028300019F086EB92E0A8D96091B602669566958C
:1028400070E04BE050E08DE690E00E941427892B69
:1028500091F01092B50281E08093060220E0409151
:10286000B9026091B8028091B702CBC9089581E0A6
:10287000D6CF8AE2D4CF81E08093B50208DF80937F
:10288000030290930402E7CF8091B6028695869565
:102890008F5F8B3208F081E061E0B8CF8091B602A3
:1028A00086958695815009F48AE261E0AFCFEFDE2C
:1028B0009C019091AD028091AE02982B21F0209363
:1028C0000B0230930C029091AF028091B002982BD2
:1028D00021F02093090230930A02E0917502F091F1
:1028E0007602309759F00680F781E02D309731F06D
:1028F00082E08093AB028BEA92E00995089561151E
:1029000009F448C0E82FED5CE33150F4F0E0EC50FE
:10291000F84D0C94AE260E949F0B81958093AE02D9
:10292000C6CF0E949F0BFACF0E949F0B8195809388
:10293000AD02F6CF0E949F0BFACF0E94E00B80936E
:10294000AF02EECF0E94E00B8195F9CF0E94E00B21
:1029500081958093B002E4CF0E94E00BFACF815DB5
:10296000990B21E001C0220F8A95EAF78091AC0211
:10297000822B8093AC02D4CF8091AA028160809395
:10298000AA02CECF8091AA028260F9CF8091AA02DA
:102990008460F5CF4091AD028D3C59F48091AE0238
:1029A00087FF0DC01092AE02411559F41092A90292
:1029B00008C08E3C81F48091AE0218169CF341153C
:1029C00081F08091AF029091B002892B09F0A8CFDD
:1029D0001092A802A5CF8F3C41F447FFF0CF109290
:1029E000AD028091AE028115E0CF803D19F414163E
:1029F000B4F3E5CF9091AF02893D29F41916FCF6A6
:102A00001092AF02DCCF8A3D19F497FFD8CFF8CFF0
:102A10009091B0028B3D29F497FFD1CF1092B00274
:102A2000CECF8C3D19F41916CCF3C9CF982F915DF8
:102A3000983078F4815D990B21E001C0220F8A95CE
:102A4000EAF7822F80959091AC0289238093AC02A3
:102A5000B6CF8D3D31F48091AA028E7F8093AA0279
:102A6000AECF8E3D21F48091AA028D7FF7CF8F3DAE
:102A700009F0A5CF8091AA028B7FF0CF811581F15B
:102A8000982F9450913A38F4682F8AE391E00E948D
:102A9000900C0C943506982F905E983058F4982F2F
:102AA00081E091FD84E090FD880F92FD82950E9467
:102AB0006906EFCF982F955A933020F480E090E08C
:102AC0000C94270C982F985A9B3120F480E090E0CA
:102AD0000C944E0C982F9D5C933110F460E00FCF56
:102AE00008951092BE02ECE3F1E086E011928A951F
:102AF000E9F780E090E00E94270C80E090E00E94DF
:102B00004E0C1092C6020E943506EBEAF2E086E017
:102B100011928A95E9F71092A9021092A8021092D8
:102B2000AA02C5CEDEDF88E19CE00FB6F894A89536
:102B300081BD0FBE91BDFFCF8B3258F4853098F028
:102B4000E82FE550E63278F4F0E0E95FF74D0C94B9
:102B5000AE26833450F48A3308F04EC0853331F00A
:102B600091E0883351F090E008C0E9F781E00E94DD
:102B70005505B7DF01C03ADB91E0892F08958091B8
:102B8000F201807F8093F20181E08093A702F4CF6D
:102B9000A8DF63DB9091F201892F8E7F90FF816027
:102BA0008093F20180FDE8CF817F8093F201E4CF32
:102BB0009091F201892F8D7F91FF82608093F201C5
:102BC00081FFDACF8091F2018160EFCF9091F20125
:102BD000892F8B7F92FF84608093F20182FDF2CF78
:102BE000CBCF9091F201892F877F93FF88608093EC
:102BF000F20183FDE7CFC0CF895391E001C0990F67
:102C00008A95EAF7892FB3CF8D51F7CFCF93C82F8D
:102C10008115D1F18450813A08F0B1C08091A702AA
:102C20008130F9F08230A9F1811130C08091BE026B
:102C3000823221F48C2F80DF811126C0ECE3F1E099
:102C40008081C81709F4CCC0319681E0E234F807DE
:102C5000B9F76C2F8AE391E00E94750C0E9435064B
:102C600013C08091BE02823229F3C43179F040F45E
:102C7000CB3051F0C03111F782E08093A70204C03D
:102C8000C93221F0C833D1F6CF9108951092A7022E
:102C9000D5CFCF3409F469C0B0F4C83290F4CE3146
:102CA00068F5C73009F44EC0C43171F78091A602AF
:102CB000811551F31092A6021092A4021092A5025F
:102CC000E3CFC932F2CFC13509F451C0C23509F49E
:102CD00050C086EFC035C1F6E091A402F091A50284
:102CE000309791F22081982F990F990B820F911DA7
:102CF00091300CF440C08FEF8083C6CFCD51C0938C
:102D0000A602C430C9F078F488E890E0C23031F00F
:102D100089E890E0C33011F487E890E08093A40242
:102D20009093A502B1CFC53051F084E890E0C63051
:102D3000A9F31092A602A8CF86E890E0EFCF85E82D
:102D400090E0ECCF81E08093890084E1809388005B
:102D50008AE0809387008EE18093860088E08093EC
:102D6000850088E2809384008FCF8AE0B5CF8FEF13
:102D7000B3CF81E0B1CF97FFBFCF108285CF8C2F2B
:102D8000805E883060F4C77021E001C0220FCA95D0
:102D9000EAF78091BE02822B8093BE025FCF8C2F18
:102DA000855A833030F48C2F8452990B0E94270C63
:102DB0006BCFEC2FE85AEB3150F4F0E0EE0FFF1F31
:102DC000EE5FFE4F808191810E944E0C5DCF8C2F73
:102DD0008D5C833108F058CF61E08C2F90DD54CFAB
:102DE0006C2F8AE391E00E94900C0E94350631CF4F
:102DF0001F93CF93DF93182FEB0108DF209731F457
:102E0000812F3CDEDF91CF911F91089587EB9BE0EE
:102E10000197F1F700C000002197F0CFFF920F93C8
:102E20001F93CF93DF93C62FD42FF22E8115A9F0D5
:102E30006093B2022CDC80935A0190935B0181E095
:102E4000C1FD84E0C0FD880FC2FD82950E9460062E
:102E5000CDB7DEB7E5E00C946C268091B202681322
:102E600032C000915A0110915B0111DC801B910B63
:102E7000883C910540F51D2F105ECD17A1F0C7705D
:102E800001E0802F01C0880FCA95EAF70E94710601
:102E9000183048F48D2F877001C0000F8A95EAF72B
:102EA000802F0E94600660E070E08F2DA1DF81E03E
:102EB000D1FD84E0D0FD880FD2FD8295183040F618
:102EC0000E947106C5CF81E0C1FD84E0C0FD880F7E
:102ED000C2FD8295F5CFA4E0B0E0E1E7F7E10C9404
:102EE00048267C01FC018481811509F480C061E0E1
:102EF000C7010E94670F8C01F7018581811509F4D4
:102F00006DC1980137572038310508F0D2C0003123
:102F100008F05EC066E071E080E090E02BD881119F
:102F200057C0A12CB12C450101111EC089829A8283
:102F3000AB82BC828E010F5F1F4FC80128D8B02E14
:102F4000A12E813008F444C009F06DC0C8011FD81B
:102F50008130F1F4C8011BD860E570E0893311F0CD
:102F600060E070E045DFE9CF87E0881681E09806F1
:102F7000A104B10469F1B401C5010E94BA0F9FEF29
:102F8000891A990AA90AB90A8111EECF0150CCCF4A
:102F9000823029F4C8010E94C70F38DECECF8330BB
:102FA00029F4C8010E94C70F69DDC7CF843071F4CE
:102FB000C8010E94C70FC12CD12C282F2053330BDE
:102FC0002A303105C0F0C114D10419F58111B5CFF3
:102FD0008091C302877059F0F7018581811539F01E
:102FE0008091C50282FF03C082E00E941F062496E2
:102FF000EDE00C9464264AE04C9DC0014D9D900D7F
:103000001124280F391F69018B2D9A2D0E94C70F9B
:10301000D4CFE7EBFBE03197F1F700C0000091E07F
:10302000C91AD108D0CFE82FF0E0E851F94F9491B8
:10303000792E282F26952695269530E0F901E8521D
:10304000F94FC4908770D12C082E02C0D594C79434
:103050000A94E2F7F901E853F94FA490B12C082E35
:1030600002C0B594A7940A94E2F72854394FF901A5
:103070008490912C02C0959487948A95E2F7C0FEC3
:1030800002C081EEC3DDA0FE02C086EEBFDD60E0BF
:1030900070E0872DADDEA0FE02C086EEEFDCC0FE44
:1030A00002C081EEEBDC80FE48CF60E070E08CE295
:1030B00059CF033098E7190709F443C040F50130B0
:1030C00098E71907E1F1023098E7190709F46AC097
:1030D000011598E7190759F11092B202980130577B
:1030E0002332310508F057C484E090E00E943B276A
:1030F0008093C4029093C502F801E150F047E23298
:10310000F10508F092C0E35DF74D0C94AE26043053
:1031100098E7190799F1053098E7190709F44CC0A9
:10312000F801E851FC47E730F105B0F65EC083E0F6
:103130000E94630B81EB92E00E943D0D49CF80E03D
:10314000F7CF8091B102883088F088508093B10227
:1031500091E0883008F490E08091B10290FB80F912
:103160008093B10281EB92E00E943D0D8091B1020B
:103170008695869586950E94E70A2ACF9091B1029E
:10318000892F869586958695983140F48F5F880FB4
:10319000880F880F9770892B8093B1028091B102BC
:1031A0008160DECF8091B10280FF03C00E94590D83
:1031B0000FCF0E94430D0CCF8091B102869586956A
:1031C00086958F5F8F71843008F080E0880F880FBC
:1031D000880F9091B1029770892BB8CFF801E85110
:1031E000FC47E730F10508F0C6C3E15BF74D0C94EE
:1031F000AE2626E241EE61EE11DEEACE27E245EE92
:1032000065EEFACF26E241EE60EEF6CF27E245EE1C
:1032100064EEF2CF26E241EE62EEEECF27E245EE1B
:1032200066EEEACF28E241E0EBCF8091C4028160F4
:103230008093C4026091C4027091C50284E090E062
:103240000E9468274EDCC4CE8091C50288608093BE
:10325000C502F0CF8091C4028260EACF8091C4029F
:103260008460E6CF8091C4028860E2CF8091C5027D
:103270008160EDCF8091C5028260E9CF8091C40268
:103280008061D6CF8091C4028062D2CF8091C40287
:103290008064CECF26DC8091C4028068C9CF809143
:1032A000C4028C60C5CF8091C5028360D0CF80916D
:1032B000C4028E7FBDCF8091C502877FC8CF809129
:1032C000C4028D7FB5CF8091C4028B7FB1CF809136
:1032D000C402877FADCF8091C5028E7FB8CF809129
:1032E000C5028D7FB4CF8091C4028F7EA1CF809123
:1032F000C4028F7D9DCF8091C4028F7B99CFF1DB7B
:103300008091C4028F7794CF8091C402837F90CF45
:103310008091C5028C7F9BCF9091C402892F8B7FB7
:1033200092FF8460877F92FF886082CF8091C50280
:10333000982F909590FB80F990FB81F988CF909120
:10334000C402892F8F7B96FF806472CFCADB909175
:10335000C402892F97FB87F980586ACF61E08EE01D
:1033600090E00E944F2766CF60E0F9CF9091C402B1
:10337000892F8F7E94FF80615BCF9091C402892F4B
:103380008E7F90FF816054CF9091C502892F877FF7
:1033900093FF88605CCF07379CE7190709F05CC092
:1033A00081E00E94640579C09272F801E052F8470A
:1033B000EB30F10508F04CC0EA5AF74D0C94AE26FC
:1033C0008091B60280FF0CC08E7F8093B60286EBA0
:1033D00092E00E94C40D1092B5020E940C09F8CD33
:1033E00081608093B60261E0869586950FDAF0CD14
:1033F000911521F053DAECCD9115E1F345DAE8CDE2
:10340000911529F00E94700EE3CD9115D9F30E9419
:10341000680EDECD911529F00E94830ED9CD91154D
:10342000D9F30E94780ED4CD911529F00E94990EFF
:10343000CFCD9115D9F30E948E0ECACD911529F0EA
:103440000E94F70DC5CD9115D9F30E94ED0DC0CDA9
:1034500007379CE71907F1F008379CE7190719F1BE
:103460009801205E32452032310518F5811133C0B4
:103470000F7181E090E002C0880F991F0A95E2F772
:103480008C01682F83E090E00E944F27802F0E94DC
:1034900055059ECD81E00E945B0543E062E081E03E
:1034A0000E94D80595CD811511F082E0F4CF82E01D
:1034B00078CF811571F10B359CE7190709F10C35AF
:1034C0009CE7190791F00A359CE71907B9F001301C
:1034D0009CE71907E9F003309CE7190799F00115FB
:1034E0001C47B9F4FEDA0E942D118091C502002418
:1034F00082FF0394802D0E94270D6ACD81E0FBCFCF
:1035000080E0F9CF6FEF7FEF80E090E00E946827C6
:1035100009DBF70100811181811509F447C0C80159
:103520000E943A0FD82E682FC8010E946F05B8017B
:103530008D2D0E942E0F0E946A07182FA92EF701C9
:10354000C580D680D2948FE0D8228091C302877044
:1035500001F1BC2CC114F1F0892F807F803461F01F
:10356000812F805E8830A8F0892F807E803221F400
:10357000123078F0D11469F08091C50282FF09C041
:1035800082E00E941F068091C3028770BB24B3941F
:103590008111B12CEA2DE295EF708A2D803C08F064
:1035A00067C0F0E0EF59F74D0C94AE26C8010E94B9
:1035B000A505D82EBCCF0A2D0F70803110F00295D2
:1035C000007FC114B9F0011569F0812F805E883049
:1035D00010F0111109C08091BE02802B8093BE02B1
:1035E0000E943506812F3EC08091C602802B8093B9
:1035F000C602F6CF812F42DA0115D1F1812F805E0C
:10360000883010F0111104C0802F0E94690606C096
:1036100000958091C60280238093C6020E943506E1
:1036200027C00A2D0F70807F803211F00295007F35
:10363000113040F009F463C0C11409F46EC0D11414
:1036400099F1D0CF8091C50282FD2AC0C11461F0EA
:10365000011539F08091BE02802B8093BE020E943A
:10366000350680E0D3DA04C080E008DA0111CCCF5F
:10367000B11409F4B1C08091C30280FDADC0F7015F
:1036800015828695869586950E945B05C70123DC89
:103690008091C3028695869586950E9464059CC09C
:1036A000C11499F0D11004C0802F0E946006E0CFB1
:1036B0008D2D8130E9F68091BF02902F9823091754
:1036C000B9F2802B8093BF02D3CFD110D1CF802FFE
:1036D0000E9471069091BF02802F892329F0802FCC
:1036E000809589238093BF028091C002902F9823F8
:1036F00009F4BECF009508230093C002B9CF8D2DE9
:10370000C11421F0863008F0B3CFCECF853008F059
:10371000AFCF802F0E947106ABCFD114D1F31933F4
:1037200049F48FEF9DEE22E0815090402040E1F778
:1037300000C00000812FA2D99BCF8695869583700B
:10374000813060F009F094CF812F9A2D9370C110D1
:1037500002C080E090E00E944E0C8ACF812F9A2D0B
:103760009370C11002C080E090E00E94270C80CFCF
:103770006C2D812FC4D87CCF8370F1F5C11028C087
:10378000812F829586958770880F880F412F4F7003
:10379000082E01C0440F0A94EAF7212F207114FF6C
:1037A00006C02FE001C0220F8A95EAF720958A2DE6
:1037B000869586958370982F8230B1F08330C9F05A
:1037C0008091C102913069F0242B82230E9455051B
:1037D0000E94180C0E94450560E0C7010E94670F17
:1037E00006CC842B822BF2CF242B8091C10282271E
:1037F000EDCF822F842BEACFC11459F1A0FEE8CF80
:10380000812F829586958770880F880F412F4F7082
:10381000082E01C0440F0A94EAF7212F207114FFEB
:1038200006C02FE001C0220F8A95EAF720958A2D65
:10383000869586958370982F823091F08330A9F019
:103840008091C202913049F0242B82230E945805B6
:10385000BFCF823008F4BCCFD3CF842B822BF6CFDE
:10386000242B8091C2028227F1CF822F842BEECFAE
:103870008F70082FC11431F00E945B05812F0E94C8
:103880006006A6CF812F0E947106802F0E946405DA
:103890009FCF123F79F168F4103FC1F0113F89F0DA
:1038A000C11409F455C0D11409F44FC0812FAED909
:1038B0008FCF133F29F1143F99F79091C50292FDE4
:1038C0002CC08A2D8F71C11409F317C08D2DC1141E
:1038D00079F0853008F07CCF8A2D8F71282F81E018
:1038E00001C0880F2A95EAF79091C2028927AECFCE
:1038F0008630F0CF8F71C110C9CF0E945B0568CFB1
:1039000080E0C11409F4A2CF8A2D8F71982F81E035
:1039100001C0880F9A95EAF799CFC11459F08F71B9
:1039200092FFEBCF982F990F990F990F9360909377
:10393000C302E3CF81E00E941F068D2D823008F480
:1039400047CF82E00E941F0643CF8A2D8F71D5CFCB
:10395000D11471F0193349F48FEF9DEE22E08150BC
:1039600090402040E1F700C00000812F87D830CF81
:103970008A2D8F718BCF06319CE7190709F00BCD8B
:103980008091B30265E3811101C069E28AE391E0AD
:103990000E94900C16C09091BE0206312CE71207CF
:1039A00009F002CD9A7A81E0911101C080E0809304
:1039B000B30265E3911101C069E28AE391E00E94DC
:1039C000750C0E94350604CB80910703803170F49A
:1039D00080910603811551F0E091C8022091C70241
:1039E00030910203409101032E1301C00895BF01DD
:1039F00087E0E89FF0011124DF01A753BD4F149623
:103A00008C911497811551F111968C911197831314
:103A100025C08C91841322C015968C911597811125
:103A20001DC012968D919D91A0910303B091040346
:103A30008A1B9B0B883C910588F4809107038F704B
:103A4000806180930703E153FD4F80818F70806117
:103A5000808381E093E03FDA0C9415066F5F7F4F1F
:103A6000FB01E770C1CFADE0B0E0E9E3FDE10C940C
:103A700048268C0186E0F801DE01189601900D922F
:103A80008A95E1F7F801F580848191E0892E93E031
:103A9000992E70900503711017C0811591F0F114E3
:103AA00009F40EC1C8010E948F0F811509F408C1E5
:103AB00087E0F801A1E0B3E001900D928A95E1F76B
:103AC00083DFFF24F39455C0D080A280B380C090E0
:103AD00006032091030330910403A501421B530BFD
:103AE000C11409F4BDC0483C510508F076C08115E9
:103AF00041F3809102039180E09007039E2D903165
:103B000008F057C0981214C0809101038D1110C0A5
:103B1000F11049C08E2D8F7080618093070381E082
:103B200093E0D9D980910703F8018683F12C21C055
:103B3000F11039C040E0692D8D2D0E94F60540E05E
:103B4000692D8D2D0E94F605F82E8111EFCF888505
:103B500099850E94840F292F22952F70903470F43C
:103B60009F70223098F09115A9F0F801968190315C
:103B700088F48F2D2D96EDE00C9464262A5F2F702B
:103B8000223060F0C801A7D9FC2CF3CF911511F0B9
:103B9000811579F3805E883060F3F4CF803F48F37D
:103BA000815F8330F9CF80910703816080930703A1
:103BB000BDCF981237C0809101038D1133C0F11031
:103BC00031C0E682C80187D987E0F801A1E0B3E0FF
:103BD00001900D928A95E1F774CFE09007039E2D36
:103BE000903148F481E093E076D9F40187E01192B6
:103BF0008A95E9F79BCF811509F463CF9091020371
:103C0000818198130FC0809101038D110BC0F110B9
:103C100009C0E682C8015FD9F40187E011928A9554
:103C2000E9F74FCFC8010E948F0F811509F448C0F2
:103C3000F11409F445C08E2D803208F439CF8091FB
:103C400001039091020389839A83AB82BC827D82B7
:103C50001E82809107038F83CE0101963CD928CF25
:103C6000483C510508F0C1CF811509F42ACFF11461
:103C700039F1909102038181981318C0809101035A
:103C80008D1114C08091070380FD9ECF803108F410
:103C90009BCF8683807F803F09F494CF8681982FC5
:103CA000907F905F8F70892B86838CCFC8010E9494
:103CB0008F0F8111FDCE80910703816080930703F0
:103CC000C80109D9FECEABE1B0E0E8E6FEE1E9C704
:103CD0004E8B5F8B688F798F8A8F192F9B8F9111F5
:103CE0001092C6021D8A86E0FE017696DE011F96BE
:103CF00001900D928A95E1F70A8D011561F00B8B09
:103D00001C8B61E0CE010F960E94670F61E0CE012F
:103D10000F960E94670F0B8B1C8B87E0FE013F966E
:103D2000DE01189601900D928A95E1F7CE01089672
:103D30009ADE81112EC02091C7023091C80287E01F
:103D4000AE01485F5F4FFA0147505109DA01019017
:103D50000D928A95E1F78C858115D9F0822F90E03C
:103D60008395877090E0AC0134171506D9F097E081
:103D7000929FD0011124A753BD4F9E012F5F3F4F4B
:103D8000F90101900D929A95E1F74093C7020E94C4
:103D900015068091C8029091C702891310C06B96D6
:103DA000E4E09BC70E9471151092C7021092C802EE
:103DB000E1E0F3E087E011928A95E9F7EACF27E0A6
:103DC000829FC001112487539D4F4DDE811539F329
:103DD0008091C8029091C902019687708093C802B1
:103DE000D8CFA6E0B0E0E6EFFEE15BC70E94471344
:103DF0008C0180917302909174028017910771F089
:103E000019821A820E944713BC0149815A8180E0BD
:103E100090E059DF00937302109374022696E4E059
:103E20005CC7CF93DF9380912E03811579F01092B8
:103E30002E030E9447138093DE019093DF011092BE
:103E4000E1018091E101DF91CF9108958091E1013D
:103E50008111F7CFC091DE01D091DF010E9447139D
:103E60008C1B9D0B069768F381E08093E101E9CFFD
:103E7000CDB7DEB72A970FB6F894DEBF0FBECDBF21
:103E800084B7806884BF84B7806884BF0E9447136A
:103E90008093DE019093DF0186E598E080933801FE
:103EA0009093390185B7886085BF8BB780688BBFD9
:103EB0008BE48093140380934903809320038AE565
:103EC000809313038093480380931F038B9A8FEF93
:103ED000A895E7EBFBE03197F1F700C000008150B7
:103EE000B9F78B9878948BE083BF8BEB8CBF82E023
:103EF00089BF0E94E50F811102C00E94D110E5EB3D
:103F0000EE2EE0E0FE2E0DEB10E0F70181917F0137
:103F10008F3F11F00E9458080E151F05B1F70DEBE9
:103F200010E0F80181918F018F3F11F00E94580835
:103F300080E00C3C1807A9F7E3E5F2E080E111927C
:103F40008A95E9F7E3E6F2E080E111928A95E9F7D4
:103F500080E090E090D7833E9E4F21F40E94E50FD1
:103F6000811102C00E94F61082E090E077D7809322
:103F7000F20184E090E07FD78093C4029093C50261
:103F80000E945C138FE399E121E081509040204032
:103F9000E1F700C000000E945C138091530280FF93
:103FA00007C06FEF7FEF80E090E092D70E942D1165
:103FB00083E090E053D70E945505889A9098899A9B
:103FC00091988E9A96988C9A949882E28FBD89E106
:103FD0008EBD8FEF9FEF97BD86BD0E94E30E0E94BE
:103FE000E30E8091E001811120C086EB92E00E94F7
:103FF000A40E8091B602843030F40E94DE0D86EB70
:1040000092E00E94A40E0E94FE081092B5020E9447
:104010008A108091B60280FF05C060E08695869583
:104020000E94061481E08093E00188E790E080938D
:104030007502909376028FEB94ED21E081509040D1
:104040002040E1F700C00000ECDE8111C7C00E94F3
:10405000641180914F02811509F4CCC18091130342
:1040600084FFC8C10E945C1373EF472E71E0572E86
:1040700083E592E08F83988723E032E0FC01D20150
:104080004D915D91808191812A173B0709F4B2C05F
:10409000329648175907A1F302EE11E0312CEF8157
:1040A000F885C190D190EF83F887F20181919191C9
:1040B0002F018C159D0509F44DC08C259D25898700
:1040C0009A87E12CF12C5701A39489859A858A213E
:1040D0009B21892B91F146018A209B2051E0652E7E
:1040E000712C0E2C02C0660C771C0A94E2F7F801C2
:1040F0008081918186219721892BA1F4E9823A82DE
:104100000E9447138B839C8381E08D8391E081140F
:10411000910409F490E09E8349815A816B817C81EE
:104120008D81D1DD892849F460947094F8018081F3
:1041300091818621972180839183AA0CBB1C8FEFEC
:10414000E81AF80A8FE0E816F10409F0BECFF20190
:10415000D292C29233940E5F1F4F832D883009F0A4
:104160009ECF0E949F0C4BC08091E101811531F0E0
:1041700080E00E94630B80E00E9445050E945C1372
:10418000E3E5F2E0A2EEB1E080E0219131912D93E0
:104190003D9391E0232B09F490E0892B23E632E054
:1041A0002E173F0791F78115C9F0F89491B3939AB0
:1041B000892F8C6081BB82B32CE0822782BB8FE584
:1041C0003AEE40E0815030404040E1F700C000004E
:1041D00082B3822782BB91BB9398789422DE8111AF
:1041E000C3CF0E9471150E94E30E0E94180C0E941A
:1041F00045052DCF4817590709F04ECFF2DD8091C4
:10420000B502811509F444C08091B402E091B60270
:10421000E695E695E81BE0930502853109F467C150
:1042200008F012C1893009F456C108F0FEC082308E
:1042300009F43BC1863009F443C100ED17E03EE6C6
:10424000E32E38E0F32E80910602811561F0109282
:1042500006020E9447138093030290930402109277
:104260000702109208020E94471320910302309126
:104270000402821B930B8F3F9F4750F4200F311F86
:10428000209303023093040283E092E0F701099542
:1042900086E0EBEAF2E09E012F5F3F4FD9010190EB
:1042A0000D928A95E1F7B090AC02D090AD021091DA
:1042B000AE02C090AF020091B0021092AD02109217
:1042C000AE021092AF021092B002812F8D29A22E61
:1042D000932E8115A1F0E0900B02F0900C020E9449
:1042E00047138E199F099C019091A902911509F419
:1042F00009C1809188008217130608F411C1802F2C
:104300008C2909F441C0E0900902F0900A020E9451
:1043100047138E199F099C019091A802911509F4E9
:10432000ABC32135310580F19F3F19F09F5F90931A
:10433000A802C11459F00E94E00B91E01C140CF08B
:104340009FEF899F802D11248093AF02011559F0B2
:104350000E94E00B91E010160CF09FEF899F802DDA
:1043600011248093B0028091AF02811569F0F09022
:10437000B002F11449F00E94910B8093AF028F2D8F
:104380000E94910B8093B0028091AC028B1119C0F6
:104390008091AD02811511F08D1113C02091AE02F4
:1043A000211511F012130DC09091B002911511F06A
:1043B000091307C03091AF02311103C0822B892B42
:1043C00011F00E94571486E0EA2DF92DABEAB2E015
:1043D00001900D928A95E1F70E94180C182F809198
:1043E0000D02181739F010930D020E949F0C812FB7
:1043F0000E9445050E94641180914F02811509F4C5
:1044000023CE80911F0384FF1FCE80914E02803205
:1044100009F01ACE80912E02E82FE152E83008F020
:104420001EC1F0E0E359F74D99C48F3009F005CF74
:10443000E695F0E0E555F94FE4910E2F10E0BEEA65
:10444000EB2EB9E0FB2EFFCE04EF11E07BEBE72E65
:104450007AE0F72E843209F4F6CEA8F408E210E0F0
:104460006AE4E62E6AE0F62E883109F4ECCE833257
:1044700009F0E3CEE6EAF6E005911591FEE3EF2EB2
:10448000F9E0FF2EE0CE853209F0D7CE8E2F63E023
:1044900046D4E92FF0E0ED55F94FE4910E2F10E0EE
:1044A000ECEFEE2EEFE0FE2ECECEF0E0EC54F94F26
:1044B000E4910E2F10E025E7E22E29E0F22EC3CE84
:1044C000F0E0EF54F94FE4910E2F10E096E6E92E5C
:1044D00099E0F92EB8CEE695F0E0E255F94FE49177
:1044E0000E2F10E088E8E82E89E0F82EACCEF0E040
:1044F000E855F94FE4910E2F10E0A2E0EA2EAAE071
:10450000FA2EA1CE409189008AE0489FA001112493
:104510004217530708F0F3CE9F5F9093A90202C0A1
:104520009F3FD1F7D11459F00E949F0B91E01D14C9
:104530000CF09FEF899F802D11248093AD021115FF
:1045400059F00E949F0B91E011160CF09FEF899F8C
:10455000802D11248093AE028091AD02811509F463
:10456000CECEF090AE02F11409F4C9CE0E94910BA8
:104570008093AD028F2D0E94910B8093AE02BFCE2F
:1045800081E280930E0210920F0280E2809310026B
:104590008BE0809311028EE092E00E94780B29C09C
:1045A00082E280930E0281E080930F02109210024B
:1045B00086E0EFCF83E280930E0210920F021092FA
:1045C000100210921102E7CF10912F0200913002D9
:1045D000212F200F3327331F8DEF213131056CF44C
:1045E0000A3050F45EE2E52E52E0F52E010F011381
:1045F00007C010924E0228CD8EEF80930F02CBCFD2
:104600008091B60280FF0CC0103150F4F701258173
:1046100044816381812F90E00E94860B0E940C09E7
:1046200083E0E80EF11C1F5FE2CF86EB92E00E9470
:10463000A40E0E94FE088091B60280FFDACF60E0EF
:10464000869586950E940614D4CF87E280930E0249
:1046500080E1D3CF88E280930E0282E0CECFE82FB4
:10466000E150E33198F4F0E0EB58F74D77C3109246
:104670002F028CE08093300223C080912F02833080
:1046800071F140F48130F9F0823079F08FEF80934E
:104690002E0216C08430D1F71092300210923102EF
:1046A00010923202109233020BC088E290E0D6D30F
:1046B0001092300210923102109232028093330233
:1046C0008EE292E06ACF0E949F0C4ED3609330023C
:1046D000709331028093320290933302F1CF809134
:1046E000300290E0EEE2F2E0883091054CF732962D
:1046F000118212820196F8CF80912F028230B1F0A0
:10470000853021F68091B10280FF1DC00E94590DB5
:104710008091B60280FF1AC08091B6028E7F80938E
:10472000B6021092B5020E940C09CACF6091300205
:1047300070913102809132029091330215D388E258
:1047400090E0ADD3BDCF0E94430DE2CF8160809356
:10475000B60260E0869586950E940614B1CF40911E
:1047600031026091300280912F020E94040F98273D
:10477000892798278093320290933302A1CF20910A
:1047800032023091330232272327322740913102FF
:104790006091300280912F020E94660D91CF0E949D
:1047A0008C0D8ECF90912F02913099F58830B1F019
:1047B000893051F180913002813009F081CF209110
:1047C000310230E0C901880F991F820F931F6FEFEC
:1047D00070E045D2862F0E94630B72CF8091300229
:1047E000813031F0823009F06BCF1092310268CF06
:1047F0008091B10286958695869525E5829FC001B8
:104800001124809331025CCF81EB92E00E943D0D38
:1048100057CF923009F03ACF8830D1F1893009F47E
:104820005CC080913002833071F1C0F4813009F1B5
:10483000823009F045CF80913102811509F46CCFA7
:104840008091B60281608093B60260E0869586957D
:104850000E94061460E0809131027ECF843009F01E
:104860002FCF20E04091B902609132028091310255
:1048700007C020E0409131026091B8028091B702F8
:104880000E94010E1DCF809131028093BA0218CF91
:10489000809130028330F1F060F48130B1F08230E9
:1048A00009F00ECF8091B60280FF12C086958695E2
:1048B000A8CF843009F004CF8091B70280933102F1
:1048C0008091B80280933202FBCE8091B90299CFD9
:1048D00080E097CF8091BA0294CF0E94FE0886EBC9
:1048E00092E00E94C40DECCE80E180932F02E8CECE
:1048F00081E080932F0287E0BDCE80902F029090C0
:104900003002982489249824A12CB12C8EE2E82E20
:1049100082E0F82E0091310210E0025D1D4FE0169A
:10492000F10609F4CDCE87E0881681E09806A1044F
:10493000B10478F4C40187509D4F90D2F70184836D
:104940008FEFE81AF80A8FEF881A980AA80AB80AAF
:10495000E6CF80E0F3CF70903102C0902F02D0906C
:104960003002DC24CD24DC24E12CF12C0EE212E018
:104970004701540187149104A104B10408F0A0CEAA
:1049800087E0C81681E0D806E104F10430F4F801AC
:104990006481C60187509D4F82D28FEF881A980A92
:1049A000A80AB80A8FEFC81AD80AE80AF80A0F5FEF
:1049B0001F4FE0CF0E94961083CE83E096CF709079
:1049C0003102C0902F02D0903002DC24CD24DC24B0
:1049D000E12CF12C4701540102E312E08714910409
:1049E000A104B10408F06CCE80EDC81682E0D806B0
:1049F000E104F10488F4C601899630D2F80181936C
:104A00008F018FEF881A980AA80AB80A8FEFC81A80
:104A1000D80AE80AF80AE2CF80E0F0CF70903102BD
:104A2000C0902F02D0903002DC24CD24DC24E12C75
:104A3000F12C0EE212E04701540187149104A10405
:104A4000B10408F03DCE80EDC81682E0D806E1043E
:104A5000F10428F4F8016481C601899620D28FEF11
:104A6000881A980AA80AB80A8FEFC81AD80AE80A5A
:104A7000F80A0F5F1F4FE1CF2B30310508F056CCFD
:104A800083CC78941F921FB61F9211248F939F930B
:104A9000AF93BF938091520190915301A091540123
:104AA000B09155010196A11DB11D809352019093C3
:104AB0005301A0935401B0935501BF91AF919F91C1
:104AC0008F911F901FBE1F901895EF92FF921F931A
:104AD000CF93DF93182FEB0116BE84EA86BF0E94A6
:104AE00047137C0106B607FE20C081B1887F88305D
:104AF00021F081B1887F803169F513B984E886BFE0
:104B00000E9447137C0106B607FE1DC021B1287F15
:104B100080E090E0283189F081E090E0203409F4D1
:104B200080E091958195910908C0C7010E945313B7
:104B3000C817D907B8F68EEF9FEFDF91CF911F917D
:104B4000FF90EF900895C7010E945313C817D9072B
:104B5000D0F6F1CF8FEF9FEFF0CF11B887E080B99B
:104B600085B3836085BB86B7846086BF86B7816066
:104B700086BF86B7806486BF08950F931F93CF9337
:104B8000DF93EB0183B984E886BF0E9447138C0151
:104B900006B607FE0FC021B1287F81E090E02832E1
:104BA00009F480E0919581959109DF91CF911F9152
:104BB0000F910895CF3FDC0759F3C8010E945313AA
:104BC000C817D90728F78EEF9FEFEFCFA0E0B0E02E
:104BD000EBEEF5E25DC0982E862E772E6A01790104
:104BE0000E9447135C0184E1E816F10408F18FEF9D
:104BF000E816FE0401F1C70164E170E030D0162F21
:104C0000072F612F702F892D60DFEC01892BA9F40C
:104C1000082D172DC00ED11E0C151D0511F0209763
:104C2000B9F084E986BFCE01CDB7DEB7EDE04CC068
:104C300011E000E0E6CF15E0FCCF8FEFE816FE04B0
:104C400001F3C5010E945313E816F906D0F6E0CF30
:104C5000B701F80181918F0190DFEC01DDCFAA1B34
:104C6000BB1B51E107C0AA1FBB1FA617B70710F057
:104C7000A61BB70B881F991F5A95A9F78095909589
:104C8000BC01CD0108952F923F924F925F926F9297
:104C90007F928F929F92AF92BF92CF92DF92EF92CC
:104CA000FF920F931F93CF93DF93CDB7DEB7CA1B4D
:104CB000DB0B0FB6F894DEBF0FBECDBF09942A8878
:104CC000398848885F846E847D848C849B84AA8420
:104CD000B984C884DF80EE80FD800C811B81AA81AD
:104CE000B981CE0FD11D0FB6F894DEBF0FBECDBF78
:104CF000ED0108953AD1332312F48A1B9B0B3CC07B
:104D0000DB018F939F9321D1BF91AF91A29F800D23
:104D1000911DA39F900DB29F900D11240895992786
:104D200078E0880F991F961708F0961B881F7A95D0
:104D3000C9F78095089597FB072E16F4009406D0C6
:104D400077FD08D08CDF07FC05D03EF49095819567
:104D50009F4F0895709561957F4F0895EE0FFF1F47
:104D60000590F491E02D0994692796276927782703
:104D7000872778270895F9D0B7FF0895821B930BF2
:104D80000895AAE0B0E0E6ECF6E28DCF89879A8735
:104D9000FC01608171818281938100977040604045
:104DA00021F464E279ED8BE597E02DE133EF41E00A
:104DB00050E0AFD029833A834B835C839B01AC01E5
:104DC000A7EAB1E4C2D06D837E838F839887ACEE6F
:104DD000B4EF29813A814B815C81C3D02D813E8122
:104DE0004F815885260F371F481F591FC901DA0107
:104DF000B7FF03C00197A109B048E985FA85808310
:104E00009183A283B3839F772A96E2E068CFB9CFDC
:104E100080E690E0B6CF809360009093610010929E
:104E20006200109263000895FC014150504030F040
:104E300001900616D1F73197CF0108958827992759
:104E40000895FB01DC0104C08D910190801921F4CB
:104E500041505040C8F7881B990B0895E199FECF47
:104E60009FBB8EBBE09A99278DB30895A6E1B0E071
:104E700044E050E040C0A8E1B0E042E050E03BC078
:104E8000DC01A40FB51F4150504040F0CB01840F0E
:104E9000951F2E9105D041505040D8F70895262FE8
:104EA000E199FECF9FBB8EBBE09A01970DB202162F
:104EB00031F02DBB0FB6F894E29AE19A0FBE089537
:104EC0000396272FEDDFEBDF252FEADF242FE8CF36
:104ED0000196272FE5DFE3CF262FE199FECF9FBB79
:104EE0008EBB2DBB0FB6F894E29AE19A0FBE0196E5
:104EF0000895DC01CB01FC01E199FECF06C0FFBBA8
:104F0000EEBBE09A31960DB20D9241505040B8F789
:104F10000895052E97FB16F400940FD057FD05D089
:104F200033D007FC02D046F408C050954095309528
:104F300021953F4F4F4F5F4F089590958095709505
:104F400061957F4F8F4F9F4F08950FD0A59F900D74
:104F5000B49F900DA49F800D911D11240895B7FF5B
:104F6000F4CFF3DF821B930B0895A29FB001B39F90
:104F7000C001A39F700D811D1124911DB29F700D62
:104F8000811D1124911D0895A1E21A2EAA1BBB1B9D
:104F9000FD010DC0AA1FBB1FEE1FFF1FA217B30705
:104FA000E407F50720F0A21BB30BE40BF50B661F1B
:104FB000771F881F991F1A9469F7609570958095DF
:104FC00090959B01AC01BD01CF010895F894FFCFEE
:104FD00066127212721272127212701275127212BC
:104FE0006212881293128B128B14911494149A14D7
:104FF000AF14AF14AF14AF14AF14AF14AF14AF1499
:105000009D14A214A614AC14BC14C214C614C81562
:10501000BF15CA15BC15B315B315BC15B315B3151B
:10502000E615B315F115B315B315B315B315B315CF
:10503000BC15B315B315BC15B315D815B315B315F9
:105040000416041604160416041604160416041690
:105050000416B615B315C815BB155719BD195F1938
:105060002A192E1963193219671973193E19B619BD
:105070004219771946197B199F194A197F19A619E0
:105080004F1984198C1936196B193A196F1953195C
:1050900088199619AE19B41924195B19C419021983
:1050A0000619F918FE180A190E191219E019F8193B
:1050B000FC19001A051A0A1A0F1A141A191A1E1ABC
:1050C000231ADB1ADB1A111B111B9D1BB81B381B83
:1050D000381BBC1B381C491C491CC022D022DA22B8
:1050E000E422F922152325232A2337233D237C2379
:1050F000AF23BF23CF23D223D223D2234623462359
:10510000742478247D24AB24DA24DD24DF240E25C6
:1051100001000000FF5A0000010001010201191AFC
:105120001B1C1D1E1F2021229C0C2A13AB0C3D139F
:105130004213221328081E0A14010001020202026F
:105140000606060909090909090F0F0F0F0F0F15A8
:1051500015151819191919191919191919232425A7
:1051600025252525256061626364656667909192B7
:10517000939495969737363534333207E200E90039
:10518000EA00B500B600B700CD008301CC008A016B
:105190009201940121022302240225022602270201
:1051A0002A02B300B4006F0070009F01CB019F0280
:1051B000A002E200E900EA00B500B600B700CD00A9
:1051C0008301CC008A01920194012102230224026E
:1051D0002502260227022A02B300B4006F007000E5
:0851E0009F01CB019F02A00218
:00000001FF
