:1000000053C3000089C3000087C3000085C30000FC
:100010000C94092481C300007FC300007DC300004D
:100020007BC3000079C300000C946E290C943A2A1B
:100030000C94A32271C300006FC300006DC30000C5
:100040006BC3000069C3000067C3000065C3000004
:1000500063C300000C941A235FC300005DC300005B
:100060005BC3000059C3000057C3000055C3000024
:1000700053C3000051C300004FC300004DC3000034
:100080004BC3000049C3000047C3000045C3000044
:1000900043C3000041C300003FC300003DC3000054
:1000A0003BC3000039C3000037C30000A900AA0009
:1000B000A900AA00010001000100010001000100E7
:1000C000010001000100010001000100167C1E007A
:1000D0001F002000210022002D002B0014001A0018
:1000E0000800150017002F00394204001600070011
:1000F00009000A002602E1001D001B00060019008D
:1001000005002F02E000E300E200427823522C00B9
:100110004C00000000000000000000002C004C001B
:100120002A00270026002500240023002E0031008D
:10013000130012000C0018001C00300034003300C3
:100140000F000E000D000B002702280038003700BA
:1001500036001000110030024F00520051005000D4
:1001600022522C00280000000000000000000000C7
:100170002C002800167C1E001F00200021002200F9
:100180002D002B0014001A00090013000A002F0094
:100190003942040015001600170007002602E1008E
:1001A0001D001B000600190005002F02E000E300FF
:1001B000E200427823522C004C00000000000000B6
:1001C000000000002C004C002A002700260025001B
:1001D000240023002E00310033001C0018000F0003
:1001E0000D003000340012000C00080011000B005C
:1001F0002702280038003700360010000E003002B9
:100200004F0052005100500022522C0028000000E4
:1002100000000000000000002C0028003A003B0015
:100220003C003D003E003F00010001004E00520036
:100230004B000100010001000100500051004F007F
:1002400001000100010001000100010001000100A6
:1002500001000100010001000100437801000100DC
:10026000010000000000000000000000010001008B
:1002700045004400430042004100400046004A005F
:1002800046004B0052004E00010047004D0049005F
:100290004F00510050000100530001000100010017
:1002A0000100010001000100A900AA00A800AB00A4
:1002B000AE0001000100000000000000000000008E
:1002C000010001003A003B003C003D003E003F00C1
:1002D00001000100487849784778007C010001005E
:1002E000010046784A784578407E0100010001000F
:1002F0004C7801004B780100010001000100010071
:10030000010043780100010001000000000000002E
:1003100000000000010001004500440043004200CD
:1003200041004000010001000100610060005F0029
:1003300001000100010001005E005D005C000100A1
:100340000100010001005B005A005900010001009A
:10035000415240525300630062000100010000005E
:100360000000000000000000010001001E0F050059
:10037000047F3F1F643214643214783C1E1E140A3A
:10038000052223252628292A2C2D2F3032333536D5
:10039000383A3B3D3E4042434547494A4C4E505116
:1003A000535557595A5C5E6062646668696B6D6F3D
:1003B00071737577797B7D7F81838587898A8C8E40
:1003C00090929496989A9C9E9FA1A3A5A7A8AAAC48
:1003D000AEAFB1B3B4B6B8B9BBBCBEBFC1C2C3C582
:1003E000C6C7C9CACBCCCDCED0D1D2D2D3D4D5D624
:1003F000D7D7D8D9D9DADADBDBDBDCDCDCDCDCDD57
:10040000DDDDDDDCDCDCDCDCDBDBDBDADAD9D9D83A
:10041000D7D7D6D5D4D3D2D2D1D0CECDCCCBCAC9D2
:10042000C7C6C5C3C2C1BFBEBCBBB9B8B6B4B3B101
:10043000AFAEACAAA8A7A5A3A19F9E9C9A9896949C
:1004400092908E8C8A89878583817F7D7B79777571
:1004500073716F6D6B6968666462605E5C5A595750
:10046000555351504E4C4A4947454342403E3D3B0F
:100470003A3836353332302F2D2C2A292826252399
:1004800022FFAA7F55400001010101010101010184
:100490000202020202020202020303030303030335
:1004A0000304040404040404050505050506060602
:1004B0000606070707070708080808090909090ABF
:1004C0000A0A0B0B0B0C0C0C0D0D0D0E0E0E0F0F64
:1004D0000F101011111112121313141415151616F2
:1004E0001717181819191A1A1B1B1C1D1D1E1E1F61
:1004F0002020212222232424252626272829292AB0
:100500002B2C2D2D2E2F30313232333435363738D7
:10051000393A3B3C3D3E3F404142434445464748D3
:10052000494A4C4D4E4F50515354555658595A5BA9
:100530005D5E5F616264656668696B6C6D6F707249
:10054000737577787A7B7D7E8082838587888A8CB5
:100550008E8F91939596989A9C9EA0A2A3A5A7A9E9
:10056000ABADAFB1B3B5B7BABCBEC0C2C4C6C9CBE0
:10057000CDCFD1D4D6D8DBDDDFE2E4E7E9EBEEF096
:10058000F3F5F8FAFDFF080353006F006C0000005C
:100590000C035200470042004B00420000000403DD
:1005A000090409025B00030100A0FA09040000012C
:1005B0000301010009211101000122440007058106
:1005C00003080001090401000203000000092111D1
:1005D0000100012222000705820320000107050314
:1005E0000320000109040200010300000009211199
:1005F00001000122320007058403200001120100DE
:100600000200000008EDFE6030010001020001065A
:1006100060FF0961A1010962150026FF00952075A0
:100620000881020963150026FF00952075089102D4
:10063000C005010980A101850319012AB700150130
:1006400026B700950175108100C0050C0901A101B4
:10065000850419012AA002150126A0029501751032
:100660008100C005010906A101050719E029E71568
:100670000025019508750181029501750881010524
:1006800007190029FF150026FF009506750881004F
:100690000508190129051500250195057501910227
:1006A000950175039101C00011241FBECFEFDAE060
:1006B000DEBFCDBF04B603FE18C08091B204909196
:1006C000B304A091B404B091B5048730904BA74017
:1006D000B04B59F41092B2041092B3041092B404C7
:1006E0001092B504E0E0F8E3099512E0A0E0B1E073
:1006F000EEE0FCE502C005900D92A832B107D9F7F3
:1007000024E0A8E2B2E001C01D92A23BB207E1F7EB
:100710000E9451160C94BF2D73CCCF93DF93C82F3A
:10072000D62F0E94FF13811521F180915E029091D6
:100730005F02F5D1982F2C2F30E04D2F50E0F901BA
:10074000E80FF11DE80FF11DEE0FFF1FED0FF11D7A
:10075000EE0FFF1FE455FF4FC591D59160915E02EA
:1007600070915F02A1E0B0E0C130D10519F591119F
:1007700004C081E0DF91CF9108959150E92FF0E01E
:10078000ED01092E02C0CC0FDD1F0A94E2F7C6234B
:10079000D723CD2B61F3EE0FFF1FE20FF31FEE0FF8
:1007A000FF1FE40FF51FEE0FFF1FE455FF4FC5912C
:1007B000D591DACFCE01C0D0DCCF9C01FB01203433
:1007C0008EE7380759F021348EE7380711F480E0BE
:1007D000089521153C4751F081E0089585818115E8
:1007E000B1F30E947C170E940D1CF1CF8581811509
:1007F00039F00E94022390932B0280932A02E7CFC4
:1008000080912A0290912B020E948322843F914082
:10081000F0F275D1DCCF8430B8F46C30A8F44730F6
:1008200098F4E42FF0E097E0699FE00DF11D1124AA
:1008300094E5899FE00DF11D1124EE0FFF1FE45395
:10084000FF4F85919591089581E090E00895E3CF61
:1008500008959C019A9581159F4118F5F32FF27028
:10086000EE27832F8170732F74706627532F587073
:10087000442734FF0CC08295807FEF2B09F0806203
:10088000672B09F08064452B69F080680895EF2B91
:1008900009F08260672B09F08460452B19F08860AD
:1008A000089580E00895CF93DF93EB01D2DFFE013E
:1008B0000995DF91CF910895CF93DF93EC01805E8E
:1008C0009109089720F063EA78E0209711F462E933
:1008D00076E0CE01E8DF8C2FA6D1DF91CF9108958D
:1008E000CF93DF93EC01DBD1CE01805E91090897B5
:1008F00020F068EA78E0209711F467E976E0CE010D
:10090000D2DFDF91CF9108950F931F93CF93DF93A1
:100910008C01EB01D1DF209739F4C801E1DFDF91D1
:10092000CF911F910F9108958FE99FE00197F1F703
:1009300000C000002197EFCF60E570E0893391059A
:1009400011F060E070E0E0CF81E0089581E008956B
:10095000FBCF089581E0089530CF0895089508955C
:10096000FDCF089508950895A6E0B0E0EAEBF4E025
:100970000C94872C49835A839E833091310289815C
:100980009A81311117C03E81311589F0211579F016
:100990002AD5182F682F89819A8104D569817A8197
:1009A000812F0E9408102696E3E00C94A32C0BD50F
:1009B000182FF4CF18D569817A81F3CFFC01262F47
:1009C000408151816281738184819581CDCFCF93A4
:1009D000DF93D82FC92F61E0F1DF6D2F7C2FB6DFB9
:1009E000811539F061E08D2F9C2FE8DF6D2F7C2F72
:1009F000AFDFDF91CF9108950F931F93CF93DF93D4
:100A0000D82FC92F60E0DADF8C016D2F7C2FA7DF94
:100A10006D2F7C2FC801A4DFDF91CF911F910F9123
:100A200008950F931F93CF93DF93EC0161E0C6DF2E
:100A30008C018D8181110E94F71CBE01C8018ADFE3
:100A4000811106C080E0DF91CF911F910F91089531
:100A5000BE01C80181DF8115A9F3BE01C8010E9452
:100A6000AC20811579F3BE01C8010E94731F811566
:100A700049F3BE01C8010E944A1F811519F3BE0146
:100A8000C8010E946A168115E9F2BE01C8010E94E0
:100A900052118115B9F2BE01C8010E94641181157D
:100AA00089F2BE01C8010E947E11CDCF21E030E065
:100AB000A90102C0440F551F8A95E2F7CA01ABC3D2
:100AC000CF93C82F81E090E00C2E02C0880F991FB1
:100AD0000A94E2F70E94F20D8C2FE8DFCF9108957F
:100AE00081E0089581E00895FBCF0895CF93C82F4A
:100AF00041D38C2FF7DF8C2FF7DFCF91089581E062
:100B0000F5DF0C943E2380E0F1DF0C9462232ADFB2
:100B10000E94352236C037D026DF0C943922292F87
:100B200030E048E0911102C09C0140E0C90164E05E
:100B3000969587956A95E1F7009711F04C5F9C01B7
:100B4000C9019695879596958795009711F04E5F08
:100B50009C01C90196958795840F089581E00895B9
:100B60000895CF93DF93D82FF9DFC82F811511F0A7
:100B70008D2FF6DF8C2FDF91CF9108950895F1CF5F
:100B8000089580E0FCCF0E94F320F9CFCF930E941C
:100B9000F320C82F80912C028C1771F0C0932C0287
:100BA0000E940E2360932D0270932E0280932F02D9
:100BB000909330028C2FE3DFCF910895ADE0B0E049
:100BC000E4EEF5E00C94882C488759876A877B8788
:100BD0008C879D8791111AD71F8286E0FE01389677
:100BE000DE01119601900D928A95E1F78D818111B8
:100BF0000CC029813A814B815C816D817E818F811E
:100C000055D62D96E2E00C94A42CCE010196DFDEA1
:100C10008111EFCFF6CFFC018481813019F48081FE
:100C2000918112C40895CF93C82F811589F08CEF5C
:100C30008C0F813A78F48C2F0E948721811521F046
:100C40008C2F0E94C9214CD78C2F0E94C32148D7DA
:100C5000CF91089580E28C0F883040F4C77081E016
:100C600001C0880FCA95EAF7B2D6F1CF8BE58C0F99
:100C7000833038F42C2F2452330BC9010E941621E3
:100C8000E7CFC85ACB3120F7EC2FF0E0EE0FFF1F73
:100C9000E65AFE4F808191810E943E21D9CF811575
:100CA00019F19CEF980F913A18F40E94C92118C7C6
:100CB00090E2980F983048F4877091E001C0990F46
:100CC0008A95EAF7892F89D6F2CF9BE5980F933062
:100CD00020F480E090E00C941621885A8B3120F4A7
:100CE00080E090E00C943E2108951F93CF93DF9312
:100CF000182FEB0198DF209731F4812FD0DFDF919F
:100D0000CF911F9108958FE99FE00197F1F700C0FF
:100D100000002197F0CF60E570E0893311F060E0CA
:100D200070E0E3CF811511F052D6DAC6089581152F
:100D300011F053D6D5C60895A0E0B0E0E2EAF6E09F
:100D40000C94822C6C01D62FC72FFC010581F680F4
:100D5000F2948FE0F82230D6E82E8115E9F0E02EEB
:100D60000115D1F08C2F807F803461F080E28D0FEF
:100D7000883088F18C2F807E803221F4D23058F177
:100D8000F11449F18091F10382FF25C082E0C5D6BC
:100D900013D691E0E82EE9268C2F82958F7088304B
:100DA00009F4CAC060F58430C0F41C2F1F70823073
:100DB000B0F1C07FC03211F01295107FD11509F447
:100DC00056C0D13009F47DC0011509F488C0F11472
:100DD00009F465C035C0E12CDFCF843009F48FC041
:100DE000E11409F4DAC0E4D580FDD7C0F60115821C
:100DF000D9D542D2C60189D1D5D54CD2CEC0893001
:100E000009F40DC18A5F8F70823050F7D23F09F02C
:100E100013C18C2F8F7101110DC12ED2BBC0C031F7
:100E200010F01295107F011581F0111549F080E244
:100E30008D0F883010F0D11105C0812FC8D550D644
:100E40008D2F21C0812FD4D5FACF8D2F28DF1115FA
:100E500009F4C6CF80E28D0F883010F0D11103C0A5
:100E6000812FBBD502C0812FC9D53AD6B9CF809189
:100E7000F10382FD10C0011541F0111519F0812F09
:100E8000A6D52ED680E0CFDEABCF80E008DF1115EF
:100E900009F4A6CFE5CF011559F0F11003C0812F59
:100EA00041DF9ECFF1E0FF129BCF812FC4D598CFB9
:100EB000F11096CF812F3BDF812FC8D5812FACD584
:100EC0008FCF011529F026E0F21608F089CFE7CF81
:100ED00085E0F81608F084CF812F29DF81CFF11447
:100EE000D9F3D93349F49FEFE7EEF3E09150E040B6
:100EF000F040E1F700C000008D2FD1DE71CF8C2FC4
:100F0000869586958370811569F0813009F068CFE8
:100F10008D2F9C2F9370011102C080E090E00E9401
:100F20003E215ECF8D2F9C2F9370011102C080E077
:100F300090E00E94162154CF8C2F8370811138C00D
:100F4000011128C04D2F429546954770440F440F1C
:100F50002D2F2F7030E0042E02C0220F331F0A9471
:100F6000E2F780E090E0D4FF09C08FE090E002C09B
:100F7000880F991F4A95E2F780959095C695C6957A
:100F8000C370822B932BC23079F0C33079F0C1301B
:100F900049F04AD10E94F320F2DDCDB7DEB7E8E098
:100FA0000C949E2C3AD1F6CF46D1F4CF34D1F2CF67
:100FB000011559F1C0FFEECF4D2F42954695477070
:100FC000440F440F2D2F2F7030E0042E02C0220F4B
:100FD000331F0A94E2F780E090E0D4FF09C08FE06D
:100FE00090E002C0880F991F4A95E2F7809590958E
:100FF000C695C695C370822B932BC23061F0C33067
:1010000061F0C13031F06BD1C5CF823008F4C2CF6E
:10101000D3CF5ED1BFCF6AD1BDCF1AD1BBCFCF70F6
:10102000011529F08C2F28D18D2F7CDEB3CF8D2F89
:101030007EDE8C2F2FD1AECF60F4D03FB9F0D13F00
:1010400081F0011509F43AC0F114A9F18D2FEBDDFF
:10105000A1CFD33FC1F0D43FA1F78091F10382FD2E
:101060001AC08C2F8F71011529F3D7CE011541F0CD
:1010700025E0F21608F08ECF8C2F8F711BD18ACF0E
:1010800086E0F816F7CF011521F08C2F8F71EAD08A
:1010900081CFE5D07FCF011529F063E08C2F8F71D0
:1010A00024D578CF81E039D592E0F91608F472CFD3
:1010B00082E033D56FCF8C2F8F71AFCEF11471F0EA
:1010C000D93349F4EFEFF7EE23E0E150F040204050
:1010D000E1F700C000008D2FE2DD5CCF8C2F8F7117
:1010E000A9CF0F931F93CF93DF93EC016881798190
:1010F0008D81B5D18C0101D18DD0B801CE011CDE1E
:10110000DF91CF911F910F910895CF93DF93EC0161
:101110008C81811581F0CE0184DC81110FC04CD40B
:10112000811549F08D81811531F08091F10382FFA5
:1011300002C082E0F2D4DF91CF910895CE01D1DFD9
:10114000CE015ADCF8CF811511F052D4C9C40895EC
:10115000811511F053D4C4C4089580E090E00E943A
:10116000162180E090E00E943E2150D4B9C40E9434
:10117000CF21F3CF3AD4FBCF282F92959F70963092
:1011800099F060F4925F9F70923030F4203FB1F09C
:1011900038F481E0283E38F080E008959A5FF3CF7C
:1011A00081E0243FC9F7089591E0813F09F090E084
:1011B00081E0283E08F080E0892B089581E00895C1
:1011C000FC018481811521F0808191813DD1D4CFB2
:1011D00080E00895A6E0B0E0E0EFF8E00C94882C01
:1011E0002696E2E00C94A42CA7E0B0E0EAEFF8E049
:1011F0000C94882C2796E2E00C94A42C0895FECF42
:101200000895FDCF0895FADFFCDF9093610280938B
:10121000600208950895F7CF0895209160023091FB
:101220006102822B932BEFCF2091600230916102FB
:1012300082239323E8CF20916002309161028227BC
:101240009327E1CFDBCF0895FDCF0895D7CF089541
:10125000FDDFFADF90935F0280935E02089580E0E5
:1012600090E0F6CF21E030E0A90102C0440F551F05
:101270008A95E2F7CA01ECCF21E030E002C0220FEC
:10128000331F8A95E2F780915E0290915F02822B74
:10129000932BDECF21E030E002C0220F331F8A956E
:1012A000E2F72095309580915E0290915F02822353
:1012B0009323CECF21E030E002C0220F331F8A9566
:1012C000E2F780915E0290915F0282279327C0CF60
:1012D00020915E0230915F02822B932BB9CF209137
:1012E0005E0230915F0282239323B2CF20915E028F
:1012F00030915F0282279327ABCF08959B016770DF
:1013000091E001C0990F6A95EAF763E03695279559
:101310006A95E1F7220F331F220F331FFA01E20F04
:10132000F31F40E050E0682F70E08191DF019B01E6
:10133000042E02C0369527950A94E2F72170219574
:101340002827292328272E934F5F5F4F44305105CC
:1013500061F708959C01982F977083E03695279543
:101360008A95E1F7220F331F220F331FFB01E20F93
:10137000F31F40E050E080E0219130E0092E02C0F0
:10138000369527950A94E2F721703327042E01C081
:10139000220F0A94EAF7822B4F5F5F4F44305105CA
:1013A00059F70895282F862F9C3060F4273050F489
:1013B000622F70E027E0929F600D711D112442E3BF
:1013C00052E09CCF0895292F9C3058F4873048F480
:1013D00090E062E372E037E0239F800D911D1124BD
:1013E000B9CF80E00895A0E0B0E0E9EFF9E00C9417
:1013F000812C8C01E0905E02F0905F02809160028F
:1014000090916102E82AF92ACFE0D0E0CC24C3947D
:10141000D12CC6010C2E02C0880F991F0A94E2F746
:101420008E219F21892B49F4219798F7B12C8B2D80
:10143000CDB7DEB7E9E00C949D2CBC2EB8018C2F03
:10144000F2D5019789F3F3CFCF93DF93D82FC92F2C
:10145000CADF6D2F7C2FE7D5DF91CF9108951F93C1
:10146000CF93DF93162FD72F90913102911539F03A
:10147000862F972FE9DFDF91CF911F910895811576
:1014800069F0862F972FAFDFC82F682F812F9D2FF0
:1014900089DF612F7D2F8C2FC6D5EDCF862F972F1B
:1014A00092DFC82FF6CF0F931F93CF93E091620284
:1014B000C7E0809163028E1304C0CF911F910F91FA
:1014C00008950E2F10E0CE9FF0011124EC59FD4F2E
:1014D000208131814281538164817581868184DEDE
:1014E000F8013196E770E5CF20919C0230919D0282
:1014F00040919E0250919F026091A0027091A102C2
:101500008091A20271CE8091A202803178F4809104
:10151000A102811559F0E09162022091630230919D
:101520009D0240919C0257E02E1301C008956E2F3A
:1015300070E05E9FF0011124DF01AC59BD4F14969D
:101540008C911497811549F111968C911197831301
:1015500024C08C91841321C015968C91159781110C
:101560001CC012968D919C91A0919E02B0919F02F9
:101570008A1B9B0B8639910580F48091A2028F70A3
:1015800080618093A202E659FD4F80818F70806157
:1015900080838CE992E0B9DD86CFFB013196E7705C
:1015A000C3CFE09162029091630227E0E91302C089
:1015B00080E00895AE2FB0E02E9FF0011124EC5989
:1015C000FD4F3181361306C03081381303C0358199
:1015D000341304C0FD013196E770E8CF81E008952F
:1015E0008F929F92AF92BF92DF92EF92FF920F93F2
:1015F0001F93CF93DF93CDB7DEB72D970FB6F89437
:10160000DEBF0FBECDBF8C0186E0F801DE0118966B
:1016100001900D928A95E1F7F801F58084819CE9AB
:10162000892E92E0992E9091A002911117C08115F8
:1016300009F4EFC0F11409F42EC1C801C1DD811510
:1016400009F429C187E0F801D40101900D928A952F
:10165000E1F7C401E0DA57DF47DFDBC0E080A280BA
:10166000B380D090A10220919E0230919F02A501EB
:10167000421B530BD11409F4CFC04639510508F071
:101680009EC0811509F4C5C090919D029180809102
:10169000A202803108F065C0991226C090919C0288
:1016A0009E1122C0F11057C08F7080618093A202FA
:1016B0001BDF8CE992E029DD8091A202F80186838C
:1016C000F12C8F2D2D960FB6F894DEBF0FBECDBF37
:1016D000DF91CF911F910F91FF90EF90DF90BF901E
:1016E000AF909F908F900895F11035C040E0692D24
:1016F0008E2D57DF40E0692D8E2D53DFF82E81119E
:10170000DFCF88859985A0DE292F22952F70903410
:1017100050F49F70223078F0911591F0F801968185
:10172000903170F4CECF2A5F2F70223070F0C80154
:10173000ECDCFD2CC6CF911519F0811509F4C1CF51
:10174000805E883008F4BDCFF2CF803F08F4B9CF77
:10175000815F8330F7CF8091A20281608093A202E3
:10176000AFCF991207C090919C029E1103C0F11453
:1017700009F473C0C80124DD811509F48CC0F1148B
:1017800009F489C08091A202803280F020919C02ED
:1017900030919D023A832983BC82AB829091A00252
:1017A0009D831E828F83CE010196AFDC87E0F80116
:1017B000ACE9B2E001900D928A95E1F74CCF90919F
:1017C000A202903188F4488559856A857B858C858D
:1017D0009D8500DD8CE992E098DC87E0F4011192B0
:1017E0008A95E9F781DE6CCF811599F020919D02F1
:1017F00081812813BFCF80919C028E11BBCFF11045
:10180000B9CF9683C80181DC87E0F40111928A95F3
:10181000E9F7FF24F39455CF4639510508F03EC04F
:101820008115B9F3F114B9F190919D02818198135A
:1018300029C080919C028E1125C08091A20280FD5A
:1018400018C08031B0F08683807F803F39F0868178
:10185000982F907F905F8F70892B8683C80155DC0D
:1018600087E0F801ACE9B2E001900D928A95E1F7CA
:10187000F3CE87E0F801ACE9B2E001900D928A95D1
:10188000E1F7C7CFC8019CDC811190CF8091A20203
:1018900081608093A202C80138DCBBCF488559859E
:1018A0006A857B858C859D8595DC97CFAEE0B0E021
:1018B000ECE5FCE00C94872C288739874A875B8706
:1018C0006C877D878E87CE0108968ADE6C858115B0
:1018D000A1F0611539F0288539854A855B857D85BC
:1018E0008E8582DC17E080916202909163028913F9
:1018F00038C02E96E3E00C94A32C87E0FE013896C6
:10190000DE01119601900D928A95E1F7611551F370
:10191000A09163028A2F90E0019687709927209109
:1019200062022817190681F097E09A9FD0011124CE
:10193000AC59BD4FFE01319601900D929A95E1F799
:1019400080936302B0DDCECF15DC1092630210925B
:10195000620287E0ECE9F2E0DF011D928A95E9F787
:10196000C1CF189FC00111248C599D4F39DE8115BC
:1019700009F4BFCFE09162021E9FF0011124EC59DF
:10198000FD4F20813181428153816481758186813F
:101990002BDC8091620290E00196877099278093FA
:1019A0006202A1CF8091AB028695869586950895B7
:1019B0008091AB02877008959091AB02977081E09F
:1019C000911101C080E008958091B702089590912F
:1019D000B702982B9093B7020895982F9095809115
:1019E000B70289238093B70208951092B702089531
:1019F0009091B602982B9093B6020895982F9095E7
:101A00008091B60289238093B60208951092B6029F
:101A100008950895FECF08959091AC02292F2823B0
:101A2000211529F0809589238093AC02F3CF089586
:101A30000895FECF08959091AD02292F28232817ED
:101A400021F0982B9093AD02F4CF08959091AD02C0
:101A5000292F2823211529F0809589238093AD0211
:101A6000E8CF08958091AD02811521F01092AD026A
:101A700080E0DFCF08950F931F93CF93DF93009102
:101A8000040110910501C091B7028091B602C82BE4
:101A90008091AD02811529F0C82B0E94732181111C
:101AA000E1DFF801C083C0910401D091050148E055
:101AB00050E063EA72E0CE010E94472D892B59F075
:101AC00088E0FE01A3EAB2E001900D928A95E1F769
:101AD000CE010E940921DF91CF911F910F910895AE
:101AE000CACF08950895FECF0895962F2091F1034F
:101AF00022FF0EC0682F660F660F660F692B60937A
:101B0000AB02BADB8091AB02869586958695EBCFCA
:101B1000B3CB1092AB0280E0E6CF9091AB02809500
:101B200089238093AB02282F277021110BC08917BE
:101B300049F09091F10392FF05C0869586958695B0
:101B4000A9DBE7CF08959091F10392FB222720F9BA
:101B5000281749F080FB92F99093F10380EF93E00E
:101B600045D082E0DACF08958091F103002482FF0E
:101B70000394802DE8CF81E0E6CF80E0E4CF60E001
:101B800070E0CB0183C460E070E0CB0179D4F7CF83
:101B9000A3E0B0E0EEECFDE00C94882CC9D3D4D3E4
:101BA0001B82CE010396E7D381E090E0909361021F
:101BB00080936002ECD3198284E18A83CE0101967E
:101BC000F7D30E947C17DFDF2396E2E00C94A42C6D
:101BD000DFCF0895BFC30895ACC30895C1C308956E
:101BE000D0C30895D4C30895D7C30895E1C3089519
:101BF000E6C3089525C408954FC4089557C40895B1
:101C0000A6E0B0E0E6E0FEE00C94862C0E94022301
:101C10008C018091B8029091B9028017910779F0F8
:101C200019821A820E940223BC0149815A8180E0F4
:101C300090E00E94DE051093B9020093B802269648
:101C4000E4E00C94A22C0BD36093C2027093C30205
:101C50008093C4029093C5026093BE027093BF024A
:101C60008093C0029093C1020895F9D26093C2029A
:101C70007093C3028093C4029093C5026093BA022A
:101C80007093BB028093BC029093BD0208950895A7
:101C90000895FDCF08950895FEDFFBCF0895FECF90
:101CA00008950895FEDFFBCF81E0089580E591E17E
:101CB0000E946516EDDFF0CFA2C50895089508953E
:101CC0000895FCDFFCDFFCCF87DF811101C080DFDE
:101CD00086EC92E083DF80EF93E086DF81DF9BDAA2
:101CE00080915E0290915F02AFCA0E94F92292D267
:101CF00089D50E94791DD6D4E7DF0E94F1200E9489
:101D0000BE050E94301F0E941D1C89D5CBCF77D500
:101D100081110C94F2200895A6E0B0E0E2E9FEE023
:101D20000C947F2CC1DF81110EC06ADFF0DF0E94AE
:101D3000F81C0E94141E811198DF0E94C605269689
:101D4000EBE00C949B2CCBD484EEC82E83E0D82EF1
:101D5000760110E0F70101917F01812FB2D31F5F5F
:101D60001C3009F445C00817A9F38091C60281FD13
:101D7000AED3A2DFA82E10E0812FA3D3082FF60147
:101D800091916F01891779F1B82EB926F12CEE24C3
:101D9000E3948B2D8E218115F9F099249394902F43
:101DA0009E21911101C0912CA11489F06F2D812FDA
:101DB0000E945B2281110BC0F9821A830E940223C8
:101DC000BC0149815A8181E0992D0E94DE05492D8F
:101DD0006F2D812F0E946F22F394EE0CF7E0FF121B
:101DE000D8CFF60102931F5F1C3031F62CDF9ECF57
:101DF0000813BBCF9ACF1F93CF93DF9316D1EC017B
:101E0000811522E5920708F05AC0811540E5940734
:101E100008F0D7C0803E910528F58D3C910508F06B
:101E2000A9C0883A910578F4853A910508F09FC0D9
:101E30008130910509F43EC00497813A9105D0F1B3
:101E4000C0E0D0E037C0885A91094B97C8F7C85A0C
:101E5000D0E0CC0FDD1FC057DE4F0990D881C02DD8
:101E6000D46428C0811550E49507E8F4C11580E2D8
:101E7000D80708F0BCC0C83ED105E0F0CE019A9565
:101E800081159F41E8F68D2F74D1182FCE01992727
:101E9000CCD0212F30E0322F2227E901CC27DF716F
:101EA000C82BD92B07C09927C0D0CC27DF70C82BEF
:101EB000D92BD06ACE01DF91CF911F910895803840
:101EC00042E59407C8F5803652E5950708F05BC0F7
:101ED000C03482E5D807D0F4C03292E5D90708F0C3
:101EE0004BC08C2F8695869520E2829FC0011124DD
:101EF000C37021E030E0A90102C0440F551FCA950C
:101F0000E2F7EA01C82BD92BDD68D4CF8C2F869558
:101F10008695877050E2859FC0011124C37021E02F
:101F200030E0A90102C0440F551FCA95E2F7EA014B
:101F3000C82BD92BDC68BECF803C52E5950758F4FE
:101F40008F71C03AD245A0F590E0982F8827EC0118
:101F5000C46FD06AAFCF805C9245809708F070CF95
:101F6000DC2FCC27CC27DF71C06FD06AA3CFA4971A
:101F7000D064A0CFD0659ECFCF71D0E0DC2FCC272E
:101F8000C16FD06A97CF86958695877020E2829F31
:101F9000C0011124C37021E030E0A90102C0440F48
:101FA000551FCA95E2F7EA01C82BD92BDA6882CF10
:101FB000E0D0C82FD0E0DC2FCC27CC27DF71D06257
:101FC00079CF8F71D6D053E0CC0FDD1F5A95E1F752
:101FD000CC27DF70282F30E084FF05C050E1859FBB
:101FE000900111243327C22BD32BD06963CF8D2FBF
:101FF0008F71BFD0182FCE01992717D0212F30E035
:10200000322F222722273F71282B392BE901D7CFE6
:10201000462F672F7C3020F4473010F40C942704AF
:1020200080E090E00895F4DFE6CE803E9105D9F19E
:10203000C8F48133910509F482C048F489329105CE
:1020400009F472C08A32910509F480C00895893379
:102050009105E9F082389105D1F08533910509F4B5
:102060005EC00895843E9105D9F148F4823E910501
:1020700039F1833E910549F181EE90E00895863E65
:102080009105C9F1873E910509F43EC0089520915C
:10209000F0032370211164C02091F10323FF14C0C9
:1020A00089E290E008952091F00320FD45C0309131
:1020B000F10330FF09C024FD24C083EE90E00895B1
:1020C0002091F00322FDF7CF08952091F00322FD27
:1020D00044C03091F10330FD43C024FFF5CF11C05F
:1020E0002091F10321FFF0CF8091F00384FD09C01E
:1020F00087EE90E008952091F00323FFE5CF24FFC1
:10210000F7CF80E090E008952091F00323FD2BC0ED
:102110003091F10331FFE1CF84EE90E008952091FA
:10212000F00325FFD1CFBCCF2091F00325FD1EC0C9
:102130002091F10323FFC8CF89E390E00895209117
:10214000F00326FFC1CF8AE290E008952091F003CA
:1021500026FFBACF81E390E0089582EE90E00895E3
:1021600080EE90E0089586EE90E0089585E390E09B
:1021700008959091F00392FF10C041E0282F247140
:10218000243009F040E031E0282F2871283009F090
:1021900030E0431711F02CE0822793FF10C041E09C
:1021A000282F2471243109F040E031E0282F2871D4
:1021B000283109F030E0431711F02CE082273091EC
:1021C000F10330FF10C051E0282F2171213009F0B8
:1021D00050E041E0282F2871283009F040E05417E2
:1021E00011F029E0822731FF10C041E0282F217132
:1021F000213109F040E031E0282F2871283109F021
:1022000030E0431711F029E0822794FF02C083FDDC
:10221000877E08951092F2031092F3031092F40354
:102220001092F5030895CF92DF92EF92FF926B0127
:102230007C01E5D281110EC00E940E23C61AD70A76
:10224000E80AF90AC092F203D092F303E092F40391
:10225000F092F503FF90EF90DF90CF9008950F93E9
:102260001F93CDD2811529F00E940E231F910F914B
:1022700008950E940E230091F2031091F303209120
:10228000F4033091F503600F711F821F931FEECF8F
:10229000B6D2811511F00C940223E1DFCB01089531
:1022A00080E00895CF939C01FB01805E9245C1E0E0
:1022B000809738F4C581C11104C0822F8F710E94AC
:1022C00060058C2FCF9108959C01FB0185818115BC
:1022D00099F02B35FCE73F0769F02C359CE739076F
:1022E00021F02A353C4721F008953EDC80E0089536
:1022F00042DCFCCF42DCFACF81E008959C01FB0177
:102300008581811599F02130FCE73F0761F023308A
:102310009CE7390739F021153C4749F40E947F05B5
:1023200080E0089557DC0E948305FACF81E008958C
:10233000089580E090E00E946A2D9C0181E0233E98
:102340003E4F09F080E0089563EE7EEF80E090E07C
:102350000C94892D6FEF7FEF80E090E00C94892D35
:10236000CF93DF93EC0182E090E00E945D2D8883A3
:10237000DF91CF910895FC01608182E090E00C94A0
:102380006F2D83E090E00E945D2D90E00895682F0E
:1023900083E090E00C946F2DCF93DF93EC0184E009
:1023A00090E00E946A2D99838883DF91CF910895F0
:1023B000FC016081718184E090E00C94892D8F9202
:1023C0009F92AF92BF92CF92DF92EF92FF920F93C4
:1023D000CF93DF93EC0188E090E00E94652D4B01E4
:1023E0005C0168839982AA82BB821C821D821E8244
:1023F0001F8283E290E00E945D2D282F30E040E0B4
:1024000050E060E070E080E090E000E20E94AF2CDD
:10241000282939294A295B29288339834A835B8300
:102420006C837D838E839F83DF91CF910F91FF908B
:10243000EF90DF90CF90BF90AF909F908F900895D6
:102440000F93CF93DF93EC01488159816A817B819F
:1024500088E090E00E94812D288139814A815B814A
:102460006C817D818E819F8100E20E94CA2C622F47
:1024700083E290E00E946F2DDF91CF910F9108953C
:10248000AB01BC018FE090E00C94812DAB01BC014D
:1024900083E190E00C94812D8EE090E00E945D2D10
:1024A000982F81E0911101C080E00895682F8EE09F
:1024B00090E00C946F2D0895FECF08950895FECFFF
:1024C0000895E82FF0E0ED5FFB4F808108950895B7
:1024D00080EA8A95F1F7089500C00895F9CF08952C
:1024E0000895FECF0895A6E0B0E0E9E7F2E10C948C
:1024F000822C85D1F82E80910F0490E08D5F9B4F48
:10250000F114D9F126E0E22E8E010F5F1F4FF80182
:102510002E2D11922A95E9F7B8018DD16801811508
:10252000B1F08091F60390E046E050E0B8018D5F95
:102530009B4F0E94472D21E02093C702892B89F4ED
:10254000F12CBDDF8F2D2696E8E00C949E2C809117
:10255000C7028115A9F3F8011192EA94E9F71092E4
:10256000C702A091F603B0E0AD5FBB4F86E0F60175
:1025700001900D928A95E1F7E4CF2091F60330E0C7
:10258000BC01C9018D5F9B4FDFD1ABDFDBCFF8947E
:10259000E82FE295EF70F0E041A18F7021E030E08C
:1025A000B90102C0660F771F8A95E2F7CB01962F1B
:1025B0009095942391A392A1892B82A37894089556
:1025C000CF93DF93CDECD1E089918F3F09F0DFDF2E
:1025D00081E0C33DD807C1F7C6ECD1E089918F3FB8
:1025E00009F0D5DF81E0CD3CD807C1F7DF91CF916D
:1025F0000895A0E0B0E0EFEFF2E10C94822CEC0142
:10260000D62E062F10E0C80183539E4F7C01FC019B
:1026100080818F3F09F441C0F894E82FE295EF7074
:10262000F0E091A18F7021E030E001C0220F8A9587
:10263000EAF7892F822B81A382A12095282322A348
:1026400078944ADFA6ECB1E091E0C12C8D918F3FE8
:1026500079F0E82FE295EF70E05EF0E0208130E065
:102660008F7002C0359527958A95E2F7892F20FD56
:1026700080E0C82A990FF1E0AD3CBF0739F7F701B8
:1026800080818F3F09F083DF61E0C11001C060E00D
:102690008D2D24DFC00FD11FC882CDB7DEB7E8E093
:1026A0000C949E2CA9D0A8D090E0811101C096E096
:1026B00090930F0486E0891B8093F60381DF8CE002
:1026C000E3E0F4E0DF01982F1D929A95E9F7E7EF38
:1026D000F3E0DF011D928A95E9F73DD0EDCEACE045
:1026E000B0E0E5E7F3E10C94852CFE0131968CE037
:1026F000DF011D928A95E9F710E0FE2E0F2F612F62
:102700008F2D902F76DF1F5F1630C9F74CE050E019
:102710006F2D702F87EF93E00E94472D41E0892BAA
:1027200081F440E060910F0470E06D5F7B4F87EFB4
:1027300093E012D0182FD7DE812B2C96E5E00C9475
:10274000A12C8CE0EF2DF02FA7EFB3E001900D92BC
:102750008A95E1F7E7CF0895EF92FF920F931F93C9
:10276000CF93DF93F82E092F162FD72FC42F4115A3
:1027700079F081E08093CA020E9402239093C902FB
:102780008093C80280E0CDB7DEB7E6E00C94A02CC1
:10279000E090CA02E114B1F38091C8029091C9029D
:1027A0000E948322059770F346E050E06F2D702F52
:1027B000812F9D2F0E94472D892B51F086E0EF2D10
:1027C000F02FA12FBD2F01900D928A95E1F7CE2D0C
:1027D0001092CA028C2FD7CFFFD9811101C0F8D92E
:1027E0000BCACF930E94DE2BC82F811102C00E941A
:1027F000DA2B8C2FCF9108958091CE02089580918D
:10280000CD020895EEDF8093CD02E6DF8093CE0205
:10281000F3DF80930601F3DF811142C00895EFDFFB
:10282000811101C040C0089581E09091CF029A309B
:1028300008F080E008950F931F93CF93DF93EC018E
:10284000162F072F8091CF028A3088F4612F702FC6
:10285000CE0178D0811121C08091CF028F3FB1F499
:102860000E9402239093CC028093CB0209C08091F6
:10287000CB029091CC020E948322843F914030F79A
:1028800080E0DF91CF911F910F9108958F5F80932A
:10289000CF028A3028F781E0F4CF1092CF02FBCF2D
:1028A0000C94C42308950C94C7230895A0E0B0E0CD
:1028B000ECE5F4E10C94822CFA0169017801C82F4F
:1028C000880FDD0B3097B9F0DE0193E0AA0FBB1F34
:1028D0009A95E1F7A95FBE4F11968D919C91129741
:1028E00080539D4F2C91422F50E0E217F10508F4E0
:1028F000AF010E94542DCE010E94AA24182F8115E9
:10290000D9F0E114F104C1F083E0CC0FDD1F8A950A
:10291000E1F7FE01E95FFE4F8381482F50E0E816A2
:10292000F10408F4A701C95FDE4F6C817D8160531B
:102930007D4FC6010E94542D812FCDB7DEB7E8E050
:102940000C949E2C4BC108956AC108950C94E21D0D
:102950000895A4E0B0E0EFEAF4E10C94862C6091D5
:10296000F7027091F8028091F9029091FA020E94A8
:102970008C2211E0643671058105910510F16FDC40
:10298000DC01CB010296A11DB11D89839A83AB8323
:10299000BC8300E010E020E030E044E050E0BE0105
:1029A0006F5F7F4F85E082DF182F811551F00E9405
:1029B0000E236093F7027093F8028093F9029093CC
:1029C000FA02812F2496E4E00C94A22CA1E0B0E05E
:1029D000ECEEF4E10C947D2C762E5A01490168014D
:1029E00001E010E09E012F5F3F4F40E050E060E0CB
:1029F00070E05CDF182F8115A1F1F5016081718114
:102A0000828193810E948C22643671058105910533
:102A100008F18701940140E050E060E070E0872D0C
:102A200045DF082FB701C6010E94311F998110E0D0
:102A300098130BC0102F117000FF07C00E940E23C7
:102A4000F5016083718382839383812F2196EDE06A
:102A50000C94992CB701C6010E94311F99818913EA
:102A6000D8CFA701B601C4010E94542DEECFAAE031
:102A7000B0E0EDE3F5E10C94802CC090D301D09050
:102A8000D401560188E0A80EB11C88E0E82EF12C94
:102A900085019E012F5F3F4F43EF52E063E082E0EC
:102AA00095DF182F811531F0F60197818091F202A0
:102AB000981319C0812F2A96EAE00C949C2C698502
:102AC0008A850E94CF1DF82E81110EC000E010E013
:102AD00020E030E040E050E060E070E084E0E6DEDE
:102AE0001F2D18230EC0F12CAE01475F5F4FBE01B2
:102AF000665F7F4FC5010E94AE1D8111E0CFF110CE
:102B0000E5CFF60187818093F202D4CFA6E0B0E052
:102B1000ECE8F5E10C94822C6B010091D30110914B
:102B2000D4010F5F1F4F86E0E82EF12C9E012F5F2E
:102B30003F4F4EEE52E061E080E048DF811549F002
:102B400096E0FE013196A8EEB2E001900D929A95C2
:102B5000E1F796E0E8EEF2E0D60101900D929A9549
:102B6000E1F72696E8E00C949E2CA0E0B0E0EBEBB9
:102B7000F5E10C94802CF82EE92EB62EA72E8A01B2
:102B800053DE9AE0C92ED12C811103C0CC24C3940A
:102B9000D12CC1E0D0E06B2D7A2D8F2D9E2DF80128
:102BA0000995811116C02196CC16DD0694F0CC9FB4
:102BB000C001CD9F900D900D112420E030E045E341
:102BC0004A95F1F700002F5F3F4F28173907B9F7F3
:102BD000E2CFCDB7DEB7EAE00C949C2C0F931F93A5
:102BE000CF93DF93D82FC92F8B0146E855E1BDDF86
:102BF000811106C080E0DF91CF911F910F91089560
:102C000047E355E1B8018D2F9C2FAFDF811591F37C
:102C100049EA54E1B8018D2F9C2FA7DFECCF0F9329
:102C20001F93CF93DF93FB01C091D301D091D401C7
:102C3000CE01019626E0DC0101900D922A95E1F784
:102C400066E070E00E94311F88838E01085F1F4F8D
:102C5000C801AFD768E070E0C8010E94311F8F83C0
:102C6000688979898A899B890091E4021091E5023B
:102C70002091E6023091E7026017710782079307FF
:102C800049F06093E4027093E5028093E60290932A
:102C9000E702C9DADF91CF911F910F9108953CC8E7
:102CA00008950E949C220E94762600D80E948E26BB
:102CB0001CD80E9497260E949A26F1DF0E94B02617
:102CC0000E9461250E94610EF6CF909329028093A5
:102CD00028020895CF93DF93EC01FB0185818111D8
:102CE00004C081E0DF91CF9108950E94E40C8272CC
:102CF000FE01E052F847EB30F10598F7EF53F24D43
:102D00000C944D2C92D580E0EDCF811521F081D52A
:102D1000FACF8115E1F372D5F6CF811521F038D2C3
:102D2000F2CF8115E1F32AD2EECF811521F04AD2FC
:102D3000EACF8115E1F339D2E6CF811521F05CD2DB
:102D4000E2CF8115E1F34BD2DECF811521F0FFD028
:102D5000DACF8115E1F3EBD0D6CFCF92DF92EF92AD
:102D6000FF921F93CF93DF93172FE82F711111C09C
:102D7000411521F0F0E0EA57FB4FE4916E2F7E2FD2
:102D80008E2FDF91CF911F91FF90EF90DF90CF902A
:102D90000895C62ED12CE72EF12C411521F0F0E03C
:102DA000EA57FB4FE49186E0689F90011124CFEF32
:102DB000D0E0C901BE010E94042CAB01C601880FFE
:102DC000991FF5E5F49FB001F59F700D1124861B46
:102DD000970B682F660F680F6E01CE18DF08EC9D09
:102DE000D001ED9DB00D11249B2F169F6001112481
:102DF000CD2CDD247E01EC18FD086701EC9D7001EF
:102E0000ED9DF00C11246E01C61AD108B601169F73
:102E10006001179FD00C1124CD2CDD24CC19DD09C5
:102E2000EC9F6001ED9FD00C11247D2D43305105A6
:102E3000C1F02C3F334050F441305105B1F04230E5
:102E4000510561F47E2FEB2F9D2D08C044305105B4
:102E500079F04630510511F07B2F9F2D6E2FE92F11
:102E60008FCF7F2D9E2FEB2FF9CF7E2FEF2DF6CF1B
:102E70009E2FED2D7B2FF2CF41E06FCF0895FCCF39
:102E8000089590913A01291B922FE0910202F0914E
:102E90000302242F462F682F892F90E0099508956B
:102EA000CF93DF93982F762F842FD22FC32F692FA4
:102EB000E6DF962F672F482F2D2F3C2F892FE1DF3C
:102EC000DF91CF910895493708F048E7E9CF809125
:102ED0001004843060F483708460809310048091C7
:102EE0001304893718F088E78093130408958C3A07
:102EF000B0F38370886AF1CFE0E1F4E085E080838D
:102F000011828FEF828388E783831482CF010C9430
:102F1000FA0D90911404933018F49F5F9093140469
:102F2000811521F080E194E00C94FA0D089581E080
:102F3000F0CF90911404911519F0915090931404CE
:102F4000811521F080E194E00C94FA0D089581E060
:102F5000F0CF0F931F93CF938091100480FF09C08F
:102F6000E0910602F09107020995CF911F910F9110
:102F70000895C0913C0100910202109103028091DA
:102F80003D01C81768F780913A019C2F981B892F43
:102F900020E040E060E090E0F8010995CF5FEFCFDE
:102FA000EF92FF920F931F93CF93DF93D82F162F9B
:102FB000042F8091100480FF0BC0C0913C01E09071
:102FC0000202F090030280913D01C81730F0C1DF8A
:102FD000CDB7DEB7E6E00C94A02C80913A019C2F8F
:102FE000981B892F202F412F6D2F90E0F701099515
:102FF000CF5FE9CF982F762F842F2091100420FFE8
:103000000AC0493708F088E7692F39DF962F672F04
:10301000482F892FC5CF0895CF93DF93EC01EC8122
:10302000F0E0EF57FC4F4491E0E1F4E062818181F0
:10303000E1DF8C818F5F8C83DF91CF910895CF93F7
:10304000DF93EC01E0E1F4E0438162818C81D2DF27
:103050008C818F5F8C83DF91CF910895CF93DF9325
:10306000EC01209113049C81892F817090FD822FA7
:10307000692F627091FD622F492F447092FD422F9B
:103080008FDF8C8190E00196877099278C83DF9188
:10309000CF910895A0E0B0E0E0E5F8E10C94832C36
:1030A000182F062FD42FE22E9091100490FF25C0E8
:1030B000E92FE695E695AE2FB0E0AB52BE4F8C916E
:1030C0008093B3039C7F9430E9F4842F493708F050
:1030D00088E7612F702FD3DE962F672F482F892F17
:1030E0005FDF1093110400931204D0931304E114D2
:1030F00021F080E194E00E94FA0DCDB7DEB7E7E061
:103100000C949F2C823019F4D0911304EACF8630AE
:1031100019F410911104E5CF8930D9F3893109F7F9
:10312000E9518E2F8170D82EE695F0E0EF57FB4FD6
:10313000C491F12C60913E01F61610F00ADFD1CF58
:10314000FC9EC001112470E00E94042C812FD1103C
:103150000BC0860F20913C012F0D3327331F4D2FBD
:10316000602FB1DEF394E6CF861BF4CF282FE0E189
:10317000F4E0818143816281885F8CCF81E0F6CF6A
:10318000282FE0E1F4E0818143816281885082CF81
:1031900081E0F6CF282FE0E1F4E0628131E1630FB6
:1031A00008F46FEF4381818175CF81E0F3CF282F41
:1031B000E0E1F4E0628131E1631B08F460E0438107
:1031C000818168CF81E0F3CF282FE0E1F4E04381F3
:1031D00031E1430F08F44FEF628181815BCF81E0E1
:1031E000F3CF282FE0E1F4E0438131E1431B08F401
:1031F00040E0628181814ECF81E0F3CF20E04ACF71
:103200009091100490FF11C0233278F490913A010C
:10321000291B922FE0910202F0910302242F462FE6
:10322000682F892F90E0099594CE0895EF92FF9230
:103230001F93CF93DF93EC0110E0EE24EA94F12C7E
:1032400060913E01161768F084DE8C819A8190FFB0
:103250001DC08F5F8C83DF91CF911F91FF90EF9006
:10326000089520913C01210F3327331F70E0C701DF
:103270000E94182C962F8C814091130460911204A7
:10328000199F800D11241FDE1F5FDACF8150E2CF1E
:10329000A0E0B0E0EEE4F9E10C94812CFC01828125
:1032A000D1E080FDDFEFC0E0C0900202D0900302C9
:1032B00080913E01C81790F04CDE8091FC02D13025
:1032C00009F04BC0811102C080913E018150809372
:1032D000FC02CDB7DEB7E9E00C949D2C80913C0157
:1032E00090913A01891B8C0F20E040E060E090E073
:1032F000F601099504E010E0B12CEC2EF12C809140
:10330000FC028B0D84321CF163E20E94F72B892FA3
:10331000082E001C00088E150F0499F480913C01C2
:103320009701280F311D409113040403A0011124BB
:1033300055954795559547956091120480911104D4
:10334000C2DDBD0E01501040D1F6CF5FB1CF87FF77
:10335000DFCF90913E01890FDBCF90E00196609125
:103360003E0170E00E94182CB2CF0F931F93CF93B1
:10337000DF93C0913C010091020210910302809101
:103380003D01C81750F110E0C0910202D091030234
:1033900060913E01161770F1DCDD8091380190914B
:1033A000FB02980F9093FB0220913901280F209384
:1033B0003901121654F420913E012150330B092E8D
:1033C000001C0008921703061CF0819580933801B9
:1033D000DF91CF911F910F91089580913A019C2F19
:1033E000981B892F20E040E060E090E0F80109950B
:1033F000CF5FC5CFE12FF0E070E0CF010E94182C25
:1034000020913C01820F9091FB02092E001C0008C4
:10341000E917F0059CF090913901092E001C000875
:103420009E170F065CF0282F30E040911304609146
:1034300012048091110447DD1F5FAACF90913A01D9
:10344000891B20E040E060E090E0FE010995F4CFA8
:10345000A6E0B0E0EEE2FAE10C94822C8D839E832C
:10346000AD81BE811496FC912F2F30E0D9010E94CE
:10347000592C9B01AC010E946E2C6B017C0180E2F7
:1034800090E09C012F1B3109F901A5E5B0E0A701EF
:1034900096010E946E2C69837A838B839C839F01A3
:1034A000DF010E94532C9B010E94682C9B01AC0100
:1034B0002C0D3D1D4E1D5F1D69817A818B819C8184
:1034C0000E942B2C022F30E00A3240F5A901440F54
:1034D000551F420F531F55954795142F1095F12CEA
:1034E00085E5E82EE01A80913E01F81628F131DDDD
:1034F000AD81BE8114969C9181E0911519F09032B6
:1035000019F48FEF8093370180913701890FED8196
:10351000FE8184832696E8E00C949E2C85E590E05D
:10352000821B930BAC01440F551F480F591F57FFC7
:10353000D2CF4F5F5F4FCFCF8E2DF1FC802F2091E8
:103540003C012F0D3327331F412F60911204BBDC48
:10355000F394C9CF0F931F93CF93DF93EC0100E057
:1035600010E090913E010917110564F0F2DC8C81A6
:1035700090E00196817099278C83DF91CF911F9104
:103580000F9108954C8180913C019801280F311DC5
:10359000609112048091110496950917110544F465
:1035A000411541F0409113048EDC0F5F1F4FD9CFBE
:1035B0004115C1F340E0F8CFA0E0B0E0E2EEFAE15F
:1035C0000C947A2CFC016280448081E08483E1E8E1
:1035D000F3E07490E0E0F4E0E491C0911304C69548
:1035E000C158D0E0CC0FDD1FCD2FDD27812C25E089
:1035F000922EAA24AA94B12C55245A94E719EE2E9F
:10360000F12C80913E01881630F0A3DCCDB7DEB7F7
:10361000E0E10C94962CC82CD12C83E0681658F469
:10362000989CF0011124E350FD4F80911104808398
:1036300080911204818341101BC09C9CF0019D9CD1
:10364000F00D1124E350FD4F1382128280913C0152
:103650009601280F311D9C9CF0019D9CF00D1124BA
:10366000E350FD4F4281618180812DDC8394C9CF7D
:103670009C9C80019D9C100D112403501D4FF8014E
:1036800083818115F1F081508383589EC0011124FC
:10369000648170E00E94042CFB01FF27EF57FC4F70
:1036A0008491E82FE7195E9EC0011124B7010E94A2
:1036B000042C80911304689FB0011124F8017283D7
:1036C000C5CF0E942C2DB5010E94182C8C179D0788
:1036D0000CF0BCCFF3E06F1698F00E942C2DB501D2
:1036E0000E94182CF80180830E942C2D2091120436
:1036F0002695622F70E00E94182C280FF801218374
:103700009C9CF0019D9CF00D1124E350FD4F128212
:1037100080911304893C58F088EC9C9CF0019D9C9E
:10372000F00D1124E350FD4F848383838FCF8431C8
:10373000A0F784E1F2CFE0E1F4E080818E7F808326
:10374000CF010E94FA0D1092B40303CC60911004D3
:103750006695669570E04BE050E08FE391E00E9443
:103760003A2D892B19F481E08093B4030E9448110B
:103770009093AD038093AC0308959091100490FF53
:103780002CC0811559F18B3258F58F73880F880F33
:10379000909110049370892B80931004611521F08F
:1037A00080E194E00E94FA0D6091100466956695A0
:1037B00070E04BE050E08FE391E00E943A2D892BBE
:1037C00089F01092B40381E08093AF034091130419
:1037D000609112048091110411CD089581E0D6CF3B
:1037E0008AE2D4CFB3DFEFCF682F809110048695A3
:1037F00086958F5F8B3208F081E0BFCF81E0F4CFF8
:10380000682F80911004869586958A9509F48AE23E
:10381000B4CF81E0F5CF61E0B0CFE0E1F4E08081AA
:103820008160808386958695F6CF8091100480FF15
:1038300001C081CFF2CF60E0A0CF8091B2038111AF
:103840001FC080E194E00E94F80D80911004843044
:1038500028F452DB80E194E00E94F80D38DB1092EE
:10386000B403E0910002F0910102099580911004E7
:1038700080FF03C086958695DEDF81E08093B203EA
:10388000089580E194E00E94F80D21DB80911004FE
:1038900080FF03C086958695CECF08950F931F9322
:1038A000CF93DF938091B403811509F441C08091D7
:1038B000B303E0911004E695E695E81BE093AE03B0
:1038C000853109F48BC008F044C0893009F47CC00C
:1038D000A0F5823009F466C0863009F46CC0C0EDF2
:1038E000D7E00EE317E18091AF03811561F01092EC
:1038F000AF030E9448119093AD038093AC031092E4
:10390000B1031092B0030E9448112091AC03309192
:10391000AD03821B930B8F3F9F4750F42C0F3D1F2D
:103920003093AD032093AC038CEA93E0F801099542
:10393000DF91CF911F910F9108958F3081F6E69519
:10394000F0E0EC58FC4FE491CE2FD0E008E419E110
:10395000CACFC4EFD1E00AEA1AE1843221F288F436
:10396000C8E2D0E008E21AE1883109F4BCCF833222
:1039700009F0B5CFEFE6F3E0C591D5910EE218E17D
:10398000B2CF853209F0ABCF8E2F63E00E94EB2BD4
:10399000E92FF0E0E459FC4FE491CE2FD0E00CED9C
:1039A0001AE1A1CFF0E0E358FC4FE491CE2FD0E034
:1039B0000CE018E198CFF0E0E658FC4FE491CE2FF0
:1039C000D0E00FE118E18FCFE695F0E0E958FC4F29
:1039D000E491CE2FD0E006E119E185CFF0E0EF5879
:1039E000FC4FE491CE2FD0E005EB19E17CCF089598
:1039F00055CF0895E8E1F4E081E28083118280E20E
:103A00008283138260E2CF016FC0E8E1F4E082E2DA
:103A1000808381E08183128286E0838360E2CF012C
:103A200063C0E8E1F4E083E28083118212821382B2
:103A300060E2CF0159C00F931F93CF93DF93EC0146
:103A400019818A81412F480F5527551F443251054E
:103A500064F08DEF8093190460E288E194E044D033
:103A6000DF91CF911F910F910895012F080F8A3098
:103A700040F08EEFEFCF212F4A8169818881C0DB32
:103A80001F5F23961013F7CFEBCFE8E1F4E087E256
:103A9000808383E2818360E2CF0126C0E8E1F4E025
:103AA00088E2808382E0818360E2CF011DC0DC0177
:103AB000EC91E152E830A0F4F0E0E453F24D0C94C4
:103AC0004D2C98DF81E00895A0DFFCCFAADFFACF6C
:103AD000B2DFF8CFD6DEF6CFD8DFF4CFDFDFF2CF1C
:103AE00080E00895E4CF0895F1C308950C94FF1386
:103AF0000895E6EBF3E088E0DF011D928A95E9F78F
:103B000004C1FC01228130E02F5F3F4F2370332737
:103B1000938181E09217130609F080E008950F93D6
:103B20001F93CF93DF93EC01162F042FEADF81114F
:103B300013C08A81FE01E80FF11D00FB17F9148301
:103B40008F5F83708A8388818F5F888381E0DF91B4
:103B5000CF911F910F91089580E0F9CFCF93DF931C
:103B6000FC01EA01A38182818A17B9F0AE0FBF2F51
:103B7000B11D14968C9187FB992790F98F77DB0103
:103B80008C93988383818F5F8370838381818F5F20
:103B9000818381E0DF91CF91089580E0FBCF462FB4
:103BA000682F86EB93E0BBCFAB01BC0186EB93E0C3
:103BB000D5CFDC0188E0E6EBF3E001900D928A9529
:103BC000E1F7089581E08093B5030895CF93DF93E3
:103BD000D62F0E948D03C82F811541F06AE070E056
:103BE00089EAD11101C08AEA0E9475068C2FDF9103
:103BF000CF910895A2E0B0E0E0E0FEE10C94862CC5
:103C000000E0BE016F5F7F4FCE010296CDDF182F1F
:103C1000811105C0802F2296E4E00C94A22C6981CA
:103C20008A81D4DF012FEDCFCF9360DFC82F8115BC
:103C300011F0E0DFC82F8091B503811551F010928B
:103C4000B5038091B8038093B9038091B603809344
:103C5000B703A4D04BDF811511F0CCDFC82B8C2F1C
:103C6000CF9108958FE891E00197F1F700C000002F
:103C7000089526E9611101C022E93AB12F7081E06F
:103C800090E001C0880F2A95EAF7982F909593232A
:103C90009AB99BB1892B8BB9089526E9611101C0AE
:103CA00022E989B190E02F7002C0959587952A95F9
:103CB000E2F7817008950895CF93DF93C0E080917B
:103CC000BF03C81750F0CEDFC0E08091BF03C81714
:103CD00060F0F1DFDF91CF91089560E08C2FC9DFB4
:103CE00061E08C2FC6DFCF5FEACF60E08C2FD5DF9D
:103CF000D82F61E08C2FD1DFEC2FF0E0EE53FC4F9A
:103D0000880F8D2B8083CF5FE0CFCF930E94FC1371
:103D1000C1E08C278093BE030E94FC13C093BF03B5
:103D20000E94FC13C9DFCF9108951F93CF93DF93B7
:103D3000182F440F642BC82FD0E0DE01AE53BC4FC8
:103D4000EC918E2F8370681729F1EE0FEE0FE62BA2
:103D5000EC938091BE03180FEF70F0E0E85FFD4F29
:103D6000C054DC4F80819881890F888384301CF097
:103D700060E0812F14DF88818D3F1CF461E0812F8A
:103D80000EDF8881082E000C990B64E070E00E9421
:103D9000182C8883DF91CF911F910895CF93DF93E3
:103DA000C0E08091BF03C81718F0DF91CF9108954C
:103DB00061E08C2F72DFD82F60E08C2F6EDF682FD0
:103DC0004D2F8C2FB2DFCF5FECCF239A0895FC01EB
:103DD000EE0FFF1FE80FF91FE85CFB4F6183408384
:103DE00022830895FF920F931F93CF93DF93182F91
:103DF000062FF42EC0E0D0E02F2D402F612FCE01F2
:103E0000E6DF2196C332D105B9F7CDB7DEB7E5E0DD
:103E10000C94A12C35B1377F25B128604FB7F894A9
:103E200088E394E0FC010196508168E025B9000028
:103E300000C057FF35B9550F000000C000C000C0DA
:103E400035B900C06A9591F754E0813A950751F76A
:103E50004FBF8FE594E00197F1F700C0000008958F
:103E60000895FC01680F791F8FEF41E3E617F7070C
:103E700009F408959191892728E030E0982F990F4F
:103E800087FF06C0892F842721503040B9F7EECF35
:103E9000892FFACFCF93DF93EB0186319C4709F549
:103EA0000E94E40C9D81911599F08A7A91E081112C
:103EB00001C090E09093C403811541F085E363D283
:103EC0000E94700D80E0DF91CF91089589E2F7CFD5
:103ED0008091C403811519F085E35BD2F1CF89E2AB
:103EE000FCCF81E0F0CFCF93DF93EC01FB01858124
:103EF000811509F4CBC09E0130572332310508F0FB
:103F0000ABC080EF93E00E94F40DFE01E150F0475A
:103F1000E232F10520F4EC52F24D0C944D2C8091DC
:103F2000F00381608093F00390C08091F10388607A
:103F30008093F1038AC08091F0038260F3CF809177
:103F4000F0038460EFCF8091F0038860EBCF809125
:103F5000F1038160EDCF8091F1038260E9CF809120
:103F6000F0038061DFCF8091F0038062DBCF80912E
:103F7000F0038064D7CF0E94BA088091F003806874
:103F8000D1CF8091F0038C60CDCF8091F10383601D
:103F9000CFCF8091F0038E7FC5CF8091F103877FD3
:103FA000C7CF8091F0038D7FBDCF8091F0038B7FD1
:103FB000B9CF8091F003877FB5CF8091F1038E7FD9
:103FC000B7CF8091F1038D7FB3CF8091F0038F7EC7
:103FD000A9CF8091F0038F7DA5CF8091F0038F7BD7
:103FE000A1CF0E94BA088091F0038F779BCF809178
:103FF000F003837F97CF8091F1038C7F99CF8091DD
:10400000F003992782FF939590FB82F990FB83F947
:1040100089CF8091F103982F909590FB80F990FBC8
:1040200081F986CF9091F003892F8F7B96FF806472
:1040300079CF0E94BA089091F003892F97FB87F9F6
:10404000805870CF81E00E94FE0D80EF93E00E94C7
:10405000F60D0E94BA0880E0DF91CF91089580E0CC
:10406000F2CF9091F003892F8F7E94FF80615ACF19
:104070009091F003892F8E7F90FF816053CF9091B4
:10408000F103892F877F93FF886052CF81E0E4CFCF
:104090000F931F93CF93DF93C42FD22FFC01858101
:1040A0008115C1F04093C703ADD29093C6038093AE
:1040B000C50380E28C0F883040F4C77081E001C0F6
:1040C000880FCA95EAF70E949206DF91CF911F915F
:1040D0000F9108951091C703141332C08091C50346
:1040E0009091C60310D28639910550F5C0E2CD0FEC
:1040F0001D17C1F080E2810F883040F4177081E015
:1041000001C0880F1A95EAF70E949706C83050F44C
:1041100091E08D2F877001C0990F8A95EAF7892F5A
:104120000E949206802F0E948B06C83070F6D770CE
:1041300081E001C0880FDA95EAF70E949706C5CFA3
:1041400080E28C0F883008F0C0CFC77081E001C0DA
:10415000880FCA95EAF7F1CF0F93FC01CB01E85124
:10416000FC47E730F10588F5EA50F24D0C944D2CF0
:1041700006E221EE41EE6AE17CE78ADF80E00F9102
:10418000089507E225EE45EE6BE17CE7F6CF06E207
:1041900021EE40EE68E17CE7F0CF07E225EE44EE49
:1041A00069E17CE7EACF06E221EE42EE6CE17CE7D2
:1041B000E4CF07E225EE46EE6DE17CE7DECF08E2D4
:1041C00021E045EE6EE17CE7D8CFFB0185818111CE
:1041D0001092C70381E0D3CF9093CE038093CD0399
:1041E0000895089508950E94FF13811103C08091DE
:1041F000C8030895E091CD03F091CE03309739F0D4
:104200000190F081E02D309711F00995089580E03C
:104210000895E091CD03F091CE03309731F0028004
:10422000F381E02D309709F009950895A3E0B0E0FF
:10423000ECE1F1E20C94882C9C018091CB039091ED
:10424000CC0382179307B1F03093CC032093CB03B8
:10425000E091CD03F091CE03309761F00084F185B9
:10426000E02D309739F083E089833B832A83CE01A8
:10427000019609952396E2E00C94A42CA3E0B0E00B
:10428000E4E4F1E20C94882C9C018091C9039091A4
:10429000CA0382179307B1F03093CA032093C9036E
:1042A000E091CD03F091CE03309761F00084F18569
:1042B000E02D309739F084E089833B832A83CE0157
:1042C000019609952396E2E00C94A42CE091CD038D
:1042D000F091CE03309731F00284F385E02D3097D2
:1042E00009F00995089540910401509105019A0142
:1042F0002E5F3F4F485F5F4F80E0F90190812F5F55
:104300003F4F91118F5F42175307B9F708958115F9
:1043100071F02091040130910501F9013296285F76
:104320003F4F9191981729F0E217F307D1F780E0FA
:10433000089581E008959C01FC0132968FEF90E092
:104340004191461751F08F3F19F4411101C0892F57
:104350009F5F9630A9F78F3F09F40895280F311D0C
:1043600087FD3A95F901628308959C01FC0132961C
:10437000285F3F4F8191861302C0DF011E92E21732
:10438000F307C1F70895682F80910401909105010A
:10439000D2CF682F8091040190910501E6CFE09182
:1043A0000401F0910501329686E0DF011D928A95A5
:1043B000E9F708950895FECF08958F5F80934D012A
:1043C00060914A0170914B0180914C0190914D0197
:1043D000F2CF83E080934D0160914A0170914B01CF
:1043E00080914C0190914D01E6CFE7CF089581E097
:1043F00080934D0160914A0170914B0180914C0175
:1044000090914D01D8CFF3CF089591E0811101C073
:1044100090E090934C0160914A0170914B01809122
:104420004C0190914D01C7CF80914C01089580932C
:104430004B0160914A0170914B0180914C01909128
:104440004D01B9CF80914B01089580934A0160914D
:104450004A0170914B0180914C0190914D01ABCF7D
:1044600080914A01089508950895FECF0895089512
:104470000895F9CF08950F931F93CF93DF93F7DF3C
:104480000E946F13F5DF0FEC13E0C0E0D0E08C2F3B
:104490000E946112F80181938F0191E0811101C0A6
:1044A00090E0D92BCF5FCC3091F78D2FDF91CF915A
:1044B0001F910F910895E82FF0E0E153FC4F8081A8
:1044C00090E021E030E002C0220F331F6A95E2F74E
:1044D0002823392381E0232B09F480E0089541113A
:1044E00011C0E82FF0E0E153FC4F81E090E09C0127
:1044F00002C0220F331F6A95E2F7B90160958081EF
:10450000682360830895CF93DF93EC017BD08C1BED
:104510009D0BDF91CF910895CF92DF92EF92FF92A2
:104520006B017C017BD06C197D098E099F09FF907E
:10453000EF90DF90CF90089585B7806885BF85B7ED
:10454000806885BF08951F921FB61F9211248F9314
:104550009F93AF93BF938091DB03811113C0809130
:10456000A1049091A204A091A304B091A404419647
:10457000A11DB11D8093A1049093A204A093A30454
:10458000B093A404BF91AF919F918F911F901FBED4
:104590001F9018958091A904843031F10E948705FD
:1045A0001092DB0388E190E020E40FB6F894A89520
:1045B000809360000FBE2093600083B7817F84608A
:1045C00083BF83B7816083BF7894889583B78E7FDC
:1045D00083BF0FB6F894A89580916000886180939E
:1045E0006000109260000FBE08950E94BA080C94FB
:1045F0008B0582E084BD93E095BD9AEF97BD8093D3
:104600006E0008952FB7F8948091A1049091A204B0
:10461000A091A304B091A4042FBF08952FB7F894DC
:104620006091A1047091A2048091A3049091A404CC
:104630002FBF089578941F921FB61F9211248F9355
:104640009F93AF93BF938091A1049091A204A091F6
:10465000A304B091A4040196A11DB11D8093A104EF
:104660009093A204A093A304B093A404BF91AF912C
:104670009F918F911F901FBE1F90189581E080938E
:10468000E00080E28093D8001092C9008FE19EE4A0
:104690000197F1F700C0000087E090EBDC01809308
:1046A000B2049093B304A093B404B093B50488E12A
:1046B0009CE00FB6F894A895809360000FBE90938D
:1046C0006000FFCF88E19CE00FB6F894A895809336
:1046D00060000FBE90936000FFCF8EE14B9B02C045
:1046E0008A95E1F74B9BFECF08955B9880E28A950F
:1046F000F1F75B9A0895FC013BE03A95F1F798E0F9
:1047000020E080E031E040E14A95F1F7880F4B9BD3
:1047100002C08160232742E04A95F1F7000040E1A2
:104720004A95F1F79A9579F790E19A95F1F799B151
:1047300032E03A95F1F7000040E14A95F1F793FB3A
:10474000992790F992272081920F90830895A1E0F4
:10475000B0E0EDEAF3E20C94842C19828C017C0128
:10476000E60EF11CBADFCE010196C5DFF801819398
:104770008F01EE15FF05B1F781E09981911180E07D
:104780002196E6E00C94A02C539A5B9A08955398D6
:104790005B9AEB9AE9E6F0E080818F73808308955D
:1047A0006150770B91E001C0990F6A95EAF7692F84
:1047B00090E021E0611108C0911599F05B9A80E2C8
:1047C0008A95F1F75B980895362F3823311539F023
:1047D0005B9A922730E23A95F1F76695EBCF5B98BA
:1047E000F9CF5B98ECCFFF920F931F93CF93DF939A
:1047F000EC018C01060F111DF99077DF68E08F2D19
:10480000CFDFC017D107C1F7CDB7DEB7E5E00C9415
:10481000A12C1F920F920FB60F9211240F931F938A
:104820002F933F934F935F936F937F938F939F93B8
:10483000AF93BF93EF93FF93CF93DF930F92CDB7D7
:10484000DEB719824ADFCE01019655DF082F0695A3
:1048500006950695982F92959570202F2570920FAA
:10486000292F237096959695920F98279770898196
:10487000892B811509F058C0073008F055C080E138
:104880008A95F1F75B9A539A82E08A95F1F700C016
:104890005B9888E0089F80011124D801A95FBE4F72
:1048A0001696ED91FC9117973097A9F06091D3017E
:1048B0007091D40114962D913C911597260F371FB6
:1048C00011968D919C911297680F791F13964C91B8
:1048D00013978C910995F801E95FFE4F638161158B
:1048E00049F02091D3013091D40184819581820FC8
:1048F000931F79DFFADE80E18A95F1F75B98539890
:104900005B9A80E18A95F1F7F801E95FFE4F6081DB
:10491000611549F02091D3013091D40181819281B8
:10492000820F931F14DFD9DE0F90DF91CF91FF919B
:10493000EF91BF91AF919F918F917F916F915F9117
:104940004F913F912F911F910F910F900FBE0F909C
:104950001F9018950F931F93CF93DF938C010797A8
:104960000CF05EC0F894539A5B9885E08A95F1F755
:104970000000C02FC695C570802F8570C80F8C2F82
:104980008370C695C69593E0000F111F9A95E1F7C5
:10499000C80FC8018C2BEC01A8DE00C068E08C2F8A
:1049A000FFDE90E19A95F1F753985B9A4B9B31C0EB
:1049B00087E090E04B992FC0F801E95FFE4F6381DB
:1049C000611559F02091D3013091D40184819581F2
:1049D000820F931FBCDE811501F17FDE80E28A9594
:1049E000F1F75B98539A90E19A95F1F7F801E95F36
:1049F000FE4F6081611549F02091D3013091D401BF
:104A000081819281820F931FEEDE6FDE789481E0C8
:104A100008C000C0CBCF019749F4539A5B9A7894B1
:104A200080E0DF91CF911F910F91089500C0C2CF18
:104A300008950895282FCB01BA013091A90434308C
:104A4000D1F42F702093E9002FEF3091E80035FD6D
:104A500006C035ED3A95F1F700002A95B1F720919F
:104A6000E80025FF08C040E050E0F0D18091E80068
:104A70008E778093E8000895792F603229F440E220
:104A800050E0682F82E0D6CF0895BC0143E050E0AB
:104A900084E0D0CFCF93DF93D82FC92FC5DC48E077
:104AA00050E06D2F7C2F81E0C5DF88E0ED2FFC2FDB
:104AB000ACEDB3E001900D928A95E1F7DF91CF91D3
:104AC0000895A0E2B0E0E6E6F5E222C78091A904ED
:104AD000843001F583E08093E9008091E80082FF53
:104AE00019C08091E80090E085FF08C040E050E0E8
:104AF00060E270E0CE010196F6D191E08091E8008D
:104B00008B778093E800911529F060E2CE01019641
:104B10000E94721DA096E2E017C78091A80481113F
:104B200007C067D3BED38091E20084608093E20027
:104B300008951092A80408955ADC81E066CC609133
:104B4000A50481E0611101C080E043CC9091A904EB
:104B500081E0943009F080E06091A50446CC42E009
:104B600061EC81E0C2D242E261EC84E0BED242E27A
:104B700061EC82E0BAD242E260EC83E0B6D290917E
:104B8000A90481E0943009F080E06091A50415CC7F
:104B90008091AB04893081F148F4823009F496C0E9
:104BA000833009F457C0813041F008958A3009F408
:104BB00080C08B3009F468C008958091AA04813ABE
:104BC00009F047C08091E800877F8093E8008091DA
:104BD000AE049091AF04892B59F060E080E090E042
:104BE00070E0CED18091E8008B778093E800089543
:104BF00068E08CED93E0F4CF8091AA04813249F50E
:104C00008091AE049091AF048D7F892B11F5809136
:104C1000E800877F8093E8008091E80082FF15C05C
:104C20009091F3008091F200029731F48091F100AD
:104C3000813011F0863019F48091F100F8DB809119
:104C4000E8008B778093E80084C28091A9048111E9
:104C5000E3CF08958091AA04813AD9F78091AE04F8
:104C60009091AF04892BA9F78091E800877F80930A
:104C7000E8008091E80080FFFCCFD6DB8093F10054
:104C80008091E8008E77DECF8091AA04813209F707
:104C90008091AE049091AF04892BD9F68091E80001
:104CA000877F8093E80055D28091AC04AEDB0C94F2
:104CB000BA088091AA04813261F68091E800877F6A
:104CC0008093E80046D28091AD04BFCB8091AA04C6
:104CD000813A09F0BECF8091E800877F8093E80099
:104CE0008091E80080FFFCCFBBDBC8CF84B7877F13
:104CF00084BF0FB6F894A895809160008861809376
:104D00006000109260000FBE80E890E00FB6F8944B
:104D100080936100909361000FBE75CB6AD2C1D2BF
:104D2000E2EEF0E080818460808378942AC58EE48E
:104D300091E052CA8091A904853029F48091A90498
:104D4000853011F052CC089525DC95DB8115B1F347
:104D50008091A704811591F363D00E94BA08EECF29
:104D600008959A014091B0045091B10400C0AC0183
:104D7000CB01D901252F332723303105D1F070F431
:104D80002130310509F447C02230310569F48BE543
:104D900090E022EA35E02D933C93089521323105CD
:104DA000E9F02232310539F180E090E020E030E096
:104DB000F2CFCA019927413059F08230910559F05C
:104DC000EEE9F5E0892B81F7849190E09F01E3CF34
:104DD000E0E9F5E0F9CFE6E8F5E0F6CF83309105BC
:104DE00018F7FC01EE0FFF1FEF5DFD4F20813181B1
:104DF00089E090E0D0CF83309105B0F6FC01EE0F52
:104E0000FF1FE55EFD4F20813181885E9D4FFC01D3
:104E1000808190E0C0CF82E190E02DEF35E0BBCF04
:104E200080E189BD82E189BD09B400FEFDCF80919A
:104E3000D8008F7D8093D8008091E00082608093BD
:104E4000E0008091E00081FDFCCF0895AF92BF9219
:104E5000CF92DF92FF920F931F93CF93DF936C015A
:104E6000EB018A0195D1F82E811123C0011511059E
:104E700039F0F80180819181C81BD90BC80ED91E69
:104E8000A12CB12C2097A9F08091E80085FD21C0CC
:104E90008091E8008E778093E80001151105A1F05C
:104EA000F801808191818A0D9B1D9183808385E02B
:104EB000F82E8F2DDF91CF911F910F91FF90DF90F2
:104EC000CF90BF90AF90089563D18115E9F2F82E8D
:104ED000F0CFF60181916F018093F1002197FFEFF0
:104EE000AF1ABF0ACFCFAF92BF92CF92DF92FF929D
:104EF0000F931F93CF93DF936C01EB018A0148D18D
:104F0000F82E811123C00115110539F0F8018081B7
:104F10009181C81BD90BC80ED91EA12CB12C20978A
:104F2000A9F08091E80085FD21C08091E8008B7791
:104F30008093E80001151105A1F0F80180819181AD
:104F40008A0D9B1D9183808385E0F82E8F2DDF9144
:104F5000CF911F910F91FF90DF90CF90BF90AF90B6
:104F6000089516D18115E9F2F82EF0CF8091F10065
:104F7000F60181936F012197FFEFAF1ABF0ACFCFE0
:104F8000FC019B018091B0049091B10486179707B2
:104F900018F0672B61F0C90140E0009771F44111EE
:104FA0000CC08091E80082FF35C080E008958091B8
:104FB000E8008E778093E800EECF2091A9042115B8
:104FC000A9F12530A9F12091E80023FD2DC0209101
:104FD000E80022FDE6CF2091E80020FFDECF3091EF
:104FE000F3002091F200009719F02830310558F0B5
:104FF00041E02830310509F040E02091E8002E77AB
:105000002093E800CACF41914093F10001972F5FB0
:105010003F4FE9CF8091A904811541F0853041F0DF
:105020008091E80083FFBDCF81E0089582E008957C
:1050300083E00895FC019B018091B0049091B1043C
:105040008617970718F0672B61F0C90140E00097B9
:1050500071F441110CC08091E80082FF36C080E0FD
:1050600008958091E8008E778093E800EECF20913C
:10507000A9042115B1F12530B1F12091E80023FDFB
:105080002EC02091E80022FDE6CF2091E80020FF0D
:10509000DECF3091F3002091F200009719F0283014
:1050A000310558F041E02830310509F040E0209109
:1050B000E8002E772093E800CACF44914093F10096
:1050C000319601972F5F3F4FE8CF8091A90481155A
:1050D00041F0853041F08091E80083FFBCCF81E052
:1050E000089582E0089583E00895982F973028F07E
:1050F0008F708093E90081E008959093E900242F58
:10510000762F50E0981731F07091EC002091ED006F
:105110005091F00021FD02C09F5FE8CF3091EB007D
:105120003E7F3093EB003091ED003D7F3093ED00FA
:105130003091EB0031603093EB007093EC002093E2
:10514000ED005093F0002091EE0027FDE5CF80E0C8
:1051500008958091AA0487FF13C08091E80082FF20
:1051600006C08091E8008B778093E80008958091D5
:10517000A9048111F2CF08958091A9048115D9F372
:105180008091E80080FFF8CF8091E8008E77ECCF27
:105190002091E4003091E50095E6A9012091EC0012
:1051A000822F817020FF06C08091E80080FF06C03A
:1051B00080E008952091E80022FD1AC08091A904A2
:1051C000811589F0853089F08091EB0085FD0FC055
:1051D0002091E4003091E50042175307F9F29A95C7
:1051E000E1F684E0089582E0089583E0089581E087
:1051F000089567D06ED0E0EEF0E08081816080831A
:10520000E8EDF0E080818F77808319BCA7EDB0E0F6
:105210008C918E7F8C9380818F7E80831092A804E6
:1052200008950F931F93CF93DF934BD052D0C8EDC7
:10523000D0E088818F77888388818068888388819F
:105240008F7D888319BC1092A9041092A504109236
:10525000A7041092A60400EE10E0F80180818B7F75
:10526000808388818160888342E060E080E03DDF68
:10527000E1EEF0E080818E7F8083E2EEF0E08081DD
:1052800081608083808188608083F80180818E7F47
:105290008083888180618883DF91CF911F910F91F6
:1052A0000895E8EDF0E080818F7E8083E7EDF0E007
:1052B00080818160808384E082BF81E08093A80444
:1052C000B0CFE8EDF0E080818E7F80831092E20025
:1052D00008951092DA001092E10008951F920F9243
:1052E0000FB60F9211242F933F934F935F936F93B9
:1052F0007F938F939F93AF93BF93EF93FF9380918F
:10530000E10082FF0AC08091E20082FF06C0809126
:10531000E1008B7F8093E10033D28091DA0080FF3F
:1053200018C08091D80080FF14C08091DA008E7F71
:105330008093DA008091D90080FF8FC080E189BD21
:1053400082E189BD09B400FEFDCF81E08093A9040C
:10535000E4DB8091E10080FF18C08091E20080FFD3
:1053600014C08091E2008E7F8093E2008091E20081
:1053700080618093E2008091D80080628093D800A1
:1053800019BC85E08093A904DADB8091E10084FFF9
:1053900028C08091E20084FF24C080E189BD82E1C1
:1053A00089BD09B400FEFDCF8091D8008F7D809328
:1053B000D8008091E1008F7E8093E1008091E2002F
:1053C0008F7E8093E2008091E20081608093E20012
:1053D0008091A504811509F445C084E08093A90457
:1053E000B5DB8091E10083FF27C08091E20083FF5D
:1053F00023C08091E100877F8093E10082E0809369
:10540000A9041092A5048091E1008E7F8093E100B1
:105410008091E2008E7F8093E2008091E2008061C3
:105420008093E20042E060E080E05FDE8091F00087
:1054300088608093F00080DBFF91EF91BF91AF9186
:105440009F918F917F916F915F914F913F912F919C
:105450000F900FBE0F901F90189519BC1092A904C1
:1054600068DB77CF8091E30087FF02C083E0B6CF8F
:1054700081E0B4CF1F920F920FB60F921124EF92DA
:10548000FF920F931F932F933F934F935F936F93CD
:105490007F938F939F93AF93BF93CF93EF93FF939C
:1054A00009EE10E0F8018081C091EC008F70C79583
:1054B000CC27C795C82B108280EFE82EF12CF7017E
:1054C0008081877F808378941FD0F8011082F70154
:1054D000808188608083CF70F801C083FF91EF9155
:1054E000CF91BF91AF919F918F917F916F915F917C
:1054F0004F913F912F911F910F91FF90EF900F903F
:105500000FBE0F901F901895AAE2B0E0E9E8FAE20A
:10551000FEC18AEA94E0FC0101962091F10020830B
:1055200024E0823B9207B9F733DB8091E80083FFE8
:1055300037C08091AA049091AB049A3088F5E92F86
:10554000F0E0E350F24DA9C1803889F0823841F58E
:105550008091AE048F70873018F58093E9008091B8
:10556000EB0085FB882780F91092E90006C0809146
:10557000A704880F9091A604892B9091E800977F4B
:105580009093E8008093F1001092F1008091E80080
:105590008E7722C0811115C08091AC04813001F159
:1055A0008091E80083FF0AC08091E800877F8093A4
:1055B000E8008091EB0080628093EB00AA96E3E024
:1055C000C2C1823069F78091AC04811581F01092DC
:1055D000E9008091E800877F8093E800BADDE0CFA2
:1055E00081E0933009F080E08093A704F0CF8091B0
:1055F000AE048F702FEF280F263090F68093E900CD
:105600002091EB0020FFE3CF933031F48091EB0049
:1056100080628093EB00DBCF9091EB0090619093E0
:10562000EB0021E030E0A90102C0440F551F8A952C
:10563000E2F74093EA001092EA008091EB00886064
:10564000E8CF8111ADCF1091AC041F778091E300BA
:105650008078812B8093E3008091E800877F80939E
:10566000E80077DD8091E80080FFFCCF8091E300C7
:1056700080688093E30083E0111101C082E0809391
:10568000A9048ECF8058823008F08ACF8091AC0474
:105690009091AD048C3D53E0950791F583E08A83AA
:1056A0008AE289834FB7F894DE01139620E03EE04A
:1056B00051E2E32FF0E050935700849120FF03C0A4
:1056C00082958F703F5F8F708A30C0F0895C90E068
:1056D0008D939D932F5F243161F74FBF8091E80038
:1056E000877F8093E8006AE270E0CE01019648DC93
:1056F0008091E8008B778093E80052CF805DE7CF00
:105700006091AE047091AF04AE014F5F5F4F29DB33
:10571000BC01892B09F444CF8091E800877F8093F6
:10572000E80089819A8186DCE3CF803809F038CFA0
:105730008091E800877F8093E8008091A5048093A2
:10574000F10024CF81112CCF9091AC04923008F05D
:1057500027CF8091E800877F8093E8009093A5048D
:10576000F8DC8091A504811529F084E08093A904D8
:10577000F6D916CF8091E30087FDF7CF81E0F6CF11
:105780000895CF938091A904811591F08091E9004B
:10579000C091EC008F70C795CC27C795C82B10928D
:1057A000E9008091E80083FDAFDECF70C093E9008F
:1057B000CF9108951EDD1092A9040895E8EDF0E060
:1057C0008081806180838AE18A95F1F700C08091B1
:1057D000D90081700895992778E0880F991F96174E
:1057E00008F0961B881F7A95C9F78095089587FB66
:1057F000082E062687FD819567FD6195ECDF0EF486
:10580000919507FC81950895AA1BBB1B51E107C028
:10581000AA1FBB1FA617B70710F0A61BB70B881F40
:10582000991F5A95A9F780959095BC01CD010895CF
:1058300097FB072E16F4009406D077FD08D0E4DF1E
:1058400007FC05D03EF4909581959F4F0895709583
:1058500061957F4F0895A1E21A2EAA1BBB1BFD0183
:105860000DC0AA1FBB1FEE1FFF1FA217B307E4073F
:10587000F50720F0A21BB30BE40BF50B661F771F97
:10588000881F991F1A9469F7609570958095909577
:105890009B01AC01BD01CF010895EE0FFF1F0590E4
:1058A000F491E02D099405D0332312F48A1B9B0B4D
:1058B00010C0A29FB001B39FC001A39F700D811DB6
:1058C0001124911DB29F700D811D1124911D089509
:1058D000F0DFB7FF0895821B930B0895EADFA59FC1
:1058E000900DB49F900DA49F800D911D11240895DB
:1058F0002F923F924F925F926F927F928F929F92E0
:10590000AF92BF92CF92DF92EF92FF920F931F93CD
:10591000CF93DF93CDB7DEB7CA1BDB0B0FB6F8947E
:10592000DEBF0FBECDBF09942A88398848885F84BE
:105930006E847D848C849B84AA84B984C884DF802F
:10594000EE80FD800C811B81AA81B981CE0FD11D13
:105950000FB6F894DEBF0FBECDBFED010895002E47
:10596000083090F0982F872F762F652F542F432FD4
:10597000322F22270850F4CF220F331F441F551F08
:10598000661F771F881F991F0A95B2F7002D08958B
:1059900097FD1094002E083098F00850232F342FD4
:1059A000452F562F672F782F892F912DF4CF1594DF
:1059B0009795879577956795579547953795279547
:1059C0000A95AAF71124002D08958F929F92AF9205
:1059D000BF92CF92DF92EF92FF92CF93DF93EC01D1
:1059E000688179818A819B816115710581059105A5
:1059F00021F464E279ED8BE597E02DE133EF41E0AE
:105A000050E09BD049015A019B01AC01A7EAB1E4E7
:105A100065DF6B017C01ACEEB4EFA5019401ABD066
:105A2000DC01CB018C0D9D1DAE1DBF1DB7FF03C05A
:105A30000197A109B04888839983AA83BB839F7784
:105A4000DF91CF91FF90EF90DF90CF90BF90AF901C
:105A50009F908F900895B9CF80E091E0B6CFA0E0FD
:105A6000B0E08093000190930101A0930201B093F4
:105A700003010895FC014150504030F0019006169A
:105A8000D1F73197CF010895882799270895FB0111
:105A9000DC0104C08D910190801921F441505040E7
:105AA000C8F7881B990B0895FB01DC0102C0019027
:105AB0000D9241505040D8F70895F999FECF92BD0C
:105AC00081BDF89A992780B50895A6E1B0E044E039
:105AD00050E025C0A8E1B0E042E050E020C0262F11
