:10000000C5C20000FBC20000F9C20000F7C2000038
:10001000F5C20000F3C20000F1C20000EFC2000010
:10002000EDC20000EBC200000C94B0290C947B2AB6
:100030000C948C24E3C20000E1C20000DFC2000087
:10004000DDC20000DBC20000D9C20000D7C2000040
:10005000D5C200000C940525D1C20000CFC200001B
:10006000CDC20000CBC20000C9C20000C7C2000060
:10007000C5C20000C3C20000C1C20000BFC2000070
:10008000BDC20000BBC20000B9C20000B7C2000080
:10009000B5C20000B3C20000B1C20000AFC2000090
:1000A000ADC20000ABC20000A9C2000099059905CD
:1000B000C005C005160634060B070B073806A80650
:1000C000B506B506D511D811DD11E211E711EC1115
:1000D000F111F611FB1101120612261229122C122F
:1000E0002F12341239123E12431248124D1252127C
:1000F00057125C128B1B951B991B9D1BA11BA51BEB
:10010000A91BAD1BB11BB51BB91BBD1BC11BC51B5F
:10011000C91BCD1BD11BD51BD91BDD1B921D941DEB
:10012000961D981D9A1D9C1D9E1DA11D801EF21ED0
:10013000881E521E561E8C1E591E8F1E9A1E641E2D
:10014000E81E681E9E1E6C1EA21ECC1E701EA61EE1
:10015000D61E761EAC1EB61E5D1E931E601E961E1B
:100160007B1EB11EC21EE21EE41E4E1E841EFB1E1E
:1001700000220622F421FA210C2212221822DF2A60
:10018000062BF72B062BF72B512B732BF72BC72B9B
:10019000D62B29001E001F00200021002200230072
:1001A00024002500260027002D002E0031002A0003
:1001B0004C002B0014001A000800150017001C004A
:1001C00018000C00120013002F0030000000310056
:1001D0004700390004001600070009000A000B0060
:1001E0000D000E000F003300340000002800000056
:1001F0000000E10000001D001B00060019000500C2
:1002000011001000360037003800E50000005200F1
:100210000000E000E300E200000000002C0000000D
:10022000215200002C00E600E400000050005100C4
:100230004F0035023A003B003C003D003E003F00CD
:10024000400041004200430044004500010001001D
:100250000100010001000100010001000100010096
:100260000100010001000100010001000000010087
:100270000100010001000100010001000100010076
:100280000100010001000100010000000100000068
:1002900000000100000042784378010001000100E5
:1002A00001000100AA00A900A8000100000001004F
:1002B000000001000100010000000000010000003A
:1002C000010000000100437801000000010001006E
:1002D000010000010101010101010101020202020C
:1002E00002020202020303030303030303040404E0
:1002F00004040404050505050506060606060707A9
:1003000007070708080808090909090A0A0A0B0B60
:100310000B0C0C0C0D0D0D0E0E0E0F0F0F101011FF
:100320001111121213131414151516161717181885
:1003300019191A1A1B1B1C1D1D1E1E1F20202122ED
:1003400022232424252626272829292A2B2C2D2D33
:100350002E2F30313232333435363738393A3B3C50
:100360003D3E3F404142434445464748494A4C4D43
:100370004E4F50515354555658595A5B5D5E5F610C
:100380006264656668696B6C6D6F7072737577789F
:100390007A7B7D7E8082838587888A8C8E8F9193FD
:1003A0009596989A9C9EA0A2A3A5A7A9ABADAFB124
:1003B000B3B5B7BABCBEC0C2C4C6C9CBCDCFD1D409
:1003C000D6D8DBDDDFE2E4E7E9EBEEF0F3F5F8FAAF
:1003D000FDFF100342007200690063006B003600ED
:1003E00035000000180353005200200069006E0021
:1003F000640075007300740072007900000004034B
:10040000090409025B00030100A0FA0904000001CD
:1004100003010100092111010001224400070581A7
:100420000308000109040100020300000009211172
:1004300001000122220007058203200001070503B5
:10044000032000010904020001030000000921113A
:1004500001000122B60007058403200001120100FB
:1004600002000000084359050001000102000106D6
:1004700060FF0961A1010962150026FF0095207542
:100480000881020963150026FF0095207508910276
:10049000C005010902A10185020901A10005091990
:1004A000012908150025019508750181020501093A
:1004B0003009311581257F950275088106093815A7
:1004C00081257F950175088106050C0A3802158182
:1004D000257F950175088106C0C005010980A1012D
:1004E000850319012AB700150126B700950175107B
:1004F0008100C0050C0901A101850419012AA0028F
:10050000150126A002950175108100C0050109069C
:10051000A1018506050719E029E7150025019508C1
:10052000750181020507190029EF1500250195F0D5
:1005300075018102050819012905950575019102CA
:10054000950175039101C005010906A1010507196F
:10055000E029E715002501950875018102950175CF
:100560000881010507190029FF150026FF009506DF
:100570007508810005081901290515002501950553
:1005800075019102950175039101C00011241FBEF0
:10059000CFEFDAE0DEBFCDBF04B603FE18C0809116
:1005A000B7059091B805A091B905B091BA0587300B
:1005B000904BA740B04B59F41092B7051092B80574
:1005C0001092B9051092BA05E0E0F8E3099512E03F
:1005D000A0E0B1E0EEE4FAE502C005900D92AC3E79
:1005E000B107D9F725E0ACEEB2E001C01D92A73B00
:1005F000B207E1F70E94A8110C94252D01CD82309D
:10060000C8F46530B8F44031A8F4E62FF0E095E086
:10061000899FE00DF11D112484E0EE0FFF1F8A95E4
:10062000E1F7E40FF11DEE0FFF1FEE56FE4F85912F
:100630009491089581E090E00895E1CF089581E0DC
:10064000089581E00895FDCF0895FBCF0895FDCF73
:100650000895F7CF0895F5CF08950895FECF089532
:10066000FCCF08950895FECF0895A6E0B0E0EBE337
:10067000F3E00C949D2C49835A839E833091F302BE
:1006800089819A81311112C03E81332349F022239E
:1006900039F04CD5182F682F89819A8126D502C050
:1006A00035D5182F69817A81812F03C03FD56981A3
:1006B0007A810E94FA0E2696E3E00C94B92CFC0194
:1006C000262F408151816281738184819581CDCFB4
:1006D000CF93DF93EC0161E0F2DFBE01BADF882344
:1006E00031F061E0CE01EBDFBE01B1DF02C080E09E
:1006F00090E08170DF91CF9108950F931F93CF9376
:10070000DF93EC0160E0DBDF8C01BE01A7DFBE01FF
:10071000C801A6DFDF91CF911F910F91089521E0CD
:1007200030E0A90102C0440F551F8A95E2F7CA01C3
:100730001DC4CF93C82F81E090E00C2E02C0880F1B
:10074000991F0A94E2F70E94EB0C8C2FE8DFCF91FF
:10075000089581E00895FDCF0895FBCF0895CF93CC
:10076000C82FB6D38C2FF7DF8C2FF7DF2FEF84E362
:100770009CE0215080409040E1F700C00000CF9104
:10078000089581E0ECDF0C942B2580E0E8DF0C94E9
:100790004F250F931F93CF93DF938C0161E08FDF81
:1007A000EC01B80150DF8823B9F1B801CE0153DF65
:1007B000882391F1B801CE010E94E821882361F1DC
:1007C000B801CE010E942C1E882331F1B801CE0160
:1007D0000E94041E882301F1B801CE010E94C011BD
:1007E0008823D1F0B801CE010E9411128823A1F014
:1007F000B801CE010E94F40F882371F0F8018581C1
:10080000882339F1C3308CE7D807D1F058F4C115EB
:10081000FCE7DF0719F4B5DF80E01DC0C130DC471D
:1008200089F017C0CB35ECE7DE0789F0CC35FCE763
:10083000DF0751F0CA35DC4761F40E94AF0C09C0F4
:100840000E94E30CA2DFE8CF0E94A70C02C00E9426
:10085000B10CC801F4DEDF91CF911F910F91089583
:1008600002DF0E9451240E94AA1A2CD081E00C942D
:10087000261C2AD080E00E94261CF4DE0C9457240B
:1008800081E00895809581FF02C0469A01C0469894
:1008900082FF02C02E9A08952E980895CF93DF9379
:1008A000D82FEEDFC82F882311F08D2FEBDF8C2F90
:1008B000DF91CF9108953E9A469A269A2E9A0895EE
:1008C000EDCF089580E0FCCF0E943622F9CFCF9380
:1008D0000E943622C82F8091EE02C81771F0C09393
:1008E000EE020E94F9246093EF027093F00280936D
:1008F000F1029093F2028C2FE3DFCF910895ADE0E7
:10090000B0E0E5E8F4E00C949E2C488759876A87AC
:100910007B878C879D87911143D7CE01019627E075
:10092000FC0111922A95E9F726E0FE013896DC01D8
:1009300001900D922A95E1F72D81211109C029819D
:100940003A814B815C816D817E818F8179D603C034
:10095000BFDE8111F4CF2D96E2E00C94BA2CFC019D
:100960002481213019F48081918111C40895662376
:1009700019F00E94981F02C00E94EB1F0C94622085
:10098000CF93882309F440C0C82F8CEF8C0F813A95
:1009900068F48C2F0E94F222882321F08C2F0E9471
:1009A00093237DD78C2F0E947C230BC080E28C0F79
:1009B000883048F4C77081E001C0880FCA95EAF713
:1009C000D2D66DD721C0EBE5EC0FE33040F4F0E078
:1009D000E558FD4F808190E00E94762215C0E8E541
:1009E000EC0FEB3150F4F0E0EE0FFF1FEB5BFD4F2F
:1009F000808191810E949D2207C083E38C0F833107
:100A000018F461E08C2FB3DFCF910895882351F162
:100A10009CEF980F913A18F40E9493230CC090E237
:100A2000980F983048F4877091E001C0990F8A952B
:100A3000EAF7892F9ED633C79BE5980F933020F4B1
:100A400080E090E00C94762298E5980F9B3120F49A
:100A500080E090E00C949D2293E3980F933110F482
:100A600060E085CF08951F93CF93DF93182FEB019C
:100A700087DF209741F08FE99FE00197F1F700C0F1
:100A800000002197F6CF812FC1DFDF91CF911F9119
:100A90000895893319F060E070E002C060E570E00D
:100AA000E2CF882311F05FD6FAC60895882311F0AB
:100AB00060D6F5C60895A0E0B0E0E1E6F5E00C945C
:100AC000982C7C01062FC72FFC01D5811681129529
:100AD0001F703FD68823E9F0DD23D9F08C2F807F6B
:100AE000803461F080E2800F883098F08C2F807E17
:100AF000803221F4023068F0112359F080917004A3
:100B000082FF07C082E0FDD624D691E0D82ED926F8
:100B100001C0D12CCC2EC2948FE0C8228C2D90E045
:100B20008C30910508F077C1FC01EA5AFF4F0C9414
:100B3000882C8C2F807FCF70882311F0C295C07FC6
:100B4000DD2381F0CC2309F454C180E2800F88308A
:100B500010F0011103C08C2F06D602C08C2F13D6C3
:100B60009ED647C1802F52DFCC2309F454C180E2C6
:100B7000800F883018F1002309F18C2F0AD620C08D
:100B80008C2F807FCF70803211F0C295C07F002300
:100B900019F0013051F133C08091700482FD12C010
:100BA000DD2339F0CC2319F08C2FDDD578D680E009
:100BB00021C180E02BDFCC2309F42DC18C2FD9D5A6
:100BC0006ED629C1DD2341F01123E9F0113009F07F
:100BD00022C18C2FEDD51FC111111DC18C2F66DFD5
:100BE0008C2FF1D58C2F69D616C1DD2321F016305C
:100BF00008F011C108C0153008F00DC114C0DD2384
:100C000029F01111F6C08C2F4CDF05C1112359F0CA
:100C1000093309F0FEC0FFEF27EE83E0F1502040DA
:100C20008040E1F7F4C08C2F41DFF5C08C2F869512
:100C30008695837019F0813061F0EDC0DD2321F0DD
:100C4000802F9C2F937002C080E090E00E9476225B
:100C5000EAC0DD2321F0802F9C2F937002C080E03A
:100C600090E00E949D22DFC06D2F802F80DEDBC0D0
:100C70008C2F837099F5D111D2C0402F42954695A3
:100C80004770440F440F202F2F70822F90E09C015B
:100C9000042E02C0220F331F0A94E2F704FF0AC099
:100CA0008FE090E002C0880F991F4A95E2F7809587
:100CB000909502C080E090E0C695C695C370822BE7
:100CC000932BC23039F040F4C13011F058D1A7C095
:100CD0004FD1A5C05BD1A3C049D1A1C0DD2319F07C
:100CE0008C2F817001C08695882309F498C0402F0D
:100CF000429546954770440F440F202F2F70822F46
:100D000090E09C01042E02C0220F331F0A94E2F7E8
:100D100004FF0AC08FE090E002C0880F991F4A9537
:100D2000E2F78095909502C080E090E0C695C69568
:100D3000C370822B932BC23039F040F4C13011F0D4
:100D400073D16DC06AD16BC076D169C026D167C03E
:100D5000CF70DD2329F08C2F34D1802FA2DE5FC02D
:100D6000802FA4DE8C2F3BD15AC0023F11F128F412
:100D7000003F41F0013FB9F038C0033F01F1043FAB
:100D800071F033C0DD2339F0153008F044C08C2FEA
:100D90008F7135D140C0163008F03DC0F8CF80913A
:100DA000700482FD14C0DD2331F08C2F8F7109D1C6
:100DB00032C0DD23D1F38C2F8F7111D12CC0DD23F4
:100DC00021F08C2F8F71F3D026C0EED024C0DD230C
:100DD00029F063E08C2F8F717DD51DC081E091D506
:100DE0001230C8F082E08DD516C0DD2329F0112322
:100DF000E1F2802FC5DD0FC01123E9F2093349F478
:100E00009FEFE7EEF3E09150E040F040E1F700C0E3
:100E10000000802FFBDD88EF8C0D843020F40E94D1
:100E200036224EDD0DC0DD2059F08FD480FD08C084
:100E3000F701158284D4C5D0C7011BD080D4CFD090
:100E4000CDB7DEB7E8E00C94B42C0F931F93CF938B
:100E5000DF93EC01688179818D81A2D18C01F2D080
:100E600072D0B801CE0127DEDF91CF911F910F9193
:100E70000895CF93DF93FC0124812223A9F0EC0194
:100E800088DC81110DC065D4882371F08D818823A1
:100E900059F08091700482FF07C082E032D504C00F
:100EA000CE01D3DFCE0129DCDF91CF91089580E020
:100EB00090E00E94762280E090E00E949D2270D413
:100EC000EED40E947E200C9462200E94AA23EFCFD1
:100ED00057D4FBCF92959F70963079F010F49250D2
:100EE00001C09A50923068F4803F69F018F4883E4F
:100EF00040F409C0843F29F406C0883E20F0813FB9
:100F000011F080E0089581E00895FC0124812223FE
:100F100021F0808191813BD1DDCF80E00895A6E072
:100F2000B0E0E5E9F7E00C949E2C2696E2E00C9404
:100F3000BA2CA7E0B0E0EFE9F7E00C949E2C2796DE
:100F4000E2E00C94BA2C08950895FECF0895FDCFE9
:100F50000895FACF0895F8CF0895FDCF0895F9DFE9
:100F6000FCDF90931F0380931E030895F8CF08952C
:100F700020911E0330911F03822B932BF0CF2091E1
:100F80001E0330911F0382239323E9CF20911E0378
:100F900030911F0382279327E2CFD6DFD8DF9093CB
:100FA0001D0380931C03089580E090E0F6CF21E0BC
:100FB00030E0A90102C0440F551F8A95E2F7CA012B
:100FC000ECCF21E030E002C0220F331F8A95E2F718
:100FD00080911C0390911D03822B932BDECF21E087
:100FE00030E002C0220F331F8A95E2F7209530953A
:100FF00080911C0390911D0382239323CECF21E087
:1010000030E002C0220F331F8A95E2F780911C0363
:1010100090911D0382279327C0CF20911C0330910C
:101020001D03822B932BB9CF20911C0330911D03FC
:1010300082239323B2CF20911C0330911D0382277A
:101040009327ABCF0895962F9770A1E001C0AA0F08
:101050009A95EAF793E0769567959A95E1F7660F8A
:10106000771F660F771FFA01E60FF71F40E050E089
:10107000682F70E090819B01042E02C03695279561
:101080000A94E2F72170219529272A232927219301
:101090004F5F5F4F4430510569F70895FB01782F8A
:1010A000777023E0969587952A95E1F7880F991F29
:1010B000880F991FE80FF91F40E050E080E0219170
:1010C00030E0072E02C0369527950A94E2F721708A
:1010D0003327042E01C0220F0A94EAF7822B4F5FB8
:1010E0005F4F4430510559F70895282F953068F423
:1010F000803158F4862F622F70E020E1929F600DBE
:10110000711D112444EF52E09ECF0895953060F494
:10111000803150F4292F90E064EF72E030E1239F9A
:10112000800D911D1124BACF80E00895A0E0B0E0B9
:10113000ECE9F8E00C94972C7C0100911C031091D1
:101140001D0380911E0390911F03082B192BCFE0E4
:10115000D0E0CC24C394D12CC6010C2E02C0880F41
:10116000991F0A94E2F780239123892B21F4219778
:1011700098F7B12C06C0BC2EB7018C2F46D601972C
:10118000B1F38B2DCDB7DEB7E9E00C94B32CCF9340
:10119000DF93EC01CBDFBE0138D6DF91CF9108950C
:1011A0001F93CF93DF93EB019091F302992319F0F2
:1011B000CB01EDDF0FC0882339F0CB01B7DF182F4B
:1011C000682FCE0192DF03C0CB01A0DF182FBE0134
:1011D000812F1BD6DF91CF911F9108951F93CF933D
:1011E000DF93C091200317E080912103C81799F085
:1011F000D0E01C9FF0011D9FF00D1124EE5DFC4F0F
:10120000208131814281538164817581868191DEA3
:101210002196C770E9CFDF91CF911F91089520915A
:101220005A0330915B0340915C0350915D036091E0
:101230005E0370915F03809160037BCECF93DF9359
:101240008091600382958F7009F04CC080915F039C
:10125000882309F447C080912003409121035091D5
:101260005B0360915A03C0915C03D0915D0377E00A
:101270008417C1F190E0789FF001799FF00D11245F
:10128000DF01AE5DBC4F14962C911497222339F1E7
:1012900011962C911197251322C02C9126131FC053
:1012A00015962C91159721111AC012962D913C91EB
:1012B00013972C1B3D0B283C310588F4809160036B
:1012C0008F70806180936003E85DFC4F80818F7038
:1012D000806180838AE593E0CCDD80DF03C00196E6
:1012E0008770C6CFDF91CF91089520912003909110
:1012F000210357E02917A9F030E0529FF001539FD6
:10130000F00D1124EE5DFC4F7181761306C07081E3
:10131000781303C07581741306C02F5F3F4F277089
:10132000E9CF80E0089581E00895A4E1B0E0EBE921
:10133000F9E00C94942C8C0186E0F801DE011F96F4
:1013400001900D928A95E1F7F8018481E5809AE594
:10135000A92E93E0B92E90915E03911115C08823B8
:1013600009F467C1EE20B9F1C801CFDDF82E88235A
:1013700091F187E0F801D50101900D928A95E1F78E
:10138000C501EDDA5BDF51C1F801C080D1808280F8
:101390009380F0905F0320915C0330915D03A40182
:1013A000421B530BFF2009F4E8C0483C510508F0EC
:1013B00096C0882309F43FC180916003282F207FC5
:1013C00090915B03222351F09D1509F45AC0C80186
:1013D0009CDD81115EC0C8014CDD2BC19D1113C085
:1013E00090915A039C110FC0E1100DC08F70806165
:1013F0008093600314DF8AE593E03BDD8091600316
:10140000F801868314C1E11036C040E06D2D8C2DAB
:101410006CDF40E06D2D8C2D68DFE82E811107C157
:10142000CF86D88A8F859889B2DE292F22952F7092
:10143000243020F49F70223028F009C02A50223036
:1014400080F014C0992349F0811107C012C099237C
:1014500021F0F8019681907F61F0805E883030F451
:1014600008C0803F30F0815F833018F0C80101DD93
:10147000EF2CFE2CE0C080916003816080936003BC
:10148000D6C090915A039C11A2CFE110A0CFF801D1
:101490009FC0EE2009F49FCF20916003822F829598
:1014A0008F7090E0029784F080915A0390915B03D3
:1014B000998788879B868A8680915E038C871D86A4
:1014C0002E87CE010896D5DC87E0F801AAE5B3E0C7
:1014D00001900D928A95E1F7B1DEA1DEAAC090914C
:1014E0006003292F207F89F4682D9A8A898AA601B2
:1014F0007A899E2D14DD8AE593E0BBDC87E0F50157
:1015000011928A95E9F78BDE92C0882309F493C083
:1015100080915B038D1110C080915A038C110CC017
:10152000E1100AC0F8019683C801A3DC87E0F50149
:1015300011928A95E9F77FC0C801E7DC882309F496
:101540004ACFEE2009F447CF20916003822F829585
:101550008F7090E002970CF4B7CF80915A0390916E
:101560005B039A8389839C828B8280915E038D8347
:101570001E822F83CE010196A6CF483C510508F06C
:1015800048C0882309F455C0FE2CEE2009F423CF6F
:1015900080915B038D1131C080915A038C112DC055
:1015A0009091600390FD20C0892F82958F70282F25
:1015B00030E021153105C1F0F80196832F30310557
:1015C00041F08F5F982F9295907F86818F70892B45
:1015D0008683C8014EDC87E0F801AAE5B3E00190FC
:1015E0000D928A95E1F721C087E0F801AAE5B3E002
:1015F00001900D928A95E1F71EC0C80186DC811129
:1016000063CF80916003816080936003C80131DC07
:1016100012C0682D9A8A898AA6017A899E2D7FDC5C
:1016200087E0F50111928A95E9F7F9DD04C0F12C04
:1016300002C0FF24F3948F2D6496ECE00C94B02C40
:10164000AEE0B0E0E6E2FBE00C949D2C2887398701
:101650004A875B876C877D878E87CE01089665DE1B
:10166000882359F06C85662399F1288539854A8548
:101670005B857D858E855DDC2BC087E0FE0138961D
:10168000DE01119601900D928A95E1F76C85662333
:10169000F9F02091210330E0C90101968770992764
:1016A0004091200350E084179507C9F16D8397E0BE
:1016B000929FD001939FB00D1124AE5DBC4FFE01EF
:1016C000319601900D929A95E1F78093210386DD82
:1016D00017E08091200390912103891761F1189FF1
:1016E000C00111248E5D9C4F20DE882321F1E09102
:1016F00020031E9FF0011124EE5DFC4F20813181FB
:101700004281538164817581868113DC809120033D
:1017100090E001968770992780932003DACFD8DB79
:101720001092210310922003EAE5F3E087E0DF0145
:101730001D928A95E9F72E96E3E00C94B92C8091DE
:10174000890386958695869508958091890387708B
:10175000089590918903977081E009F480E00895DD
:101760008091B50308959091B503892B8093B503BB
:10177000089580959091B50389238093B5030895CA
:101780001092B50308959091B403892B8093B4030C
:10179000089580959091B40389238093B4030895AC
:1017A0001092B40308950895FECF0895FDCF0895D3
:1017B00090918B03292F2823821721F0982B909347
:1017C0008B03F4CF089590918B03292F282329F0C0
:1017D0008095892380938B03E9CF089580918B03B3
:1017E000882321F010928B0380E0E0CF0895CF93FF
:1017F000C091B5038091B403C82B80918B038823DB
:1018000029F0C82B0E94D1228111E8DF8C2FCF91C3
:101810000895CF93DF93C0911E02D0911F02E7DF9E
:101820008883C0911E02D0911F0248E050E061E819
:1018300073E0CE010E94C52C892B59F088E0FE018F
:10184000A1E8B3E001900D928A95E1F7CE010E94E4
:101850004522DF91CF910895CF93DF93C0911C0271
:10186000D0911D02C4DF8983C0911C02D0911D025A
:1018700040E250E061E673E0CE010E94C52C892B66
:1018800059F080E2FE01A1E6B3E001900D928A9545
:10189000E1F7CE010E945222DF91CF9108950E947C
:1018A0002F22882329F080916F0487FF01C0D4CFB5
:1018B000B0CF79CF0895FDCF089590918A03292F55
:1018C000282329F08095892380938A03F4CF0895F3
:1018D0006ACF08959091700492FF0EC098E0899F9E
:1018E00090011124262B209389036BDB80918903BF
:1018F000869586958695ECCF64CB1092890380E01F
:10190000E7CF909189038095892380938903282FBD
:10191000277059F4981749F09091700492FF05C010
:101920008695869586955BDBE8CF08959091700447
:1019300092FB222720F9281749F080FB92F9909317
:1019400070048FE694E04BD082E0DBCF0895809165
:10195000700482FB882780F991E08927E7CF81E036
:10196000E5CF80E0E3CF60E070E0CB01A9C360E0A9
:1019700070E0CB019FD3F7CFA3E0B0E0E2ECFCE056
:101980000C949E2C44D34FD31B82CE01039662D37A
:1019900081E090E090931F0380931E0367D31A8227
:1019A00019828A81846080618A83CE0101966FD317
:1019B0000E94A715DCDF0E94A0152396E2E00C949C
:1019C000BA2CDACF089535C3089522C3089537C3DA
:1019D000089546C308954AC308954DC3089557C353
:1019E00008955CC3089560C3089570C30895A6E088
:1019F000B0E0EDEFFCE00C949C2C0E94ED248C01F7
:101A00008091B6039091B7030817190781F01982E6
:101A10001A820E94ED24682F49815A81792F80E033
:101A200090E00E947F041093B7030093B6032696BC
:101A3000E4E00C94B82C0E94F9246093C6037093E0
:101A4000C7038093C8039093C9036093C203709344
:101A5000C3038093C4039093C503089581E0089560
:101A600081E00895FDCF08950895FECF0895FCCF3D
:101A70000895FACF0895F8CF0895FDCF0895F9DFBE
:101A8000FCCFF2CF0895F0CF0895FDCF0895F9DF90
:101A9000FCCFEACF089582EF9FE06DD4FADFF7CF55
:101AA000E6DFE3DFE1CF91DF811101C08ADF8AEC5D
:101AB00093E08DDF8FE694E090DF0E94021E89DFC5
:101AC00055DA80911C0390911D0341CA0E94E424C1
:101AD000B6D3E9DF0E945B040E94FA1BD0CFA6E0D8
:101AE000B0E0E5E7FDE00C94922CB8DF811102C074
:101AF0007EDF60C0B6D328EBE22E23E0F22E570142
:101B0000D12CF501019111915F018D2DE4D2802737
:101B10009127D394F5E0DF1619F0892B91F302C0D9
:101B2000892B31F38091CA0381FDDED29BDF682EC1
:101B300010E0812FD0D24C01F701A080B180A826FF
:101B4000B926A114B10471F100E0CC24C394D12CC6
:101B5000C5018C219D21892BE9F077247394C40160
:101B60008C219D21892B09F4712C662071F0098349
:101B70001A830E94ED24682F8B839C8349815A81AC
:101B8000792F81E0972D0E947F04472D602F812FB0
:101B90000E944C160F5FCC0CDD1C0031C9F6F7011A
:101BA000918280821F5FF2E0EF0EF11C153009F088
:101BB000C0CF41DF0E94AA1A0E94A0200E946704A1
:101BC0002696EEE00C94AE2C1F93CF93DF931FD19B
:101BD000EC01C11580E5D807E8F5C11590E4D907F7
:101BE00008F0A6C0C03ED10530F5CD3CD10508F0C7
:101BF00094C0C83AD10578F4C53AD10508F083C03D
:101C0000C130D10509F47CC008F4ECC0C430D10562
:101C100008F0EBC0E7C0C33CD10508F0E3C0C85AE8
:101C2000D0E0CC0FDD1FC258DD4F0990D881C02D08
:101C3000CE019464DBC0C11580E2D80708F0C7C0AC
:101C4000C11591E0D90708F06BC0C83ED10508F472
:101C5000CCC0C8C0C03682E5D80728F5C03492E5AC
:101C6000D90708F076C0C03282E5D80708F069C00D
:101C7000C11592E5D90708F47EC04C2F46954695CC
:101C800080E2489FA0011124C37021E030E0C90127
:101C900002C0880F991FCA95E2F7EA01C82BD92B19
:101CA000CE019D68A3C0C03A82E5D807B8F48C2F56
:101CB0008F71C03892E5D90708F078C0869586956F
:101CC00090E2899F90011124C37081E090E002C0EE
:101CD000880F991FCA95E2F79A6865C0C03C82E5F3
:101CE000D80708F46AC0C03E92E5D90708F07AC068
:101CF000CF71DD27DC2FCC27CE01806F906A76C0B4
:101D000081E090E073C0C55AD0E0CC54DD4F8881AB
:101D1000C82FD0E0CE01906469C0CE01906566C046
:101D20008D2F11D1182FCE01992771D01F7158C056
:101D3000CE0199276CD0CC27DF70D06A8C2B9D2BDD
:101D400055C0CF71D0E0DC2FCC27CE01816F906AD7
:101D50004DC08C2F8F718695869590E2899F90015A
:101D60001124C37081E090E002C0880F991FCA95CA
:101D7000E2F79C6818C08C2F8F71E5D095E0D6955E
:101D8000C7959A95E1F7CF70D0E0DC2FCC27282FAC
:101D900030E084FF06C084E0220F331F8A95E1F70C
:101DA0003327D069CE01822B932B20C090E0D82F0F
:101DB000CC27CE01846F906A19C08C2F8F71C3D04D
:101DC0008F7190E0D82FCC27CE0190620FC08D2F5D
:101DD0008F71B9D0182FCE01992719D01F71906239
:101DE000912B04C080E090E001C0CE01DF91CF9143
:101DF0001F910895753030F4603120F4462F672F1D
:101E00000C941D0380E090E00895F4DFDDCE82386D
:101E1000910569F1B0F48133910509F475C048F476
:101E20008932910509F467C08A32910509F471C0BD
:101E300008958533910509F459C089339105B9F0A6
:101E40000895833E910589F138F4803E9105D1F0E3
:101E5000823E910529F10895863E9105C9F1873E9C
:101E60009105D9F1843E910509F06CC027C02091FD
:101E70006F0420FD57C021FD55C02091700423FD43
:101E80005BC0089580916F0480FD48C0809170040C
:101E900080FF48C080916F0484FD46C083EE51C02E
:101EA00080916F0482FF3CC0F5CF80916F0482FD6A
:101EB00037C08091700480FD35C0ECCF80917004F4
:101EC00081FF36C080916F0484FD2EC087EE39C03B
:101ED00080916F0483FF2AC0F5CF80916F0483FD4A
:101EE00025C08091700481FD23C0ECCF80916F04E8
:101EF00085FD22C01FC080916F0485FD1BC08091AD
:101F0000700483FF19C00AC080916F0486FD16C05B
:101F100017C080916F0486FD13C010C089E311C003
:101F200082EE0FC080EE0DC080E00BC086EE09C0CF
:101F300084EE07C085E305C089E203C08AE201C0E0
:101F400081E390E0089590916F0492FF10C041E00A
:101F5000282F2471243009F040E031E0282F287127
:101F6000283009F030E0431711F02CE0822793FF6E
:101F700010C041E0282F2471243109F040E031E005
:101F8000282F2871283109F030E0431711F02CE098
:101F900082273091700430FF10C051E0282F21714A
:101FA000213009F050E041E0282F2871283009F055
:101FB00040E0541711F029E0822731FF10C041E0C2
:101FC000282F2171213109F040E031E0282F2871BC
:101FD000283109F030E0431711F029E0822794FD01
:101FE000877E089580E00895CF939C01205E32455E
:101FF0002032310540F4FB01C581C11105C08F714C
:102000000E94990301C0C1E08C2FCF9108950895DB
:1020100080E090E00E94F32C21E0833E9E4F09F087
:1020200020E0822F089563EE7EEF80E090E00C9434
:10203000212D6FEF7FEF80E090E00C94212DCF9366
:10204000DF93EC0182E090E00E94EB2C8883DF912B
:10205000CF910895FC01608182E090E00C94072DFF
:1020600083E090E00E94EB2C90E00895682F83E0DD
:1020700090E00C94072DCF93DF93EC0184E090E087
:102080000E94F32C99838883DF91CF910895FC01FE
:102090006081718184E090E00C94212D48E050E053
:1020A00067E170E00C94DB2C48E050E067E170E001
:1020B0000C94F82CAB01BC018FE090E00C94192D2E
:1020C000AB01BC0183E190E00C94192D682F8EE0E8
:1020D00090E00C94072DE82FF0E0EE0FFF1FE5587D
:1020E000FB4F808191810895089580EA8A95F1F7E8
:1020F000089500C00895F9CF08950895FECF08957A
:10210000FDCF0895FACF0895FDCF0895F894E82FF4
:10211000E295EF70F0E031A1282F2F7081E090E080
:1021200001C0880F2A95EAF7982F9095932391A3E1
:1021300092A1892B82A3789408950F931F93CF9334
:10214000DF93C7ECD2E089918F3F09F0DFDF82E0B7
:10215000CC3CD807C1F7C7EBD2E007EC12E089917D
:102160008F3F09F0D3DF0C171D07C9F7DF91CF911F
:102170001F910F910895A0E0B0E0E1ECF0E10C9424
:10218000972C8C01C62FD0E0CE0189539D4F6C0156
:10219000FC0190819F3F09F44DC0B62EF894E92FC1
:1021A000E295EF70F0E081A19F7021E030E001C086
:1021B000220F9A95EAF7822B81A382A120952823EA
:1021C00022A3789496DFE7EBF2E047EC52E021E0BF
:1021D00030E0E12CF12C61916F3F89F0A62FA295A0
:1021E000AF70B0E090968C9190E06F7002C09595C2
:1021F00087956A95E2F780FD02C0C90102C080E0C0
:1022000090E0E82AF92A220F331F4E175F0719F7CB
:10221000F60180818F3F09F079DF61E0E114F1047C
:1022200009F460E08B2D67DFCC0FDD1FC00FD11FDD
:10223000F982E882CDB7DEB7E9E00C94B32C7DDFFC
:102240008AE0EBE7F4E0DF01982F1D929A95E9F719
:10225000E1E7F4E0DF011D928A95E9F785E039D0E6
:1022600053CFAAE0B0E0E7E3F1E10C949B2C8E01A0
:102270000F5F1F4F8AE0F80111928A95E9F7F12C60
:102280006F2DC80178DFF394F5E0FF12F9CF4AE033
:1022900050E0B80181E794E00E94C52C21E000974E
:1022A00009F420E0892B41F08AE0F801A1E7B4E0CD
:1022B00001900D928A95E1F745E06BE774E081E7C4
:1022C00094E008D0182F1CDF812F2A96E5E00C94AB
:1022D000B72C0895EF92FF920F931F93CF93DF9344
:1022E0007C018B01C42F222351F081E08093CD0328
:1022F0000E94ED249093CC038093CB0304C0809183
:10230000CD03811102C080E01CC08091CB0390916D
:10231000CC030E946C240597B0F3D0E0CC0FDD1FF6
:10232000AE01B701C8010E94C52C892B39F0AE015E
:10233000B701C8010E94D22C81E001C080E0109258
:10234000CD03CDB7DEB7E6E00C94B62CC8CB08952C
:102350000E9485240E94C6269EDB0E94DE26B6DBF4
:102360000E94E7260E94EA26F1DF0E9400270E94D1
:10237000A82596DBF7CF9093ED028093EC020895A9
:102380000F931F93CF93FB01C581CC2309F443C066
:102390008C01E6D98272F801E052F847EB30F10582
:1023A000D8F5EE59FF4F0C94882C0E94301C27C0A2
:1023B000882329F00E94951C22C08823D9F30E940B
:1023C000881C1DC0882329F00E94C71C18C08823C0
:1023D000D9F30E94B61C13C0882329F00E94E51C83
:1023E0000EC08823D9F30E94D61C09C0882329F087
:1023F0000E94031D04C08823D9F30E94F41CC0E08E
:102400000BC0882329F00E941B1DF9CF8823D9F324
:102410000E940F1DF4CFC1E08C2FCF911F910F911F
:1024200008951F93CF93DF93FB01158111114AC0CB
:10243000EC0196D98272FE01E054F847ED30F105C7
:1024400008F03FC0E359FF4F0C94882C0E943F1CBA
:1024500039C00E944E1C36C00E94301C33C08823F5
:1024600029F00E94951C2EC08823D9F30E94881C55
:1024700029C0882329F00E94C71C24C08823D9F3CF
:102480000E94B61C1FC0882329F00E94E51C1AC0B8
:102490008823D9F30E94D61C15C0882329F00E94F6
:1024A000031D10C08823D9F30E94F41C0BC088239D
:1024B00029F00E941B1D06C08823D9F30E940F1D1E
:1024C00001C011E0812FDF91CF911F910895EF920C
:1024D000FF920F931F93CF93DF938B01682F1111FE
:1024E0000AC0442329F0E82FF0E0EE52FD4F64913A
:1024F000762F862F75C0212F30E0E82FF0E044239F
:1025000021F0EE52FD4FE491F0E046E0049FC0015F
:102510001124CFEFD0E0BE010E94232C4BEA4603EA
:10252000C001479F900D1124800F911D800F911DB8
:10253000982F990F890FAE01421B530B4E9FD0016C
:102540004F9FB00D5E9FB00D11249B2F189FA001CF
:102550001124452F55278E01041B150B0E9FA0013A
:102560000F9F500D1E9F500D11247E01E81AF10897
:10257000E29E8001E39E100DF29E100D1124212F8A
:102580003327C21BD30BCE9F9001CF9F300DDE9F10
:10259000300D112462307105A9F050F461157105F8
:1025A00071F061307105C1F47E2F8B2F952F17C00C
:1025B0006430710569F048F06630710569F48B2F5D
:1025C000732F0CC07E2F832F0AC08E2F752F07C04C
:1025D0008E2F7B2F932F03C0852F7B2F9E2F692F4C
:1025E000CDB7DEB7E6E00C94B62C41E070CF282FD3
:1025F000269F020E20E0211D1124822F089520E045
:1026000030E0869F080E211D969F200D311D11245C
:10261000290F311DC9010895BC018230910508F4CC
:102620000895613E8EE1780748F49B0195E0369568
:1026300027959A95E1F748E0420F01C04FEF91E0EE
:10264000242F30E0290F311D35952795229FF00169
:10265000239FF00DF00D11246E177F0718F44FEF34
:10266000420F04C02F3F39F091E0920F491740F715
:102670008FEF890F08958FEF0895482F982F46FD0B
:102680009095E92FEF739F7046FD9F5FE295EF7085
:10269000EE0FF0E0E453FD4F2181299F802D212D85
:1026A000112482958F702295207F822B3081982F64
:1026B000930F892F47FD8195805808951F93CF93DD
:1026C000DF93D62FC72F182F822F8695D6DF8058FD
:1026D00087FD8195612F880F8ADF6D2F7C2FDF9119
:1026E000CF911F910895622F0895E42FF0E0EE0F2F
:1026F000FF1FE05BFE4F6081621B0895E42FF0E056
:10270000EE0FFF1FEF5AFE4F6081621B0895A22F4C
:1027100050E0FA01EE0FFF1FEF5AFE4F90819052EA
:1027200097FD9195440F551FFA01E05BFE4F3081F4
:10273000232F30E02A1B3109290F311D97FD3A95CF
:10274000620F0895EF920F931F9393E0099F80010A
:102750001124159507956E2D600F1F910F91EF9025
:1027600008950F93CF93DF93D72FC82F47FD41953F
:10277000E8E3F0E0CF01841B910947FD9395889F22
:10278000B001899F700D700D1124229FC001239FFD
:10279000900D900D1124860F971F3EDF682F660F56
:1027A000860F682F600F7D2F8C2FDF91CF910F91B7
:1027B00008950F931F93522F10E0F801EE0FFF1FA3
:1027C000EF5AFE4FE081F0E0B0979F015203D00135
:1027D000539FB00D1124000F111FF801E05BFE4F55
:1027E000008110E00057110940039001419F300D16
:1027F00011242A0F3B1F37FF02C021583F4F220FE1
:10280000232F221F330B620F1F910F9108950F93F7
:102810001F93522F10E0F801EE0FFF1FEF5AFE4FEB
:10282000E081F0E0B097EE0FFF1F9F015203D0014F
:10283000539FB00D1124000F111FF801E05BFE4FF4
:10284000008110E000571109000F111F4003900193
:10285000419F300D11242A0F3B1F37FF02C0215822
:102860003F4F220F232F221F330B620F1F910F9117
:102870000895CF93DF93D62FC72F682F842F80958D
:10288000B6DE6D2F7C2FDF91CF9108951F93CF93EC
:10289000DF93C62F172FD82F60E4842F8095A7DEF3
:1028A000682F6C0F712F8D2FDF91CF911F9108959D
:1028B000EF92FF920F93E00EF11CF90137FF03C076
:1028C000F195E195F10924E0EE0FFF1F2A95E1F75C
:1028D000EF3FF10519F014F0EFEFF0E09A0157FF28
:1028E00003C031952195310994E0220F331F9A9549
:1028F000E1F72E173F070CF4F901EE0DFF1DEF3F36
:10290000F10519F010F0EFEFF0E02E2F2095382FA1
:10291000320F08F43FEF832F0F91FF90EF9008954F
:10292000EF92FF920F939701201B31092F3F310542
:1029300019F010F02FEF30E0322F3095482F430F71
:1029400008F44FEF842F620F0F91FF90EF900895DE
:102950009091CE03892B8093CE030895FC019B01B7
:10296000AC0197FF04C044275527481B590BBA01F7
:10297000620F731F37FD0CC0241B350BC901A5E086
:10298000880F991FAA95E1F70E94372C80E20CC0AE
:10299000CB0165E0880F991F6A95E1F7BA01621BC8
:1029A000730B0E94372C80E6861BF7FD81950895F6
:1029B000EF920F93CF93DF93D72FC82FC9010E1932
:1029C000009721F457FF05C080E804C0BA01C6DFB4
:1029D00001C080E0602F681B7D2F8C2FDF91CF918D
:1029E0000F91EF9008950F93CF93DF93D72FC82FB8
:1029F000C901009721F457FF05C080E804C0BA015F
:102A0000ADDF01C080E0602F680F7D2F8C2FDF913C
:102A1000CF910F910895E9CD0895A0E0B0E0E3E1F2
:102A2000F5E10C94902C462F50E070E1879F9001C7
:102A30001124F901E050FF4FE40FF51FC081CF3F93
:102A400009F479C0562E682E7CEF872E73E0972EFE
:102A5000E0E0CE2EE1E0DE2E712CD0E0CE01880F3A
:102A6000991FFC01E05BFE4F5F01EC01CF5ADE4F86
:102A700024503C4F7901E40EF51E00E010E088E29E
:102A8000482EF601E00FF11F80818F3F09F443C00B
:102A900067100AC0501208C0F701208130E2230FEE
:102AA00008F42FEF208337C090E0F501408150E01B
:102AB000FC01EE0FFF1FE05BFE4F2081421B51091E
:102AC000288130E0880F991FFC01EF5AFE4F80816A
:102AD000281B3109449FB001459F700D700D1124D2
:102AE000229FC001239F900D900D1124860F971FE8
:102AF00093DD893280F4242D382F231B08F420E045
:102B0000F401E00FF11F213108F020E13081320F94
:102B100008F43FEF30830F5F1F4F0031110509F0BC
:102B2000B0CF739460E1860E911C70E1C70ED11C8A
:102B300085E07812A2CFCDB7DEB7E0E10C94AC2CE3
:102B400085E894E00E94F30C1092CE030895E5E826
:102B5000F4E081E180838091420290914302A09150
:102B6000440281839283A3838FE784838FEF8583DD
:102B7000CF010E94F30C1092CE03089580E00895D7
:102B80000F931F93CF93DF93C82FD62F8A01F6DFC1
:102B900090E1C99FF0011124E050FF4FED0FF11DAE
:102BA00090819F3F29F0F801E80FF11D90838F5F1E
:102BB000DF91CF911F910F910895E091DA02F0918A
:102BC000DB02099508950895FF920F931F93CF9309
:102BD000DF93162F042FF22EC091D602D091D70288
:102BE000F2DF2F2D402F612FFE010995CDB7DEB703
:102BF000E5E00C94B72C0F931F93CF93DF93C82F6E
:102C0000D0E0FE01E852FE4F80816823D1F10091AF
:102C100087041091880440918604E42FF0E06091CD
:102C200028027091290285E098E0689F9001699FD1
:102C3000300D789F300D1124275E394C30932902D6
:102C400020932802230FCF018C549F4F68E671E038
:102C50000E94372C8E1B9F0B97FD039695958795A9
:102C60009595879553E0259F90011124642F839FAC
:102C7000600D1124702F812FCEDE472F282FCE011B
:102C8000A3DFDF91CF911F910F910895E091D802BA
:102C9000F091D90209950895A8E0B0E0E2E5F6E1E7
:102CA0000C94962CC82EB62EA42E0E94300D88238C
:102CB00009F478C0AA2041F0AE014F5F5F4F6B2D41
:102CC0008C2D5EDFD82E01C0D12C0D2D10E080910F
:102CD000CF039801280F311D293031056CF188E0B0
:102CE00090E07C01E01AF10AB80160537C4FA70123
:102CF00080ED93E00E94D22CB80168527C4FA7016E
:102D000088ED93E00E94D22CA701440F551FB80113
:102D1000660F771F68517C4F88EE93E00E94D22C9B
:102D2000B80160527C4FA70180EE93E00E94D22C44
:102D300088E08D198093CF031091CF03DE011196A7
:102D400040E0842F810FD41609F190E05D91252F8A
:102D500030E0BC0161537C4FF901EE0FFF1FE05BD7
:102D6000FE4F0081FB010183220F331FF901EF5A4F
:102D7000FE4F2081FB012187518B880F991FFC0199
:102D8000E153FC4F128E118E4F5FDBCF8093CF0348
:102D9000AA2041F0809185048C7F883319F46B2D33
:102DA0008C2D3BDE2896EAE00C94B22C81E008954D
:102DB000FDCF0895FBCF0895FBDFFCCF9EE0899FF8
:102DC000802D1124980F953408F094E40895A0E024
:102DD000B0E0EDEEF6E10C94912C3C014B01FC01CE
:102DE0008081ECDFF92E182F60918904669580911F
:102DF0008D0490918E0403DC582E1F1508F03FC0FF
:102E0000A12EB12CF501E852FE4F9081F301818192
:102E1000892399F1F501EE0FFF1FE05BFE4FC081A2
:102E2000D0E0C057D109F501EE0FFF1FEF5AFE4F5A
:102E3000C080D12CF0E2CF1AD108CC9F9001CD9F59
:102E4000300D300D1124CC9CC001CD9C900D900D07
:102E50001124820F931FE0DB082F6091860470918C
:102E6000870480918804E52C9601AE01F401099550
:102E7000D2DD472F282FC501A7DE1F5FBECF81E01F
:102E8000F3E4FF1508F480E0CDB7DEB7EFE00C9473
:102E9000AD2C62EA73E19BCF68ED74E198CFA0E0BE
:102EA000B0E0E5E5F7E10C94962C7C016B01FC01A8
:102EB000808184DFB92E182F6091890466958091F6
:102EC0008D0490918E049BDBA82E1B1560F5C12FFD
:102ED000D0E0FE01E852FE4F9081F7018181892305
:102EE00001F1FE01EE0FFF1FEF5AFE4F208130E08F
:102EF00020523109FE01EE0FFF1FE05BFE4F4081C3
:102F000050E0405751096091860470918704809188
:102F100088040A2DF60109957EDD472F282FCE0162
:102F200053DE1F5FD2CF81E0F3E4FB1508F480E0AD
:102F3000CDB7DEB7EAE00C94B22C61EB73E1AFCF12
:102F400063EF74E1ACCFA0E0B0E0E9EAF7E10C9404
:102F5000972C8C017B01FC01808130DFEC016091BA
:102F600089046695669521E0620F08F46FEF809101
:102F70008D0490918E0443DBB82ECD17D8F4CC2E5F
:102F8000D12CF601E852FE4F9081F801818189230E
:102F900079F06091860470918704809188042B2DCC
:102FA0004C2FF701099537DD472F282FC6010CDE7E
:102FB000CF5FE3CF81E0D43408F080E0CDB7DEB757
:102FC000E9E00C94B32C6EE573E1BDCF63E773E1E8
:102FD000BACF65E773E1B7CF6EE773E1B4CF67E8C7
:102FE00073E1B1CFA0E0B0E0E8EFF7E10C94932CEF
:102FF0006C015B01FC018081E1DE192FC82F60911B
:1030000089046695669580918D0490918E04F7DA17
:10301000D82F80E48D0F31DB90E8F92EF80E8D2F3C
:103020002CDB20E8722E780EC117E8F48C2E912C40
:10303000F401E852FE4F9081F6018181892389F0E5
:10304000609186047091870480918804ED2E0C2F86
:10305000272D4F2DF5010995DEDC472F282FC401C0
:10306000B3DDCF5FE1CF81E0143408F080E0CDB76D
:10307000DEB7EDE00C94AF2C69ED73E1B3CF67E000
:1030800074E1B0CFA0E0B0E0E8E4F8E10C94962C55
:10309000EC018B01888192DEE92EF82E20918904C3
:1030A00031E0230F08F42FEF30E040E050E06FEF05
:1030B0007FEF80E090E00E946C2C6901FE1408F024
:1030C0003CC0AF2CB12CF501E852FE4F90818981B4
:1030D000892389F190919104915097FD15C0292F72
:1030E000092E000C330BF901EF56FB4F8189F812C2
:1030F000F3CF220F331FF901EF56FB4F218D328D95
:103100002C153D0548F701C096016091890441E006
:10311000640F08F46FEFC90172DAAC0160918604A4
:103120007091870480918804F801099574DC472F19
:10313000282FC50149DDF394C1CF81E0F3E4FE15EA
:1031400008F480E0CDB7DEB7EAE00C94B22C69E376
:1031500074E198CF66E474E195CFA9E0B0E0E3EBC9
:10316000F8E10C948E2C8B834B013A01DB018C919E
:1031700025DE9983182FB0919104BA832981121703
:1031800008F075C0A12EB12CF501E852FE4F9081D8
:10319000F4018181892309F468C03090860440904D
:1031A00087045B80212CC501880F991F9C01205B3F
:1031B0003E4F3D832C83C501880F991FDC01AF5A18
:1031C000BE4FBF83AE83FA815F1608F043C0E52C83
:1031D000F12CEC81FD81F0812F2F30E0F701EF56CB
:1031E000FB4F8181281B310939872887AE81BF8138
:1031F000CC90D12C8185C81AD108F901EE9F90019D
:10320000EF9F300D300D1124CC9CC001CD9C900D52
:10321000900D1124820F931FFFD9082F609189040C
:1032200021E0620F08F46FEFF701EE0FFF1FEF567A
:10323000FB4F818D928DE3D97C019601488559859C
:10324000632D742D822DF3010995362E472E53944C
:10325000282EB9CF60918804822DC9D9632D742D91
:10326000DADB472F282FC501AFDC1F5F87CF81E056
:10327000243408F080E02996E2E10C94AA2C2091F5
:10328000910431E0231B08F420E048E554E1BC013F
:10329000822F63CF40E954E1BC0180E05ECFA0E023
:1032A000B0E0E5E5F9E10C94992C8C01DC018C91FE
:1032B00085DDEC016091860470918704809188041B
:1032C000AADBF62EE72ED82ECD1790F4EC2FF0E0E7
:1032D000DF01A852BE4F8C91D80111969C91982382
:1032E00029F02D2D4E2D6F2DCF016EDCCF5FECCF51
:1032F00081E0D43408F080E0CDB7DEB7E7E00C948D
:10330000B52C0F931F93CF93DF93EC01888181112C
:1033100030C06091890420E1620F08F46FEF809162
:103320008D0490918E046BD96AE070E00E94232C8A
:10333000892BF9F4409128025091290225E038E0C8
:10334000429FC001439F900D529F900D1124875EB4
:10335000994C9093290280932802890F24E4829F3C
:10336000C0011124892F880F880B9093200280932D
:103370002102888123DD092F182F9A81992339F0A2
:103380001017E0F46981812F36DC1F5FF9CF40917F
:10339000200250912102282F30E04217530770F08D
:1033A000802F90E04817590748F46981842F23DC67
:1033B00085E490E0909321028093200281E0043420
:1033C00008F080E0DF91CF911F910F910895A3E065
:1033D000B0E0EDEEF9E10C948E2C7C01DC018C91D7
:1033E000EDDC382E592EF7018281882359F040E018
:1033F00060E080E04BDC80E5ECEFF3E0DF011D9264
:103400008A95E9F7F7018081811115C080914D04FB
:1034100090914E040E946C2421E08931910508F4BA
:1034200020E020934C04499730F00E94ED249093C3
:103430004E0480934D0400E011E08CEFC82E83E031
:10344000D82E612C9AEA492E1B821A828A809B8090
:10345000800E911ED401EC91E31508F440C0E515EF
:1034600008F03DC06394F0E0E852FE4F9081F70110
:103470008181892309F433C0AA80BB80AC0CBD1CB8
:10348000D5017C90272D35E5231B08F420E0242C62
:10349000221A809187048983242D372D230F08F465
:1034A0002FEF822F92E0299F800D112460918804D4
:1034B0008E5F9DD8622D7981AEDA472FD4019C9121
:1034C000282F892F90E080DB80914C04882339F0ED
:1034D000272D31E0231B08F420E0D5012C93EA814D
:1034E000FB813196FB83EA83709709F0AFCFF1E05F
:1034F00000341F0749F0005F1F4F30E1C30ED11C9D
:103500008DE0861508F0A0CF81E093E4951508F4CE
:1035100080E02396E2E10C94AA2CFC0180814EDC31
:1035200081E0943408F080E0089581E00895FDCFB3
:103530000895FBCF0895CF93DF93FC0180818150E4
:103540003DDCEC016D2FF3DF6D2F8C2FF2DFDF916F
:10355000CF9108954F925F926F927F928F929F9238
:10356000AF92BF92CF92DF92EF92FF92CF93609192
:10357000F8037091F9038091FA039091FB030E9484
:1035800075246B017C010E94F9244B015C0160935E
:10359000F8037093F9038093FA039093FB03A091CF
:1035A000CF03EFECF3E08A2F90E04FEF5FEF60E0A6
:1035B00070E04C195D096E097F09A91799F0218DFA
:1035C000328D2901612C712C44155505660577054E
:1035D00010F4815004C02C0D3D1D328F218F9F5F50
:1035E0003296EBCF8093CF0380918504982F937010
:1035F00021F0C82FC695C69501C0C0E09091220267
:103600009130E1F030F09230D1F1933009F441C0C3
:10361000E3C01092230280928D0490928E04A092B7
:103620008F04B092900489E2EFECF3E0A1E9B4E0FA
:1036300001900D928A95E1F781E028C090912602D1
:10364000C9130CC0837090E04091270250E021E044
:103650008417950709F420E0822F01C081E0817072
:103660008093250280918A0490912402981771F129
:103670008093240240E060E080E008DB27C0C09334
:10368000260283708093270298DA83E080932202D7
:10369000A3C08091CE03882331F085E894E00E9496
:1036A000F30C1092CE0360918D0470918E04809182
:1036B0008F04909190040E947524603171058105FA
:1036C000910508F489C01092220286C08C2F90E0E8
:1036D00084319105D8F0809123028F5F809323027B
:1036E00082E08093220280912502811107C0CC23C1
:1036F00061F280912202823029F403C0CC2309F4C4
:103700006BC05ADB83E292E016DF66C0FC01E6582C
:10371000FF4F0C94882C80912502882309F451C016
:1037200040E060E080E0B2DA4CC083E292E0B7DDD6
:1037300049C083E292E047DC45C083E292E046DC88
:1037400041C083E292E045DC3DC083E292E044DC8C
:1037500039C083E292E043DC35C083E292E099DB3A
:1037600031C083E292E0E9DB2DC083E292E0E8DB46
:1037700029C083E292E090DB25C083E292E07CDC0A
:1037800021C083E292E07BDC1DC083E292E0B9DDE0
:1037900019C083E292E01BDE15C083E292E0D7DC21
:1037A00011C083E292E0D6DC0DC083E292E067DDD7
:1037B00009C083E292E06EDD05C083E292E0ADDEF7
:1037C00001C080E0909123029F5F909323028823A1
:1037D00009F486CFC1118DCFCF91FF90EF90DF908C
:1037E000CF90BF90AF909F908F907F906F905F90A1
:1037F0004F900895E091D402F091D502099510926E
:103800009104EAEAF4E08FEF9FEF8193919324E033
:10381000EA3BF207D1F71092CF03E8EEF3E08FEF27
:103820009FEF8193919323E0E83FF207D1F781E086
:103830008093CE0385E894E00E94F10C1092CE03B1
:10384000809185048C7F09F482C908950895E5E884
:10385000F4E0208191E0922790831092220278C8B0
:1038600081E0F5CF80918504837011F410922202DB
:10387000809185048C7F8160809385040895F2DFB8
:1038800081E066C880918504837011F01092220255
:10389000809185048C7F809385040895F3DF81E017
:1038A00057C890918504937089F0811102C094608B
:1038B00007C0843110F09C6403C0880F880F982BD8
:1038C00090938504862F1092220242C8089560E0EA
:1038D000E8CFD8DF81E08093CE0385E894E00E94B2
:1038E000F10C1092CE0380918504982F937019F0FB
:1038F00086958695ECCF0895682F909185049695CE
:1039000096959F5F943110F4892F01C081E0C9CF53
:1039100081E0F2CF682F909185049695969591500D
:1039200011F0892F01C083E1BCCF81E0F3CF9091EA
:103930008504937059F08093860460938704493C12
:1039400008F048EC822F4093880402C80895A5E847
:10395000B4E01196EC911197F0E0282F13964C915A
:10396000139712966C91CF010896E1CF81E0EFCFCB
:10397000A5E8B4E01196EC911197F0E0282F13968A
:103980004C91139712966C91CF010897D0CF81E09C
:10399000EFCFE5E8F4E0628120E1620F08F46FEF19
:1039A0009181282F4381892F90E0C1CF81E0F1CF11
:1039B000E5E8F4E0628120E1621B08F460E09181B7
:1039C000282F4381892F90E0B2CF81E0F1CFE5E845
:1039D000F4E0438124E1420F08F44FEF9181282F56
:1039E0006281892F90E0A3CF81E0F1CFE5E8F4E098
:1039F000438124E1421B08F440E09181282F628139
:103A0000892F90E094CF81E0F1CFE5E8F4E02481C4
:103A100030E1230F08F42FEF24830C94A81481E0E5
:103A2000F4CFE5E8F4E0248130E1231B08F420E042
:103A300024830C94A81481E0F4CFEAEBF4E081E253
:103A4000808311828DE1828385E0838360E2CF01F0
:103A50007EC0EAEBF4E082E2808381E0818312821F
:103A600086E0838360E2CF0172C0EAEBF4E083E298
:103A7000808311821282138260E2CF0168C0A0E0CD
:103A8000B0E0E5E4FDE10C94992CEC01E980DA80EA
:103A9000F12CC7018D0D911D8534910514F08DEF2A
:103AA00007C089E08D1518F000E010E008C08EEF27
:103AB0008093BB0460E28AEB94E049D00DC023966A
:103AC0000D1550F42A8149816881C701800F911F2B
:103AD0007BD80F5F1F4FF3CFCDB7DEB7E7E00C9475
:103AE000B52C83E1F4CEEAEBF4E087E2808384E452
:103AF000818360E2CF012BC0EAEBF4E088E28083AF
:103B000082E0818360E2CF0122C0DC01EC914E2F84
:103B100050E0FA01B197E830F105A8F4E257FF4F01
:103B20000C94882C8ADF0BC094DF09C09EDF07C08D
:103B3000A6DF05C0D6DF03C0CCDE01C0D4DF81E044
:103B40000895DADFFCCF80E00895DFCF08951CC52B
:103B50000895209A0895FC01EE0FFF1F8E0F9F1FFE
:103B6000FC01E652FB4F6183408322830895EAED16
:103B7000F4E0818360834283339695E0E63AF90767
:103B8000C1F7089585B18E7F95B191602FB7F894F4
:103B9000EAEDF4E035E0E63AF30789F0319148E0E8
:103BA00095B9000000C037FF85B9330F000000C091
:103BB00000C000C085B900C04A9591F7EBCF2FBF78
:103BC0008FE594E00197F1F700C0000008950C9490
:103BD000E30C089580E00E946B10817008950E94AC
:103BE00031112FEF86E791E0215080409040E1F7BE
:103BF00000C000000E943111EDDF882311F0E7DFE3
:103C00002AC70895ECCF0895CF93DF9386319C4760
:103C1000F9F4EB010E94B00B9D81992369F08A7A37
:103C200091E009F490E090934F04811102C089E281
:103C300001C085E361D508C080914F04811102C0A5
:103C400089E201C085E36FD50E944F0C80E001C07E
:103C500081E0DF91CF910895CF93DF93FC01DB01E9
:103C600015968C91882309F4D9C09F0130572332CF
:103C7000310508F0D4C0EF018FE694E00E94ED0C0E
:103C8000FE01E150F047E232F10520F4EA56FF4F21
:103C90000C94882C80916F048160AAC0809170047C
:103CA0008860B2C080916F048260A2C080916F046E
:103CB00020C080916F0488609BC0809170041EC0FA
:103CC000809170048260A0C080916F04806190C078
:103CD00080916F0480628CC080916F04806488C082
:103CE0000E94680780916F04806882C080916F0491
:103CF000886084607DC0809170048260816084C02F
:103D000080916F048E7F74C080917004877F7CC027
:103D100080916F048D7F6CC080916F0420C0809172
:103D20006F04877F65C0809170041EC0809170040D
:103D30008D7F6AC080916F048F7E5AC080916F041E
:103D40008F7D56C080916F048F7B52C00E946807A0
:103D500080916F048F774CC080916F04877F8B7F39
:103D600047C0809170048D7F8E7F4EC080916F041C
:103D700082FB222720F991E0922790FB82F990FBA9
:103D800083F936C080917004982F909591708E7F42
:103D9000892B90FB81F938C080916F0486FB222724
:103DA00020F991E0922790FB86F922C00E946807D3
:103DB00080916F0487FB222720F991E0922790FBE6
:103DC00087F916C081E001C080E00E94F50C1EC09A
:103DD00080916F0484FB222720F991E0922790FBC9
:103DE00084F906C080916F04982F909590FB80F91C
:103DF00080936F040BC08091700483FB222720F90D
:103E000091E0922790FB83F9809370048FE694E011
:103E10000E94EF0C0E94680780E001C081E0DF9102
:103E2000CF910895282F35EB2303C001112497FF6C
:103E300003C08058910902C080589F4F892F089570
:103E40008091560480FF06C060912F0270E0660FDB
:103E5000771F26C081FF04C060912F0284E005C057
:103E600082FF07C060912F0288E0689FB001112493
:103E700017C0909155049923D1F060912E029617A6
:103E800088F720912F0288E0289F90011124929FAB
:103E9000A001939F500D112470E0CA010E94372C9D
:103EA0006038710540F46115710519F406C068E0C9
:103EB00070E0862F08958FE7089581E0089580913E
:103EC000560480FF08C060912B0270E075956795DD
:103ED0007595679521C081FF06C060912B0270E047
:103EE0007595679519C082FF04C060912B0270E040
:103EF00010C090915404992399F060912A0296176A
:103F0000A0F780912B02899FC001112470E00E94CC
:103F1000372C6038710540F46115710519F406C03D
:103F200061E070E0862F08958FE7089581E008959D
:103F30008D3C19F485DF819503C08E3C21F480DF30
:103F400080935A0408958F3C19F47ADF819503C059
:103F5000803D21F475DF809359040895893D11F463
:103F6000AEDF04C08A3D29F4AADF819580935B040B
:103F700008958B3D19F4A3DF819503C08C3D21F496
:103F80009EDF80935C0408959FE2980F983078F448
:103F900021E030E0A90102C0440F551F9A95E2F7D5
:103FA000CA0190915804892B8093580408958D3D3F
:103FB00021F48091560481600BC08E3D21F48091E4
:103FC0005604826005C08F3D29F4809156048460B8
:103FD0008093560408958D3C39F490915A0497FFCC
:103FE00035C010925A0459C08E3C29F490915A045D
:103FF0001916BCF32BC0909159048F3C29F497FFFC
:1040000025C01092590449C0803D19F41916CCF30B
:104010001DC090915B04893D29F41916BCF41092DF
:104020005B043BC08A3D19F497FF10C0F8CF8B3D6D
:1040300039F490915C0497FF09C010925C042DC084
:104040008C3D21F490915C041916BCF39FE2980F0B
:10405000983080F421E030E0A90102C0440F551FE0
:104060009A95E2F7CA01809590915804892380932C
:10407000580413C08D3D21F4809156048E7F0BC0EF
:104080008E3D21F4809156048D7F05C08F3D29F42B
:10409000809156048B7F809356048091590481113E
:1040A00006C080915A04811102C01092550480917B
:1040B0005B04811106C080915C04811102C01092E2
:1040C000540408958AD420915904211104C02091E8
:1040D0005A04222321F09093530480935204209198
:1040E0005B04211104C020915C04222321F09093F1
:1040F00051048093500487E594E0E6C1E7E5F4E0DD
:1041000086E0DF011D928A95E9F71092550410921E
:104110005404109256040895FC01828181110DC04F
:10412000838181110AC08481811107C091E085815A
:10413000811101C090E0892F01C081E08170089554
:10414000A6E0B0E0E6EAF0E20C949D2C86E0E7E51C
:10415000F4E0DE01119601900D928A95E1F710923C
:10416000590410925A0410925B0410925C048B81E3
:10417000811104C08C81882309F451C080915204BC
:1041800090915304A9D3AC0190915504992339F02F
:104190002091300230E02417350758F040C02091BC
:1041A00031028AE0289F900111242417350718F066
:1041B00036C09F3F19F09F5F909355041B811123D8
:1041C00059F03EDE111614F09FEF01C091E0989F68
:1041D000902D1124909359041C81112359F030DE45
:1041E000111614F09FEF01C091E0989F902D1124BB
:1041F00090935A0480915904882389F010915A04AD
:10420000112369F00FDE811101C081E08093590410
:10421000812F08DE811101C081E080935A048D81D5
:10422000811104C08E81882309F451C0809150040B
:104230009091510451D3AC0190915404992339F0D9
:1042400020912C0230E02417350758F040C020910F
:104250002D028AE0289F900111242417350718F0B9
:1042600036C09F3F19F09F5F909354041D81112326
:1042700059F025DE111614F09FEF01C091E0989FD0
:10428000902D112490935B041E81112359F017DEA9
:10429000111614F09FEF01C091E0989F902D11240A
:1042A00090935C0480915B04882389F010915C04F6
:1042B000112369F0B7DD811101C081E080935B04B7
:1042C000812FB0DD811101C081E080935C04BE01CB
:1042D0006F5F7F4F87E594E056D2811104C087E578
:1042E00094E01ADF8111EEDE86E0FE013196A7E54B
:1042F000B4E001900D928A95E1F72696E3E00C94E4
:10430000B92C0F931F93CF93DF93C42FD22FFC01AF
:1043100085818823A9F040935F045FD390935E0466
:1043200080935D0480E28C0F883008F04CC0C77029
:1043300081E001C0880FCA95EAF70E94510543C089
:1043400080915F0448132FC080915D0490915E04BA
:10435000C3D2883C910538F510E21D0FCD17B9F096
:1043600080E28C0F883040F4C77081E001C0880F74
:10437000CA95EAF70E945605183010F581E09D2F86
:10438000977001C0880F9A95EAF70E945105802F17
:104390000E9449051830B8F4D77081E001C0880F39
:1043A000DA95EAF70AC080E28C0F883060F4C770B3
:1043B00081E001C0880FCA95EAF70E94560503C044
:1043C000802F0E944905DF91CF911F910F91089591
:1043D0000F93FC01E851FC47E730F10588F5CB016C
:1043E000E854FF4F0C94882C06E221EE41EE6AE17E
:1043F0007CE723C007E225EE45EE6BE17CE71DC0BC
:1044000006E221EE40EE68E17CE717C007E225EE08
:1044100044EE69E17CE711C006E221EE42EE6CE178
:104420007CE70BC007E225EE46EE6DE17CE705C0B8
:1044300008E221E045EE6EE17CE763DF80E008C042
:10444000FB018581882319F010925F0401C081E08F
:104450000F91089590936504809364040895FFD1AB
:1044600091E0813009F090E0892F0895E091640493
:10447000F0916504309739F00190F081E02D30978C
:1044800011F00995089580E00895E0916404F09199
:104490006504309731F00280F381E02D309709F008
:1044A00009950895E0916404F0916504309759F0FE
:1044B00024813581232B39F026E0DC012C93048004
:1044C000F581E02D09950895E0916404F09165046B
:1044D000309759F026813781232B39F022E0DC0117
:1044E0002C930680F781E02D09950895A3E0B0E0B4
:1044F000ECE7F2E20C949E2C20916204309163046C
:1045000028173907B1F09093630480936204E09117
:104510006404F0916504309761F00084F185E02D2A
:10452000309739F023E029839B838A83CE0101965B
:1045300009952396E2E00C94BA2CA3E0B0E0E3EAFC
:10454000F2E20C949E2C20916004309161042817B3
:104550003907B1F09093610480936004E0916404A2
:10456000F0916504309761F00084F185E02D30977B
:1045700039F024E029839B838A83CE010196099533
:104580002396E2E00C94BA2CE0916404F091650467
:10459000309731F00284F385E02D309709F00995CA
:1045A0000895CF93DF93C0911E02D0911F022296EF
:1045B00056DF882359F080916F0487FF07C0C091B0
:1045C0001C02D0911D0222969EE101C096E080E07F
:1045D000915028F029912223D9F38F5FF9CFDF91F1
:1045E000CF910895CF93882321F1C82F38DF8823F6
:1045F00011F180916F0487FF1EC08C2F86958695E0
:1046000086958E31B0F4E0911C02F0911D02E80F06
:10461000F11D2281822F90E0C77021E030E002C0BE
:10462000220F331FCA95E2F72823392381E0232B79
:1046300089F480E00FC080911E0290911F02FC015E
:10464000329608962191C21721F0E817F907D1F7A1
:10465000F0CF81E0CF9108959C01FC0132969FEF4D
:1046600080E04191461789F09F3F19F4411101C044
:10467000982F8F5F8630A9F79F3F39F0F901E90F36
:10468000F11D97FDFA956283089508959C012A5FB4
:104690003F4FFC014281461301C0128201968217EE
:1046A0009307B9F70895262F2695269526952E313E
:1046B00068F4FC01E20FF11D677021E030E001C0F9
:1046C000220F6A95EAF78281282B22830895262FEC
:1046D0002695269526952E3170F4FC01E20FF11DEA
:1046E000677021E030E001C0220F6A95EAF720955B
:1046F0008281282322830895CF93C82FB0DE6C2FA8
:10470000882351F080916F0487FF06C080911C02BE
:1047100090911D02C8DF05C080911E0290911F027A
:104720009BDFCF910895CF93C82F99DE6C2F8823FC
:1047300051F080916F0487FF06C080911C02909118
:104740001D02C5DF05C080911E0290911F029EDFF1
:10475000CF91089584DE882359F080916F0487FFFC
:1047600007C0E0911C02F0911D0232968EE106C056
:10477000E0911E02F0911F02329686E0DF011D9249
:104780008A95E9F70895DC01FB0111969C91119738
:104790008181981321C012968C911297882319F069
:1047A0009281891319C013968C911397882319F05D
:1047B0009381891311C015968C911597882319F050
:1047C0009581891309C014969C91992339F081E051
:1047D0002481291304C002C081E001C080E08170FF
:1047E00008950895FECF089583E080933502609187
:1047F0003202709133028091340290913502F2CFEF
:10480000811102C081E001C082E080933502609195
:104810003202709133028091340290913502E2CFDE
:10482000EFCF089581E0809335026091320270915C
:1048300033028091340290913502D4CFF3CF0895A2
:1048400091E0811101C090E09093340260913202B6
:10485000709133028091340290913502C3CF8091E0
:1048600034020895809333026091320270913302D2
:104870008091340290913502B5CF80913302089532
:10488000809332026091320270913302809134023F
:1048900090913502A7CF8091320208950895FECFFE
:1048A0000895FDCF0895FACF0895F8CF0895F6CF73
:1048B0000895CF93FADF0E943111F5DFC0E08C2F0D
:1048C0000E946B10892B29F4CF5FC530C1F780E0BF
:1048D00001C081E0CF910895CF93DF93EC017DD0AB
:1048E0008C1B9D0BDF91CF910895CF92DF92EF92B9
:1048F000FF926B017C017DD06C197D098E099F09A7
:10490000FF90EF90DF90CF90089585B7806885BFC6
:1049100085B7806885BF08951F920F920FB60F92DA
:1049200011248F939F93AF93BF938091660481115D
:1049300013C08091A6059091A705A091A805B091FC
:10494000A9054196A11DB11D8093A6059093A705C9
:10495000A093A805B093A905BF91AF919F918F91A6
:104960000F900FBE0F901F9018958091AE05843068
:1049700031F10E9430041092660420E488E190E056
:104980000FB6F894A895809360000FBE2093600046
:1049900083B7817F846083BF83B7816083BF78944E
:1049A000889583B78E7F83BF0FB6F894A8958091C2
:1049B0006000886180936000109260000FBE0895CF
:1049C0000E9468070C94390482E084BD93E095BD91
:1049D0009AEF97BD80936E0008952FB7F894809159
:1049E000A6059091A705A091A805B091A9052FBF94
:1049F00008952FB7F8946091A6057091A70580914E
:104A0000A8059091A9052FBF089578941F920F9241
:104A10000FB60F9211248F939F93AF93BF93809102
:104A2000A6059091A705A091A805B091A9050196AA
:104A3000A11DB11D8093A6059093A705A093A8057D
:104A4000B093A905BF91AF919F918F910F900FBE29
:104A50000F901F90189581E08093E00080E2809392
:104A6000D8001092C9008FE19EE40197F1F700C0D1
:104A7000000087E090EBDC018093B7059093B805C8
:104A8000A093B905B093BA059CE088E10FB6F894FD
:104A9000A895809360000FBE90936000FFCF9CE0CC
:104AA00088E10FB6F894A895809360000FBE9093AC
:104AB0006000FFCF9B019091AE059430E9F48F70B8
:104AC0008093E9008FEF9091E800815095FD06C03A
:104AD00095ED9A95F1F700008111F5CF8091E800EE
:104AE00085FF0AC0BA01C90140E050E0FCD18091C5
:104AF000E8008E778093E8000895603229F4BC01C5
:104B000040E250E082E0D6CF089543E050E0BC019F
:104B100084E0D0CF46E050E0BC0184E0CBCF40E25F
:104B200050E0BC0184E0C6CFCF93DF93EC0197DE69
:104B300048E050E0BE0181E0BDDF88E0FE01A7E66D
:104B4000B4E001900D928A95E1F7DF91CF9108953D
:104B5000A0E2B0E0EDEAF5E2F1C68091AE05843066
:104B600009F583E08093E9008091E80082FF1AC094
:104B70008091E80085FF09C040E050E060E270E00D
:104B8000CE010196F1D191E001C090E08091E80062
:104B90008B778093E800992329F060E2CE0101969B
:104BA0000E94A51DA096E2E0E5C68091AD058111A9
:104BB00007C061D3B8D38091E20084608093E200A3
:104BC00008951092AD05089539DE81E039CE6091E7
:104BD000AA0581E0611101C080E006CE9091AE058A
:104BE00081E0943009F080E06091AA0509CE42E0AE
:104BF00061EC81E0B9D242E261EC84E0B5D242E2FC
:104C000061EC82E0B1D242E260EC83E0ADD29091FF
:104C1000AE0581E0943009F080E06091AA0500CEF5
:104C20008091B005833009F461C030F4813071F0B7
:104C3000823009F494C008958A3009F483C08B301F
:104C400009F46BC0893009F0A0C01FC08091AF0586
:104C5000813A09F09AC08091E800877F8093E8004C
:104C60008091B3059091B405892B21F468E087E623
:104C700094E003C060E080E090E070E0B6D1809105
:104C8000E8008B778093E80008958091AF0581322A
:104C900009F07BC08091B3059091B405009719F09D
:104CA000029709F072C08091E800877F8093E80046
:104CB0008091E80082FD05C08091AE058111F8CF9A
:104CC00064C02091F3008091F20090E0922B029753
:104CD00031F48091F100813011F0863019F4809127
:104CE000F100C0DD8091E8008B774CC08091AF056A
:104CF000813A09F04AC08091B3059091B405892B9F
:104D000009F043C08091E800877F8093E80080919C
:104D1000E80080FFFCCFA3DD30C08091AF05813279
:104D2000A1F58091B3059091B405892B71F580911F
:104D3000E800877F8093E8004CD28091B10580DD48
:104D40000C9468078091AF058132F9F48091E800F6
:104D5000877F8093E8003DD28091B20591CD80910C
:104D6000AF05813A91F48091E800877F8093E80055
:104D70008091E80080FFFCCF8EDD8093F100809170
:104D8000E8008E778093E80024C2089584B7877F77
:104D900084BF0FB6F894A8958091600088618093D5
:104DA0006000109260000FBE90E080E80FB6F894AB
:104DB00080936100909361000FBE34CD5CD2B3D27A
:104DC000E2EEF0E0808184608083789422C586E3FF
:104DD00092E040CB8091AE05853089F48091AE059C
:104DE000853061F4C2DD65DD8823C1F38091AC05B7
:104DF0008823A1F362D00E946807F0CFE1CD089527
:104E000008959A014091B5055091B60500C0492F0B
:104E1000552743305105C9F060F44130510581F008
:104E20004230510509F041C08BE590E042E054E08A
:104E300040C041325105E1F04232510531F135C0F7
:104E400082E190E04DE554E034C09927813091052E
:104E500049F028F0029749F5E2EDF3E005C0EEEFE6
:104E6000F3E002C0E4EEF3E0849190E0AF0121C0F2
:104E700063307105D0F4660F771FFB01EB51FD4FD6
:104E80004081518189E090E014C06330710568F47D
:104E9000FB01EE0FFF1FE152FD4F40815181FB01ED
:104EA000E452FD4F808190E004C080E090E040E05B
:104EB00050E0F90151834083089580E189BD82E18A
:104EC00089BD09B400FEFDCF8091D8008F7D80930D
:104ED000D8008091E00082608093E0008091E00043
:104EE00081FDFCCF0895A0E0B0E0E8E7F7E220C53F
:104EF000EC018B017A018CD1811132C0E114F104F3
:104F000039F0F70180819181081B190BC80FD91F57
:104F1000C12CD12C0115110511F18091E80085FDFE
:104F200015C08091E8008E778093E800E114F104C9
:104F300049F0F70180819181C80ED91ED182C082CB
:104F400085E00EC065D1882329F30AC0899180933A
:104F5000F10001501109FFEFCF1ADF0ADBCF80E02B
:104F6000CDB7DEB7E8E000C5A0E0B0E0E9EBF7E2DE
:104F7000DFC4EC018B017A014BD1811132C0E11405
:104F8000F10439F0F70180819181081B190BC80FDA
:104F9000D91FC12CD12C0115110511F18091E80008
:104FA00085FD15C08091E8008B778093E800E114BF
:104FB000F10449F0F70180819181C80ED91ED18298
:104FC000C08285E00EC024D1882329F30AC08091D5
:104FD000F100899301501109FFEFCF1ADF0ADBCFEF
:104FE00080E0CDB7DEB7E8E0BFC42091B5053091D1
:104FF000B6052617370748F06115710539F4209179
:10500000E8002E772093E80001C0B901FC0120E000
:105010006115710579F18091AE058823F1F1853034
:10502000F1F18091E80083FD3CC08091E80082FDB1
:105030002EC08091E80080FFEBCF2091F30080919B
:10504000F20090E0922B6115710551F088309105C6
:1050500038F421912093F100615071090196F3CF4A
:1050600021E0089709F020E08091E8008E77809396
:10507000E800CECF2111CFCF0AC08091AE058823A2
:1050800061F0853061F08091E80083FD0AC0809175
:10509000E80082FFF2CF80E0089582E0089583E087
:1050A000089581E008952091B5053091B605261741
:1050B000370748F06115710539F42091E8002E7723
:1050C0002093E80001C0B901FC0120E061157105E1
:1050D00091F18091AE05882309F440C0853009F430
:1050E0003FC08091E80083FD3DC08091E80082FDD3
:1050F0002FC08091E80080FFE9CF2091F3008091DC
:10510000F20090E0922B6115710559F088309105FD
:1051100040F424912093F100319661507109019679
:10512000F2CF21E0089709F020E08091E8008E7727
:105130008093E800CBCF2111CCCF0AC08091AE057F
:10514000882361F0853061F08091E80083FD0AC01A
:105150008091E80082FFF2CF80E0089582E0089518
:1051600083E0089581E00895982F973068F5909333
:10517000E900981739F07091EC002091ED00509102
:10518000F00003C0242F762F50E021FD02C09F5F66
:10519000ECCF3091EB003E7F3093EB003091ED008F
:1051A0003D7F3093ED003091EB0031603093EB00A8
:1051B0007093EC002093ED005093F0002091EE00EE
:1051C00027FDE5CF80E008958F708093E90081E0AE
:1051D00008958091AF0587FF11C08091E80082FD9E
:1051E00005C08091AE058111F8CF11C08091E80013
:1051F0008B770BC08091AE05882349F08091E80041
:1052000080FFF8CF8091E8008E778093E8000895C2
:105210002091E4003091E50095E64091EC00842F68
:10522000817040FF23C08091E80080FD1DC0809107
:10523000AE05882399F0853099F08091EB0085FDCB
:1052400011C04091E4005091E5002417350729F37F
:10525000915011F09A01E1CF84E0089582E0089521
:1052600083E0089581E0089580E008954091E8008A
:1052700042FFDDCF089567D06ED0E0EEF0E0808190
:1052800081608083E8EDF0E080818F77808319BCB6
:10529000A7EDB0E08C918E7F8C9380818F7E808390
:1052A0001092AD0508950F931F93CF93DF934BD0CA
:1052B00052D0C8EDD0E088818F778883888180685C
:1052C000888388818F7D888319BC1092AE051092E7
:1052D000AA051092AC051092AB0500EE10E0F801A3
:1052E00080818B7F808388818160888342E060E059
:1052F00080E03ADFE1EEF0E080818E7F8083E2EEB5
:10530000F0E0808181608083808188608083F80103
:1053100080818E7F8083888180618883DF91CF91B7
:105320001F910F910895E8EDF0E080818F7E8083DA
:10533000E7EDF0E080818160808384E082BF81E0DE
:105340008093AD05B0CFE8EDF0E080818E7F808363
:105350001092E20008951092DA001092E100089590
:105360001F920F920FB60F9211242F933F934F93DA
:105370005F936F937F938F939F93AF93BF93EF93BD
:10538000FF938091E10082FF0AC08091E20082FFDA
:1053900006C08091E1008B7F8093E10039D280913B
:1053A000DA0080FF1DC08091D80080FF19C0809175
:1053B000DA008E7F8093DA008091D90080FF0CC0E4
:1053C00080E189BD82E189BD09B400FEFDCF81E0A5
:1053D0008093AE05EADB04C019BC1092AE05F1DB88
:1053E0008091E10080FF18C08091E20080FF14C02E
:1053F0008091E2008E7F8093E2008091E2008061E4
:105400008093E2008091D80080628093D80019BC1C
:1054100085E08093AE05DBDB8091E10084FF2FC047
:105420008091E20084FF2BC080E189BD82E189BDCB
:1054300009B400FEFDCF8091D8008F7D8093D80005
:105440008091E1008F7E8093E1008091E2008F7E69
:105450008093E2008091E20081608093E20080917D
:10546000AA05882311F084E007C08091E30087FD3E
:1054700002C081E001C083E08093AE05AFDB809184
:10548000E10083FF27C08091E20083FF23C0809169
:10549000E100877F8093E10082E08093AE05109267
:1054A000AA058091E1008E7F8093E1008091E20067
:1054B0008E7F8093E2008091E20080618093E20021
:1054C00042E060E080E050DE8091F00088608093F0
:1054D000F0007ADBFF91EF91BF91AF919F918F9197
:1054E0007F916F915F914F913F912F910F900FBEE0
:1054F0000F901F9018951F920F920FB60F921124C4
:105500002F933F934F935F936F937F938F939F93CB
:10551000AF93BF93CF93DF93EF93FF93C091E900D5
:10552000CF708091EC00D82FD17080FDD0E8109220
:10553000E9008091F000877F8093F00078941ED07E
:105540001092E9008091F00088608093F000CD2BEC
:10555000CF70C093E900FF91EF91DF91CF91BF91A0
:10556000AF919F918F917F916F915F914F913F91FB
:105570002F910F900FBE0F901F901895AAE2B0E0E8
:10558000E3ECFAE2DAC1EFEAF5E08091F100819311
:1055900025E0E73BF207C9F743DB8091E80083FF92
:1055A00026C18091AF059091B005492F50E04A3057
:1055B000510508F01CC1FA01E154FF4FA9C1803820
:1055C00021F0823809F013C108C08091AB05909199
:1055D000AC05992389F082600FC08091B3058F706C
:1055E000873008F004C18093E9008091EB0085FBCF
:1055F000882780F91092E9009091E800977F9093B6
:10560000E8008093F1001092F100CCC0282F2D7F8C
:1056100009F0EDC0882319F0823061F0E8C0809174
:10562000B105813009F0E3C0933009F080E0809348
:10563000AC052EC08091B10581112AC08091B305BF
:105640008F702FEF280F263008F0D1C08093E9002B
:105650002091EB0020FF1CC0933021F48091EB00DF
:10566000806214C09091EB0090619093EB0021E078
:1056700030E0A90102C0440F551F8A95E2F740931C
:10568000EA001092EA008091EB0088608093EB00C2
:105690001092E9008091E800877F8093E80099DD0F
:1056A000A6C08111A4C01091B1051F778091E300BD
:1056B0008078812B8093E3008091E800877F80933E
:1056C000E80087DD8091E80080FFFCCF8091E30057
:1056D00080688093E300111102C082E001C083E082
:1056E0008093AE0584C08058823008F080C08091DD
:1056F000B1059091B2058C3D53E0950771F583E0BB
:105700008A838AE289834FB7F894DE01139620E0FA
:105710003EE051E2E32FF0E050935700E49120FF88
:1057200003C0E295EF703F5FEF708E2F90E0EA309C
:1057300010F0C79601C0C0968D939D932F5F2431C2
:1057400049F74FBF8091E800877F8093E8006AE2C5
:1057500070E0CE01019649DC14C06091B3057091F0
:10576000B405AE014F5F5F4F4CDBBC01892B09F4E0
:105770003EC09091E800977F9093E80089819A81DC
:1057800092DC8091E8008B778093E80030C080380D
:1057900071F58091E800877F8093E8008091AA05E9
:1057A0008093F1008091E8008E7777CF81111FC040
:1057B0008091B1059091B20599270297C4F4809128
:1057C000E800877F8093E8008091B1058093AA0567
:1057D00000DD8091AA05811106C08091E30087FD5C
:1057E00002C081E001C084E08093AE0500DA8091C0
:1057F000E80083FF0AC08091E800877F8093E8007B
:105800008091EB0080628093EB00AA96E3E0B1C048
:105810000895CF938091AE05882399F0C091E90057
:10582000CF709091EC00892F817090FD80E8C82B9B
:105830001092E9008091E80083FDA0DECF70C09354
:10584000E900CF910895AA1BBB1B51E107C0AA1F15
:10585000BB1FA617B70710F0A61BB70B881F991F11
:105860005A95A9F780959095BC01CD01089597FBB5
:10587000072E16F4009406D077FD08D0E4DF07FC6D
:1058800005D03EF4909581959F4F08957095619550
:105890007F4F0895A1E21A2EAA1BBB1BFD010DC06C
:1058A000AA1FBB1FEE1FFF1FA217B307E407F507D0
:1058B00020F0A21BB30BE40BF50B661F771F881FAC
:1058C000991F1A9469F760957095809590959B0142
:1058D000AC01BD01CF010895052E97FB16F400948D
:1058E0000FD057FD05D0D6DF07FC02D046F408C024
:1058F00050954095309521953F4F4F4F5F4F0895FC
:1059000090958095709561957F4F8F4F9F4F08952B
:10591000EE0FFF1F0590F491E02D09942F923F9216
:105920004F925F926F927F928F929F92AF92BF92AF
:10593000CF92DF92EF92FF920F931F93CF93DF935B
:10594000CDB7DEB7CA1BDB0B0FB6F894DEBF0FBEB8
:10595000CDBF09942A88398848885F846E847D8405
:105960008C849B84AA84B984C884DF80EE80FD8007
:105970000C811B81AA81B981CE0FD11D0FB6F8947D
:10598000DEBF0FBECDBFED010895FB01DC0104C0F9
:105990008D910190801921F441505040C8F7881B27
:1059A000990B0895FB01DC0102C001900D9241505A
:1059B0005040D8F70895DC01CB01FC01F999FECFE6
:1059C00006C0F2BDE1BDF89A319600B40D92415087
:1059D0005040B8F70895F999FECF92BD81BDF89A6D
:1059E000992780B50895A8E1B0E042E050E0E5CF06
:1059F000DC01A40FB51F4150504040F0CB01840F93
:105A0000951F2E9105D041505040D8F70895262F6C
:105A1000F999FECF92BD81BDF89A019700B40216A4
:105A200039F01FBA20BD0FB6F894FA9AF99A0FBE52
:105A300008950396272FECDFEADF252FE9DF242FD7
:0E5A4000E7CF0196272FE4DFE2CFF894FFCFE7
:105A4E00000102030405060708090A0B0C0D0E0FD0
:105A5E001E1D1C1B1A1918171615141312FF1110E0
:105A6E001F202122232425262728292AFF2BFFFF4A
:105A7E0038FF37363534333231302F2E2DFF2CFF91
:105A8E00393A3BFFFF3CFF3DFF3E3F40FF41424363
:105A9E000000100020003000400050005000600058
:105AAE00700080009000A000B000C000D000E000A8
:105ABE00E010D210C510B510A510951085107510F8
:105ACE0065105510451035102510151004100020C6
