:100000000C94C4050C94FC050C94FC050C94FC05A4
:100010000C94FC050C94FC050C94FC050C94FC055C
:100020000C94FC050C94FC050C94852C0C94572D19
:100030000C942F260C94FC050C94FC050C94FC05E8
:100040000C94FC050C94FC050C94FC050C94FC052C
:100050000C94FC050C94B8260C94FC050C94FC053F
:100060000C94FC050C94FC050C94FC050C94FC050C
:100070000C94FC050C94FC050C94FC050C94FC05FC
:100080000C94FC050C94FC050C94FC050C94FC05EC
:100090000C94FC050C94FC050C94FC050C94FC05DC
:1000A0000C94FC050C94FC050C94FC05AD09AD0901
:1000B000D909D9093A0A580A440B440B5D0AD30AF4
:1000C000E40AE40A941D971D9C1DA31DA81DAD1DE7
:1000D000B21DB71DBC1DC11DC61DCB1DCF1DD21D20
:1000E000D91DD91DD91DD91DD51DD91DD91D561EE6
:1000F000591E5C1E5F1E6A1E621E651E681E391F29
:10010000AB1F411F0B1F0F1F451F121F481F531FFF
:100110001D1FA11F211F571F251F5B1F851F291F83
:100120005F1F8F1F2F1F651F6F1F161F4C1F191F6B
:100130004F1F341F6A1F7B1F9B1F9D1F071F3D1FE3
:10014000B41F6F237523632369237B2381238723B4
:10015000BF2DE62DDE2EE62DDE2E322E552EDE2E86
:10016000AC2EBB2E29003A003B003C003D003E0077
:100170003F00400041004200430044004500680049
:1001800046004700480035001E001F0020002100E7
:100190002200230024002500260027002D002E0029
:1001A0002A0049004A004B002B0014001A000800E6
:1001B000150017001C0018000C00120013002F007F
:1001C000300031004C004D004E0039000400160094
:1001D000070009000A000B000D000E000F0033009D
:1001E000340028002A00000000000000E100E100C7
:1001F0001D001B000600190005001100100036004C
:1002000037003800E500E500000052000000E00083
:10021000E300E200000000002C002C002C00000095
:1002200000000000E6002152E400500051004F00A1
:1002300001000100010001000100010001000100B6
:1002400001000100010001000100010001000100A6
:100250000100010001000100010001000100010096
:100260000100010001000100010001000100010086
:100270000100007C010001000100010001000100FB
:100280000100010001000100010001000100010066
:100290000100010001000100010001000100010056
:1002A0000100010001000100010001000100010046
:1002B0000100000000000000010001000100010039
:1002C0000100010001000100010001000100010026
:1002D0000100010000000100000001000100010018
:1002E000000000000100010001000000000000000B
:1002F00001000100010001000100010044454255D8
:10030000473A2064697361626C65642E0A00444553
:100310004255473A20656E61626C65642E0A006C36
:1003200065645F7461736B3A20253032580A004F60
:100330006E6573686F743A206163746976653A20FC
:1003400025640A000A00253033326C62003A20002E
:1003500025303258000A722F632030313233343561
:1003600036373839414243444546303132333435EB
:10037000363738394142434445460A007267626C59
:10038000696768742074696D65722064697361625D
:100390006C652E0A007267626C6967687420746904
:1003A0006D657220656E61626C65642E0A0072670D
:1003B000626C696768742073657420687376205B6B
:1003C0004E4F454550524F4D5D3A2025752C2575B1
:1003D0002C25750A007267626C6967687420736502
:1003E0007420687376205B454550524F4D5D3A202E
:1003F00025752C25752C25750A007267626C696756
:100400006874207261696E626F772073657420680A
:1004100073763A2025642C25642C25642C25750AD6
:10042000007267626C696768742064697361626CEA
:1004300065205B4E4F454550524F4D5D3A207267E7
:10044000626C696768745F636F6E6669672E656E5C
:1004500061626C65203D2025750A007267626C69D7
:100460006768742064697361626C65205B45455000
:10047000524F4D5D3A207267626C696768745F63C2
:100480006F6E6669672E656E61626C65203D202522
:10049000750A007267626C6967687420656E6162D4
:1004A0006C65205B4E4F454550524F4D5D3A207272
:1004B00067626C696768745F636F6E6669672E65F3
:1004C0006E61626C65203D2025750A007267626C62
:1004D0006967687420656E61626C65205B45455094
:1004E000524F4D5D3A207267626C696768745F6352
:1004F0006F6E6669672E656E61626C65203D2025B2
:10050000750A007267626C6967687420746F676748
:100510006C65205B454550524F4D5D3A20726762D5
:100520006C696768745F636F6E6669672E656E617C
:10053000626C65203D2025750A007267626C6967F0
:100540006874206D6F6465205B4E4F454550524F77
:100550004D5D3A2025750A007267626C69676874A0
:10056000206D6F6465205B454550524F4D5D3A20CC
:1005700025750A007267626C696768745F696E69E5
:1005800074207267626C696768745F636F6E666916
:10059000672E6D6F6465203D20302E205772697480
:1005A000652064656661756C742076616C75657331
:1005B00020746F20454550524F4D2E0A00726762DD
:1005C0006C696768745F696E6974207374617274B2
:1005D000210A007267626C696768745F636F6E6698
:1005E00069672E7370656564203D2025640A00727A
:1005F00067626C696768745F636F6E6669672E76A1
:10060000616C203D2025640A007267626C6967682E
:10061000745F636F6E6669672E736174203D202579
:10062000640A007267626C696768745F636F6E6604
:1006300069672E687565203D2025640A0072676829
:100640006C696768745F636F6E6669672E6D6F644F
:1006500065203D2025640A007267626C69676874D2
:100660005F636F6E6669672E76656C6F63696B6535
:1006700079203D2025640A007267626C696768749E
:100680005F636F6E6669672E656E61626C65203DA3
:100690002025640A007267626C696768745F636F23
:1006A0006E66696720454550524F4D3A0A00783CC6
:1006B0001E1E140A052223252628292A2C2D2F3018
:1006C00032333536383A3B3D3E4042434547494A4E
:1006D0004C4E5051535557595A5C5E60626466687F
:1006E000696B6D6F71737577797B7D7F818385878A
:1006F000898A8C8E90929496989A9C9E9FA1A3A58D
:10070000A7A8AAACAEAFB1B3B4B6B8B9BBBCBEBFB4
:10071000C1C2C3C5C6C7C9CACBCCCDCED0D1D2D237
:10072000D3D4D5D6D7D7D8D9D9DADADBDBDBDCDC42
:10073000DCDCDCDDDDDDDDDCDCDCDCDCDBDBDBDAFA
:10074000DAD9D9D8D7D7D6D5D4D3D2D2D1D0CECD65
:10075000CCCBCAC9C7C6C5C3C2C1BFBEBCBBB9B872
:10076000B6B4B3B1AFAEACAAA8A7A5A3A19F9E9CF7
:100770009A98969492908E8C8A89878583817F7DC2
:100780007B79777573716F6D6B6968666462605EA3
:100790005C5A5957555351504E4C4A49474543426C
:1007A000403E3D3B3A3836353332302F2D2C2A2906
:1007B0002826252322FFAA7F5540000101010101BF
:1007C000010101010202020202020202020303030A
:1007D00003030303030404040404040405050505DA
:1007E000050606060606070707070708080808099A
:1007F0000909090A0A0A0B0B0B0C0C0C0D0D0D0E46
:100800000E0E0F0F0F1010111111121213131414DA
:10081000151516161717181819191A1A1B1B1C1D4F
:100820001D1E1E1F202021222223242425262627A8
:100830002829292A2B2C2D2D2E2F303132323334DA
:1008400035363738393A3B3C3D3E3F4041424344E0
:1008500045464748494A4C4D4E4F505153545556C2
:1008600058595A5B5D5E5F616264656668696B6C6E
:100870006D6F7072737577787A7B7D7E80828385E9
:1008800087888A8C8E8F91939596989A9C9EA0A229
:10089000A3A5A7A9ABADAFB1B3B5B7BABCBEC0C233
:1008A000C4C6C9CBCDCFD1D4D6D8DBDDDFE2E4E7F7
:1008B000E9EBEEF0F3F5F8FAFDFF290A00257500E3
:1008C0002F002575005D28002564002000256400A8
:1008D000200025640020002564007C00253032586B
:1008E000006D6F7573656B6579205B62746E7C78E3
:1008F0002079207620685D287265702F61636C29ED
:100900003A205B000A002530325820006E6B726F6F
:100910005F7265706F72743A2025303258207C20E7
:10092000000A002530325820006B6579626F6172D1
:10093000645F7265706F72743A2025303258207C83
:10094000200064656C5F6B65795F6269743A20634F
:10095000616E27742064656C3A20253032580A0095
:100960006164645F6B65795F6269743A2063616E8C
:100970002774206164643A20253032580A00737568
:100980007370656E64696E67206B6579626F617202
:10099000640D0A005B575D005B535D005B525D00B8
:1009A0005B445D005B435D001403700072006F00E8
:1009B0006D006900730065003800370000000C030B
:1009C00077007500710075006500000004030904DC
:1009D00009027400040100A0FA09040000010301E7
:1009E00001000921110100012244000705810308CB
:1009F00000010904010002030000000921110100A7
:100A000001222200070582032000010705030320BD
:100A10000001090402000103000000092111010086
:100A20000122B60007058403200001090403000128
:100A300003000000092111010001221500070585AE
:100A40000320000112010002000000086D90050063
:100A50000100010200010631FF0974A101097515A9
:100A60000026FF00952075088102C00660FF09611D
:100A7000A1010962150026FF009520750881020971
:100A800063150026FF00952075089102C005010935
:100A900002A10185020901A1000509190129081512
:100AA00000250195087501810205010930093115FC
:100AB00081257F95027508810609381581257F9566
:100AC0000175088106050C0A38021581257F9501FC
:100AD00075088106C0C005010980A10185031901BF
:100AE0002AB700150126B700950175108100C005D1
:100AF0000C0901A101850419012AA002150126A0F3
:100B000002950175108100C005010906A101850645
:100B1000050719E029E715002501950875018102EF
:100B20000507190029EF1500250195F075018102CF
:100B300005081901290595057501910295017503AF
:100B40009101C005010906A101050719E029E71572
:100B5000002501950875018102950175088101053F
:100B600007190029FF150026FF009506750881006A
:100B70000508190129051500250195057501910242
:100B8000950175039101C00011241FBECFEFDAE07B
:100B9000DEBFCDBF04B603FE18C0809177039091ED
:100BA0007803A0917903B0917A038730904BA740E6
:100BB000B04B59F410927703109278031092790396
:100BC00010927A03E0E0F8E3099511E0A0E0B1E0CB
:100BD000E0E6F0E602C005900D92AC3DB107D9F712
:100BE00023E0ACEDB1E001C01D92A737B207E1F7F9
:100BF0000E9436170C942E300C940000FF93EF9354
:100C0000E091DC01F091DD01309709F00995EF9159
:100C1000FF910895FC018591803011F0EFDFFBCF4B
:100C20000895FF27E0E230E247FF0CC0419597FFAF
:100C300009C0EDE26095709580959095611D711DDC
:100C4000811D911D27FF02C0219530E350E2AA27A4
:100C5000660F771F881F991FAA1FA41710F0A41BE7
:100C600063955A95A9F7AA3008F0A95FA05DAF93E4
:100C7000F395611571058105910541F7ED3211F488
:100C8000EF93F395F21718F43F93F395FBCF8F9101
:100C9000B5DFFA95E1F70895E991F99185918030F2
:100CA00021F0853219F0AADFF9CF089520E0E89409
:100CB00055915532C1F3503311F4689455915A331C
:100CC00048F4505390F3220F022E220F220F200DD2
:100CD000250FF4CF0EF4219589919991533619F38C
:100CE000533729F1533559F1BC0188279927E894E6
:100CF0005C3621F48991999168945591543639F470
:100D000046EF7EF077FF0DC08FEF9FEF0AC055379B
:100D10004AE039F0583540E121F0523642E009F01E
:100D20000895FF93EF937DDFEF91FF91B7CFFF938E
:100D3000EF93FC0181918030B9F360DFFBCFFF932B
:100D4000EF9368DFF1CFDF93CF93CDB7DEB7259672
:100D5000A3DFCF91DF9108958230B0F46630A0F424
:100D6000413190F496E6899FF001112481E1689F5A
:100D7000E00DF11D1124E40FF11DEE0FFF1FEC59E2
:100D8000FE4F85919491089581E090E008950E942E
:100D9000AC06089581E0089581E008950E94CC0694
:100DA00008950E94CE0608950E94CC0608950895E5
:100DB0000E94D7060895A6E0B0E0E1EEF6E00C94BC
:100DC000542F49835A839E833091E30189819A810C
:100DD000311115C03E81332359F0222349F00E947E
:100DE000020D182F682F89819A810E94DE0C03C0A2
:100DF0000E94F00C182F69817A81812F04C00E9413
:100E0000020D69817A810E9472142696E3E00C94A7
:100E1000702FFC01262F4081518162817381848172
:100E200095810E94DB060895CF93DF93EC0161E08A
:100E30000E940907BE010E94D106DF91CF9108955B
:100E4000CF93DF93EC0160E00E940907BE010E948E
:100E5000D806DF91CF91089581E008950E942C0774
:100E60000895CF93C82F0E94B50B8C2F0E942E0798
:100E70002FEF84E39CE0215080409040E1F700C0D8
:100E80000000CF91089581E00E9431070E94DE2684
:100E9000089580E00E9431070E94022708950F9371
:100EA0001F93CF93DF938C0161E00E940907EC014F
:100EB000F801858181110E945D1DB801CE010E945B
:100EC000D406882361F1B801CE010E9457238823FC
:100ED00031F1B801CE010E94E31E882301F1B8016F
:100EE000CE010E94B91E8823D1F0B801CE010E9424
:100EF0007D1D8823A1F0F8018581882309F446C06F
:100F0000C330FCE7DF07C1F160F4C130ECE7DE0776
:100F1000A9F1A8F4C115DC47C9F50E944307C0E058
:100F200039C0CB35ECE7DE0779F1CC35FCE7DF07DC
:100F300041F1CA35DC4751F50E947A1127C08091F2
:100F4000D402C82FC095C170C0FB80F98093D40231
:100F5000CC2349F08EE093E09F938F930E94A306E9
:100F60000F900F90DCCF8CEF92E09F938F930E94B5
:100F7000A3060F900F900EC00E9482110E94490795
:100F8000CECF0E94701102C00E947E11C8010E9443
:100F9000CA06C82F8C2FDF91CF911F910F91089512
:100FA0000E9405260E9445080E94F61C08950E9492
:100FB00049080E94871C0E940E2608958295982F4A
:100FC000937344E0949F900111248C7C86958695C0
:100FD000282B822F8575880F2A7A2695822B0895D3
:100FE000CF93DF93D92F0E94DE07C82F8D2F0E9449
:100FF000DE072C2F30E0322F2227A901482BCA010F
:10100000DF91CF910895A0E0B0E0E9E0F8E00C9422
:101010004F2F6B017C01CB010E94F007EC01C7014F
:101020000E94F007AC01CE01A0E0B0E0DC019927FE
:10103000882760E070E08C019D01042B152B262B86
:10104000372BC901B801CDB7DEB7E8E00C946B2FA0
:1010500081E0089581FD02C08E9A08958E980895CA
:10106000CF93DF93D82F0E942808C82F882319F028
:101070008D2F0E942A088C2FDF91CF910895869A98
:101080008E9A08950E943008089580E00E944208D8
:1010900008950E949F230E9442080895CF930E94C2
:1010A0009F23C82F8091DE01C81709F1C093DE018C
:1010B0000E949D266093DF017093E0018093E1011F
:1010C0009093E2018091D40282FF0EC080FF0CC099
:1010D0001F92CF938FE193E09F938F930E94A3067B
:1010E0000F900F900F900F908C2F0E944208CF917D
:1010F0000895ADE0B0E0EFE7F8E00C94552F488795
:1011000059876A877B878C879D8791110E94681019
:10111000CE01019627E0FC0111922A95E9F726E01D
:10112000FE013896DC0101900D922A95E1F72D81A0
:1011300021110AC029813A814B815C816D817E81B8
:101140008F810E94B20F04C00E9414078111F2CF58
:101150002D96E2E00C94712FFC012481213021F4C2
:10116000808191810E94340D0895662319F00E94B8
:10117000532002C00E94AE200E9425210895CF93E3
:10118000882309F444C0C82F8CEF8C0F813A70F487
:101190008C2F0E94C024882329F08C2F0E94822546
:1011A0000E94EF108C2F0E946B250CC080E28C0FE8
:1011B000883058F4C77081E001C0880FCA95EAF7FB
:1011C0000E944B100E94EF1022C0EBE5EC0FE330C1
:1011D00040F4F0E0E35AFE4F808190E00E945824F2
:1011E00016C0E8E5EC0FEB3150F4F0E0EE0FFF1F16
:1011F000E95DFE4F808191810E947D2408C083E3D8
:101200008C0F833120F461E08C2F0E94B508CF91C0
:101210000895882381F19CEF980F913A18F40E9469
:1012200082250DC090E2980F983060F4877091E0AD
:1012300001C0990F8A95EAF7892F0E9451100E94E8
:10124000EF1008959BE5980F933028F480E090E02C
:101250000E945824089598E5980F9B3128F480E067
:1012600090E00E947D24089593E3980F933118F441
:1012700060E00E94B50808951F93CF93DF93182F65
:10128000EB010E94BF08209741F08FE99FE0019792
:10129000F1F700C000002197F6CF812F0E940909C5
:1012A000DF91CF911F910895893319F060E070E0CC
:1012B00002C060E570E00E943C090895882321F097
:1012C0000E944B100E94EF100895882321F00E9485
:1012D00051100E94EF100895A0E0B0E0E2E7F9E0BD
:1012E0000C944F2F7C01162FC72FFC01D58106814E
:1012F00002950F700E9441108823F9F0DD23E9F078
:101300008C2F807F803461F080E2810F8830A8F0DC
:101310008C2F807E803221F4123078F0002369F027
:1013200080910A0382FF09C082E00E9430110E946E
:10133000411091E0D82ED92601C0D12CCC2EC294D8
:101340008FE0C8228C2D90E08C30910508F09CC174
:10135000FC01EA5AFF4F0C943F2F8C2F807FCF70F7
:10136000882311F0C295C07FDD2399F0CC2309F4C6
:1013700077C180E2810F883010F0111104C08C2FEA
:101380000E944B1003C08C2F0E945B100E94EF1034
:1013900067C1812F0E940909CC2309F475C180E23D
:1013A000810F883038F1112329F18C2F0E946110B0
:1013B00024C08C2F807FCF70803211F0C295C07F07
:1013C000112319F0113099F13CC080910A0382FD7C
:1013D00017C0DD2349F0CC2329F08C2F0E944B103D
:1013E0000E94EF1080E03DC180E00E940909CC23FB
:1013F00009F44AC18C2F0E9451100E94EF1044C181
:10140000DD2349F0002309F1013009F03DC18C2FA3
:101410000E94721039C1011137C18C2F0E946509D9
:101420008C2F0E947E108C2F0E9403112DC1DD2372
:1014300021F0063008F028C108C0053008F024C1AA
:1014400015C0DD2331F001110BC18C2F0E945E0904
:101450001BC1002359F0193309F013C1FFEF27EE28
:1014600083E0F15020408040E1F709C18C2F0E94B9
:1014700065090AC18C2F86958695837019F0813095
:1014800061F002C1DD2321F0812F9C2F937002C0F7
:1014900080E090E00E945824FFC0DD2321F0812FDE
:1014A0009C2F937002C080E090E00E947D24F4C0E5
:1014B0006D2F812F0E94B508EFC08C2F8370B1F57E
:1014C000D111E6C0412F429546954770440F440F15
:1014D000812F8F7090E09C01042E02C0220F331FD9
:1014E0000A94E2F714FF0AC08FE090E002C0880F70
:1014F000991F4A95E2F78095909502C080E090E0B0
:10150000C695C695C370822B932BC23049F058F410
:10151000C13019F00E94110CBBC00E94080CB8C069
:101520000E941A0CB5C00E94050CB2C0DD2319F050
:101530008C2F817001C08695882309F4A9C0412FA2
:10154000429546954770440F440F812F8F7090E06D
:101550009C01042E02C0220F331F0A94E2F714FFED
:101560000AC08FE090E002C0880F991F4A95E2F709
:101570008095909502C080E090E0C695C695C370B6
:10158000822B932BC23049F058F4C13019F00E94DD
:10159000790C7EC00E94700C7BC00E94820C78C0C7
:1015A0000E94260C75C0CF70DD2339F08C2F0E946D
:1015B0003E0C812F0E945E096BC0812F0E9465093D
:1015C0008C2F0E944E0C64C0123F21F128F4103F72
:1015D00041F0113FC1F040C0133F19F1143F79F0C1
:1015E0003BC0DD2341F0053008F04EC08C2F8F71D9
:1015F0000E94600C49C0063008F046C0F7CF8091C9
:101600000A0382FD18C0DD2339F08C2F8F710E94F0
:101610003E0C3AC0DD23C9F38C2F8F710E944E0C13
:1016200033C0DD2329F08C2F8F710E94320C2CC027
:101630000E942D0C29C0DD2331F063E08C2F8F71C7
:101640000E94121121C081E00E9430110230E0F0AE
:1016500082E00E94301118C0DD2331F00023A9F28E
:10166000812F0E94BF0810C00023B1F2193349F442
:101670009FEFE7EEF3E09150E040F040E1F700C06B
:101680000000812F0E94090988EF8C0D843020F41E
:101690000E949F230E944208DD2089F00E943D1095
:1016A00080FD0DC0F70115820E9437100E943E0C8C
:1016B000C7010E947C0B0E9437100E944E0CCDB7D0
:1016C000DEB7E8E00C946B2F0F931F93CF93DF935B
:1016D000EC01688179818D810E943F0D8C010E940F
:1016E0008B0C0E94F60BB801CE010E946C09DF91B1
:1016F000CF911F910F910895CF93DF93FC01248127
:101700002223D1F0EC010E944F0781110FC00E94EB
:101710004110882389F08D81882371F080910A031C
:1017200082FF0AC082E00E94301106C0CE010E94F2
:10173000640BCE010E942007DF91CF91089580E0D5
:1017400090E00E94582480E090E00E947D240E9456
:1017500068100E94EF100E94DE210E94252108954A
:101760000E9499250E949F0B08950E9458100E9484
:10177000B00B089592959F70963079F010F49250C6
:1017800001C09A50923068F4803F69F018F4883EA6
:1017900040F409C0843F29F406C0883E20F0813F10
:1017A00011F080E0089581E00895FC012481222356
:1017B00039F0808191810E94340D0E94BA0B089506
:1017C00080E00895A6E0B0E0E8EEFBE00C94552F31
:1017D0002696E2E00C94712FA7E0B0E0E2EFFBE088
:1017E0000C94552F2796E2E00C94712F08950895DC
:1017F0000E94F70B08950E94F80B08950E94FB0BBE
:1018000090931B0280931A0208950E94FE0B089584
:1018100020911A0230911B02822B932B0E94FE0B07
:10182000089520911A0230911B02822393230E9473
:10183000FE0B089520911A0230911B0282279327F4
:101840000E94FE0B08950E94F70B08950E94230C3E
:101850009093190280931802089580E090E00E940E
:10186000260C089521E030E0A90102C0440F551F65
:101870008A95E2F7CA010E94260C089521E030E023
:1018800002C0220F331F8A95E2F7809118029091CF
:101890001902822B932B0E94260C089521E030E040
:1018A00002C0220F331F8A95E2F720953095809170
:1018B000180290911902822393230E94260C089506
:1018C00021E030E002C0220F331F8A95E2F78091B9
:1018D000180290911902822793270E94260C0895DE
:1018E0002091180230911902822B932B0E94260C12
:1018F00008952091180230911902822393230E94A7
:10190000260C0895209118023091190282279327FE
:101910000E94260C08950895962F9770A1E001C0AB
:10192000AA0F9A95EAF793E0769567959A95E1F76D
:10193000660F771F660F771FFA01E60FF71F40E06B
:1019400050E0682F70E090819B01042E02C0369514
:1019500027950A94E2F72170219529272A23292720
:1019600021934F5F5F4F4430510569F70895FB01A4
:10197000782F777023E0969587952A95E1F7880F61
:10198000991F880F991FE80FF91F40E050E080E091
:10199000219130E0072E02C0369527950A94E2F790
:1019A00021703327042E01C0220F0A94EAF7822BFC
:1019B0004F5F5F4F4430510559F70895282F9630F7
:1019C00070F4813160F4862F622F70E021E1929FE4
:1019D000600D711D112444EE51E00E948C0C08959D
:1019E000963070F4813160F4292F90E064EE71E05C
:1019F00031E1239F800D911D11240E94B70C0895A1
:101A000080E00895A0E0B0E0E8E0FDE00C944E2F07
:101A10007C01009118021091190280911A02909194
:101A20001B02082B192BCFE0D0E0CC24C394D12C7F
:101A3000C6010C2E02C0880F991F0A94E2F780237A
:101A40009123892B21F4219798F7B12C07C0BC2E44
:101A5000B7018C2F0E947E140197A9F38B2DCDB76F
:101A6000DEB7E9E00C946A2FCF93DF93EC010E947C
:101A7000020DBE010E947E14DF91CF9108951F9345
:101A8000CF93DF93EB019091E301992321F0CB01F8
:101A90000E94340D13C0882349F0CB010E94020D2F
:101AA000182F682FCE010E94DE0C04C0CB010E94CB
:101AB000F00C182FBE01812F0E947E14DF91CF9170
:101AC0001F9108951F93CF93DF93C0911C0217E0DD
:101AD00080911D02C817A1F0D0E01C9FF0011D9F4E
:101AE000F00D1124E25EFD4F20813181428153814E
:101AF0006481758186810E94EC0B2196C770E8CFC6
:101B0000DF91CF911F910895209156023091570295
:101B1000409158025091590260915A0270915B02B3
:101B200080915C020E94EC0B0895CF93DF9380912B
:101B30005C0282958F7009F04EC080915B02882311
:101B400009F449C080911C0240911D025091570236
:101B500060915602C0915802D091590277E08417E3
:101B6000D1F190E0789FF001799FF00D1124DF0111
:101B7000A25EBD4F14962C911497222349F1119621
:101B80002C911197251324C02C91261321C0159652
:101B90002C91159721111CC012962D913C911397F1
:101BA0002C1B3D0B283C310598F480915C028F7012
:101BB000806180935C02EC5DFD4F80818F7080615D
:101BC000808386E592E00E947C0B0E94620D03C038
:101BD00001968770C4CFDF91CF91089520911C02A8
:101BE00090911D0257E02917A9F030E0529FF001B3
:101BF000539FF00D1124E25EFD4F7181761306C0F4
:101C00007081781303C07581741306C02F5F3F4F36
:101C10002770E9CF80E0089581E00895A4E1B0E065
:101C2000E4E1FEE00C944B2F8C0186E0F801DE012C
:101C30001F9601900D928A95E1F7F8018481E58065
:101C400096E5A92E92E0B92E90915A02911118C0F2
:101C5000882309F480C1EE20D9F1C8010E94D50B78
:101C6000F82E8823A9F187E0F801D50101900D92A3
:101C70008A95E1F7C5010E94AC080E94950D98C0B5
:101C8000F801C080D18082809380F0905B02209127
:101C9000580230915902A401421B530BFF2009F452
:101CA00006C1483C510508F0AFC0882309F455C16E
:101CB00080915C02282F207F90915702222361F0AF
:101CC0009D1509F462C0C8010E94D50B811173C033
:101CD000C8010E947C0B3FC19D1115C09091560216
:101CE0009C1111C0E1100FC08F70806180935C0265
:101CF0000E94840D86E592E00E947C0B80915C023C
:101D0000F801868326C1E1103AC040E06D2D8C2D8C
:101D10000E94EE0D40E06D2D8C2D0E94EE0DE82E00
:101D2000811117C1CF86D88A8F8598890E94340D7A
:101D3000292F22952F70243020F49F70223028F014
:101D400009C02A50223080F014C0992349F0811133
:101D500007C013C0992321F0F8019681907F69F0A4
:101D6000805E883030F409C0803F38F0815F833076
:101D700020F0C8010E947C0BEF2CFE2CEEC080915D
:101D80005C02816080935C02E4C0909156029C11D9
:101D90009ACFE11098CFF8018683C8010E947C0B8E
:101DA00087E0F801A6E5B2E001900D928A95E1F78F
:101DB0000E94840DD2C0EE2009F48ACF20915C02EB
:101DC000822F82958F7090E002978CF0809156025E
:101DD00090915702998788879B868A8680915A02BC
:101DE0008C871D862E87CE0108960E947C0B87E08B
:101DF000F801A6E5B2E001900D928A95E1F70E9404
:101E0000950D0E94840DA7C090915C02292F207F20
:101E1000A1F4682D9A8A898AA6017A899E2D0E944A
:101E2000E20B86E592E00E947C0B87E0F5011192BF
:101E30008A95E9F70E94840D8CC0882309F48DC02F
:101E4000809157028D1111C0809156028C110DC0E6
:101E5000E1100BC0F8019683C8010E947C0B87E05B
:101E6000F50111928A95E9F778C0C8010E94D50B57
:101E7000882309F42DCFEE2009F42ACF20915C02AB
:101E8000822F82958F7090E002970CF4B0CF8091F2
:101E90005602909157029A8389839C828B8280910B
:101EA0005A028D831E822F83CE0101969ECF483C1D
:101EB000510508F040C0882309F44DC0FE2CEE20E7
:101EC00009F406CF809157028D1127C080915602E8
:101ED0008C1123C090915C0290FD16C0892F8295D1
:101EE0008F70282F30E02115310571F0F8019683AD
:101EF0002F30310509F451CF8F5F982F9295907F45
:101F000086818F70892B48CF87E0F801A6E5B2E083
:101F100001900D928A95E1F720C0C8010E94D50B6F
:101F2000811165CF80915C02816080935C02C80161
:101F30000E947C0B12C0682D9A8A898AA6017A8930
:101F40009E2D0E94E20B87E0F50111928A95E9F738
:101F50002FCFF12C02C0FF24F3948F2D6496ECE078
:101F60000C94672FAEE0B0E0E8EBFFE00C94542F48
:101F7000288739874A875B876C877D878E87CE0164
:101F800008960E940E0E882361F06C856623A9F1E5
:101F9000288539854A855B857D858E850E94EC0B79
:101FA0002CC087E0FE013896DE01119601900D925B
:101FB0008A95E1F76C85662301F120911D0230E0DE
:101FC000C90101968770992740911C0250E084173F
:101FD0009507E1F16D8397E0929FD001939FB00D3B
:101FE0001124A25EBD4FFE01319601900D929A958B
:101FF000E1F780931D020E94620D17E080911C02A0
:1020000090911D02891779F1189FC0011124825EF9
:102010009D4F0E940E0E882331F1E0911C021E9FFD
:10202000F0011124E25EFD4F208131814281538114
:102030006481758186810E94EC0B80911C0290E086
:1020400001968770992780931C02D8CF0E94B50B08
:1020500010921D0210921C02E6E5F2E087E0DF011B
:102060001D928A95E9F72E96E3E00C94702F8091EB
:10207000850286958695869508958091850287705C
:10208000089590918502977081E009F480E00895A9
:102090008091B10208959091B102892B8093B10291
:1020A000089580959091B10289238093B10208959B
:1020B0001092B10208959091B002892B8093B002E2
:1020C000089580959091B00289238093B00208957D
:1020D0001092B002089508950E946B1008950E9416
:1020E0006C10089590918702292F2823821729F0D8
:1020F000982B909387020E946F1008959091870209
:10210000292F282331F080958923809387020E940C
:102110006F10089580918702882329F0109287021A
:1021200080E00E946F100895CF93C091B10280911A
:10213000B002C82B80918702882331F0C82B0E94FF
:10214000A22481110E948A108C2FCF910895CF93E1
:10215000DF93C0910201D09103010E949410888303
:10216000C0910201D091030148E050E06DE772E0B8
:10217000CE010E94C02F892B59F088E0FE01ADE707
:10218000B2E001900D928A95E1F7CE010E94AC2356
:10219000DF91CF910895CF93DF93C0910001D0914B
:1021A00001010E9494108983C0910001D091010126
:1021B00040E250E06DE572E0CE010E94C02F892B15
:1021C00059F080E2FE01ADE5B2E001900D928A95F2
:1021D000E1F7CE010E94F923DF91CF91089580911C
:1021E0002601882339F08091090387FF03C00E94EC
:1021F000CB1008950E94A71008950E946B100895B7
:102200000E94FD10089590918602292F282331F015
:1022100080958923809386020E94001108950E9470
:102220006B10089590910A0392FF11C098E0899F66
:1022300090011124262B209385020E943E0C809150
:1022400085028695869586950E940F1108950E94B5
:102250003E0C08951092850280E00E940F110895AF
:10226000909185028095892380938502282F27707D
:1022700069F4981759F090910A0392FF07C0869568
:10228000869586950E944E0C0E942A110895CF9340
:1022900090910A0392FB222720F92817F9F0C82F02
:1022A000892FC0FB82F980930A03809109039091E2
:1022B0000A030E94A31182E00E9430118091D4028F
:1022C00080FF0CC01F92CF938FE293E09F938F9378
:1022D0000E94A3060F900F900F900F90CF9108953A
:1022E00080910A0382FB882780F991E089270E9468
:1022F0004711089581E00E944711089580E00E94EF
:10230000471108956FEF7FEF80E090E00E94183052
:10231000089580E090E00E94E42F21E0853E9E4FEA
:1023200009F020E0822F089582E090E00E94D62FED
:10233000089583E090E00E94D62F089584E090E015
:102340000E94E42F0895BC0184E090E00E941830C0
:102350000895AB01BC018FE090E00E940C3008951D
:10236000AB01BC0183E190E00E940C30089560E075
:1023700070E0CB010E94B011089560E070E0CB01E5
:102380000E94A9110E94B7110895A8E0B0E0EBECFB
:10239000F1E10C94552F65EE7EEF80E090E00E9415
:1023A000183060E082E090E00E94FA2F81E090E037
:1023B00090931B0280931A0261E083E090E00E94F8
:1023C000FA2F60E074E184E090E00E94183060E051
:1023D00086E090E00E94FA2F60E087E090E00E94A3
:1023E000FA2F40E050E0BA0188E090E00E940C3003
:1023F00060E083E290E00E94FA2F60E08CE090E0E1
:102400000E94FA2F60E08DE090E00E94FA2F19827E
:102410001A821B821C821D821E821F82188648E03F
:1024200050E067E170E0CE0101960E94EA2F40E0A3
:1024300050E0BA018FE190E00E940C300E94BD1183
:102440002896E2E00C94712F0E94C5110895682F20
:102450008EE090E00E94FA2F0895A6E0B0E0E3E35A
:10246000F2E10C94532F0E9491268C018091B202CC
:102470009091B3020817190781F019821A820E94FD
:102480009126682F49815A81792F80E090E00E943F
:1024900079081093B3020093B2022696E4E00C94FC
:1024A0006F2F0E949D266093D0027093D10280937B
:1024B000D2029093D3026093CC027093CD028093AA
:1024C000CE029093CF02089581E0089581E00895AF
:1024D0000E946612089508950E946B1208950E944A
:1024E0006B1208950E946F1208950E946B12089556
:1024F0000E94751208950E946B1208958DE099E272
:102500000E944F170E947B120E94781208950E9429
:102510006C120E946B1208950E948911811102C0F1
:102520000E9424120E9494118093D4020E949E1152
:1025300090930A03809309030E94B61E0E9499118A
:1025400090E00E94050C80911802909119020E945F
:10255000230C08950E9488260E94A4160E948C12C3
:102560000E943F080E94F01B0E9472120895A8E08A
:10257000B0E0EDEBF2E10C94452F0E946412811162
:1025800003C00E942D1287C00E94BA1684EB92E00D
:1025900098878F838C01D12CF80181909190A19024
:1025A000B1908F018D2D0E946E15DC01CB01882525
:1025B0009925AA25BB25D394F6E0DF1629F0892BAF
:1025C0008A2B8B2B49F304C0892B8A2B8B2BC9F2C6
:1025D0008091D40281FD0E947A150E946812282EF3
:1025E00010E033243394812F0E946E152B013C019F
:1025F000EF81F88580809180A280B380862697261F
:10260000A826B92681149104A104B104C9F100E0FF
:10261000C12CD12C7601C394D501C4018C219D21FC
:10262000AE21BF21892B8A2B8B2BE9F02220D9F0F8
:1026300009831A830E9491269C838B833D8221E02B
:10264000D301C2018C219D21AE21BF21892B8A2B70
:102650008B2B09F420E049815A816B817C818D812B
:10266000922F0E9479080F5FCC0CDD1CEE1CFF1C22
:10267000013191F6EF81F885408251826282738246
:102680001F5F8F819885049698878F83163009F095
:10269000AACF0E9451120E945E1D0E9400220E9439
:1026A0004E082896E2E10C94612F1F93CF93DF939D
:1026B0000E948314EC01C11580E5D807E8F5C11527
:1026C00090E4D90708F0A8C0C03ED10530F5CD3C54
:1026D000D10508F094C0C83AD10578F4C53AD105BF
:1026E00008F083C0C130D10509F47CC008F4F2C001
:1026F000C430D10508F0F1C0EDC0C33CD10508F0ED
:10270000E9C0C85AD0E0CC0FDD1FC05ADE4F099097
:10271000D881C02DCE019464E1C0C11580E2D807F4
:1027200008F0CBC0C11591E0D90708F06BC0C83ED6
:10273000D10508F4D2C0CEC0C03682E5D80728F54E
:10274000C03492E5D90708F079C0C03282E5D807D5
:1027500008F06CC0C11592E5D90708F481C04C2F70
:102760004695469580E2489FA0011124C37021E060
:1027700030E0C90102C0880F991FCA95E2F7EA014B
:10278000C82BD92BCE019D68A9C0C03A82E5D807D5
:10279000B8F48C2F8F71C03892E5D90708F07BC050
:1027A0008695869590E2899F90011124C37081E0FF
:1027B00090E002C0880F991FCA95E2F79A6868C036
:1027C000C03C82E5D80708F46DC0C03E92E5D90749
:1027D00008F080C0CF71DD27DC2FCC27CE01806FC1
:1027E000906A7CC081E090E079C0C55AD0E0CA56BA
:1027F000DE4F8881C82FD0E0CE0190646FC0CE013B
:1028000090656CC08D2F0E941F15182FCE0199273F
:102810000E9483141F715CC0CE0199270E9483140B
:10282000CC27DF70D06A8C2B9D2B58C0CF71D0E0A5
:10283000DC2FCC27CE01816F906A50C08C2F8F7116
:102840008695869590E2899F90011124C37081E05E
:1028500090E002C0880F991FCA95E2F79C6818C0E3
:102860008C2F8F710E941F1595E0D695C7959A956C
:10287000E1F7CF70D0E0DC2FCC27282F30E084FFA9
:1028800005C084E0220F331F8A95E1F7D069CE019D
:10289000822B932B23C090E0D82FCC27CE01846FBE
:1028A000906A1CC08C2F8F710E941F158F7190E051
:1028B000D82FCC27CE01906211C08D2F8F710E942E
:1028C0001F15182FCE0199270E9483141F71906243
:1028D000912B04C080E090E001C0CE01DF91CF9148
:1028E0001F910895763038F4613128F4462F672F10
:1028F0000E94C706089580E090E008950E94721437
:102900000E94551308958238910569F1B0F481331E
:10291000910509F475C048F48932910509F467C03E
:102920008A32910509F471C008958533910509F43F
:1029300059C089339105B9F00895833E910589F115
:1029400038F4803E9105D1F0823E910529F1089539
:10295000863E9105C9F1873E9105D9F1843E9105E6
:1029600009F06CC027C02091090320FD57C021FD4C
:1029700055C020910A0323FD5BC00895809109038F
:1029800080FD48C080910A0380FF48C08091090300
:1029900084FD46C083EE51C08091090382FF3CC094
:1029A000F5CF8091090382FD37C080910A0380FD35
:1029B00035C0ECCF80910A0381FF36C080910903B6
:1029C00084FD2EC087EE39C08091090383FF2AC0A1
:1029D000F5CF8091090383FD25C080910A0381FD15
:1029E00023C0ECCF8091090385FD22C01FC08091D8
:1029F000090385FD1BC080910A0383FF19C00AC02B
:102A00008091090386FD16C017C08091090386FDD9
:102A100013C010C089E311C082EE0FC080EE0DC05C
:102A200080E00BC086EE09C084EE07C085E305C0D8
:102A300089E203C08AE201C081E390E008959091A9
:102A4000090392FF10C041E0282F2471243009F0BF
:102A500040E031E0282F2871283009F030E043179A
:102A600011F02CE0822793FF10C041E0282F247141
:102A7000243109F040E031E0282F2871283109F095
:102A800030E0431711F02CE0822730910A0330FF29
:102A900010C051E0282F2171213009F050E041E0B1
:102AA000282F2871283009F040E0541711F029E050
:102AB000822731FF10C041E0282F2171213109F018
:102AC00040E031E0282F2871283109F030E0431729
:102AD00011F029E0822794FD877E089524E0829FEB
:102AE000C0011124FC01ED5DFC4F60817181828188
:102AF00093810895A0E0B0E0E0E8F5E10C944B2F5D
:102B000085E593E09F938F930E94A30683E2E82ECE
:102B100083E0F82E0F900F90812C912C90E5A92E38
:102B200093E0B92E2DE4C22E23E0D22E06E413E06A
:102B3000C4E4D3E09F928F92BF92AF920E94A3060B
:102B4000DF92CF920E94A306F7016191719181916A
:102B500091917F010E9403089F938F937F936F93BE
:102B60001F930F930E94A306DF93CF930E94A306A7
:102B70009FEF891A990AEDB7FEB73E960FB6F89403
:102B8000FEBF0FBEEDBFF6E08F16910499F6CDB7EC
:102B9000DEB7ECE00C94672F80EA8A95F1F7089590
:102BA00000C008950E94CC15089508950E94D5157F
:102BB00008950E94D61508950E94D51508950E9483
:102BC000DC150895F894E82FE295EF70F0E031A15C
:102BD000282F2F7081E090E001C0880F2A95EAF736
:102BE000982F9095932391A392A1892B82A37894F7
:102BF00008950F931F93CF93DF93CAEAD1E0899191
:102C00008F3F11F00E94E21581E0C03BD807B9F771
:102C1000C9E9D1E00AEA11E089918F3F11F00E94E1
:102C2000E2150C171D07C1F7DF91CF911F910F918E
:102C300008954F925F926F927F928F929F92AF9280
:102C4000BF92DF92EF92FF920F931F93CF93DF9388
:102C50008C01C62FD0E0CE0186559E4F7C01FC0131
:102C600090819F3F09F460C0D62EF894E92FE29539
:102C7000EF70F0E081A19F7021E030E001C0220FF1
:102C80009A95EAF7822B81A382A12095282322A37B
:102C900078940E94D015E9E9F1E02AEA31E0412C6C
:102CA000512C32014394812C912C540181918F3FFE
:102CB00099F0A82FA295AF70B0E090964C9150E09B
:102CC0008F70BA0102C0759567958A95E2F760FD2D
:102CD00003C0D301C20103C080E090E0DC01882A78
:102CE000992AAA2ABB2A440C551C661C771C2E174D
:102CF0003F07E1F6F70180818F3F11F00E94E21556
:102D000061E081149104A104B10409F460E08D2D07
:102D10000E94D215CC0FDD1FCC0FDD1FC00FD11FBD
:102D200088829982AA82BB82DF91CF911F910F91F5
:102D3000FF90EF90DF90BF90AF909F908F907F902B
:102D40006F905F904F9008950E94F91588E1E3E23B
:102D5000F3E0DF01982F1D929A95E9F7EBE0F3E09D
:102D6000DF011D928A95E9F786E00E94F5160E9420
:102D7000DF150895A8E1B0E0E0ECF6E10C94522FE5
:102D80008E010F5F1F4F88E1F80111928A95E9F7D4
:102D9000F12C6F2DC8010E941916F394F6E0FF1272
:102DA000F8CF48E150E0B8018BE093E00E94C02FDB
:102DB00021E0009709F420E0892B41F088E1F80137
:102DC000ABE0B3E001900D928A95E1F746E063E253
:102DD00073E08BE093E00E94F616182F0E94D9153D
:102DE000812F6896E5E00C946E2F0895EF92FF9284
:102DF0000F931F93CF93DF937C018B01C42F22236A
:102E000051F081E08093D7020E9491269093D602E0
:102E10008093D50204C08091D702811102C080E066
:102E20001DC08091D5029091D6020E94A9260597D7
:102E3000B0F384E0C89FE0011124AE01B701C801DE
:102E40000E94C02F892B39F0AE01B701C8010E9442
:102E5000CD2F81E001C080E01092D702CDB7DEB760
:102E6000E6E00C946D2F0E94B71208950E94282668
:102E70000E9470290E947E120E948A290E94AA1232
:102E80000E9497290E949C290E9433170E94C429FE
:102E90000E9466270E9496270E948712F3CF909384
:102EA000DD018093DC010895EF92FF920F931F9351
:102EB000CF93DF938B01682F11110AC0442329F0AF
:102EC000E82FF0E0E654F84F6491762F862F75C016
:102ED000212F30E0E82FF0E0442321F0E654F84FB2
:102EE000E491F0E046E0049FC0011124CFEFD0E070
:102EF000BE010E94172F4BEA4603C001479F900D69
:102F00001124800F911D800F911D982F990F890F0B
:102F1000AE01421B530B4E9FD0014F9FB00D5E9FE1
:102F2000B00D11249B2F189FA0011124452F552768
:102F30008E01041B150B0E9FA0010F9F500D1E9FAD
:102F4000500D11247E01E81AF108E29E8001E39EF3
:102F5000100DF29E100D1124212F3327C21BD30B0D
:102F6000CE9F9001CF9F300DDE9F300D1124623037
:102F70007105A9F048F46115710569F061307105BA
:102F8000C9F48B2F752F0DC06430710581F058F096
:102F90006630710579F47E2F8B2F932F0DC0832F10
:102FA0007B2F9E2F09C08E2F7B2F952F05C08E2F34
:102FB000732F02C07E2F852F692FCDB7DEB7E6E0D5
:102FC0000C946D2F41E00E945417089508950E94BB
:102FD000E2170895CF93DF93762FE901682F842FAE
:102FE0000E94E717798368838A83DF91CF910895E0
:102FF000493C08F048EC0E94EA17089580913B0391
:10300000282F2695269530E02115310519F4837077
:10301000846005C02331310524F083708864809377
:103020003B0380913E03893C18F088EC80933E037B
:103030000895A0E0B0E0EFE1F8E10C944F2F88E0B4
:1030400090E00E94DE2F6B017C0183E290E00E9401
:10305000D62F282F30E040E050E060E070E080E0C4
:1030600090E000E20E947C2FB22FA32FF42FE52FD7
:10307000D62FC72F97018601BC29A12BF22B5E2FDB
:10308000532B2B2F3A2F4F2F6D2F7C2FCDB7DEB721
:10309000E8E00C946B2FA0E0B0E0E1E5F8E10C94DF
:1030A0004B2F49015A016B017C010E94FE178401DC
:1030B000A4016A2D7B2D88E090E00E940C309401E1
:1030C0004A2D5B2DB601C70100E20E94972F622FA7
:1030D00083E290E00E94FA2FCDB7DEB7ECE00C94CB
:1030E000672FEBE3F3E025E0208311828FEF8283EB
:1030F00088EC83831482758130E04FEF58EC60E0F8
:10310000868197810E944B1808958091D40280FF98
:1031100008C085E996E09F938F930E94A3060F90C5
:103120000F908091D40280FF0FC080913B0381708B
:103130001F928F9388E796E09F938F930E94A30638
:103140000F900F900F900F908091D40280FF10C0CD
:1031500080913B03869581701F928F9388E596E05E
:103160009F938F930E94A3060F900F900F900F9044
:103170008091D40280FF10C080913B038695869594
:103180001F928F938DE396E09F938F930E94A306E7
:103190000F900F900F900F908091D40280FF0EC07F
:1031A00080913C031F928F9383E296E09F938F93CD
:1031B0000E94A3060F900F900F900F908091D40261
:1031C00080FF0EC080913D031F928F9389E096E0AF
:1031D0009F938F930E94A3060F900F900F900F90D4
:1031E0008091D40280FF0EC080913E031F928F9386
:1031F0008FEE95E09F938F930E94A3060F900F9000
:103200000F900F908091D40280FF0EC080913F03F9
:103210001F928F9383ED95E09F938F930E94A30657
:103220000F900F900F900F90089580913B0380FFB7
:1032300003C086958695089580E0089590913F0398
:10324000933018F49F5F90933F03882391F020916F
:103250003B0330913C0340913D0350913E0360910C
:103260003F037091400380914103909142030E947B
:103270004B18089581E00E941E19089590913F0314
:10328000992319F0915090933F03882391F0209156
:103290003B0330913C0340913D0350913E036091CC
:1032A0003F037091400380914103909142030E943B
:1032B0004B18089581E00E943E1908956091050120
:1032C00080913B0380FF0FC08091040170E023E0F8
:1032D000829FC0011124E091C501F091C6018D5B70
:1032E0009C4F0995089580910601909107018917D7
:1032F00058F7E82FF0E09F01220F331FE20FF31F72
:10330000ED5BFC4F1182108212828F5FF0CF9091A3
:103310003B0390FF16C09091060120910701921780
:1033200070F4E92FF0E0DF01AA0FBB1FEA0FFB1FCB
:10333000ED5BFC4F8183608342839F5FF0CF0E94EF
:103340005E190895A3E0B0E0E8EAF9E10C94552F86
:1033500090913B0390FF0AC09E012F5F3F4F0E9458
:10336000F8174B8169818A810E9487192396E2E0D0
:103370000C94712FCF93DF93EC01EC81F0E0EB54D0
:10338000F94F4491EBE3F3E0628181810E94A2193D
:103390008C818F5F8C83DF91CF910895CF93DF93E2
:1033A000EC01EBE3F3E0438162818C810E94A2197E
:1033B0008C818F5F8C83DF91CF910895A3E0B0E083
:1033C000E4EEF9E10C944A2F082FE62EF42E922E0B
:1033D00080913B0380FFB0C0E82FE695E695AE2FC5
:1033E000B0E0A055BE4F9C919093E1028C7F843059
:1033F00061F49E012F5F3F4F802F0E94F8174B8191
:1034000069818A810E94871959C0923019F4F0901D
:103410003E0354C0963019F400913C034FC09930DC
:1034200009F04CC0E9508E2F8170C82E81E0DC2C51
:10343000D826E695F0E0EB54F84F1491812C5AEF22
:10344000A52E53E0B52E609108018616A8F5819E41
:10345000C001112470E00E94172F702EC11002C00D
:10346000760E01C0761A8091D40280FF11C01F929F
:103470001F931F92DF921F927F921F928F92BF9293
:10348000AF920E94A3060FB6F894DEBF0FBECDBF69
:1034900080910601282D30E0280F311DC901880FC9
:1034A000991F280F391F2D5B3C4F4F2D6E2D872DF7
:1034B0000E94F8178394C7CF0E945E1900933C03C3
:1034C000E0923D03F0923E03992009F120913B03E5
:1034D00060913F0370914003302FA7018091410319
:1034E000909142030E944B188091D40280FF24C027
:1034F00080913E031F928F9380913D031F928F9383
:1035000080913C031F928F9385ED93E00CC08091D6
:10351000D40280FF11C01F92FF921F92EF921F9260
:103520000F938EEA93E09F938F930E94A3060FB6AA
:10353000F894DEBF0FBECDBF2396EDE00C94662F4E
:10354000EBE3F3E09181282F4381628188E0890FCA
:103550000E94DE19089581E00E94A01A0895EBE30D
:10356000F3E09181282F4381628188EF890F0E94C7
:10357000DE19089581E00E94AF1A0895EBE3F3E0AD
:10358000628128E0620F08F46FEF282F4381818168
:103590000E94DE19089581E00E94BE1A0895EBE3AF
:1035A000F3E0628128E0621B08F460E0282F438189
:1035B00081810E94DE19089581E00E94CF1A08954A
:1035C000EBE3F3E0438128E0420F08F44FEF282FAC
:1035D000628181810E94DE19089581E00E94E01AD3
:1035E0000895EBE3F3E0438128E0421B08F440E058
:1035F000282F628181810E94DE19089581E00E9456
:10360000F11A089520E00E94DE19089590913B037D
:1036100090FF0AC0211108C08093440360934303C4
:10362000409345030E945E19089560913B0366959F
:10363000669570E04BE050E089E091E00E94B32F86
:10364000892B19F481E08093E2020E9491269093E5
:10365000D9028093D8028091D40280FF08C085E906
:1036600093E09F938F930E94A3060F900F9008956D
:103670001092E2028091D40280FF08C08CE793E0B0
:103680009F938F930E94A3060F900F90089590919F
:103690003B0390FF5EC09370811102C0946007C02D
:1036A000833110F0986403C0880F880F982B909393
:1036B0003B0320913B036623E9F030913C034091AA
:1036C0003D0350913E0360913F0370914003809110
:1036D0004103909142030E944B188091D40280FFD5
:1036E0001BC080913B03869586951F928F9388E53A
:1036F00095E00AC08091D40280FF0EC026952695E1
:103700001F922F938AE395E09F938F930E94A306C5
:103710000F900F900F900F9060913B036695669508
:1037200070E04BE050E089E091E00E94B32F892BDC
:1037300019F00E94381B02C00E94151B81E0809383
:10374000DB0240913E0360913D0380913C030E9467
:10375000021B0895682F90913B039695969581E002
:10376000890F833108F081E00E94471B089581E0B2
:103770000E94AA1B0895682F90913B0396959695F9
:103780008FEF890F09F482E10E94471B089581E0C1
:103790000E94BB1B089561E00E94471B0895809121
:1037A0003B03816080933B038091D40280FF0DC076
:1037B0001F9281E08F938CEC94E09F938F930E94F3
:1037C000A3060F900F900F900F9080913B0386956A
:1037D00086950E94CB1B089560E00E94471B0895C8
:1037E0008091E002811156C08091D40280FF08C010
:1037F0008DEB95E09F938F930E94A3060F900F90FF
:103800000E94191820933B0330933C0340933D03DF
:1038100050933E0360933F037093400380934103B2
:10382000909342032C7F01F58091D40280FF08C061
:1038300084E795E09F938F930E94A3060F900F90CB
:103840000E9471180E94191820933B0330933C0387
:1038500040933D0350933E0360933F0370934003B6
:1038600080934103909342030E94FE170E948518A3
:103870001092E202E091C301F091C4010995809198
:103880003B0380FF04C0869586950E94EC1B81E077
:103890008093E00208950E94191820933B0330930F
:1038A0003C0340933D0350933E0360933F0370936A
:1038B000400380934103909342030E94FE170E94AD
:1038C000851880913B0380FF04C0869586950E94F1
:1038D000EC1B089580913B03816080933B038091B2
:1038E000D40280FF0DC01F9281E08F9383E994E0A2
:1038F0009F938F930E94A3060F900F900F900F90AD
:1039000080913B03869586950E94EC1B089510924A
:10391000DF028091DE0281110E946A1C0E94151B49
:10392000089520913B032E7F20933B0330913C036D
:1039300040913D0350913E0360913F0370914003DD
:1039400080914103909142030E944B188091D402D0
:1039500080FF0FC080913B0381701F928F938BE596
:1039600094E09F938F930E94A3060F900F900F9067
:103970000F900E94381B0E945E1908958091D40216
:1039800080FF10C080913B03809581701F928F93C0
:1039900083E095E09F938F930E94A3060F900F9072
:1039A0000F900F9080913B0380FF03C00E94911CF9
:1039B00008950E94CF1B089580913B038E7F8093D2
:1039C0003B038091D40280FF0CC01F921F9281E2C2
:1039D00094E09F938F930E94A3060F900F900F90F7
:1039E0000F900E94381B0E945E1908950E94381B98
:1039F0008091DF0281110AC081E08093DF02809113
:103A00003B0381708093DE020E94DC1C08950F93BB
:103A10001F93CF93DF938091E202882309F448C07B
:103A20008091E102E0913B03E695E695E81BE09387
:103A3000DA02823049F4F0E0EF54F94FE491CE2FEE
:103A4000D0E00AEB19E10FC0863049F4F0E0E2550E
:103A5000F94FE491CE2FD0E00EEC19E104C0C0ED97
:103A6000D7E006EE17E18091DB02882361F0109227
:103A7000DB020E9491269093D9028093D802109283
:103A8000DD021092DC020E949126E091D802F091B2
:103A9000D9028E1B9F0B8F3F9F4750F4CE0FDF1F25
:103AA000D093D902C093D80288ED92E0F80109952D
:103AB000DF91CF911F910F91089508950E94071DE6
:103AC0000895882311F0FA0101C0FB0109950895BA
:103AD000CF93DF93C82FD62F0E9415198C1738F07B
:103AE0000E9415198D1718F40E94B71B03C08C2F64
:103AF0000E94CB1BDF91CF9108951F93CF93DF934B
:103B0000FB011581111155C0EC010E944810827211
:103B1000FE01E052F847E531F10520F4EE59FF4F80
:103B20000C943F2F11E045C00E94BE1C42C047ECE0
:103B30005BE167EB7BE104C047EB5BE167EC7BE1BA
:103B40000E94611D36C04AEB5AE16BEA7AE1F8CF78
:103B50004BEA5AE16AEB7AE1F3CF4CED5AE16BECB8
:103B60007AE1EECF4BEC5AE16CED7AE1E9CF4EEF22
:103B70005AE16DEE7AE1E4CF4DEE5AE16EEF7AE173
:103B8000DFCF4AE559E16AE379E1DACF4AE359E167
:103B90006AE579E1D5CF81E00E94CB1B0AC065E0E0
:103BA00082E005C068E086E002C062E189E00E9430
:103BB000681D812FDF91CF911F910895E6E4F3E016
:103BC00081E2808311828AE18283138260E2CF01E5
:103BD0000E945D270895E6E4F3E082E2808381E0BD
:103BE0008183128285E0838360E2CF010E945D279A
:103BF0000895E6E4F3E083E2808311821282138267
:103C000060E2CF010E945D270895FF920F931F93FA
:103C1000CF93DF93EC01F9800A81802F90E08F0D24
:103C2000911D029714F08DEF05C00A3010F410E0DA
:103C300009C08EEF8093470360E286E493E00E9420
:103C40005D270CC02396101749F0212F2F0D4A81B4
:103C5000698188810E94061B1F5FF4CFCDB7DEB754
:103C6000E5E00C946E2FE6E4F3E087E2808381E0E8
:103C7000818360E2CF010E945D270895E6E4F3E0CE
:103C800088E2808382E0818360E2CF010E945D2729
:103C90000895DC01EC914E2F50E0FA01B197E83025
:103CA000F105C0F4E958FF4F0C943F2F0E94DE1D30
:103CB00008950E94EB1D08950E94F91D08950E9429
:103CC000051E08950E944B1C08950E94331E0895FE
:103CD0000E943E1E0895529A08952BB12B7F3BB14E
:103CE00034604FB7F894FC01CB01880F991F680F1F
:103CF000791F6E0F7F1FE617F70789F0819198E013
:103D00003BB9000000C087FF2BB9880F000000C03E
:103D100000C000C02BB900C09A9591F7ECCF4FBFFF
:103D20008FE594E00197F1F700C0000008950E942C
:103D30008211089580E00E946E15862F817008958B
:103D40000E94BA162FEF86E791E021508040904004
:103D5000E1F700C000000E94BA160E949A1E882354
:103D600021F00E94971E0E94DE2608950E94A01E48
:103D70000895CF93DF9386319C4709F5EB010E94AC
:103D800048109D81992371F08A7A91E009F490E0BE
:103D90009093E302811102C089E201C085E30E9491
:103DA0006B2509C08091E302811102C089E201C044
:103DB00085E30E9482250E94EF1080E001C081E02F
:103DC000DF91CF910895CF93DF93FC01DB0115962E
:103DD0008C91882309F4DDC09F01305723323105CF
:103DE00008F0D8C0EF010E949E1190930A038093BF
:103DF0000903FE01E150F047E232F10520F4E158F9
:103E0000FF4F0C943F2F809109038160AAC08091DD
:103E10000A038860B2C0809109038260A2C08091C9
:103E2000090320C08091090388609BC080910A0328
:103E30001EC080910A038260A0C080910903806146
:103E400090C08091090380628CC0809109038064D6
:103E500088C00E94B50B80910903806882C0809160
:103E60000903886084607DC080910A03826081605C
:103E700084C0809109038E7F74C080910A03877F7C
:103E80007CC0809109038D7F6CC08091090320C0A4
:103E900080910903877F65C080910A031EC08091CD
:103EA0000A038D7F6AC0809109038F7E5AC080917A
:103EB00009038F7D56C0809109038F7B52C00E94F9
:103EC000B50B809109038F774CC080910903877FE0
:103ED0008B7F47C080910A038D7F8E7F4EC080917B
:103EE000090382FB222720F991E0922790FB82F9B7
:103EF00090FB83F936C080910A03982F90959170BA
:103F00008E7F892B90FB81F938C08091090386FB55
:103F1000222720F991E0922790FB86F922C00E9487
:103F2000B50B8091090387FB222720F991E09227A6
:103F300090FB87F916C081E001C080E00E94271243
:103F40001EC08091090384FB222720F991E092276B
:103F500090FB84F906C080910903982F909590FBFF
:103F600080F9809309030BC080910A0383FB222709
:103F700020F991E0922790FB83F980930A038091C6
:103F8000090390910A030E94A3110E94B50B80E0DF
:103F900001C081E0DF91CF910895282F35EB2303F5
:103FA000C001112497FF03C08058910902C08058B6
:103FB0009F4F892F08958091EA0280FF06C060918B
:103FC000190170E0660F771F26C081FF04C0609161
:103FD000190184E005C082FF07C06091190188E0E3
:103FE000689FB001112417C09091E9029923D1F084
:103FF00060911801961788F72091190188E0289F91
:1040000090011124929FA001939F500D112470E004
:10401000CA010E942B2F6038710540F461157105AB
:1040200019F406C068E070E0862F08958FE70895C0
:1040300081E008958091EA0280FF08C06091150137
:1040400070E0759567957595679521C081FF06C0ED
:104050006091150170E07595679519C082FF04C0E5
:104060006091150170E010C09091E802992399F0D9
:10407000609114019617A0F780911501899FC001E6
:10408000112470E00E942B2F6038710540F46115F7
:10409000710519F406C061E070E0862F08958FE77E
:1040A000089581E008958D3C21F40E94DB1F8195E5
:1040B00004C08E3C29F40E94DB1F8093EE02089519
:1040C0008F3C21F40E94DB1F819504C0803D29F4C0
:1040D0000E94DB1F8093ED020895893D19F40E9430
:1040E0001A2005C08A3D31F40E941A2081958093E0
:1040F000EF0208958B3D21F40E941A20819504C09F
:104100008C3D29F40E941A208093F00208959FE2CA
:10411000980F983078F421E030E0A90102C0440FF4
:10412000551F9A95E2F7CA019091EC02892B809372
:10413000EC0208958D3D21F48091EA0281600BC06C
:104140008E3D21F48091EA02826005C08F3D29F402
:104150008091EA0284608093EA0208958D3C39F4EC
:104160009091EE0297FF35C01092EE0259C08E3C3E
:1041700029F49091EE021916BCF32BC09091ED0238
:104180008F3C29F497FF25C01092ED0249C0803D75
:1041900019F41916CCF31DC09091EF02893D29F452
:1041A0001916BCF41092EF023BC08A3D19F497FF38
:1041B00010C0F8CF8B3D39F49091F00297FF09C001
:1041C0001092F0022DC08C3D21F49091F00219164E
:1041D000BCF39FE2980F983080F421E030E0A90111
:1041E00002C0440F551F9A95E2F7CA01809590913D
:1041F000EC0289238093EC0213C08D3D21F4809161
:10420000EA028E7F0BC08E3D21F48091EA028D7F01
:1042100005C08F3D29F48091EA028B7F8093EA02EA
:104220008091ED02811106C08091EE02811102C0E1
:104230001092E9028091EF02811106C08091F00294
:10424000811102C01092E80208958091D40283FF88
:1042500096C081EE98E09F938F930E94A306809171
:10426000EC021F928F938CED98E09F938F930E94A6
:10427000A3068AED98E09F938F930E94A3068091F6
:10428000ED02282F082E000C330B3F938F9387ED00
:1042900098E09F938F930E94A30685ED98E09F93EB
:1042A0008F930E94A3068091EE02282F082E000C07
:1042B000330B3F938F9382ED98E09F938F930E94EF
:1042C000A30680ED98E09F938F930E94A3068091B0
:1042D000EF02282F082E000C330B3F938F938DECA9
:1042E00098E09F938F930E94A3068BEC98E09F9396
:1042F0008F930E94A3068091F002282F082E000CB5
:10430000330B3F938F9388EC98E09F938F930E9499
:10431000A30685EC98E09F938F930E94A3068DB728
:104320009EB780960FB6F8949EBF0FBE8DBF80914A
:10433000E9021F928F9382EC98E09F938F930E94E3
:10434000A30680EC98E09F938F930E94A306809130
:10435000EA021F928F938DEB98E09F938F930E94B8
:10436000A3068AEB98E09F938F930E94A3068DB7D4
:104370009EB70C960FB6F8949EBF0FBE8DBF0E94DD
:1043800091262091ED02211104C02091EE022223FA
:1043900021F09093E7028093E6022091EF02211131
:1043A00004C02091F002222321F09093E502809333
:1043B000E4028BEE92E00E944A240895EBEEF2E0D4
:1043C00086E0DF011D928A95E9F71092E9021092CA
:1043D000E8021092EA020895FC01828181110DC069
:1043E000838181110AC08481811107C091E0858198
:1043F000811101C090E0892F01C081E08170089592
:10440000A6E0B0E0E6E0F2E20C94542F86E0EBEE9A
:10441000F2E0DE01119601900D928A95E1F710927B
:10442000ED021092EE021092EF021092F0028B81D8
:10443000811104C08C81882309F456C08091E60262
:104440009091E7020E94A926AC019091E90299237C
:1044500039F020911A0130E02417350758F044C094
:1044600020911B018AE0289F900111242417350711
:1044700018F03AC09F3F19F09F5F9093E9021B81AB
:10448000112361F00E94DB1F111614F09FEF01C091
:1044900091E0989F902D11249093ED021C8111239F
:1044A00061F00E94DB1F111614F09FEF01C091E034
:1044B000989F902D11249093EE028091ED02882315
:1044C00099F01091EE02112379F00E94CD1F811115
:1044D00001C081E08093ED02812F0E94CD1F8111E8
:1044E00001C081E08093EE028D81811104C08E8134
:1044F000882309F456C08091E4029091E5020E945D
:10450000A926AC019091E802992339F02091160177
:1045100030E02417350758F044C0209117018AE095
:10452000289F900111242417350718F03AC09F3FA7
:1045300019F09F5F9093E8021D81112361F00E94A2
:104540001A20111614F09FEF01C091E0989F902D52
:1045500011249093EF021E81112361F00E941A2012
:10456000111614F09FEF01C091E0989F902D112437
:104570009093F0028091EF02882399F01091F0025D
:10458000112379F00E94CD1F811101C081E0809339
:10459000EF02812F0E94CD1F811101C081E0809325
:1045A000F002BE016F5F7F4F8BEE92E00E94B32559
:1045B000811105C08BEE92E00E94EC2181110E94D6
:1045C000252186E0FE013196ABEEB2E001900D921E
:1045D0008A95E1F72696E3E00C94702F0F931F93D2
:1045E000CF93DF93C42FD22FFC0185818823B1F0B4
:1045F0004093F3020E9491269093F2028093F1027D
:1046000080E28C0F883008F04DC0C77081E001C097
:10461000880FCA95EAF70E945E0944C08091F302B0
:10462000481330C08091F1029091F2020E94A926B5
:10463000883C910538F510E21D0FCD17B9F080E2E6
:104640008C0F883040F4C77081E001C0880FCA9594
:10465000EAF70E946509183010F581E09D2F9770E8
:1046600001C0880F9A95EAF70E945E09802F0E9488
:1046700054091830B8F4D77081E001C0880FDA957A
:10468000EAF70AC080E28C0F883060F4C77081E0DE
:1046900001C0880FCA95EAF70E94650903C0802F00
:1046A0000E945409DF91CF911F910F9108950F93AC
:1046B000FC01E851FC47E730F10590F5CB01EF55DF
:1046C000FF4F0C943F2F06E221EE41EE6AE17CE7BA
:1046D00023C007E225EE45EE6BE17CE71DC006E254
:1046E00021EE40EE68E17CE717C007E225EE44EEDC
:1046F00069E17CE711C006E221EE42EE6CE17CE765
:104700000BC007E225EE46EE6DE17CE705C008E24E
:1047100021E045EE6EE17CE70E94EE2280E008C0D9
:10472000FB018581882319F01092F30201C081E01A
:104730000F9108959093F9028093F8020895E09103
:10474000F802F091F902309729F00190F081E02D04
:104750000995089580E00895EF92FF921F93CF93FB
:10476000DF93E091F802F091F9023097E1F1EC016A
:104770000280F381E02D09958091D40282FF33C03D
:1047800080FF0DC088811F928F9389E299E09F93EB
:104790008F930E94A3060F900F900F900F9016E03A
:1047A00083E2E82E89E0F82E8091D40280FF0BC0CE
:1047B0008A811F928F93FF92EF920E94A3060F901F
:1047C0000F900F900F90115021961111EDCF809105
:1047D000D40280FF08C081E299E09F938F930E94EA
:1047E000A3060F900F90DF91CF911F91FF90EF9054
:1047F0000895EF92FF921F93CF93DF93E091F80219
:10480000F091F902309709F43FC0EC0186E088830B
:104810000480F581E02DCE0109958091D40282FFBC
:1048200033C080FF0DC089811F928F938CE099E087
:104830009F938F930E94A3060F900F900F900F905D
:104840001EE186E0E82E89E0F82E8091D40280FFF8
:104850000BC08A811F928F93FF92EF920E94A30652
:104860000F900F900F900F90115021961111EDCFD6
:104870008091D40280FF08C084E099E09F938F93D9
:104880000E94A3060F900F90DF91CF911F91FF9090
:10489000EF900895E091F802F091F902309739F025
:1048A00022E0DC012C930680F781E02D0995089524
:1048B000A3E0B0E0EEE5F4E20C94552F2091F6026F
:1048C0003091F70228173907A1F09093F7028093EF
:1048D000F602E091F802F091F902309751F023E0EE
:1048E00029839B838A830084F185E02DCE01019684
:1048F00009952396E2E00C94712FA3E0B0E0E3E881
:10490000F4E20C94552F2091F4023091F50228170F
:104910003907A1F09093F5028093F402E091F80238
:10492000F091F902309751F024E029839B838A8328
:104930000084F185E02DCE01019609952396E2E0F1
:104940000C94712FE0910201F09103013296809155
:104950002601882359F08091090387FF07C0E09161
:104960000001F091010132969EE101C096E080E0E5
:10497000915028F021912223D9F38F5FF9CF089528
:10498000882399F190912601992309F190910903C7
:1049900097FF1DC0982F9695969596959E3128F570
:1049A000E0910001F0910101E90FF11D2281422FF8
:1049B00050E0877021E030E002C0220F331F8A955B
:1049C000E2F72423352381E0232B91F40EC02091BC
:1049D000020130910301F9013296285F3F4F919116
:1049E000891729F0E217F307D1F780E0089581E0F5
:1049F00008959C01FC0132969FEF80E0419146179B
:104A000089F09F3F19F4411101C0982F8F5F8630C4
:104A1000A9F79F3F39F0F901E90FF11D97FDFA95CC
:104A20006283089508959C012A5F3F4FFC014281F3
:104A3000461301C01282019682179307B9F70895B1
:104A4000262F2695269526952E3170F4FC01E20F2F
:104A5000F11D677021E030E001C0220F6A95EAF78E
:104A60008281282B228308958091D40280FF0CC07C
:104A70001F926F9380E699E09F938F930E94A30605
:104A80000F900F900F900F900895262F2695269542
:104A900026952E3178F4FC01E20FF11D677021E0BC
:104AA00030E001C0220F6A95EAF720958281282321
:104AB000228308958091D40280FF0CC01F926F93CF
:104AC00082E499E09F938F930E94A3060F900F902A
:104AD0000F900F900895682F80912601882359F038
:104AE0008091090387FF07C0809100019091010127
:104AF0000E942025089580910201909103010E9457
:104B0000F9240895682F80912601882359F0809117
:104B1000090387FF07C080910001909101010E9465
:104B20004525089580910201909103010E9413256B
:104B3000089580912601882359F08091090387FF09
:104B400007C0E0910001F091010132968EE106C0AC
:104B5000E0910201F0910301329686E0DF011D929F
:104B60008A95E9F70895DC01FB0111969C91119754
:104B70008181981321C012968C911297882319F085
:104B80009281891319C013968C911397882319F079
:104B90009381891311C015968C911597882319F06C
:104BA0009581891309C014969C91992339F081E06D
:104BB0002481291304C002C081E001C080E081701B
:104BC000089508950E94E125089583E08093FA02F4
:104BD0000E94E2250895811102C081E001C082E0B7
:104BE0008093FA020E94E22508950E94EB25089521
:104BF00081E08093FA020E94E22508950E94F82540
:104C0000089508950E94012608950E94022608959D
:104C10000E94012608950E94012608950E940126FF
:104C20000895CF930E940B260E94BA160E94082670
:104C3000C0E08C2F0E946E15672B682B692B29F41E
:104C4000CF5FC630B1F780E001C081E0CF91089519
:104C500085B7806885BF85B7806885BF08951F9236
:104C60000F920FB60F9211248F939F93AF93BF9320
:104C70008091FB02811113C08091660390916703BC
:104C8000A0916803B09169034196A11DB11D809365
:104C9000660390936703A0936803B0936903BF9181
:104CA000AF919F918F910F900FBE0F901F9018950D
:104CB00080916E03843031F10E94D0071092FB0284
:104CC00020E488E190E00FB6F894A8958093600006
:104CD0000FBE2093600083B7817F846083BF83B75A
:104CE000816083BF7894889583B78E7F83BF0FB62A
:104CF000F894A8958091600088618093600010927C
:104D000060000FBE08950E94B50B0E94D70708955A
:104D100082E084BD93E095BD9AEF97BD80936E00CD
:104D200008952FB7F8948091660390916703A0913E
:104D30006803B09169032FBF08952FB7F89460916D
:104D400066037091670380916803909169032FBF98
:104D500008959C014FB7F894809166039091670382
:104D6000A0916803B09169034FBF821B930B089514
:104D700078941F920F920FB60F9211248F939F93E6
:104D8000AF93BF938091660390916703A0916803EE
:104D9000B09169030196A11DB11D809366039093A4
:104DA0006703A0936803B0936903BF91AF919F918C
:104DB0008F910F900FBE0F901F90189581E08093F8
:104DC000E00080E28093D8001092C9008FE19EE459
:104DD0000197F1F700C0000087E090EBDC018093C1
:104DE000770390937803A0937903B0937A039CE0C0
:104DF00088E10FB6F894A895809360000FBE909359
:104E00006000FFCF9CE088E10FB6F894A8958093EE
:104E100060000FBE90936000FFCF8091070308955C
:104E20009B0190916E039430F1F48F708093E900B0
:104E30008FEF9091E800815095FD06C095ED9A9511
:104E4000F1F700008111F5CF8091E80085FF0BC0DC
:104E5000BA01C90140E050E00E94392A8091E8007F
:104E60008E778093E800089543E050E0BC0184E031
:104E70000E941027089546E050E0BC0184E00E94A3
:104E80001027089540E250E0BC0184E00E94102702
:104E90000895CF93DF93EC0148E050E0BC0181E03E
:104EA0000E94102788E0FE01AFEFB2E001900D9262
:104EB0008A95E1F7DF91CF910895603231F4BC011A
:104EC00040E250E082E00E9410270895A0E2B0E0A6
:104ED000ECE6F7E20C94552F80916E03843011F5C7
:104EE00083E08093E9008091E80082FF1BC08091FD
:104EF000E80085FF0AC040E050E060E270E0CE01CB
:104F000001960E947E2A91E001C090E08091E80025
:104F10008B778093E800992329F060E2CE01019617
:104F20000E94491EA096E2E00C94712F089584EA35
:104F300099E09F938F930E94A30680916D030F9039
:104F40000F90811109C00E94092C0E94662C80914B
:104F5000E20084608093E200089580EA99E09F93E4
:104F60008F930E94A30610926D030F900F900895E7
:104F70008CE999E09F938F930E94A3060E94FE25DF
:104F80000F900F90089588E999E09F938F930E9466
:104F9000A30660916A0381E0611101C080E00E9474
:104FA000E5250F900F90089584E999E09F938F93E2
:104FB0000E94A30690916E0381E0943009F080E096
:104FC00060916A030E94EB250F900F900895209145
:104FD000FD022F5F822F62E30E940B2F992319F0AD
:104FE0002093FD0208951092FD028091FE02882315
:104FF00071F180916E03843041F58091E9008F70EA
:105000002091EC00922F917020FD90E8892B95E083
:105010009093E9009091EB0090FF14C09091EE0006
:1050200097FF10C09091E80095FF03C01092F10027
:10503000F9CF9091E80090FF05C09091E8009E772D
:105040009093E8008F708093E9001092FE0208951B
:1050500042E061EC81E00E94822B42E261EC84E05C
:105060000E94822B42E261EC82E00E94822B42E2AB
:1050700060EC83E00E94822B42E261EC85E00E94BA
:10508000822B90916E0381E0943009F080E0609172
:105090006A030E94F525089580917003833009F416
:1050A00063C030F4813071F0823009F49DC00895FE
:1050B0008A3009F489C08B3009F46EC0893009F058
:1050C000ABC020C080916F03813A09F0A5C08091E8
:1050D000E800877F8093E8008091730390917403C8
:1050E000892B21F468E08FEF92E003C060E080E05C
:1050F00090E070E00E94C32A8091E8008B77809353
:10510000E800089580916F03813209F085C0809195
:10511000730390917403009719F0029709F07CC013
:105120008091E800877F8093E8008091E80082FD0D
:1051300005C080916E038111F8CF6EC02091F300FD
:105140008091F20090E0922B029731F48091F1006F
:10515000813011F0863021F48091F10080930703B3
:105160008091E8008B7754C080916F03813A09F0F9
:1051700053C08091730390917403892B09F04CC044
:105180008091E800877F8093E8008091E80080FFAD
:10519000FCCF8091260137C080916F038132E1F509
:1051A0008091730390917403892BB1F58091E8008D
:1051B000877F8093E8000E94B72B809171038093D2
:1051C00026010E94B50B089580916F03813221F56D
:1051D0008091E800877F8093E8000E94B72B809140
:1051E000720380930803089580916F03813AA1F4BC
:1051F0008091E800877F8093E8008091E80080FF3D
:10520000FCCF809108038093F1008091E8008E77B5
:105210008093E8000E94B72B08959FB7F8941092EE
:10522000FE029FBF90916E03943009F057C0909199
:10523000E9009F703091EC00232F217030FD20E8B1
:10524000922B25E02093E9002091EB0020FF43C042
:105250002091EE0027FF3FC02091FC02222321F085
:105260002091E80025FF37C01092FC0226E0309123
:10527000E80035FD15C030916E03343061F5309192
:10528000EB0035FD28C0215021F481E08093FC0221
:1052900022C0EFE9FFE03197F1F700C00000E7CF4F
:1052A0008093F1008091E80085FD0AC08091E800BC
:1052B00080FFFCCF8091E8008E778093E80006C0E5
:1052C0008FB7F89421E02093FE028FBF9F709093D8
:1052D000E90080E008959F709093E9008FEF0895B2
:1052E00084B7877F84BF0FB6F894A895809160003B
:1052F000886180936000109260000FBE90E080E8AB
:105300000FB6F89480936100909361000FBE0E94E5
:10531000F82508950E94092C0E94662CE2EEF0E028
:1053200080818460808378940E94F02E08958CE1BF
:1053300091E00E949A23089580916E03853019F5BB
:105340008091D40280FF0FC08EE799E09F938F93E6
:105350000E94A3060F900F9006C00E9458260E943C
:105360001126811105C080916E038530B1F309C00B
:1053700080916C038823B9F30E94232A0E94B50B05
:10538000F2CF0E948326089508959A0140917503F3
:10539000509176030E94CD290895492F5527433017
:1053A0005105C9F060F44130510581F0423051059A
:1053B00009F041C084E790E040ED59E040C041323F
:1053C0005105E1F04232510531F135C082E190E002
:1053D00044E45AE034C099278130910549F028F01F
:1053E000029749F5E8EAF9E005C0ECECF9E002C003
:1053F000EEEBF9E0849190E0AF0121C064307105DB
:10540000D0F4660F771FFB01ED52FE4F40815181B2
:1054100089E090E014C06430710568F4FB01EE0F80
:10542000FF1FE553FE4F40815181FB01E953FE4FC1
:10543000808190E004C080E090E040E050E0F9011D
:1054400051834083089580E189BD82E189BD09B41B
:1054500000FEFDCF8091D8008F7D8093D800809191
:10546000E00082608093E0008091E00081FDFCCF4D
:105470000895A0E0B0E0EFE3FAE20C944F2FEC01C6
:105480008B017A010E94D62B811133C0E114F10403
:1054900039F0F70180819181081B190BC80FD91FC2
:1054A000C12CD12C0115110519F18091E80085FD61
:1054B00016C08091E8008E778093E800E114F10433
:1054C00049F0F70180819181C80ED91ED182C08236
:1054D00085E00FC00E94D62B882321F30AC0899152
:1054E0008093F10001501109FFEFCF1ADF0ADACFE4
:1054F00080E0CDB7DEB7E8E00C946B2FA0E0B0E021
:10550000E4E8FAE20C944F2FEC018B017A010E943F
:10551000D62B811133C0E114F10439F0F7018081F9
:105520009181081B190BC80FD91FC12CD12C011553
:10553000110519F18091E80085FD16C08091E80001
:105540008B778093E800E114F10449F0F701808142
:105550009181C80ED91ED182C08285E00FC00E9401
:10556000D62B882321F30AC08091F1008993015042
:105570001109FFEFCF1ADF0ADACF80E0CDB7DEB72F
:10558000E8E00C946B2F2091750330917603261779
:10559000370748F06115710539F42091E8002E773E
:1055A0002093E80001C0B901FC0120E061157105FC
:1055B00079F180916E038823F1F18530F1F18091CA
:1055C000E80083FD3CC08091E80082FD2EC0809100
:1055D000E80080FFEBCF2091F3008091F20090E093
:1055E000922B6115710551F08830910538F42191A5
:1055F0002093F100615071090196F3CF21E00897E3
:1056000009F020E08091E8008E778093E800CECF0B
:105610002111CFCF0AC080916E03882361F08530BD
:1056200061F08091E80083FD0AC08091E80082FF6C
:10563000F2CF80E0089582E0089583E0089581E04C
:10564000089520917503309176032617370748F0A7
:105650006115710539F42091E8002E772093E80058
:1056600001C0B901FC0120E06115710591F1809143
:105670006E03882309F440C0853009F43FC080914F
:10568000E80083FD3DC08091E80082FD2FC080913D
:10569000E80080FFE9CF2091F3008091F20090E0D4
:1056A000922B6115710559F08830910540F42491D1
:1056B0002093F1003196615071090196F2CF21E0FB
:1056C000089709F020E08091E8008E778093E80049
:1056D000CBCF2111CCCF0AC080916E03882361F01B
:1056E000853061F08091E80083FD0AC08091E80078
:1056F00082FFF2CF80E0089582E0089583E008956C
:1057000081E00895982F973068F59093E9009817F5
:1057100039F07091EC002091ED005091F00003C041
:10572000242F762F50E021FD02C09F5FECCF3091F7
:10573000EB003E7F3093EB003091ED003D7F3093E6
:10574000ED003091EB0031603093EB007093EC0092
:105750002093ED005093F0002091EE0027FDE5CF5F
:1057600080E008958F708093E90081E00895809132
:105770006F0387FF11C08091E80082FD05C0809112
:105780006E038111F8CF11C08091E8008B770BC0B8
:1057900080916E03882349F08091E80080FFF8CF64
:1057A0008091E8008E778093E80008952091E400CE
:1057B0003091E50095E64091EC00842F817040FF28
:1057C00023C08091E80080FD1DC080916E03882376
:1057D00099F0853099F08091EB0085FD11C04091E2
:1057E000E4005091E5002417350729F3915011F09A
:1057F0009A01E1CF84E0089582E0089583E008955E
:1058000081E0089580E008954091E80042FFDDCFF7
:1058100008950E94782C0E94802CE0EEF0E08081B8
:1058200081608083E8EDF0E080818F77808319BC10
:10583000A7EDB0E08C918E7F8C9380818F7E8083EA
:1058400010926D0308950F931F93CF93DF930E94DF
:10585000782C0E94802CC8EDD0E088818F778883D7
:1058600088818068888388818F7D888319BC1092A5
:105870006E0310926A0310926C0310926B0300EE99
:1058800010E0F80180818B7F80838881816088832C
:1058900042E060E080E00E94822BE1EEF0E0808157
:1058A0008E7F8083E2EEF0E0808181608083808162
:1058B00088608083F80180818E7F80838881806109
:1058C0008883DF91CF911F910F910895E8EDF0E06B
:1058D00080818F7E8083E7EDF0E08081816080832E
:1058E00084E082BF81E080936D030E94232C0895A1
:1058F000E8EDF0E080818E7F80831092E2000895D1
:105900001092DA001092E10008951F920F920FB6E4
:105910000F9211242F933F934F935F936F937F9335
:105920008F939F93AF93BF93EF93FF938091E10089
:1059300082FF0BC08091E20082FF07C08091E100EE
:105940008B7F8093E1000E94E7278091DA0080FF3F
:105950001FC08091D80080FF1BC08091DA008E7F2D
:105960008093DA008091D90080FF0DC080E189BD6D
:1059700082E189BD09B400FEFDCF81E080936E0312
:105980000E94972705C019BC10926E030E94AD2794
:105990008091E10080FF19C08091E20080FF15C076
:1059A0008091E2008E7F8093E2008091E20080612E
:1059B0008093E2008091D80080628093D80019BC67
:1059C00085E080936E030E94C3278091E10084FFED
:1059D00030C08091E20084FF2CC080E189BD82E16B
:1059E00089BD09B400FEFDCF8091D8008F7D8093E2
:1059F000D8008091E1008F7E8093E1008091E200E9
:105A00008F7E8093E2008091E20081608093E200CB
:105A100080916A03882311F084E007C08091E3003D
:105A200087FD02C081E001C083E080936E030E9485
:105A3000D4278091E10083FF29C08091E20083FF99
:105A400025C08091E100877F8093E10082E0809310
:105A50006E0310926A038091E1008E7F8093E100D3
:105A60008091E2008E7F8093E2008091E20080616D
:105A70008093E20042E060E080E00E94822B80910F
:105A8000F00088608093F0000E94B827FF91EF91AA
:105A9000BF91AF919F918F917F916F915F914F9146
:105AA0003F912F910F900FBE0F901F9018951F924E
:105AB0000F920FB60F9211242F933F934F935F9342
:105AC0006F937F938F939F93AF93BF93CF93DF9306
:105AD000EF93FF93C091E900CF708091EC00D82F35
