:100000000C945D030C9495030C9495030C94950348
:100010000C9495030C9495030C9495030C94950300
:100020000C9495030C9495030C94CD260C949F2767
:100030000C94E4210C9495030C9495030C94950373
:100040000C9495030C9495030C9495030C949503D0
:100050000C947C1D0C946D220C9495030C949503C8
:100060000C9495030C9495030C9495030C949503B0
:100070000C9495030C9495030C9495030C949503A0
:100080000C9495030C9495030C9495030C94950390
:100090000C9495030C9495030C9495030C94950380
:1000A0000C9495030C9495030C94950372067206B8
:1000B0009E069E06FF060408040804081D07930711
:1000C000A407A407171B1A1B1F1B261B2B1B301B67
:1000D000351B3A1B3F1B441B491B4E1B501B531B1C
:1000E000561B591B5C1B5F1B611B641B681BA41CFC
:1000F000A61CB11CAB1CAE1CB41CB71CF11E631FAC
:10010000F91EC31EC71EFD1ECA1E001F0B1FD51ED3
:10011000591FD91E0F1FDD1E131F3D1FE11E171F84
:10012000471FE71E1D1F271FCE1E041FD11E071FBE
:10013000EC1E221F331F531F551FBF1EF51E6C1FC1
:1001400006200C20FA1F0020122018201E2007284D
:100150002E2826292E2826297A289D282629F42883
:10016000032929003A003B003C003D003E003F00CF
:1001700040004100420043004400450000004900A7
:100180004C0035001E001F0020002100220023002B
:1001900024002500260027002D002E002A002A001A
:1001A0004B002B00000014001A0008001500170077
:1001B0001C0018000C00120013002F00300031004A
:1001C0004E003900000004001600070009000A0074
:1001D0000B000D000E000F0033003400280000005B
:1001E0000000E10000001D001B00060019000500D2
:1001F000110010003600370038000000E500520002
:100200000000E000E300E2000000000000002C001D
:10021000000000000000E6002152000050005100E4
:100220004F00010001000100010001000100010078
:1002300001000100010001000100010000000100B7
:10024000007C01000100010001000100010001002B
:100250000100010001000100010001000100010096
:10026000010002780000037804780678010001009C
:100270000100010001000100010001000100010076
:1002800001002078000021782378247825782678CA
:100290000100010001000100010001000100000057
:1002A0000000010001000100010001000100010047
:1002B0000100010001000100010000000100277899
:1002C00000000100010016700000000000000100A5
:1002D0000000000000000100215200002178287871
:1002E00024781E0F0500047F3F1F6432146432140B
:1002F000783C1E1E140A052223252628292A2C2D87
:100300002F3032333536383A3B3D3E404243454745
:10031000494A4C4E5051535557595A5C5E6062647D
:100320006668696B6D6F71737577797B7D7F81838B
:100330008587898A8C8E90929496989A9C9E9FA18C
:10034000A3A5A7A8AAACAEAFB1B3B4B6B8B9BBBCAD
:10035000BEBFC1C2C3C5C6C7C9CACBCCCDCED0D122
:10036000D2D2D3D4D5D6D7D7D8D9D9DADADBDBDB1A
:10037000DCDCDCDCDCDDDDDDDDDCDCDCDCDCDBDBBB
:10038000DBDADAD9D9D8D7D7D6D5D4D3D2D2D1D00F
:10039000CECDCCCBCAC9C7C6C5C3C2C1BFBEBCBB0C
:1003A000B9B8B6B4B3B1AFAEACAAA8A7A5A3A19F84
:1003B0009E9C9A98969492908E8C8A898785838148
:1003C0007F7D7B79777573716F6D6B696866646229
:1003D000605E5C5A5957555351504E4C4A494745F7
:1003E0004342403E3D3B3A3836353332302F2D2C98
:1003F0002A292826252322FFAA7F55400000000035
:100400000000000000000001010203040506080AC4
:100410000C0F1114181C2024292E33393F464C533D
:100420005B626A7179818A929AA2AAB2B9C1C8CF75
:10043000D5DCE1E7EBF0F4F7FAFCFDFEFFFEFDFC96
:10044000FAF7F4F0EBE7E1DCD5CFC8C1B9B2AAA264
:100450009A928A8179716A625B534C463F39332E96
:100460002924201C1814110F0C0A08060504030285
:100470000101000000000000000000000001010177
:100480000101010101010202020202020202020351
:100490000303030303030304040404040404050521
:1004A00005050506060606060707070707080808E4
:1004B00008090909090A0A0A0B0B0B0C0C0C0D0D93
:1004C0000D0E0E0E0F0F0F1010111111121213132B
:1004D0001414151516161717181819191A1A1B1BA4
:1004E0001C1D1D1E1E1F2020212222232424252600
:1004F00026272829292A2B2C2D2D2E2F3031323238
:10050000333435363738393A3B3C3D3E3F40414243
:10051000434445464748494A4C4D4E4F5051535429
:10052000555658595A5B5D5E5F61626465666869DD
:100530006B6C6D6F7072737577787A7B7D7E80825D
:10054000838587888A8C8E8F91939596989A9C9EA6
:10055000A0A2A3A5A7A9ABADAFB1B3B5B7BABCBEB6
:10056000C0C2C4C6C9CBCDCFD1D4D6D8DBDDDFE283
:10057000E4E7E9EBEEF0F3F5F8FAFDFF12034500CE
:1005800037002D00560031002000530045000000C8
:1005900026034500780063006C0075007300690055
:1005A0007600650020002F00200045002D0054003B
:1005B000650061006D0000000403090409023B00AE
:1005C000020100A0FA090400000103010100092151
:1005D00011010001224400070581030800010904FC
:1005E00001000103000000092111010001226D003A
:1005F000070582032000011201000200000008ED3F
:10060000FE517001000102000105010980A1018570
:100610000319012AB700150126B70095017510814D
:1006200000C0050C0901A101850419012AA00215C9
:100630000126A002950175108100C005010906A1DF
:10064000018506050719E029E715002501950875BC
:100650000181020507190029EF1500250195F075A4
:100660000181020508190129059505750191029579
:100670000175039101C005010906A101050719E0F3
:1006800029E7150025019508750181029501750876
:1006900081010507190029FF150026FF0095067541
:1006A0000881000508190129051500250195057522
:1006B000019102950175039101C011241FBECFEF76
:1006C000DAE0DEBFCDBF04B603FE18C08091A703F9
:1006D0009091A803A091A903B091AA038730904BF1
:1006E000A740B04B59F41092A7031092A8031092A0
:1006F000A9031092AA03E0E0F8E3099511E0A0E055
:10070000B1E0EEEAF6E502C005900D92A03EB10719
:10071000D9F723E0A0EEB1E001C01D92A73AB207DD
:10072000E1F70E9446130C94552B0C940000823084
:10073000C8F46630B8F44031A8F4E62FF0E096E053
:10074000899FE00DF11D112484E0EE0FFF1F8A95B3
:10075000E1F7E40FF11DEE0FFF1FEE59FE4F8591FB
:100760009491089581E090E008950E949703089580
:1007700081E0089581E008950E94BA0308950E94DF
:10078000BC0308950E94BA03089508950E94C5030A
:100790000895A6E0B0E0EFECF3E00C94002A498362
:1007A0005A839E833091E70189819A81311115C066
:1007B0003E81332359F0222349F00E94BE09182FAD
:1007C000682F89819A810E949A0903C00E94AC090E
:1007D000182F69817A81812F04C00E94BE09698126
:1007E0007A810E94F9102696E3E00C941C2AFC0101
:1007F000262F4081518162817381848195810E947D
:10080000C9030895CF93DF93EC0161E00E94F703E1
:10081000BE010E94BF03DF91CF910895CF93DF9374
:10082000EC0160E00E94F703BE010E94C603DF9165
:10083000CF91089581E008950E941A040895CF93FE
:10084000C82F0E9471088C2F0E941C042FEF84E394
:100850009CE0215080409040E1F700C00000CF9123
:10086000089581E00E941F040E949322089580E071
:100870000E941F040E94B72208950F931F93CF93E5
:10088000DF938C0161E00E94F703EC01F8018581A0
:1008900081110E94E11AB801CE010E94C20388238F
:1008A00069F1B801CE010E94961C882339F1B80184
:1008B000CE010E94EE1F882309F1B801CE010E94EB
:1008C0009B1E8823D9F0B801CE010E94711E882397
:1008D000A9F0B801CE010E94011B882379F0F8012C
:1008E0008581882349F1C330FCE7DF07D9F060F444
:1008F000C115ECE7DE0721F40E94310480E01FC03F
:10090000C130DC4789F018C0CB358CE7D80791F0AF
:10091000CC35ECE7DE0759F0CA35DC4769F40E94B4
:10092000220E0AC00E942A0E0E943704E7CF0E94BE
:10093000180E02C00E94260EC8010E94B803DF9163
:10094000CF911F910F9108950E94BC2180E00E94D9
:10095000751C0E94CD040E94431908950E94B41B87
:100960000E94D1040E94371A0E94C521089581E097
:1009700008950895CF93DF93D82F0E94B704C82F0E
:10098000882319F08D2F0E94B9048C2FDF91CF910D
:10099000089508950E94BA04089580E00E94CA0450
:1009A00008950E9436200E94CA040895CF930E94A1
:1009B0003620C82F8091E201C81779F0C093E20178
:1009C0000E9452226093E3017093E4018093E50159
:1009D0009093E6018C2F0E94CA04CF910895ADE058
:1009E000B0E0E5EFF4E00C94012A488759876A8764
:1009F0007B878C879D8791110E94240DCE010196E3
:100A000027E0FC0111922A95E9F726E0FE013896CD
:100A1000DC0101900D922A95E1F72D8121110AC088
:100A200029813A814B815C816D817E818F810E9419
:100A30006E0C04C00E9402048111F2CF2D96E2E0F8
:100A40000C941D2AFC012481213021F480819181A4
:100A50000E94F0090895CF93882309F47FC0C82F1E
:100A60008238A1F40E94432081FD78C089E30E946E
:100A700050210E94AB0D2FEF87EE93E02150804074
:100A80009040E1F700C0000089E315C08338C1F44D
:100A90000E94432080FD62C083E50E9450210E9495
:100AA000AB0D2FEF81EE94E0215080409040E1F7B4
:100AB00000C0000083E50E9467210E94AB0D4EC07C
:100AC0008438A1F40E94432082FD48C087E40E943C
:100AD00050210E94AB0D2FEF81EE94E02150804019
:100AE0009040E1F700C0000087E4E5CF8CEF8C0F69
:100AF000813A70F48C2F0E94C720882329F08C2F14
:100B00000E9467210E94AB0D8C2F0E945021D5CFEF
:100B100080E28C0F883048F4C77081E001C0880FF4
:100B2000CA95EAF70E94070DC8CFEBE5EC0FE3305A
:100B300040F4F0E0E25AFE4F808190E00E945F2096
:100B40000DC0C85ACB3150F4EC2FF0E0EE0FFF1F70
:100B5000E85DFE4F808191810E948420CF910895AD
:100B6000882309F44DC0823859F40E94432081FF44
:100B700047C089E30E9450210E94AB0D89E30CC05D
:100B8000833879F40E94432080FF3AC083E50E94B5
:100B900050210E94AB0D83E50E9467210E94AB0D9E
:100BA0000895843859F40E94432082FF29C087E4C5
:100BB0000E9450210E94AB0D87E4EECF9CEF980F6E
:100BC000913A50F390E2980F983050F4877091E08A
:100BD00001C0990F8A95EAF7892F0E940D0DDECF8B
:100BE0009BE5980F933028F480E090E00E945F200E
:100BF0000895885A8B3120F480E090E00E94842090
:100C000008951F93CF93DF93182FEB010E942B05BC
:100C1000209741F08FE99FE00197F1F700C00000B5
:100C20002197F6CF812F0E94B005DF91CF911F91C0
:100C30000895893319F060E070E002C060E570E06B
:100C40000E9401060895882321F00E94070D0E944A
:100C5000AB0D0895882321F00E940D0D0E94AB0D6D
:100C60000895A0E0B0E0E7E3F6E00C94FB297C01F6
:100C7000162FC72FFC01D581068102950F700E94A7
:100C8000FD0C8823F9F0DD23E9F08C2F807F803480
:100C900061F080E2810F8830A8F08C2F807E803256
:100CA00021F4123078F0002369F08091440382FF30
:100CB00009C082E00E94EC0D0E94FD0C91E0D82E4C
:100CC000D92601C0D12CCC2EC2948FE0C8228C2D05
:100CD00090E08C30910508F097C1FC01EA5AFF4F73
:100CE0000C94BA298C2F807FCF70882311F0C29585
:100CF000C07FDD2399F0CC2309F472C180E2810F1B
:100D0000883010F0111104C08C2F0E94070D03C011
:100D10008C2F0E94170D0E94AB0D62C1812F0E9483
:100D2000B005CC2309F470C180E2810F883038F11E
:100D3000112329F18C2F0E941D0D24C08C2F807F40
:100D4000CF70803211F0C295C07F112319F011309D
:100D500099F13CC08091440382FD17C0DD2349F026
:100D6000CC2329F08C2F0E94070D0E94AB0D80E050
:100D700038C180E00E94B005CC2309F445C18C2F16
:100D80000E940D0D0E94AB0D3FC1DD2349F00023F1
:100D900009F1013009F038C18C2F0E942E0D34C1A9
:100DA000011132C18C2F0E942A068C2F0E943A0D0D
:100DB0008C2F0E94BF0D28C1DD2321F0063008F0E2
:100DC00023C108C0053008F01FC115C0DD2331F074
:100DD000011106C18C2F0E94230616C1002359F071
:100DE000193309F00EC1FFEF27EE83E0F1502040E8
:100DF0008040E1F704C18C2F0E942A0605C18C2F88
:100E000086958695837019F0813061F0FDC0DD23F1
:100E100021F0812F9C2F937002C080E090E00E940F
:100E20005F20FAC0DD2321F0812F9C2F937002C038
:100E300080E090E00E948420EFC08C2F8370B1F599
:100E4000D111E6C0412F429546954770440F440F9B
:100E5000812F8F7090E09C01042E02C0220F331F5F
:100E60000A94E2F714FF0AC08FE090E002C0880FF6
:100E7000991F4A95E2F78095909502C080E090E036
:100E8000C695C695C370822B932BC23049F058F497
:100E9000C13019F00E94CD08BBC00E94C408B8C080
:100EA0000E94D608B5C00E94C108B2C0DD2319F067
:100EB0008C2F817001C08695882309F4A9C0412F29
:100EC000429546954770440F440F812F8F7090E0F4
:100ED0009C01042E02C0220F331F0A94E2F714FF74
:100EE0000AC08FE090E002C0880F991F4A95E2F790
:100EF0008095909502C080E090E0C695C695C3703D
:100F0000822B932BC23049F058F4C13019F00E9463
:100F100035097EC00E942C097BC00E943E0978C022
:100F20000E94E20875C0CF70DD2339F08C2F0E943B
:100F3000FA08812F0E9423066BC0812F0E942A0687
:100F40008C2F0E940A0964C0123F21F128F4103F3F
:100F500041F0113FC1F040C0133F19F1143F79F047
:100F60003BC0DD2341F0053008F04EC08C2F8F715F
:100F70000E941C0949C0063008F046C0F7CF809196
:100F8000440382FD18C0DD2339F08C2F8F710E943D
:100F9000FA083AC0DD23C9F38C2F8F710E940A0929
:100FA00033C0DD2329F08C2F8F710E94EE082CC0F6
:100FB0000E94E90829C0DD2331F063E08C2F8F7196
:100FC0000E94CE0D21C081E00E94EC0D0230E0F0C5
:100FD00082E00E94EC0D18C0DD2331F00023A9F25D
:100FE000812F0E942B0510C00023B1F2193349F460
:100FF0009FEFE7EEF3E09150E040F040E1F700C0F2
:101000000000812F0E94B00588EF8C0D843020F401
:101010000E9436200E94CA04DD2089F00E94F90C4B
:1010200080FD0DC0F70115820E94F30C0E94FA08A2
:10103000C7010E943C080E94F30C0E940A09CDB728
:10104000DEB7E8E00C94172A0F931F93CF93DF933A
:10105000EC01688179818D810E94FB098C010E94DD
:1010600047090E94B208B801CE010E943106DF9103
:10107000CF911F910F910895CF93DF93FC012481AD
:101080002223D1F0EC010E943D0481110FC00E9487
:10109000FD0C882389F08D81882371F080914403B1
:1010A00082FF0AC082E00E94EC0D06C0CE010E94C1
:1010B0002408CE010E940E04DF91CF91089580E0B4
:1010C00090E00E945F2080E090E00E9484200E94D7
:1010D000240D0E94AB0D08950E947E210E945F089E
:1010E00008950E94140D0E946C08089592959F70B7
:1010F000963079F010F4925001C09A50923068F412
:10110000803F69F018F4883E40F409C0843F29F418
:1011100006C0883E20F0813F11F080E0089581E014
:101120000895FC012481222339F0808191810E945D
:10113000F0090E947608089580E00895A6E0B0E0E6
:10114000E4EAF8E00C94012A2696E2E00C941D2AC9
:10115000A7E0B0E0EEEAF8E00C94012A2796E2E07E
:101160000C941D2A089508950E94B30808950E94C2
:10117000B40808950E94B70890931B0280931A0246
:1011800008950E94BA08089520911A0230911B0216
:10119000822B932B0E94BA08089520911A02309155
:1011A0001B02822393230E94BA08089520911A02F9
:1011B00030911B02822793270E94BA0808950E944B
:1011C000B30808950E94DF089093190280931802D3
:1011D000089580E090E00E94E208089521E030E068
:1011E000A90102C0440F551F8A95E2F7CA010E9467
:1011F000E208089521E030E002C0220F331F8A95F3
:10120000E2F78091180290911902822B932B0E9491
:10121000E208089521E030E002C0220F331F8A95D2
:10122000E2F720953095809118029091190282235F
:1012300093230E94E208089521E030E002C0220FCB
:10124000331F8A95E2F78091180290911902822744
:1012500093270E94E2080895209118023091190204
:10126000822B932B0E94E20808952091180230915E
:101270001902822393230E94E20808952091180204
:1012800030911902822793270E94E2080895089559
:10129000962F9770A1E001C0AA0F9A95EAF793E004
:1012A000769567959A95E1F7660F771F660F771F1A
:1012B000FA01E60FF71F40E050E0682F70E09081E0
:1012C0009B01042E02C0369527950A94E2F72170FF
:1012D000219529272A23292721934F5F5F4F4430E7
:1012E000510569F70895FB01782F777023E09695F3
:1012F00087952A95E1F7880F991F880F991FE80FA6
:10130000F91F40E050E080E0219130E0072E02C05C
:10131000369527950A94E2F721703327042E01C0F1
:10132000220F0A94EAF7822B4F5F5F4F443051053A
:1013300059F70895282F963070F4803160F4862F85
:10134000622F70E020E1929F600D711D112448EE24
:1013500051E00E9448090895963070F4803160F49D
:10136000292F90E068EE71E030E1239F800D911D00
:1013700011240E947309089580E00895A0E0B0E070
:10138000E4ECF9E00C94FA297C0100911802109128
:10139000190280911A0290911B02082B192BCFE0A1
:1013A000D0E0CC24C394D12CC6010C2E02C0880FEF
:1013B000991F0A94E2F780239123892B21F4219726
:1013C00098F7B12C07C0BC2EB7018C2F0E940511D5
:1013D0000197A9F38B2DCDB7DEB7E9E00C94162A5F
:1013E000CF93DF93EC010E94BE09BE010E9405115C
:1013F000DF91CF9108951F93CF93DF93EB019091ED
:10140000E701992321F0CB010E94F00913C0882342
:1014100049F0CB010E94BE09182F682FCE010E940F
:101420009A0904C0CB010E94AC09182FBE01812F7C
:101430000E940511DF91CF911F9108951F93CF93C3
:10144000DF93C0911C0217E080911D02C817A1F024
:10145000D0E01C9FF0011D9FF00D1124E25EFD4FB6
:1014600020813181428153816481758186810E940E
:10147000A8082196C770E8CFDF91CF911F910895FA
:1014800020915602309157024091580250915902D2
:1014900060915A0270915B0280915C020E94A808E0
:1014A0000895CF93DF9380915C0282958F7009F04D
:1014B0004EC080915B02882309F449C080911C02D0
:1014C00040911D025091570260915602C0915802FE
:1014D000D091590277E08417D1F190E0789FF00124
:1014E000799FF00D1124DF01A25EBD4F14962C915F
:1014F0001497222349F111962C911197251324C09A
:101500002C91261321C015962C91159721111CC0E2
:1015100012962D913C9113972C1B3D0B283C3105C5
:1015200098F480915C028F70806180935C02EC5D26
:10153000FD4F80818F708061808386E592E00E94FC
:101540003C080E941E0A03C001968770C4CFDF9139
:10155000CF91089520911C0290911D0257E0291708
:10156000A9F030E0529FF001539FF00D1124E25E8C
:10157000FD4F7181761306C07081781303C07581A9
:10158000741306C02F5F3F4F2770E9CF80E00895A6
:1015900081E00895A4E1B0E0E0EDFAE00C94F729D1
:1015A0008C0186E0F801DE011F9601900D928A956C
:1015B000E1F7F8018481E58096E5A92E92E0B92E45
:1015C00090915A02911118C0882309F480C1EE202D
:1015D000D9F1C8010E949108F82E8823A9F187E06B
:1015E000F801D50101900D928A95E1F7C5010E949D
:1015F00022050E94510A98C0F801C080D1808280E3
:101600009380F0905B022091580230915902A4011E
:10161000421B530BFF2009F406C1483C510508F05A
:10162000AFC0882309F455C180915C02282F207F28
:1016300090915702222361F09D1509F462C0C80100
:101640000E949108811173C0C8010E943C083FC1EB
:101650009D1115C0909156029C1111C0E1100FC050
:101660008F70806180935C020E94400A86E592E060
:101670000E943C0880915C02F801868326C1E1103B
:101680003AC040E06D2D8C2D0E94AA0A40E06D2DDD
:101690008C2D0E94AA0AE82E811117C1CF86D88A04
:1016A0008F8598890E94F009292F22952F70243068
:1016B00020F49F70223028F009C02A50223080F098
:1016C00014C0992349F0811107C013C0992321F058
:1016D000F8019681907F69F0805E883030F409C00F
:1016E000803F38F0815F833020F0C8010E943C08C1
:1016F000EF2CFE2CEEC080915C02816080935C0236
:10170000E4C0909156029C119ACFE11098CFF80155
:101710008683C8010E943C0887E0F801A6E5B2E094
:1017200001900D928A95E1F70E94400AD2C0EE2006
:1017300009F48ACF20915C02822F82958F7090E00D
:1017400002978CF080915602909157029987888772
:101750009B868A8680915A028C871D862E87CE01B1
:1017600008960E943C0887E0F801A6E5B2E00190E7
:101770000D928A95E1F70E94510A0E94400AA7C083
:1017800090915C02292F207FA1F4682D9A8A898A82
:10179000A6017A899E2D0E949E0886E592E00E940D
:1017A0003C0887E0F50111928A95E9F70E94400A0A
:1017B0008CC0882309F48DC0809157028D1111C00F
:1017C000809156028C110DC0E1100BC0F801968378
:1017D000C8010E943C0887E0F50111928A95E9F75B
:1017E00078C0C8010E949108882309F42DCFEE200B
:1017F00009F42ACF20915C02822F82958F7090E0AD
:1018000002970CF4B0CF80915602909157029A83C0
:1018100089839C828B8280915A028D831E822F83C2
:10182000CE0101969ECF483C510508F040C0882368
:1018300009F44DC0FE2CEE2009F406CF809157022A
:101840008D1127C0809156028C1123C090915C02AB
:1018500090FD16C0892F82958F70282F30E02115BA
:10186000310571F0F80196832F30310509F451CF1D
:101870008F5F982F9295907F86818F70892B48CFAC
:1018800087E0F801A6E5B2E001900D928A95E1F7B4
:1018900020C0C8010E949108811165CF80915C022F
:1018A000816080935C02C8010E943C0812C0682DD0
:1018B0009A8A898AA6017A899E2D0E949E0887E0CD
:1018C000F50111928A95E9F72FCFF12C02C0FF2480
:1018D000F3948F2D6496ECE00C94132AAEE0B0E004
:1018E000E4E7FCE00C94002A288739874A875B8765
:1018F0006C877D878E87CE0108960E94CA0A88234E
:1019000061F06C856623A9F1288539854A855B8558
:101910007D858E850E94A8082CC087E0FE01389640
:10192000DE01119601900D928A95E1F76C85662390
:1019300001F120911D0230E0C901019687709927BD
:1019400040911C0250E084179507E1F16D8397E008
:10195000929FD001939FB00D1124A25EBD4FFE0156
:10196000319601900D929A95E1F780931D020E94A5
:101970001E0A17E080911C0290911D02891779F1CF
:10198000189FC0011124825E9D4F0E94CA0A8823BD
:1019900031F1E0911C021E9FF0011124E25EFD4F27
:1019A00020813181428153816481758186810E94C9
:1019B000A80880911C0290E0019687709927809377
:1019C0001C02D8CF0E94710810921D0210921C02B6
:1019D000E6E5F2E087E0DF011D928A95E9F72E96B1
:1019E000E3E00C941C2A8091850286958695869565
:1019F000089580918502877008959091850297706F
:101A000081E009F480E008958091B10208959091F9
:101A1000B102892B8093B102089580959091B10213
:101A200089238093B10208951092B1020895909194
:101A3000B002892B8093B002089580959091B002F6
:101A400089238093B00208951092B00208950895FA
:101A50000E94270D08950E94280D089590918702F5
:101A6000292F2823821729F0982B909387020E9410
:101A70002B0D089590918702292F282331F080950E
:101A80008923809387020E942B0D089580918702FD
:101A9000882329F01092870280E00E942B0D089580
:101AA000CF93C091B1028091B002C82B8091870280
:101AB000882331F0C82B0E94A92081110E94460D75
:101AC0008C2FCF910895CF93DF93C0910601D091D1
:101AD00007010E94500D8883C0910601D091070133
:101AE00048E050E06DE772E0CE010E94C82A892BE1
:101AF00059F088E0FE01ADE7B2E001900D928A95C1
:101B0000E1F7CE010E944620DF91CF910895CF9357
:101B1000DF93C0910401D09105010E94500D89838B
:101B2000C0910401D091050140E250E06DE572E002
:101B3000CE010E94C82A892B59F080E2FE01ADE552
:101B4000B2E001900D928A95E1F7CE010E945120FA
:101B5000DF91CF91089580912701882339F08091FA
:101B6000430387FF03C00E94870D08950E94630D01
:101B700008950E94270D08950E94B90D089590912F
:101B80008602292F282331F08095892380938602AD
:101B90000E94BC0D08950E94270D08959091440362
:101BA00092FF11C098E0899F90011124262B209369
:101BB00085020E94FA088091850286958695869511
:101BC0000E94CB0D08950E94FA0808951092850294
:101BD00080E00E94CB0D0895909185028095892325
:101BE00080938502282F277069F4981759F09091F7
:101BF000440392FF07C08695869586950E940A0940
:101C00000E94E60D08959091440392FB222720F94B
:101C1000281769F080FB92F9909344038091430365
:101C2000909144030E944B0E82E00E94EC0D0895B7
:101C30008091440382FB882780F991E089270E94E4
:101C4000030E089581E00E94030E089580E00E9433
:101C5000030E08956FEF7FEF80E090E00E94202B4D
:101C6000089580E090E00E94EC2A21E0853E9E4F9E
:101C700009F020E0822F089582E090E00E94DE2AA1
:101C8000089583E090E00E94DE2A089584E090E0C9
:101C90000E94EC2A0895BC0184E090E00E94202B71
:101CA0000895AB01BC018FE090E00E94142B0895D1
:101CB000AB01BC0183E190E00E94142B089560E029
:101CC00070E0CB010E94580E089560E070E0CB01F7
:101CD0000E94510E0E945F0E0895A8E0B0E0E3E775
:101CE000FEE00C94012A65EE7EEF80E090E00E9419
:101CF000202B60E082E090E00E94022B81E090E0E7
:101D000090931B0280931A0261E083E090E00E94AE
:101D1000022B60E074E184E090E00E94202B60E000
:101D200086E090E00E94022B60E087E090E00E9455
:101D3000022B40E050E0BA0188E090E00E94142BB2
:101D400060E083E290E00E94022B60E08CE090E093
:101D50000E94022B60E08DE090E00E94022B19822D
:101D60001A821B821C821D821E821F82188648E0F6
:101D700050E067E170E0CE0101960E94F22A40E057
:101D800050E0BA018FE190E00E94142B0E94650E92
:101D90002896E2E00C941D2A0E946D0E0895682F8B
:101DA0008EE090E00E94022B0895A6E0B0E0EBEDFB
:101DB000FEE00C94FF290E9446228C018091B20221
:101DC0009091B3020817190781F019821A820E94B4
:101DD0004622682F49815A81792F80E090E00E9445
:101DE000EF041093B3020093B2022696E4E00C9441
:101DF0001B2A0E9452226093C4027093C5028093F2
:101E0000C6029093C7026093C0027093C102809390
:101E1000C2029093C302089581E0089581E008957D
:101E20000E940E0F089508950E94130F08950E94B6
:101E3000130F08950E94170F08950E94130F08951D
:101E40000E941D0F08950E94130F089585EF91E1E0
:101E50000E945B130E94230F0E94200F08950E948E
:101E6000140F0E94130F08950E94310E811102C0B9
:101E70000E94CC0E0E943C0E8093C8020E94460E27
:101E800090934403809343030E946E1E0E94410E70
:101E900090E00E94C10880911802909119020E945E
:101EA000DF0808950E943D220E94B5120E94340F5F
:101EB0000E94C9040E940E1E0E94B41B0E94EC19CD
:101EC0000E941A0F0895A6E0B0E0E9E6FFE00C9446
:101ED000F5290E940C0F811103C00E94D50E62C02B
:101EE0000E94CB1224EBE22E22E0F22E5701D12CDD
:101EF000F501019111915F018D2D0E94F71180274D
:101F00009127D394F6E0DF1619F0892B89F302C0EC
:101F1000892B19F38091C80281FD0E9400120E9452
:101F2000100F782E10E066246394812F0E94F71121
:101F30004C01F701A080B180A826B926A114B104F4
:101F400049F100E0CC24C394D12CC5018C219D2102
:101F5000892BC1F07720B1F009831A830E944622B1
:101F60009C838B836D8221E0C4018C219D21892B70
:101F700009F420E049815A816B817C818D81922F07
:101F80000E94EF040F5FCC0CDD1C0031F1F6F7016D
:101F9000918280821F5FF2E0EF0EF11C163029F66D
:101FA0000E94F90E0E94E21A0E94651D0E94D6044A
:101FB0002696EEE00C94112A1F93CF93DF930E9494
:101FC0000A11EC01C11580E5D807E8F5C11590E4C8
:101FD000D90708F0A8C0C03ED10530F5CD3CD105E9
:101FE00008F094C0C83AD10578F4C53AD10508F094
:101FF00083C0C130D10509F47CC008F4F2C0C430FC
:10200000D10508F0F1C0EDC0C33CD10508F0E9C02E
:10201000C85AD0E0CC0FDD1FCF59DE4F0990D881D0
:10202000C02DCE019464E1C0C11580E2D80708F04C
:10203000CBC0C11591E0D90708F06BC0C83ED105EF
:1020400008F4D2C0CEC0C03682E5D80728F5C03427
:1020500092E5D90708F079C0C03282E5D80708F0C8
:102060006CC0C11592E5D90708F481C04C2F469584
:10207000469580E2489FA0011124C37021E030E022
:10208000C90102C0880F991FCA95E2F7EA01C82B5F
:10209000D92BCE019D68A9C0C03A82E5D807B8F413
:1020A0008C2F8F71C03892E5D90708F07BC08695D8
:1020B000869590E2899F90011124C37081E090E0A1
:1020C00002C0880F991FCA95E2F79A6868C0C03CA1
:1020D00082E5D80708F46DC0C03E92E5D90708F044
:1020E00080C0CF71DD27DC2FCC27CE01806F906AB6
:1020F0007CC081E090E079C0C55AD0E0C956DE4F7F
:102100008881C82FD0E0CE0190646FC0CE01906569
:102110006CC08D2F0E94A611182FCE0199270E9406
:102120000A111F715CC0CE0199270E940A11CC27A9
:10213000DF70D06A8C2B9D2B58C0CF71D0E0DC2F84
:10214000CC27CE01816F906A50C08C2F8F718695FD
:10215000869590E2899F90011124C37081E090E000
:1021600002C0880F991FCA95E2F79C6818C08C2F8F
:102170008F710E94A61195E0D695C7959A95E1F7C3
:10218000CF70D0E0DC2FCC27282F30E084FF05C0B3
:1021900084E0220F331F8A95E1F7D069CE01822BAC
:1021A000932B23C090E0D82FCC27CE01846F906A68
:1021B0001CC08C2F8F710E94A6118F7190E0D82FB8
:1021C000CC27CE01906211C08D2F8F710E94A61175
:1021D000182FCE0199270E940A111F719062912B2E
:1021E00004C080E090E001C0CE01DF91CF911F914B
:1021F0000895763038F4603128F4462F672F0E9416
:10220000B503089580E090E008950E94F9100E94BF
:10221000DC0F08958238910569F1B0F4813391059E
:1022200009F475C048F48932910509F467C08A320F
:10223000910509F471C008958533910509F459C0D9
:1022400089339105B9F00895833E910589F138F4F9
:10225000803E9105D1F0823E910529F10895863E98
:102260009105C9F1873E9105D9F1843E910509F0A8
:102270006CC027C02091430320FD57C021FD55C0ED
:102280002091440323FD5BC008958091430380FDAA
:1022900048C08091440380FF48C08091430384FD7F
:1022A00046C083EE51C08091430382FF3CC0F5CF0E
:1022B0008091430382FD37C08091440380FD35C087
:1022C000ECCF8091440381FF36C08091430384FDAD
:1022D0002EC087EE39C08091430383FF2AC0F5CF1B
:1022E0008091430383FD25C08091440381FD23C079
:1022F000ECCF8091430385FD22C01FC08091430332
:1023000085FD1BC08091440383FF19C00AC08091E2
:10231000430386FD16C017C08091430386FD13C09A
:1023200010C089E311C082EE0FC080EE0DC080E0C6
:102330000BC086EE09C084EE07C085E305C089E2C4
:1023400003C08AE201C081E390E0089590914303C5
:1023500092FF10C041E0282F2471243009F040E0A2
:1023600031E0282F2871283009F030E0431711F0B0
:102370002CE0822793FF10C041E0282F24712431E4
:1023800009F040E031E0282F2871283109F030E0D1
:10239000431711F02CE082273091440330FF10C026
:1023A00051E0282F2171213009F050E041E0282F21
:1023B0002871283009F040E0541711F029E08227F5
:1023C00031FF10C041E0282F2171213109F040E098
:1023D00031E0282F2871283109F030E0431711F03F
:1023E00029E0822794FD877E089580E00895E82FF4
:1023F000F0E0EE0FFF1FEF5AFC4F808191810895AE
:10240000089580EA8A95F1F7089500C008950E9422
:102410000112089508950E940A1208950E940B1255
:1024200008950E940A1208950E9411120895F894C6
:10243000E82FE295EF70F0E031A1282F2F7081E0B6
:1024400090E001C0880F2A95EAF7982F9095932382
:1024500091A392A1892B82A3789408950F931F933F
:10246000CF93DF93CAEAD1E089918F3F11F00E94A8
:10247000171281E0C03BD807B9F7CAE9D1E00AEAF0
:1024800011E089918F3F11F00E9417120C171D0760
:10249000C1F7DF91CF911F910F910895A0E0B0E0B7
:1024A000E4E5F2E10C94FA298C01C62FD0E0CE01CC
:1024B00086559E4F6C01FC0190819F3F09F450C0EE
:1024C000B62EF894E92FE295EF70F0E081A19F70AD
:1024D00021E030E001C0220F9A95EAF7822B81A318
:1024E00082A12095282322A378940E940512EAE96C
:1024F000F1E04AEA51E021E030E0E12CF12C619179
:102500006F3F89F0A62FA295AF70B0E090968C91A6
:1025100090E06F7002C0959587956A95E2F780FD0F
:1025200002C0C90102C080E090E0E82AF92A220F27
:10253000331F4E175F0719F7F60180818F3F11F0A7
:102540000E94171261E0E114F10409F460E08B2DA0
:102550000E940712CC0FDD1FC00FD11FF982E88245
:10256000CDB7DEB7E9E00C94162A0E942E128CE05B
:10257000E1E5F3E0DF01982F1D929A95E9F7E5E494
:10258000F3E0DF011D928A95E9F786E00E940613C9
:102590000E9414120895ACE0B0E0E1EDF2E10C9479
:1025A000FE298E010F5F1F4F8CE0F80111928A9572
:1025B000E9F7F12C6F2DC8010E944E12F394F6E05A
:1025C000FF12F8CF4CE050E0B80185E493E00E94A0
:1025D000C82A21E0009709F420E0892B41F08CE023
:1025E000F801A5E4B3E001900D928A95E1F746E089
:1025F00061E573E085E493E00E940713182F0E94C1
:102600000E12812F2C96E5E00C941A2A0895EF9271
:10261000FF920F931F93CF93DF937C018B01C42F05
:10262000222351F081E08093CB020E9446229093B6
:10263000CA028093C90204C08091CB02811102C0FA
:1026400080E01CC08091C9029091CA020E945E2263
:102650000597B0F3D0E0CC0FDD1FAE01B701C80184
:102660000E94C82A892B39F0AE01B701C8010E9427
:10267000D52A81E001C080E01092CB02CDB7DEB751
:10268000E6E00C94192A0E94630F08950E94DD2150
:102690000E9408240E94260F0E9422240E94520FAA
:1026A0000E942F240E9434240E9443130E944E242F
:1026B0000E942F0FF7CF9093E1018093E0010895DE
:1026C000EF92FF920F931F93CF93DF938B01682FAD
:1026D00011110AC0442329F0E82FF0E0E458FB4F21
:1026E0006491762F862F75C0212F30E0E82FF0E01F
:1026F000442321F0E458FB4FE491F0E046E0049FCE
:10270000C0011124CFEFD0E0BE010E9470294BEA36
:102710004603C001479F900D1124800F911D800F2B
:10272000911D982F990F890FAE01421B530B4E9F9D
:10273000D0014F9FB00D5E9FB00D11249B2F189FAD
:10274000A0011124452F55278E01041B150B0E9F48
:10275000A0010F9F500D1E9F500D11247E01E81AFD
:10276000F108E29E8001E39E100DF29E100D1124EF
:10277000212F3327C21BD30BCE9F9001CF9F300D4B
:10278000DE9F300D112462307105A9F048F4611507
:10279000710569F061307105C9F48B2F752F0DC07B
:1027A0006430710581F058F06630710579F47E2F40
:1027B0008B2F932F0DC0832F7B2F9E2F09C08E2F21
:1027C0007B2F952F05C08E2F732F02C07E2F852F54
:1027D000692FCDB7DEB7E6E00C94192A41E00E94DC
:1027E0006013089508950E94EE130895CF93DF9328
:1027F000762FE901682F842F0E94F3137983688371
:102800008A83DF91CF91089580915D03282F2695CB
:10281000269530E02115310519F48370846005C0D8
:102820002B32310524F08370886A80935D0308950C
:10283000A0E0B0E0EEE1F4E10C94FB2988E090E048
:102840000E94E62A6B017C0183E290E00E94DE2A6E
:10285000282F30E040E050E060E070E080E090E061
:1028600000E20E94282AB22FA32FF42FE52FD62FA3
:10287000C72F97018601BC29A12BF22B5E2F532B6A
:102880002B2F3A2F4F2F6D2F7C2FCDB7DEB7E8E0DF
:102890000C94172AA0E0B0E0E0E5F4E10C94F729ED
:1028A00049015A016B017C010E9404148401A401B6
:1028B0006A2D7B2D88E090E00E94142B94014A2D14
:1028C0005B2DB601C70100E20E94432A622F83E21A
:1028D00090E00E94022BCDB7DEB7ECE00C94132AF7
:1028E000EDE5F3E025E0208311828FEF828383837F
:1028F0001482758130E04FEF5FEF60E08681978151
:102900000E944A14089580915D0380FF03C086955C
:102910008695089580E0089590916103933018F4AE
:102920009F5F90936103882391F020915D03309124
:102930005E0340915F035091600360916103709169
:10294000620380916303909164030E944A14089586
:1029500081E00E948C14089590916103992319F0ED
:10296000915090936103882391F020915D03309101
:102970005E0340915F035091600360916103709129
:10298000620380916303909164030E944A14089546
:1029900081E00E94AC14089560910C0180915D0368
:1029A00080FF0FC080910B0170E023E0829FC00187
:1029B0001124E091DD01F091DE018B599C4F0995C6
:1029C000089580910D0190910E01891758F7E82F15
:1029D000F0E09F01220F331FE20FF31FEB59FC4F72
:1029E0001182108212828F5FF0CF90915D0390FF71
:1029F00016C090910D0120910E01921770F4E92FED
:102A0000F0E0DF01AA0FBB1FEA0FFB1FEB59FC4FE1
:102A10008183608342839F5FF0CF0E94CC1408952E
:102A2000A3E0B0E0E6E1F5E10C94012A90915D03AA
:102A300090FF0AC09E012F5F3F4F0E94F6134B810B
:102A400069818A810E94F5142396E2E00C941D2A84
:102A5000CF93DF93EC01EC81F0E0E950FD4F44911E
:102A6000EDE5F3E0628181810E9410158C818F5F1A
:102A70008C83DF91CF910895CF93DF93EC01EDE547
:102A8000F3E0438162818C810E9410158C818F5FFD
:102A90008C83DF91CF910895A3E0B0E0E2E5F5E10A
:102AA0000C94FF298C018091CC0281110AC09E01F7
:102AB0002F5F3F4F4FEF6FEF0E94F6138A81809395
:102AC000CC02F8018481813051F028F0823061F429
:102AD0004091CC020AC08091CC0240E007C06091D6
:102AE000CC0240E080E003C040E080E060E00E9473
:102AF000F514F801848190E0019663E070E00E9493
:102B0000842984832396E4E00C941B2AA3E0B0E09C
:102B1000ECE8F5E10C94FA29082FE62EF42ED22EDB
:102B200090915D0390FF6CC0E92FE695E695AE2F7E
:102B3000B0E0A055BE4F8C91809328039C7F9430C9
:102B400061F49E012F5F3F4F802F0E94F6134B814F
:102B500069818A810E94F5143DC0823019F4F09099
:102B6000600338C0863019F400915E0333C08930A9
:102B7000D9F3893179F5E9518E2F8170C82EE69508
:102B8000F0E0E950FC4F1491B12C60910F01B616A2
:102B9000F8F4B19EC001112470E00E947029802FCA
:102BA000C11002C0860F01C0861B90910D012B2D14
:102BB00030E0290F311DA901440F551F240F351F87
:102BC0002B593C4F4F2D6E2D0E94F613B394DDCF41
:102BD0000E94CC1400935E03E0925F03F0926003C6
:102BE000DD2071F020915D036091610370916203BB
:102BF000302FA70180916303909164030E944A14CF
:102C00002396E9E00C94162AEDE5F3E09181282F54
:102C10004381628188E0890F0E948615089581E0D2
:102C20000E9404160895EDE5F3E09181282F438179
:102C3000628188EF890F0E948615089581E00E94C5
:102C400013160895EDE5F3E0628128E0620F08F4C1
:102C50006FEF282F438181810E948615089581E0BE
:102C60000E9422160895EDE5F3E0628128E0621BE0
:102C700008F460E0282F438181810E948615089521
:102C800081E00E9433160895EDE5F3E0438128E0EA
:102C9000420F08F44FEF282F628181810E94861530
:102CA000089581E00E9444160895EDE5F3E0438124
:102CB00028E0421B08F440E0282F628181810E94B5
:102CC0008615089581E00E945516089520E00E941F
:102CD00086150895FF920F931F93CF93DF93EC0116
:102CE000F12C0FEF10E060910F01F616F0F48091D7
:102CF0000D012F2D30E0280F311DC901880F991FBC
:102D0000280F391F2B593C4F70E0C8010E948429BD
:102D1000962F8C814091600360915F03F99E800D36
:102D200011240E94F613F394DECF0E94CC149A81F2
:102D30008C8190FF02C08F5F01C081508C83CDB722
:102D4000DEB7E5E00C941A2AA0E0B0E0EAEAF6E18A
:102D50000C94FA29FC01828180FF02C00FEF01C0B0
:102D600001E010E080910F01181708F040C0809139
:102D70000D01C12ED12CE601C80FD11DCE01880F47
:102D8000991FC80FD91FCB59DC4F198218821A829C
:102D900034E0E32EF12CB12C8091CE028B0D8131E9
:102DA00014F08F7005C087FF03C090910F01890F49
:102DB000082E000C990BC816D90691F48091600377
:102DC0008E9DA0018F9D500D1124559547955595C9
:102DD00047959E0160915F0380915E030E94F61308
:102DE000B00EF1E0EF1AF108B9F61F5FBBCF0E94F9
:102DF000CC148091CE02013031F4811102C0809157
:102E00000F01815007C090E0019660910F0170E0C2
:102E10000E9484298093CE02CDB7DEB7E9E00C94FE
:102E2000162ACF9380910D0190910E01891770F4AD
:102E3000E82FF0E09F01220F331FE20FF31FEB5941
:102E4000FC4F1182108212828F5FF0CFC0E0609140
:102E50000F01C617C0F5EC2FF0E070E0CF010E9423
:102E6000842920910D01820F2091CD02022E000CA9
:102E7000330B90E0E217F307CCF020910A01022E09
:102E8000000C330B2E173F078CF09C01220F331FD1
:102E9000820F931F9C012B593C4F4091600360911E
:102EA0005F0380915E030E94F6130BC0FC01EE0FDE
:102EB000FF1F8E0F9F1FFC01EB59FC4F11821082E8
:102EC0001282CF5FC4CF0E94CC142091090180915F
:102ED000CD02820F8093CD0290910A01920F9093C0
:102EE0000A0119165CF4082E000C990B40910F0191
:102EF00050E041505109841795071CF0219520930B
:102F00000901CF910895A0E0B0E0E9E8F7E10C9461
:102F1000F7298C01FC014481C42FD0E09E01DE0121
:102F20000E94C8299B01AC010E94DE296B017C0133
:102F3000E0E2F0E0EC1BFD0BA5E5B0E09B01AC018D
:102F40000E94DE294B015C019F01DF010E94C02924
:102F50009B01AC010E94E9299B01AC012C0D3D1D98
:102F60004E1D5F1DC501B4010E949829C22FD22FAA
:102F70002A3228F4F3E02F9F900111240DC025E59B
:102F800030E02C1B3109C901880F991F280F391F08
:102F900037FF02C02F5F3F4F35952795C22FC09551
:102FA000F12C85E5E82EED1A80910F01F816C8F492
:102FB000F1FC02C08E2D01C08D2F90910D012F2D9F
:102FC00030E0290F311DA901440F551F240F351F73
:102FD0002B593C4F4C2F60915F030E94F613F394E2
:102FE000E3CF0E94CC14F8018481811102C091E0EA
:102FF00003C0803219F49FEF90930801909108016B
:10300000890FF8018483CDB7DEB7ECE00C94132A66
:103010000F931F93CF93DF93EC0100E010E08091BA
:103020000F01282F30E00217130724F590910D01AE
:103030009801290F311DA901440F551F240F351F79
:103040002B593C4F869590E04C81081719071CF4CA
:10305000442331F002C0411103C04091600301C01C
:1030600040E060915F0380915E030E94F6130F5F62
:103070001F4FD5CF0E94CC148C8190E001968170B7
:1030800099278C83DF91CF911F910F9108952F92F3
:103090003F925F926F927F928F929F92AF92BF9278
:1030A000CF92DF92EF92FF920F931F93CF93DF9314
:1030B000FC016280548081E08483E7EFF2E0749049
:1030C000E6E7F3E0E491C0916003C695C158D0E013
:1030D000CC0FDD1F2D2E3324812C75E0972EAA24D2
:1030E000AA94B12CE719EE2EF12C80910F018816CD
:1030F00008F098C0C82CD12C22E0261568F09C9CC2
:10310000F0019D9CF00D1124E153FD4F80915E0371
:10311000808380915F03818351100AC09C9CF001E1
:103120009D9CF00D1124E153FD4F1382128260C06B
:103130009C9C80019D9C100D1124E801C153DD4F22
:103140008B818823F9F081508B832FEF829FC00100
:1031500011246C8170E00E947029FB01FF27E95067
:10316000FD4F8491E82FE7192FEFE29FC001112452
:10317000B7010E94702980916003689FB0011124FB
:103180007A8336C00E94AB2AB5010E948429821539
:10319000930574F582E0861588F40E94AB2AB50188
:1031A0000E94842988830E94AB2A20915F03269580
:1031B000622F70E00E948429280F29839C9CF001D3
:1031C0009D9CF00D1124E153FD4F1282809160030C
:1031D000843120F0893C18F088EC01C084E19C9C8B
:1031E000F0019D9CF00D1124E153FD4F84838383F6
:1031F00080910D019601280F311DC901880F991F7B
:10320000280F391F2B593C4F9C9CF0019D9CF00DC1
:103210001124E153FD4F4281618180810E94F613A8
:10322000839463CF0E94CC14DF91CF911F910F91B3
:10323000FF90EF90DF90CF90BF90AF909F908F90D6
:103240007F906F905F903F902F900895EDE5F3E0B1
:1032500020812E7F20833181428153816481758159
:10326000868197810E944A14109229030E94CC14EF
:103270000895EDE5F3E080818E7F8083109229032D
:103280000E94CC1408951092290380912603811185
:103290000AC081E08093260380915D038170809352
:1032A00025030E943919089560915D03669566951E
:1032B00070E04BE050E080E191E00E94BB2A892B56
:1032C00019F481E0809329030E9446229093200301
:1032D00080931F03089590915D0390FF3FC093700A
:1032E000811102C0946007C08B3210F0986A03C04D
:1032F000880F880F982B90935D03662391F020919F
:103300005D0330915E0340915F03509160036091D3
:1033100061037091620380916303909164030E9442
:103320004A1460915D036695669570E04BE050E04D
:1033300080E191E00E94BB2A892B19F010922903A9
:1033400002C00E94541981E08093220340916003DF
:1033500060915F0380915E030E9466160895682F56
:1033600090915D039695969581E0890F8B3208F0D8
:1033700081E00E946B19089581E00E94AF190895C1
:10338000682F90915D03969596958FEF890F09F4BC
:103390008AE20E946B19089581E00E94C019089585
:1033A00061E00E946B190895EDE5F3E08081816092
:1033B0008083869586950E94D019089580915D033B
:1033C00080FF03C00E94261908950E94D419089511
:1033D00060E00E946B1908958091270381113CC021
:1033E0000E94181420935D0330935E0340935F03A3
:1033F000509360036093610370936203809363034F
:10340000909364032C7FA1F40E9470140E941814FE
:1034100020935D0330935E0340935F0350936003FA
:1034200060936103709362038093630390936403DA
:103430000E94041410922903E091DB01F091DC0159
:10344000099580915D0380FF04C0869586950E9452
:10345000E81981E0809327030895EDE5F3E080818A
:1034600081608083869586950E94E8190895109260
:1034700026038091250381110E942D1A0E94541960
:1034800008950F931F93CF93DF938091290388238F
:1034900009F492C080912803E0915D03E695E695DA
:1034A000E81BE0932103823049F4F0E0ED50FD4F3A
:1034B000E491CE2FD0E008E215E159C0863049F4FE
:1034C000F0E0E051FD4FE491CE2FD0E00CE315E1A8
:1034D0004EC0893051F4E695F0E0E351FD4FE491A0
:1034E000CE2FD0E00AE616E142C08F3051F4E695C7
:1034F000F0E0E651FD4FE491CE2FD0E004EA16E172
:1035000036C0853149F4F0E0E951FD4FE491CE2F0A
:10351000D0E001E117E12BC08831D9F0833239F4D2
:10352000E5EEF2E0C591D4910CE415E120C08432BF
:10353000A9F08532C1F48E2F63E00E946429E92F3F
:10354000F0E0EE51FD4FE491CE2FD0E007E418E11A
:103550000EC0C8E2D0E003E817E109C0C4EFD1E033
:1035600008E018E104C0C0EDD7E002EF13E180915C
:103570002203882361F0109222030E944622909336
:10358000200380931F0310922403109223030E94B0
:103590004622E0911F03F09120038E1B9F0B8F3F6B
:1035A0009F4750F4EC0FFD1FF0932003E0931F039F
:1035B0008FE193E0F8010995DF91CF911F910F9171
:1035C000089508950E94411A0895882311F0FA0180
:1035D00001C0FB0109950895CF93DF93C82FD62F23
:1035E0000E9483148C1738F00E9483148D1718F4EE
:1035F0000E94BC1903C08C2F0E94D019DF91CF917B
:1036000008951F93CF93DF93FB011581111166C0BD
:10361000EC010E94040D8272FE01E052F847E53190
:10362000F10508F05AC0EE59FF4F0C94BA290E94D8
:10363000DE1954C04CEC59E16CEB79E104C04CEB61
:1036400059E16CEC79E10E94E51A48C04EE156E17F
:103650006FE076E1F8CF4FE056E16EE176E1F3CF2F
:1036600040E456E16FE276E1EECF4FE256E160E4EE
:1036700076E1E9CF42E656E161E576E1E4CF41E566
:1036800056E162E676E1DFCF48EC54E168EA74E1A6
:10369000DACF48EA54E168EC74E1D5CF81E015C097
:1036A00065E082E017C068E086E014C06EE089E063
:1036B00011C064E18FE00EC067E185E10BC088E1D5
:1036C00004C062E289E106C083E20E94D01906C00C
:1036D0006AE285E20E94EC1A01C011E0812FDF91BD
:1036E000CF911F91089586E090E00E94DE2A089510
:1036F000682F86E090E00E94022B08958DE1809370
:1037000095030E94781B0895809195038695869570
:10371000869508958091950381FD07C0826080930E
:1037200095030E94781B0E94661D08958091950361
:1037300081FF07C08D7F809395030E94781B0E94B4
:10374000721D08958091950381FF03C00E94961B0E
:1037500008950E948A1B0895809195038695817033
:10376000089580911B0108950E94731B8093950317
:1037700082FF0E947E1B80919503282F2695269517
:10378000269530E02430310524F0877088618093DD
:1037900095038091950380FF04C086958695869554
:1037A00001C080E00E943A1D089520919503822F68
:1037B000869586958695482F50E04330510554F400
:1037C0008F5F982F990F990F990F822F8770892BF0
:1037D00080939503809195038160809395030E9467
:1037E000781B809195038695869586950E943A1D53
:1037F000089580919503982F969596959695A1F0AA
:10380000915E990F990F990F8770892B809395037B
:10381000887F91E009F490E08091950390FB80F916
:10382000809395030E94781B8091950386958695D9
:1038300086950E943A1D08958091950380FD13C0DE
:10384000816080939503813019F489E0809395031A
:10385000809195030E94781B8091950386958695AB
:1038600086950E943A1D08958091950380FF08C0B7
:103870008E7F809395030E94781B80E00E943A1D02
:1038800008958091950380FF03C00E94341C089521
:103890000E941C1C089590919503892F869586950A
:1038A00086958F5F8F719770843038F4880F880FFA
:1038B000880F892B8093950302C090939503809184
:1038C0009503887F91E009F490E08091950390FB47
:1038D00080F9809395030E94781B809195038695CB
:1038E000869586950E943A1D0895843008F083E0FD
:1038F000909195039770282F220F220F220F922B61
:1039000090939503987F21E009F420E0909195032E
:1039100020FB90F9909395030E943A1D08950E9410
:10392000751C809195030E94781B0895FC01DB01B2
:1039300015968C918823F1F0F857E730F105D8F40B
:10394000E958FF4F0C94BA2983E001C080E00E943F
:103950008F1C80E008950E94F91BFBCF0E94D51BAD
:10396000F8CF0E94411CF5CF0E944B1CF2CF0E9461
:10397000A21BEFCF81E00895A0E0B0E0E2ECFCE113
:103980000C94F7298C0180918600909187006CE05F
:1039900070E00E9470296017710730F0C80169E07B
:1039A00070E00E94702960C080918600909187002D
:1039B000E0908600F0908700E0918600F09187000B
:1039C000C6E0D0E0BE010E94702920E030E0060F82
:1039D000171F211D311D4801590185E0880C991CD4
:1039E000AA1CBB1C8A95D1F7C701BE010E94702991
:1039F0006F01E12CF12CA7019601260F371F411D05
:103A0000511DC501B4010E94982969017A01E09114
:103A10008600F0918700CA01B9010E9454299B01D8
:103A2000AC01DF010E94DE299B01AC01C701B60198
:103A30000E945429DC01CB012FE0B695A7959795FC
:103A400087952A95D1F7009186001091870020E094
:103A500030E0081719072A073B0728F46091860011
:103A600070918700CB01BC01CB01CDB7DEB7ECE094
:103A70000C94132A843030F4811105C09091800099
:103A8000977F04C083E090918000986090938000BD
:103A9000A0918600B0918700282F30E00E94C829AD
:103AA00023E030E040E050E00E949829B42FA32F9B
:103AB000922F8827892F9A2FAB2FBB270E94BC1CDF
:103AC00090938D0080938C000895089510922B039D
:103AD00010922A0310922C03EFE6F0E080818160BF
:103AE00080830895EFE6F0E080818E7F80830E94DE
:103AF000841B0E943A1D08951F920F920FB60F92D9
:103B00001124EF92FF920F931F932F933F934F93A4
:103B10005F936F937F938F939F93AF93BF93CF9355
:103B2000EF93FF9380911C0191E0980F823019F080
:103B300090931C015DC081E080931C010E94B11B29
:103B4000C82F00912A0310912B030F5F1F4F0E9473
:103B5000B11B28E7829FB0011124C8010E9470297F
:103B600090932B0380932A0328E7C29FB00111246E
:103B7000660F672F661F770B71950E94702967FD8E
:103B80006FE780912C03823019F4603451F404C043
:103B9000813039F46F3729F480916F008E7F8093E4
:103BA0006F00E62FF0E0E450FC4FC491E0908600F7
:103BB000F09087000E94841B182F2C2F30E0D70133
:103BC0000E94C8292FEF30E040E050E00E94982981
:103BD000C90163E070E00E947029169FC001179F21
:103BE000900D11240E94BC1C90938D0080938C003A
:103BF000FF91EF91CF91BF91AF919F918F917F9165
:103C00006F915F914F913F912F911F910F91FF9075
:103C1000EF900F900FBE0F901F901895279A2F9836
:103C20008AE08093800089E1809381008FEF9FEF8D
:103C300090938700809386000E94B41B0E94AC1B67
:103C400081110E94661D08956A9A08952EB12B7FF6
:103C50003EB134604FB7F894FC01CB01880F991F37
:103C6000680F791F6E0F7F1FE617F70789F08191A4
:103C700098E03EB9000000C087FF2EB9880F000011
:103C800000C000C000C02EB900C09A9591F7ECCFDB
:103C90004FBF8FE594E00197F1F700C00000089551
:103CA0000E942A0E089580E00E94F7118170089505
:103CB0000E94CB122FEF86E791E021508040904088
:103CC000E1F700C000000E94CB120E94531E88231F
:103CD00021F00E94501E0E94932208950E94581EB7
:103CE0000895CF93DF9386319C4709F5EB010E943D
:103CF000040D9D81992371F08A7A91E009F490E096
:103D000090932D03811102C089E201C085E30E94D6
:103D1000502109C080912D03811102C089E201C0A8
:103D200085E30E9467210E94AB0D80E001C081E025
:103D3000DF91CF910895CF93DF93FC01DB011596BE
:103D40008C91882309F4DDC09F013057233231055F
:103D500008F0D8C0EF010E94460E90934403809370
:103D60004303FE01E150F047E232F10520F4E2584E
:103D7000FF4F0C94BA29809143038160AAC08091BF
:103D800044038860B2C0809143038260A2C08091E6
:103D9000430320C08091430388609BC0809144030B
:103DA0001EC0809144038260A0C080914303806163
:103DB00090C08091430380628CC0809143038064F3
:103DC00088C00E94710880914303806882C08091FE
:103DD0004303886084607DC0809144038260816079
:103DE00084C0809143038E7F74C080914403877F99
:103DF0007CC0809143038D7F6CC08091430320C0C1
:103E000080914303877F65C0809144031EC08091E9
:103E100044038D7F6AC0809143038F7E5AC0809196
:103E200043038F7D56C0809143038F7B52C00E9415
:103E30007108809143038F774CC080914303877F43
:103E40008B7F47C0809144038D7F8E7F4EC08091D1
:103E5000430382FB222720F991E0922790FB82F90D
:103E600090FB83F936C080914403982F9095917010
:103E70008E7F892B90FB81F938C08091430386FBAC
:103E8000222720F991E0922790FB86F922C00E9418
:103E900071088091430387FB222720F991E0922744
:103EA00090FB87F916C081E001C080E00E94CF0E30
:103EB0001EC08091430384FB222720F991E09227C2
:103EC00090FB84F906C080914303982F909590FB56
:103ED00080F9809343030BC08091440383FB222726
:103EE00020F991E0922790FB83F98093440380911D
:103EF0004303909144030E944B0E0E94710880E09E
:103F000001C081E0DF91CF9108950F931F93CF936C
:103F1000DF93C42FD22FFC0185818823B1F0409319
:103F200030030E94462290932F0380932E0380E259
:103F30008C0F883008F04DC0C77081E001C0880F39
:103F4000CA95EAF70E94230644C0809130034813C3
:103F500030C080912E0390912F030E945E22883CF6
:103F6000910538F510E21D0FCD17B9F080E28C0FE6
:103F7000883040F4C77081E001C0880FCA95EAF725
:103F80000E942A06183010F581E09D2F977001C01D
:103F9000880F9A95EAF70E942306802F0E9419063F
:103FA0001830B8F4D77081E001C0880FDA95EAF7CD
:103FB0000AC080E28C0F883060F4C77081E001C0D5
:103FC000880FCA95EAF70E942A0603C0802F0E9434
:103FD0001906DF91CF911F910F9108950F93FC0166
:103FE000E851FC47E730F10590F5CB01E056FF4F73
:103FF0000C94BA2906E221EE41EE6AE17CE723C087
:1040000007E225EE45EE6BE17CE71DC006E221EEFE
:1040100040EE68E17CE717C007E225EE44EE69E177
:104020007CE711C006E221EE42EE6CE17CE70BC0BA
:1040300007E225EE46EE6DE17CE705C008E221E0EF
:1040400045EE6EE17CE70E94851F80E008C0FB0121
:104050008581882319F01092300301C081E00F910F
:10406000089590933603809335030895E0913503C6
:10407000F0913603309729F00190F081E02D0995F9
:10408000089580E008950E9436200895E091350358
:10409000F0913603309721F00280F381E02D0995ED
:1040A0000895E0913503F0913603309739F026E01A
:1040B000DC012C930480F581E02D09950895A3E09F
:1040C000B0E0E5E6F0E20C94012A20913303309150
:1040D000340328173907A1F09093340380933303F6
:1040E000E0913503F0913603309751F023E02983B6
:1040F0009B838A830084F185E02DCE01019609958A
:104100002396E2E00C941D2AA3E0B0E0EAE8F0E296
:104110000C94012A2091310330913203281739077A
:10412000A1F09093320380933103E0913503F09135
:104130003603309751F024E029839B838A830084DF
:10414000F185E02DCE01019609952396E2E00C94CD
:104150001D2AE0910601F091070132968091270116
:10416000882359F08091430387FF07C0E091040141
:10417000F091050132969EE101C096E080E09150F9
:1041800028F021912223D9F38F5FF9CF0895882356
:1041900099F190912701992309F19091430397FF99
:1041A0001DC0982F9695969596959E3128F5E0918D
:1041B0000401F0910501E90FF11D2281422F50E029
:1041C000877021E030E002C0220F331F8A95E2F7AA
:1041D0002423352381E0232B91F40EC02091060186
:1041E00030910701F9013296285F3F4F919189176D
:1041F00029F0E217F307D1F780E0089581E00895F0
:104200009C01FC0132969FEF80E04191461789F0B6
:104210009F3F19F4411101C0982F8F5F8630A9F795
:104220009F3F39F0F901E90FF11D97FDFA9562837F
:10423000089508959C012A5F3F4FFC014281461377
:1042400001C01282019682179307B9F70895262FAD
:104250002695269526952E3168F4FC01E20FF11D76
:10426000677021E030E001C0220F6A95EAF7828191
:10427000282B22830895262F2695269526952E31C4
:1042800070F4FC01E20FF11D677021E030E001C025
:10429000220F6A95EAF720958281282322830895C8
:1042A000682F80912701882359F08091430387FF6D
:1042B00007C080910401909105010E942721089573
:1042C00080910601909107010E9400210895682FB6
:1042D00080912701882359F08091430387FF07C00D
:1042E00080910401909105010E943B2108958091E5
:1042F0000601909107010E941A21089580912701DB
:10430000882359F08091430387FF07C0E09104019F
:10431000F091050132968EE106C0E0910601F09120
:104320000701329686E0DF011D928A95E9F708952C
:1043300008950E949821089583E0809337030E9496
:1043400099210895811102C081E001C082E080932B
:1043500037030E94992108950E94A221089581E0C7
:10436000809337030E94992108950E94AF210895F8
:1043700008950E94B82108950E94B92108950E94CD
:10438000B82108950E94B82108950E94B821089587
:10439000CF930E94C2210E94CB120E94BF21C0E095
:1043A0008C2F0E94F711892B29F4CF5FC630C1F7FB
:1043B00080E001C081E0CF91089585B7806885BF16
:1043C00085B7806885BF08951F920F920FB60F9230
:1043D00011248F939F93AF93BF93809138038111E2
:1043E00013C08091960390919703A0919803B09188
:1043F00099034196A11DB11D809396039093970355
:10440000A0939803B0939903BF91AF919F918F911F
:104410000F900FBE0F901F90189580919E038430CF
:1044200031F10E94A4041092380320E488E190E066
:104430000FB6F894A895809360000FBE209360009B
:1044400083B7817F846083BF83B7816083BF7894A3
:10445000889583B78E7F83BF0FB6F894A895809117
:104460006000886180936000109260000FBE089524
:104470000E9471080E94AE04089582E084BD93E01A
:1044800095BD9AEF97BD80936E0008952FB7F8946D
:104490008091960390919703A0919803B09199030E
:1044A0002FBF08952FB7F8946091960370919703EA
:1044B00080919803909199032FBF08959C014FB765
:1044C000F8948091960390919703A0919803B091EE
:1044D00099034FBF821B930B089578941F920F92FC
:1044E0000FB60F9211248F939F93AF93BF93809138
:1044F000960390919703A0919803B0919903019628
:10450000A11DB11D8093960390939703A0939803E8
:10451000B0939903BF91AF919F918F910F900FBE70
:104520000F901F90189581E08093E00080E28093C7
:10453000D8001092C9008FE19EE40197F1F700C006
:10454000000087E090EBDC018093A7039093A80321
:10455000A093A903B093AA039CE088E10FB6F89456
:10456000A895809360000FBE90936000FFCF9CE001
:1045700088E10FB6F894A895809360000FBE9093E1
:104580006000FFCF80914103089508959B019091B1
:104590009E039430F1F48F708093E9008FEF909137
:1045A000E800815095FD06C095ED9A95F1F7000061
:1045B0008111F5CF8091E80085FF0BC0BA01C901D8
:1045C00040E050E00E94C6248091E8008E778093FE
:1045D000E800089543E050E0BC0182E00E94C6225A
:1045E000089540E250E0BC0182E00E94C622089596
:1045F000CF93DF93EC0148E050E0BC0181E00E94E2
:10460000C62288E0FE01A9E3B3E001900D928A95ED
:10461000E1F7DF91CF91089580919D03811109C049
:104620000E9451260E94AE268091E2008460809311
:10463000E200089510929D0308950E94B521089507
:1046400060919A0381E0611101C080E00E949C2189
:10465000089590919E0381E0943009F080E060918C
:104660009A030E94A221089542E061EC81E00E9439
:10467000CA2542E261EC82E00E94CA2590919E0325
:1046800081E0943009F080E060919A030E94AC21AF
:1046900008958091A003833009F461C030F4813023
:1046A00071F0823009F49BC008958A3009F487C004
:1046B0008B3009F46CC0893009F0A9C020C080910A
:1046C0009F03813A09F0A3C08091E800877F80931F
:1046D000E8008091A3039091A403892B21F468E062
:1046E00089E393E003C060E080E090E070E00E9426
:1046F0000B258091E8008B778093E80008958091E6
:104700009F03813209F083C08091A3039091A40399
:10471000029708F07CC08091E800877F8093E800D2
:104720008091E80082FD05C080919E038111F8CF41
:104730006EC02091F3008091F20090E0922B0297DE
:1047400031F48091F100813011F0863021F48091B4
:10475000F100809341038091E8008B7754C08091F1
:104760009F03813A09F053C08091A3039091A40361
:10477000892B09F04CC08091E800877F8093E80086
:104780008091E80080FFFCCF8091270137C08091A5
:104790009F038132E1F58091A3039091A403892BBB
:1047A000B1F58091E800877F8093E8000E94FF25A3
:1047B0008091A103809327010E9471080895809140
:1047C0009F03813221F58091E800877F8093E80084
:1047D0000E94FF258091A203809342030895809157
:1047E0009F03813AA1F48091E800877F8093E800DD
:1047F0008091E80080FFFCCF809142038093F1001C
:104800008091E8008E778093E8000E94FF2508954C
:1048100084B7877F84BF0FB6F894A8958091600015
:10482000886180936000109260000FBE90E080E885
:104830000FB6F89480936100909361000FBE0E94C0
:10484000AF2108950E9451260E94AE26E2EEF0E0CC
:1048500080818460808378940E94392908958DE155
:1048600091E00E943120089580919E038530A9F443
:1048700080919E03853079F40E940D220E94C82108
:104880008823B1F380919C03882391F30E94B02484
:104890000E947108EDCF0E943822089508959A0170
:1048A0004091A5035091A6030E9457240895492FD3
:1048B000552743305105C9F060F44130510581F06E
:1048C0004230510509F044C08BE390E04CEB55E0D9
:1048D00043C041325105E1F04232510549F138C03F
:1048E00082E190E047EF55E037C09927813091058C
:1048F00049F028F0029761F5ECE7F5E005C0E8EB38
:10490000F5E002C0E0E9F5E0849190E0AF0124C059
:104910006115710541F061307105D1F489E090E0D5
:1049200047EE55E019C089E090E04EEC55E014C028
:104930006115710541F06130710551F48DE690E02B
:1049400049E056E009C084E490E046E756E004C040
:1049500080E090E040E050E0F90151834083089509
:1049600080E189BD82E189BD09B400FEFDCF80915F
:10497000D8008F7D8093D8008091E0008260809382
:10498000E0008091E00081FDFCCF0895A0E0B0E060
:10499000ECECF4E20C94FB29EC018B017A010E940F
:1049A0001E26811133C0E114F10439F0F701808132
:1049B0009181081B190BC80FD91FC12CD12C0115CF
:1049C000110519F18091E80085FD16C08091E8007D
:1049D0008E778093E800E114F10449F0F7018081BB
:1049E0009181C80ED91ED182C08285E00FC00E947D
:1049F0001E26882321F30AC089918093F10001507B
:104A00001109FFEFCF1ADF0ADACF80E0CDB7DEB7AA
:104A1000E8E00C94172A2091A5033091A6032617ED
:104A2000370748F06115710539F42091E8002E77B9
:104A30002093E80001C0B901FC0120E06115710577
:104A400079F180919E038823F1F18530F1F1809115
:104A5000E80083FD3CC08091E80082FD2EC080917B
:104A6000E80080FFEBCF2091F3008091F20090E00E
:104A7000922B6115710551F08830910538F4219120
:104A80002093F100615071090196F3CF21E008975E
:104A900009F020E08091E8008E778093E800CECF87
:104AA0002111CFCF0AC080919E03882361F0853009
:104AB00061F08091E80083FD0AC08091E80082FFE8
:104AC000F2CF80E0089582E0089583E0089581E0C8
:104AD00008952091A5033091A6032617370748F0C3
:104AE0006115710539F42091E8002E772093E800D4
:104AF00001C0B901FC0120E06115710591F18091BF
:104B00009E03882309F440C0853009F43FC080919A
:104B1000E80083FD3DC08091E80082FD2FC08091B8
:104B2000E80080FFE9CF2091F3008091F20090E04F
:104B3000922B6115710559F08830910540F424914C
:104B40002093F1003196615071090196F2CF21E076
:104B5000089709F020E08091E8008E778093E800C4
:104B6000CBCF2111CCCF0AC080919E03882361F066
:104B7000853061F08091E80083FD0AC08091E800F3
:104B800082FFF2CF80E0089582E0089583E00895E7
:104B900081E00895982F973068F59093E900981771
:104BA00039F07091EC002091ED005091F00003C0BD
:104BB000242F762F50E021FD02C09F5FECCF309173
:104BC000EB003E7F3093EB003091ED003D7F309362
:104BD000ED003091EB0031603093EB007093EC000E
:104BE0002093ED005093F0002091EE0027FDE5CFDB
:104BF00080E008958F708093E90081E008958091AE
:104C00009F0387FF11C08091E80082FD05C080915D
:104C10009E038111F8CF11C08091E8008B770BC003
:104C200080919E03882349F08091E80080FFF8CFAF
:104C30008091E8008E778093E80008952091E40049
:104C40003091E50095E64091EC00842F817040FFA3
:104C500023C08091E80080FD1DC080919E038823C1
:104C600099F0853099F08091EB0085FD11C040915D
:104C7000E4005091E5002417350729F3915011F015
:104C80009A01E1CF84E0089582E0089583E00895D9
:104C900081E0089580E008954091E80042FFDDCF73
:104CA00008950E94C0260E94C826E0EEF0E08081B0
:104CB00081608083E8EDF0E080818F77808319BC8C
:104CC000A7EDB0E08C918E7F8C9380818F7E808366
:104CD00010929D0308950F931F93CF93DF930E942B
:104CE000C0260E94C826C8EDD0E088818F778883CF
:104CF00088818068888388818F7D888319BC109221
:104D00009E0310929A0310929C0310929B0300EE54
:104D100010E0F80180818B7F8083888181608883A7
:104D200042E060E080E00E94CA25E1EEF0E0808190
:104D30008E7F8083E2EEF0E08081816080838081DD
:104D400088608083F80180818E7F80838881806184
:104D50008883DF91CF911F910F910895E8EDF0E0E6
:104D600080818F7E8083E7EDF0E0808181608083A9
:104D700084E082BF81E080939D030E946B260895AA
:104D8000E8EDF0E080818E7F80831092E20008954C
:104D90001092DA001092E10008951F920F920FB660
:104DA0000F9211242F933F934F935F936F937F93B1
:104DB0008F939F93AF93BF93EF93FF938091E10005
:104DC00082FF0BC08091E20082FF07C08091E1006A
:104DD0008B7F8093E1000E9438298091DA0080FF68
:104DE0001FC08091D80080FF1BC08091DA008E7FA9
:104DF0008093DA008091D90080FF0DC080E189BDE9
:104E000082E189BD09B400FEFDCF81E080939E035D
:104E10000E940C2305C019BC10929E030E941A2305
:104E20008091E10080FF19C08091E20080FF15C0F1
:104E30008091E2008E7F8093E2008091E2008061A9
:104E40008093E2008091D80080628093D80019BCE2
:104E500085E080939E030E9420238091E10084FFDF
:104E600030C08091E20084FF2CC080E189BD82E1E6
:104E700089BD09B400FEFDCF8091D8008F7D80935D
:104E8000D8008091E1008F7E8093E1008091E20064
:104E90008F7E8093E2008091E20081608093E20047
:104EA00080919A03882311F084E007C08091E30089
:104EB00087FD02C081E001C083E080939E030E94D1
:104EC00029238091E10083FF29C08091E20083FFC4
:104ED00025C08091E100877F8093E10082E080938C
:104EE0009E0310929A038091E1008E7F8093E100EF
:104EF0008091E2008E7F8093E2008091E2008061E9
:104F00008093E20042E060E080E00E94CA25809148
:104F1000F00088608093F0000E941D23FF91EF91C4
:104F2000BF91AF919F918F917F916F915F914F91C1
:104F30003F912F910F900FBE0F901F9018951F92C9
:104F40000F920FB60F9211242F933F934F935F93BD
:104F50006F937F938F939F93AF93BF93CF93DF9381
:104F6000EF93FF93C091E900CF708091EC00D82FB0
:104F7000D17080FDD0E81092E9008091F000877F29
:104F80008093F00078940E94E3271092E9008091CA
:104F9000F00088608093F000CD2BCF70C093E900C3
:104FA000FF91EF91DF91CF91BF91AF919F918F9141
:104FB0007F916F915F914F913F912F910F900FBE15
:104FC0000F901F901895AAE2B0E0E9EEF7E20C947A
:104FD000002AEFE9F3E08091F100819323E0E73AC2
:104FE000F207C9F70E9449238091E80083FF2EC190
:104FF00080919F039091A003492F50E04A305105C2
:1050000008F024C1FA01E955FF4F0C94BA29803801
:1050100021F0823809F01AC108C080919B03909159
:105020009C03992389F082600FC08091A3038F7045
:10503000873008F00BC18093E9008091EB0085FB7D
:10504000882780F91092E9009091E800977F90936B
:10505000E8008093F1001092F100D1C0282F2D7F3D
:1050600009F0F4C0882319F0823061F0EFC080911C
:10507000A103813009F0EAC0933009F080E0809309
:105080009C032EC08091A10381112AC08091A303AB
:105090008F702FEF280F263008F0D8C08093E900DA
:1050A0002091EB0020FF1CC0933021F48091EB0095
:1050B000806214C09091EB0090619093EB0021E02E
:1050C00030E0A90102C0440F551F8A95E2F74093D2
:1050D000EA001092EA008091EB0088608093EB0078
:1050E0001092E9008091E800877F8093E8000E9499
:1050F000FF25ACC08111AAC01091A1031F77809138
:10510000E3008078812B8093E3008091E800877F23
:105110008093E8000E94FF258091E80080FFFCCF8B
:105120008091E30080688093E300111102C082E067
:1051300001C083E080939E0389C08058823008F0CC
:1051400085C08091A1039091A2038C3D53E0950707
:1051500079F583E08A838AE289834FB7F894DE0188
:10516000139620E03EE051E2E32FF0E05093570029
:10517000E49120FF03C0E295EF703F5FEF708E2F48
:1051800090E0EA3010F0C79601C0C0968D939D93D1
:105190002F5F243149F74FBF8091E800877F8093CC
:1051A000E8006AE270E0CE0101960E940B2516C06D
:1051B0006091A3037091A403AE014F5F5F4F0E9403
:1051C0004F24BC01892B09F441C09091E800977FDE
:1051D0009093E80089819A810E9469258091E80076
:1051E0008B778093E80032C0803881F58091E800A9
:1051F000877F8093E80080919A038093F1008091EB
:10520000E8008E7772CF811121C08091A103909127
:10521000A20399270297D4F48091E800877F8093B6
:10522000E8008091A10380939A030E94FF2580915A
:105230009A03811106C08091E30087FD02C081E0DE
:1052400001C084E080939E030E9434238091E80093
:1052500083FF0AC08091E800877F8093E8008091F7
:10526000EB0080628093EB00AA96E3E00C941C2A8A
:105270000895CF9380919E038823A1F0C091E90007
:10528000CF709091EC00892F817090FD80E8C82B41
:105290001092E9008091E80083FD0E94E327CF701F
:1052A000C093E900CF910895DB018F939F930E94F3
:1052B000DE29BF91AF91A29F800D911DA39F900DFC
:1052C000B29F900D11240895991B79E004C0991F95
:1052D000961708F0961B881F7A95C9F78095089550
:1052E000AA1BBB1B51E107C0AA1FBB1FA617B7070C
:1052F00010F0A61BB70B881F991F5A95A9F7809528
:105300009095BC01CD01089597FB072E16F40094EB
:1053100007D077FD09D00E94702907FC05D03EF424
:10532000909581959F4F0895709561957F4F089551
:10533000A1E21A2EAA1BBB1BFD010DC0AA1FBB1F99
:10534000EE1FFF1FA217B307E407F50720F0A21B0B
:10535000B30BE40BF50B661F771F881F991F1A9478
:1053600069F760957095809590959B01AC01BD01A2
:10537000CF010895EE0FFF1F0590F491E02D0994E1
:105380000E94C829332312F48A1B9B0B0C94D92941
:10539000A29FB001B39FC001A39F700D811D112476
:1053A000911DB29F700D811D1124911D08950E94C1
:1053B000C829B7FF0895821B930B08950E94C8293E
:1053C000A59F900DB49F900DA49F800D911D112459
:1053D0000895B7FF0C94DE290E94DE29821B930BEF
:1053E00008952F923F924F925F926F927F928F9289
:1053F0009F92AF92BF92CF92DF92EF92FF920F9364
:105400001F93CF93DF93CDB7DEB7CA1BDB0B0FB66D
:10541000F894DEBF0FBECDBF09942A88398848882A
:105420005F846E847D848C849B84AA84B984C884C0
:10543000DF80EE80FD800C811B81AA81B981CE0FB7
:10544000D11D0FB6F894DEBF0FBECDBFED0108959C
:105450000F93083090F0982F872F762F652F542FB9
:10546000432F322F22270850F4CF220F331F441F1F
:10547000551F661F771F881F991F0A95B2F70F9156
:10548000089597FB10F8169400080F93083098F0D1
:105490000850232F342F452F562F672F782F892F11
:1054A000902DF4CF059497958795779567955795A7
:1054B0004795379527950A95AAF70F9108958F92EA
:1054C0009F92AF92BF92CF92DF92EF92FF92CF93D3
:1054D000DF93EC01688179818A819B816115710577
:1054E0008105910521F464E279ED8BE597E02DE1EA
:1054F00033EF41E050E00E94362B49015A019B01F5
:10550000AC01A7EAB1E40E94DE296B017C01ACEE9C
:10551000B4EFA50194010E94EC29DC01CB018C0DB4
:105520009D1DAE1DBF1DB7FF03C00197A109B04867
:1055300088839983AA83BB839F77DF91CF91FF9064
:10554000EF90DF90CF90BF90AF909F908F90089595
:105550000E945F2A089580E091E00E945F2A0895EA
:10556000A0E0B0E08093000190930101A0930201BC
:10557000B09303010895FC014150504030F0019078
:105580000616D1F73197CF010895882799270895F6
:10559000FB01DC0104C08D910190801921F4415080
:1055A0005040C8F7881B990B0895FB01DC0102C02D
:1055B00001900D9241505040D8F70895F999FECFCF
:1055C00092BD81BDF89A992780B50895A6E1B0E013
:1055D00044E050E00C94282BA8E1B0E042E050E019
:1055E0000C94282BDC01A40FB51F4150504048F00B
:1055F000CB01840F951F2E910E94032B41505040E8
:10560000D0F70895262FF999FECF92BD81BDF89A63
:10561000019700B4021639F01FBA20BD0FB6F894F6
:10562000FA9AF99A0FBE08950396272F0E94032B2A
:105630000E94022B252F0E94032B242F0C94032B56
:105640000196272F0E94032B0C94022BDC01CB0127
:10565000FC01F999FECF06C0F2BDE1BDF89A319682
:1056600000B40D9241505040B8F70895052E97FBB5
:105670001EF400940E944D2B57FD07D00E949829DC
:1056800007FC03D04EF40C944D2B5095409530956B
:1056900021953F4F4F4F5F4F08959095809570959E
:0E56A00061957F4F8F4F9F4F0895F894FFCF75
:1056AE00010000008802A802010102001000101083
:1056BE0001191A1B1C1D1E1F2021220601C222F8D1
:1056CE0022F122C522EA2201E200E900EA00B50039
:1056DE00B600B700CD008301CC008A01920194017F
:1056EE002102230224022502260227022A02B300E7
:1056FE00B4006F0070009F01CB019F02A002818257
:10570E0083E200E900EA00B500B600B700CD0083E1
:10571E0001CC008A01920194012102230224022568
:10572E0002260227022A02B300B4006F0070009F07
:10573E0001CB019F02A00281828395939291909753
:10574E0096943435366667F7F6F4C630313233F058
:10575E000001020202020606060909090909090FDB
:10576E000F0F0F0F0F1515151819191919191919DA
:10577E001919192324252525252525241E261E0025
:00000001FF
