:100000000C942D060C944A060C944A060C940B3062
:100010000C944A060C944A060C944A060C944A0620
:100020000C944A060C944A060C94401D0C94821CB5
:100030000C9421220C944A060C944A060C944A060D
:100040000C944A060C944A060C944A060C944A06F0
:100050000C944A060C94E3210C944A060C944A062C
:100060000C944A060C944A060C944A060C944A06D0
:100070000C944A060C944A060C944A060C944A06C0
:100080000C944A060C944A060C944A060C944A06B0
:100090000C944A060C944A060C944A060C944A06A0
:1000A0000C944A060C944A060C944A06440D4E0DD4
:1000B000590D630D9608990DD50DE10D0E0F140F16
:1000C000FF0E050F1A0F200F260F810FF50F890F56
:1000D000530F570F8D0F5A0F900F9B0F650FEB0F9C
:1000E000690F9F0F6D0FA30FCD0F710FA70FD70FC4
:1000F000770FAD0FB70F5E0F940F610F970F7C0F47
:10010000B20FC30FE30FE50F4F0F850FFE0F451022
:10011000701075107A107F10841089108E10931053
:1001200098109D105411541186118611021220123C
:100130003D133D132512B312C412C412921AB91AF8
:100140006A1CB91A6A1C051B281B6A1C1E1C2E1C63
:1001500000DA0281FFD9F1DB20A4A62EAF00A0C0F7
:10016000D30000A1C8D30000AED580A81F408D14D5
:1001700020001E0F0500047F3F1F643214643214F8
:10018000783C1E1E140A054C617965723A204F7442
:100190006865720A0020202020202020205E0A00AE
:1001A000422052204C2041204F004C617965723A28
:1001B0002041646A7573740A002020202020205E8C
:1001C0000A00422052204C2041204F0A004C617905
:1001D00065723A204C6F7765720A00202020205EFD
:1001E0000A00422052204C2041204F0A004C6179E5
:1001F00065723A2052616973650A0020205E0A0028
:10020000422052204C2041204F0A004C61796572F7
:100210003A20426173650A005E0A00422052204C77
:100220002041204F0A0080818283848586878889C7
:100230008A8B8C8D8E8F9091929394A0A1A2A3A46F
:10024000A5A6A7A8A9AAABACADAEAFB0B1B2B3B4E6
:10025000C0C1C2C3C4C5C6C7C8C9CACBCCCDCECF26
:10026000D0D1D2D3D40005010902A1018502090130
:10027000A100050919012908150025019508750136
:1002800081020501093009311581257F9502750824
:10029000810609381581257F950175088106050CB1
:1002A0000A38021581257F950175088106C0C005B1
:1002B000010980A101850319012AB700150126B79C
:1002C00000950175108100C0050C0901A10185048C
:1002D00019012AA002150126A002950175108100BE
:1002E000C005010906A1018506050719E029E715E2
:1002F0000025019508750181020507190029EF15F0
:1003000000250195F075018102050819012905955F
:100310000575019102950175039101C00660FF0901
:1003200061A1010962150026FF0095207508810270
:100330000963150026FF00952075089102C005018C
:100340000906A101050719E029E71500250195080F
:10035000750181029501750881010507190029FFC2
:10036000150026FF0095067508810005081901296A
:1003700005150025019505750191029501750391FB
:1003800001C009025B00030100A0FA09040000019A
:100390000301010009211101000122440007058128
:1003A00003080001090401000203000000092111F3
:1003B0000100012222000705820320000107050336
:1003C00003200001090402000103000000092111BB
:1003D00001000122B600070584032000011201007C
:1003E0000200000008E0F7120400010102000112FF
:1003F000036D006900630072006F0064006F007895
:10040000000000180342006F006100720064007376
:10041000006F0075007200630065000000040309AE
:100420000407087F0807003E5B4F5B3E003E6B4FB2
:100430006B3E001C3E7C3E1C00183C7E3C18001CA1
:10044000577D571C001C5E7F5E1C0000183C180086
:1004500000FFE7C3E7FF00001824180000FFE7DBF8
:10046000E7FF0030483A060E002629792926004089
:100470007F05050700407F05253F005A3CE73C5AB1
:10048000007F3E1C1C0800081C1C3E7F0014227FBD
:100490002214005F5F005F5F0006097F017F00009C
:1004A0006689956A0060606060600094A2FFA29413
:1004B0000008047E04080010207E20100008082A8E
:1004C0001C0800081C2A0808001E10101010000C40
:1004D0001E0C1E0C0030383E383000060E3E0E0654
:1004E0000000000000000000005F000000000700A6
:1004F000070000147F147F1400242A7F2A1200238F
:1005000013086462003649562050000008070300B3
:1005100000001C224100000041221C00002A1C7F18
:100520001C2A0008083E08080000807030000008FF
:10053000080808080000006060000020100804029D
:10054000003E5149453E0000427F4000007249494B
:100550004946002141494D33001814127F100027ED
:1005600045454539003C4A494931004121110907B7
:1005700000364949493600464949291E0000001401
:100580000000000040340000000008142241001464
:100590001414141400004122140800020159090621
:1005A000003E415D594E007C1211127C007F49498A
:1005B0004936003E41414122007F4141413E007F9A
:1005C00049494941007F09090901003E41415173F0
:1005D000007F0808087F0000417F41000020404163
:1005E0003F01007F08142241007F40404040007FCF
:1005F000021C027F007F0408107F003E4141413E03
:10060000007F09090906003E4151215E007F09195A
:1006100029460026494949320003017F0103003F72
:100620004040403F001F2040201F003F4038403FD7
:10063000006314081463000304780403006159493B
:100640004D4300007F41414100020408102000009A
:100650004141417F0004020102040040404040400B
:10066000000003070800002054547840007F28440D
:10067000443800384444442800384444287F003833
:10068000545454180000087E09020018A4A49C7851
:10069000007F080404780000447D400000204040B2
:1006A0003D00007F102844000000417F4000007C96
:1006B00004780478007C0804047800384444443802
:1006C00000FC182424180018242418FC007C0804BA
:1006D00004080048545454240004043F4424003CBB
:1006E0004040207C001C2040201C003C4030403C0E
:1006F000004428102844004C9090907C004464549E
:100700004C44000008364100000000770000000063
:1007100041360800000201020402003C2623263C68
:1007200000000000000000404040F0F8F8FF38FFF3
:10073000F8F83FF8F8FF38FFF8F8F04040400000C4
:100740000000000080C0C0C0800000C0C080000069
:100750000080C0C000C0C0000080C0C00000000019
:1007600000C0C0C0C0C000C0C00000000000000049
:100770000000000000000000000000000000000079
:100780000000000000000000000000000000000069
:100790000000000000000000000000000000000059
:1007A000C0F0F8FC3E1E06010000007F4141417F81
:1007B000007F4141417F000080C0E07E5B4F5BFED7
:1007C000C00000C000DCD7DEDEDED7DC00C00000E9
:1007D0000000000000000000000000000000000019
:1007E00000000000000000494949FFFFFFFFE0DF73
:1007F000BFBF00BFBFDFE0FFFFFFFF494949000067
:100800000000001F3F6060E0BF1F007F7F071E38B1
:100810001E077F7F007F7F0E1F3B7160000000007E
:10082000007F7F0C0C0C007E7E007F7E0303007F28
:100830007E03037E7E03037F7E000F3E703C063CFA
:10084000703E0F00327B49493F7E007F7E030300EC
:100850001E3F69696F2600000000000000000000D4
:10086000030F1F3F3C7870600000007F4141417FD3
:10087000007F4141417F00307B7F783020203078FD
:100880007F3B0003000F7F0F0F0F7F0F000300005F
:100890000000000000000000000000000000000058
:1008A00000000000000000010101070F0F7F0F7F13
:1008B0000F0F7E0F0F7F0F7F0F0F07010101000049
:1008C0000000000000000000010100000000000026
:1008D0000000000000000000000000000000000018
:1008E0000000000000000000000000000000000008
:1008F00000000000000000000000000000000000F8
:1009000000000000000000000000000000000000E7
:1009100000000000000000000000000000000000D7
:1009200000000000000000000000000000000000C7
:1009300000000000000000000000000000000000B7
:1009400000000000000000000000000000000000A7
:100950000000000000000000000000000000000097
:10096000002223252628292A2C2D2F3032333536F4
:10097000383A3B3D3E4042434547494A4C4E505130
:10098000535557595A5C5E6062646668696B6D6F57
:1009900071737577797B7D7F81838587898A8C8E5A
:1009A00090929496989A9C9E9FA1A3A5A7A8AAAC62
:1009B000AEAFB1B3B4B6B8B9BBBCBEBFC1C2C3C59C
:1009C000C6C7C9CACBCCCDCED0D1D2D2D3D4D5D63E
:1009D000D7D7D8D9D9DADADBDBDBDCDCDCDCDCDD71
:1009E000DDDDDDDCDCDCDCDCDBDBDBDADAD9D9D855
:1009F000D7D7D6D5D4D3D2D2D1D0CECDCCCBCAC9ED
:100A0000C7C6C5C3C2C1BFBEBCBBB9B8B6B4B3B11B
:100A1000AFAEACAAA8A7A5A3A19F9E9C9A989694B6
:100A200092908E8C8A89878583817F7D7B7977758B
:100A300073716F6D6B6968666462605E5C5A59576A
:100A4000555351504E4C4A4947454342403E3D3B29
:100A50003A3836353332302F2D2C2A2928262523B3
:100A60002200AF00AE14001A0008001500170004A1
:100A7000001600070009000A001D001B00060019EF
:100A800000050000000000E00022522C00130012BC
:100A9000000C0018001C0033000F000E000D000BAE
:100AA0000038003700360010001100000000002858
:100AB0000021522A001E001F002000210022002BCE
:100AC000005000510052004F00E0003500E300E20A
:100AD00000000000000000000000000000270026C9
:100AE0000025002400230030002F002E002D0000E0
:100AF0000034003100000000000000000000000091
:100B000000000000001E021F022002210222022912
:100B10000000000000000000003900350200000065
:100B20000000000000000000000000000027022676
:100B30000225022402230230022F022E022D02007F
:100B40000034023102000000000000000000004CF0
:100B50000000002800FFAA7F5540000101010101AB
:100B60000101010102020202020202020203030366
:100B70000303030303040404040404040505050536
:100B800005060606060607070707070808080809F6
:100B90000909090A0A0A0B0B0B0C0C0C0D0D0D0EA2
:100BA0000E0E0F0F0F101011111112121313141437
:100BB000151516161717181819191A1A1B1B1C1DAC
:100BC0001D1E1E1F20202122222324242526262705
:100BD0002829292A2B2C2D2D2E2F30313232333437
:100BE00035363738393A3B3C3D3E3F40414243443D
:100BF00045464748494A4C4D4E4F5051535455561F
:100C000058595A5B5D5E5F616264656668696B6CCA
:100C10006D6F7072737577787A7B7D7E8082838545
:100C200087888A8C8E8F91939596989A9C9EA0A285
:100C3000A3A5A7A9ABADAFB1B3B5B7BABCBEC0C28F
:100C4000C4C6C9CBCDCFD1D4D6D8DBDDDFE2E4E753
:100C5000E9EBEEF0F3F5F8FAFDFF11241FBECFEF3C
:100C6000DAE0DEBFCDBF11E0A0E0B1E0ECE6F6E6F1
:100C700002C005900D92A43DB107D9F725E0A4ED7F
:100C8000B1E001C01D92A83DB207E1F70E944C06F9
:100C90000C9434330C940000A8E2B0E0E2E5F6E0F6
:100CA0000C94403185B7806885BF85B7806885BF63
:100CB00084B7877F84BF0FB6F894A89580916000B1
:100CC000886180936000109260000FBE90E080E821
:100CD0000FB6F89480936100909361000FBE81E09D
:100CE0008093190187E694E29093D5018093D40113
:100CF0000E94C61C0E94E51C8091E20084608093E3
:100D0000E20078948091D1028823A1F01091E9004B
:100D10001F709091EC00892F817090FD80E8182B56
:100D20001092E9008091E80083FD0E94AA191F70CB
:100D30001093E90082E084BD93E095BD9AEF97BDE2
:100D400080936E001092D6011092D7011092D801B4
:100D50001092D9018091D80080618093D8002AE157
:100D60002A95F1F700C08091D900182F117080FDED
:100D700004C00E94C61C1092D10210938D051093DE
:100D80008E0510930401112341F010921D0186E09D
:100D900080931E010E94C62F05C086E080931D012E
:100DA00080931E018091040180910401882311F039
:100DB00090E001C094E09093E30184E0891B80936C
:100DC000E2010DE411E0A1E5CA2EA1E0DA2ED8017E
:100DD0008D918D018F3F11F00E94A226C016D10681
:100DE000B1F701E511E0F80181918F018F3F11F01A
:100DF0000E94A226F1E006351F07A9F788E0E9EE78
:100E0000F1E0DF01282F1D922A95E9F7EAEDF1E0E4
:100E1000DF011D928A95E9F780E090E00E94EA31B7
:100E2000853E9E4F09F461C065EE7EEF80E090E064
:100E30000E941E3260E082E090E00E94003281E079
:100E400090E09093E5018093E40161E083E090E01D
:100E50000E94003260E074E184E090E00E941E3263
:100E600060E086E090E00E94003260E087E090E081
:100E70000E94003240E050E0BA0188E090E00E9419
:100E8000123260E083E290E00E94003260E08CE089
:100E900090E00E94003260E08DE090E00E9400321D
:100EA00019821A821B821C821D821E821F82188652
:100EB00048E050E067E170E0CE0101960E94F03119
:100EC00040E050E0BA018FE190E00E94123240E031
:100ED00050E0BA018FE090E00E94123240E050E012
:100EE000BA0183E190E00E94123282E090E00E9419
:100EF000DC318093F10184E090E00E94EA3190932C
:100F00009605809395050E949C28EFEFF6E721E077
:100F1000E150F0402040E1F700C000000E949C2812
:100F20008091E90180FF08C06FEF7FEF80E090E0E3
:100F30000E941E320E94D22183E090E00E94DC31A8
:100F400090E00E94131780918D05882311F082E0B4
:100F500001C080E080931F0280E88093DB020E9442
:100F6000562E6BE070E087E691E00E941A248823F9
:100F700009F443C080911F0265E070E081FD3AC032
:100F800082E691E00E941A248823B9F16DE070E0B6
:100F900080E591E00E941A24882379F10E940922B9
:100FA000DC01CB01805A9541AF4FBF4F8093530571
:100FB00090935405A0935505B0935605EEEDF2E0DD
:100FC00080E092E0DF019C011D9221503040E1F76A
:100FD000F093E504E093E4048FEF9FEF9093DD023C
:100FE0008093DC0281E0809358058093570510922E
:100FF000200203C08DE591E0C5CF8091E60181110B
:1010000087C088E090E00E94E4314B015C0183E2FC
:1010100090E00E94DC31282F30E040E050E060E0BA
:1010200070E080E090E000E20E94DA323401450195
:10103000262937294829592920934B0530934C05F7
:1010400040934D0550934E0560934F0570935005A6
:1010500080935105909352053091D60533603093BB
:10106000D6052C7F09F042C025E020934B05109255
:101070004C053FEF30934D0536E930934E05109205
:101080004F0530E04FEF56E960E00E940E2B88E0FC
:1010900090E00E94E4314B015C0183E290E00E9409
:1010A000DC31282F30E040E050E060E070E080E08C
:1010B00090E00E94DA32B22FA32FF42FE52F6B01BC
:1010C00095018401B829A12BF22BE32BB0934B059A
:1010D000A0934C05F0934D05E0934E0560934F05AA
:1010E000D092500580935105909352050E94F32AA7
:1010F0000E94492A0E94351E80914B0580FF05C041
:1011000060E0869586950E94512C81E08093E601EF
:1011100080918D05811102C00E94C92F85E091E068
:101120009093920580939105DD24D3948091D10210
:10113000853009F061C010E48091D102853009F05A
:1011400045C08091D102843009F434C00E94492AFC
:101150008091E801811109C0D092E80180914B058E
:1011600081708093E7010E94E42A0E942724109254
:10117000970568E170E00FB6F894A8956093600059
:101180000FBE1093600083B7817F846083BF83B7F5
:10119000816083BF7894889583B78E7F83BF0FB6B5
:1011A000F894A89580916000886180936000109207
:1011B00060000FBE0E949C28E9EEF1E08191811150
:1011C0000DC571E0E13FF707C9F7B6CF0E941817C8
:1011D0000E9403231092E8018091E701882351F0D7
:1011E00080914B05816080934B0560E086958695E4
:1011F0000E94512C0E94502A0E949C2802EF11E06C
:10120000F9EEAF2EF1E0BF2E2AEF31E0D501F80163
:1012100091918D9189272E173F0719F08823C1F3EB
:1012200006C0811104C00E947828C12C38C04090AB
:101230008D05C12CD5015D905D01F801708075248C
:1012400021F1912C88248394872D8821B9F04420A2
:10125000A9F099A2CAA20E9415229CA38BA3F1E037
:10126000FDA391E0852D882109F490E09EA349A17A
:101270005AA16BA17CA18DA10E94560E9394880C5B
:1012800025E09212E1CFD8015C92C3940F5F1F4F0B
:10129000B8E0CB12CFCF0E94B926CC24C394809162
:1012A000D505882309F4CFC08091D405E0914B0582
:1012B000E695E695E81BE093D005823059F4F0E01E
:1012C000ED57FE4FE4910E2F10E0E0EDAE2EEAE276
:1012D000BE2E6BC0863059F4F0E0E058FE4FE4912A
:1012E0000E2F10E070ECA72E7AE2B72E5EC0893088
:1012F00061F4E695F0E0E358FE4FE4910E2F10E024
:1013000062E4A62E6DE2B62E50C08F3061F4E695F1
:10131000F0E0E658FE4FE4910E2F10E052EBA52EC0
:101320005CE2B52E42C0853159F4F0E0E958FE4F39
:10133000E4910E2F10E04AEEA42E4FE1B42E35C0FA
:101340008831F9F0833249F4E5E7F1E00591149131
:1013500039E6A32E30E2B32E28C08432C9F085329C
:10136000F1F48E2F63E00E949732E92FF0E0EE58FF
:10137000FE4FE4910E2F10E02CE5A22E2EE1B22EAE
:1013800014C008E210E09BE6A92E9FE1B92E0DC023
:1013900004EF11E086E2A82E8FE1B82E06C000ED22
:1013A00017E0B8E4AB2EBAE2BB2E8091D1058823BA
:1013B00061F01092D1050E946D289093CF05809323
:1013C000CE051092D3051092D2050E946D28E091AF
:1013D000CE05F091CF059C012E1B3F0B2F3F3F47C1
:1013E00090F52091FC012223B1F01092FC01209194
:1013F000FA013091FB01821B930B8F3F9F4758F4FA
:10140000205D3A483093FB012093FA018091D60584
:1014100088608093D6058090D2059090D3050E0FFA
:101420001F1F1093CF050093CE058EEC95E0F501BC
:1014300009958091D2059091D305892B21F48928B3
:1014400011F0D092FC0180915805882309F4C0C1A5
:1014500000912102109122020E941522801B910B03
:10146000C29708F4B2C00E94152290932202809382
:1014700021028EED92E09093E5048093E404809144
:101480008D05882309F469C09091FD018091FE01CA
:10149000E82EF12CE114F10421F4E92EF82E80E07D
:1014A00001C088E09701A4E036952795AA95E1F759
:1014B0002115310511F08C5F79019701369527953B
:1014C000369527952115310511F08E5F7901970129
:1014D00036952795232B09F08F5F8130D9F078F06E
:1014E000823029F1833071F582EC91E00E948519F8
:1014F00089EB91E00E9485198AEA91E015C08BE1A1
:1015000092E00E94851988E192E00E9485198BE0A3
:1015100092E00AC080E092E00E9485198BEF91E092
:101520000E9485198DEE91E00E9485194EC082EED1
:1015300091E00E9485198BED91E00E9485198DEC58
:1015400091E0F2CF80EA91E00E94851985E991E06F
:101550000E94851987E891E0E7CF86E292E00E9439
:10156000851980915805882381F18091DC02909142
:10157000DD02892B29F08091580581112DC004C00E
:1015800080912002882331F080915705882309F447
:101590001FC107C1198287E28A831B821C821D82B8
:1015A00087E08E831F828FEF88878FE2898724E60A
:1015B00030E049E050E0BE016F5F7F4F88E70E9456
:1015C0008B2E892B11F4D09220028091DC02909115
:1015D000DD02892B81F6D8CF809120028111D4CFF2
:1015E0000E9441242091DC023091DD022115310559
:1015F00059F280E0282E312CAA24A394B12C082E75
:1016000002C0AA0CBB1C0A94E2F7A5014223532393
:10161000452B11F48F5FEECF90911F02910165E091
:10162000220F331F6A95E1F790FF13C055E03695FE
:1016300027955A95E1F7220F220F220F20931101CF
:1016400010921401295F2093120183E08093150109
:1016500011C0220F232F221F330B31958295880F43
:1016600080768093110120931401815E8093120192
:101670002093150124E630E047E050E06FE071E090
:1016800088E70E948B2E892B09F07ECF80911F0264
:1016900080FF66C080E2EFEFF1E0DF011D928A95E6
:1016A000E9F735E0220C331C3A95E1F7EAE5F1E081
:1016B000F8A7EFA346E551E0AFA1B8A58D91B8A773
:1016C000AFA3FA019191AF019101290F311DB90129
:1016D00062527D4F2B0190E081509E4FFC0107E04C
:1016E0009F01281B390B8824839401C0880C2A95FC
:1016F000EAF7B201912CDB011D91BD011821202FC9
:1017000029192770722E022E000C330BB12F01C045
:10171000BB0F7A94EAF77B2E31952195310927701A
:10172000332701C016952A95EAF7712A1081712A8C
:101730007082939428E09212DECF015031960F3FD1
:1017400079F66EE571E08FA198A56817790709F021
:10175000B3CF04E610E020E230E04FEF51E00DC0DF
:10176000C10125E0880F991F2A95E1F7AC0142528B
:101770005D4F04E610E020E230E060E488E70E947C
:10178000222F892B09F000CFA094B0948091DC0225
:101790009091DD02A822B922B092DD02A092DC0273
:1017A000F3CE0E9409220091530510915405209117
:1017B000550530915605DC01CB01801B910BA20B26
:1017C000B30B8F3F9F4FAF4FBF4710F40E942724AA
:1017D000C1100E94412486E0E4E8F5E0DE011196A4
:1017E00001900D928A95E1F780908505A09086057D
:1017F000B0908705C0908805909089051092860565
:10180000109287051092880510928905A11003C0D7
:10181000BB2009F44DC000918205109183050E9400
:1018200015229C01201B310B90917D05992309F411
:10183000F2C125313105E0F19F3F19F09F5F909390
:101840007D05AA2061F00E94EC231A1414F491E0A3
:1018500001C09FEF899F802D112480938605BB20B6
:1018600061F00E94EC231B1414F09FEF01C091E083
:10187000899F802D11248093870580918605882378
:10188000B9F010918705112399F00E940C24882348
:1018900019F08093860502C0D0928605812F0E94A0
:1018A0000C24882319F08093870502C0D092870505
:1018B000C11003C0992009F44DC00091800510911A
:1018C00081050E9415229C01201B310B90917E0501
:1018D000992309F4A5C121353105E0F19F3F19F0A5
:1018E0009F5F90937E05CC2061F00E94CA231C1458
:1018F00014F491E001C09FEF899F802D1124809303
:101900008805992061F00E94CA23191414F09FEFF2
:1019100001C091E0899F802D1124809389058091D9
:1019200088058823B9F010918905112399F00E9448
:101930000C24882319F08093880502C0D092880572
:10194000812F0E940C24882319F08093890502C0FE
:10195000D09289058091850588121AC080918605EC
:10196000882311F0A81214C080918705882311F0F4
:10197000B8120EC080918905882311F0891108C022
:1019800090918805992331F081E0C91204C002C00A
:1019900081E001C080E080FD15C080918605811145
:1019A0000FC08091870581110BC08091880581113E
:1019B00007C081E090918905911103C080E001C0CA
:1019C00081E080FD0E94A0238A82AB82BC82CD820E
:1019D0009E8286E0FE013196A4E8B5E001900D926A
:1019E0008A95E1F70E94032390912302891721F041
:1019F000809323020E9409228091D102843009F051
:101A000095CB83E08093E9008091E80082FF8ECB44
:101A10008091E80085FF22C00E94862081111CC0B1
:101A200000E210E09E012F5F3F4F590108C08091F6
:101A3000F100D5018D935D010150110969F080918C
:101A4000E80085FDF4CF8091E8008B778093E80073
:101A50000E948620882399F391E001C090E0809154
:101A6000E8008B778093E800992309F45FCBE98144
:101A70008E2F90E0FC01B197E830F10508F056CBCD
:101A8000EA5AFF4F0C94C53281E2809324021092EF
:101A900025028CE1809326028AE008C082E28093CE
:101AA0002402D09225021092260286E0809327021B
:101AB00082C083E2809324021092250210922602B3
:101AC0001092270278C0CA808B81282F30E02C0D1D
:101AD000311D2D30310514F08DEF6BC08A3030F49C
:101AE0008E010F5F1F4FBC2CB80E09C08EEF61C076
:101AF00080914B0580FD06C00D5F1F4FC394CB1036
:101B0000F7CF14CBBBE0BC15B8F380911D01EC2DD1
:101B1000E81B8E2FD80115962C91159714964C9191
:101B2000149713966C9190E00E94291E0E946C2AD3
:101B3000E3CF88E090E00E94E4314B015C0183E256
:101B400090E00E94DC31282F30E040E050E060E07F
:101B500070E080E090E000E20E94DA32240135017A
:101B6000282935294629572920934B0530934C05C0
:101B700040934D0550934E0560934F05709350056B
:101B800080935105909352058091D6058360809390
:101B9000D6050E94F32A80914B0580FFC7CA60E0FA
:101BA000869586950E94512CC1CA87E280932402B3
:101BB0008CE08093250240E250E064E272E082E033
:101BC0000AC088E28093240282E08093250240E2EA
:101BD00050E064E272E00E946B21A8CA8091D002BA
:101BE000882309F4A9CA80E189BD92E199BD09B4AD
:101BF00000FEFDCF8091D8008F7D8093D80080912A
:101C0000E00082608093E0008091E00081FDFCCFE5
:101C10000E94181791CA2B30310508F00FCE48CE1C
:101C20002B30310508F05CCE95CEA6E0B0E0EBE1BC
:101C3000FEE00C944F3126E0FC01DE01119601908C
:101C40000D922A95E1F7FC01258189819A81222351
:101C500059F0662349F00E946C14182F682F89816F
:101C60009A810E948A1603C00E945716182F698114
:101C70007A81812F0E942C272696E3E00C946B3109
:101C80000E9418172FEF84E39CE021508040904081
:101C9000E1F700C000009AE088E10FB6F894A8953B
:101CA000809360000FBE90936000FFCFABE1B0E087
:101CB000ECE5FEE00C944E314E8B5F8B688F798F94
:101CC0008A8F9B8F911110929D028E01015F1F4F91
:101CD00087E0D8011D928A95E9F786E0FE017696A5
:101CE000D80101900D928A95E1F78B89882341F004
:101CF00061E0C8010E94150E61E0C8010E94150E46
:101D000087E0FE013F96DE01189601900D928A95BC
:101D1000E1F7CE0108960E94D01481112CC087E013
:101D2000FE013896DE01119601900D928A95E1F739
:101D30006C85662301F12091610230E0C9010196B2
:101D40008770992740919A0250E08417950761F1B6
:101D50006D8397E0929FD001939FB00D1124AE59EF
:101D6000BD4FFE01319601900D929A95E1F7809357
:101D700061020E94091417E080919A029091610219
:101D80008917F9F0189FC00111248E599D4F0E94A8
:101D9000D0148823B1F080919A0290E00196877068
:101DA000992780939A02E8CF0E9418171092610237
:101DB00010929A02EAE5F2E087E0DF011D928A952F
:101DC000E9F76B96E4E00C946A31A0E0B0E0EBEE4A
:101DD000FEE00C944931FC012481222309F47CC4E7
:101DE0007C0161E00E94150EEC01FC01E851FC470A
:101DF000E730F10588F5E25AFF4F0C94C53206E250
:101E000021EE41EE6AE17CE705C007E225EE45EEF2
:101E10006BE17CE7C7010E94142319C106E221EEA1
:101E200040EE68E17CE7F6CF07E225EE44EE69E19B
:101E30007CE7F0CF06E221EE42EE6CE17CE7EACFF0
:101E400007E225EE46EE6DE17CE7E4CF08E221E013
:101E500045EE6EE17CE7DECFF7019581992309F429
:101E600071C110928C059E0130572332310508F064
:101E7000DBC084E090E00E94EA3190939605809365
:101E80009505FE01E150F047E232F10520F4EB59EF
:101E9000FF4F0C94C532809195058160ACC0809154
:101EA00096058860B4C0809195058260A4C0809139
:101EB000950520C08091950588609DC0809196050C
:101EC0001EC0809196058260A2C0809195058061B8
:101ED00092C08091950580628EC080919505806446
:101EE0008AC00E94181780919505806884C08091EF
:101EF0009505886084607FC08091960582608160CE
:101F000086C0809195058E7F76C080919605877FEB
:101F10007EC0809195058D7F6EC08091950520C013
:101F200080919505877F67C0809196051EC080913E
:101F300096058D7F6CC0809195058F7E5CC08091E9
:101F400095058F7D58C0809195058F7B54C00E9468
:101F50001817809195058F774EC080919505877FE2
:101F60008B7F49C0809196058D7F8E7F50C0809178
:101F7000950582FB222720F991E0922790FB82F9B8
:101F800090FB83F938C080919605982F90959170B9
:101F90008E7F892B90FB81F93AC08091950586FB55
:101FA000222720F991E0922790FB86F924C00E9415
:101FB00018178091950587FB222720F991E0922739
:101FC00090FB87F918C061E001C060E08EE090E00E
:101FD0000E9400321EC08091950584FB222720F9C3
:101FE00091E0922790FB84F906C080919505982F87
:101FF000909590FB80F9809395050BC08091960594
:1020000083FB222720F991E0922790FB83F98093AC
:102010009605609195057091960584E090E00E9488
:102020001E320E94181713C080919C05C631FCE730
:10203000DF07F9F48A7A91E009F490E09093440282
:1020400081113EC389E20E9482220E94B7138091CF
:102050009B02877009F440C3F7018581882309F446
:102060003BC38091960582FF37C382E00E94D5165C
:1020700033C38272FE01E052F847EB30F10508F0FD
:1020800066C0E957FF4F0C94C53280914B0580FF25
:102090001EC0282F2E7F20934B0530914C05409178
:1020A0004D0550914E0560914F05709150058091FE
:1020B0005105909152050E940E2B0E94492A809151
:1020C000D60581608093D6050E946C2AC0CF8160BE
:1020D00080934B0561E0869586950E94512CB7CF81
:1020E000882329F00E949B2CB2CF8823D9F30E9429
:1020F000A62CADCF882329F00E943D2CA8CF8823A1
:10210000D9F30E94472CA3CF882329F00E94232CC7
:102110009ECF8823D9F30E94302C99CF882329F0B1
:102120000E94092C94CF8823D9F30E94162C8FCFBC
:10213000882329F00E94342B8ACF8823D9F30E9468
:102140004E2B85CFC6312CE7D20709F4BBC29E01C6
:10215000205E324520323105A8F4911115C0CF71AF
:1021600081E090E09C0102C0220F331FCA95E2F784
:10217000E901622F83E090E00E940032CE010E94CC
:10218000131765CF9923D9F1C3303CE7D30721F169
:1021900040F4C1159CE7D90789F0C130DC4711F143
:1021A0002EC0CB35FCE7DF0739F1CC352CE7D20761
:1021B000D9F0CA35DC4719F581E01FC00E94181715
:1021C0008FEF94E3ECE081509040E040E1F700C0F5
:1021D00000000E94D2213BCF6FEF7FEF80E090E0C4
:1021E0000E941E320E94400E8091960582FB882735
:1021F00080F991E0892701C080E00E94EC16F70188
:102200008581C081D181882349F0CE010E946C1460
:10221000182F682FCE010E948A1604C0CE010E949A
:102220005716182FBE01812F0E942C270E94492784
:10223000D82FC92FB82EF701D580C6800C2D029556
:102240000F7080919B028770F9F0DD20E9F0892FF3
:10225000807F803469F080E28D0F8830A8F0892F6C
:10226000807E803229F4F1E0FD1770F4002361F0E4
:102270008091960582FF08C082E00E94D516809169
:102280009B02877011E009F010E0CC2EC2948FE021
:10229000C8228C2D90E08C30910508F0EEC1FC0135
:1022A000EE56FF4F0C94C5328C2F807FCF70882361
:1022B00011F0C295C07FDD20B9F0CC2309F4CBC169
:1022C00080E28D0F883010F0B11006C090919C050F
:1022D000C92BC0939C0505C090919D02C92BC0934A
:1022E0009D020E94B713B7C18D2F0E943218CC23D4
:1022F00009F4C3C1D05ED83080F1BB2071F1C09524
:1023000090919D02C923C0939D022AC08C2F807F8B
:10231000CF70803211F0C295C07FBB2029F021E040
:10232000B21609F44CC055C08091960582FD1BC0C1
:10233000DD2069F0CC2339F090919C05C92BC09326
:102340009C050E94B71380E00E94651896C180E04A
:102350000E943218CC2309F490C18C2F0E94662869
:102360000E94B7138AC1DD2081F00023B1F1013052
:1023700009F083C190919C028C2F8923C81709F41E
:102380007CC1C92BC0939C0278C1011176C18C2FEE
:102390000E94491780919C029C2F982329F09C2F22
:1023A0009095892380939C02209145028C2F822353
:1023B00009F463C1C0952C23209345025EC1DD2042
:1023C00021F0063008F059C108C0053008F055C1A9
:1023D00015C0DD2031F001113EC18C2F0E94501735
:1023E0004CC1002359F0D93309F044C13FEF87EEC7
:1023F00093E0315080409040E1F73AC18C2F0E9429
:1024000049173BC18C2F86958695837019F08130D2
:1024100061F033C1DD2021F08D2F9C2F937002C01D
:1024200080E090E00E94DE222FC1DD2021F08D2F80
:102430009C2F937002C080E090E00E94B92224C1DA
:102440006D2D8D2F0E945A171FC18C2F837009F09C
:1024500041C0D11016C12D2F229526952770220F2D
:10246000220F8D2F8F7090E0022E02C0880F991FCF
:102470000A94E2F7D4FF0BC04FE050E002C0440FD3
:10248000551F2A95E2F79A012095309502C020E069
:1024900030E0C695C695C370C23099F068F440919B
:1024A000E4015091E501C13029F0822B932B842364
:1024B000952304C0842B952B822B932B0E941317FA
:1024C000E0C0822B932B2091E4013091E50182271B
:1024D0009327F4CFDD2019F08C2F817001C08695F1
:1024E000882309F4CEC02D2F229526952770220F20
:1024F000220F8D2F8F7090E0022E02C0880F991F3F
:102500000A94E2F7D4FF0BC04FE050E002C0440F42
:10251000551F2A95E2F79A012095309502C020E0D8
:1025200030E0C695C695C370C23079F0B8F44091DA
:10253000FD015091FE01C13029F0822B932B8423A1
:1025400095230EC0842B952B09C0822B932B2091B1
:10255000FD013091FE018227932702C0822B932B2D
:102560000E94BE168EC0CF70DD2039F08C2F0E94E5
:1025700003178D2F0E94501784C08D2F0E9449177A
:102580008C2F0E94C3167DC08D2FE2EFBE1689F1FD
:10259000EB1538F0F0EFBF1659F021EFB21621F12C
:1025A00056C033EFB31661F194EFB916C9F04FC0BE
:1025B000DD2091F0053008F060C0CF7181E090E03F
:1025C00002C0880F991FCA95E2F72091FD01309152
:1025D000FE018227932721C0063008F04EC0EDCFC0
:1025E0008091960582FD1CC0DD2029F08C2F8F7113
:1025F00022C0DD20D9F38C2F8F710E94C3163DC0FD
:10260000DD2049F0CF7181E090E002C0880F991F72
:10261000CA95E2F702C080E090E00E94BE162DC08D
:10262000DD2061F08C2F8F71E8E08E9F90011124E6
:10263000236020939B020E9403171FC081E00E9429
:10264000D5160230D0F082E00E94D51616C0DD20EB
:1026500021F0002359F28D2F77CE002361F28933C8
:1026600049F4FFEF27EE33E0F15020403040E1F72E
:1026700000C000008D2F0E94321808EF0C0D0430AE
:1026800018F40E94032317C01123A9F080919B0224
:1026900080FD11C0F70115828695869586950E946A
:1026A0000317C7010E94E50E80919B0286958695CF
:1026B00086950E94C31660E0C7010E94150E0CC0EB
:1026C00085E3C1CC80914402811104C089E20E945B
:1026D0005422BBCC85E3FBCFCDB7DEB7E9E00C9449
:1026E000653190919C0580919D02892B90919C026F
:1026F0009923E1F0892B90911801913041F4909148
:10270000950597FF04C09EE120EF34E003C096E0FA
:1027100028EE34E0F90120E0915028F03191332384
:10272000D9F32F5FF9CF211110929C0208952091C7
:102730009A029091610257E02917A9F030E0529F68
:10274000F001539FF00D1124EE59FD4F7181761366
:1027500006C07081781303C07581741306C02F5FA3
:102760003F4F2770E9CF80E0089581E00895809180
:102770001801813051F58091950587FF26C00E9490
:1027800071138093EF0440E250E06EE972E08EEE48
:1027900094E00E941E33892BD9F180E2EEEEF4E042
:1027A000AEE9B2E001900D928A95E1F7E0919105D2
:1027B000F0919205309761F186E08093EE040480F9
:1027C000F581E02D8EEE94E022C00E94711380937B
:1027D000E60448E050E06EEB72E086EE94E00E9482
:1027E0001E33892BA9F088E0E6EEF4E0AEEBB2E010
:1027F00001900D928A95E1F7E0919105F091920593
:10280000309731F00280F381E02D86EE94E0099557
:10281000089580919A0290916102891719F08F5F53
:102820008770FBCF0895CF93DF93809160028295EC
:102830008F7009F04EC080915F02882309F449C06F
:1028400080919A024091610250915B0260915A021C
:10285000C0915C02D0915D0277E08417D1F190E0E5
:10286000789FF001799FF00D1124DF01AE59BD4F23
:1028700014962C911497222349F111962C911197BB
:10288000251324C02C91261321C015962C91159741
:1028900021111CC012962D913C9113972C1B3D0BBE
:1028A000283C310598F4809160028F70806180939C
:1028B0006002E859FD4F80818F70806180838AE5D6
:1028C00092E00E94E50E0E94091403C001968770F1
:1028D000C4CFDF91CF910895A0E0B0E0E2E7F4E14A
:1028E0000C9449317C010091FD011091FE01809111
:1028F000E4019091E501082B192BCFE0D0E0CC2426
:10290000C394D12CC6010C2E02C0880F991F0A94C3
:10291000E2F780239123892B21F4219798F7B12C9A
:1029200009C0BC2EB7018C2F0E942C270E9449277A
:10293000019799F38B2DCDB7DEB7E9E00C946531A3
:10294000CF93DF93EC010E946C14BE010E942C27F0
:102950000E944927DF91CF910895FC012481222311
:10296000D9F0808191810E94A01492959F70963039
:1029700079F010F4925001C09A50923068F4803F80
:1029800069F018F4883E40F409C0843F29F406C079
:10299000883E20F0813F11F080E0089581E00895A5
:1029A000A4E1B0E0E6EDF4E10C9446318C0186E060
:1029B000F801DE011F9601900D928A95E1F7F8016A
:1029C0008481E5809AE5892E92E0992E90915E02AD
:1029D000911120C0882309F463C1EE2009F442C09C
:1029E000C8010E94AD14F82E8823E1F187E0F801B8
:1029F000D40101900D928A95E1F780915E028130B9
:102A000031F480915A0290915B020E94A0140E94BE
:102A1000131448C1F801D080C180A280B380F09027
:102A20005F0220915C0230915D02FF2009F4E7C053
:102A3000A501421B530B483C510508F09DC088235B
:102A400009F430C180916002282F207F90915B02B1
:102A5000222361F09C1509F460C0C8010E94AD14E6
:102A6000811163C0C8010E94E50E1AC19C1113C0F8
:102A700090915A029D110FC0E1100DC08F708061BE
:102A8000809360028AE592E00E94E50E80916002E8
:102A9000F801868303C1E1103AC040E06C2D8D2D12
:102AA0000E94971340E06C2D8D2D0E949713E82E05
:102AB0008111F4C0DF86C88A8F8598890E94A0148E
:102AC000292F22952F70243020F49F70223028F077
:102AD00009C02A50223080F014C0992349F0811196
:102AE00007C013C0992321F0F8019681907F69F007
:102AF000805E883030F409C0803F38F0815F8330D9
:102B000020F0C8010E94E50EEF2CFE2CCBC0809176
:102B10006002816080936002C1C090915A029D1151
:102B20009CCFE1109ACFF80198C0EE2009F49ACF1B
:102B300020916002822F82958F7090E002978CF036
:102B400080915A0290915B0299878887BB86AA86FA
:102B500080915E028C871D862E87CE0108960E948A
:102B6000E50E87E0F801AAE5B2E001900D928A95A2
:102B7000E1F70E94131494C090916002292F207FE6
:102B800051F48AE592E00E94E50E87E0F40111928B
:102B90008A95E9F783C0882309F484C080915B0299
:102BA0008C110CC080915A028D1108C0E11006C032
:102BB000F8019683C8010E94E50E6AC0C8010E9410
:102BC000AD14882309F44ECFEE2009F44BCF2091A9
:102BD0006002822F82958F7090E0029714F28091AC
:102BE0005A0290915B029A838983BC82AB82809166
:102BF0005E028D831E822F83CE010196B0CFA21A72
:102C0000B30AF8ECAF16B10408F042C0882309F407
:102C100047C0FE2CEE2009F425CF80915B028C1179
:102C200029C080915A028D1125C09091600290FDBB
:102C300018C0892F82958F70282F30E0211531051B
:102C400081F0F80196832F30310541F08F5F982F86
:102C50009295907F86818F70892B8683C8010E9410
:102C6000E50E87E0F801AAE5B2E001900D928A95A1
:102C7000E1F718C0C8010E94AD14811172CF809194
:102C80006002816080936002C8010E94E50E0AC064
:102C900087E0F40111928A95E9F704C0F12C02C093
:102CA000FF24F3948F2D6496ECE00C9462319830FD
:102CB00078F5853068F5E82FF0E085E0989FE00D25
:102CC000F11D11249E2F977083E0F695E7958A9564
:102CD000E1F7EE0FFF1FEE0FFF1FEA5BFD4F40E035
:102CE00050E080E0219130E0092E02C03695279512
:102CF0000A94E2F721703327042E01C0220F0A94B0
:102D0000EAF7822B4F5F5F4F4430510559F7089522
:102D100080E00895983088F5853078F5E82FF0E068
:102D200085E0989FE00DF11D11248E2F877051E0F2
:102D300001C0550F8A95EAF783E0F695E7958A95E5
:102D4000E1F7EE0FFF1FEE0FFF1FEA5BFD4F20E0E4
:102D500030E070E04081CB01022E02C0969587954D
:102D60000A94E2F7817081958427852384278193D3
:102D70002F5F3F4F2430310569F708959093FE018E
:102D80008093FD01089521E030E002C0220F331F3F
:102D90008A95E2F7209530958091FD019091FE0192
:102DA000822393230E94BE16089590919B028095E2
:102DB000892380939B02282F277069F4981759F074
:102DC0009091960592FF07C08695869586950E94FC
:102DD000C31610929B0208959091960592FB2227AC
:102DE00020F9281779F080FB92F99093960560916D
:102DF00095057091960584E090E00E941E3282E075
:102E00000E94D516089521E030E002C0220F331F42
:102E10008A95E2F78091FD019091FE01822B932B20
:102E20000E94BE1608959093E5018093E4010895F1
:102E300010929C0580911801813041F48091950594
:102E400087FF04C08EE1E0EFF4E003C086E0E8EE27
:102E5000F4E0DF011D928A95E9F780E090E00E949E
:102E6000DE2280E090E00E94B92210929D020E9432
:102E7000B713E4E8F5E086E0DF011D928A95E9F7F3
:102E800010927D0510927E0510927F050E94A0236E
:102E90000895882321F00E9466280E94B7130895A0
:102EA000882339F090919C05892B80939C050E9482
:102EB000B7130895662309F45CC08D3C21F40E9489
:102EC000EC23819504C08E3C29F40E94EC2380936E
:102ED0008705C5C08F3C21F40E94EC23819504C076
:102EE000803D29F40E94EC2380938605B8C0893D7B
:102EF00019F40E94CA2305C08A3D31F40E94CA23F6
:102F0000819580938805ABC08B3D21F40E94CA2334
:102F1000819504C08C3D29F40E94CA2380938905C1
:102F20009EC09FE2980F983078F421E030E0A9012C
:102F300002C0440F551F9A95E2F7CA01909185058A
:102F4000892B809385058BC08D3D21F480917F0571
:102F500081600CC08E3D21F480917F05826006C0A7
:102F60008F3D09F07CC080917F05846080937F0550
:102F700076C08D3C39F49091870597FF35C010924B
:102F8000870559C08E3C29F4909187051916BCF32A
:102F90002BC0909186058F3C29F497FF25C0109295
:102FA000860549C0803D19F41916CCF31DC09091D7
:102FB0008805893D29F41916BCF4109288053BC098
:102FC0008A3D19F497FF10C0F8CF8B3D39F49091EA
:102FD000890597FF09C0109289052DC08C3D21F409
:102FE000909189051916BCF39FE2980F983080F4F0
:102FF00021E030E0A90102C0440F551F9A95E2F785
:10300000CA0180959091850589238093850513C019
:103010008D3D21F480917F058E7F0BC08E3D21F484
:1030200080917F058D7F05C08F3D29F480917F05BC
:103030008B7F80937F0580918605811106C08091EA
:103040008705811102C010927D058091880581114C
:1030500006C080918905811102C010927E050E94F0
:10306000A0230895882381F19CEF980F913A18F4DA
:103070000E9454220DC090E2980F983060F487703F
:1030800091E001C0990F8A95EAF7892F0E9466287E
:103090000E94B71308959BE5980F933028F480E0C1
:1030A00090E00E94DE22089598E5980F9B3128F465
:1030B00080E090E00E94B922089593E3980F933145
:1030C00018F460E00E945A170895CF93882309F4FA
:1030D0006EC0C82F8CEF8C0F813AA0F5809118013B
:1030E0008130E1F48091950587FF18C0EC2FE695BB
:1030F000E695E695F0E0E251FB4F8281282F30E023
:103100004C2F477081E090E002C0880F991F4A95CC
:10311000E2F782239323892B61F410C0E8EEF4E0F8
:103120008EEE94E02191C21721F08E179F07D1F700
:1031300005C08C2F0E9454220E94B7138C2F0E942E
:10314000822210C080E28C0F883078F4C77081E052
:1031500090E001C0880FCA95EAF790919C05892BF1
:1031600080939C050E94B71322C0EBE5EC0FE3307F
:1031700040F4F0E0E359FE4F808190E00E94DE22AF
:1031800016C0E8E5EC0FEB3150F4F0E0EE0FFF1F56
:10319000E059FE4F808191810E94B92208C083E3EB
:1031A0008C0F833120F461E08C2F0E945A17CF914D
:1031B0000895CF93DF93C091E404D091E5048A3061
:1031C000B1F42091DB02CE018E5D9240622F70E05F
:1031D0000E942C31281B822F66E00E949732C82F54
:1031E000C15008F48FC080E20E94D918F9CF8D3009
:1031F000E9F4CE5DD2402091DB02622F70E0CE0177
:103200000E942C31281B822F9E01280F311D211571
:10321000324018F080E0C0E0D0E0C80FD11DC252AB
:10322000DD4FD093E504C093E4046CC096E0FE014A
:10323000AEEDB4E001900D929A95E1F7803E30F04A
:1032400086E0FE0111928A95E9F70BC0F6E08F9FA8
:10325000B00111246F5D7B4F46E050E0CE010E942B
:10326000D331C091E404D091E50446E050E0BE01C2
:103270008EED94E00E941E33892B49F19E012E5D54
:103280003240A90185E0569547958A95E1F781E09E
:1032900090E0BC0102C0660F771F4A95E2F74091AB
:1032A000DC025091DD02462B572B2B5F3F4F65E030
:1032B000369527956A95E1F702C0880F991F2A95E0
:1032C000E2F7842B952B9093DD028093DC029E0124
:1032D000285D32404091DB02642F70E0C9010E94FA
:1032E0002C31481B463010F4240F311D211582E08B
:1032F000380710F020E030E022523D4F3093E504D3
:103300002093E404DF91CF910895CF93DF93EC01F4
:10331000FE018491882321F00E94D9182196F8CFCC
:10332000DF91CF910895FC01AC014C5F5F4F8FEFAF
:1033300091E32191822728E030E087FF03C0880FC6
:10334000892701C0880F21503109B9F7E417F50723
:1033500081F70895AAE2B0E0E0EBF9E10C944F3177
:10336000E3EDF2E08BED92E02091F10021938E17D6
:103370009F07D1F78091D402833009F463C030F401
:10338000813071F0823009F4A2C0B9C08A3009F4EA
:103390008EC08B3009F46EC0893009F0B0C020C0F7
:1033A0008091D302813A09F0AAC08091E800877F1A
:1033B0008093E8008091D7029091D802892B21F464
:1033C00068E087EC92E003C060E080E090E070E0AD
:1033D0000E940D218091E8008B778093E8008FC0D8
:1033E0008091D302813209F08AC08091D7029091F6
:1033F000D802009719F0029709F081C08091E80087
:10340000877F8093E8008091E80082FD05C080916D
:10341000D1028111F8CF73C02091F3008091F200A6
:1034200090E0922B029731F48091F100813011F0FD
:10343000863021F48091F100809317018091E8009B
:103440008B7759C08091D302813A09F058C080919E
:10345000D7029091D802892B09F051C08091E800E1
:10346000877F8093E8008091E80080FFFCCF809107
:1034700018013CC08091D302813209F040C0809194
:10348000D7029091D802892BD1F58091E800877FEF
:103490008093E8000E94B92081E09091D5029111BB
:1034A00001C080E0809318010E94181728C0809105
:1034B000D302813221F58091E800877F8093E80074
:1034C0000E94B9208091D6028093160118C0809185
:1034D000D302813AA1F48091E800877F8093E800CD
:1034E0008091E80080FFFCCF809116018093F1006D
:1034F0008091E8008E778093E8000E94B920809147
:10350000E80083FFE7C18091D3029091D402492F54
:1035100050E04A30510508F0DDC1FA01E256FF4F94
:103520000C94C532803821F0823809F0D3C108C02C
:103530008091CF029091D002992389F082600FC0D0
:103540008091D7028F70873008F0C4C18093E90062
:103550008091EB0085FB882780F91092E90090911B
:10356000E800977F9093E8008093F1001092F100BB
:1035700071C1282F2D7F09F0ADC1882319F0823049
:1035800061F0A8C18091D502813009F0A3C19330C8
:1035900009F080E08093D0022EC08091D502811185
:1035A0002AC08091D7028F702FEF280F263008F0A5
:1035B00091C18093E9002091EB0020FF1CC0933063
:1035C00021F48091EB00806214C09091EB00906137
:1035D0009093EB0021E030E0A90102C0440F551F99
:1035E0008A95E2F74093EA001092EA008091EB009E
:1035F00088608093EB001092E9008091E800877F5B
:103600008093E8000E94B92065C1811163C11091C7
:10361000D5021F778091E3008078812B8093E300AF
:103620008091E800877F8093E8000E94B920809114
:10363000E80080FFFCCF8091E30080688093E30086
:10364000111102C082E001C083E08093D10242C127
:103650008058823008F03EC12091D5023091D602C8
:103660002C3D53E0350779F583E08A838AE289832C
:103670004FB7F894DE01139620E03EE051E2E32FCD
:10368000F0E050935700E49120FF03C0E295EF7003
:103690003F5FEF708E2F90E0EA3010F0C79601C0C8
:1036A000C0968D939D932F5F243149F74FBF809132
:1036B000E800877F8093E8006AE270E0CE0101961F
:1036C0000E940D21B5C08091D7029091D802432F5E
:1036D000552743305105A9F068F44130510509F4EC
:1036E00008C14230510509F0F5C08BE590E0E2E8F1
:1036F000F3E04BC04132510529F14232510589F1C5
:10370000E9C0C901992781309105A1F058F00297CD
:1037100009F0E0C0EFEEF3E0E4918E2F90E0EFEEE1
:10372000F3E030C0EDE1F4E0E4918E2F90E0EDE1C4
:10373000F4E028C0E3E0F4E0E4918E2F90E0E3E0D1
:10374000F4E020C08330910508F0C4C0880F991FB1
:10375000FC01E959FE4F0190F081E02D89E090E0F5
:1037600014C08330910508F0B5C0FC01EE0FFF1FB7
:10377000EF59FE4F0190F081E02DDC01A25ABE4FBF
:103780008C9190E0009709F4A5C02091E800277F74
:103790002093E8002091D9023091DA028217930732
:1037A00008F49C0140E02115310589F18091D10296
:1037B000882309F43DC08530D9F18091E80083FD6C
:1037C00037C08091E80082FD2FC08091E80080FF23
:1037D000EACF4091F3008091F20090E0942B211504
:1037E000310559F08830910540F444914093F1003F
:1037F0003196215031090196F2CF41E0089709F046
:1038000040E08091E8008E778093E800CCCF4111B2
:10381000CDCF0AC08091D102882351F0853041F08C
:103820008091E80083FD04C08091E80082FFF2CF20
:103830008091E8008B778093E8004CC0803809F0D5
:1038400049C08091E800877F8093E8008091D20290
:103850008093F1008091E8008E77D2CE81113AC03A
:103860008091D5029091D602992702979CF580917C
:10387000E800877F8093E8001091D5021093D20270
:103880000E94B920111106C08091E30087FD02C09B
:1038900081E001C084E08093D10242E061EC81E0EC
:1038A0000E94D82042E261EC84E00E94D82042E2EB
:1038B00061EC82E00E94D82042E260EC83E00E944A
:1038C000D8208091D102843011F081E001C082E0E3
:1038D000809319018091E80083FF10C08091E80077
:1038E000877F8093E8008091EB0080628093EB00FB
:1038F00005C082E190E0EDEDF3E047CFAA96E3E06A
:103900000C946B311F920F920FB60F9211242F93CC
:103910003F934F935F936F937F938F939F93AF9357
:10392000BF93CF93DF93EF93FF93C091E900CF70E4
:103930008091EC00D82FD17080FDD0E81092E90082
:103940008091F000877F8093F00078940E94AA19FC
:103950001092E9008091F00088608093F000CD2BF8
:10396000CF70C093E900FF91EF91DF91CF91BF91AC
:10397000AF919F918F917F916F915F914F913F9107
:103980002F910F900FBE0F901F901895E8EDF0E06B
:1039900080818E7F80831092E2001092DA00109274
:1039A000E100A0EEB0E08C9181608C9380818F77F4
:1039B000808319BCA7EDB0E08C918E7F8C938081C1
:1039C0008F7E80831092C6020895A0E0B0E0EBEEF7
:1039D000FCE10C944A31C8EDD0E088818F7E888369
:1039E000E7EDF0E080818160808384E082BF81E048
:1039F0008093C60288818E7F888302EE10E0F801F2
:103A000010821092DA0081EEC82ED12CF6011082BD
:103A100088818F77888388818068888388818F7D7B
:103A2000888319BC1092D1021092D2021092D00257
:103A30001092CF0290EEE92EF12CF70180818B7F5E
:103A4000808388818160888342E060E080E00E941A
:103A5000D820F60180818E7F8083F801808181608B
:103A60008083808188608083F70180818E7F80835E
:103A7000888180618883CDB7DEB7E8E00C94663139
:103A80001F920F920FB60F9211242F933F934F93D3
:103A90005F936F937F938F939F93AF93BF93EF93B6
:103AA000FF938091E10082FF09C08091E20082FFD4
:103AB00005C08091E1008B7F8093E1008091DA0066
:103AC00080FF2AC08091D80080FF26C08091DA0054
:103AD0008E7F8093DA008091D90080FF18C080E14A
:103AE00089BD82E189BD09B400FEFDCF81E08093EC
:103AF000D1028091C60281110FC00E94C61C0E9493
:103B0000E51C8091E20084608093E20005C019BC4E
:103B10001092D1021092C6028091E10080FF1AC07B
:103B20008091E20080FF16C08091E2008E7F80933A
:103B3000E2008091E20080618093E2008091D800F1
:103B400080628093D80019BC85E08093D10283E025
:103B5000809319018091E10084FF37C08091E200D9
:103B600084FF33C080E189BD82E189BD09B400FED4
:103B7000FDCF8091D8008F7D8093D8008091E100A7
:103B80008F7E8093E1008091E2008F7E8093E2003F
:103B90008091E20081608093E2008091D2028823CC
:103BA00011F084E007C08091E30087FD02C081E04E
:103BB00001C083E08093D1028091D102843011F062
:103BC00081E001C082E0809319018091E10083FFD0
:103BD0002CC08091E20083FF28C08091E100877FA4
:103BE0008093E10082E08093D1021092D202809112
:103BF000E1008E7F8093E1008091E2008E7F8093D0
:103C0000E2008091E20080618093E20042E060E0A7
:103C100080E00E94D8208091F00088608093F000BE
:103C200081E08093190180931801FF91EF91BF917A
:103C3000AF919F918F917F916F915F914F913F9144
:103C40002F910F900FBE0F901F9018958091170124
:103C50000895FC01EE0FFF1F8E0F9F1FFC01E75A16
:103C6000FA4F6183408322830895539A08958BB15C
:103C7000877F9BB198602FB7F894E9E5F5E035E0D0
:103C8000ED37F30789F0319148E09BB9000000C09F
:103C900037FF8BB9330F000000C000C000C08BB9E4
:103CA00000C04A9591F7EBCF2FBF8FE594E00197C5
:103CB000F1F700C000000895A0E0B0E0E2E6FEE108
:103CC0000C944331FC016280548081E08483E1E6FE
:103CD000F9E07490E0EEF9E0E491C0914E05C695EC
:103CE000C158D0E0CC0FDD1FED2EFF24812C25E044
:103CF000922EAA24AA94B12CE719CE2ED12C809111
:103D00002101881608F09BC0082D10E022E026153E
:103D100068F0909EF001919EF00D1124E15FFA4F42
:103D200080914C05808380914D05818351100AC09C
:103D3000909EF001919EF00D1124E15FFA4F1382E5
:103D4000128260C0909EC001919E900D1124EC01E2
:103D5000C15FDA4F8B818823F9F081508B832FEF7D
:103D6000829FC00111246C8170E00E942C31FB0104
:103D7000FF27EF59F64F8491E82FE7192FEFE29FC5
:103D8000C0011124B6010E942C3180914E05689F1C
:103D9000B00111247A8336C00E94C331B5010E945C
:103DA000B1328E159F0574F582E0861588F40E9465
:103DB000C331B5010E94B13288830E94C331209182
:103DC0004D052695622F70E00E94B132280F29839D
:103DD000909EF001919EF00D1124E15FFA4F128246
:103DE00080914E05843120F0893C18F088EC01C0A8
:103DF00084E1909EF001919EF00D1124E15FFA4F55
:103E00008483838380911F019801280F311D909E28
:103E1000F001919EF00D1124E15FFA4F4281473984
:103E200008F046E9909EF001919EF00D1124E15FAB
:103E3000FA4F618180810E94682B839460CF0E9439
:103E40006C2ACDB7DEB7EFE00C945F310F931F9370
:103E5000CF93DF938C01C0E0D0E080912101282F27
:103E600030E0C217D3074CF5869590E0F801348115
:103E700020911F01C817D9073CF4332389F0CE01E4
:103E8000820F911D9C0106C031110AC0FE01E20F94
:103E9000F11D9F0140914E05473938F046E905C0B4
:103EA000CE01820F911D9C0140E060914D058091F3
:103EB0004C050E94682B2196D0CF0E946C2AF801F5
:103EC000848190E00196817099278483DF91CF915E
:103ED0001F910F910895A0E0B0E0E1E7FFE10C949D
:103EE0004631EC014C81042F10E09801D8010E946A
:103EF00088329B01AC010E9453326B017C01E0E2ED
:103F0000F0E0E01BF10BA5E5B0E09B01AC010E94E5
:103F100053324B015C019F01DF010E94CB329B01B8
:103F2000AC010E945E329B01AC012C0D3D1D4E1D6B
:103F30005F1DC501B4010E946632822FF22E99E204
:103F4000921728F093E0299F900111240DC025E5D8
:103F500030E0281B3109C901880F991F280F391F2C
:103F600037FF02C02F5F3F4F35952795122F1095D1
:103F700000E085E5E82EEF18809121010817A8F4EC
:103F800001FD02C08E2D01C08F2D90911F01202FA9
:103F900030E0290F311D412F173908F046E96091B3
:103FA0004D050E94682B0F5FE7CF0E946C2A8C8121
:103FB000811102C091E003C0803219F49FEF909309
:103FC0001C0190911C01890F8C83CDB7DEB7ECE00A
:103FD0000C9462311F93CF93DF93EC018C8181119C
:103FE00009C081E08C8310920E0592E090931B0132
:103FF00080931A0110911F0180912001181768F415
:1040000080911D01912F981B20E040E060E0892FF6
:1040100090E00E94291E1F5FEFCF10E06091210108
:10402000161790F5E12FF0E070E0CF010E94B13259
:1040300020911F01820F20910E05022E000C330BE0
:10404000E217F307B4F020911B01022E000C330B92
:104050002E173F0774F0282F30E040914E05473966
:1040600008F046E960914D0580914C050E94682B4F
:1040700009C090911D01891B20E040E060E090E0C4
:104080000E94291E1F5FCACF0E946C2A80911A01CC
:1040900020910E05280F20930E0590911B01980F7B
:1040A00090931B0119165CF4022E000C330B409107
:1040B000210150E0415051092417350734F0819512
:1040C00080931A01813009F41C82DF91CF911F91F6
:1040D0000895CF93DF93EC0140914E059C8190FFB2
:1040E00002C0842F01C080E091FF02C0642F01C094
:1040F00060E092FF40E00E94882A8C8190E0019667
:10410000877099278C83DF91CF9108952091E400E7
:104110003091E50095E64091EC00842F817040FFDE
:1041200023C08091E80080FD1DC08091D1028823CA
:1041300099F0853099F08091EB0085FD11C0409198
:10414000E4005091E5002417350729F3915011F050
:104150009A01E1CF84E0089582E0089583E0089514
:1041600081E0089580E008954091E80042FFDDCFAE
:1041700008958091D30287FF11C08091E80082FDED
:1041800005C08091D1028111F8CF11C08091E80063
:104190008B770BC08091D102882349F08091E80091
:1041A00080FFF8CF8091E8008E778093E800089533
:1041B000982F973068F59093E900981739F070912F
:1041C000EC002091ED005091F00003C0242F762FD9
:1041D00050E021FD02C09F5FECCF3091EB003E7FAD
:1041E0003093EB003091ED003D7F3093ED00309146
:1041F000EB0031603093EB007093EC002093ED0006
:104200005093F0002091EE0027FDE5CF80E0089567
:104210008F708093E90081E008952091D902309158
:10422000DA022617370748F06115710539F4209135
:10423000E8002E772093E80001C0B901FC0120E0DE
:104240006115710579F18091D1028823F1F18530F2
:10425000F1F18091E80083FD3CC08091E80082FD8F
:104260002EC08091E80080FFEBCF2091F300809179
:10427000F20090E0922B6115710551F088309105A4
:1042800038F421912093F100615071090196F3CF28
:1042900021E0089709F020E08091E8008E77809374
:1042A000E800CECF2111CFCF0AC08091D102882360
:1042B00061F0853061F08091E80083FD0AC0809153
:1042C000E80082FFF2CF80E0089582E0089583E065
:1042D000089581E008950F931F93CF93DF938B018F
:1042E000EA019091D102943079F58F708093E900C2
:1042F0008FEF9091E800815095FD06C095ED9A955D
:10430000F1F700008111F5CF8091E80085FF1CC016
:104310000E948620882361F08091E8008E77809348
:10432000E80012C0F80181918F018093F10021977C
:10433000209791F38091E80085FDF4CF8091E8000B
:104340008E778093E800E4CFDF91CF911F910F919A
:10435000089543E050E0BC0184E00E946B21089581
:1043600046E050E0BC0184E00E946B21089540E2E9
:1043700050E0BC0184E00E946B210895CF93DF934D
:10438000EC0148E050E0BC0181E00E946B2188E034
:10439000FE01A7ECB2E001900D928A95E1F7DF9162
:1043A000CF91089587E797E79093010880930008DD
:1043B0009AE088E10FB6F894A895809360000FBE4C
:1043C00090936000FFCF78941F920F920FB60F92D8
:1043D00011248F939F93AF93BF93809198059091F1
:1043E0009905A0919A05B0919B050196A11DB11D5B
:1043F0008093980590939905A0939A05B0939B0597
:10440000BF91AF919F918F910F900FBE0F901F9012
:1044100018952FB7F894609198057091990580913F
:104420009A0590919B052FBF08952FB7F89480911E
:10443000980590919905A0919A05B0919B052FBF81
:1044400008951F920F920FB60F9211248F939F938E
:10445000AF93BF9380919705811113C08091980508
:1044600090919905A0919A05B0919B054196A11D47
:10447000B11D8093980590939905A0939A05B093E8
:104480009B05BF91AF919F918F910F900FBE0F90A1
:104490001F901895CF93DF93EC010E9415228C1B7F
:1044A0009D0BDF91CF91089590911801913021F4E7
:1044B0009091950597FD03C0E6EEF4E01DC0E82F4E
:1044C000E695E695E695EE31E0F4F0E0E251FB4F3B
:1044D000877021E030E0A90102C0440F551F8A9582
:1044E000E2F7CA01809592818923828308953196EB
:1044F00054E0EC3EF50729F092818913F8CF12823F
:10450000F6CF0895909118019130D1F490919505CE
:1045100097FF16C0E82FE695E695E695EE3140F553
:10452000F0E0E251FB4F877021E030E0A90102C0CA
:10453000440F551F8A95E2F7CA019281892B16C054
:10454000A8EEB4E0EFEF90E02D91821789F0EF3FF5
:1045500019F4211101C0E92F9F5F9630A9F7EF3FB1
:1045600039F00E2E000CFF0BEA51FB4F82830895A9
:104570000895A3E0B0E0EFEBF2E20C94503120910B
:1045800093053091940528173907A1F0909394056D
:1045900080939305E0919105F0919205309751F049
:1045A00024E029839B838A830084F185E02DCE015A
:1045B000019609952396E2E00C946C31A3E0B0E0FB
:1045C000E4EEF2E20C94503120918F053091900589
:1045D00028173907A1F09093900580938F05E091FB
:1045E0009105F0919205309751F023E029839B8348
:1045F0008A830084F185E02DCE01019609952396EA
:10460000E2E00C946C3180918D05882359F0E091A3
:104610009105F0919205309729F00190F081E02DFD
:104620000995089580E00895FF920F931F93CF930B
:10463000DF93C42FD22FF02EFC0185818823B1F0A7
:1046400040938C050E94152290938B0580938A05D8
:1046500080E28C0F883008F06EC0C77081E001C026
:10466000880FCA95EAF70E94501765C080918C05A3
:10467000481355C000918A0510918B050E941522A0
:10468000801B910B883C910508F049C0CD1729F19A
:1046900080E28C0F883040F4C77081E001C0880F41
:1046A000CA95EAF70E94491780E28D0F883048F4D6
:1046B00081E09D2F977001C0880F9A95EAF70E94BC
:1046C0005017F9E3FF1619F000E010E002C000E512
:1046D00010E08F2D0E94651808C099E3F912F4CFFD
:1046E00089E30E94651800E510E00115110549F005
:1046F0008FE99FE00197F1F700C000000150110918
:10470000F4CF8F2D0E94321880E28D0F883098F4FC
:10471000D77081E001C0880FDA95EAF70AC080E21D
:104720008C0F883040F4C77081E001C0880FCA95B3
:10473000EAF70E944917CDB7DEB7E5E00C9469317E
:104740000E94152220918605211104C02091870521
:10475000222321F090938305809382052091880580
:10476000211104C020918905222321F09093810515
:1047700080938005E0919105F0919205309749F082
:1047800082E0809384050680F781E02D84E895E03F
:104790000995089580917F0580FD16C081FD16C0A2
:1047A00082FD18C080917E05882391F0883290F4B4
:1047B00028E0829FC001112468E270E00E94B132BB
:1047C000862F672B29F007C082E0089584E00895C2
:1047D00081E0089588E0089580917F0580FD14C0F0
:1047E00081FD14C082FD16C080917D05882381F073
:1047F0008E3180F420E5829FC00111246EE170E0CB
:104800000E94B132862F089584E1089588E20895C8
:1048100088E0089580E50895282F35EB2303C00133
:10482000112497FF03C08058910902C080589F4F00
:10483000892F0895AB0124E630E0BC0188E70E948F
:10484000D62E21E0892B09F020E0822F0895809157
:10485000580590915705882389F0992369F062E003
:1048600070E083E69AE00E941A24811103C08091CF
:1048700057050895109257059091570581E08927B3
:104880000895809158058823F9F00E940922DC01DF
:10489000CB01805A9541AF4FBF4F80935305909302
:1048A0005405A0935505B093560580915705811185
:1048B0000BC062E070E081E69AE00E941A2488232F
:1048C00019F081E08093570580915705089580E0A5
:1048D00008959091950592FF10C041E0282F247112
:1048E000243009F040E031E0282F2871283009F009
:1048F00030E0431711F02CE0822793FF10C041E015
:10490000282F2471243109F040E031E0282F28714C
:10491000283109F030E0431711F02CE08227309164
:10492000960530FF10C051E0282F2171213009F089
:1049300050E041E0282F2871283009F040E054175A
:1049400011F029E0822731FF10C041E0282F2171AA
:10495000213109F040E031E0282F2871283109F099
:1049600030E0431711F029E0822794FD877E0895F7
:104970008238910569F1B0F48133910509F475C06D
:1049800048F48932910509F467C08A32910509F427
:1049900071C008958533910509F459C08933910593
:1049A000B9F00895833E910589F138F4803E910570
:1049B000D1F0823E910529F10895863E9105C9F115
:1049C000873E9105D9F1843E910509F06CC027C05E
:1049D0002091950520FD57C021FD55C020919605D9
:1049E00023FD5BC008958091950580FD48C08091AE
:1049F000960580FF48C08091950584FD46C083EEF2
:104A000051C08091950582FF3CC0F5CF80919505FE
:104A100082FD37C08091960580FD35C0ECCF809136
:104A2000960581FF36C08091950584FD2EC087EEE6
:104A300039C08091950583FF2AC0F5CF80919505F7
:104A400083FD25C08091960581FD23C0ECCF809128
:104A5000950585FD22C01FC08091950585FD1BC071
:104A60008091960583FF19C00AC08091950586FD47
:104A700016C017C08091950586FD13C010C089E34C
:104A800011C082EE0FC080EE0DC080E00BC086EE3C
:104A900009C084EE07C085E305C089E203C08AE24D
:104AA00001C081E390E00895A0E0B0E0EAE5F5E21E
:104AB0000C9448317C015B016A018091CD058A30FC
:104AC00018F001E010E002C00AE010E0C1E0D0E020
:104AD000B501C701F6010995811115C021960C1782
:104AE0001D0794F0CC9F9001CD9F300D300D112407
:104AF00080E090E045E34A95F1F7000001968217C7
:104B00009307C1F7E5CF81E0CDB7DEB7EAE00C94BB
:104B10006431CF92DF92EF92FF921F93CF93DF9396
:104B2000CDB7DEB72B970FB6F894DEBF0FBECDBF63
:104B300088E0EBE4F5E0DE01119601900D928A9594
:104B4000E1F78091D4059091D505A091D60589878C
:104B50009A87AB871B85C090C905D090CA05E090A5
:104B6000CB05F090CC050E940922DC01CB018C1909
:104B70009D09AE09BF0984369105A105B10510F460
:104B8000112319F180913B0190913C018B549A4F74
:104B900040913A0150E04C30510510F04BE050E0AC
:104BA000BE016F5F7F4F0E942B3383E090E00E9435
:104BB000B130882369F00E9409226093C90570937F
:104BC000CA058093CB059093CC051092D60581E061
:104BD0002B960FB6F894DEBF0FBECDBFDF91CF91FD
:104BE0001F91FF90EF90DF90CF9008958F929F924A
:104BF000AF92BF92EF92FF921F93CF93DF9300D0BB
:104C000000D01F92CDB7DEB77B0180E090E00E941C
:104C1000B130882309F45CC04091250150E0411572
:104C2000510511F041E050E060912601709127019B
:104C30006B547A4FCE0105960E942B338090AD05C0
:104C40009090AE05A090AF05B090B0050E940922EB
:104C5000DC01CB0188199909AA09BB0984369105A1
:104C6000A105B10538F486EB95E00E9493199D816A
:104C7000891781F181E090E00E94B130182F8823DC
:104C800091F040912D0150E04530510510F044E085
:104C900050E060912E0170912F016B547A4FCE013C
:104CA00001960E942B3386EB95E00E94931991E0C8
:104CB0002D81281390E0192341F10E94092260936D
:104CC000AD057093AE058093AF059093B0050FC00E
:104CD00010E001C011E08091B6059091B705A09158
:104CE000B805B091B90589839A83AB83BC8311233E
:104CF00061F089819A81AB81BC818093A9059093F1
:104D0000AA05A093AB05B093AC058091A90590913D
:104D1000AA05A091AB05B091AC05F7018083918302
:104D2000A283B383812F0F900F900F900F900F905D
:104D3000DF91CF911F91FF90EF90BF90AF909F9028
:104D40008F900895F894E82FE295EF70F0E031A18C
:104D5000282F2F7081E090E001C0880F2A95EAF794
:104D6000982F9095932391A392A1892B82A3789455
:104D700008950F931F9380918D05882319F00E9449
:104D800009220EC00E9409220091D6011091D7017C
:104D90002091D8013091D901600F711F821F931F9C
:104DA0001F910F910895CF92DF92EF92FF92CF93D0
:104DB000DF9300D000D0CDB7DEB7C090B105D09062
:104DC000B205E090B305F090B4050E940922DC0121
:104DD000CB018C199D09AE09BF0984369105A10547
:104DE000B10570F10E94B926DC01CB010296A11D2C
:104DF000B11D89839A83AB83BC83809133019091E9
:104E000034018B549A4F4091320150E045305105A6
:104E100010F044E050E0BE016F5F7F4F0E942B33E3
:104E200082E090E00E94B130882359F00E9409226C
:104E30006093B1057093B2058093B3059093B40568
:104E400081E00F900F900F900F90DF91CF91FF9026
:104E5000EF90DF90CF9008957830B0F46530A0F4F3
:104E60008330A0F498E2899FF001112485E0789FB7
:104E7000E00DF11D1124E60FF11DEE0FFF1FEB59A0
:104E8000F54F85919491089580E001C081E090E014
:104E900008951F93CF93DF930E94B824EC01C115AE
:104EA00080E5D807E8F5C11590E4D90708F0A8C057
:104EB000C03ED10530F5CD3CD10508F094C0C83ACC
:104EC000D10578F4C53AD10508F083C0C130D105C9
:104ED00009F47CC008F4F2C0C430D10508F0F1C078
:104EE000EDC0C33CD10508F0E9C0C85AD0E0CC0FF2
:104EF000DD1FC059DE4F0990D881C02DCE019464CA
:104F0000E1C0C11580E2D80708F0CBC0C11591E01F
:104F1000D90708F06BC0C83ED10508F4D2C0CEC096
:104F2000C03682E5D80728F5C03492E5D90708F0E5
:104F300079C0C03282E5D80708F06CC0C11592E58F
:104F4000D90708F481C04C2F4695469580E2489FCA
:104F5000A0011124C37021E030E0C90102C0880F14
:104F6000991FCA95E2F7EA01C82BD92BCE019D689B
:104F7000A9C0C03A82E5D807B8F48C2F8F71C03829
:104F800092E5D90708F07BC08695869590E2899FC7
:104F900090011124C37081E090E002C0880F991F36
:104FA000CA95E2F79A6868C0C03C82E5D80708F461
:104FB0006DC0C03E92E5D90708F080C0CF71DD27F3
:104FC000DC2FCC27CE01806F906A7CC081E090E01E
:104FD00079C0C55AD0E0C359DE4F8881C82FD0E0D0
:104FE000CE0190646FC0CE0190656CC08D2F0E9481
:104FF0006924182FCE0199270E94B8241F715CC024
:10500000CE0199270E94B824CC27DF70D06A8C2B60
:105010009D2B58C0CF71D0E0DC2FCC27CE01816F03
:10502000906A50C08C2F8F718695869590E2899FEB
:1050300090011124C37081E090E002C0880F991F95
:10504000CA95E2F79C6818C08C2F8F710E94692462
:1050500095E0D695C7959A95E1F7CF70D0E0DC2F13
:10506000CC27282F30E084FF05C084E0220F331FB7
:105070008A95E1F7D069CE01822B932B23C090E073
:10508000D82FCC27CE01846F906A1CC08C2F8F71D3
:105090000E9469248F7190E0D82FCC27CE019062B6
:1050A00011C08D2F8F710E946924182FCE0199276E
:1050B0000E94B8241F719062912B04C080E090E0A0
:1050C00001C0CE01DF91CF911F91089580959091FD
:1050D0009C05892380939C05089580918D058823E4
:1050E00019F00E94152208950E94B926CB01089557
:1050F000A6E0B0E0EEE7F8E20C944E310E941522F3
:105100008C0180919D0590919E050817190781F0EB
:1051100019821A820E941522682F49815A81792F9B
:1051200080E090E00E94560E10939E0500939D052E
:105130002696E4E00C946A31ACE0B0E0E2EAF8E2F2
:105140000C944331AE014F5F5F4F7A0188E0DA0182
:105150001D928A95E9F70DE411E06A0181E5682E58
:1051600081E0782EAA24A394B12C26E5822E21E09A
:10517000922EF80180818F3F09F440C0F894E82F07
:10518000E295EF70F0E021A18F70A50102C0440FFD
:10519000551F8A95E2F7CA01922F982B91A392A1ED
:1051A0008095892382A3789400C0E1E5F1E0512C39
:1051B00031E021912F3F89F0A22FA295AF70B0E08E
:1051C00090968C9190E02F7002C0959587952A95C6
:1051D000E2F780FD02C0832F01C080E0582A330F20
:1051E0008E169F0631F7D8018C918F3F11F00E94E7
:1051F000A226B0EABA95F1F7F60150820F5F1F4F71
:10520000FFEFCF1ADF0A6016710609F0B2CF48E04F
:1052100050E0B7018AED91E00E941E33892B99F08E
:1052200088E0F701AAEDB1E001900D928A95E1F7CF
:1052300081E08093A1050E9415229093A0058093A0
:105240009F05F12C29C08091A1058823D1F30091FD
:10525000E301E0909F05F090A0050E9415228E19B1
:105260009F09059770F310E007511E4F44E050E08E
:105270006AED71E0C8010E941E33892B09F406C152
:1052800084E0EAEDF1E0D80101900D928A95E1F712
:10529000FF24F3941092A10580918D05E091E30124
:1052A000882309F479C019861A861B861C860E2F5E
:1052B00010E007511E4F8091CD058A3058F446EF1B
:1052C00055E2BE01675F7F4FC8010E9454258823C5
:1052D000A9F10CC0C090A205D090A3050E94152290
:1052E0008C199D09843F914050F739C043ED56E237
:1052F000BE01675F7F4FC8010E9454258823F1F0EB
:1053000049E855E2BE01675F7F4FC8010E945425FE
:105310008823A1F01092CD058091E20190E044E055
:1053200050E0BE01675F7F4F87519E4F0E941E3342
:1053300021E02093A805892B01F5A2C08091CD051D
:105340008F3F19F08F5F8093CD058091CD058A3016
:1053500018F30E9415229093A3058093A2058091D3
:10536000A805882309F48CC0FE01399684E0DF018A
:105370001D928A95E9F71092A805E091E201F0E00C
:10538000E751FE4F89859A85AB85BC8580839183E3
:10539000A283B38381E075C0F0E0E751FE4F84E063
:1053A000A6EBB5E001900D928A95E1F786EB95E0CA
:1053B0000E9493198093B5058090BA059090BB0523
:1053C000A090BC05B090BD058091A4059091A50565
:1053D000A091A605B091A70588169906AA06BB0656
:1053E000B1F08092A4059092A505A092A605B09276
:1053F000A7050E940922861A970AA80AB90A80926C
:10540000D6019092D701A092D801B092D901809193
:10541000BE05982F917086958695E090BF05D09037
:10542000C005C090C1050091C7051091C805109234
:10543000C805112329F110FF0DC0992349F090915F
:105440004B05916090934B0560E00E94512C02C087
:105450000E94E42A11FF06C020E04C2D6D2D8E2DF8
:105460000E947A2B12FF07C0002319F00E94502AD5
:1054700002C00E94492A13FF03C081E08093D10536
:1054800080E08F292C96EFE00C945F31F12C02CF55
:105490000895E4EDF5E011828281846082830895AD
:1054A00060914B056695669570E04BE050E082E4B4
:1054B00091E00E941133892B19F481E08093D50586
:1054C0000E946D289093CF058093CE058091D605DC
:1054D00084608093D6050895CF9380914B0580FF1B
:1054E00004C00E94371ECF910895C0911F01809182
:1054F0002001C817B0F780911D019C2F981B20E058
:1055000040E060E0892F90E00E94291ECF5FEFCF3E
:105510000F931F93CF93DF9390914B0590FF18C08B
:10552000042F162FD82FC0911F0180912001C8177A
:1055300068F480911D019C2F981B202F412F6D2F07
:10554000892F90E00E94291ECF5FEFCF0E946C2A26
:10555000DF91CF911F910F91089590914B0590FF8E
:105560000EC0473908F046E9762F682F842F0E9435
:105570007A2D962F672F482F892F0E94882A089509
:10558000CF93DF93EC01EBE4F5E0438162818C8102
:105590000E94AD2A8C818F5F8C83DF91CF9108951B
:1055A000CF93DF93EC01EC81F0E0EF59F64F44919B
:1055B000EBE4F5E0628181810E94AD2A8C818F5FEE
:1055C0008C83DF91CF910895EBE4F5E080818E7FAD
:1055D00080830E94492AE4EDF5E082818160828324
:1055E0000E946C2A089580914B05282F26952695B8
:1055F00030E02115310519F48370846005C02B3229
:10560000310524F08370886A80934B0580914E05A4
:10561000873918F086E980934E050895A0E0B0E040
:10562000E4E1FBE20C94463149015A016B017C0133
:105630000E94F32A8401A4016A2D7B2D88E090E06A
:105640000E94123294014A2D5B2DB601C70100E27F
:105650000E94F532622F83E290E00E940032CDB7C3
:10566000DEB7ECE00C94623180914F05882319F08D
:10567000815080934F0520914B0530914C0540910E
:105680004D0550914E0560914F05709150058091E8
:105690005105909152050E940E2B089580914F055F
:1056A000833018F48F5F80934F0520914B05309124
:1056B0004C0540914D0550914E0560914F057091FC
:1056C000500580915105909152050E940E2B08952E
:1056D000CF93762FC22F682F842F0E947A2D472FC9
:1056E00090911D01C91B282F8C2F90E00E94291E2C
:1056F000CF910895A0E0B0E0E0E8FBE20C944B31DC
:10570000182F062FD42FE22E90914B0590FF7CC0CE
:1057100020914C05281308C080914D05861304C0C4
:1057200080914E05841729F08091D6058260809380
:10573000D605E92FE695E695AE2FB0E0A855BE4F09
:105740008C918093D4059C7F943079F48D2FD73938
:1057500008F086E9612F702F0E947A2D962F672F0F
:10576000482F892F0E94882A38C0823019F4D0919E
:105770004E0533C0863081F1893071F1893169F588
:10578000E9518E2F8170D82EE695F0E0EB5AF44F58
:10579000C491F12C60912101F616D8F4FC9EC00151
:1057A000112470E00E942C31812FD11002C0860F8D
:1057B00001C0861B90911F012F2D30E0290F311D54
:1057C0004D2FD73908F046E9602F0E94682BF394DB
:1057D000E1CF0E946C2A01C0122F10934C05009358
:1057E0004D05D0934E05EE2079F020914B05609148
:1057F0004F0570915005312F402F5D2F809151053D
:10580000909152050E940E2BCDB7DEB7E7E00C94C5
:105810006731EBE4F5E0438121E1421B08F440E00D
:1058200021E0628181810E947A2B0895EBE4F5E00A
:10583000438121E1420F08F44FEF21E06281818131
:105840000E947A2B0895EBE4F5E0628121E1621B6E
:1058500008F460E021E0438181810E947A2B089561
:10586000EBE4F5E0628121E1620F08F46FEF21E0E3
:10587000438181810E947A2B0895EBE4F5E08181D8
:1058800021E04381628188500E947A2B0895EBE4E5
:10589000F5E0818121E043816281885F0E947A2B5B
:1058A000089590914B0590FF45C09370811102C0FF
:1058B000946007C08B3210F0986A03C0880F880F7D
:1058C000982B90934B058091D60581608093D605E7
:1058D000662391F020914B0530914C0540914D0588
:1058E00050914E0560914F05709150058091510582
:1058F000909152050E940E2B60914B05669566951E
:1059000070E04BE050E082E491E00E941133892B7B
:1059100019F00E94492A02C00E94502A81E0809317
:10592000D10520E040914E0560914D0580914C05D8
:105930000E947A2B089580914B058695869581501B
:1059400009F48AE261E00E94512C089580914B0590
:10595000869586958F5F8B3208F081E061E00E942A
:10596000512C0895A0E0B0E0E8EBFCE20C94483143
:10597000EC018A8180FF03C0DD24DA9402C0DD24BB
:10598000D3948C8181110DC081E0D81206C0809122
:10599000210181508093D70502C01092D70581E084
:1059A0008C83C12C9CE0A92E80912101C81608F09F
:1059B00045C080911F0190911D01891B8C0D20E035
:1059C00040E060E090E00E94291E04E010E0B12C6D
:1059D000EC2CF12C8091D7058B0D8D302CF06A2D9D
:1059E0000E94A332892F05C087FF03C09091210137
:1059F000890F082E000C990BE816F906C9F480915E
:105A00001F019701280F311D80914E05809FA00135
:105A1000819F500D112455954795559547954739C8
:105A200008F046E960914D0580914C050E94682B75
:105A3000BD0C0150110971F6C394B6CF0E946C2AB7
:105A40008091D70591E0D9120EC0811107C08091D5
:105A5000210181508093D7051C820FC08150809313
:105A6000D705DC820AC090E001966091210170E0C8
:105A70000E94B1328093D7058C83CDB7DEB7EAE0C0
:105A80000C946431EF92FF921F93CF93DF93EC015C
:105A900010E0EE24EA94F12C609121011617D0F465
:105AA00080911F01212F30E0280F311D40914E05BC
:105AB000473908F046E970E0C7010E94B132962FDD
:105AC0008C8160914D05199F800D11240E94682BD7
:105AD0001F5FE2CF0E946C2A9A818C8190FF02C0E6
