:100000000C942C030C9464030C9464030C9464030C
:100010000C9464030C9464030C9464030C946403C4
:100020000C9464030C9464030C94182B0C94F02B24
:100030000C94CD2A0C9464030C9464030C94640314
:100040000C9464030C9464030C9464030C94640394
:100050000C9464030C94F42A0C9464030C946403CD
:100060000C9464030C9464030C9464030C94640374
:100070000C9464030C9464030C9464030C94640364
:100080000C9464030C9464030C9464030C94640354
:100090000C9464030C9464030C9464030C94640344
:1000A0000C9464030C9464030C946403050109022A
:1000B000A10185020901A1000509190129081500FE
:1000C0002501950875018102050109300931158165
:1000D000257F95027508810609381581257F9501D0
:1000E00075088106050C0A38021581257F95017572
:1000F000088106C0C005010980A101850319012AF4
:10010000B700150126B700950175108100C0050CD8
:100110000901A101850419012AA002150126A002E6
:10012000950175108100C005010906A1018506052C
:100130000719E029E71500250195087501810205D9
:1001400007190029EF1500250195F07501810205B9
:10015000081901290595057501910295017503910D
:1001600001C00660FF0961A1010962150026FF00B8
:100170009520750881020963150026FF00952075FA
:10018000089102C005010906A101050719E029E748
:1001900015002501950875018102950175088101F9
:1001A0000507190029FF150026FF0095067508812F
:1001B000000508190129059505750191029501753C
:1001C000039101C009025B00030100A0FA090400C9
:1001D0000001030101000921110100012240000773
:1001E0000581030800010904010002030000000961
:1001F00021110100012222000705820320000107CE
:1002000005030320000109040200010300000009A6
:10021000211101000122B60007058403200001120C
:100220000100020000000864698702000201020068
:10023000010E034900440038003700760032000008
:10024000000E03490044004F00420041004F0000EF
:100250000004030904290000003A003B003C003D73
:10026000003E003F00400035001E001F002000211E
:100270000022002300240025002B0014001A00088F
:1002800000150017001C0018000C003900040016AF
:1002900000070009000A000B000D000E00E100003D
:1002A000001D001B0006001900050011001000E0F1
:1002B00000E300E200E400215200002C00E700E629
:1002C000000000480047004500440043004600424B
:1002D00000410027004B004A002A0000002E004980
:1002E000002D00260000004E004D00310030002F90
:1002F000004C001300120000000000520028000013
:10030000003400000033000F0000004F00510000D7
:1003100000E5003800500037003600007C00000186
:1003200000010001000100010001000100010001C5
:1003300000010001000100010001000100010001B5
:100340000020782178010001000100010001000176
:1003500000010001002278010001000100010001FC
:100360000001000100000001000100010001000186
:1003700000137001000100010001000100010000F4
:100380000001006500010000000100010001000102
:1003900000010001000100010001000100237801BB
:1003A0000000000100010001000100000025782488
:1003B0007801000100010026780100010000000022
:1003C000002778010000000100000001000100008A
:1003D00000297828780000225201002A78010001C3
:1003E0000001000000010001000100010001000106
:1003F000000100027703770477057706770777080F
:100400007709770A7701000D770E770F771077114C
:10041000770100010001000100010001000100015D
:1004200000010001000100010001000000010001C5
:1004300000010001000100010001000100010001B4
:1004400000010001000000010001000100000001A6
:100450000001000100010001000100010001000C89
:100460007701000100010000000100010001000B04
:1004700077000001000100010001000100010001FE
:100480000001000000000001000100000001000068
:100490000001000100000001000100000001000156
:1004A0000001000100010000010101010101010141
:1004B0000102020202020202020203030303030317
:1004C00003030404040404040405050505050606E5
:1004D00006060607070707070808080809090909A3
:1004E0000A0A0A0B0B0B0C0C0C0D0D0D0E0E0E0F49
:1004F0000F0F1010111111121213131414151516D9
:10050000161717181819191A1A1B1B1C1D1D1E1E49
:100510001F2020212222232424252626272829299A
:100520002A2B2C2D2D2E2F303132323334353637C5
:1005300038393A3B3C3D3E3F4041424344454647C3
:1005400048494A4C4D4E4F50515354555658595A9C
:100550005B5D5E5F616264656668696B6C6D6F7040
:1005600072737577787A7B7D7E8082838587888AAF
:100570008C8E8F91939596989A9C9EA0A2A3A5A7E6
:10058000A9ABADAFB1B3B5B7BABCBEC0C2C4C6C9E2
:10059000CBCDCFD1D4D6D8DBDDDFE2E4E7E9EBEE9B
:1005A000F0F3F5F8FAFDFF00000000000000000085
:1005B000000000000000000000000000000000003B
:1005C00000000000000000000000007E0F00D4FFCB
:1005D000FFFFC70000007800000000000000002AB4
:1005E0002B280000000000000000000000000000B8
:1005F000000029000000002C1E3420212224342673
:1006000027252E362D3738271E1F2021222324256B
:10061000263333362E37381F0405060708090A0B20
:100620000C0D0E0F101112131415161718191A1B92
:100630001C1D2F3130232D350405060708090A0B30
:100640000C0D0E0F101112131415161718191A1B72
:100650001C1D2F3130354C0011241FBECFEFDAE0C6
:10066000DEBFCDBF04B603FE18C080910206909194
:100670000306A0910406B09105068730904BA74071
:10068000B04B59F410920206109203061092040621
:1006900010920506E0E0F8E3099526E0AEE0B3E04D
:1006A00001C01D92A230B207E1F713E0A0E0B1E073
:1006B000E2E3FDE502C005900D92AE30B107D9F737
:1006C0000E941F250C94DF2D0C9400008093C4051C
:1006D00008958093C505089521E030E001C0220F00
:1006E0008A95EAF78091C505822B0E9469030895D7
:1006F00021E030E0A90102C0440F551F8A95E2F7BE
:10070000CA0180959091C50589230E9469030895C7
:10071000292F9B3098F5893088F590E039E0239FA8
:10072000800D911D1124282F277041E001C0440F36
:100730002A95EAF723E0969587952A95E1F7FC013B
:10074000EE0FFF1FE80FF91FE657FA4F20E030E0E9
:1007500070E05191DF011197CB01022E02C09695F6
:1007600087950A94E2F781708195852784238527F0
:100770008C932F5F3F4F2330310559F70895292F70
:100780009B3078F5893068F590E039E0239F800D43
:10079000911D1124682F677023E0969587952A95FF
:1007A000E1F7FC01EE0FFF1FE80FF91FE657FA4FC4
:1007B00040E050E080E0219130E0062E02C0369506
:1007C00027950A94E2F721703327042E01C0220FE7
:1007D0000A94EAF7822B4F5F5F4F4330510559F778
:1007E000089580E008958091CB059091CA059813F3
:1007F00001C008958F5F8770FACF909113019923FC
:10080000E1F09091C70597FF18C0E82FE695E695AF
:10081000E695803FF0F4F0E0E05FFC4F877021E068
:1008200030E0A90102C0440F551F8A95E2F7CA01C2
:1008300080959281892382830895E2E1F3E091918A
:10084000891303C0DF0111971C9253E0E831F507CB
:10085000B1F708952091C605809582238093C6053F
:10086000982F9770911113C030E0482F082E000C7C
:10087000550B2417350759F09091C80592FF07C012
:100880008595859585950E9478031092C6050895F3
:10089000982F90958091C20589238093C205089571
:1008A0008091C30581111092C30508952091C70559
:1008B00022FF06C0982F98719830C1F4877F84601A
:1008C0009091C805392F3170927023FF21C0482FB5
:1008D0004871483191F4877E84619923B1F0982F53
:1008E0009171913191F48E7E88610FC0982F94712F
:1008F000943031F78B7F8860E3CF482F44714431C7
:1009000039F48B7E8861911118C024FD877E08958B
:10091000332369F0382F3871383019F4877F8160BC
:10092000DCCF382F3171313011F48E7F88609923FC
:1009300061F3982F9871983191F6877E8161E5CFA8
:10094000CF93DF93EC01803E910509F478C088F5E0
:100950008133910509F4C0C090F48932910509F4FE
:10096000B0C08A32910509F4BEC0019709F47AC07B
:10097000CE010497813A910508F06DC073C08933A8
:10098000910509F450C08238910509F44CC08533B3
:10099000910509F491C08D3C910508F010C1883A89
:1009A000910508F0A7C0853A910510F3A497D0648B
:1009B00059C0843E910509F464C088F4823E9105D3
:1009C00009F44CC0833E910509F450C0C83ED105DE
:1009D00008F448C0CE019A958F3F9E41CDCF863E08
:1009E000910509F459C0873E910509F45AC0803237
:1009F00022E5920708F0A4C0811542E5940708F0AB
:100A0000E3C0811550E5950708F484C08F710E94FA
:100A10005604E5E0D695C795EA95E1F7CF709C2F8F
:100A2000EC01D0691FC08091C705837081110CC192
:100A30008091C80583FF16C0C9E2D0E013C0809141
:100A4000C70580FD46C09091C80590FF0BC0C3EE5E
:100A5000D0E084FF07C0C0E0D0E004C08091C705AB
:100A600082FDF5CFCE01DF91CF9108958091C7052A
:100A700082FDE7C09091C80590FDE6C084FFF2CFEB
:100A8000EACF8091C80581FFEDCF8091C705C7EE01
:100A9000D0E084FDE0CFE6CF8091C70583FDF7CF9E
:100AA000E1CF8091C70583FDD2C09091C80591FF29
:100AB000E5CFC4EED0E0D6CF8091C70585FFD2CF79
:100AC000BBCF8091C70585FDC5C08091C80583FF58
:100AD000C9CFC9E3D0E0C6CF8091C70586FFC2CF9A
:100AE000CAE2D0E0BFCF8091C70586FFBBCFC1E38C
:100AF000D0E0B8CF885A9109499708F0ACCFC85ACE
:100B0000D0E0CC0FDD1FC552DD4F0990D881C02D3C
:100B1000D464A8CFC11580E4D80708F052C0C1152D
:100B200020E2D20708F452CF8D2F8F710E94560415
:100B300090E0982F882788279F718C2BEC017FC02D
:100B4000803A924550F5C03882E5D80708F066C073
:100B5000C03622E5D207B0F08C2F86958695877037
:100B600040E2849FC0011124C37021E030E0A9015C
:100B700002C0440F551FCA95E2F7EA01C82BD92BD2
:100B8000DA6870CFC03452E5D50790F5CF71D0E068
:100B9000DC2FCC27C16FD06A65CFC03C82E5D80777
:100BA00008F443C0CE01805C9245809708F053CF93
:100BB000DC2FCC27CC27DF71C06FD06A53CFD06534
:100BC00051CFDF70D06A4ECF8695869520E2829F06
:100BD000C0011124C37021E030E0A90102C0440F1C
:100BE000551FCA95E2F7EA01C82BD92BDD683ACF29
:100BF0008C2F86958695877050E2859FC0011124C1
:100C0000C37021E030E0A90102C0440F551FCA950E
:100C1000E2F7EA01C82BD92BDC6824CFCF71D0E0F2
:100C2000DC2FCC27C46FD06A1DCF8C2F8F710E9410
:100C30005604C82FD0E0DC2FCC27CC27DF71D06240
:100C400011CFC2EED0E00ECFC0EED0E00BCFC6EE9B
:100C5000D0E008CFC5E3D0E005CF80E00895F89458
:100C6000E82FE295EF70F0E041A18F7021E030E0D5
:100C7000B90102C0660F771F8A95E2F7CB01962F64
:100C80009095942391A392A1892B82A3789408959F
:100C90008091B30580FD14C081FD14C082FD16C093
:100CA0008091B205882381F08E3180F420E5829F07
:100CB000C00111246EE170E00E94592C862F089526
:100CC00084E1089588E2089588E0089580E5089514
:100CD0008091B30580FD17C081FD17C082FD19C04A
:100CE0008091B105882399F0883298F428E0829F9A
:100CF000C001112468E270E00E94592C6115710551
:100D000051F0862F089562E0FCCF64E0FACF61E0F5
:100D1000F8CF68E0F6CF81E00895A0E0B0E0E3E925
:100D2000F6E00C94822CE82FF0E0E955FB4F7111AE
:100D300009C0E4918E2F7E2F6E2FCDB7DEB7EAE08B
:100D40000C949E2C262F30E0C72FD0E0F491EF2F8B
:100D500086E0829F8001839F100D1124EE24EA9487
:100D6000F12CC801B7010E94452CAB01220F331FA3
:100D700065E5649FC001659F900D1124281B390B08
:100D8000822F880F280FC7018C1B9D0BF89FD00165
:100D9000F99FB00D11248B2F2C9FB0012D9F700D4A
:100DA0001124672F77275701A61AB70AFA9D600109
:100DB000FB9DD00C11247D2D5701A21AB10895017D
:100DC0002C9F50012D9FB00C3C9FB00C1124AB2CDC
:100DD000BB24EA18FB08FE9DE001FF9DD00D112405
:100DE00043305105C1F00C3F93E0190750F44130F6
:100DF000510509F4A1CF4230510589F07E2FED2F26
:100E00009BCF4430510571F046305105B9F3EB2FBB
:100E10008D2D7F2F91CFED2D7B2F8F2F8DCF7B2F82
:100E20008D2F8ACF7D2FEB2FF8CF9C0180E090E0B3
:100E3000269F812D369F800D911D112408959C01C0
:100E40008230910508F408959FEF213E8EE1380726
:100E500040F4C90145E0969587954A95E1F798E0F9
:100E6000980F61E0E62FE90FFF27FF1FAF015595AF
:100E70004795842F449FF001459FF00DF00D1124FC
:100E80002E173F0738F49FEF940F961758F78FEF00
:100E9000860F08954F3FE9F361E0640FF6CF982F76
:100EA000E82F96FDE0958E2F8F7096FD8F5FE6956B
:100EB000E695E695E670F0E0E95DFE4F2181289F1A
:100EC000202D812D112422952F708295807F282B33
:100ED0008081820F97FD819580580895FC019B01C8
:100EE000009719F4832F80780895AC0197FF04C010
:100EF00044275527481B590BB901640F751F37FD4F
:100F00000FC0C901841B950BA5E0880F991FAA95F6
:100F1000E1F70E94592C80E2861BF7FD8195089528
:100F2000CB0165E0880F991F6A95E1F7BA01621B52
:100F3000730B0E94592C80E6EFCF1F93172F922F2F
:100F4000E42FF0E0EE0FFF1FEA55FE4F408124EE44
:100F5000429F412D1124E72FF0E050E09A01245EDA
:100F60003F4F291B310937FF03C0319521953109C6
:100F700093E0220F331F9A95E1F7E21BF30BF7FF83
:100F800002C0E0E0F0E07E2F719F712D11241F91CF
:100F900008951F93182F822FE42FF0E0EE0FFF1F0C
:100FA000EA55FE4F408124EE429F412D1124E12F4E
:100FB000F0E050E09A01245E3F4F281B310937FFD3
:100FC00003C031952195310983E0220F331F8A95A3
:100FD000E1F7CF01821B930B9C0197FF02C020E039
:100FE00030E0219F212D1124822F1F9108950F930E
:100FF0001F93CF93DF93D62F172FC82FBA01C901A4
:10100000212F201B022F0E946E07982F990F990FF6
:10101000782F791B700F719F712D11246D2F8C2FDC
:10102000DF91CF911F910F910895FF920F931F931E
:10103000CF93DF93D62FC72F182FBA01C901F12EF6
:10104000F01A0E946E07982F990F990F082F091B0D
:101050000F0D019F012D11246D2F7C2F802FCDB7F7
:10106000DEB7E5E00C94A32CEF920F931F93CF9380
:10107000DF93D62F172FC82FBA01C9010E19010F00
:101080000E946E07702F781B719F712D11246D2F98
:101090008C2FDF91CF911F910F91EF900895EF92D8
:1010A0000F931F93CF93DF93D62FC72F182FBA011B
:1010B000C9010E19010F0E946E07081B019F012D27
:1010C00011246D2F7C2F802FDF91CF911F910F91D5
:1010D000EF900895622F0895E42FF0E0EE0FFF1FC8
:1010E000EA55FE4F6081621B0895E42FF0E0EE0F99
:1010F000FF1FE955FE4F6081621B0895322F50E0BB
:10110000FA01EE0FFF1FE955FE4F9081905297FDB7
:101110009195440F551FFA01EA55FE4F2081231B7C
:10112000330B290F311D97FD3A95620F0895EF9209
:101130000F931F9310E09801220F331F200F311FD0
:10114000359527956E2D620F1F910F91EF900895A1
:101150000F93CF93DF93D72FC82FB90147FD419548
:1011600028E330E0241B310947FD3395229FA0017D
:10117000239F500D500D1124669FC001679F900D55
:10118000900D1124840F951F0E941F07982F990F0F
:10119000692F680F600F7D2F8C2FDF91CF910F91FA
:1011A00008950F93CF93DF93D72FC82FBA01C901AA
:1011B0000E946E07682F600F7D2F8C2FDF91CF91DB
:1011C0000F910895EF920F93CF93DF93D72FC82FEE
:1011D000BA01C9010E190E946E07602F681B7D2F8E
:1011E0008C2FDF91CF910F91EF9008950F931F9364
:1011F000522F10E0F801EE0FFF1FE955FE4FA081BE
:10120000A052BB0B9D015203F001539FF00D11241E
:10121000000F111FD801AA55BE4F2C912057330B38
:101220004203D001439FB00D11249F012A0F3B1FA1
:1012300037FF02C021583F4F220F232F221F330BAD
:10124000620F1F910F9108950F931F93522F10E07B
:10125000F801EE0FFF1FE955FE4FA081A052BB0B16
:101260009D015203F001539FF00D1124000F111F37
:10127000D801AA55BE4F2C912057330B4203D00101
:10128000439FB00D11249F012A0F3B1F37FF02C05F
:10129000215C3F4F96E0359527959A95E1F7620FCF
:1012A0001F910F9108950F931F93A42F10E0F80141
:1012B000EE0FFF1FEA55FE4F9081905797FD9195D5
:1012C000000F111FF801E955FE4F00810052110B6C
:1012D0002003A001219F500D112428E330E0291B99
:1012E000310997FD33951A2F1203F001139FF00D6A
:1012F00011244E0F5F1F9A01220F331F240F351F39
:1013000037FF02C021583F4F220F232F221F330BDC
:10131000620F1F910F9108950F931F93CF93DF9347
:10132000D62F072F182FC42F822F0E944F07982FD8
:10133000EC2FF0E0EE0FFF1FEA55FE4F8081805842
:10134000980F97FD9195990F292F3CE0239F212D10
:101350001124622F6D0F702F812FDF91CF911F917C
:101360000F910895E42FF0E0EE0FFF1FEA55FE4FB6
:101370009081921B97FD9195292F38E1239F212D74
:101380001124620F08954095282F429F412D11246A
:10139000842F089522E8241B08F420E0620F0895AA
:1013A000EF92FF920F93970195E0099F200D311D59
:1013B00011242F3F310519F010F02FEF30E0209568
:1013C000382F320F08F43FEF832F0F91FF90EF90EB
:1013D0000895EF92FF920F93E00EF11CF90137FF91
:1013E00003C0F195E195F10924E0EE0FFF1F2A9566
:1013F000E1F7EF3FF10519F014F0EFEFF0E09A019B
:1014000057FF03C031952195310994E0220F331F16
:101410009A95E1F72E173F070CF4F901EE0DFF1D29
:10142000EF3FF10519F010F0EFEFF0E02E2F2095CF
:10143000382F320F08F43FEF832F0F91FF90EF907A
:101440000895EF92FF920F93972FFA01B901970138
:10145000093430F4201B31092F3F310519F010F009
:101460002FEF30E03896719740F0AB01485F5F4F47
:101470004131510510F02FEF30E02095382F320F19
:1014800008F43FEF832F77FF02C06D5F7F4F7595A4
:101490006795759567952091BD05620F792F0F911E
:1014A000FF90EF900895EF92FF920F939701201B0A
:1014B00031092F3F310519F010F02FEF30E0322FB6
:1014C0003095482F430F08F44FEF842F620F0F9190
:1014D000FF90EF900895EF92FF920F939701201BDA
:1014E00031092F3F310519F010F02FEF30E0209532
:1014F000382F320F08F43FEF832F0F91FF90EF90BA
:10150000089590914605982B9093460508950E9462
:10151000480B08950E94530B08958091BC05837079
:101520008111109214018091BC058C7F8093BC05C1
:101530000895982F862F2091BC052370222389F0CF
:10154000992381F0993280F49F73990F990F20911C
:10155000BC052370922B9093BC05109214010E943D
:10156000810A089591E0F1CF98E2EFCF8091BC0518
:10157000869586958F5F893208F081E061E00E9450
:10158000990A08959091BC05969596958FEF890FCD
:10159000913009F488E261E00E94990A0895982F39
:1015A000822F2091BC052370222359F09093BD0512
:1015B0006093BE05453B08F044EB4093BF050E9495
:1015C000810A0895ECEBF5E0818190E021E0438110
:1015D000628108960E94CF0A0895ECEBF5E08181C4
:1015E00021E0438162818850990B0E94CF0A0895BF
:1015F000ECEBF5E0628120E1620F08F46FEF81818E
:1016000021E0438190E00E94CF0A0895ECEBF5E0E1
:10161000628120E1621B08F460E0818121E0438166
:1016200090E00E94CF0A0895ECEBF5E0438120E1C1
:10163000420F08F44FEF818121E0628190E00E9427
:10164000CF0A0895ECEBF5E0438120E1421B08F45A
:1016500040E0818121E0628190E00E94CF0A0895FC
:10166000ECEBF5E0248130E1230F08F42FEF248325
:1016700081E00E94810A0895ECEBF5E0248130E1DD
:10168000231B08F420E0248381E00E94810A08954E
:10169000FC01EE0FFF1FE80FF91FEA59FC4F6183B1
:1016A000408322830895FF920F931F93CF93DF937C
:1016B000182F062FF42EC0E0D0E02F2D402F612FE1
:1016C000CE010E94480B2196C736D105B1F7CDB7A0
:1016D000DEB7E5E00C94A32CFA01882311F00995FC
:1016E0000895FB01FCCFE0916805F0916905309702
:1016F00029F00190F081E02D0995089580E008958A
:10170000A3E0B0E0E6E8FBE00C948A2C9C01809119
:1017100064039091650382179307A1F030936503EA
:1017200020936403E0916805F0916905309751F0CA
:1017300083E089833B832A830680F781E02DCE01F5
:10174000019609952396E2E00C94A62CA3E0B0E064
:10175000ECEAFBE00C948A2C9C018091620390914E
:10176000630382179307A1F030936303209362030E
:10177000E0916805F0916905309751F084E0898324
:101780003B832A830680F781E02DCE0101960995DF
:101790002396E2E00C94A62C9C01809113018823EF
:1017A000C1F08091C70587FF14C0862F8695869566
:1017B0008695603FF8F4F901E80FF11D677021E0AC
:1017C00030E001C0220F6A95EAF78281822B828382
:1017D0000895F90132968FEF90E04191641751F02E
:1017E0008F3F19F4411101C0892F9F5F9630A9F7EF
:1017F0008F3F09F40895280F311D87FD3A95F901AF
:10180000628308952FB7F89480919F049091A0046B
:10181000A091A104B091A2042FBF08950E94020CD0
:101820002091B6053091B705232B222321F0809318
:101830002D0590932E052091B8053091B905232BE5
:10184000222321F080932B0590932C05E0916805CD
:10185000F0916905309749F082E08093B4050480E7
:10186000F581E02D84EB95E009950895662309F450
:101870004BC0E3E3E80FE33150F4F0E0EF51F24DF9
:101880000C946D2C0E94480681958093B7050E94A8
:101890000E0C08950E944806F8CF0E9448068195D4
:1018A0008093B605F4CF0E944806FACF0E946806DE
:1018B0008093B805ECCF0E9468068195F9CF0E940D
:1018C000680681958093B905E2CF0E946806FACF39
:1018D000815D990B21E030E001C0220F8A95EAF783
:1018E0008091B505822B8093B505D1CF8091B3054A
:1018F00081608093B305CBCF8091B3058260F9CF2F
:101900008091B3058460F5CF4091B6058D3C59F4C4
:101910008091B70587FF0DC01092B705442359F495
:101920001092B20508C08E3C81F48091B70518165C
:101930009CF3442381F08091B8059091B905892BDF
:101940008111A5CF1092B105A2CF8F3C41F447FF82
:10195000F0CF1092B6058091B7058823E0CF803D87
:1019600019F41416B4F3E5CF9091B805893D29F424
:101970001916FCF61092B805DCCF8A3D19F497FFD2
:10198000D8CFF8CF9091B9058B3D29F497FFD1CFEF
:101990001092B905CECF8C3D19F41916CCF3C9CFEE
:1019A0009FE2980F983090F4815D990B21E030E030
:1019B000B90102C0660F771F8A95E2F7CB018095C7
:1019C0009091B50589238093B505B3CF8D3D31F452
:1019D0008091B3058E7F8093B305ABCF8E3D21F40C
:1019E0008091B3058D7FF7CF8F3D09F0A2CF809115
:1019F000B3058B7FF0CFA4E0B0E0E1E0FDE00C9414
:101A00008A2C8FB7F89420919F043091A0044091C4
:101A1000A1045091A20429833A834B835C838FBF36
:101A200069817A818B819C812496E2E00C94A62CBA
:101A30009C014FB7F89480919F049091A004A091CD
:101A4000A104B091A2044FBF821B930B0895809113
:101A500061030895FC019B0180913F039091400335
:101A60008617970740F0672B29F48091E8008E775E
:101A70008093E800C90140E0009741F4411106C09D
:101A80008091E80082FF2FC080E0089520916705D3
:101A90002223A9F12530A9F12091E80023FD2DC0D2
:101AA0002091E80022FDECCF2091E80020FFE4CF58
:101AB0003091F3002091F200009719F028303105A1
:101AC00058F041E02830310509F040E02091E8006D
:101AD0002E772093E800D0CF41914093F1000197F9
:101AE0002F5F3F4FE9CF80916705882341F0853014
:101AF00041F08091E80083FFC3CF81E0089582E048
:101B0000089583E008958091390387FF13C0809181
:101B1000E80082FF06C08091E8008B778093E800A0
:101B200004C0809167058111F2CF08958091670507
:101B30008823D9F38091E80080FFF8CF8091E800F6
:101B40008E77ECCF2091E4003091E50095E6A90175
:101B50008091EC008170882331F08091E80080FF53
:101B600006C080E008952091E80022FD1BC080910E
:101B70006705882391F0853091F08091EB0085FD19
:101B800010C02091E4003091E5004217530701F3A3
:101B900091509111DCCF84E0089582E0089583E0B4
:101BA000089581E00895E8EDF0E080818E7F8083E4
:101BB0001092E2001092DA001092E100A0EEB0E084
:101BC0008C9181608C9380818F77808319BCA7ED85
:101BD000B0E08C918E7F8C9380818F7E8083109279
:101BE00038030895A0E0B0E0E8EFFDE00C94822C0B
:101BF0005C01C091060185E1C89FC02D112415E14B
:101C00001C0FC12E183610F037E6C32E6091C005A8
:101C100066958091A3049091A4040E941507D82E84
:101C2000D0E0CE01880F991F9C012A553E4F7901C3
:101C3000CC1548F081E0173608F080E0CDB7DEB76C
:101C4000EAE00C949E2CFE01EC58FD4F80819091AF
:101C5000070189238823C1F0F70121812052330B2A
:101C600040814057550B6091BD057091BE05809134
:101C7000BF050D2DF50109950E948D06462F672F92
:101C8000282FCE010E94870AF2E0EF0EF11C219668
:101C9000CFCFA0E0B0E0EFE4FEE00C947D2C4C014F
:101CA000C091060185E1C89FC02D112415E11C0FCC
:101CB000512E183610F037E6532E6091C005669508
:101CC0008091A3049091A4040E941507F82ED0E0FF
:101CD000CE01880F991F9C012A553E4F6901C515F9
:101CE00048F081E0173608F080E0CDB7DEB7EFE0CE
:101CF0000C94992CFE01EC58FD4F808190910701C6
:101D00008923882379F1F6018081282F2057330B0E
:101D100059018181E82FE052FF0B3F01AA9C9001FD
:101D2000AB9C300D300D1124EE9FC001EF9F900D44
:101D3000900D1124820F931F0E941F07082F60919E
:101D4000BD057091BE058091BF05EF2C9301A501E3
:101D5000F40109950E948D06462F672F282FCE018A
:101D60000E94870AF2E0CF0ED11C2196B8CFA5E0E1
:101D7000B0E0EDEBFEE00C94832C6C018091060149
:101D8000898385E19981989F802D11248B83182F59
:101D90001B5EB12E183610F087E6B82E6091C00594
:101DA000669566958091A3049091A4040E941507FE
:101DB000F82E80E48F0D0E944F07805889838F2D65
:101DC0000E944F0780588A83FB81EF2FF0E0FD834C
:101DD000EC839C819B1540F081E0173608F080E091
:101DE0002596E9E00C949F2CEC81FD81EC58FD4F89
:101DF00080819091070189238823A9F06091BD0516
:101E00007091BE058091BF05EF2C0C812A8149811C
:101E1000F60109950E948D06462F672F282F8C8189
:101E20009D810E94870A8C819D8101969D838C8370
:101E3000D0CF0F931F93CF93DF93EC01FC01EC58AD
:101E4000FD4F80819091070189238823D1F1009172
:101E5000BE051091BF054091BD05E42FF0E06091F3
:101E600004017091050185E098E0689F9001699FE9
:101E7000300D789F300D1124275E394C30930501C9
:101E800020930401CF018C549F4F68E671E00E94BB
:101E9000592C8E1B9F0B97FD0396959587959595CD
:101EA0008795230F2370642F289F600D1124702FB6
:101EB000812F0E948D06462F672F282FCE010E946A
:101EC000870ADF91CF911F910F910895A0E0B0E0B4
:101ED000ECE6FFE00C94852C7C01C091060185E1C5
:101EE000C89FC02D112415E11C0FD12E183610F0FB
:101EF00087E6D82E6091C0056695669521E0620F51
:101F000008F46FEF8091A3049091A4040E94150738
:101F1000082FD0E0CD1548F081E0173608F080E0BA
:101F2000CDB7DEB7E7E00C94A12CFE01EC58FD4FD5
:101F30008081909107018923882391F06091BD05EC
:101F40007091BE058091BF05202F4C2FF701099598
:101F50000E948D06462F672F282FCE010E94870AE8
:101F60002196D8CFA0E0B0E0E8EBFFE00C94822C03
:101F70008C01C091060185E1C89FC02D112425E187
:101F8000D22EDC0ECD2C27E62D1510F497E6C92EA7
:101F90002091C00531E0230F08F42FEF30E040E03E
:101FA00050E06FEF7FEF80E090E00E947C2D7901A0
:101FB000D0E0B22EAF2C2C2FCC1550F081E0F6E6FD
:101FC000FD1508F480E0CDB7DEB7EAE00C949E2C56
:101FD000FE01EC58FD4F80819091070189238823F1
:101FE00019F14091BD044150042E000C550B47FFE0
:101FF0001DC08B2D9A2D6091C00521E0620F08F461
:102000006FEF0E941507AC016091BD057091BE0590
:102010008091BF05F80109950E948D06462F672F14
:10202000282FCE010E94870A2196C5CFFA01E354DA
:10203000FB4F818982130AC0FA01EE0FFF1FE354A0
:10204000FB4F818D928D8E159F05A8F2415051094D
:10205000CECFA9E0B0E0EFE2F0E10C947A2C582E5C
:102060006A837B832091060185E1289F802D1124BE
:102070008C838B5E8983282E883610F037E6232EDA
:102080003091BD043D839C81892F90E0998788879A
:10209000880F991FFC01EA55FE4F6F01852D90E0D6
:1020A0009C012F5F3F4F3F832E838885821548F028
:1020B00081E09981973608F080E02996E2E10C945E
:1020C000962CE885F985EC58FD4F808190910701A9
:1020D0008923882301F14090BD053091BE053C83E2
:1020E0008E819F8183549B4F3C01352C10E0FD81F4
:1020F0003F16D8F02091BF05129F112D1124642D99
:102100007C81812F0E948D06462F672F282F88857E
:1021100099850E94870A288539852F5F3F4F398727
:10212000288732E0C30ED11CC0CFF30181913F015B
:10213000F601A080A81ABB088180F3018781881A64
:102140009908AA9C9001AB9C300D300D1124889CFD
:10215000C001899C900D900D1124820F931F0E9445
:102160001F07082F6091C00521E0620F08F46FEF90
:10217000F301EE0FFF1FED5BF440858996890E9405
:1021800015077C019401A501642D7C81812FEA81D2
:10219000FB810995462E7C83182F3394A8CF80911C
:1021A000C505982F9670963021F488600E946903C7
:1021B0000895877FFBCF982FE42FE2709093E9007A
:1021C000891308C0762F242F50E0E11111C091E04F
:1021D000980FF4CF7091EC002091ED005091F00039
:1021E00021FD06C09F5F973049F78093E90008956D
:1021F0003091EB003E7F3093EB003091ED003D7F5E
:102200003093ED003091EB0031603093EB00709330
:10221000EC002093ED005093F0002091EE0027FD9C
:10222000E1CF0895A0E0B0E0E8E1F1E10C94842C66
:10223000C8EDD0E088818F7E8883E7EDF0E0808173
:102240008160808384E082BF81E08093380388814D
:102250008E7F888302EE10E0F80110821092DA007F
:1022600081EEC82ED12CF601108288818F77888369
:1022700088818068888388818F7D888319BC1092CB
:102280006705109237031092E8041092360390EE1F
:10229000E92EF12CF70180818B7F8083888181601A
:1022A000888342E060E080E00E94DB10F6018081DC
:1022B0008E7F8083F8018081816080838081886047
:1022C0008083F70180818E7F80838881806188830D
:1022D000CDB7DEB7E8E00C94A02C6A9A3EB13B7F04
:1022E0002EB124604FB7F89486E693E0FC01019686
:1022F000508168E02EB9000000C057FF3EB9550F6D
:10230000000000C000C000C03EB900C06A9591F74F
:1023100054E08B39950751F74FBF8FE594E0019753
:10232000F1F700C00000089581E08093E00080E2B2
:102330008093D8001092C9008FE19EE40197F1F7D5
:1023400000C0000087E090EBDC01809302069093D0
:102350000306A0930406B093050688E19CE00FB63F
:10236000F894A895809360000FBE90936000FFCF13
:102370000F931F93CF93DF93EB018A019091670531
:10238000943079F58093E9008FEF9091E80095FD06
:1023900007C095ED9A95F1F7000081508111F5CFB6
:1023A0008091E80085FF1DC00E94A20D811114C01C
:1023B0008091E80085FD06C08091E8008E778093CB
:1023C000E800F2CF88818093F100015011090115D6
:1023D000110511F02196ECCF8091E8008E77809363
:1023E000E800DF91CF911F910F910895CF93DF9374
:1023F000D82FC92F80911301811113C048E050E0FC
:102400006D2F792F81E00E94B81180E2ED2FFC2F13
:10241000A1E4B3E001900D928A95E1F7DF91CF91AD
:1024200008958091C70587FD06C048E081E050E02F
:102430006D2F7C2FE8CF40E284E0F9CFBC0146E06D
:1024400050E084E00E94B8110895BC0143E050E0E0
:1024500084E00E94B81108959091C80592FB22274C
:1024600020F9281779F080FB92F99093C8056091C4
:10247000C7057091C80584E090E00E94762D82E047
:102480000E942A040895882381F063E282E290E0AA
:102490000E94582D62E083E290E00E94582D62E194
:1024A00084E290E00E94582D08956FEF82E290E060
:1024B0000E94582D6FEF83E290E00E94582D6FEF3D
:1024C000EFCF1F93CF93DF93962F122F632F83307D
:1024D000D8F49B30C8F44930B8F4C42FD0E0CC0F06
:1024E000DD1F22E1929FC00DD11D112496EC899F22
:1024F000C00DD11D1124CE0186960E94582D612F4A
:10250000CE0187960E94582DDF91CF911F9108959B
:10251000AF92BF92CF92DF92FF920F931F93CF9310
:10252000DF93A12CB12C00E0650110E013C0FE0187
:10253000259134914F2D612F802F0E946112229698
:10254000F39489E0F812F3CF89E0C80ED11C1F5F25
:102550001B3039F0E601CC0FDD1FCB5ADD4FF12CDB
:10256000E6CF0F5F83E6A80EB11C0330E9F6DF91DA
:10257000CF911F910F91FF90DF90CF90BF90AF90C0
:102580000895CF93DF93C8E7D2E060E0CE010E94C8
:10259000582D2196C11584E0D807B9F7DF91CF9166
:1025A000089580E00E94431260E085E290E00E947E
:1025B000582D0E9488120E94C11281E00E9443128D
:1025C000089582E290E00E943A2D833289F483E2FA
:1025D00090E00E943A2D823059F484E290E00E940B
:1025E0003A2D91E0823109F090E0892F81700895B1
:1025F00080E0FCCF0F931F93CF93DF93833030F5B0
:102600006B3020F5493010F5C42FD0E0CC0FDD1F22
:1026100022E1629FC00DD11D112436EC839FC00DB5
:10262000D11D1124CE0186960E943A2D082F10E06C
:10263000102F0027CE0187960E943A2D9801282B53
:10264000C901DF91CF911F910F91089580E090E033
:10265000F8CF462F672F7B3038F4493028F4833089
:1026600018F40E94FA12089580E090E00895A0E026
:10267000B0E0EDE3F3E10C94852C7C010091C505FD
:102680008091C405082BC7E0D0E010E0C8010C2EF3
:1026900002C0959587950A94E2F780FD09C02197BD
:1026A000A8F7D12C8D2DCDB7DEB7E7E00C94A12C87
:1026B000DC2EB7018C2F0E9429130E94A0040197E1
:1026C00071F3F0CF0F931F93CF93FC0182810081B0
:1026D0001181882391F0662381F0C8010E9437138D
:1026E000C82F682FC8010E948803B8018C2F0E9450
:1026F0002913CF911F910F910895C8010E94BF0324
:10270000C82FF3CFCF93DF93D82FC92F0E94371351
:102710006D2F7C2F0E9429130E94A004DF91CF917E
:102720000895FC0183819481892BC9F08181908176
:1027300089238F3FA1F0808191810E948213282FED
:1027400092959F70963091F060F4925F9F709230F6
:1027500030F481E0203F79F030F4283E30F080E022
:1027600004C09A5FF3CF243FD1F7089581E0283E5B
:1027700018F0213FF9CF089508958091C2059091F6
:10278000C905892B809310039091C3059923D9F033
:10279000892B8093100380911301882309F442C090
:1027A0008091C70587FF3EC08DE190E022E133E0D4
:1027B000F90140812F5F3F4F41119F5F8150C0F76A
:1027C00091110E94500440E250E06AE675E080E119
:1027D00093E00E940D2D892B21F180E2E0E1F3E0EE
:1027E000AAE6B5E001900D928A95E1F7E0916805BF
:1027F000F09169053097A9F080911301882359F071
:102800008091C70587FF07C0809110038093110353
:1028100086E0809310030280F381E02D80E193E055
:102820000995089585E0C1CFCF93C82F8823C1F1C2
:102830008CEF8C0F813AB0F580911301882301F160
:102840008091C70587FF1CC0EC2FE695E695E695BD
:10285000F0E0E05FFC4F828190E04C2F477021E078
:1028600030E002C0220F331F4A95E2F78223932300
:10287000892B79F08C2F0E94FD030E94BD1309C0A3
:10288000E2E1F3E08191C817A9F323E0E831F20710
:10289000C9F76C2F80E193E00E94CC0B0E94BD131E
:1028A000CF91089580E28C0F883068F4C77081E082
:1028B00090E001C0880FCA95EAF7C091C205C82B05
:1028C000C093C205EBCF8BE58C0F833038F42C2FEF
:1028D0002452330BC9010E94800BE2CFE8E5EC0FD4
:1028E000E93150F4F0E0EE0FFF1FE552FD4F80811B
:1028F00091810E94A60BD4CF83E38C0F833180F6A5
:1029000061E08C2F0E94360CCBCF882381F19CEFA5
:10291000980F913A28F40E94FD030E94BD13089578
:1029200090E2980F983050F4877091E001C0990FB1
:102930008A95EAF7892F0E944804EFCF9BE5980F0C
:10294000933028F480E090E00E94800B089598E591
:10295000980F993128F480E090E00E94A60B08952A
:1029600093E3980F933118F460E00E94360C0895B9
:102970000F931F93CF93C82F00E010E0893311F419
:1029800000E510E08C2F0E9414140115110539F494
:102990008C2F0E948514CF911F910F9108958FE97C
:1029A0009FE00197F1F700C0000001501109EDCF41
:1029B000882339F09091C205892B8093C2050E942B
:1029C000BD130895882321F00E9448040E94BD137E
:1029D00008950F931F93CF93DF93C62FD42F122FF9
:1029E0008823A9F06093BA050E94020C90933403E7
:1029F00080933303C77081E001C0880FCA95EAF75E
:102A00000E94D814DF91CF911F910F91089580916A
:102A1000BA05681332C080913303909134030E9449
:102A2000180D883C910548F5CD130CC0812F0E94EC
:102A3000B814D77081E001C0880FDA95EAF70E94D8
:102A4000E214E0CFC77001E0802F01C0880FCA9563
:102A5000EAF70E94E21480E28D0F883050F48D2F47
:102A6000877001C0000F8A95EAF7802F0E94D81462
:102A7000DDCF812F0E94B814C5CFC77081E001C09F
:102A8000880FCA95EAF7DBCF1092C2058091130137
:102A9000E2E1F3E0882329F18091C70587FF21C097
:102AA0008EE1DF011D928A95E9F780E090E00E94B7
:102AB000800B80E090E00E94A60B1092C9050E9456
:102AC000BD1386E0E4EBF5E0DF011D928A95E9F79E
:102AD0001092B2051092B1051092B3050E940E0C2F
:102AE000089586E0DECF0E9444152FEF84E39CE03A
:102AF000215080409040E1F700C0000088E19CE058
:102B00000FB6F894A895809360000FBE9093600074
:102B1000FFCFA8E0B0E0EFE8F5E10C947E2C6C016B
:102B2000DC019C9111968C91119713962D913C91FB
:102B3000232B09F4AEC089238F3F09F4AAC061E0BA
:102B4000C6010E9462138C01F6018281882309F478
:102B500025C59801225037472031310508F029C595
:102B60008FEF93E00E943A2D811182C0025058E706
:102B7000E52E52E0F52E01114AC01A821982FE019B
:102B8000339686E0DF011D928A95E9F74AE0642ECC
:102B90005701BFEFAB1ABB0AC7010E943A2D8983C8
:102BA0001A82882309F464C0813009F076C0870155
:102BB0000E5F1F4FC5010E943A2D8A83882309F4B6
:102BC00057C09FEF980F933088F5E3E0EE0EF11CAD
:102BD000C8010E943A2D8B83882309F449C01C82C6
:102BE0008E010F5F1F4FD8018C91882389F28130AD
:102BF00009F08EC011969C91119712968C9191308C
:102C000009F04DC00E5F1F4F0E94B8144EC0E11472
:102C1000F4E0FF0669F1C7010E943A2D97012F5F8A
:102C20003F4F79018111F3CF0150A5CF8430B9F422
:102C300032E0E32EF12CC8010F5F1F4F0E943A2DA6
:102C4000E1E0F0E0EC0FFD1FEE0DFF1D8083882317
:102C500079F08C3731F4FE01EE0DFF1D1282780100
:102C6000BFCFFFEFEF1AFF0A27E0E216F10419F7D2
:102C70008091C6058770882361F0D60112968C91E9
:102C8000882339F08091C80582FF03C082E00E944A
:102C90002A042896EEE00C949A2C7501A1CF92306C
:102CA00039F40E5F1F4F0E9414140F5F1F4F9BCF0C
:102CB000933029F40E5F1F4F0E948514F6CF943095
:102CC00019F00F5F1F4FF1CF0E5F1F4F20E030E074
:102CD000A8014F5F5F4F8053990B8A30910560F0D8
:102CE0002115310511F38FE99FE00197F1F700C03D
:102CF000000021503109F4CF629EB001639E700D37
:102D000011249C01260F371FF80181818A01E0CF31
:102D1000E82FF0E0E952FA4F7490282F2695269577
:102D2000269530E0F901E953FA4F94918770F90143
:102D3000E954FA4FA490B12C082E02C0B594A79480
:102D40000A94E2F7A1E0AA22BB24F901E955FA4F5F
:102D50008490912C082E02C0959487940A94E2F7EF
:102D6000B1E08B229924292F30E002C035952795B8
:102D70008A95E2F720FF0AC081EE0E941414AB2866
:102D8000D1F4872D0E94B81481EE12C0AB2849F40B
:102D9000872D0E94B8148114910409F486CF8CE227
:102DA00033CF86EE0E941414872D0E94B81486EE4D
:102DB0000E948514F0CF86EE0E941414872D0E9485
:102DC000B81486EE0E948514DFCF81E00E946C0368
:102DD0000E94CF104DCF81E00E947803F9CF82E0AE
:102DE000F5CF26E241EE61EE0E94E91441CF27E2E1
:102DF00045EE65EEF9CF26E241EE60EEF5CF27E233
:102E000045EE64EEF1CF26E241EE62EEEDCF27E231
:102E100045EE66EEE9CF28E241E0EBCF0631ECE784
:102E20001E0709F0E0C08091BB058111DAC089E27C
:102E30000E94FD03D3C08091C70581608093C705C0
:102E40006091C7057091C80584E090E00E94762DDE
:102E50000E9444150DCF8091C80588608093C805F5
:102E6000EFCF8091C7058260E9CF8091C70584606C
:102E7000E5CF8091C7058860E1CF8091C80581606A
:102E8000EDCF8091C8058260E9CF8091C705806150
:102E9000D5CF8091C7058062D1CF8091C70580646E
:102EA000CDCF0E9444158091C7058068C7CF80911F
:102EB000C7058C60C3CF8091C8058360CFCF809158
:102EC000C7058E7FBBCF8091C805877FC7CF809114
:102ED000C7058D7FB3CF8091C7058B7FAFCF809122
:102EE000C705877FABCF8091C8058E7FB7CF809114
:102EF000C8058D7FB3CF8091C7058F7E9FCF80910E
:102F0000C7058F7D9BCF8091C7058F7B97CF0E9490
:102F100044158091C7058F7791CF8091C705837F36
:102F20008DCF8091C8058C7F99CF8091C70582FB9A
:102F3000992790F921E0922790FB82F990FB83F981
:102F40007DCF8091C805982F909591708E7F892BA9
:102F500090FB81F983CF9091C705892F8F7B96FFD6
:102F600080646CCF0E9444159091C705892F97FB10
:102F700087F9805863CF61E08EE090E00E94582D81
:102F80005FCF60E0F9CF9091C705892F8F7E94FFC6
:102F9000806154CF9091C705892F8E7F90FF81600B
:102FA0004DCF9091C805892F877F93FF886056CFBA
:102FB0000631FCE71F0709F072C08091C2058A7ACA
:102FC00091E0811101C090E09093BB0565E3811110
:102FD00001C069E280E193E00E94CC0B0E94BD1326
:102FE00047CE85E325CF8091C2058272F801E05279
:102FF000F847E531F10508F067C0EC50F24D0C944C
:103000006D2C8091BC0591E089278093BC051092BE
:10301000140181E00E94810A2BCE42EC5AE066EB5B
:103020007AE00E946C0B24CE46EB5AE062EC7AE028
:10303000F8CF4DEE5AE062EE7AE0F3CF42EE5AE07E
:103040006DEE7AE0EECF46E05BE068EF7AE0E9CF44
:1030500048EF5AE066E07BE0E4CF42E25BE064E107
:103060007BE0DFCF44E15BE062E27BE0DACF4CE380
:103070005BE060E37BE0D5CF40E35BE06CE37BE0CB
:10308000D0CF61E081E00E94990AF2CD61E085E055
:10309000FACF61E08DE0F7CF61E082E1F4CF0A354D
:1030A0002CE7120709F47FC008F056C001304CE746
:1030B000140709F476C003308CE7180709F46BC0D5
:1030C00001151C4709F45AC0F6018281E080F180A5
:1030D000882309F46CC0C7010E943713182F682F8A
:1030E000C7010E948803B701812F0E9429130E9403
:1030F000A0048C01D6011296FC9012971596EC90C4
:10310000E2942FE0E2228091C60587708823C1F007
:10311000AF2CFF20B1F0812F807F803421F080E23E
:10312000800F883068F08091C80582FF09C082E076
:103130000E942A048091C6058770AA24A394811155
:10314000A12CE12FE295EF70103C08F06DC0F0E08B
:10315000E75FF14D0C946D2C0B35ACE71A0729F1A4
:103160000C351C4709F0B0CF8091C80582FB882739
:1031700080F991E089270E942C12A6CF0E94441565
:10318000EFEFF4E32CE0E150F0402040E1F700C025
:1031900000000E9494116FEF7FEF80E090E00E94AA
:1031A000762D0E94731581E0E6CF80E0E4CFC70161
:1031B0000E94BF03182F97CFB12FBF70EB2E103195
:1031C00018F0E29490EFE922FF20B9F0EE2069F0C8
:1031D00080E2800F883010F0011109C08091C20593
:1031E0008E298093C2050E94BD13802F67C08091F5
:1031F000C9058E298093C905F6CF802F0E948514BA
:10320000EE2091F080E2800F883010F0011104C0B0
:103210008E2D0E94480406C0E0948091C9058E213D
:103220008093C9050E94BD13AA20A9F08091C6050C
:1032300080FD11C0F60112828595859585950E94C5
:103240006C03C6010E9489158091C60585958595F8
:1032500085950E94780360E0C6010E94621319CD33
:10326000E12FEF70BE2E107F103219F0B29480EF74
:10327000B822002399F0013009F453C0FF2009F46B
:103280005DC0EE2009F453C0D60115968C911597B8
:1032900080FFABCF8F7015968C9349C02091C805E5
:1032A00022FD17C0FF2069F0BB2039F08091C205D4
:1032B0008B298093C2050E94BD1380E00E941414E4
:1032C000B3CF80E00E948514BB2009F4ADCF8B2DD5
:1032D000A0CFFF20A1F09091C3058B2D892BE11089
:1032E00003C00E94D814A0CFF1E0EF12FACF22FF62
:1032F0009BCF891709F498CF8093C30595CFE11030
:1033000006C00E9450048B2D0E94E2148DCF21E054
:10331000E21609F489CF8B2D0E94E2140E9450041A
:1033200083CFFF2031F035E03E1508F47DCF8B2DA3
:10333000D8CF44E04E1508F477CFE5CFEE2019F34F
:10334000093349F4BFEFE7EEF3E0B150E040F0405D
:10335000E1F700C00000802F0E94851465CF812F07
:10336000869586958370882361F0813009F05CCF63
:10337000C8019370F11002C080E090E00E94A60B9B
:1033800053CFC8019370F11002C080E090E00E941A
:10339000800B4ACF6F2D802F0E94360C45CF812F96
:1033A0008370811134C0F11027C0402F429546959B
:1033B0004770440F440F802F8F70042E01C0880F78
:1033C0000A94EAF70071002341F02FE030E001C0D9
:1033D000220F4A95EAF7022F00951695169513705D
:1033E000123081F0133061F02091C405113039F0B2
:1033F000802B82230E9466030E94730B15CF822BC1
:10340000802BF8CF802B9091C4058927F3CFFF2024
:1034100051F110FFF1CF402F429546954770440F70
:10342000440F802F8F70042E01C0880F0A94EAF792
:103430000071002341F02FE030E001C0220F4A95D7
:10344000EAF7022F0095169516951370123089F041
:10345000133069F02091C505113041F0802B822393
:103460000E946903C9CF823038F2D5CF822B802BDE
:10347000F7CF802B9091C5058927F2CF1F70FF20D1
:1034800039F0812F0E946C03802F0E94D814B4CF92
:10349000802F0E94E214812F0E947803ADCF023F5B
:1034A00069F178F4003FC1F0013F09F43EC0FF200C
:1034B00009F462C0EE2009F45CC0802F0E9414144D
:1034C0009BCF033F11F1043F61F1F110F3CFE11005
:1034D00061C0812F8F71E0CFFF2069F024E02E15AD
:1034E00008F48ACF1F7181E090E0012E01C0880F9F
:1034F0000A94EAF7BFCF35E0E316F2CF812F8F7140
:10350000F110CACF0E946C0377CF80E0FF2009F44E
:10351000A7CF1F7181E0012E01C0880F0A94EAF73E
:103520009FCF8091C80582FD06C0812F8F71FF203B
:1035300009F4B2CFE7CFFF2089F01F71812F0E94DD
:103540006C038091C80582FF07C048E0149FC0014A
:10355000112483608093C605812FD4CF81E00E941F
:103560002A0481E08E1508F047CF82E00E942A04E9
:1035700043CF812F8F71C6CFEE2009F4AACF093334
:1035800049F49FEFA7EEB3E09150A040B040E1F7BF
:1035900000C00000802F0E9485142ECF0115F7E790
:1035A0001F0709F418CC013027E7120761F582E004
:1035B00013CC011537E7130709F407CC013047E7AF
:1035C000140709F40CCCF801E851FC47E730F10589
:1035D00008F11092BA05C8019057839708F0E8CC1B
:1035E00084E090E00E94422D9093C8058093C70527
:1035F000F801E150F047E232F10508F01CCCEB5E37
:10360000F14D0C946D2CF801E851FC47E730F105C1
:1036100008F004CCE95CF14D0C946D2C1F93CF9312
:10362000DF9380910106803108F04CC08091FE0547
:10363000882309F447C08091CB052091CA05609189
:10364000FC053091FD05C091FF05D0910006732F58
:1036500076232817B9F190E0209709F443C016E0CB
:103660007F3F09F43FC0189FF001199FF00D11240E
:10367000DF01A453BA4F11964C91119734132CC00B
:103680004C91461329C012964C91129741111EC0BD
:1036900013964D915C914C1B5D0B483C5105E0F439
:1036A000809101068F70806180930106EF52FA4F7E
:1036B00080818F70806180838CEF95E00E948915F6
:1036C0000E94F303DF91CF911F91089501968770B7
:1036D00099272813C8CFF6CF01968770992728130A
:1036E000BFCFF0CF01968770B4CFABE0B0E0EBE78F
:1036F000FBE10C94802C8C0185E0F801DE0117962B
:1037000001900D928A95E1F7F801C280A380B48000
:103710008CEF882E85E0982E8091FC059091FD0518
:103720002091FF05309100062115310509F40CC1E7
:10373000492F48234F3F09F407C1D090FE05A5014A
:10374000421B530BDD2009F4D2C0F0900106483C27
:10375000510508F0ACC021815FE05F1508F46BC033
:10376000EC2C291313C09081981310C0C1101EC0F7
:103770008F2D8F70806180930106C4010E9489158E
:1037800080910106F8018583E12C50C08F819885D6
:10379000A114B10489F0282F29232F3F69F0E0916B
:1037A000CB052091CA0536E0CC20E1F080910106DE
:1037B000816080930106E8CFCC2031F3F7CF4E2F04
:1037C00050E03E9FF0011124E453FA4F61816913E8
:1037D00006C06081681303C062816111D5CFFA0110
:1037E0003196E770E213EBCF8F8198850E948213A8
:1037F000292F22952F70903248F49F70992311F051
:103800008823A1F0805E883088F004C0225F2F708A
:10381000223028F0C8010E948915ED2C07C09F7046
:10382000992381F3F8019581903160F78E2D2B96C5
:10383000ECE00C949C2C291312C0908198130FC0BB
:10384000C1100DC0F582C8010E94891586E0F801FB
:10385000ACEFB5E001900D928A95E1F725C0C80163
:103860000E949113882309F46BC0CC2009F468C02E
:1038700080910106803270F08091FC059091FD05E9
:103880009A8389831B82BD82AC82FE82CE0101961F
:103890000E94891586E0F801ACEFB5E001900D9229
:1038A0008A95E1F70E940E1BEE24E394BFCFFFE060
:1038B000FF1550F08CEF95E00E94891586E0F40129
:1038C00011928A95E9F760CFF80121819213C7CF51
:1038D00090819813C4CFC110C2CFF582C8010E9455
:1038E000891586E0F40111928A95E9F7DDCF483C0D
:1038F000510520F7CC2021F12181921317C090812E
:10390000981314C08091010680FDA0CF803108F487
:103910009DCF8583807F803F09F495CF8581982F47
:10392000907F905F8F70892B85838DCFC8010E9417
:1039300091138111AFCF80910106816080930106C0
:10394000C8010E948915B0CFCC20D1F3C8010E94D4
:1039500091138823A9F39ECFA7E1B0E0E2EBFCE14D
:103960000C94892C4B8B5C8B962F6D8B7E8B8F8B65
:1039700061111092C9051A8A85E0FE017396DE0175
:103980001D9601900D928A95E1F79F8786E0FE01D2
:103990003D96DE01179601900D928A95E1F7CE01D2
:1039A00007960E94751B811131C086E0FE01379693
:1039B000DE01119601900D928A95E1F78F8198852D
:1039C0002091CA054091CB056A857B85672BF1F074
:1039D00089238F3FD9F030E0C9010196877099277C
:1039E00050E084179507E9F096E0929FD001939FED
:1039F000B00D1124A453BA4FFE01319601900D92DF
:103A00009A95E1F78093CA050E94F30316E080912E
:103A1000CB059091CA05891312C06796E3E00C9418
:103A2000A52C0E9444151092CA051092CB0586E081
:103A3000ECEFF5E0DF011D928A95E9F7E7CF189FDB
:103A4000C001112484539A4F0E94751B882329F3C7
:103A50008091CB0590E00196877099278093CB05E4
:103A6000D6CFAAE2B0E0E7E3FDE10C94892C89E32C
:103A700093E0FC0101962091F100208323E0813442
:103A80009207B9F780913A03893009F456C0C8F417
:103A9000823009F4B3C0833009F482C0813071F1FF
:103AA0008091E80083FFE7C08091390390913A0349
:103AB0009A3008F0E0C0E92FF0E0E25CF14D0C94A0
:103AC0006D2C8A3009F489C08B3051F7809139030D
:103AD000813231F780913D0390913E03892B01F7AC
:103AE0008091E800877F8093E8000E94830D809199
:103AF0003B03809313010E944415D2CF8091390378
:103B0000813A71F68091E800877F8093E800809188
:103B10003D0390913E03892B61F060E080E090E0EE
:103B200070E00E942A0D8091E8008B778093E80076
:103B3000B7CF60E281E493E0F3CF80913903813223
:103B400009F0AECF80913D0390913E038D7F892B8C
:103B500009F0A6CF8091E800877F8093E8008091EC
:103B6000E80082FF18C09091F3008091F200029764
:103B700031F48091F100813011F0863021F4809190
:103B8000F100809361038091E8008B778093E800D7
:103B90000E94830D85CF809167058111E0CF80CF92
:103BA00080913903813A09F07BCF80913D03909158
:103BB0003E03892B09F074CF8091E800877F8093C2
:103BC000E8008091E80080FFFCCF80911301809392
:103BD000F1008091E8008E77D9CF8091390381324E
:103BE00009F05ECF8091E800877F8093E8000E9413
:103BF000830D80913C038093350352CF809139032C
:103C0000813A09F04DCF8091E800877F8093E800EA
:103C10008091E80080FFFCCF80913503D8CF8038B9
:103C200089F0823841F580913D038F70873018F517
:103C30008093E9008091EB0085FB882780F9109242
:103C4000E90006C0809136039091E80491118260EA
:103C50009091E800977F9093E8008093F100109294
:103C6000F1008091E8008E7723C0811116C0809109
:103C70003B03813011F18091E80083FF0AC08091FD
:103C8000E800877F8093E8008091EB00806280935A
:103C9000EB00AA96E3E00C94A52C823061F78091AA
:103CA0003B03882389F01092E9008091E800877F28
:103CB0008093E8000E94830DDECF81E0933009F00D
:103CC00080E08093E804EFCF80913D038F702FEF69
:103CD000280F263080F68093E9002091EB0020FF2A
:103CE000E2CF933031F48091EB0080628093EB005F
:103CF000DACF9091EB0090619093EB0021E030E0FF
:103D0000A90102C0440F551F8A95E2F74093EA00CB
:103D10001092EA008091EB008860E8CF8111ABCF70
:103D200010913B031F778091E3008078812B809373
:103D3000E3008091E800877F8093E8000E94830D74
:103D40008091E80080FFFCCF8091E3008068809341
:103D5000E30083E0111101C082E0809367058BCFFF
:103D60008058823008F087CF40913B0350913C034C
:103D70004C3D83E0580799F583E08A838AE2898382
:103D80004FB7F894DE01139620E03EE051E2E32FB6
:103D9000F0E050935700849120FF03C082958F700C
:103DA0003F5F8F708A30C8F0895C90E08D939D935F
:103DB0002F5F243161F74FBF8091E800877F8093A8
:103DC000E8006AE270E0CE0101960E942A0D80911F
:103DD000E8008B778093E8004ECF805DE6CF80913E
:103DE0003D0390913E03252F33272330310509F4FD
:103DF0004AC078F52130310509F479C08BE590E0AF
:103E0000E4ECF1E02230310509F035CF2091E800F3
:103E1000277F2093E80020913F03309140038217D1
:103E2000930708F49C0140E02115310509F064C0B6
:103E3000411162C08091E80082FDC9CF8091670581
:103E4000882329F2853019F28091E80083FFF2CFB0
:103E5000BECF2132310509F43BC02232310509F0D1
:103E60000ACF8330910508F006CFFC01EE0FFF1F4B
:103E7000E55EFE4F0190F081E02D885E9E4FDC01F3
:103E80008C9190E011C0CA019927413089F08230AD
:103E90009105B1F0892B09F0EECEE1E5F2E0E49175
:103EA0008E2F90E0E1E5F2E0009709F4E4CEAECF8A
:103EB000E1E4F2E0E4918E2F90E0E1E4F2E0F4CF6F
:103EC000E1E3F2E0E4918E2F90E0E1E3F2E0ECCF69
:103ED0008330910508F0CFCEFC01EE0FFF1FEF5DA0
:103EE000FE4F0190F081E02D89E090E08FCF82E1DC
:103EF00090E0EFE1F2E08ACF80916705882309F432
:103F000066CF853009F463CF8091E80083FD5FCFF1
:103F10008091E80082FD8ECF8091E80080FF84CF01
:103F20009091F3008091F2002115310519F088304D
:103F3000910550F041E0089709F040E08091E800D9
:103F40008E778093E80070CF44914093F1003196D2
:103F5000215031090196E8CF803809F08CCE80914C
:103F6000E800877F8093E800809137038093F10019
:103F700078CE811180CE10913B03123008F07BCEB9
:103F80008091E800877F8093E800109337030E94B8
:103F9000830D1123D1F084E08093670542E061EC4A
:103FA00081E00E94DB1042E261EC84E00E94DB10C1
:103FB00042E261EC82E00E94DB1042E260EC83E0CE
:103FC0000E94DB108091670556CE8091E30087FD4B
:103FD000E2CF81E0E1CF67EE7EEF80E090E00E94EB
:103FE000762D60E082E090E00E94582D60E083E052
:103FF00090E00E94582D1092C40560E074E184E0C6
:1040000090E00E94762D60E086E090E00E94582DBE
:104010006FEF87E090E00E94582D40E050E0BA0139
:1040200088E090E00E946A2D60E08DE090E00E94C0
:10403000582D40E050E0BA0188E190E00E946A2DDE
:1040400060E087E190E00E94582D40E050E0BA0126
:104050008CE190E00E946A2D60E070E080E290E0E8
:104060000E94762D40E050E0BA0188E190E00E9485
:104070006A2D80E00E9443120E94D11240E050E07D
:10408000BA018FE090E00E946A2D40E050E0BA0152
:1040900083E190E00E946A2D0895A6E1B0E0E3E597
:1040A000F0E20C94802CFE01319686E1DF011D9236
:1040B0008A95E9F70FE211E0EE24E394F12C5F0119
:1040C000CC24C394D12CF80181918F018F3F09F446
:1040D0004CC0F894E82FE295EF70F0E021A18F70CA
:1040E000A60102C0440F551F8A95E2F7CA01922F1C
:1040F000982B91A392A18095892382A3789400C0E4
:10410000A8E3B1E04501A701409550956D91F401F8
:10411000819191914F016F3F09F466C0262F22953E
:104120002F70205E30E0F901208130E06F7002C016
:10413000359527956A95E2F72170211155C08E2992
:104140009F29940122503109F90191838083F1E084
:10415000A334BF07D9F6F801319780818F3F11F062
:104160000E942F0640EA4A95F1F7EE0CFF1C51E041
:104170000833150709F0A7CF46E150E0B50187EAFB
:1041800094E00E940D2D892B91F186E1F501A7EABB
:10419000B4E001900D928A95E1F781E080933203BB
:1041A0000E94020C9093310380933003809130037E
:1041B000909131030E94180D0597E8F046E150E018
:1041C00067EA74E080E395E00E940D2D892B49F0A9
:1041D00086E1E7EAF4E0A0E3B5E001900D928A956C
:1041E000E1F71092320307C084239523AACF809170
:1041F00032038111DBCF6696ECE00C949C2C1F936C
:10420000CF93DF93EC01FC01EC58FD4F808190913E
:10421000070189238823B1F00E94FD2C182F0E94EA
:10422000FD2C782F7F7720E8720F08F47FEF612F45
:104230008091BF050E948D06462F672F282FCE0143
:104240000E94870ADF91CF911F910895A0E0B0E00E
:10425000ECE2F1E20C94812CC82F809112018C13B6
:1042600025C02091BC05237030E04091110150E041
:1042700081E02417350709F480E0817080930801FC
:104280008091C10590910701981739F0809307013B
:1042900040E060E080E00E948A0AC93208F01AC259
:1042A000EC2FF0E0E85BF14D0C946D2C81E0E5CF54
:1042B00080910801882309F4D8C240E060E080E0E2
:1042C0000E948A0A809106018F5F8093060182E036
:1042D0008093140180910801882309F4CBC2CDB7E3
:1042E000DEB7EBE00C949D2C0091060185E1089F60
:1042F000002D1124D5E1D00FCD2ED83610F0F7E6E1
:10430000CF2E6091BD057091BE058091BF050E94C2
:104310008D06F62EE72ED82E10E00C1530F081E039
:10432000D73608F42FC180E02DC1F801EC58FD4FBD
:104330008081909107018923882331F02D2D4F2D05
:104340006E2DC8010E94870A0F5F1F4FE6CF0091B4
:10435000060185E1089F002D1124D5E1D00F9D2E87
:10436000D83610F0E7E69E2E1091BD05B090BE0540
:10437000C090BF05612F7B2D8C2D0E948D06F62EDF
:10438000E72ED82E8091C005612F680F7B2D8C2DD4
:104390000E948D06C62EB72EA82E10E0091508F033
:1043A000BECFF801EC58FD4F908180910701892321
:1043B000882359F02A2D4C2D6B2D90FD03C02D2DF7
:1043C0004F2D6E2DC8010E94870A0F5F1F4FE6CF49
:1043D0000091060185E1089F002D1124D5E1D00F41
:1043E000ED2ED83610F077E6E72ED090BE05C090BF
:1043F000BF052091C00560E4F62E3F2D329F312D80
:104400001124F32E10E00E1508F089CFF801EC58B6
:10441000FD4F80819091070189238823B9F0F8012D
:10442000EE0FFF1FE955FE4F808182958F706091DE
:10443000BD058F9D600D11247D2D8C2D0E948D0654
:10444000462F672F282FC8010E94870A0F5F1F4F32
:10445000DACF0091060185E1089F002D1124D5E1F6
:10446000D00FDD2ED83610F047E6D42EC090BE0512
:10447000B090BF053091C00520E4239F212D112469
:1044800010E0E22EF12C0D1508F049CFF801EC58A0
:10449000FD4F80819091070189238823E9F0F8017D
:1044A000EE0FFF1FEA55FE4F20812E9DC0012F9D6C
:1044B000900D112435E0959587953A95E1F7609137
:1044C000BD05680F7C2D8B2D0E948D06462F672F12
:1044D000282FC8010E94870A0F5F1F4FD4CF009179
:1044E000060185E1089F002D1124D5E1D00FCD2EC6
:1044F000D83610F097E6C92EF090BD051091BE0594
:10450000E090BF056091C0056695669566958091BF
:10451000A3049091A4040E9415070E944F0780589D
:1045200087FD8195880F282F3E2D239F212D112453
:10453000822F6F2D712F0E948D06F62EE72ED82E1A
:1045400010E00C1508F0EBCEF801EC58FD4F80811F
:10455000909107018923882331F02D2D4F2D6E2D49
:10456000C8010E94870A0F5F1F4FEBCF8DE997E0CC
:104570000E94660F07C089EC97E0FACF87EF97E0BB
:104580000E94F20D909106019F5F909306018111A8
:10459000A6CE82E0809314018091080181119FCE04
:1045A000CC239BCE85E198E0EBCF84E398E00E949A
:1045B000490EE8CF8FE498E0FACF8AE698E0D8CFAA
:1045C0008CE698E0D5CF85E798E0D2CF8EE798E0EB
:1045D000CFCF87E998E0EBCF88EA98E0D1CF81EDA3
:1045E00098E0CECF82EE98E0E2CF86EF98E00E948E
:1045F000B70EC8CF84E299E0FACF83E599E0F7CF10
:104600000091060185E1089F002D1124D5E1D00F0E
:104610008091080181112FC06091C00520E1620FD7
:1046200008F46FEF8091A3049091A4040E941507F1
:104630006AE070E00E94452C892B09F070CE409111
:1046400004015091050125E038E0429FC001439FDD
:10465000900D529F900D1124875E994C9093050107
:1046600080930401890F67E60E94392C892F90E01E
:104670000E94190F54CE8D2FD83608F087E610E02F
:10468000E82EF12C0E151F050CF049CEC8010E9432
:10469000190F0F5F1F4FF6CF80910801811123C0C2
:1046A0006091C00520E1620F08F46FEF8091A304D0
:1046B0009091A4040E94150765E070E00E94452CCB
:1046C000892B41F40E94FD2C67E670E00E94592C72
:1046D0000E94FF20809106018F5F8093060182E097
:1046E00080931401FCCD0091060185E1089F002D07
:1046F0001124D5E1D00F8D2FD83608F087E610E0D1
:10470000E82EF12C0E151F050CF009CEC8010E94F1
:10471000FF200F5F1F4FF6CF0091060185E1089F34
:10472000002D1124D5E1D00FCD2ED83610F087E61C
:10473000C82EE090BE05F090BF051091BD056091B8
:10474000C0056695669566958091A3049091A40432
:104750000E9415070E944F07805887FD8195880F9A
:10476000282F3CE0239F212D1124612F620F7E2DE5
:104770008F2D0E948D06F62EE72ED82E10E00C15F8
:1047800008F0CDCDF801EC58FD4F808190910701E4
:104790008923882331F02D2D4F2D6E2DC8010E94C5
:1047A000870A0F5F1F4FEBCF8CE899E0E1CE82EBD9
:1047B00099E0DECE83EC99E00E94B20FE3CE8AEC62
:1047C00099E0FACF8091BD0421E0382F321B08F424
:1047D00030E0832F60ED79E00E942910D3CE60EDA8
:1047E00079E080E0F9CF8091BD0421E0382F321BC1
:1047F00008F430E0832F69EE79E0EECF69EE79E0DE
:10480000F0CF8091BD0421E0382F321B08F430E056
:10481000832F61E27AE0E0CF61E27AE0E2CF80913B
:10482000BD0421E0382F321B08F430E0832F63E50C
:104830007AE0D2CF63E57AE0D4CF8091BD0421E065
:10484000382F321B08F430E0832F6BE67AE0C4CFB8
:104850006BE67AE0C6CF9091060185E1989F800DC6
:104860001124982F81E096365CCD809106018F5FF0
:104870008093060183E034CF46E050E06CE170E0C5
:104880008CEB95E00E94482D109246050895ECEBC4
:10489000F5E085E380838091150190911601A09148
:1048A000170181839283A3838FE784838FEF8583AE
:1048B0000E943C2408954F925F926F927F928F9254
:1048C0009F92AF92BF92CF92DF92EF92FF92C090F1
:1048D0009B04D0909C04E0909D04F0909E048FB7C0
:1048E000F89440909F045090A0046090A1047090B0
:1048F000A2048FBF530142018C189D08AE08BF0867
:104900000E94FB0C282F60939B0470939C0480935F
:104910009D0490939E04A091EB04EBEEF4E08A2FAB
:1049200030E04FEFC40ED41EE11CF11CC418D508B2
:10493000E608F708A3132EC08093EB048091E704E8
:1049400081113BC03091BC05832F8370882319F0FF
:10495000832F8695869530911401323009F441C039
:1049600070F531113BC0109206016093A30470935F
:10497000A4042093A5049093A60489E2EBEEF4E04E
:10498000ADEBB4E001900D928A95E1F781E0809360
:10499000140117C0418D528D2A01612C712CC41451
:1049A000D504E604F70420F481503F5F3296C2CF6D
:1049B000480D591D528F418FF8CF80E0CCCF333056
:1049C000D9F0FF90EF90DF90CF90BF90AF909F9085
:1049D0008F907F906F905F904F9008950E94262156
:1049E000F0CF809312018091BC05837080931101F8
:1049F0000E946D1183E0CBCF8091460581110E940A
:104A00003C244091A3045091A4046091A5047091AA
:104A1000A6042FB7F89480919F049091A004A091D0
:104A2000A104B091A2042FBF841B950BA60BB70B5A
:104A30004097A105B10528F210921401C2CFCDB75D
:104A4000DEB7AB970FB6F894DEBF0FBECDBF85B70C
:104A5000806885BF85B7806885BF84B7877F84BF3E
:104A60000FB6F894A89580916000886180936000EB
:104A7000109260000FBE80E890E00FB6F89480932B
:104A80006100909361000FBE8DE296E090930F035A
:104A900080930E030E94D30D0E9412118091E200B8
:104AA00084608093E200789480916705882399F070
:104AB0008091E9001091EC001795112717958F70E0
:104AC000182B1092E9008091E80083FD0E94311DAF
:104AD0001F701093E90082E084BD93E095BD9AEFCA
:104AE00097BD80936E000E94E112811102C00E9466
:104AF000D1120FE211E088E3E82E81E0F82ED80110
:104B00008D918D018F3F11F00E942F06E016F10666
:104B1000B1F708E311E0F80181918F018F3F11F0A7
:104B20000E942F06F1E003341F07A9F786E1E0E3B6
:104B3000F5E0DF01282F1D922A95E9F7E7EAF4E076
:104B4000DF011D928A95E9F780E090E00E94422DF6
:104B5000873E9E4F21F40E94E112811102C00E9403
:104B6000EB1F82E090E00E943A2D8093140584E0D0
:104B700090E00E94422D9093C8058093C7050E9443
:104B80004D20EFE3FCE93197F1F700C000000E94EF
:104B90004D208091300580FF08C06FEF7FEF80E0EF
:104BA00090E00E94762D0E94941183E090E00E9494
:104BB0003A2D0E9466031092BD0440E150E06FEF71
:104BC00070E086ED94E00E94232D1092EB0440E10A
:104BD00050E06FEF70E084E095E00E94232D80E0CC
:104BE00090E00E94422D873E9E4F21F40E94E112E8
:104BF000811104C00E94EB1F0E94472481E0809332
:104C0000460546E050E06CE170E08CEB95E00E94D8
:104C10002A2D109246058091BC05843010F40E9424
:104C2000472489E091E0909369058093680580911D
:104C3000670513E0853009F4CCC00E944D20E5E102
:104C4000F5E0FEA3EDA300E3E02E05E0F02E4BE23D
:104C500055E0D701219131918D919D914E175F07BC
:104C600009F4DBC028173907A9F313E4212E11E05A
:104C7000312E20E335E039A728A7612CA8A5B9A5D6
:104C8000CD90DD90B9A7A8A7EDA1FEA1819191914A
:104C9000FEA3EDA38C159D0509F441C09C012C25B4
:104CA0003D253BA72AA7210119A2AA24A394B12C30
:104CB0008AA59BA58A219B21892B11F185010C21B5
:104CC0001D2139A139836A8281E00115110509F49A
:104CD00080E08B830E94020C8160782F9D838C83FF
:104CE00049815A816B81892F0E94AC1C8091EB0411
:104CF000012B09F031C1792C893008F08DC1972C36
:104D000029A12F5F29A3AA0CBB1C3FEF431A530A0A
:104D1000293071F6EDA1FEA13297D182C082639451
:104D200049E0240E311C8BE06812A8CF0E94FB0CD6
:104D300096C080916705843009F43AC00E945B24D4
:104D40008091E70481110DC00E942621109212016A
:104D50008091BC058370809311010E946D111093A6
:104D6000140121E02093E7041092E60488E190E02A
:104D7000A0E40FB6F894A895809360000FBEA093AE
:104D8000600083B7817F846083BF83B7816083BF06
:104D90007894889583B78E7F83BF0FB6F894A895D3
:104DA00080916000886180936000109260000FBE67
:104DB0008091E804882369F00E944D20E0E3F5E04B
:104DC00086E495E021913191232B79F48E179F078A
:104DD000C9F780916705853009F4ABCF0E9444156F
:104DE0000E94730B1092E70428CF80E189BD82E115
:104DF00089BD09B400FEFDCF8091D8008F7D8093DE
:104E0000D8008091E00082608093E0008091E00013
:104E100081FDFCCF0E944415DCCF2817390709F02B
:104E200024CF0E94020C8C018091E9049091EA0445
:104E300008171907A1F08FEF89838A831B820E94CC
:104E4000020C8160782F9D838C8349815A816B810C
:104E5000892F0E94AC1C1093EA040093E9040E947D
:104E60005B2486E0E4EBF5E0DE01119601900D9203
:104E70008A95E1F71092B6051092B7051092B80521
:104E80001092B9058B819C81892B882379F08091C0
:104E90002D0590912E050E94180D9C018091B20560
:104EA0008111BEC02B30310508F0C0C08D819E81BC
:104EB000892B882379F080912B0590912C050E94F5
:104EC000180D9C018091B1058111F0C02B30310586
:104ED00008F0F2C046E050E0BE016F5F7F4F84EB08
:104EE00095E00E940D2D892B61F48091B60590917B
:104EF000B705892B9091B805892B9091B905892B1D
:104F000081110E940E0C86E0FE013196A4EBB5E003
:104F100001900D928A95E1F70E94730B90912F05F5
:104F2000891721F080932F050E94FB0C8091670563
:104F3000843009F07CCE83E08093E9008091E80022
:104F400082FF75CE8091E80085FDF6C08091E80073
:104F50008B778093E8006BCED2017C90BFEF7B16FD
:104F600009F4C9CE8830A8F101E010E0E1E0EFA338
:104F7000E8E08E2E912C801A910AB80164517B4F83
:104F8000A4018CEE94E00E941A2DB8016C507B4F66
:104F9000A40184EF94E00E941A2DA401440F551F30
:104FA000B801660F771F6C5F7A4F84E095E00E942E
:104FB0001A2DB80164507B4FA4018CEF94E00E943D
:104FC0001A2D88E0FFA18F1B8093EB04FF2309F4C7
:104FD00096CE4091EB04872D90E0242F30E0F9012C
:104FE000E551FB4FDC01AA0FBB1FAA55BE4F5C91D8
:104FF0005183880F991FDC01A955BE4F8C91818781
:10500000718AF901EE0FFF1FE551FB4F128E118ED1
:105010004F5F4093EB0473CE00E010E01FA2A8CFD7
:105020002531310508F442CF8F3F19F08F5F80930F
:10503000B2051B81112359F00E94480691E0111618
:105040000CF09FEF899F802D11248093B6051C8161
:10505000112359F00E94480691E011160CF09FEFC1
:10506000899F802D11248093B7053091B605332395
:1050700009F41CCF2091B705222309F417CF45EB83
:105080003403C0011124892F911101C081E0809364
:10509000B60545EB240390011124332319F0309316
:1050A000B70504CF81E08093B70500CF21353105E6
:1050B00008F410CF8F3F19F08F5F8093B1051D81E9
:1050C000112359F00E94680691E011160CF09FEF31
:1050D000899F802D11248093B8051E81112359F0DA
:1050E0000E94680691E011160CF09FEF899F802DB9
:1050F00011248093B9053091B805332309F4EACE21
:105100002091B905222309F4E5CE45EB3403C00113
:105110001124892F911101C081E08093B80545EBDE
:10512000240390011124332319F03093B905D2CE12
:1051300081E08093B905CECE0E94A20D882381F034
:105140008091E8008B778093E8008981EFEFE80F8A
:10515000E83208F0B3C0F0E0EF58F14D0C946D2C3C
:1051600080E2C82ED12C8E010F5F1F4F8091E80086
:1051700085FD0AC08091E8008B778093E8000E944B
:10518000A20D882399F3DCCF8091F100D8018C9394
:10519000B1E0CB1AD108C114D10491F20F5F1F4FB7
:1051A000E5CF81E2809347051092480583E1809323
:1051B00049058BE080934A0540E250E067E475E0E2
:1051C00082E00E94B81140E250E0BE016F5F7F4F65
:1051D00082E00E94B8112BCD82E28093470581E0E6
:1051E000809348051092490584E0E4CF83E28093E0
:1051F0004705109248051092490510924A05DCCFE8
:10520000CA80DB80E9E0ED15D0F08E010F5F1F4F03
:10521000EC2CF12C0D5F1F4F8E2D8C198D1598F6EF
:10522000D80112962C91129711964C9111976C916E
:10523000C7010E94870ABFEFEB1AFB0AEBCF8EEF84
:1052400080934805B9CF60E088E20E94990ABBCFFD
:105250000E948D0A81E08093460546E050E06CE1B3
:1052600070E08CEB95E00E942A2D1092460580910B
:10527000BC05982F9370992309F4A5CF60E086951B
:105280008695E3CF87E28093470587E6D9CF88E20A
:105290008093470582E08093480540E250E067E450
:1052A00075E08FCF1A828BE08B838DCF8A8183301C
:1052B00009F138F4813061F0823099F08FEF898301
:1052C00082CF8430D9F71B821C821D821E827BCF45
:1052D0000E94FB0C0E94732C6B837C838D839E83C6
:1052E00072CF85E290E00E943A2D1B821C821D82C3
:1052F0008E8369CFFE013196D7018C9111969C91D6
:10530000B2E0EB0EF11C92838383329626E4E21620
:1053100025E0F20689F757CF8A81823071F0853017
:1053200069F68091BC0591E089278093BC051092B5
:10533000140180E00E94810A46CF8B819C81AD815F
:10534000BE8189A39AA3ABA3BCA3BC01CD010E94DB
:10535000732C85E290E00E94582D35CF4C816B81F3
:105360008A810E94FA129827892798279E838D8325
:105370002ACF2D813E813227232732274C816B8112
:105380008A810E9461121FCF0E9488121CCF9A81CD
:10539000933009F093CF883009F43CC0893009F488
:1053A00066C08B81833091F158F4813091F0823066
:1053B00009F009CF8C8181111AC00E948D0A03CF98
:1053C000843009F000CF8C8120E04091BF056D81D1
:1053D0000AC04C8124EB429F412D11248091BD05D0
:1053E00020E06091BE0590E00E94CF0AECCE909143
:1053F000BC059370911102C0109214019091BC05EC
:105400009C7F91609093BC0560E01FCF8C8180935E
:10541000C0058FCF8B81833039F180F48130C1F0AA
:10542000823009F0D0CE8091BC05982F937086957C
:105430008695911101C080E08C83C5CE843009F03F
:10544000C2CE8091BD058C838091BE058D83BBCE7D
:105450008091BF05AFEF8A9FC001112464EB70E01B
:105460000E94452C6C83AFCE8091C005E5CF0E9491
:105470003C24A9CE80E18A83A6CE81E08A8388E895
:1054800013CFCA80DB80DC24CD24DC248C81760120
:10549000E80EF11C8E010B5F1F4FEC14FD0409F4A4
:1054A00092CE80E0B8E8CB16B1E0DB0628F4C60166
:1054B00088589D4F0E943A2DF80181938F01FFEF8C
:1054C000CF1ADF0AEACF0A811B8110270127102794
:1054D0009E012F5F3F4F69018C817901E80EF11C1D
:1054E000CE14DF0409F46FCE083831E0130740F41E
:1054F000D60114966C91C80188589D4F0E94582D72
:105500000F5F1F4FBFEFCB1ADB0AEACF0E94C11219
:105510005ACE83E0B0CFCA80DB80DC24CD24DC24EB
:105520008C817601E80EF11C8E010B5F1F4FCE14AB
:10553000DF0409F448CE80E0E2E5CE16E2E0DE06C4
:1055400020F4C60186960E943A2DD8018D938D01D4
:10555000BFEFCB1ADB0AEBCF0A811B811027012793
:105560001027FE0131966F018C817F01E80EF11C3E
:10557000CE14DF0409F427CE0235F2E01F0738F419
:10558000D60114966C91C80186960E94582D0F5F23
:105590001F4FBFEFCB1ADB0AEBCF1F921FB61F9234
:1055A00011248F939F93AF93BF938091E604811151
:1055B00013C080919F049091A004A091A104B09188
:1055C000A2044196A11DB11D80939F049093A00455
:1055D000A093A104B093A204BF91AF919F918F912A
:1055E0001F901FBE1F90189578941F921FB61F9290
:1055F00011248F939F93AF93BF9380919F049091B9
:10560000A004A091A104B091A2040196A11DB11D16
:1056100080939F049093A004A093A104B093A2044C
:10562000BF91AF919F918F911F901FBE1F901895B2
:105630001F920F920FB60F9211242F933F934F9307
:105640005F936F937F938F939F93AF93BF93EF93EA
:10565000FF938091E10082FF09C08091E20082FF08
:1056600005C08091E1008B7F8093E1008091DA009A
:1056700080FF24C08091D80080FF20C08091DA0094
:105680008E7F8093DA008091D90080FF9BC080E1FB
:1056900089BD82E189BD09B400FEFDCF81E0809320
:1056A000670580913803811109C00E94D30D0E94C3
:1056B00012118091E20084608093E2008091E10009
:1056C00080FF17C08091E20080FF13C08091E2004C
:1056D0008E7F8093E2008091E20080618093E200FF
:1056E0008091D80080628093D80019BC85E08093B7
:1056F00067058091E10084FF29C08091E20084FF6A
:1057000025C080E189BD82E189BD09B400FEFDCFDD
:105710008091D8008F7D8093D8008091E1008F7EAA
:105720008093E1008091E2008F7E8093E20080917F
:10573000E20081608093E20080913703882309F4BE
:1057400047C084E080936705809167058091E10000
:1057500083FF27C08091E20083FF23C08091E10096
:10576000877F8093E10082E0809367051092370382
:105770008091E1008E7F8093E1008091E2008E7F36
:105780008093E2008091E20080618093E20042E039
:1057900060E080E00E94DB108091F00088608093E0
:1057A000F000FF91EF91BF91AF919F918F917F9109
:1057B0006F915F914F913F912F910F900FBE0F907E
:1057C0001F90189519BC109267051092380376CF78
:1057D0008091E30087FF02C083E0B4CF81E0B2CFC5
:1057E0001F920F920FB60F921124FF920F931F93E7
:1057F0002F933F934F935F936F937F938F939F93D9
:10580000AF93BF93CF93DF93EF93FF9309EE10E035
:10581000F8018081C091EC00C795CC27C7958F70A7
:10582000FC2EF82A1082C0EFD0E08881877F888321
:1058300078940E94311DF8011082888188608883E5
:10584000CF2DCF70C083FF91EF91DF91CF91BF91AA
:10585000AF919F918F917F916F915F914F913F9108
:105860002F911F910F91FF900F900FBE0F901F90DF
:105870001895991B79E004C0991F961708F0961B9C
:10588000881F7A95C9F780950895AA1BBB1B51E123
:1058900007C0AA1FBB1FA617B70710F0A61BB70BA0
:1058A000881F991F5A95A9F780959095BC01CD0145
:1058B000089597FB072E16F4009407D077FD09D0C2
:1058C0000E94452C07FC05D03EF4909581959F4F92
:1058D0000895709561957F4F0895EE0FFF1F059015
:1058E000F491E02D0994692796276927782787275F
:1058F000782708952F923F924F925F926F927F92F6
:105900008F929F92AF92BF92CF92DF92EF92FF92CF
:105910000F931F93CF93DF93CDB7DEB7CA1BDB0B7B
:105920000FB6F894DEBF0FBECDBF09942A88398820
:1059300048885F846E847D848C849B84AA84B98427
:10594000C884DF80EE80FD800C811B81AA81B98133
:10595000CE0FD11D0FB6F894DEBF0FBECDBFED0147
:1059600008958F929F92AF92BF92CF92DF92EF9263
:10597000FF92CF93DF93EC01688179818A819B81CB
:10598000611571058105910521F464E279ED8BE5DE
:1059900097E02DE133EF41E050E00E947C2D49017A
:1059A0005A019B01AC01A7EAB1E40E949B2D6B0157
:1059B0007C01ACEEB4EFA50194010E94A92DDC019D
:1059C000CB018C0D9D1DAE1DBF1DB7FF03C0019700
:1059D000A109B04888839983AA83BB839F77DF910D
:1059E000CF91FF90EF90DF90CF90BF90AF909F90BE
:1059F0008F9008950E94B12C089580E091E00E945C
:105A0000B12C0895B0E0A0E08093000190930101D3
:105A1000A0930201B09303010895FB01DC0104C0CF
:105A20008D910190801921F441505040C8F7881B96
:105A3000990B0895FB01DC0102C001900D924150C9
:105A40005040D8F70895DC0101C06D93415050409B
:105A5000E0F70895DC01CB01FC01F999FECF06C007
:105A6000F2BDE1BDF89A319600B40D92415050401C
:105A7000B8F70895F999FECF92BD81BDF89A99279C
:105A800080B50895A8E1B0E042E050E00C942C2DE0
:105A9000DC01A40FB51F4150504048F0CB01840FEA
:105AA000951F2E910E94592D41505040D0F70895D6
:105AB000262FF999FECF92BD81BDF89A019700B4C7
:105AC000021639F01FBA20BD0FB6F894FA9AF99A67
:105AD0000FBE08950396272F0E94592D0E94582D1E
